:020000000C945E
:1000020021040C9400000C9400000C9400000C9449
:1000120000000C9400000C9400000C9400000C945E
:1000220000000C9400000C9400000C9400000C944E
:1000320000000C9400000C9400000C9400000C943E
:1000420098040C9400000C9400000C9400000C9492
:1000520000000C9400000C9400000C9400000C941E
:1000620000000C9400000C9400000C9400000C940E
:1000720000000C9400000C9400000C9400000C94FE
:1000820000000C9400000C9400001027E8036400A8
:100092000A000100001000011000010000002020F1
:1000A200202020202020202020202020202020204E
:1000B200202020202020202020202020202020203E
:1000C2002020202020202020202020202020005A14
:1000D200616369736B206E6965207A6D6965727AF6
:1000E2006F6E7920752057796B6F6E617763790037
:1000F2004F73207A616369736B7520626C697A65EC
:100102006A20737A616679004F73207A616369733A
:100112006B752064616C656A206F6420737A616616
:1001220079004369736E69656E6965207A61206D35
:10013200616C65202D206D6E69656A737A65206E2B
:10014200697A2036206261720038362D30313730BC
:100152000038362D313034330038362D31363735CC
:100162000038362D323039380038372D30313730BB
:100172000038372D313034330038372D31363735AA
:100182000038372D323039380038362D3031393297
:100192000038362D313035340038362D3136373689
:1001A2000038362D323133320038372D3031393282
:1001B2000038372D313035340038372D3136373667
:1001C2000038372D323133320038362D3031393361
:1001D2000038362D313231360038362D313833324F
:1001E2000038362D323137340038372D303139333B
:1001F2000038372D313231360038372D313833322D
:100202000038372D323137340038362D3031393419
:100212000038362D313334310038362D313833330E
:100222000038362D323138300038372D30313934FC
:100232000038372D313334310038372D31383333EC
:100242000038372D323138300038362D30363633DB
:100252000038362D313334390038362D31383334C5
:100262000038362D323230340038372D30363633BE
:100272000038372D313334390038372D31383334A3
:100282000038372D323230340038362D3037363898
:100292000038362D313335370038362D3138343881
:1002A2000038362D323231320038372D3037363879
:1002B2000038372D313335370038372D313834385F
:1002C2000038372D323231320038362D3038303066
:1002D2000038362D313336330038362D313930344B
:1002E2000038362D323234310038372D3038303044
:1002F2000038372D313336330038372D3139303429
:100302000038372D323234310038362D3038313121
:100312000038362D313532330038362D3139323905
:100322000038362D323236310038372D30383131FF
:100332000038372D313532330038372D31393239E3
:100342000038372D323236310038362D30383134DC
:100352000038362D313533300038362D31393336C9
:100362000038362D323238350038372D30383134B6
:100372000038372D313533300038372D31393336A7
:100382000038372D323238350038362D3038313595
:100392000038362D313535310038362D313934318A
:1003A2000038362D323238360038372D3038313574
:1003B2000038372D313535310038372D3139343168
:1003C2000038372D323238360038362D3038313653
:1003D2000038362D313535320038362D323030374F
:1003E2000038362D323239320038372D3038313636
:1003F2000038372D313535320038372D323030372D
:100402000038372D323239320038362D3038313714
:100412000038362D313630320038362D3230313711
:100422000038362D323338340038372D30383137F2
:100432000038372D313630320038372D32303137EF
:100442000038372D323338340038362D30383437CF
:100452000038362D313632300038362D32303139CF
:100462000038362D323338350038372D30383437AE
:100472000038372D313632300038372D32303139AD
:100482000038372D323338350038362D3038353490
:100492000038362D313632320038362D323032388D
:1004A2000038362D323433370038372D3038353472
:1004B2000038372D313632320038372D323032386B
:1004C2000038372D323433370038362D3038363253
:1004D2000038362D313632350038362D323035324D
:1004E2000038362D323439320038372D3038363232
:1004F2000038372D313632350038372D323035322B
:100502000038372D323439320038362D3039333510
:100512000038362D313634380038362D3230383204
:100522000038362D323530300038372D30393335FA
:100532000038372D313634380038372D32303832E2
:100542000038372D323530300038362D31303139E0
:100552000038362D313634390038362D32303833C2
:100562000038362D323538350038372D31303139B3
:100572000038372D313634390038372D32303833A0
:100582000038372D323632340038362D313032379A
:100592000038362D313636390038362D323038377C
:1005A2000038362D323632340038372D313032377A
:1005B2000038372D313636390038372D323038375A
:1005C2000038372D32353835004E69652077637A29
:1005D2007974616E6F207A616369736B75005A6119
:1005E20074727A796D616E6F202D206E616369730A
:1005F2006E696A2053544152542061627920777A9D
:100602006E6F776963005A616D6B6E696A206F73F2
:100612006C6F6E7920676F726E652069206E616300
:1006220069736E696A205354415254004E61636982
:10063200736E696A20535441525420616279207763
:1006420079706F7A79636A6F6E6F776163206E611A
:1006520070656479005A616D6B6E696A206F736CA4
:100662006F6E7920676F726E65004F747761726387
:100672006965206F736C6F6E2077207472616B6393
:10068200696520706F7A79636A6F6E6F77616E69E0
:10069200610057796C61637A206920776C61637AB3
:1006A200206D61737A796E65005A6174727A796D20
:1006B200616E69652077207472616B636965207071
:1006C2006F7A79636A6F6E6F77616E696100506FDE
:1006D2007A79636A6F6E756A6520756B6C6164798D
:1006E200206C696E696F77652058595A005374659A
:1006F200726F776E696B2033202D207779706F7A55
:1007020079636A6F6E6F77616C656D0053746572A1
:100712006F776E696B2034202D207779706F7A792C
:10072200636A6F6E6F77616C656D00416C61726DAB
:1007320020537465726F776E696B203400416C616F
:10074200726D20537465726F776E696B203300533C
:100752007465726F776E696B2031202D2077797006
:100762006F7A79636A6F6E6F77616C656D0053742F
:1007720065726F776E696B2032202D207779706FEA
:100782007A79636A6F6E6F77616C656D00416C6137
:10079200726D20537465726F776E696B2031004100
:1007A2006C61726D20537465726F776E696B203263
:1007B200005779706F7A79636A6F6E6F77616E6FC7
:1007C20020756B6C616479206C696E696F77652046
:1007D20058595A0057796D69656E20737A637A6F3A
:1007E200746B65207065647A656C6B6F7761005716
:1007F200796D69656E206B72617A656B20736369CE
:1008020065726E790057637A7974616A207A6163DE
:1008120069736B2074656E2073616D206C75622044
:100822006E6F7779000001002D4E414E00494E4611
:100832000000010002009E0001009F052808000040
:10084200F894EE27ECBBF1E0F5BFE5BFE0936C0056
:10085200F8E1F1BDE1BD8DE0A2E0BB27ED938A9501
:10086200E9F780E090E1A0E0B1E0ED930197E9F7CC
:10087200E4E3F8E085919591009761F0A591B59137
:1008820005901590BF01F00105900D920197E1F7D7
:10089200FB01F0CF8BBFEFEFEDBFE0E1EEBFC0E0B9
:1008A200D5E00C946A250E94D13023C00E94D13039
:1008B200E6951FC00E94D130E695E6951AC00E94C7
:1008C200D130E695E695E69514C00E94D130E295C6
:1008D20010C00E94D130E295EF70E6950AC00E94E6
:1008E200D1300E94E03005C00E94D130EE1FE0E01E
:1008F200EE1FE170239608950E94E5300E94EA30CF
:10090200E4E0EA930E946A2FE3E80E94F230E1E019
:10091200EA930E946A2F0E94FD300E94FD300E94DD
:10092200FD300E2F1127F801198108815EC06A93EC
:100932007A93AA93BA93EA93FA93EFB7EA93A1E16F
:10094200B5E00E940331A5E1B5E00E940331A9E1BF
:10095200B5E00E940331ADE1B5E00E940331A1E2AE
:10096200B5E00E940331A5E2B5E00E940331A9E29D
:10097200B5E00E940331E991EFBFF991E991B99194
:10098200A9917991699118950E94E5300E940C31E4
:100992000E945B2F8F010D5F1F4F0E94EA300A9366
:1009A2000E946A2FE2E80E94F2300E940C3180E03D
:1009B2000E94AC30229619810881289608950E94DF
:1009C200EA30E5E0EA930E941131EA81EA930E945B
:1009D2006A2FE881EA930E946A2FE0E0EA930E947C
:1009E2006A2FEC81EA930E946A2F269608950E944C
:1009F20017310E941C310E9423310E942831089530
:100A020024970E94EB3A00E010E0EE85FF85FA930E
:100A1200EA930E945B2F8F010D5F1F4FAC85BD854E
:100A2200119759F420E030E040E550E0E0E5F0E0D5
:100A3200E887F987E0E0EE83EF83AC85BD85129706
:100A420059F420E030E040E250E0E0E4F0E0E887F2
:100A5200F987E0E0EE83EF830E94EA300A930E9476
:100A620011312A930E946A2F4A930E946A2FEE85BF
:100A7200FF85FA93EA9380E00E94AC3022960E94AE
:100A82003A31EC85FD850E9442310E949F3AA0E0F6
:100A9200B0E00E94793AE02151F00E944931E1ED43
:100AA200F0E00E9457310E9457310E945C310E944F
:100AB2003A310E94603151F00E944931E2EFF0E098
:100AC2000E9457310E9457310E945C310E943A3194
:100AD2000E94683151F00E944931EAE0F1E00E943F
:100AE20057310E9457310E945C310E9470310E943E
:100AF200603151F00E944931EAE0F1E00E94573141
:100B02000E9457310E945C310E9470310E9468310C
:100B120051F00E944931E2EFF0E00E9457310E9409
:100B220057310E945C310E94F23A609608950E9409
:100B320017310E9478310E2EA6E0B0E00E947E317D
:100B42000E2AAAE0B0E00E947E310E2AACE0B0E0AC
:100B52000E947E310E2AA0E0B0E00E947E310E2A71
:100B6200A2E0B0E00E947E310E2AA4E0B0E00E9432
:100B72007E31E02921F10E948131E0E0E093890594
:100B8200E0938A050E948831E0E0E0938705E093D4
:100B92008805AAE0B0E0E5E0F0E00E94C93AACE0E6
:100BA200B0E00E94C93AA0E0B0E00E948F31A2E01A
:100BB200B0E00E948F31A4E0B0E00E948F3108952E
:100BC2000E9494310E949E31EF930E9494310E94C0
:100BD200A431AF91EA2341F00E94AA310E94AF31C1
:100BE200E0932D05F0932E050E94AA310E94B531A3
:100BF2000E94BB310E94C0310E94C5310E94AF31B8
:100C0200A0E0B0E00E94CC310E9423310E94D33197
:100C12000E94DC310E94E3310E94E831ACE0B0E096
:100C22000E94CC310E94E33167DEAAE0B0E00E946C
:100C3200C93A0E94AA310E9423315EDEA8E0B0E0E8
:100C42000E94C93A0E94E3310E94C03155DEA6E0FB
:100C5200B0E00E94C93A0E94C0310E94EE314CDEDF
:100C6200E0938305F09384050E94C0310E94F33122
:100C720043DEE0938505F09386050E94C0310E9411
:100C8200E8310E94F8310E9423310E94FD314FDF8A
:100C920008951A930A9301E010E0002E012AA9F4A4
:100CA2000E9404321CDEE03029F401E010E0E0EAA8
:100CB200F0E006C000E010E00E940E32E4E2F1E053
:100CC200FA93EA930E941D32E8CF0991199108958F
:100CD2001A930A930E942832E6DDE1700E2EE0910B
:100CE2000205EE7F0E943232E1DDE170EE0F0E2E40
:100CF200E0910205ED7F0E943232DCDDE170EE0F01
:100D0200EE0F0E2EE0910205EB7F0E943232D7DD0C
:100D1200E170EE0FEE0FEE0F0E2EE0910205E77F6F
:100D22000E943232D2DDE170E295E07F0E2EE09138
:100D32000205EF7E0E943232CCDDE170E295E07F67
:100D4200EE0F0E2EE0910205EF7D0E943232C7DDDA
:100D5200E170E295E07FEE0FEE0F0E2EE0910205BC
:100D6200EF7B0E943232C0DDE170E795E0E0E7956B
:100D72000E2EE0910205EF77E029E09302050E9432
:100D820036320E94B5318F01A0910205A13059F48B
:100D9200F8010E9442310E943B32EBE4F1E00E94F2
:100DA20040320E944532A0910205A23071F4F8014E
:100DB2000E944231E2E0F0E0ED93FC93E3E5F1E0E2
:100DC2000E9440320E94AA311BDEA0910205A3308C
:100DD20071F4F8010E944231E3E0F0E0ED93FC93FC
:100DE200EBE5F1E00E9440320E94AA3109DEA091B7
:100DF2000205A43071F4F8010E944231E4E0F0E00F
:100E0200ED93FC93E3E6F1E00E9440320E94AA31A6
:100E1200F7DDA0910205A53071F4F8010E9442317C
:100E2200E5E0F0E0ED93FC93EBE6F1E00E94403266
:100E32000E94AA31E5DDA0910205A63069F4F8010D
:100E42000E944231E6E0F0E0ED93FC93E3E7F1E04B
:100E52000E9440320E944532A0910205A73069F4F7
:100E6200F8010E944231E7E0F0E0ED93FC93EBE7FA
:100E7200F1E00E9440320E944532A0910205A83062
:100E820069F4F8010E944231E8E0F0E0ED93FC934E
:100E9200E3E8F1E00E9440320E944532A09102054F
:100EA200A93071F4F8010E944231E9E0F0E0ED93DB
:100EB200FC93EBE8F1E00E9440320E94AA31A0DDEF
:100EC200A0910205AA3071F4F8010E944231EAE0D1
:100ED200F0E0ED93FC93E3E9F1E00E9440320E94DE
:100EE200AA318EDDA0910205AB3071F4F8010E94A7
:100EF2004231EBE0F0E0ED93FC93EBE9F1E00E948C
:100F020040320E94AA317CDDA0910205AC3069F426
:100F1200F8010E944231ECE0F0E0ED93FC93E3EA49
:100F2200F1E00E9440320E944532A0910205AD30AC
:100F320069F4F8010E944231EDE0F0E0ED93FC9398
:100F4200EBEAF1E00E9440320E944532A091020594
:100F5200AE3069F4F8010E944231EEE0F0E0ED9328
:100F6200FC93E3EBF1E00E9440320E944532A091F3
:100F72000205AF3069F4F8010E944231EFE0F0E07F
:100F8200ED93FC93EBEBF1E00E9440320E9445327C
:100F9200A0910205A03171F4F8010E944231E0E112
:100FA200F0E0ED93FC93E3ECF1E00E9440320E940A
:100FB200AA3126DDA0910205A13171F4F8010E9447
:100FC2004231E1E1F0E0ED93FC93EBECF1E00E94C1
:100FD20040320E94AA3114DDA0910205A23171F4BF
:100FE200F8010E944231E2E1F0E0ED93FC93E3ED7F
:100FF200F1E00E9440320E94AA3102DDA091020576
:10100200A33171F4F8010E944231E3E1F0E0ED9383
:10101200FC93EBEDF1E00E9440320E94AA31F0DC39
:10102200A0910205A43171F4F8010E944231E4E179
:10103200F0E0ED93FC93E3EEF1E00E9440320E9477
:10104200AA31DEDCA0910205A53169F4F8010E9403
:101052004231E5E1F0E0ED93FC93EBEEF1E00E942A
:1010620040320E944532A0910205A63169F4F8018E
:101072000E944231E6E1F0E0ED93FC93E3EFF1E010
:101082000E9440320E944532A0910205A73169F4C4
:10109200F8010E944231E7E1F0E0ED93FC93EBEFBF
:1010A200F1E00E9440320E944532A0910205A8312F
:1010B20069F4F8010E944231E8E1F0E0ED93FC931B
:1010C200E3E0F2E00E9440320E944532A091020524
:1010D200A93171F4F8010E944231E9E1F0E0ED93A7
:1010E200FC93EBE0F2E00E9440320E94AA3188DCDD
:1010F200A0910205AA3171F4F8010E944231EAE19D
:10110200F0E0ED93FC93E3E1F2E00E9440320E94B2
:10111200AA3176DCA0910205AB3171F4F8010E948C
:101122004231EBE1F0E0ED93FC93EBE1F2E00E945F
:1011320040320E94AA3164DCA0910205AC3169F40C
:10114200F8010E944231ECE1F0E0ED93FC93E3E21E
:10115200F2E00E9440320E944532A0910205AD3178
:1011620069F4F8010E944231EDE1F0E0ED93FC9365
:10117200EBE2F2E00E9440320E944532A091020569
:10118200AE3169F4F8010E944231EEE1F0E0ED93F4
:10119200FC93E3E3F2E00E9440320E944532A091C8
:1011A2000205AF3169F4F8010E944231EFE1F0E04B
:1011B200ED93FC93EBE3F2E00E9440320E94453251
:1011C200A0910205A03271F4F8010E944231E0E2DE
:1011D200F0E0ED93FC93E3E4F2E00E9440320E94DF
:1011E200AA310EDCA0910205A13269F4F8010E9435
:1011F2004231E1E2F0E0ED93FC93EBE4F2E00E9495
:1012020040320E944532A0910205A23271F4F801E7
:101212000E944231E2E2F0E0ED93FC93E3E5F2E07A
:101222000E9440320E94AA31EBDBA0910205A33258
:1012320071F4F8010E944231E3E2F0E0ED93FC9395
:10124200EBE5F2E00E9440320E94AA31D9DBA09184
:101252000205A43271F4F8010E944231E4E2F0E0A6
:10126200ED93FC93E3E6F2E00E9440320E94AA3141
:10127200C7DBA0910205A53271F4F8010E94423148
:10128200E5E2F0E0ED93FC93EBE6F2E00E944032FF
:101292000E94AA31B5DBA0910205A63269F4F801D9
:1012A2000E944231E6E2F0E0ED93FC93E3E7F2E0E4
:1012B2000E9440320E944532A0910205A73269F491
:1012C200F8010E944231E7E2F0E0ED93FC93EBE794
:1012D200F2E00E9440320E944532A0910205A832FB
:1012E20069F4F8010E944231E8E2F0E0ED93FC93E8
:1012F200E3E8F2E00E9440320E944532A0910205EA
:10130200A93269F4F8010E944231E9E2F0E0ED937A
:10131200FC93EBE8F2E00E9440320E944532A09139
:101322000205AA3271F4F8010E944231EAE2F0E0C9
:10133200ED93FC93E3E9F2E00E9440320E94AA316D
:101342005FDBA0910205AB3271F4F8010E944231D9
:10135200EBE2F0E0ED93FC93EBE9F2E00E94403225
:101362000E94AA314DDBA0910205AC3281F4F80152
:101372000E944231ECE2F0E00E944B320E944F3276
:10138200E3EAF2E00E9440320E94AA3139DBA091E6
:101392000205AD3271F4F8010E944231EDE2F0E053
:1013A200ED93FC93EBEAF2E00E9440320E94AA31F4
:1013B20027DBA0910205AE3269F4F8010E944231A6
:1013C200EEE2F0E0ED93FC93E3EBF2E00E944032B8
:1013D2000E944532A0910205AF3269F4F8010E94E1
:1013E2004231EFE2F0E0ED93FC93EBEBF2E00E948E
:1013F20040320E944532A0910205A03379F4F801EF
:101402000E944231E0E3F0E00E944B320E944F32F0
:10141200E3ECF2E00E9440320E944532A0910205C4
:10142200A13371F4F8010E944231E1E3F0E0ED935F
:10143200FC93EBECF2E00E9440320E94AA31E0DA27
:10144200A0910205A23371F4F8010E944231E2E355
:10145200F0E0ED93FC93E3EDF2E00E9440320E9453
:10146200AA31CEDAA0910205A33371F4F8010E94E9
:101472004231E3E3F0E0ED93FC93EBEDF2E00E9406
:1014820040320E94AA31BCDAA0910205A43369F469
:10149200F8010E944231E4E3F0E0ED93FC93E3EEC5
:1014A200F2E00E9440320E944532A0910205A5332B
:1014B20069F4F8010E944231E5E3F0E0ED93FC9318
:1014C200EBEEF2E00E9440320E944532A09102050A
:1014D200A63369F4F8010E944231E6E3F0E0ED93AD
:1014E200FC93E3EFF2E00E9440320E944532A09169
:1014F2000205A73369F4F8010E944231E7E3F0E004
:10150200ED93FC93EBEFF2E00E9440320E944532F1
:10151200A0910205A83371F4F8010E944231E8E378
:10152200F0E0ED93FC93E3E0F3E00E9440320E948E
:10153200AA3166DAA0910205A93371F4F8010E947A
:101542004231E9E3F0E0ED93FC93EBE0F3E00E943B
:1015520040320E94AA3154DAA0910205AA3371F4F2
:10156200F8010E944231EAE3F0E0ED93FC93E3E1FB
:10157200F3E00E9440320E94AA3142DAA0910205B1
:10158200AB3371F4F8010E944231EBE3F0E0ED93EA
:10159200FC93EBE1F3E00E9440320E94AA3130DA80
:1015A200A0910205AC3371F4F8010E944231ECE3E0
:1015B200F0E0ED93FC93E3E2F3E00E9440320E94FC
:1015C200AA311EDAA0910205AD3369F4F8010E9436
:1015D2004231EDE3F0E0ED93FC93EBE2F3E00E94A5
:1015E20040320E944532A0910205AE3369F4F801FF
:1015F2000E944231EEE3F0E0ED93FC93E3E3F3E08B
:101602000E9440320E944532A0910205AF3369F434
:10161200F8010E944231EFE3F0E0ED93FC93EBE33B
:10162200F3E00E9440320E944532A0910205A034AC
:1016320069F4F8010E944231E0E4F0E0ED93FC939A
:10164200E3E4F3E00E9440320E944532A091020599
:10165200A13471F4F8010E944231E1E4F0E0ED932B
:10166200FC93EBE4F3E00E9440320E94AA31C8D915
:10167200A0910205A23469F4F8010E944231E2E429
:10168200F0E0ED93FC93E3E5F3E00E9440320E9428
:101692004532A0910205A33469F4F8010E94423157
:1016A200E3E4F0E0ED93FC93EBE5F3E00E944032DB
:1016B2000E944532A0910205A43469F4F8010E9407
:1016C2004231E4E4F0E0ED93FC93E3E6F3E00E94C0
:1016D20040320E944532A0910205A53469F4F80116
:1016E2000E944231E5E4F0E0ED93FC93EBE6F3E097
:1016F2000E9440320E944532A0910205A63471F444
:10170200F8010E944231E6E4F0E0ED93FC93E3E756
:10171200F3E00E9440320E94AA3172D9A0910205E0
:10172200A73471F4F8010E944231E7E4F0E0ED934E
:10173200FC93EBE7F3E00E9440320E94AA3160D9A9
:10174200A0910205A83471F4F8010E944231E8E444
:10175200F0E0ED93FC93E3E8F3E00E9440320E9454
:10176200AA314ED9A0910205A93471F4F8010E9460
:101772004231E9E4F0E0ED93FC93EBE8F3E00E9400
:1017820040320E94AA313CD9A0910205AA3471F4D8
:10179200F8010E944231EAE4F0E0ED93FC93E3E9C0
:1017A200F3E00E9440320E94AA312AD9A091020598
:1017B200AB3471F4F8010E944231EBE4F0E0ED93B6
:1017C200FC93EBE9F3E00E9440320E94AA3118D95F
:1017D200A0910205AC3481F4F8010E944231ECE49C
:1017E200F0E00E944B320E944F32E3EAF3E00E94A3
:1017F20040320E94AA3104D9A0910205AD3469F4A5
:10180200F8010E944231EDE4F0E0ED93FC93EBEA43
:10181200F3E00E9440320E944532A0910205AE34AC
:1018220069F4F8010E944231EEE4F0E0ED93FC939A
:10183200E3EBF3E00E9440320E944532A0910205A0
:10184200AF3469F4F8010E944231EFE4F0E0ED9325
:10185200FC93EBEBF3E00E9440320E944532A091F0
:101862000205A03581F4F8010E944231E0E5F0E082
:101872000E944B320E944F32E3ECF3E00E9440326E
:101882000E94AA31BDD8A0910205A13571F4F801D8
:101892000E944231E1E5F0E0ED93FC93EBECF3E0E2
:1018A2000E9440320E94AA31ABD8A0910205A23513
:1018B20071F4F8010E944231E2E5F0E0ED93FC930D
:1018C200E3EDF3E00E9440320E94AA3199D8A09140
:1018D2000205A33569F4F8010E944231E3E5F0E024
:1018E200ED93FC93EBEDF3E00E9440320E9445320F
:1018F200A0910205A43569F4F8010E944231E4E5A1
:10190200F0E0ED93FC93E3EEF3E00E9440320E949C
:101912004532A0910205A53569F4F8010E944231D1
:10192200E5E5F0E0ED93FC93EBEEF3E00E9440324C
:101932000E944532A0910205A63569F4F8010E9481
:101942004231E6E5F0E0ED93FC93E3EFF3E00E9431
:1019520040320E944532A0910205A73571F4F80188
:101962000E944231E7E5F0E0ED93FC93EBEFF3E008
:101972000E9440320E94AA3143D8A0910205A835A4
:1019820071F4F8010E944231E8E5F0E0ED93FC9336
:10199200E3E0F4E00E9440320E94AA3131D8A091E3
:1019A2000205A93571F4F8010E944231E9E5F0E03F
:1019B200ED93FC93EBE0F4E00E9440320E94AA31E6
:1019C2001FD8A0910205AA3569F4F8010E9442319C
:1019D200EAE5F0E0ED93FC93E3E1F4E00E944032AB
:1019E2000E944532A0910205AB3569F4F8010E94CC
:1019F2004231EBE5F0E0ED93FC93EBE1F4E00E9481
:101A020040320E944532A0910205AC3589F4F801BA
:101A12000E944231ECE5F0E00E944B320E944F32CC
:101A2200E3E2F4E00E9440320E94AA310E940105E2
:101A3200A0910205AD3569F4F8010E944231EDE54D
:101A4200F0E0ED93FC93EBE2F4E00E9440320E945E
:101A52004532A0910205AE3579F4F8010E94423177
:101A6200EEE5F0E0ED93FC93E3E3F4E00E94403214
:101A72000E94AA310E940105A0910205AF3579F4B6
:101A8200F8010E944231EFE5F0E0ED93FC93EBE3C5
:101A9200F4E00E9440320E94AA310E940105A09106
:101AA2000205A03689F4F8010E944231E0E6F0E036
:101AB2000E944B320E944F32E3E4F4E00E94403233
:101AC2000E94AA310E940105A0910205A13679F473
:101AD200F8010E944231E1E6F0E0ED93FC93EBE481
:101AE200F4E00E9440320E94AA310E940105A091B6
:101AF2000205A23679F4F8010E944231E2E6F0E0F2
:101B0200ED93FC93E3E5F4E00E9440320E94AA3197
:101B12000E940105A0910205A33669F4F8010E9412
:101B22004231E3E6F0E0ED93FC93EBE5F4E00E9452
:101B320040320E944532A0910205A43679F4F801A0
:101B42000E944231E4E6F0E0ED93FC93E3E6F4E038
:101B52000E9440320E94AA310E940105A091020512
:101B6200A53669F4F8010E944231E5E6F0E0ED9312
:101B7200FC93EBE6F4E00E9440320E944532A091D1
:101B82000205A63669F4F8010E944231E6E6F0E069
:101B9200ED93FC93E3E7F4E00E9440320E94453269
:101BA200A0910205A73679F4F8010E944231E7E6D6
:101BB200F0E0ED93FC93EBE7F4E00E9440320E94E8
:101BC200AA310E940105A0910205A83669F4F80124
:101BD2000E944231E8E6F0E0ED93FC93E3E8F4E0A2
:101BE2000E9440320E944532A0910205A93679F442
:101BF200F8010E944231E9E6F0E0ED93FC93EBE854
:101C0200F4E00E9440320E94AA310E940105A09194
:101C12000205AA3669F4F8010E944231EAE6F0E0D0
:101C2200ED93FC93E3E9F4E00E9440320E944532D6
:101C3200A0910205AB3689F4F8010E944231EBE62D
:101C4200F0E00E944B320E944F32EBE9F4E00E9436
:101C520040320E94AA310E940105A0910205AC36D1
:101C620079F4F8010E944231ECE6F0E0ED93FC9346
:101C7200E3EAF4E00E9440320E94AA310E94010588
:101C8200A0910205AD3669F4F8010E944231EDE6F9
:101C9200F0E0ED93FC93EBEAF4E00E9440320E9404
:101CA2004532A0910205AE3679F4F8010E94423124
:101CB200EEE6F0E0ED93FC93E3EBF4E00E944032B9
:101CC2000E94AA310E940105A0910205AF3689F453
:101CD200F8010E944231EFE6F0E00E944B320E948E
:101CE2004F32EBEBF4E00E9440320E94AA310E9494
:101CF2000105A0910205A03769F4F8010E94423162
:101D0200E0E7F0E0ED93FC93E3ECF4E00E94403274
:101D12000E944532A0910205A13779F4F8010E9490
:101D22004231E1E7F0E0ED93FC93EBECF4E00E944A
:101D320040320E94AA310E940105A0910205A237F9
:101D420079F4F8010E944231E2E7F0E0ED93FC936E
:101D5200E3EDF4E00E9440320E94AA310E940105A4
:101D6200A0910205A33779F4F8010E944231E3E71A
:101D7200F0E0ED93FC93EBEDF4E00E9440320E9420
:101D8200AA310E940105A0910205A43769F4F80165
:101D92000E944231E4E7F0E0ED93FC93E3EEF4E0DD
:101DA2000E9440320E944532A0910205A53769F493
:101DB200F8010E944231E5E7F0E0ED93FC93EBEE8F
:101DC200F4E00E9440320E944532A0910205A637FB
:101DD20069F4F8010E944231E6E7F0E0ED93FC93EA
:101DE200E3EFF4E00E9440320E944532A0910205E6
:101DF200A73769F4F8010E944231E7E7F0E0ED937A
:101E0200FC93EBEFF4E00E9440320E944532A09135
:101E12000205A83779F4F8010E944231E8E7F0E0C0
:101E2200ED93FC93E3E0F5E00E9440320E94AA3178
:101E32000E940105A0910205A93779F4F8010E94D8
:101E42004231E9E7F0E0ED93FC93EBE0F5E00E942C
:101E520040320E94AA310E940105A0910205AA37D0
:101E620079F4F8010E944231EAE7F0E0ED93FC9345
:101E7200E3E1F5E00E9440320E94AA310E9401058E
:101E8200A0910205AB3779F4F8010E944231EBE7E9
:101E9200F0E0ED93FC93EBE1F5E00E9440320E940A
:101EA200AA310E940105A0910205AC3779F4F8012C
:101EB2000E944231ECE7F0E0ED93FC93E3E2F5E0BF
:101EC2000E9440320E94AA310E940105A09102059F
:101ED200AD3769F4F8010E944231EDE7F0E0ED938D
:101EE200FC93EBE2F5E00E9440320E944532A09161
:101EF2000205AE3769F4F8010E944231EEE7F0E0E4
:101F0200ED93FC93E3E3F5E00E9440320E944532F8
:101F1200A0910205AF3769F4F8010E944231EFE760
:101F2200F0E0ED93FC93EBE3F5E00E9440320E9477
:101F32004532A0910205A03869F4F8010E944231AD
:101F4200E0E8F0E0ED93FC93E3E4F5E00E94403238
:101F52000E944532A0910205A13879F4F8010E944D
:101F62004231E1E8F0E0ED93FC93EBE4F5E00E940E
:101F720040320E94AA310E940105A0910205A238B6
:101F820079F4F8010E944231E2E8F0E0ED93FC932B
:101F9200E3E5F5E00E9440320E94AA310E94010569
:101FA200A0910205A33869F4F8010E944231E3E8E6
:101FB200F0E0ED93FC93EBE5F5E00E9440320E94E5
:101FC2004532A0910205A43879F4F8010E94423109
:101FD200E4E8F0E0ED93FC93E3E6F5E00E944032A2
:101FE2000E94AA310E940105A0910205A53869F458
:101FF200F8010E944231E5E8F0E0ED93FC93EBE654
:10200200F5E00E9440320E944532A0910205A638B6
:1020120069F4F8010E944231E6E8F0E0ED93FC93A6
:10202200E3E7F5E00E9440320E944532A0910205AA
:10203200A73879F4F8010E944231E7E8F0E0ED9325
:10204200FC93EBE7F5E00E9440320E94AA310E9425
:102052000105A0910205A83869F4F8010E944231F5
:10206200E8E8F0E0ED93FC93E3E8F5E00E9440320B
:102072000E944532A0910205A93879F4F8010E9424
:102082004231E9E8F0E0ED93FC93EBE8F5E00E94E1
:1020920040320E94AA310E940105A0910205AA388D
:1020A20069F4F8010E944231EAE8F0E0ED93FC9312
:1020B200E3E9F5E00E9440320E944532A091020518
:1020C200AB3869F4F8010E944231EBE8F0E0ED939D
:1020D200FC93EBE9F5E00E9440320E944532A09168
:1020E2000205AC3879F4F8010E944231ECE8F0E0E4
:1020F200ED93FC93E3EAF5E00E9440320E94AA319C
:102102000E940105A0910205AD3869F4F8010E9410
:102112004231EDE8F0E0ED93FC93EBEAF5E00E944A
:1021220040320E944532A0910205AE3879F4F8019E
:102132000E944231EEE8F0E0ED93FC93E3EBF5E030
:102142000E9440320E94AA310E940105A09102051C
:10215200AF3879F4F8010E944231EFE8F0E0ED93F4
:10216200FC93EBEBF5E00E9440320E94AA310E9400
:102172000105A0910205A03969F4F8010E944231DB
:10218200E0E9F0E0ED93FC93E3ECF5E00E944032ED
:102192000E944532F801099119910895E881F98167
:1021A2000E9442310E949F3A309741F40E940E32BF
:1021B200EBECF5E00E9454320C943719E130A0E0C8
:1021C200FA0751F4E8ECF0E00E9457320E945E32C6
:1021D2000E9465320C941E19E230A0E0FA0771F4F5
:1021E200E0E1F1E00E9457320E9474320E9479329B
:1021F2000E9474320E9488320C942419E330A0E0C9
:10220200FA0761F4EAE7F0E00E9457320E945E3278
:102212000E948D320E9496320C942419E430A0E080
:10222200FA0761F4E2E0F1E00E9457320E945E3266
:102232000E949F320E9496320C942419E530A0E04D
:10224200FA0759F4E0EBF0E00E9457320E945E3246
:102252000E9465320E94A832F6C7E630A0E0FA0773
:1022620059F4EEEFF0E00E9457320E9474320E945D
:102272007932A0E1B0E0E1C7E730A0E0FA0749F423
:10228200E8E7F0E00E9457320E945E320E948D32EF
:10229200CEC7E830A0E0FA0749F4E0ECF0E00E9493
:1022A20057320E945E320E949F32C1C7E930A0E0DD
:1022B200FA0769F4E8E1F0E00E9457320E945E32C8
:1022C2000E949F320E94AB320E94A832BCC7EA3001
:1022D200A0E0FA0759F4E6E1F0E00E9457320E94CA
:1022E2005E320E94B2320E949632ADC7EB30A0E05D
:1022F200FA0759F4E4E7F0E00E9457320E945E3296
:102302000E94BB320E9496329EC7EC30A0E0FA07D0
:1023120049F4E6E9F0E00E9457320E945E320E94E0
:10232200C43285C7ED30A0E0FA0759F4EAE1F0E0E3
:102332000E9457320E945E320E949F320E94AB324C
:102342007CC7EE30A0E0FA0749F4EEE5F0E00E9427
:1023520057320E945E320E94B23269C7EF30A0E06B
:10236200FA0749F4E4E8F0E00E9457320E945E3234
:102372000E94BB325CC7E031A0E0FA0749F4E8EB07
:10238200F0E00E9457320E945E320E94CD325BC75B
:10239200E131A0E0FA0759F4E0E2F0E00E9457329E
:1023A2000E945E320E9465320E94A8324CC7E2311E
:1023B200A0E0FA0769F4E8E9F0E00E9457320E94CF
:1023C20074320E94D6320E9474320E9488323BC715
:1023D200E331A0E0FA0759F4EAEAF0E00E9457324A
:1023E2000E945E320E94E5320E94EC322CC7E43138
:1023F200A0E0FA0769F4E2E4F0E00E9457320E949A
:102402005E320E94E5320E94EF320E94A8321BC760
:10241200E531A0E0FA0749F4EEE4F0E00E94573219
:102422000E945E320E94653208C7E631A0E0FA07D8
:1024320059F4E2ECF0E00E9457320E9474320E949A
:10244200D632A0E1B0E0F9C6E731A0E0FA0759F4CC
:10245200EEECF0E00E9457320E945E320E94E532BA
:10246200A9E9B1E0E4C6E831A0E0FA0759F4E0E4F2
:10247200F0E00E9457320E945E320E94E5320E94D2
:10248200EF32DBC6E931A0E0FA0759F4EEE2F0E000
:102492000E9457320E945E320E94B2320E949632ED
:1024A200D2C6EA31A0E0FA0759F4EAEFF0E00E945E
:1024B20057320E945E320E94F8320E94A832C3C68E
:1024C200EB31A0E0FA0749F4ECE6F0E00E94573263
:1024D2000E945E320E94CD32B6C6EC31A0E0FA070D
:1024E20049F4E4EAF0E00E9457320E945E320E9410
:1024F200C4329DC6ED31A0E0FA0749F4EAE2F0E009
:102502000E9457320E945E320E94B23290C6EE3171
:10251200A0E0FA0749F4E4E9F0E00E9457320E9491
:102522005E320E94F83289C6EF31A0E0FA0759F410
:10253200EEE6F0E00E9457320E945E320E940133C2
:10254200A9E9B1E074C6E032A0E0FA0759F4E6E87E
:10255200F0E00E9457320E945E320E94C4320E9412
:10256200963271C6E132A0E0FA0749F4EEE8F0E0F3
:102572000E9457320E945E32A0E2B0E052C6E232BE
:10258200A0E0FA0759F4EAE5F0E00E9457320E940F
:102592005E320E9408330E940F3355C6E332A0E038
:1025A200FA0759F4EAEDF0E00E9457320E945E32D7
:1025B2000E9412330E94A83246C6E432A0E0FA0713
:1025C20059F4E2EAF0E00E9457320E9419330E9465
:1025D20074320E94883237C6E532A0E0FA0759F415
:1025E200E4E0F1E00E9457320E945E320E9408331A
:1025F2000E942C3328C6E632A0E0FA0759F4E6E33B
:10260200F0E00E9457320E945E320E940833A6E92F
:10261200B1E00DC6E732A0E0FA0749F4E8E1F1E0E3
:102622000E9457320E945E320E94123306C6E8327E
:10263200A0E0FA0749F4E6EAF0E00E9457320E946D
:102642001933A0E1B0E0F9C5E932A0E0FA0759F484
:10265200EEE1F0E00E9457320E945E320E949F3209
:102662000E94AB32EAC5EA32A0E0FA0759F4ECE57F
:10267200F0E00E9457320E9474320E942F330E946F
:10268200A832E1C5EB32A0E0FA0759F4E2E6F0E045
:102692000E9457320E945E320E9401330E940F3321
:1026A200D2C5EC32A0E0FA0719F40E943A33CBC546
:1026B200ED32A0E0FA0769F4E0E1F0E00E9457325F
:1026C2000E945E320E949F320E94AB320E94A83268
:1026D200BAC5EE32A0E0FA0749F4E0E5F0E00E9464
:1026E20057320E9474320E942F33A7C5EF32A0E006
:1026F200FA0759F4E8E6F0E00E9457320E945E328F
:102702000E940133A6E9B1E092C5E033A0E0FA07E6
:1027120019F40E943A3397C5E133A0E0FA0759F45D
:10272200E4E2F0E00E9457320E945E320E949F3241
:102732000E94963288C5E233A0E0FA0759F4E4E138
:10274200F0E00E9457320E945E320E9412330E94D1
:10275200A83279C5E333A0E0FA0759F4E2E8F0E0E1
:102762000E9457320E945E320E9450330E942C33E4
:102772006AC5E433A0E0FA0749F4E6E0F1E00E941A
:1027820057320E945E320E94573357C5E533A0E0AC
:10279200FA0749F4ECE4F0E00E9457320E945E32FC
:1027A2000E949F3244C5E633A0E0FA0749F4ECE107
:1027B200F0E00E9457320E945E320E9412333DC501
:1027C200E733A0E0FA0749F4E4E1F1E00E9457326E
:1027D2000E945E32AAE1B0E024C5E833A0E0FA0725
:1027E20059F4EEEEF0E00E9457320E945E320E94EF
:1027F20057330E94A83227C5E933A0E0FA0759F4FB
:10280200E8EFF0E00E9457320E945E320E94663387
:102812000E94A83218C5EA33A0E0FA0759F4E4EEA0
:10282200F0E00E9457320E945E320E9401330E9401
:102832000F3309C5EB33A0E0FA0759F4E2E5F0E003
:102842000E9457320E945E320E946F330E94EC3225
:10285200FAC4EC33A0E0FA0779F4E0E9F0E00E9470
:1028620057320E945E320E947633A0E9B1E00E94A4
:10287200AB320E94A832E7C4ED33A0E0FA0749F474
:10288200ECEFF0E00E9457320E945E320E94F83272
:10289200D4C4EE33A0E0FA0759F4E8E2F0E00E9473
:1028A20057320E945E320E940133A6E9B1E0BFC4F2
:1028B200EF33A0E0FA0759F4E4E3F0E00E94573264
:1028C2000E945E320E946F33A9E9B1E0B0C4E034E5
:1028D200A0E0FA0749F4ECEEF0E00E9457320E94C1
:1028E2005E320E946633A9C4E134A0E0FA0759F4CB
:1028F200ECECF0E00E9457320E945E320E947D337F
:102902000E949632A0C4E234A0E0FA0759F4ECEB3C
:10291200F0E00E9457320E945E320E946F330E94A2
:1029220086338BC4E334A0E0FA0759F4ECE9F0E013
:102932000E9457320E945E320E946F33A6E9B1E0D4
:1029420076C4E434A0E0FA0749F4ECE7F0E00E9430
:1029520057320E945E320E94C43269C4E534A0E05C
:10296200FA0749F4E2EDF0E00E9457320E945E322B
:102972000E947D335CC4E634A0E0FA0769F4E6EE17
:10298200F0E00E9457320E945E320E946F330E9432
:1029920086330E94A83257C4E734A0E0FA0759F4FC
:1029A200E4EBF0E00E9457320E945E320E946F33E5
:1029B2000E940F3348C4E834A0E0FA0759F4ECEA65
:1029C200F0E00E9457320E945E320E94C4320E949E
:1029D200963239C4E934A0E0FA0769F4E2E1F0E0A2
:1029E2000E9457320E947432EBE6F5E00E945033A7
:1029F2000E940F3328C4EA34A0E0FA0759F4E2EB4C
:102A0200F0E00E9457320E945E320E949F320E9482
:102A1200963219C4EB34A0E0FA0759F4ECE0F1E085
:102A22000E9457320E945E320E9408330E940F3386
:102A32000AC4EC34A0E0FA0719F40E943A3303C442
:102A4200ED34A0E0FA0769F4E6E2F0E00E945732C2
:102A52000E947432EBE6F5E00E945033A6E9B1E041
:102A6200E6C3EE34A0E0FA0759F4ECE1F1E00E948B
:102A720057320E945E320E948933A6E9B1E0D7C381
:102A8200EF34A0E0FA0759F4E2E1F1E00E94573294
:102A92000E945E320E940833A6E9B1E0C8C3E03565
:102AA200A0E0FA0719F40E943A33CDC3E135A0E061
:102AB200FA0759F4EAEEF0E00E9457320E945E32C1
:102AC2000E9490330E949632BEC3E235A0E0FA071C
:102AD20059F4E8EDF0E00E9457320E945E320E9403
:102AE20099330E949632AFC3E335A0E0FA0769F446
:102AF200ECE8F0E00E9457320E945E32A2E2B0E0BF
:102B02000E94A233A9E9B1E092C3E435A0E0FA073A
:102B120059F4E0EAF0E00E9457320E94A7330E9483
:102B2200B033A0E1B0E089C3E535A0E0FA0749F48B
:102B3200EEEAF0E00E9457320E945E320E94903329
:102B420076C3E635A0E0FA0749F4E6EFF0E00E942A
:102B520057320E945E320E94993369C3E735A0E082
:102B6200FA0759F4E4ECF0E00E9457320E945E3218
:102B72000E94B7330E94EC3266C3E835A0E0FA0740
:102B820069F4EEE7F0E00E9457320E94A7330E94F8
:102B9200B0330E9474320E94883255C3E935A0E0F6
:102BA200FA0759F4ECE2F0E00E9457320E945E32DA
:102BB2000E9476330E940F3346C3EA35A0E0FA073B
:102BC20049F4E0EFF0E00E9457320E945E320E9428
:102BD200653233C3EB35A0E0FA0759F4E8EAF0E0D6
:102BE2000E9457320E945E320E940133A9E9B1E08D
:102BF2001EC3EC35A0E0FA0719F40E943A3323C34E
:102C0200ED35A0E0FA0759F4E0E3F0E00E94573214
:102C12000E945E320E947633A6E9B1E008C3EE3527
:102C2200A0E0FA0759F4E4EFF0E00E9457320E9464
:102C32005E320E9465320E94A83205C3EF35A0E0E1
:102C4200FA0749F4EEE9F0E00E9457320E945E3240
:102C52000E94CD32F8C2E036A0E0FA0719F40E94D1
:102C62003A33F1C2E136A0E0FA0759F4EAE6F0E0BD
:102C72000E9457320E945E320E94C4320E949632F3
:102C8200E2C2E236A0E0FA0769F4EEEBF0E00E945D
:102C920057320E945E320E948D320E94BA330E94E5
:102CA200A832D1C2E336A0E0FA0759F4EAEBF0E029
:102CB2000E9457320E945E320E948933A9E9B1E034
:102CC200B6C2E436A0E0FA0759F4E0E6F0E00E946A
:102CD20057320E945E320E949F320E949632B3C2E5
:102CE200E536A0E0FA0749F4E0E7F0E00E94573247
:102CF2000E945E320E94C4329AC2E636A0E0FA070F
:102D020059F4EAE8F0E00E9457320E945E320E94D3
:102D12008D320E94BA3391C2E736A0E0FA0759F425
:102D2200E0E8F0E00E9457320E945E320E9489334E
:102D32000E94EC3288C2E836A0E0FA0749F4E6EBDA
:102D4200F0E00E9457320E945E320E949F326FC2B0
:102D5200E936A0E0FA0769F4E4E4F0E00E945732B1
:102D62000E945E320E94C1330E94EF320E94A8325A
:102D72006AC2EA36A0E0FA0749F4EAE3F0E00E9408
:102D820057320E945E320E94123357C2EB36A0E0E5
:102D9200FA0719F40E943A3356C2EC36A0E0FA0759
:102DA20069F4E6ECF0E00E9457320E945E320E9423
:102DB2006F330E9486330E94A83245C2ED36A0E0EE
:102DC200FA0759F4EAE0F0E00E9457320E947432A6
:102DD2000E947932A0E1B0E030C2EE36A0E0FA07FC
:102DE20059F4E2E3F0E00E9457320E945E320E9400
:102DF20012330E94A83227C2EF36A0E0FA0719F474
:102E02000E943A3320C2E037A0E0FA0759F4E2EE1A
:102E1200F0E00E9457320E945E320E946F330E949D
:102E220086330BC2E137A0E0FA0769F4E4EDF0E083
:102E32000E9457320E945E320E94C4330E9486333F
:102E42000E94A83200C2E237A0E0FA0779F4EAE46D
:102E5200F0E00E9457320E9474320E94C7330E94EF
:102E6200B033AFE0B0E00E94A832EDC1E337A0E09A
:102E7200FA0769F4E6E7F0E00E9457320E94CA338B
:102E8200ACE9B1E00E94AB320E94A832DCC1E43767
:102E9200A0E0FA0759F4E2E9F0E00E9457320E94FA
:102EA2005E320E940833A6E9B1E0C1C1E537A0E075
:102EB200FA0759F4EAE1F1E00E9457320E945E32C9
:102EC2000E94C4330E948633B8C1E637A0E0FA07F5
:102ED20059F4E6E5F0E00E9457320E9474320E94F3
:102EE200C7330E948633A9C1E737A0E0FA0759F435
:102EF200E2E7F0E00E9457320E94CA33ACE9B1E047
:102F02000E94AB329AC1E837A0E0FA0759F4E0ED2B
:102F1200F0E00E9457320E945E320E9408330E9403
:102F22000F3391C1E937A0E0FA0769F4E8E4F0E071
:102F32000E9457320E9474320E94C7330E94863325
:102F42000E94A83280C1EA37A0E0FA0759F4EAE900
:102F5200F0E00E9457320E945E320E9489330E9442
:102F62000F3371C1EB37A0E0FA0769F4E6E4F0E051
:102F72000E9457320E9474320E94D1330E94D6338B
:102F82000E94A83260C1EC37A0E0FA0789F4E0EEB3
:102F9200F0E00E9457320E94DF33A5E1B0E00E94C8
:102FA200A2330E94B033A3E1B0E00E94A8324BC129
:102FB200ED37A0E0FA0759F4E8E3F0E00E94573257
:102FC2000E945E320E9489330E94863336C1EE37F8
:102FD200A0E0FA0759F4EAECF0E00E9457320E94AE
:102FE2005E320E948933A6E9B1E021C1EF37A0E049
:102FF200FA0759F4EEEDF0E00E9457320E94743263
:103002000E94D1330E94D63318C1E038A0E0FA07FB
:1030120069F4E6E1F1E00E9457320E947432EBE675
:10302200F5E00E948D320E94E63307C1E138A0E04C
:10303200FA0779F4E8EEF0E00E9457320E94DF339B
:103042000E94ED33A9E9B1E00E94E6330E94A83262
:10305200FAC0E238A0E0FA0769F4E2EFF0E00E9479
:1030620057320E94F0330E94B0330E9474320E94A1
:103072008832E9C0E338A0E0FA0749F4E8E0F1E079
:103082000E9457320E945E32AFE1B0E0CAC0E4381B
:10309200A0E0FA0759F4E4E6F0E00E9457320E94F9
:1030A2005E320E946F330E942C33CDC0E538A0E01F
:1030B200FA0769F4E8E8F0E00E9457320E94DF3331
:1030C2000E94ED33A9E9B1E00E94E633B6C0E638CA
:1030D200A0E0FA0759F4EEE0F1E00E9457320E94B4
:1030E200F0330E94B033A0E1B0E0A7C0E738A0E01F
:1030F200FA0759F4E4E5F0E00E9457320E945E328A
:103102000E94C1330E942C339EC0E838A0E0FA0727
:1031120079F4EEE3F0E00E9457320E947432EBE65B
:10312200F5E00E94ED330E94F733A0E1B0E085C0E4
:10313200E938A0E0FA0759F4ECE0F0E00E945732D7
:103142000E945E320E9412330E94A8327CC0EA388A
:10315200A0E0FA0759F4ECEDF0E00E9457320E9429
:103162007432EBE6F5E00E94653267C0EB38A0E00E
:10317200FA0759F4E8E5F0E00E9457320E945E3205
:103182000E94C433A6E9B1E052C0EC38A0E0FA07CD
:1031920079F4ECE3F0E00E9457320E9474320E940C
:1031A200D1330E94F7330E9474320E9488324BC09E
:1031B200ED38A0E0FA0749F4EEE0F0E00E94573261
:1031C2000E945E320E94123338C0EE38A0E0FA0745
:1031D20069F4EAE0F1E00E9457320E947432EBE6B1
:1031E200F5E00E9465320E94A8322DC0EF38A0E0BF
:1031F200FA0759F4E2E2F0E00E9457320E945E328E
:103202000E94C4330E940F331EC0E039A0E0FA07C7
:1032120069F5E6E6F0E00E9457320E945E32ACE1C8
:10322200B0E0A083B183EDE6F5E0ACE9B1E0A083C4
:10323200B183E1E7F5E0A2E1B0E0A083B183E5E785
:10324200F5E0A1E0B0E0A083B1830E94FE333196A5
:10325200E0936505F09366050E940334E0936705E9
:10326200F09368050E9408340E940D34A0917B05FA
:10327200B0917C05D29739F40E941C343597E093C3
:103282006905F0936A050E942134A0E0B0E00E9433
:10329200793A0E2EA0919505B09196050E9426349A
:1032A200E02939F00E942B343597E0937105F093B1
:1032B20072050E943034989739F40E940334739651
:1032C200E0936B05F0936C050E941C343697E093F3
:1032D2006905F0936A050E9435343697E0936705D5
:1032E200F09368050E943A340E9426340E943F34CB
:1032F2000E9447340E943F3439F00E94083470968D
:103302000E944D340E940D340E9452340E943F3478
:1033120039F00E940834B0960E944D340E940D3458
:103322000E9458340E943F3439F00E940834F096CB
:103332000E944D340E940D340E943A340E94263479
:103342000E945E3439F00E940834F9960E944D348E
:103352000E940D340E9447340E945E3441F00E9464
:103362000834EE5BFF4F0E944D340E940D340E94E0
:1033720052340E945E3441F00E940834E55BFF4FF4
:103382000E944D340E940D340E9458340E945E34D3
:1033920041F00E940834EC5AFF4F0E944D340E94C3
:1033A2000D34229608950E94E5300E9494310E94C5
:1033B2005B04E030F1F40E9466340E9469341A9B87
:1033C20002C00E9471341B9B02C00E9479340E9489
:1033D200813411F40E9486340E940E32E0EEF5E050
:1033E2000E9454320E949C34E0EEF5E00E94AB341D
:1033F200DCCF979B22C0002E012A61F40E949431F7
:103402000E945B04E13029F40E94AA310E94AF318C
:103412008F01F1CF0E940E320E949C340E94B83478
:1034220011F40E94BF340E94C63411F40E94CC34BD
:103432000E94D33411F40E94D934B0C00E94E53006
:103442000E94F4340E9426340E94F934E02111F4DF
:103452000C94791A0E9494310E945404E130F1F4E0
:103462000E9466340E9469341A9B02C00E94713421
:103472001B9B02C00E9479340E94813411F40E9485
:1034820086340E940E32E8E0F6E00E9454320E9436
:103492009C34E8E0F6E00E94AB34DCCF979B28C076
:1034A200002E012A91F40E9494310E949E31EF93E2
:1034B2000E9494310E94A431AF91EA2329F00E9424
:1034C200AA310E94AF318F01EBCF0E940E320E94CF
:1034D2009C340E94B83411F40E94BF340E94C63456
:1034E20011F40E94CC340E94D33411F40E94D934D6
:1034F2000E94FF340E94F934E02111F40C94CF1A97
:103502000E9494310E945704E130F1F40E94663423
:103512000E9469341A9B02C00E9471341B9B02C034
:103522000E9479340E94813411F40E9486340E94F0
:103532000E32E8E0F6E00E9454320E949C34E8E049
:10354200F6E00E94AB34DCCF979B28C0002E012A04
:1035520091F40E9494310E949E31EF930E94943123
:103562000E94A431AF91EA2329F00E94AA310E945D
:10357200AF318F01EBCF0E940E320E949C340E9429
:10358200B83411F40E94BF340E94C63411F40E9470
:10359200CC340E94D33411F40E94D9340991199188
:1035A20008950E9405350E940A350E940D350E9439
:1035B20013350E9418350E9423310E94E0040E94B4
:1035C2002134FA93EA93E0E3F0E00E941C310E9476
:1035D200E004E0917B05F0917C050E9418350E9481
:1035E200EE310E94E004E0917D05F0917E050E949B
:1035F20018350E94F3310E94E004E0917F05F091BA
:1036020080050E940A350E94E3310E94E004E091A5
:103612008105F09182050E9418350E941B35ACE0AD
:10362200B0E00E94B93AFA93EA930E94E3310E9411
:103632001B35AAE0B0E00E94B93A0E9418350E94F8
:10364200E3310E94E0040E9417310E941C310E9463
:1036520023310E942831E8E2F0E00E940A350E94FC
:103662001B350895E0912D05F0912E053097B9F4A0
:103672000E940E32EEE2F6E00E9454320E949C3426
:10368200EEE2F6E00E94AB340E9421350E94AA319C
:103692000E94AF31E0932D05F0932E05E3CF0E94F7
:1036A20094310E942735EF930E9494310E942D3568
:1036B200AF91EA2B69F00E940E32E7E5F6E00E9434
:1036C20054320E949C34E7E5F6E00E94AB34E7CF27
:1036D200C49A0E942135C69A0E9433350E943D3514
:1036E200EF930E9433350E944335AF91EA2B11F4D8
:1036F2000C94FF1B0E9494310E942735EF930E9485
:1037020094310E942D35AF91EA2B79F00E94493510
:10371200ECE6F6E00E9454320E949C340E944E3540
:103722000E9466340E940D35F1CF0E9494310E94AE
:103732005B04E03079F40E944935EBEAF6E00E943E
:1037420054320E949C340E944E350E9466340E947C
:103752000D35F1CF0E940E32E0EDF6E00E945432B8
:103762000E949C34E0EDF6E00E94AB340E942135C9
:103772000E9433350E946004E03041F40E940E3210
:10378200EFEEF6E00E9454320E9421350E9433355A
:103792000E947504E03041F40E949C34EEE0F7E0B0
:1037A2000E9454320E9421350E9494310E94513568
:1037B200EF930E9494310E944335AF91EA2BE9F0D6
:1037C200979A0E9494310E947004E13041F40E9461
:1037D2000E32EDE2F7E00E9454320E9421350E943F
:1037E20094310E947504E13041F40E940E32EFE3FD
:1037F200F7E00E9454320E9421356ECFC498929A0B
:103802000E9421350E9404320E943D35EF930E94AE
:1038120057350E943D35AF91EA2B11F40C94991C57
:103822000E9494310E942735EF930E9494310E94A6
:103832002D35AF91EA2B99F0979AC6980E940E32D5
:10384200ECE6F6E00E9454320E949C340E944E350F
:10385200C49892980E9466340E940D35EDCF0E9462
:1038620094310E945B04E03079F40E944935EBEA1E
:10387200F6E00E9454320E949C340E944E350E940F
:1038820066340E940D35F1CF0E940E32E0EDF6E073
:103892000E9454320E949C34E0EDF6E00E94AB3468
:1038A2000E9421350E9404320E946004E03041F4FB
:1038B2000E940E32E1E5F7E00E9454320E94213567
:1038C2000E9457350E946004E03041F40E949C340B
:1038D200E0E7F7E00E94AB340E9421350E940432F7
:1038E2000E946135EF930E9457350E946135AF9176
:1038F200EA2BE9F0979A0E9404320E946A04E130AE
:1039020041F40E940E32EFE8F7E00E9454320E9426
:1039120021350E9457350E946A04E13041F40E9429
:103922000E32E1EAF7E00E9454320E9421356ACF5A
:103932000E940E32E3EBF7E00E9454320E949C3464
:10394200E3EBF7E00E94AB349298C6980E942135CF
:103952000E9466340E940D350E94673508950E94C8
:1039620094310E949E31EF930E9494310E94A431BF
:10397200AF91EA2311F40C94041D0E9457350E9462
:103982007004A0E00E94743AEF930E9457350E949F
:103992007504A0E00E94743AAF910E946D350E94B6
:1039A2007435E02131F0E1E0F0E0E0935F05F0935F
:1039B20060050E9457350E945135EF930E9457359A
:1039C2000E944335AF910E946D350E942634E0215A
:1039D20031F0E2E0F0E0E0935F05F09360050E94D1
:1039E2007935E1E00E94743AE02119F01E980E94B4
:1039F20086350E947935E0E00E94743AE02119F0A0
:103A02001E9A0E94863508951A930A93A091210561
:103A1200B09122058091230590912405AD33E0E019
:103A2200BE07E0E08E07E0E09E0714F40C94611DEF
:103A32000E949135F501D4010E948B3AEF930E94C6
:103A420028320E942735EF930E9428320E942D359A
:103A5200AF91EA2BEF930E9428320E945B04A1E00F
:103A62000E94743AAF91EA2BEF930E9428320E948F
:103A72003D35AF91EA2BEF930E9428320E946604F3
:103A8200A1E00E94743AAF91EA2BEF930E94283290
:103A92000E946135AF91EA2BEF930E9428320E9477
:103AA2005135AF91EA2BEF930E9428320E944335A1
:103AB200AF91EA2BAF91EA2319F0F40131964F014D
:103AC200A814B90441F40E9469068F010E9491353D
:103AD200F40131964F01F5013196E815F90511F41B
:103AE200882499240991199108950E9404320E9410
:103AF2006A04E13019F4979A1A981B980E949B3530
:103B020011F40E94A135E0913305F091340530970C
:103B120011F00C94D11D0E94A535E881E0930905AE
:103B2200E17011F4D89801C0D89AE0910905E270C9
:103B320011F4D99801C0D99AE0910905E47011F401
:103B4200DA9801C0DA9AE0910905E87011F4DB987D
:103B520001C0DB9AE0910905E07111F4DC9801C023
:103B6200DC9AE0910905E07211F4DD9801C0DD9A5A
:103B7200E0910905E07411F4DE9801C0DE9AE0914B
:103B82000905E07811F4DF9801C0DF9AA881B981B4
:103B9200A030E1E0BE070CF0949AE1E0F0E047C00B
:103BA200E130A0E0FA0789F4A0911105B091120565
:103BB20080911305909114050E94AF352CF0939AD1
:103BC200E2E0F0E00E94B73536C0E230A0E0FA074A
:103BD20089F40E9404320E945404E03051F4939814
:103BE200E0E0EBBB94980E94A535E3E0F0E00E9490
:103BF200B73521C0E330A0E0FA0769F40E9404322D
:103C02000E946004E03031F40E94A535E4E0F0E067
:103C12000E94B73510C0E430A0E0FA0761F40E94B8
:103C220004320E945404E13031F4E5E0F0E0E09324
:103C32003305F0933405E0913305F091340580C1EA
:103C42000E9457350E946A04E13019F4979A1A9833
:103C52001B980E949B3511F40E94A135E091370513
:103C6200F0913805309711F00C947C1E0E94BC35FF
:103C7200E881E0930A05E17011F4A89801C0A89ABE
:103C8200E0910A05E27011F4A99801C0A99AE091A5
:103C92000A05E47011F4AA9801C0AA9AE0910A05F3
:103CA200E87011F4AB9801C0AB9AE0910A05E0719B
:103CB20011F4AC9801C0AC9AE0910A05E07211F4DB
:103CC200AD9801C0AD9AE0910A05E07411F4AE9886
:103CD20001C0AE9AE0910A05E07811F4AF9801C0F4
:103CE200AF9AA881B981A030E1E0BE070CF0959AA5
:103CF200E1E0F0E047C0E130A0E0FA0789F4A091EA
:103D02001905B0911A0580911B0590911C050E941E
:103D1200AF352CF0969AE2E0F0E00E94C63536C04C
:103D2200E230A0E0FA0789F40E9457350E94540459
:103D3200E03051F49698E0E0E5BB95980E94BC35DE
:103D4200E3E0F0E00E94C63521C0E330A0E0FA07CC
:103D520069F40E9457350E946004E03031F40E94F9
:103D6200BC35E4E0F0E00E94C63510C0E430A0E0CB
:103D7200FA0761F40E9457350E945404E13031F48D
:103D8200E5E0F0E0E0933705F0933805E091370580
:103D9200F0913805D5C00E9494310E947504E1303B
:103DA20019F4979A1A981B980E949B3511F40E9455
:103DB200A135E0913505F0913605309711F00C945C
:103DC200271FE881E0930705E1700E2EE0910005C0
:103DD200EE7F0E94CB35E695E170EE0F0E2EE0915C
:103DE2000005ED7F0E94CB35E695E695E170EE0F7A
:103DF200EE0F0E2EE0910005EB7F0E94CB35E6958B
:103E0200E695E695E170EE0FEE0FEE0F0E2EE091C5
:103E12000005E77F0E94CB35E295E170E795E0E08F
:103E2200E7950E2EE0910005EF77E0290E94D1354B
:103E3200E0910705E07211F4C79801C0C79A0E9489
:103E4200D635E1E0F0E00E94E03576C0E130A0E056
:103E5200FA07A9F4A0911505B091160580911705EE
:103E6200909118050E94AF354CF0E0910005E06298
:103E72000E94D135E2E0F0E00E94E0355DC0E23020
:103E8200A0E0FA0721F50E9433350E945404E03085
:103E9200E9F4E0910005EF7D0E94D135E091000543
:103EA200EE7F0E94E535ED7F0E94E535EB7F0E94B3
:103EB200E535E77F0E94E535EF770E94D135C79857
:103EC2000E94D635E3E0F0E00E94E03535C0E330F1
:103ED200A0E0FA0769F40E9433350E946004E030E2
:103EE20031F40E94D635E4E0F0E00E94E03524C0CF
:103EF200E430A0E0FA0701F50E9433350E94540431
:103F0200E130D1F4E5E0F0E00E94E035E0914305D4
:103F1200F0914405309739F4E1E0F0E0E093430595
:103F2200F093440509C0E130A0E0FA0729F4E0E08B
:103F3200E0934305E0934405E0913505F0913605A1
:103F4200229608950E9494310E947004E13019F47F
:103F5200979A1A981B980E949B3511F40E94A135DA
:103F6200E0913905F0913A05309749F5EA81E093FD
:103F72000805E17011F4C09801C0C09AE0910805EB
:103F8200E27011F4C19801C0C19AE0910805E47091
:103F920011F4C29801C0C29AE0910805E87011F4C8
:103FA200C39801C0C39AE0910805E07111F41C980E
:103FB20001C01C9A0E94E835E1E0F0E049C0E1301E
:103FC200A0E0FA0789F4A0911D05B0911E05809129
:103FD2001F05909120050E94AF352CF0C59AE2E0B2
:103FE200F0E00E94F23538C0E230A0E0FA0799F41E
:103FF2000E9433350E946604E03061F4C598C0988F
:10400200C198C298C3981C980E94E835E3E0F0E09A
:104012000E94F23521C0E330A0E0FA0769F40E9461
:1040220033350E947504E03031F40E94E835E4E053
:10403200F0E00E94F23510C0E430A0E0FA0761F42B
:104042000E9433350E946604E13031F4E5E0F0E08D
:10405200E0933905F0933A05E0913905F0913A057C
:104062002496089568970E94EB3A20E030E000E041
:1040720010E040E050E04B30E0E05E0744F4FA012B
:104082000E94F7350E944F324F5F5F4FF4CFE1E954
:10409200F0E0E0939305F09394050E94C0310E94F2
:1040A200B531E0939305F0939405A0919305B091F7
:1040B2009405A139E0E0BE0761F0E0919305F0912B
:1040C2009405E0930D05F0930E05E0930F05F09330
:1040D20010050E94FE350E9426340E2E0E940336E1
:1040E2000E9474350E9408360E9419360E942336B7
:1040F200EF930E9494310E949E31AF91EA23EF9395
:104102000E9494310E94A431AF91EA2311F40C94DD
:10411200D1210E94FE35119711F00C94D121F801A2
:10412200309749F40E942D360E9433360E942D3674
:1041320001E010E034C1E130A0E0FA07C1F40E94CE
:104142004636159724F40E94AA310E944B360E94EB
:104152004E36159724F40E9466340E9453360E940C
:10416200563621F00E94633602E010E018C1E230B8
:10417200A0E0FA07C1F40E946D36159724F40E945C
:10418200AA310E9472360E947536159724F40E9455
:104192007A360E947F360E94823621F00E948F3644
:1041A20003E010E0FCC0E330A0E0FA0789F40E94CB
:1041B2006D36159724F40E9499360E9472360E9439
:1041C2006D36159721F40E948F3604E010E0E7C0A7
:1041D200E430A0E0FA0789F40E944636159724F4E9
:1041E2000E9403340E949D360E944636159721F4A0
:1041F2000E948F3605E010E0D2C0E530A0E0FA0759
:1042020011F00C948E210E9494310E949E31EF9302
:104212000E9494310E94A431AF91EA2311F40C94CC
:104222008D210E94C0310E94EE310E947D049F01C7
:10423200022E032A11F40AE912E00E94A03621F0AC
:104242000E94A7360E943B320E94AB360E22AC85FA
:10425200BD850E947435E02121F00E94A7360E949C
:104262003B320E94B4360E22AE85BF850E94743561
:10427200E02121F00E94A7360E943B320E94BD3607
:104282000E22A889B9890E947435E02121F00E948A
:10429200A7360E943B320E94C6360E22AA89BB89EB
:1042A2000E947435E02121F00E94A7360E943B3221
:1042B2000E94CF360E22AC89BD890E947435E0215E
:1042C20021F00E94A7360E943B320E94D8360E226D
:1042D200AE89BF890E947435E02121F00E94A73681
:1042E2000E943B320E94E1360E22A88DB98D0E94B7
:1042F2007435E02121F00E94A7360E943B320E94D1
:10430200EA360E22AA8DBB8D0E947435E02121F07F
:104312000E94A7360E943B3242C0E630A0E0FA0774
:1043220089F40E944636159724F40E94AA310E940D
:104332004B360E944636159721F40E948F3607E0CD
:1043420010E02DC0E730A0E0FA0779F40E946D3644
:10435200159714F40E94F3360E946D36159721F4D6
:104362000E948F3604E010E01AC0EA39A2E0FA0790
:10437200B1F40E944636159724F40E94AA310E9495
:104382004B360E944636159751F40E94633604E676
:1043920010E0E0E0E0938305E0938405C698B9CE8F
:1043A2000E94FE350E9474350E2E0E9403360E9432
:1043B20026340E9408360E94F8360E94FD360E22EC
:1043C2000E940237E021EF930E9494310E949E31B5
:1043D200AF91EA23EF930E9494310E94A431AF91EE
:1043E200EA2311F40C943C230E940336119711F036
:1043F2000C943C23F801309749F40E940B370E9439
:1044020033360E940B3701E010E034C1E130A0E006
:10441200FA07C1F40E944636159724F40E94AA3185
:104422000E944B360E944E36159724F40E94663441
:104432000E9453360E94563621F00E94633602E0F3
:1044420010E018C1E230A0E0FA07C1F40E946D3614
:10445200159724F40E9411370E9472360E94753615
:10446200159724F40E9416370E947F360E948236E6
:1044720021F00E948F3603E010E0FCC0E330A0E0A0
:10448200FA0789F40E946D36159724F40E941B37AF
:104492000E9472360E946D36159721F40E948F3663
:1044A20004E010E0E7C0E430A0E0FA0789F40E94DB
:1044B2004636159724F40E9403340E949D360E94CA
:1044C2004636159721F40E948F3605E010E0D2C0DF
:1044D200E530A0E0FA0711F00C94F9220E94943121
:1044E2000E949E31EF930E9494310E94A431AF91B9
:1044F200EA2311F40C94F8220E94C0310E94F33195
:104502000E947D049F01022E032A11F40AE912E09F
:104512000E94A03621F00E94A7360E943B320E94E0
:10452200AB360E22AC85BD850E947435E02121F0A8
:104532000E94A7360E943B320E94B4360E22AE85FC
:10454200BF850E947435E02121F00E94A7360E94A7
:104552003B320E94BD360E22A889B9890E94743569
:10456200E02121F00E94A7360E943B320E94C6360B
:104572000E22AA89BB890E947435E02121F00E9493
:10458200A7360E943B320E94CF360E22AC89BD89EB
:104592000E947435E02121F00E94A7360E943B322E
:1045A2000E94D8360E22AE89BF890E947435E0215E
:1045B20021F00E94A7360E943B320E94E1360E2271
:1045C200A88DB98D0E947435E02121F00E94A73692
:1045D2000E943B320E94EA360E22AA8DBB8D0E94B7
:1045E2007435E02121F00E94A7360E943B3242C07E
:1045F200E630A0E0FA0789F40E944636159724F4C3
:104602000E94AA310E944B360E944636159721F429
:104612000E948F3607E010E02DC0E730A0E0FA07D5
:1046220079F40E946D36159714F40E94F3360E94B5
:104632006D36159721F40E948F3604E010E01AC0FF
:10464200EA39A2E0FA07B1F40E944636159724F43B
:104652000E94AA310E944B360E944636159751F4A9
:104662000E94633604E610E0C698E0E0E093850518
:10467200E0938605B9CE0E94F23A6E9608950E94A2
:1046820017310F01ACE0B0E00E94B93A0E161F06D6
:104692009CF0E0910005E0640E94D1350E9422372F
:1046A2000E9427370E94C504E6EDF7E0FA93EA93E9
:1046B2000E9427370E94C504A6E0B0E00E94B93AE2
:1046C2000F01AAE0B0E00E94B93A0E161F069CF054
:1046D200E0910005E0640E94D1350E9422370E94D9
:1046E2002A370E94C504E1EFF7E0FA93EA930E94A9
:1046F2002A370E94C504089524970E94EB3AE0E00D
:10470200EE83EF830E9494310E949E31EF930E94C8
:1047120094310E94A431AF91EA2371F00E94C0311A
:104722000E9436320E947D048F010E94C0310E9495
:10473200C0310E947D04AF01E1E0F0E0E017F10733
:1047420011F00C948024EE81FF81309741F40E9495
:104752008F36C69AE1E0F0E0EE83FF83CFC0E1300E
:10476200A0E0FA07D1F40E944636159724F40E947D
:10477200AA310E944B360E944E36159724F40E94AD
:1047820066340E9453360E94563631F00E946336D8
:10479200E2E0F0E0EE83FF83B1C0E230A0E0FA078E
:1047A200C1F40E946D36159724F40E942D370E94A1
:1047B20072360E947536159724F40E942D370E9496
:1047C2007F360E94823621F00E948F360E94323755
:1047D20095C0E330A0E0FA0711F00C9457240E9430
:1047E2004636159724F4E2E0F0E00E949D360E94DE
:1047F2004E36159734F4E2E0F0E00E941C310E943C
:1048020053360E94563611F40C9456240E94633695
:104812000E94C0310E9436320E947D04E887F987E7
:10482200309779F40E9494310E949E31EF930E9456
:1048320094310E94A431AF91EA2311F00E943737DC
:1048420034C0E130A0E0FA0721F40E943237C69862
:104852002CC0E230A0E0FA0741F5E1E0F0E0E0939D
:104862007705F0937805E0910005EF7B0E94D13542
:10487200E0E0E0938905E0938A050E9481310E947D
:10488200F8040E9422370E9427370E94C5040E9422
:1048920094310E949E31EF930E9494310E94A43180
:1048A200AF91EA2311F00E94373728C0E430A0E02C
:1048B200FA0721F50E944636159724F40E94AA3180
:1048C2000E944B360E944E36159724F40E9466349D
:1048D2000E9453360E94563689F00E948F360E94FB
:1048E200AA310E94C0310E9436320E94E004C6986A
:1048F200E5E0F0E0EE83FF8300E010E01DCFE1E0B1
:10490200F0E0E417F50711F00C946625EE81FF81C3
:10491200309741F40E948F36C69AE1E0F0E0EE83D0
:10492200FF83D2C0E130A0E0FA07D1F40E944636FC
:10493200159724F40E94AA310E944B360E944E36EB
:10494200159724F40E9466340E9453360E9456360C
:1049520031F00E946336E2E0F0E0EE83FF83B4C000
:10496200E230A0E0FA07C1F40E946D36159724F4F4
:104972000E942D370E9472360E947536159724F4D4
:104982000E942D370E947F360E94823621F00E94BB
:104992008F360E94323798C0E330A0E0FA0711F058
:1049A2000C943D250E944636159724F4E2E0F0E08F
:1049B2000E949D360E944E36159734F4E2E0F0E0F4
:1049C2000E941C310E9453360E94563611F40C94F8
:1049D2003C250E9463360E94C0310E94C0310E9471
:1049E2007D049F01F901309779F40E9494310E946D
:1049F2009E31EF930E9494310E94A431AF91EA2339
:104A020011F00E94373737C0E130A0E0FA0721F4F5
:104A1200C698E3E0F0E02DC0E230A0E0FA0759F5D5
:104A2200E1E0F0E0E0937905F0937A05E09100058A
:104A3200EF7B0E94D135E0E0E0938705E0938805A3
:104A42000E9488310E94F8040E9422370E942A376D
:104A52000E94C5040E9494310E949E31EF930E94ED
:104A620094310E94A431AF91EA2329F0C69AE4E07E
:104A7200F0E0EE83FF8328C0E430A0E0FA0721F5DE
:104A82000E944636159724F40E94AA310E944B36A2
:104A92000E944E36159724F40E9466340E945336C3
:104AA2000E94563689F00E948F36E5E0F0E0EE83F0
:104AB200FF830E94AA310E94C0310E94C0310E942D
:104AC200E004C69840E050E01ACF0E94F23A2A96DB
:104AD2000895E0E0EBBBEFEFEABBE0E0E8BBEFEF0D
:104AE200E7BBE0E0E5BBEFEFE4BBE0E0E2BBEFEF0A
:104AF200E1BBE0E0E3B9EFEFE2B9E0E0E0936200AE
:104B0200EFEFE0936100E0E0E0936500EFE1E09316
:104B12006400E0E0E0BFE7E0E3BFE0E0E2BFE1BF66
:104B2200EFBDEEBDEDBDECBDE7BDE6BDEBBDEABD43
:104B3200E9BDE8BDE0937900E0937800E5BDE4BD0E
:104B4200E3BDE0938B00E0938A00E0938900E09359
:104B52008800E0938100E0938000E0938700E09377
:104B62008600E0938500E0938400E0938300E09365
:104B72008200E0936A00EABFE9BFE1E0E7BFE0E05C
:104B8200E0937D00EBB9E8E1EAB9E6E0E093950055
:104B9200E0E0E0939000E8E0E9B9E0E0E0939A0019
:104BA200E0E8E8B9E0E0E0BDE6B9EDB9E093740011
:104BB2000E94093A78940E943D370E943D370E9434
:104BC2003D370E943D370E94EA30E3E0EA930E94BB
:104BD2006A2FE0E8EA930E946A2FE2E0EA930E94D9
:104BE2006A2FE0E1EA930E946A2FE1E0F0E05F01C0
:104BF2000E9467350E944337E0E0E0935B05E09353
:104C02005C050E944A370E945037689420F821F8C8
:104C120022F8E7EBF0E0E0936105F0936205E4E649
:104C2200F0E0E0937B05F0937C05E0937D05F09343
:104C32007E05E1E0F0E0E0937F05F0938005E2E39A
:104C4200F0E0E0938105F0938205E4E6F0E0E09382
:104C52008F05F0939005E8E7F0E06F01E0E5F0E002
:104C6200E0933B05F0933C05E0E0E0933D05E093E3
:104C72003E05E0E4F0E0E0933F05F0934005E0E01C
:104C8200E0934105E09342050E94D21A0E94331B31
:104C92000E944A060E94051D0E94B01CF0DC2CDD19
:104CA2000E94F8040E94E105DDD90E944A06A09103
:104CB2002D05B0912E050E9426340E2E0E94193623
:104CC2000E94F836E1E0F0E00E947F3A0E220E9454
:104CD20023361E2E0E9402370E2E0E94F8360E94A4
:104CE2007435E029E1210E2EA0915B05B0915C059F
:104CF2000E942634E02911F40C944E2FE0914705CE
:104D0200F0914805309711F00C945827C69AE0911B
:104D12005B05F0915C05309711F00C9408270E9416
:104D220066340E94E3310E94E0040E9466340E94CD
:104D3200F3310E94E0040E94AA310E94B5310E9420
:104D4200BB310E94C0310E94C5310E94AF31319700
:104D5200A0E0B0E00E94C93AA0E0B0E0E1E0F0E0FB
:104D62000E94CC310E9423310E94D3310E94DC3157
:104D72000E942134309731F40E94133531970E94FA
:104D8200C93A31960E9436320E94EE310E947D0469
:104D9200E0937B05F0937C050E9436320E94F3314A
:104DA2000E947D04E0937D05F0937E050E94C03150
:104DB2000E94E3310E947D04E0937F05F093800519
:104DC2000E9436320E94E831E0938105F093820519
:104DD2000E94C0310E94E8310E94F8310E942331C2
:104DE2000E94FD310E9456370E2E0E940237E021AA
:104DF20039F00E945837E0933105F093320505C02F
:104E0200E0E0E0933105E09332050E942D36E1E0C7
:104E1200F0E0E0935B05F0935C050E94F434119797
:104E220089F41E980E946D36159724F40E94163755
:104E32000E9472360E947536159724F40E94AA3198
:104E42000E947F360E94F434129791F40E94051D4D
:104E52000E946D36159724F40E947A360E947236AB
:104E62000E947536159724F40E9411370E947F36EE
:104E72000E948236D9F00E94F434129759F41E9996
:104E820003C00E94B01CFBCFE8EBFBE0FA93EA936D
:104E92000E945B3A0E943D370E948F360E94503733
:104EA2000E945D37E1E0F0E00E946337F4C7E13031
:104EB200A0E0FA07C9F50E9468370E946F37E02127
:104EC20029F01F9A0E9499360E947F360E94683705
:104ED2000E94FF34E02139F01F9A0E94051D0E94B2
:104EE2001B370E947F360E9471370E948B3A0E94C4
:104EF2007537E02121F00E947C370E9453360E94D0
:104F020075360E947F370E9471370E94793AE021FC
:104F120051F00E9485370E948B370E949537E2E05C
:104F2200F0E00E946337B7C7E230A0E0FA07F1F47D
:104F32000E94F434129711F40E94051D0E944E360D
:104F4200159734F40E9435340E949A370E945336E2
:104F52000E944E36159749F41A9A0E949D370E9474
:104F6200A337E3E0F0E00E94633795C7E330A0E0A7
:104F7200FA0711F00C9400280E94F434129711F4ED
:104F82000E94051D0E9471370E948B3A0E2E0E94CC
:104F9200AD370E220E9405350E94BE3731F00E94C5
:104FA2001C340E941C310E9453360E9471370E94A9
:104FB200C6370E94BE3721F00E94CA370E949D3731
:104FC2000E9471370E948B3A0E2E0E9405350E9474
:104FD200D23731F0E3E0F0E00E941C310E945336F8
:104FE2000E9471370E94C6370E94D23739F01A9850
:104FF2000E949D37E4E0F0E00E9463374CC7E43042
:10500200A0E0FA07E9F40E94F434129711F40E9426
:10501200051D0E944E36159724F40E947C370E948B
:1050220053360E944E36159751F41A980E949D37B6
:10503200E0E0E0934905E0934A050E94DA372BC786
:10504200E530A0E0FA0711F00C94BD280E94DD378C
:105052000E220E946F37E02121F00E94AA310E94A5
:1050620072360E94DD370E220E94FF34E02121F0C9
:105072000E9411370E9472360E94F434129711F482
:105082000E94051D0E94E8370E94EA370E9474358B
:10509200E02141F00E948537E1E0F0E0E09349052C
:1050A200F0934A050E94EF370E220E946F37E021EB
:1050B20021F00E9499360E9472360E94EF370E222A
:1050C2000E94FF34E02121F00E941B370E947236B9
:1050D2000E94F7370E948B3A0E2E0E94FB3711F086
:1050E2000E94F3360E9468370E9402380E9474358B
:1050F200E02121F0E3E0F0E00E9407380E946837E7
:105102000E940A380E220E946F37E02121F00E948D
:105112007A360E947F360E9468370E940A380E2231
:105122000E94FF34E02121F00E9416370E947F3650
:105132000E94F7370E94793A0E9475370E220E9428
:10514200EA370E942634E0211E2E0E94F7370E9481
:10515200793A0E9475370E220E94FB37E12959F0F5
:105162000E9485370E948B370E940C381B9AE6E01A
:10517200F0E00E9463378FC6E630A0E0FA0711F034
:105182000C940E290E944636159724F40E9403348B
:105192000E949D360E940238119711F40E94113824
:1051A2000E944E36159734F40E9435340E949A3785
:1051B2000E9453360E94F434129711F40E94051D86
:1051C2000E9471370E94793A0E9414380E94793AFB
:1051D200E02111F10E9419380E2E0E946F37E02152
:1051E2001E2E0E9425380E2E0E94FF34E021E12956
:1051F20009F01A9A1B9A0E9463360E942E380E9466
:10520200E23A24F40E9433380E943D380E94A337C8
:10521200E7E0F0E00E9463373EC6E730A0E0FA071D
:10522200B9F50E94F434129711F40E94051D0E94F0
:1052320041380E9447380E944B38E0E00E945038C3
:105242000E9456380E945B380E9461380E9467387B
:105252000E9485370E948B370E940C380E942134AD
:10526200DF010E94E23A7CF4E8E0F0E00E9463375A
:10527200A0919505B0919605119721F4E8E7F3E026
:105282000E94633704C0E7EEF3E00E94633703C66F
:10529200E837A3E0FA0711F00C94912A0E946D38C6
:1052A20014F40E947E380E94F434129711F40E9482
:1052B200051D0E940238119711F40E9411380E94B4
:1052C200F7370E948238DF010E94FD360E9486383D
:1052D2000E947435E02121F00E9408340E948C382B
:1052E2000E94E8370E948F380E947435E02121F035
:1052F2000E9485370E9494380E94F7370E948238B4
:105302000E949B380E942634E02111F00E94A238AC
:105312000E94E8370E9421340E949B380E94263462
:10532200E02121F00E9485370E94A7380E94213493
:105332000E94AF38E02121F00E9485370E94B838E0
:105342000E94F7370E94BF3811F00E94C9380E94AC
:10535200E8370E94CE3821F00E9485370E94D53866
:105362000E9471370E94DC380E9474350E94E43832
:105372000E220E94AD37E02131F00E941C340E94BF
:105382001C310E9453360E9471370E94C6370E9418
:10539200EA380E94EF38E02189F00E94F23811F4D5
:1053A2000E949D370E94F83829F40E94CA370E9451
:1053B200FE3804C00E9467380E94A3370E94053954
:1053C2000E9474350E941039E02121F00E942B3492
:1053D2000E949D360E9416390E9413350E94183988
:1053E2000E948B3A0E941039E02141F00E941D393F
:1053F20019F40E94253902C00E9461380E940539C1
:105402000E942634E02121F00E9403340E949D363E
:105412000E9471370E94DC380E9426340E94E438D0
:10542200E02121F00E9433390E9453360E9416393E
:105432000E9413350E9436390E9405350E943B397D
:105442000E9486380E943F3911F00E9445390E941D
:105452004E390E9414380E948B3AE02111F00E94CA
:1054620053390E9416390E944E39E02111F00E94F0
:1054720056390E9471370E94C6370E945A390E224D
:105482000E9413350E9418390E947F3AE02129F0C8
:105492001A980E949D370E945E390E9465390E2E2D
:1054A2000E9471370E948B3AE02121F00E947C37E2
:1054B2000E9453360E9471370E94793A0E2E0E9442
:1054C2006539E02119F00E945B381A980E9405356F
:1054D2000E945A390E2E0E9413350E9436390E94BC
:1054E2006A390E94793A0E9410390E94E4380E9477
:1054F20086380E943F3999F0E0E00E9456380E94B7
:105502005B380E948F360E9447380E9450380E94B2
:105512004B380E9441380E947E380E947139BBC4C8
:10552200E73EA3E0FA0711F00C94802B0E946D383D
:1055320014F40E947E380E94F434129711F40E94EF
:10554200051D0E940238119711F40E9411380E9421
:1055520071370E94DC380E9474350E94E4380E22B2
:105562000E94AD37E02131F00E941C340E941C31B0
:105572000E9453360E9471370E94C6370E94EA3851
:105582000E94EF38E02189F00E94F23811F40E9463
:105592009D370E94F83829F40E94CA370E94FE38CB
:1055A20004C00E9467380E94A3370E9405390E94F6
:1055B20074350E941039E02121F00E942B340E94A0
:1055C2009D360E9416390E9413350E9418390E9496
:1055D2008B3A0E941039E02141F00E941D3919F4E2
:1055E2000E94253902C00E9461380E9405390E943A
:1055F2002634E02121F00E9403340E949D360E944D
:1056020071370E94DC380E9426340E94E438E0217F
:1056120021F00E9433390E9453360E9416390E94AB
:1056220013350E9436390E9405350E943B39E0212C
:1056320011F00E9445390E944E390E9414380E948E
:105642008B3AE02111F00E9453390E9416390E94D0
:105652004E39E02111F00E9456390E9471370E94A2
:10566200C6370E945A390E220E9413350E941839F9
:105672000E947F3AE02129F01A980E949D370E94E9
:105682005E390E9465390E2E0E9471370E948B3A54
:10569200E02121F00E947C370E9453360E9471372C
:1056A2000E94793A0E2E0E946539E02119F00E947B
:1056B2005B381A980E9405350E945A390E2E0E94B4
:1056C20013350E9436390E946A390E94793A0E9443
:1056D20010390E94E438E02189F0E0E00E94563857
:1056E2000E945B380E948F360E9447380E945038D1
:1056F2000E944B380E947E380E947139CCC3E83038
:10570200A0E0FA0711F00C94E92C0E946D3814F411
:105712000E947E380E94F434129711F40E94051DF3
:105722000E94F7370E948238DF010E94FD360E94F4
:1057320086380E947435E02121F00E9408340E94CC
:105742008C380E94E8370E948F380E947435E0211D
:1057520021F00E9485370E9494380E94F7370E94F8
:1057620082380E949B380E942634E02111F00E9468
:10577200A2380E94E8370E9421340E949B380E947E
:105782002634E02121F00E9485370E94A7380E942A
:1057920021340E94AF38E02121F00E9485370E9417
:1057A200B8380E94F7370E94BF3811F00E94C938FA
:1057B2000E94E8370E94CE3821F00E9485370E946D
:1057C200D5380E9475390E948F380E943F3921F0E6
:1057D2000E942B340E949D360E9416390E948F38F7
:1057E2000E943F39E1F0E0E00E944B38ADE4B5E0C1
:1057F2000E947C390E9413350E941839EA17FB0770
:1058020039F4E4E0F0E0E0935105F093520502C070
:105812000E9441380E948537E0E00E940C380E94C5
:105822000238119711F40E9411380E9471370E94B8
:10583200DC380E9474350E94E4380E220E94AD3793
:105842000E948239E02131F00E941C340E941C31F6
:105852000E9453360E9471370E94C6370E94EA386E
:105862000E94EF380E948239E02189F00E94F238CA
:1058720011F40E949D370E94F83829F40E94CA3719
:105882000E94FE3804C00E9467380E94A3370E941B
:1058920071370E94DC380E9426340E94E4380E944C
:1058A2008239E02121F00E9433390E9453360E944E
:1058B20016390E9413350E9436390E9405350E941E
:1058C2003B39E02111F00E9445390E944E390E9475
:1058D20014380E948B3AE02111F00E9453390E9441
:1058E20016390E944E39E02111F00E9456390E9469
:1058F20085390E2E0E9471370E94793A0E220E943B
:1059020005350E94D2371E2E0E948F38E1E0F0E06A
:105912000E947F3A0E2E0E9413350E9418390E946F
:105922007F3AE029E12129F01A980E949D370E94CE
:105932005E390E9485390E2E0E9465390E220E9420
:1059420071370E948B3AE02121F00E947C370E943D
:1059520053360E9485390E2E0E9471370E94793A81
:105962000E220E946539E02111F00E945B380E94EC
:105972008F38E4E0F0E00E94793A6E2F0E2E0E94FA
:1059820005350E945A390E220E9471370E94793AD7
:105992000E94E4380E941039E0211E2E062E0E9439
:1059A2000A380E941039E021E12989F00E945B380F
:1059B200E0E00E9456380E948F360E9447380E94CB
:1059C20050380E944B380E947E380E94713963C25F
:1059D200E930A0E0FA0711F00C946E2D0E94F43425
:1059E200119761F50E9475390E941938E02111F072
:1059F2000E9453390E9471370E9487390E948B3A64
:105A0200E02121F00E947C370E9453360E947539B2
:105A12000E9490390E94793AE02121F00E94AA3135
:105A22000E944B360E9471370E9487390E94853A44
:105A3200E02121F00E9466340E9453360E94F43421
:105A4200129791F50E9475390E942538E02111F0D4
:105A52000E9453390E9471370E9496390E948B3AF4
:105A6200E02121F00E947C370E9453360E94753952
:105A72000E949C390E94793AE02121F00E94AA31C9
:105A82000E944B360E9471370E9496390E94853AD5
:105A9200E02121F00E9466340E9453360E94F434C1
:105AA200129711F40E94051D0E945636A9F01A9809
:105AB2001B980E949D37E0E00E940C38AFE4B5E0ED
:105AC2000E947C39E2E0F0E0E0934905F0934A0558
:105AD200EAE0F0E00E946337DEC1EA30A0E0FA07B4
