:200000000C94DA030C9400000C9400000C9400000C9400000C9400000C9400000C94000003
:200020000C9400000C9400000C9400000C9400000C9400000C9400000C9400000C940000C0
:200040000C9453040C9400000C9400000C9400000C9400000C9400000C9400000C94000049
:200060000C9400000C9400000C9400000C9400000C9400000C9400000C9400000C94000080
:200080000C9400000C9400000C9400001027E80364000A00010000100001100001000000CD
:2000A000202020202020202020202020202020202020202020202020202020202020202040
:2000C00020202020202020202020202020202020005A616369736B206E6965207A6D69658A
:2000E000727A6F6E7920752057796B6F6E61776379004F73207A616369736B7520626C690A
:200100007A656A20737A616679004F73207A616369736B752064616C656A206F6420737A4D
:20012000616679004369736E69656E6965207A61206D616C65202D206D6E69656A737A655C
:20014000206E697A2036206261720038362D303137300038362D313034330038362D3136BB
:2001600037350038362D323039380038372D303137300038372D313034330038372D3136DA
:2001800037350038372D323039380038362D303139320038362D313035340038362D3136B6
:2001A00037360038362D323133320038372D303139320038372D313035340038372D31369E
:2001C00037360038372D323133320038362D303139330038362D313231360038362D31387D
:2001E00033320038362D323137340038372D303139330038372D313231360038372D31385D
:2002000033320038372D323137340038362D303139340038362D313334310038362D31383E
:2002200033330038362D323138300038372D303139340038372D313334310038372D31381E
:2002400033330038372D323138300038362D303636330038362D313334390038362D3138F7
:2002600033340038362D323230340038372D303636330038372D313334390038372D3138D7
:2002800033340038372D323230340038362D303736380038362D313335370038362D3138B4
:2002A00034380038362D323231320038372D303736380038372D313335370038372D31388E
:2002C00034380038372D323231320038362D303830300038362D313336330038362D31397F
:2002E00030340038362D323234310038372D303830300038372D313336330038372D313963
:2003000030340038372D323234310038362D303831310038362D313532330038362D313944
:2003200032390038362D323236310038372D303831310038372D313532330038372D313919
:2003400032390038372D323236310038362D303831340038362D313533300038362D3139FA
:2003600033360038362D323238350038372D303831340038372D313533300038372D3139D4
:2003800033360038372D323238350038362D303831350038362D313535310038362D3139B2
:2003A00034310038362D323238360038372D303831350038372D313535310038372D313993
:2003C00034310038372D323238360038362D303831360038362D313535320038362D32307B
:2003E00030370038362D323239320038372D303831360038372D313535320038372D32305A
:2004000030370038372D323239320038362D303831370038362D313630320038362D32303E
:2004200031370038362D323338340038372D303831370038372D313630320038372D323019
:2004400031370038372D323338340038362D303834370038362D313632300038362D3230F8
:2004600031390038362D323338350038372D303834370038372D313632300038372D3230D3
:2004800031390038372D323338350038362D303835340038362D313632320038362D3230B5
:2004A00032380038362D323433370038372D303835340038372D313632320038372D323095
:2004C00032380038372D323433370038362D303836320038362D313632350038362D323075
:2004E00035320038362D323439320038372D303836320038372D313632350038372D323055
:2005000035320038372D323439320038362D303933350038362D313634380038362D323030
:2005200038320038362D323530300038372D303933350038372D313634380038372D323015
:2005400038320038372D323530300038362D313031390038362D313634390038362D3230FC
:2005600038330038362D323538350038372D313031390038372D313634390038372D3230CC
:2005800038330038372D323632340038362D313032370038362D313636390038362D3230B3
:2005A00038370038362D323632340038372D313032370038372D313636390038372D32308D
:2005C00038370038372D32353835004E69652077637A7974616E6F207A616369736B750067
:2005E0004E616369736E696A20535441525420616279207779706F7A79636A6F6E6F7761EF
:2006000063206E617065647900506F7A79636A6F6E756A6520756B6C616479206C696E69C0
:200620006F77652058595A00537465726F776E696B2031202D207779706F7A79636A6F6E54
:200640006F77616C656D00537465726F776E696B2032202D207779706F7A79636A6F6E6FB5
:2006600077616C656D00537465726F776E696B2033202D207779706F7A79636A6F6E6F778C
:20068000616C656D00537465726F776E696B2034202D207779706F7A79636A6F6E6F776181
:2006A0006C656D00416C61726D20537465726F776E696B203400416C61726D20537465722A
:2006C0006F776E696B203300416C61726D20537465726F776E696B203100416C61726D206E
:2006E000537465726F776E696B2032005779706F7A79636A6F6E6F77616E6F20756B6C61A5
:200700006479206C696E696F77652058595A0050727A656369617A656E6961204C4546538B
:2007200033325F310050727A656369617A656E6961204C45465333325F320050727A65639B
:2007400069617A656E6961204C4546535F58595F320050727A656369617A656E6961204C7C
:200760004546535F58595F310057796D69656E20737A637A6F746B65207065647A656C6BD6
:200780006F77610057796D69656E206B72617A656B2073636965726E790001002D4E414EC9
:2007A00000494E460000010002009E0001008D059A070000F894EE27ECBBF1E0F5BFE5BF16
:2007C000E0936C00F8E1F1BDE1BD8DE0A2E0BB27ED938A95E9F780E090E1A0E0B1E0ED9363
:2007E0000197E9F7E6EAF7E085919591009761F0A591B59105901590BF01F00105900D921B
:200800000197E1F7FB01F0CF8BBFEFEFEDBFE0E1EEBFC0E0D5E00C949B210E946F2B23C09B
:200820000E946F2BE6951FC00E946F2BE695E6951AC00E946F2BE695E695E69514C00E94F3
:200840006F2BE29510C00E946F2BE295EF70E6950AC00E946F2B0E947E2B05C00E946F2BD8
:20086000EE1FE0E0EE1FE170239608951A930A9300E010E00E94832BE4E0EA930E94082A78
:20088000E3E80E948B2BE1E0EA930E94082A0E94962B0E94962B0E94962B0E2F1127F8018C
:2008A0001981088188C06A937A938A939A93AA93BA93EA93FA93EFB7EA93A1E1B5E00E9409
:2008C0009C2BA5E1B5E00E949C2BA9E1B5E00E949C2BADE1B5E00E949C2BA1E2B5E00E94FF
:2008E0009C2BA5E2B5E00E949C2B1B9B26C0ABE8B5E00E94A52BA9E8B5E00E94A52BA091AD
:200900008B05B0918C050E94AC2B41F40E94B62B0E94BC2B31960E9451333197A091890547
:20092000B0918A050E94AC2B41F40E94C12B0E94C72B31960E9451333197E991EFBFF991B0
:20094000E991B991A991999189917991699118951A930A9300E010E00E94CC2B0E94F9292D
:200960008F010D5F1F4F0E94832B0A930E94082AE2E80E948B2B0E94CC2B80E00E944A2B1A
:20098000229619810881289608950E94832BE5E0EA930E94D12BEA81EA930E94082AE881CC
:2009A000EA930E94082AE0E0EA930E94082AEC81EA930E94082A269608950E94BC2B0E9493
:2009C000D72B0E94DE2BE1DF0E94C72B0E94E32B0E94EA2BDADF089524970E94733300E076
:2009E00010E0EE85FF85FA93EA930E94F9298F010D5F1F4FAC85BD85119759F420E030E060
:200A000040E550E0E0E5F0E0E887F987E0E0EE83EF83AC85BD85129759F420E030E040E2BF
:200A200050E0E0E4F0E0E887F987E0E0EE83EF830E94832B0A930E94D12B2A930E94082A44
:200A40004A930E94082AEE85FF85FA93EA9380E00E944A2B22960E94EF2BEC85FD850E9464
:200A6000F72B0E942733A0E0B0E00E940933E02151F00E94FE2BE1EDF0E00E940C2C0E9443
:200A80000C2C0E94112C0E94EF2B0E94152C51F00E94FE2BE2EFF0E00E940C2C0E940C2C3F
:200AA0000E94112C0E94EF2B0E941D2C51F00E94FE2BEAE0F1E00E940C2C0E940C2C0E94B3
:200AC000112C0E94252C0E94152C51F00E94FE2BEAE0F1E00E940C2C0E940C2C0E94112CC9
:200AE0000E94252C0E941D2C51F00E94FE2BE2EFF0E00E940C2C0E940C2C0E94112C0E9436
:200B00007A33609608950E94BC2B0E942D2C0E2E0E94C72B0E942D2C0E2A0E94332C0E946B
:200B20002D2C0E2A0E94382C0E942D2C0E2A0E943D2C0E942D2C0E2A0E94422C0E942D2CA2
:200B40000E2A0E94472C0E942D2CE029F1F00E944C2C0E94B62B0E94532C0E94C12BAAE08D
:200B6000B0E0E5E0F0E00E945133ACE0B0E00E945133A0E0B0E00E945A2CA2E0B0E00E94FC
:200B80005A2CA4E0B0E00E945A2C08950E945F2C44DEA0E00E940433EF930E945F2C40DE81
:200BA000A0E00E940433AF91EA2329F00E94692C0E946E2C6F010E94692C0E94742C0E9478
:200BC0007A2C0E94EA2B0E947F2C0E946E2C0E94862C0E948F2C0E94982C0E949F2C0E9409
:200BE000A42C44DEACE0B0E00E945133E0E2F0E00E94E32B3BDEAAE0B0E00E9451330E9484
:200C0000692C0E94DE2B32DEA8E0B0E00E9451330E949F2C0E94EA2B29DEA6E0B0E00E9463
:200C200051330E94EA2B0E94A92C20DEE0938505F09386050E94EA2B0E94AE2C17DEE0935E
:200C40008705F09388055FDF08951A930A9301E010E0002E012AA9F40E94B32CFADDE030A4
:200C600029F401E010E0E0EAF0E006C000E010E00E94BD2CE4E2F1E0FA93EA930E94CC2C90
:200C8000E8CF0991199108951A930A930E94D72CC4DDE1700E2EE0910205EE7F0E94E12C0B
:200CA000BFDDE170EE0F0E2EE0910205ED7F0E94E12CBADDE170EE0FEE0F0E2EE0910205E5
:200CC000EB7F0E94E12CB5DDE170EE0FEE0FEE0F0E2EE0910205E77F0E94E12CB0DDE1707A
:200CE000E295E07F0E2EE0910205EF7E0E94E12CAADDE170E295E07FEE0F0E2EE0910205EF
:200D0000EF7D0E94E12CA5DDE170E295E07FEE0FEE0F0E2EE0910205EF7B0E94E12C9EDDCD
:200D2000E170E795E0E0E7950E2EE0910205EF77E029E09302050E94E52C0E94742C8F0188
:200D4000A0910205A13069F4F8010E94F72BE1E0F0E0ED93FC93EBE4F1E00E94EA2C0E94D6
:200D6000EF2CA0910205A23071F4F8010E94F72BE2E0F0E0ED93FC93E3E5F1E00E94EA2C3A
:200D80000E94692C29DEA0910205A33071F4F8010E94F72BE3E0F0E0ED93FC93EBE5F1E0A5
:200DA0000E94EA2C0E94692C17DEA0910205A43071F4F8010E94F72BE4E0F0E0ED93FC937E
:200DC000E3E6F1E00E94EA2C0E94692C05DEA0910205A53071F4F8010E94F72BE5E0F0E0E3
:200DE000ED93FC93EBE6F1E00E94EA2C0E94692CF3DDA0910205A63069F4F8010E94F72B5B
:200E0000E6E0F0E0ED93FC93E3E7F1E00E94EA2C0E94EF2CA0910205A73069F4F8010E9416
:200E2000F72BE7E0F0E0ED93FC93EBE7F1E00E94EA2C0E94EF2CA0910205A83069F4F8016C
:200E40000E94F72BE8E0F0E0ED93FC93E3E8F1E00E94EA2C0E94EF2CA0910205A93071F4A0
:200E6000F8010E94F72BE9E0F0E0ED93FC93EBE8F1E00E94EA2C0E94692CAEDDA0910205B7
:200E8000AA3071F4F8010E94F72BEAE0F0E0ED93FC93E3E9F1E00E94EA2C0E94692C9CDDA8
:200EA000A0910205AB3071F4F8010E94F72BEBE0F0E0ED93FC93EBE9F1E00E94EA2C0E9454
:200EC000692C8ADDA0910205AC3069F4F8010E94F72BECE0F0E0ED93FC93E3EAF1E00E94FD
:200EE000EA2C0E94EF2CA0910205AD3069F4F8010E94F72BEDE0F0E0ED93FC93EBEAF1E09E
:200F00000E94EA2C0E94EF2CA0910205AE3069F4F8010E94F72BEEE0F0E0ED93FC93E3EBB1
:200F2000F1E00E94EA2C0E94EF2CA0910205AF3069F4F8010E94F72BEFE0F0E0ED93FC938C
:200F4000EBEBF1E00E94EA2C0E94EF2CA0910205A03171F4F8010E94F72BE0E1F0E0ED9339
:200F6000FC93E3ECF1E00E94EA2C0E94692C34DDA0910205A13171F4F8010E94F72BE1E154
:200F8000F0E0ED93FC93EBECF1E00E94EA2C0E94692C22DDA0910205A23171F4F8010E94D1
:200FA000F72BE2E1F0E0ED93FC93E3EDF1E00E94EA2C0E94692C10DDA0910205A33171F47F
:200FC000F8010E94F72BE3E1F0E0ED93FC93EBEDF1E00E94EA2C0E94692CFEDCA091020507
:200FE000A43171F4F8010E94F72BE4E1F0E0ED93FC93E3EEF1E00E94EA2C0E94692CECDCFD
:20100000A0910205A53169F4F8010E94F72BE5E1F0E0ED93FC93EBEEF1E00E94EA2C0E94FF
:20102000EF2CA0910205A63169F4F8010E94F72BE6E1F0E0ED93FC93E3EFF1E00E94EA2C6B
:201040000E94EF2CA0910205A73169F4F8010E94F72BE7E1F0E0ED93FC93EBEFF1E00E94B5
:20106000EA2C0E94EF2CA0910205A83169F4F8010E94F72BE8E1F0E0ED93FC93E3E0F2E035
:201080000E94EA2C0E94EF2CA0910205A93171F4F8010E94F72BE9E1F0E0ED93FC93EBE033
:2010A000F2E00E94EA2C0E94692C96DCA0910205AA3171F4F8010E94F72BEAE1F0E0ED93AD
:2010C000FC93E3E1F2E00E94EA2C0E94692C84DCA0910205AB3171F4F8010E94F72BEBE19A
:2010E000F0E0ED93FC93EBE1F2E00E94EA2C0E94692C72DCA0910205AC3169F4F8010E9429
:20110000F72BECE1F0E0ED93FC93E3E2F2E00E94EA2C0E94EF2CA0910205AD3169F4F80189
:201120000E94F72BEDE1F0E0ED93FC93EBE2F2E00E94EA2C0E94EF2CA0910205AE3169F4B6
:20114000F8010E94F72BEEE1F0E0ED93FC93E3E3F2E00E94EA2C0E94EF2CA0910205AF31FF
:2011600069F4F8010E94F72BEFE1F0E0ED93FC93EBE3F2E00E94EA2C0E94EF2CA091020559
:20118000A03271F4F8010E94F72BE0E2F0E0ED93FC93E3E4F2E00E94EA2C0E94692C1CDC3A
:2011A000A0910205A13269F4F8010E94F72BE1E2F0E0ED93FC93EBE4F2E00E94EA2C0E946D
:2011C000EF2CA0910205A23271F4F8010E94F72BE2E2F0E0ED93FC93E3E5F2E00E94EA2CD1
:2011E0000E94692CF9DBA0910205A33271F4F8010E94F72BE3E2F0E0ED93FC93EBE5F2E06F
:201200000E94EA2C0E94692CE7DBA0910205A43271F4F8010E94F72BE4E2F0E0ED93FC9348
:20122000E3E6F2E00E94EA2C0E94692CD5DBA0910205A53271F4F8010E94F72BE5E2F0E0AC
:20124000ED93FC93EBE6F2E00E94EA2C0E94692CC3DBA0910205A63269F4F8010E94F72B25
:20126000E6E2F0E0ED93FC93E3E7F2E00E94EA2C0E94EF2CA0910205A73269F4F8010E94AD
:20128000F72BE7E2F0E0ED93FC93EBE7F2E00E94EA2C0E94EF2CA0910205A83269F4F80103
:2012A0000E94F72BE8E2F0E0ED93FC93E3E8F2E00E94EA2C0E94EF2CA0910205A93269F43F
:2012C000F8010E94F72BE9E2F0E0ED93FC93EBE8F2E00E94EA2C0E94EF2CA0910205AA3279
:2012E00071F4F8010E94F72BEAE2F0E0ED93FC93E3E9F2E00E94EA2C0E94692C6DDBA0911B
:201300000205AB3271F4F8010E94F72BEBE2F0E0ED93FC93EBE9F2E00E94EA2C0E94692C86
:201320005BDBA0910205AC3281F4F8010E94F72BECE2F0E00E94F52C0E94F92CE3EAF2E068
:201340000E94EA2C0E94692C47DBA0910205AD3271F4F8010E94F72BEDE2F0E0ED93FC9395
:20136000EBEAF2E00E94EA2C0E94692C35DBA0910205AE3269F4F8010E94F72BEEE2F0E0F5
:20138000ED93FC93E3EBF2E00E94EA2C0E94EF2CA0910205AF3269F4F8010E94F72BEFE225
:2013A000F0E0ED93FC93EBEBF2E00E94EA2C0E94EF2CA0910205A03379F4F8010E94F72BFC
:2013C000E0E3F0E00E94F52C0E94F92CE3ECF2E00E94EA2C0E94EF2CA0910205A13371F469
:2013E000F8010E94F72BE1E3F0E0ED93FC93EBECF2E00E94EA2C0E94692CEEDAA0910205F5
:20140000A23371F4F8010E94F72BE2E3F0E0ED93FC93E3EDF2E00E94EA2C0E94692CDCDAEA
:20142000A0910205A33371F4F8010E94F72BE3E3F0E0ED93FC93EBEDF2E00E94EA2C0E94D3
:20144000692CCADAA0910205A43369F4F8010E94F72BE4E3F0E0ED93FC93E3EEF2E00E943F
:20146000EA2C0E94EF2CA0910205A53369F4F8010E94F72BE5E3F0E0ED93FC93EBEEF2E01D
:201480000E94EA2C0E94EF2CA0910205A63369F4F8010E94F72BE6E3F0E0ED93FC93E3EF32
:2014A000F2E00E94EA2C0E94EF2CA0910205A73369F4F8010E94F72BE7E3F0E0ED93FC9310
:2014C000EBEFF2E00E94EA2C0E94EF2CA0910205A83371F4F8010E94F72BE8E3F0E0ED939B
:2014E000FC93E3E0F3E00E94EA2C0E94692C74DAA0910205A93371F4F8010E94F72BE9E388
:20150000F0E0ED93FC93EBE0F3E00E94EA2C0E94692C62DAA0910205AA3371F4F8010E940E
:20152000F72BEAE3F0E0ED93FC93E3E1F3E00E94EA2C0E94692C50DAA0910205AB3371F4B2
:20154000F8010E94F72BEBE3F0E0ED93FC93EBE1F3E00E94EA2C0E94692C3EDAA091020543
:20156000AC3371F4F8010E94F72BECE3F0E0ED93FC93E3E2F3E00E94EA2C0E94692C2CDA2F
:20158000A0910205AD3369F4F8010E94F72BEDE3F0E0ED93FC93EBE2F3E00E94EA2C0E9470
:2015A000EF2CA0910205AE3369F4F8010E94F72BEEE3F0E0ED93FC93E3E3F3E00E94EA2CDC
:2015C0000E94EF2CA0910205AF3369F4F8010E94F72BEFE3F0E0ED93FC93EBE3F3E00E9426
:2015E000EA2C0E94EF2CA0910205A03469F4F8010E94F72BE0E4F0E0ED93FC93E3E4F3E0B5
:201600000E94EA2C0E94EF2CA0910205A13471F4F8010E94F72BE1E4F0E0ED93FC93EBE4B3
:20162000F3E00E94EA2C0E94692CD6D9A0910205A23469F4F8010E94F72BE2E4F0E0ED93FB
:20164000FC93E3E5F3E00E94EA2C0E94EF2CA0910205A33469F4F8010E94F72BE3E4F0E02B
:20166000ED93FC93EBE5F3E00E94EA2C0E94EF2CA0910205A43469F4F8010E94F72BE4E451
:20168000F0E0ED93FC93E3E6F3E00E94EA2C0E94EF2CA0910205A53469F4F8010E94F72B2F
:2016A000E5E4F0E0ED93FC93EBE6F3E00E94EA2C0E94EF2CA0910205A63471F4F8010E9457
:2016C000F72BE6E4F0E0ED93FC93E3E7F3E00E94EA2C0E94692C80D9A0910205A73471F4E2
:2016E000F8010E94F72BE7E4F0E0ED93FC93EBE7F3E00E94EA2C0E94692C6ED9A091020570
:20170000A83471F4F8010E94F72BE8E4F0E0ED93FC93E3E8F3E00E94EA2C0E94692C5CD95E
:20172000A0910205A93471F4F8010E94F72BE9E4F0E0ED93FC93EBE8F3E00E94EA2C0E94C6
:20174000692C4AD9A0910205AA3471F4F8010E94F72BEAE4F0E0ED93FC93E3E9F3E00E94AB
:20176000EA2C0E94692C38D9A0910205AB3471F4F8010E94F72BEBE4F0E0ED93FC93EBE950
:20178000F3E00E94EA2C0E94692C26D9A0910205AC3481F4F8010E94F72BECE4F0E00E94FC
:2017A000F52C0E94F92CE3EAF3E00E94EA2C0E94692C12D9A0910205AD3469F4F8010E94B6
:2017C000F72BEDE4F0E0ED93FC93EBEAF3E00E94EA2C0E94EF2CA0910205AE3469F4F801AA
:2017E0000E94F72BEEE4F0E0ED93FC93E3EBF3E00E94EA2C0E94EF2CA0910205AF3469F4E6
:20180000F8010E94F72BEFE4F0E0ED93FC93EBEBF3E00E94EA2C0E94EF2CA0910205A0352E
:2018200081F4F8010E94F72BE0E5F0E00E94F52C0E94F92CE3ECF3E00E94EA2C0E94692CC6
:20184000CBD8A0910205A13571F4F8010E94F72BE1E5F0E0ED93FC93EBECF3E00E94EA2CAE
:201860000E94692CB9D8A0910205A23571F4F8010E94F72BE2E5F0E0ED93FC93E3EDF3E026
:201880000E94EA2C0E94692CA7D8A0910205A33569F4F8010E94F72BE3E5F0E0ED93FC9309
:2018A000EBEDF3E00E94EA2C0E94EF2CA0910205A43569F4F8010E94F72BE4E5F0E0ED93C4
:2018C000FC93E3EEF3E00E94EA2C0E94EF2CA0910205A53569F4F8010E94F72BE5E5F0E09A
:2018E000ED93FC93EBEEF3E00E94EA2C0E94EF2CA0910205A63569F4F8010E94F72BE6E5C0
:20190000F0E0ED93FC93E3EFF3E00E94EA2C0E94EF2CA0910205A73571F4F8010E94F72B98
:20192000E7E5F0E0ED93FC93EBEFF3E00E94EA2C0E94692C51D8A0910205A83571F4F801C4
:201940000E94F72BE8E5F0E0ED93FC93E3E0F4E00E94EA2C0E94692C3FD8A0910205A93564
:2019600071F4F8010E94F72BE9E5F0E0ED93FC93EBE0F4E00E94EA2C0E94692C2DD8A091D4
:201980000205AA3569F4F8010E94F72BEAE5F0E0ED93FC93E3E1F4E00E94EA2C0E94EF2C8C
:2019A000A0910205AB3569F4F8010E94F72BEBE5F0E0ED93FC93EBE1F4E00E94EA2C0E944C
:2019C000EF2CA0910205AC3589F4F8010E94F72BECE5F0E00E94F52C0E94F92CE3E2F4E0D5
:2019E0000E94EA2C0E94692C0E94EC04A0910205AD3569F4F8010E94F72BEDE5F0E0ED9310
:201A0000FC93EBE2F4E00E94EA2C0E94EF2CA0910205AE3579F4F8010E94F72BEEE5F0E039
:201A2000ED93FC93E3E3F4E00E94EA2C0E94692C0E94EC04A0910205AF3579F4F8010E9458
:201A4000F72BEFE5F0E0ED93FC93EBE3F4E00E94EA2C0E94692C0E94EC04A0910205A03680
:201A600089F4F8010E94F72BE0E6F0E00E94F52C0E94F92CE3E4F4E00E94EA2C0E94692C82
:201A80000E94EC04A0910205A13679F4F8010E94F72BE1E6F0E0ED93FC93EBE4F4E00E9490
:201AA000EA2C0E94692C0E94EC04A0910205A23679F4F8010E94F72BE2E6F0E0ED93FC9366
:201AC000E3E5F4E00E94EA2C0E94692C0E94EC04A0910205A33669F4F8010E94F72BE3E6F5
:201AE000F0E0ED93FC93EBE5F4E00E94EA2C0E94EF2CA0910205A43679F4F8010E94F72BB2
:201B0000E4E6F0E0ED93FC93E3E6F4E00E94EA2C0E94692C0E94EC04A0910205A53669F48E
:201B2000F8010E94F72BE5E6F0E0ED93FC93EBE6F4E00E94EA2C0E94EF2CA0910205A63610
:201B400069F4F8010E94F72BE6E6F0E0ED93FC93E3E7F4E00E94EA2C0E94EF2CA091020575
:201B6000A73679F4F8010E94F72BE7E6F0E0ED93FC93EBE7F4E00E94EA2C0E94692C0E947B
:201B8000EC04A0910205A83669F4F8010E94F72BE8E6F0E0ED93FC93E3E8F4E00E94EA2C21
:201BA0000E94EF2CA0910205A93679F4F8010E94F72BE9E6F0E0ED93FC93EBE8F4E00E9430
:201BC000EA2C0E94692C0E94EC04A0910205AA3669F4F8010E94F72BEAE6F0E0ED93FC9345
:201BE000E3E9F4E00E94EA2C0E94EF2CA0910205AB3689F4F8010E94F72BEBE6F0E00E943A
:201C0000F52C0E94F92CEBE9F4E00E94EA2C0E94692C0E94EC04A0910205AC3679F4F80133
:201C20000E94F72BECE6F0E0ED93FC93E3EAF4E00E94EA2C0E94692C0E94EC04A0910205D5
:201C4000AD3669F4F8010E94F72BEDE6F0E0ED93FC93EBEAF4E00E94EA2C0E94EF2CA09186
:201C60000205AE3679F4F8010E94F72BEEE6F0E0ED93FC93E3EBF4E00E94EA2C0E94692C0B
:201C80000E94EC04A0910205AF3689F4F8010E94F72BEFE6F0E00E94F52C0E94F92CEBEB56
:201CA000F4E00E94EA2C0E94692C0E94EC04A0910205A03769F4F8010E94F72BE0E7F0E00F
:201CC000ED93FC93E3ECF4E00E94EA2C0E94EF2CA0910205A13779F4F8010E94F72BE1E7DB
:201CE000F0E0ED93FC93EBECF4E00E94EA2C0E94692C0E94EC04A0910205A23779F4F80162
:201D00000E94F72BE2E7F0E0ED93FC93E3EDF4E00E94EA2C0E94692C0E94EC04A0910205FA
:201D2000A33779F4F8010E94F72BE3E7F0E0ED93FC93EBEDF4E00E94EA2C0E94692C0E94B9
:201D4000EC04A0910205A43769F4F8010E94F72BE4E7F0E0ED93FC93E3EEF4E00E94EA2C5F
:201D60000E94EF2CA0910205A53769F4F8010E94F72BE5E7F0E0ED93FC93EBEEF4E00E947E
:201D8000EA2C0E94EF2CA0910205A63769F4F8010E94F72BE6E7F0E0ED93FC93E3EFF4E0EF
:201DA0000E94EA2C0E94EF2CA0910205A73769F4F8010E94F72BE7E7F0E0ED93FC93EBEFF7
:201DC000F4E00E94EA2C0E94EF2CA0910205A83779F4F8010E94F72BE8E7F0E0ED93FC93CB
:201DE000E3E0F5E00E94EA2C0E94692C0E94EC04A0910205A93779F4F8010E94F72BE9E7B8
:201E0000F0E0ED93FC93EBE0F5E00E94EA2C0E94692C0E94EC04A0910205AA3779F4F80143
:201E20000E94F72BEAE7F0E0ED93FC93E3E1F5E00E94EA2C0E94692C0E94EC04A0910205DC
:201E4000AB3779F4F8010E94F72BEBE7F0E0ED93FC93EBE1F5E00E94EA2C0E94692C0E9493
:201E6000EC04A0910205AC3779F4F8010E94F72BECE7F0E0ED93FC93E3E2F5E00E94EA2C29
:201E80000E94692C0E94EC04A0910205AD3769F4F8010E94F72BEDE7F0E0ED93FC93EBE2C3
:201EA000F5E00E94EA2C0E94EF2CA0910205AE3769F4F8010E94F72BEEE7F0E0ED93FC93ED
:201EC000E3E3F5E00E94EA2C0E94EF2CA0910205AF3769F4F8010E94F72BEFE7F0E0ED9394
:201EE000FC93EBE3F5E00E94EA2C0E94EF2CA0910205A03869F4F8010E94F72BE0E8F0E079
:201F0000ED93FC93E3E4F5E00E94EA2C0E94EF2CA0910205A13879F4F8010E94F72BE1E89D
:201F2000F0E0ED93FC93EBE4F5E00E94EA2C0E94692C0E94EC04A0910205A23879F4F80125
:201F40000E94F72BE2E8F0E0ED93FC93E3E5F5E00E94EA2C0E94692C0E94EC04A0910205BE
:201F6000A33869F4F8010E94F72BE3E8F0E0ED93FC93EBE5F5E00E94EA2C0E94EF2CA09177
:201F80000205A43879F4F8010E94F72BE4E8F0E0ED93FC93E3E6F5E00E94EA2C0E94692CFC
:201FA0000E94EC04A0910205A53869F4F8010E94F72BE5E8F0E0ED93FC93EBE6F5E00E946C
:201FC000EA2C0E94EF2CA0910205A63869F4F8010E94F72BE6E8F0E0ED93FC93E3E7F5E0B2
:201FE0000E94EA2C0E94EF2CA0910205A73879F4F8010E94F72BE7E8F0E0ED93FC93EBE7AB
:20200000F5E00E94EA2C0E94692C0E94EC04A0910205A83869F4F8010E94F72BE8E8F0E098
:20202000ED93FC93E3E8F5E00E94EA2C0E94EF2CA0910205A93879F4F8010E94F72BE9E868
:20204000F0E0ED93FC93EBE8F5E00E94EA2C0E94692C0E94EC04A0910205AA3869F4F80108
:202060000E94F72BEAE8F0E0ED93FC93E3E9F5E00E94EA2C0E94EF2CA0910205AB3869F45D
:20208000F8010E94F72BEBE8F0E0ED93FC93EBE9F5E00E94EA2C0E94EF2CA0910205AC3897
:2020A00079F4F8010E94F72BECE8F0E0ED93FC93E3EAF5E00E94EA2C0E94692C0E94EC0420
:2020C000A0910205AD3869F4F8010E94F72BEDE8F0E0ED93FC93EBEAF5E00E94EA2C0E9411
:2020E000EF2CA0910205AE3879F4F8010E94F72BEEE8F0E0ED93FC93E3EBF5E00E94EA2C6D
:202100000E94692C0E94EC04A0910205AF3879F4F8010E94F72BEFE8F0E0ED93FC93EBEB21
:20212000F5E00E94EA2C0E94692C0E94EC04A0910205A03969F4F8010E94F72BE0E9F0E085
:20214000ED93FC93E3ECF5E00E94EA2C0E94EF2CF801099119910895E881F9810E94F72BD6
:202160000E942733309741F40E94BD2CEBECF5E00E94FE2C0C941419E130A0E0FA0751F4C0
:20218000E8ECF0E00E94012D0E94082D0E940F2D0C94FB18E230A0E0FA0771F4E0E1F1E0D9
:2021A0000E94012D0E941E2D0E94232D0E941E2D0E94322D0C940119E330A0E0FA0761F4DF
:2021C000EAE7F0E00E94012D0E94082D0E94372D0E94402D0C940119E430A0E0FA0761F4FE
:2021E000E2E0F1E00E94012D0E94082D0E94492D0E94402D0C940119E530A0E0FA0759F4E1
:20220000E0EBF0E00E94012D0E94082D0E940F2D0E94522DF6C7E630A0E0FA0759F4EEEFFF
:20222000F0E00E94012D0E941E2D0E94232DA0E1B0E0E1C7E730A0E0FA0749F4E8E7F0E0F2
:202240000E94012D0E94082D0E94372DCEC7E830A0E0FA0749F4E0ECF0E00E94012D0E9458
:20226000082D0E94492DC1C7E930A0E0FA0769F4E8E1F0E00E94012D0E94082D0E94492D3A
:202280000E94552D0E94522DBCC7EA30A0E0FA0759F4E6E1F0E00E94012D0E94082D0E94AE
:2022A0005C2D0E94402DADC7EB30A0E0FA0759F4E4E7F0E00E94012D0E94082D0E94652DB3
:2022C0000E94402D9EC7EC30A0E0FA0749F4E6E9F0E00E94012D0E94082D0E946E2D85C7E1
:2022E000ED30A0E0FA0759F4EAE1F0E00E94012D0E94082D0E94492D0E94552D7CC7EE3014
:20230000A0E0FA0749F4EEE5F0E00E94012D0E94082D0E945C2D69C7EF30A0E0FA0749F47D
:20232000E4E8F0E00E94012D0E94082D0E94652D5CC7E031A0E0FA0749F4E8EBF0E00E94EF
:20234000012D0E94082D0E94772D5BC7E131A0E0FA0759F4E0E2F0E00E94012D0E94082DF7
:202360000E940F2D0E94522D4CC7E231A0E0FA0769F4E8E9F0E00E94012D0E941E2D0E945A
:20238000802D0E941E2D0E94322D3BC7E331A0E0FA0759F4EAEAF0E00E94012D0E94082D73
:2023A0000E948F2D0E94962D2CC7E431A0E0FA0769F4E2E4F0E00E94012D0E94082D0E9495
:2023C0008F2D0E94992D0E94522D1BC7E531A0E0FA0749F4EEE4F0E00E94012D0E94082DB9
:2023E0000E940F2D08C7E631A0E0FA0759F4E2ECF0E00E94012D0E941E2D0E94802DA0E120
:20240000B0E0F9C6E731A0E0FA0759F4EEECF0E00E94012D0E94082D0E948F2DA9E9B1E0B5
:20242000E4C6E831A0E0FA0759F4E0E4F0E00E94012D0E94082D0E948F2D0E94992DDBC669
:20244000E931A0E0FA0759F4EEE2F0E00E94012D0E94082D0E945C2D0E94402DD2C6EA3160
:20246000A0E0FA0759F4EAEFF0E00E94012D0E94082D0E94A22D0E94522DC3C6EB31A0E087
:20248000FA0749F4ECE6F0E00E94012D0E94082D0E94772DB6C6EC31A0E0FA0749F4E4EA4A
:2024A000F0E00E94012D0E94082D0E946E2D9DC6ED31A0E0FA0749F4EAE2F0E00E94012DBD
:2024C0000E94082D0E945C2D90C6EE31A0E0FA0749F4E4E9F0E00E94012D0E94082D0E94E1
:2024E000A22D89C6EF31A0E0FA0759F4EEE6F0E00E94012D0E94082D0E94AB2DA9E9B1E0E8
:2025000074C6E032A0E0FA0759F4E6E8F0E00E94012D0E94082D0E946E2D0E94402D71C6D9
:20252000E132A0E0FA0749F4EEE8F0E00E94012D0E94082DA0E2B0E052C6E232A0E0FA07BE
:2025400059F4EAE5F0E00E94012D0E94082D0E94B22D0E94B92D55C6E332A0E0FA0759F4E1
:20256000EAEDF0E00E94012D0E94082D0E94BC2D0E94522D46C6E432A0E0FA0759F4E2EAA5
:20258000F0E00E94012D0E94C32D0E941E2D0E94322D37C6E532A0E0FA0759F4E4E0F1E0A4
:2025A0000E94012D0E94082D0E94B22D0E94D62D28C6E632A0E0FA0759F4E6E3F0E00E943F
:2025C000012D0E94082D0E94B22DA6E9B1E00DC6E732A0E0FA0749F4E8E1F1E00E94012D41
:2025E0000E94082D0E94BC2D06C6E832A0E0FA0749F4E6EAF0E00E94012D0E94C32DA0E152
:20260000B0E0F9C5E932A0E0FA0759F4EEE1F0E00E94012D0E94082D0E94492D0E94552D01
:20262000EAC5EA32A0E0FA0759F4ECE5F0E00E94012D0E941E2D0E94D92D0E94522DE1C534
:20264000EB32A0E0FA0759F4E2E6F0E00E94012D0E94082D0E94AB2D0E94B92DD2C5EC3299
:20266000A0E0FA0719F40E94E42DCBC5ED32A0E0FA0769F4E0E1F0E00E94012D0E94082D54
:202680000E94492D0E94552D0E94522DBAC5EE32A0E0FA0749F4E0E5F0E00E94012D0E9479
:2026A0001E2D0E94D92DA7C5EF32A0E0FA0759F4E8E6F0E00E94012D0E94082D0E94AB2D0D
:2026C000A6E9B1E092C5E033A0E0FA0719F40E94E42D97C5E133A0E0FA0759F4E4E2F0E05B
:2026E0000E94012D0E94082D0E94492D0E94402D88C5E233A0E0FA0759F4E4E1F0E00E94A5
:20270000012D0E94082D0E94BC2D0E94522D79C5E333A0E0FA0759F4E2E8F0E00E94012D7C
:202720000E94082D0E94FA2D0E94D62D6AC5E433A0E0FA0749F4E6E0F1E00E94012D0E9447
:20274000082D0E94012E57C5E533A0E0FA0749F4ECE4F0E00E94012D0E94082D0E94492D22
:2027600044C5E633A0E0FA0749F4ECE1F0E00E94012D0E94082D0E94BC2D3DC5E733A0E00E
:20278000FA0749F4E4E1F1E00E94012D0E94082DAAE1B0E024C5E833A0E0FA0759F4EEEEF5
:2027A000F0E00E94012D0E94082D0E94012E0E94522D27C5E933A0E0FA0759F4E8EFF0E033
:2027C0000E94012D0E94082D0E94102E0E94522D18C5EA33A0E0FA0759F4E4EEF0E00E9445
:2027E000012D0E94082D0E94AB2D0E94B92D09C5EB33A0E0FA0759F4E2E5F0E00E94012DB1
:202800000E94082D0E94192E0E94962DFAC4EC33A0E0FA0779F4E0E9F0E00E94012D0E94BD
:20282000082D0E94202EA0E9B1E00E94552D0E94522DE7C4ED33A0E0FA0749F4ECEFF0E0E0
:202840000E94012D0E94082D0E94A22DD4C4EE33A0E0FA0759F4E8E2F0E00E94012D0E94CD
:20286000082D0E94AB2DA6E9B1E0BFC4EF33A0E0FA0759F4E4E3F0E00E94012D0E94082DD8
:202880000E94192EA9E9B1E0B0C4E034A0E0FA0749F4ECEEF0E00E94012D0E94082D0E94F3
:2028A000102EA9C4E134A0E0FA0759F4ECECF0E00E94012D0E94082D0E94272E0E94402D35
:2028C000A0C4E234A0E0FA0759F4ECEBF0E00E94012D0E94082D0E94192E0E94302E8BC42A
:2028E000E334A0E0FA0759F4ECE9F0E00E94012D0E94082D0E94192EA6E9B1E076C4E4344C
:20290000A0E0FA0749F4ECE7F0E00E94012D0E94082D0E946E2D69C4E534A0E0FA0749F46E
:20292000E2EDF0E00E94012D0E94082D0E94272E5CC4E634A0E0FA0769F4E6EEF0E00E94FC
:20294000012D0E94082D0E94192E0E94302E0E94522D57C4E734A0E0FA0759F4E4EBF0E0C5
:202960000E94012D0E94082D0E94192E0E94B92D48C4E834A0E0FA0759F4ECEAF0E00E9401
:20298000012D0E94082D0E946E2D0E94402D39C4E934A0E0FA0769F4E2E1F0E00E94012D8B
:2029A0000E941E2DEDE6F5E00E94FA2D0E94B92D28C4EA34A0E0FA0759F4E2EBF0E00E941A
:2029C000012D0E94082D0E94492D0E94402D19C4EB34A0E0FA0759F4ECE0F1E00E94012D94
:2029E0000E94082D0E94B22D0E94B92D0AC4EC34A0E0FA0719F40E94E42D03C4ED34A0E060
:202A0000FA0769F4E6E2F0E00E94012D0E941E2DEDE6F5E00E94FA2DA6E9B1E0E6C3EE34A7
:202A2000A0E0FA0759F4ECE1F1E00E94012D0E94082D0E94332EA6E9B1E0D7C3EF34A0E023
:202A4000FA0759F4E2E1F1E00E94012D0E94082D0E94B22DA6E9B1E0C8C3E035A0E0FA072B
:202A600019F40E94E42DCDC3E135A0E0FA0759F4EAEEF0E00E94012D0E94082D0E943A2EC9
:202A80000E94402DBEC3E235A0E0FA0759F4E8EDF0E00E94012D0E94082D0E94432E0E94C0
:202AA000402DAFC3E335A0E0FA0769F4ECE8F0E00E94012D0E94082DA2E2B0E00E944C2EC6
:202AC000A9E9B1E092C3E435A0E0FA0759F4E0EAF0E00E94012D0E94512E0E945A2EA0E161
:202AE000B0E089C3E535A0E0FA0749F4EEEAF0E00E94012D0E94082D0E943A2E76C3E63575
:202B0000A0E0FA0749F4E6EFF0E00E94012D0E94082D0E94432E69C3E735A0E0FA0759F482
:202B2000E4ECF0E00E94012D0E94082D0E94612E0E94962D66C3E835A0E0FA0769F4EEE7BF
:202B4000F0E00E94012D0E94512E0E945A2E0E941E2D0E94322D55C3E935A0E0FA0759F498
:202B6000ECE2F0E00E94012D0E94082D0E94202E0E94B92D46C3EA35A0E0FA0749F4E0EFE3
:202B8000F0E00E94012D0E94082D0E940F2D33C3EB35A0E0FA0759F4E8EAF0E00E94012D8A
:202BA0000E94082D0E94AB2DA9E9B1E01EC3EC35A0E0FA0719F40E94E42D23C3ED35A0E0D6
:202BC000FA0759F4E0E3F0E00E94012D0E94082D0E94202EA6E9B1E008C3EE35A0E0FA07EE
:202BE00059F4E4EFF0E00E94012D0E94082D0E940F2D0E94522D05C3EF35A0E0FA0749F495
:202C0000EEE9F0E00E94012D0E94082D0E94772DF8C2E036A0E0FA0719F40E94E42DF1C25C
:202C2000E136A0E0FA0759F4EAE6F0E00E94012D0E94082D0E946E2D0E94402DE2C2E23660
:202C4000A0E0FA0769F4EEEBF0E00E94012D0E94082D0E94372D0E94642E0E94522DD1C258
:202C6000E336A0E0FA0759F4EAEBF0E00E94012D0E94082D0E94332EA9E9B1E0B6C2E43669
:202C8000A0E0FA0759F4E0E6F0E00E94012D0E94082D0E94492D0E94402DB3C2E536A0E0F2
:202CA000FA0749F4E0E7F0E00E94012D0E94082D0E946E2D9AC2E636A0E0FA0759F4EAE843
:202CC000F0E00E94012D0E94082D0E94372D0E94642E91C2E736A0E0FA0759F4E0E8F0E06D
:202CE0000E94012D0E94082D0E94332E0E94962D88C2E836A0E0FA0749F4E6EBF0E00E945C
:202D0000012D0E94082D0E94492D6FC2E936A0E0FA0769F4E4E4F0E00E94012D0E94082D29
:202D20000E946B2E0E94992D0E94522D6AC2EA36A0E0FA0749F4EAE3F0E00E94012D0E94B6
:202D4000082D0E94BC2D57C2EB36A0E0FA0719F40E94E42D56C2EC36A0E0FA0769F4E6EC4E
:202D6000F0E00E94012D0E94082D0E94192E0E94302E0E94522D45C2ED36A0E0FA0759F4DA
:202D8000EAE0F0E00E94012D0E941E2D0E94232DA0E1B0E030C2EE36A0E0FA0759F4E2E330
:202DA000F0E00E94012D0E94082D0E94BC2D0E94522D27C2EF36A0E0FA0719F40E94E42DA1
:202DC00020C2E037A0E0FA0759F4E2EEF0E00E94012D0E94082D0E94192E0E94302E0BC22F
:202DE000E137A0E0FA0769F4E4EDF0E00E94012D0E94082D0E946E2E0E94302E0E94522D36
:202E000000C2E237A0E0FA0779F4EAE4F0E00E94012D0E941E2D0E94712E0E945A2EAFE094
:202E2000B0E00E94522DEDC1E337A0E0FA0769F4E6E7F0E00E94012D0E94742EACE9B1E064
:202E40000E94552D0E94522DDCC1E437A0E0FA0759F4E2E9F0E00E94012D0E94082D0E94C3
:202E6000B22DA6E9B1E0C1C1E537A0E0FA0759F4EAE1F1E00E94012D0E94082D0E946E2E66
:202E80000E94302EB8C1E637A0E0FA0759F4E6E5F0E00E94012D0E941E2D0E94712E0E9493
:202EA000302EA9C1E737A0E0FA0759F4E2E7F0E00E94012D0E94742EACE9B1E00E94552D67
:202EC0009AC1E837A0E0FA0759F4E0EDF0E00E94012D0E94082D0E94B22D0E94B92D91C10B
:202EE000E937A0E0FA0769F4E8E4F0E00E94012D0E941E2D0E94712E0E94302E0E94522D19
:202F000080C1EA37A0E0FA0759F4EAE9F0E00E94012D0E94082D0E94332E0E94B92D71C17A
:202F2000EB37A0E0FA0769F4E6E4F0E00E94012D0E941E2D0E947B2E0E94802E0E94522D7E
:202F400060C1EC37A0E0FA0789F4E0EEF0E00E94012D0E94892EA5E1B0E00E944C2E0E9494
:202F60005A2EA3E1B0E00E94522D4BC1ED37A0E0FA0759F4E8E3F0E00E94012D0E94082D54
:202F80000E94332E0E94302E36C1EE37A0E0FA0759F4EAECF0E00E94012D0E94082D0E9455
:202FA000332EA6E9B1E021C1EF37A0E0FA0759F4EEEDF0E00E94012D0E941E2D0E947B2E07
:202FC0000E94802E18C1E038A0E0FA0769F4E6E1F1E00E94012D0E941E2DEDE6F5E00E9433
:202FE000372D0E94902E07C1E138A0E0FA0779F4E8EEF0E00E94012D0E94892E0E94972E08
:20300000A9E9B1E00E94902E0E94522DFAC0E238A0E0FA0769F4E2EFF0E00E94012D0E9447
:203020009A2E0E945A2E0E941E2D0E94322DE9C0E338A0E0FA0749F4E8E0F1E00E94012DC5
:203040000E94082DAFE1B0E0CAC0E438A0E0FA0759F4E4E6F0E00E94012D0E94082D0E9422
:20306000192E0E94D62DCDC0E538A0E0FA0769F4E8E8F0E00E94012D0E94892E0E94972EAC
:20308000A9E9B1E00E94902EB6C0E638A0E0FA0759F4EEE0F1E00E94012D0E949A2E0E94D0
:2030A0005A2EA0E1B0E0A7C0E738A0E0FA0759F4E4E5F0E00E94012D0E94082D0E946B2EA8
:2030C0000E94D62D9EC0E838A0E0FA0779F4EEE3F0E00E94012D0E941E2DEDE6F5E00E9437
:2030E000972E0E94A12EA0E1B0E085C0E938A0E0FA0759F4ECE0F0E00E94012D0E94082D12
:203100000E94BC2D0E94522D7CC0EA38A0E0FA0759F4ECEDF0E00E94012D0E941E2DEDE69E
:20312000F5E00E940F2D67C0EB38A0E0FA0759F4E8E5F0E00E94012D0E94082D0E946E2E42
:20314000A6E9B1E052C0EC38A0E0FA0779F4ECE3F0E00E94012D0E941E2D0E947B2E0E94E2
:20316000A12E0E941E2D0E94322D4BC0ED38A0E0FA0749F4EEE0F0E00E94012D0E94082D5F
:203180000E94BC2D38C0EE38A0E0FA0769F4EAE0F1E00E94012D0E941E2DEDE6F5E00E9406
:2031A0000F2D0E94522D2DC0EF38A0E0FA0759F4E2E2F0E00E94012D0E94082D0E946E2E57
:2031C0000E94B92D1EC0E039A0E0FA0769F5E6E6F0E00E94012D0E94082DACE1B0E0A0830E
:2031E000B183EFE6F5E0ACE9B1E0A083B183E3E7F5E0A2E1B0E0A083B183E7E7F5E0A1E047
:20320000B0E0A083B1830E94A82E3196E0936705F09368050E94AD2EE0936905F0936A0569
:203220000E94B22E0E94B72EA0917D05B0917E05D29739F40E94C62E3597E0936B05F093B0
:203240006C05A0917F05B0918005D29749F4E0917305F09174053597E0937305F093740546
:203260000E94CB2E0E94D02EE2E3F0E00E940933E02139F00E94B22E70960E94DA2E0E94A2
:20328000B72E0E94CB2E0E94DF2E0E2EA0918305B09184050E94E42E39F00E94B22EB0969B
:2032A0000E94DA2E0E94B72E0E94CB2E0E94D02E0E94E42E39F00E94B22EF0960E94DA2E13
:2032C0000E94B72E229608950E943D2CFA93EA930E94EA2B0E94EA2E0E94422C0E94F02EBC
:2032E0000E94DE2B0E94C5040E94472CFA93EA93E0E3F0E00E94D72B0E94C504E0917D0504
:20330000F0917E050E94F02E0E94A92C0E94C504E0917F05F09180050E94F02E0E94AE2CD0
:203320000E94C504E0918105F0918205FA93EA93E0E3F0E00E94E32B0E94C504E091830572
:20334000F09184050E94F02E0E94A42C0E94C5040E94382C0E94E32B0E94A42C0E94C50433
:203360000E94332CFA93EA93E0E2F0E00E94E32B0E94C5040E94BC2B0E94D72B0E94DE2BBD
:203380000E94C5040E94C72B0E94E32B0E94EA2B0E94C50408950C2C0D28A1F40E94BD2C32
:2033A000E0EEF5E00E94FE2C0E94F32EE0EEF5E00E94022F0E940F2F0E94692C0E946E2C12
:2033C0006F01E9CF0E945F2C0E94152FEF930E945F2C0E941B2FAF91EA2BA1F7929A0E945C
:2033E0000F2F0E94B32C0E94212FEF930E94272F0E94212FAF91EA2BEF930E94312F0E9435
:20340000212FAF91EA2BEF930E94312F0E943B2FAF91EA2B11F40C94BC1A0E945F2C0E94D8
:20342000152FEF930E945F2C0E941B2FAF91EA2B11F0979AFECF0E94BD2CE9E0F6E00E948D
:20344000FE2C0E94F32EE9E0F6E00E94022F0E940F2F0E94B32C0E941904E03041F40E9406
:20346000BD2CE8E2F6E00E94FE2C0E940F2F0E94272F0E941904E03041F40E94F32EE7E48D
:20348000F6E00E94022F0E940F2F0E94312F0E941904E03041F40E94BD2CE6E6F6E00E94CE
:2034A000FE2C0E940F2F0E94312F0E942E04E03041F40E94F32EE5E8F6E00E94FE2C0E9413
:2034C0000F2F0E945F2C0E942E04E13009F4979A0E945F2C0E94412FEF930E945F2C0E94DE
:2034E0003B2FAF91EA2BEF930E94B32C0E94472FAF91EA2BEF930E94272F0E94472FAF91CB
:20350000EA2BC9F1979A0E945F2C0E942904E13041F40E94BD2CE4EAF6E00E94FE2C0E94CC
:203520000F2F0E945F2C0E942E04E13041F40E94BD2CE6EBF6E00E94FE2C0E940F2F0E9486
:20354000B32C0E942304E13041F40E94BD2CE8ECF6E00E94FE2C0E940F2F0E94272F0E9402
:203560002304E13041F40E94BD2CEAEDF6E00E94FE2C0E940F2F35CF0E94BD2CECEEF6E0BB
:203580000E94FE2C0E94F32EECEEF6E00E94022F92980E940F2F0E944D2F0E94EA2ECC2447
:2035A000DD2408950E94272F0E942904A0E00E940433EF930E94272F0E942E04A0E00E94DD
:2035C0000433AF910E94502F0E94572FE02131F0E1E0F0E0E0936105F09362050E94272FBD
:2035E0000E94412FEF930E94272F0E943B2FAF910E94502F0E94DF2EE02131F0E2E0F0E06F
:20360000E0936105F09362050E945C2FE1E00E940433E02119F01E980E94692F0E945C2FF9
:20362000E0E00E940433E02119F01E9A0E94692F08951A930A93A0912105B091220580913E
:20364000230590912405AD33E0E0BE07E0E08E07E0E09E0714F40C94751B0E94742FF50166
:20366000D4010E941B33EF930E94D72C0E94152FEF930E94D72C0E941B2FAF91EA2BEF938E
:203680000E94D72C0E941404A1E00E940433AF91EA2BEF930E94D72C0E94212FAF91EA2BAE
:2036A000EF930E94D72C0E941F04A1E00E940433AF91EA2BEF930E94D72C0E94472FAF91F0
:2036C000EA2BEF930E94D72C0E94412FAF91EA2BEF930E94D72C0E943B2FAF91EA2BAF917F
:2036E000EA2319F0F40131964F01A814B904F1F40E9444068F010E94742FF40131964F017D
:20370000E1E0F0E0E017F10731F4E2E0F0E00E94F02E0E947E2FE2E0F0E0E017F10731F4BD
:20372000E1E0F0E00E94F02E0E947E2FF5013196E815F90511F488249924099119910895E2
:203740000E94B32C0E942304E13019F4979A1A981B98E0913505F0913605309711F00C949C
:20376000F61B0E94842FE881E0930905E17011F4D89801C0D89AE0910905E27011F4D998B9
:2037800001C0D99AE0910905E47011F4DA9801C0DA9AE0910905E87011F4DB9801C0DB9AF1
:2037A000E0910905E07111F4DC9801C0DC9AE0910905E07211F4DD9801C0DD9AE091090587
:2037C000E07411F4DE9801C0DE9AE0910905E07811F4DF9801C0DF9AA881B981A030E1E060
:2037E000BE070CF0949AE1E0F0E047C0E130A0E0FA0789F4A0911105B0911205809113056B
:20380000909114050E948E2F2CF0939AE2E0F0E00E94962F36C0E230A0E0FA0789F40E9425
:20382000B32C0E940D04E03051F49398E0E0EBBB94980E94842FE3E0F0E00E94962F21C0B4
:20384000E330A0E0FA0769F40E94B32C0E941904E03031F40E94842FE4E0F0E00E94962FB2
:2038600010C0E430A0E0FA0761F40E94B32C0E940D04E13031F4E5E0F0E0E0933505F0935F
:203880003605E0913505F091360508C20E94272F0E942304E13019F4979A1A981B98E091D6
:2038A0003905F0913A05309711F00C949C1C0E949B2FE881E0930A05E17011F4A89801C03C
:2038C000A89AE0910A05E27011F4A99801C0A99AE0910A05E47011F4AA9801C0AA9AE091F9
:2038E0000A05E87011F4AB9801C0AB9AE0910A05E07111F4AC9801C0AC9AE0910A05E07220
:2039000011F4AD9801C0AD9AE0910A05E07411F4AE9801C0AE9AE0910A05E07811F4AF9809
:2039200001C0AF9AA881B981A030E1E0BE070CF0959AE1E0F0E047C0E130A0E0FA0789F4F2
:20394000A0911905B0911A0580911B0590911C050E948E2F2CF0969AE2E0F0E00E94A52F92
:2039600036C0E230A0E0FA0789F40E94272F0E940D04E03051F49698E0E0E5BB95980E94E4
:203980009B2FE3E0F0E00E94A52F21C0E330A0E0FA0769F40E94272F0E941904E03031F496
:2039A0000E949B2FE4E0F0E00E94A52F10C0E430A0E0FA0761F40E94272F0E940D04E1301B
:2039C00031F4E5E0F0E0E0933905F0933A05E0913905F0913A0562C10E945F2C0E942E0427
:2039E000E13019F4979A1A981B98E0913705F0913805309711F00C94421DE881E0930705F9
:203A0000E1700E2EE0910005EE7F0E94AA2FE695E170EE0F0E2EE0910005ED7F0E94AA2F59
:203A2000E695E695E170EE0FEE0F0E2EE0910005EB7F0E94AA2FE695E695E695E170EE0FEF
:203A4000EE0FEE0F0E2EE0910005E77F0E94AA2FE295E170E795E0E0E7950E2EE0910005A7
:203A6000EF77E0290E94B02FE0910705E07211F4C79801C0C79A0E94B52FE1E0F0E00E9448
:203A8000BF2F76C0E130A0E0FA07A9F4A0911505B091160580911705909118050E948E2F62
:203AA0004CF0E0910005E0620E94B02FE2E0F0E00E94BF2F5DC0E230A0E0FA0721F50E9407
:203AC000312F0E940D04E030E9F4E0910005EF7D0E94B02FE0910005EE7F0E94C42FED7F9F
:203AE0000E94C42FEB7F0E94C42FE77F0E94C42FEF770E94B02FC7980E94B52FE3E0F0E0D8
:203B00000E94BF2F35C0E330A0E0FA0769F40E94312F0E941904E03031F40E94B52FE4E0EF
:203B2000F0E00E94BF2F24C0E430A0E0FA0701F50E94312F0E940D04E130D1F4E5E0F0E096
:203B40000E94BF2FE0914505F0914605309739F4E1E0F0E0E0934505F093460509C0E13064
:203B6000A0E0FA0729F4E0E0E0934505E0934605E0913705F091380591C00E945F2C0E94E1
:203B80002904E13019F4979A1A981B98E0913B05F0913C05309781F5E881E0930805E1705A
:203BA00011F4C09801C0C09AE0910805E27011F4C19801C0C19AE0910805E47011F4C29812
:203BC00001C0C29AE0910805E87011F4C39801C0C39AE0910805E07111F41C9801C01C9A75
:203BE000E0910805E07211F41D9801C01D9A0E94C72FE1E0F0E04AC0E130A0E0FA0789F481
:203C0000A0911D05B0911E0580911F05909120050E948E2F2CF0C59AE2E0F0E00E94D12F64
:203C200039C0E230A0E0FA07A1F40E94312F0E941F04E03069F4C598C098C198C298C3986C
:203C40001C981D980E94C72FE3E0F0E00E94D12F21C0E330A0E0FA0769F40E94312F0E94B8
:203C60002E04E03031F40E94C72FE4E0F0E00E94D12F10C0E430A0E0FA0761F40E94312F53
:203C80000E941F04E13031F4E5E0F0E0E0933B05F0933C05E0913B05F0913C052296089555
:203CA0000E94753320E030E000E010E00E94D62F0E94DF2E0E2E0E94DB2F0E94572F0E94D2
:203CC000E02F0E94F12F0E94F62F0E94FC2F11F40C94071F0E94D62F119711F00C94071F9E
:203CE000F801309749F40E9406300E9418300E94AC1001E010E08AC0E130A0E0FA07C1F445
:203D00000E941D30159724F40E94692C0E9422300E942530159724F40E94692C0E942A30D7
:203D20000E942D3021F00E943A3002E010E06EC0E230A0E0FA07B1F40E944430159724F455
:203D40000E94692C0E9449300E944C30159714F40E9451300E94583021F00E94063003E026
:203D600010E054C0E330A0E0FA0789F40E944430159724F40E9465300E9449300E944430EC
:203D8000159721F40E94063004E010E03FC0E430A0E0FA0789F40E941D30159724F40E9450
:203DA000AD2E0E9469300E941D30159721F40E94063005E010E02AC0E530A0E0FA0769F4B3
:203DC0000E94EA2B0E94A92C0E9436049F01022E032A11F406E010E019C0E630A0E0FA0791
:203DE000A9F40E941D30159724F40E94692C0E9422300E941D30159749F40E943A3007E07D
:203E000010E0E0E0E0938505E093860563CF0E94D62F0E94572F0E2E0E94DB2F0E94DF2E5F
:203E20000E94E02F0E946C300E94F62F0E947130E02111F40C94B91F0E94DB2F119711F0B6
:203E40000C94B91FF801309749F40E9406300E947A300E94AC1001E010E08AC0E130A0E0BF
:203E6000FA07C1F40E941D30159724F40E94692C0E9422300E942530159724F40E94692CBC
:203E80000E942A300E942D3021F00E943A3002E010E06EC0E230A0E0FA07B1F40E944430BC
:203EA000159724F40E9418300E9449300E944C30159714F40E9451300E94583021F00E9467
:203EC000063003E010E054C0E330A0E0FA0789F40E944430159724F40E947F300E9449306E
:203EE0000E944430159721F40E94063004E010E03FC0E430A0E0FA0789F40E941D30159793
:203F000024F40E94AD2E0E9469300E941D30159721F40E94063005E010E02AC0E530A0E0F5
:203F2000FA0769F40E94EA2B0E94AE2C0E9436049F01022E032A11F406E010E019C0E6304D
:203F4000A0E0FA07A9F40E941D30159724F40E94692C0E9422300E941D30159749F40E94EB
:203F60003A3007E010E0E0E0E0938705E093880563CF0E947C33249608950E94BC2B0F01CE
:203F80000E94382C0E161F069CF0E0910005E0640E94B02F0E9486300E948B300E94A80408
:203FA000E9E6F7E0FA93EA930E948B300E94A8040E94C72B0F010E94332C0E161F069CF02C
:203FC000E0910005E0640E94B02F0E9486300E948E300E94A804E4E8F7E0FA93EA930E9451
:203FE0008E300E94A804089524970E947333E0E0EE83EF830E94EA2B0E94E52C0E9436042C
:204000008F010E94EA2B0E94EA2B0E943604AF01E1E0F0E0E017F10711F00C94C820EE819E
:20402000FF81309739F40E940630E1E0F0E0EE83FF83ADC0E130A0E0FA07D1F40E941D30FD
:20404000159724F40E94692C0E9422300E942530159724F40E94692C0E942A300E942D3084
:2040600031F00E943A30E2E0F0E0EE83FF838FC0E230A0E0FA07C1F40E944430159724F41D
:204080000E9491300E9449300E944C30159724F40E9491300E9496300E94583021F00E9418
:2040A00006300E94993073C0E330A0E0FA0711F00C94A0200E941D30159724F4E2E0F0E0F2
:2040C0000E9469300E942530159724F40E947A300E942A300E942D3091F10E943A300E9473
:2040E000EA2B0E94E52C0E943604E887F987309711F1E130A0E0FA0719F4E3E0F0E01DC055
:20410000E230A0E0FA07D9F4E1E0F0E0E0937905F0937A05E0910005EF7B0E94B02F0E94B8
:20412000B62B0E944C2C0E94DD040E9486300E948B300E94A804E4E0F0E0EE83FF8327C090
:20414000E430A0E0FA0719F50E941D30159724F40E94692C0E9422300E942530159724F423
:204160000E94692C0E942A300E942D3081F00E9406300E94692C0E94EA2B0E94E52C0E9481
:20418000C504E5E0F0E0EE83FF8300E010E040CF0E94EA2B0E94EA2B0E943604AF01E0E035
:2041A000EE83EF83E1E0F0E0E417F50711F00C949721EE81FF81309739F40E940630E1E0BF
:2041C000F0E0EE83FF83B2C0E130A0E0FA07D1F40E941D30159724F40E94692C0E94223075
:2041E0000E942530159724F40E94692C0E942A300E942D3031F00E943A30E2E0F0E0EE83A2
:20420000FF8394C0E230A0E0FA07C1F40E944430159724F40E9491300E9449300E944C300A
:20422000159724F40E9491300E9496300E94583021F00E9406300E94993078C0E330A0E0A6
:20424000FA0711F00C946F210E941D30159724F4E2E0F0E00E9469300E942530159724F4F1
:204260000E947A300E942A300E942D30B9F10E943A300E94EA2B0E94EA2B0E9436049F0157
:20428000F901309729F4E4E0F0E0EE83FF8326C0E130A0E0FA0719F40E9499301FC0E230D8
:2042A000A0E0FA07D9F4E4E0F0E0EE83FF83E1E0F0E0E0937B05F0937C05E0910005EF7BC1
:2042C0000E94B02F0E94C12B0E94532C0E94DD040E9486300E948E300E94A80427C0E4302A
:2042E000A0E0FA0719F50E941D30159724F40E94692C0E9422300E942530159724F40E94F4
:20430000692C0E942A300E942D3081F00E940630E5E0F0E0EE83FF830E94692C0E94EA2B4E
:204320000E94EA2B0E94C50440E050E03BCF0E947A332A960895E0E0EBBBEFEFEABBE0E0AC
:20434000E8BBEFEFE7BBE0E0E5BBEFEFE4BBE0E0E2BBEFEFE1BBE0E0E3B9EFEFE2B9E0E0F1
:20436000E0936200EFEFE0936100E0E0E0936500EFE1E0936400E0E0E0BFE7E0E3BFE0E0EF
:20438000E2BFE1BFEFBDEEBDEDBDECBDE7BDE6BDEBBDEABDE9BDE8BDE0937900E09378007A
:2043A000E5BDE4BDE3BDE0938B00E0938A00E0938900E0938800E0938100E0938000E093CE
:2043C0008700E0938600E0938500E0938400E0938300E0938200E0936A00EABFE9BFE1E094
:2043E000E7BFE0E0E0937D00EBB9E8E1EAB9E6E0E0939500E0E0E0939000E8E0E9B9E0E09C
:20440000E0939A00E0E8E8B9E0E0E0BDE6B9EDB9E09374000E94943278940E949E300E9417
:204420009E300E949E300E949E300E94832BE3E0EA930E94082AE0E8EA930E94082AE2E08F
:20444000EA930E94082AE0E1EA930E94082AE1E0F0E05F01CC24DD240E94A430E0E0E0936E
:204460005D05E0935E050E94AB300E94B130689420F821F81E9A22F8E7EBF0E0E093630588
:20448000F0936405E4E6F0E0E0937D05F0937E05E0937F05F0938005E1E0F0E0E093810512
:2044A000F0938205E2E3F0E0E0938305F0938405E0E5F0E0E0933D05F0933E05E0E0E09313
:2044C0003F05E0934005E0E4F0E0E0934105F0934205E0E0E0934305E09344050E94641973
:2044E0000E94CB190E942506A4D80E94D21A45DD7BDD0E94DD040E94C605D2DB0E9425067B
:20450000D6010E94DF2E0E2E0E94F12FE1E0F0E00E9421330E220E946C30E1E0F0E00E94EF
:204520000F330E220E94FC2F1E2E0E9471300E2E0E946C300E94572FE029E1210E2EA09193
:204540005D05B0915E050E94DF2EE02911F40C94ED29E0914905F0914A05309711F00C94EB
:204560007A23C69AE0915D05F0915E05309711F00C9418230E944D2F0E949F2C0E94C504EE
:204580000E944D2F0E94AE2C0E94C5040E94692C0E94742C0E947A2C0E94EA2B0E947F2C51
:2045A0000E946E2C0E94862C0E948F2C0E94982C0E94E52C0E94A92C0E943604E0937D05AD
:2045C000F0937E050E94E52C0E94AE2C0E943604E0937F05F0938005E0E3F0E00E94E32B88
:2045E0000E943604E0938105F09382050E94E52C0E94A42C0E943604E0938305F0938405D4
:204600000E946C300E94B7300E947130E02139F00E94BD30E0933305F093340505C0E0E0EB
:20462000E0933305E09334050E9418300E94AC10E1E0F0E0E0935D05F0935E050E94C230FB
:20464000119789F41E980E944430159724F40E94C7300E9449300E944C30159724F40E946D
:20466000692C0E9496300E94C230129791F40E94191B0E944430159724F4E8E0F0E00E9491
:20468000CC300E944C30159724F40E9418300E9496300E94583069F10E94C230129759F4DC
:2046A0001E9903C00E94D21AFBCFE8EBFBE0FA93EA930E94E6320E9406300E94B1300E94B9
:2046C000CF300E94C230119741F40E945F2C0E940D04E130D1F30E94D5300E94C2301297D1
:2046E00041F40E945F2C0E941004E130D1F30E94D53072C6E130A0E0FA0711F00C94CD23CB
:204700000E94DC300E94DF2EE02129F01F9A0E9465300E9496300E94DC300E94E33039F03E
:204720001F9A0E94191B0E947F300E9496300E94E9300E941B330E94ED30E02121F00E9413
:2047400018300E942A300E94F4300E9409330E2E0E94E9300E940933E021F1F00E94F830F0
:204760000E94FE300E9408310E94C230119741F40E945F2C0E940D04E130D1F30E940D3188
:204780000E94C230129741F40E945F2C0E941004E130D1F30E940D311FC6E230A0E0FA0797
:2047A00061F50E94C230129711F40E94191B0E942530159714F40E9414310E942530159756
:2047C000D9F41A9A0E941B310E94C230119741F40E945F2C0E940D04E130D1F30E94213150
:2047E0000E94C230129741F40E945F2C0E941004E130D1F30E942131EFC5E330A0E0FA0753
:2048000011F00C945D240E94C230129711F40E94191B0E942530159734F40E94C62EFA9370
:20482000EA930E942A300E94E9300E9409330E2E0E943D2C0E9428310E941B33E021E1F161
:204840000E942D310E941B310E943D2C0E942831EA17FB07C9F40E94C230119741F40E9491
:204860005F2C0E940D04E130D1F30E9435310E94C230129741F40E945F2C0E941004E130B7
:20488000D1F30E94353118C00E94C230119741F40E945F2C0E940D04E130D1F30E940D316E
:2048A0000E94C230129741F40E945F2C0E941004E130D1F30E940D318FC5E430A0E0FA0705
:2048C00071F50E94C230129711F40E94191B0E942530159724F40E9418300E942A300E9417
:2048E00025301597D9F41A980E941B310E94C230119741F40E945F2C0E940D04E130D1F324
:204900000E943C310E94C230129741F40E945F2C0E941004E130D1F30E943C315DC5E53018
:20492000A0E0FA0711F00C9448250E9448310E945331E02121F00E94692C0E9449300E94A1
:2049400048310E94563121F00E9418300E9449300E94C230129711F40E94191B0E9459315B
:204960000E9409330E945D310E94572FE02141F00E94F830E1E0F0E0E0934B05F0934C05DD
:204980000E9459310E9463310E94DF2E0E945331E02121F00E9465300E9449300E94593150
:2049A0000E9463310E94DF2E0E94563121F00E947F300E9449300E9459310E9463310E9468
:2049C000E33021F0E3E0F0E00E94CC300E94F4300E9466310E94572FE02121F0E3E0F0E0B6
:2049E0000E946E310E94F4300E9466310E94DF2E0E945331E02111F00E9451300E94F430B7
:204A00000E9466310E94DF2E0E94563121F00E94C7300E9496300E9459310E9409330E94C7
:204A2000ED300E22A0914B05B0914C050E94DF2EE0211E2E0E9459310E9409330E94ED3051
:204A40000E22A0914B05B0914C050E94E330E129F1F00E94F8300E94FE300E9471310E94F3
:204A6000C230119741F40E945F2C0E940D04E130D1F30E9476310E94C230129741F40E9455
:204A80005F2C0E941004E130D1F30E947631A4C4E630A0E0FA0711F00C94B0250E941D3053
:204AA000159724F40E94AD2E0E946930A0915905B0915A05119721F4E5E0F0E00E94D12F57
:204AC0000E942530159714F40E9414310E94C230129711F40E94191B0E94E9300E94093393
:204AE0000E2E0E947D310E940933E021C1F10E9481310E2E0E94C2300E94DF2EE0211E2E79
:204B00000E948D310E2E0E94C2300E94E330E12909F01A9AC49A1B9A0E943A300E94963171
:204B20000E946A3324F40E949B310E94A5310E94C230119741F40E945F2C0E940D04E130D6
:204B4000D1F30E94A9310E94C230129741F40E945F2C0E941004E130D1F30E94A9313CC46F
:204B6000E730A0E0FA0711F00C94F7250E944430159724F40E94B22E0E94CC300E94C23052
:204B8000129711F40E94191B0E944430159771F50E94F830E0E00E940831E0E0E0934D057F
:204BA000E0934E05E0935305E0935405E0935505E0935605E0935705E09358050E94C230CA
:204BC000119741F40E945F2C0E940D04E130D1F30E94B0310E94C230129741F40E945F2C21
:204BE0000E941004E130D1F30E94B031F5C3E830A0E0FA0711F00C9429270E94B73114F4D3
:204C00000E94C8310E94C230129711F40E94191B0E9459310E941B330E2E0E94472C0E94D2
:204C2000CC31E02131F0E0917105F09172050E94CC300E9459310E9409330E2E0E94472C7D
:204C40000E94CC31E02131F00E94F830ADE4B5E00E94D8310E94472CA0914D05B0914E05CC
:204C60000E94DE310E94572FE02141F00E94F830E1E0F0E0E0935305F0935405A091590598
:204C8000B0915A05119721F4E5E0F0E00E94D12F0E94E9300E94E6310E94572FE02131F0C2
:204CA0000E94C62EFA93EA930E942A300E94E9300E9409330E2E0E943D2C0E9428310E94DB
:204CC0001B33E021E1F0E0915905F0915A05309711F40E941B31E0915705F09158053097D9
:204CE00049F40E942D31E1E0F0E0E0935705F093580505C0E0E0E0935705E09358050E9471
:204D00007D310E94EE310E94572FE02131F0E0917305F09174050E9469300E947D310E94CA
:204D200009330E2E0E94422CA0914F05B09150050E941B33E021C9F0E0E00E947131E091B1
:204D40005505F0915605309759F4AFE4B5E00E94D831E1E0F0E0E0935505F093560505C035
:204D6000E0E0E0935505E09356050E947D310E94EE310E94DF2EE02121F00E94AD2E0E94E7
:204D800069300E94E9300E94E6310E94DF2EE02111F00E9414310E9459310E941B330E2E16
:204DA000A0915305B09154050E94DF2EE02131F0E0917505F09176050E94CC300E9459314E
:204DC0000E94DE310E94DF2E0E220E943D2C0E9428310E9409330E220E94422CA0914F059A
:204DE000B09150050E9409330E220E947D310E9409330E220E94E9300E940933E02141F1E5
:204E00000E940630E0E00E940831E0E0E0934F05E0935005E0934D05E0934E050E94C831AA
:204E20000E94C230119741F40E945F2C0E940D04E130D1F30E94F6310E94C230129741F411
:204E40000E945F2C0E941004E130D1F30E94F631C3C2E930A0E0FA0711F00C94C7270E9481
:204E6000C230119771F50E947D310E941B330E2E0E948131E02121F00E9418300E94223072
:204E80000E94E9300E94FD310E94053221F00E9418300E942A300E947D310E94FD310E94F5
:204EA0000B3221F00E94692C0E9422300E94E9300E94FD310E94113221F00E94692C0E941F
:204EC0002A300E94C2301297A1F50E947D310E941B330E2E0E948D31E02121F00E941830CD
:204EE0000E9422300E94E9300E9417320E94053221F00E9418300E942A300E947D310E9456
:204F000017320E940B3221F00E94692C0E9422300E94E9300E9417320E94113221F00E94EF
:204F2000692C0E942A300E94C230129711F40E94191B0E942D3051F11A981B98C4980E9424
:204F40001B31E0E00E947131A1E5B5E00E94D831E2E0F0E0E0934B05F0934C050E94C2307E
:204F6000119741F40E945F2C0E940D04E130D1F30E941B320E94C230129741F40E945F2C11
:204F80000E941004E130D1F30E941B3225C2EA30A0E0FA0711F00C9444280E94C2300E94D2
:204FA000DF2E0E94223269F10E942D320E949F2C0E94C5040E943232AE17BF0724F40E9470
:204FC00038320E94CF300E943232EA17FB0721F40E9438320E943F320E9446320E94E42EBB
:204FE00021F0EBE0F0E00E944F320E944632EAE0F0E00E940F33E02121F0EEE0F0E00E94F8
:205000004F320E94C230129711F40E94191B0E94C230E2E0F0E00E9409330E94223299F173
:205020000E942D320E94AE2C0E94C5040E94BD3031970E949631AE17BF0724F40E94383219
:205040000E94CF300E94BD3031970E949631EA17FB0721F40E9438320E943F320E94543290
:205060000E94E42E21F0ECE0F0E00E944F320E945432EAE0F0E00E940F33E02121F0EEE026
:20508000F0E00E944F32A8C1EB30A0E0FA07A9F50E94C230129711F40E94191B0E9444304C
:2050A000159724F4E7E0F0E00E94CC300E944C30159724F4E0E9F1E00E946E310E94583010
:2050C000D9F00E94A5310E94F8300E945A3241F40E945F2C0E940D04E130D1F30E94623277
:2050E0000E94C230129741F40E945F2C0E941004E130D1F30E9462326FC1EC30A0E0FA0783
:20510000A9F50E94C230129711F40E94191B0E944430159724F4E7E0F0E00E94CC300E9428
:205120004C30159724F4E1E9F1E00E946E310E945830D9F00E94A5310E94F8300E945A32F0
:2051400041F40E945F2C0E940D04E130D1F30E9462320E94C230129741F40E945F2C0E94EE
:205160001004E130D1F30E94623236C1ED30A0E0FA0761F50E94C230129711F40E94191B0D
:205180000E944C30159724F4E2E9F1E00E946E310E944C301597C9F40E94C8310E945A3200
:2051A00041F40E945F2C0E940D04E130D1F30E9465320E94C230129741F40E945F2C0E948B
:2051C0001004E130D1F30E94653206C1EE30A0E0FA0799F50E94C230129711F40E94191BA1
:2051E0000E944430159724F4E3E0F0E00E94CC300E944430159701F50E94F8300E949B31B4
:205200000E94C230119751F40E945F2C0E940D04E130D1F3EFE0F0E00E944F320E94C23002
:20522000129751F40E945F2C0E941004E130D1F3EFE0F0E00E944F32CFC0EF30A0E0FA07D7
:2052400031F50E94C230129711F40E94191B0E94A5310E94B731D4F40E94C8310E94C23017
:20526000119741F40E945F2C0E940D04E130D1F30E9465320E94C230129741F40E945F2CC4
:205280000E941004E130D1F30E946532A5C0E031A0E0FA0711F00C94C829E0913105F09199
:2052A00032050E9496310E9409330E2E0E9468320E94572FE02111F10E94B1301F980E94F1
:2052C0006C300E946A3384F4E2E0F0E0E0935B05F0935C050E947A300E94AC10E0E0E09355
:2052E0004905E0934A0504C0E1E1F0E00E944F32E1E0F0E0E0935F05F09360050E945432AD
:205300000E94F62F0E9468320E94DF2EE02179F01F980E94B130E1E1F0E00E944F320E94E0
:20532000A430E2E0F0E0E0935F05F09360050E94F12F0E94B7300E946C300E94F62F0E9456
:2053400068320E94E33051F00E94A4300E94AB301F98C6980E944D2F0E94EA2E0E94F12F1B
:205360000E94B7300E946C300E94572F0E220E9468320E94DF2EE02151F00E94A4300E94C9
:20538000AB301E9AC6980E944D2F0E94EA2E24C0E131A0E0FA0701F50E944430159724F4FD
:2053A0000E94C7300E9449300E944C30159724F40E94692C0E9496300E94583069F00E9493
:2053C0000630E0E0E0935D05E0935E05CC24DD24E0934905E0934A0593C886C8FFCFA99107
:2053E000B991EE27FF276D91662311F03196FBCF0895AA27BB27E991F9910590002011F005
:205400001196FBCFFD0108955F9BFECFECB108955D9BFECFE881ECB921960895EA81EA9370
:20542000F7DFA881B9810E94D8312396089526970E94733310E0AC85BD850E94F92CEA8990
:20544000FB893196EA8BFB8B3197E4912E2FE03011F40C94422BE12FE03039F4253211F4A1
:2054600011E002C00E946D320CC1E130A9F4253219F40E946D3204C112E040E000E02D3202
:2054800011F401E0FEC02B3211F44BE2FAC0203211F440E2F6C002C0E23039F450E013E0CC
:2054A000203311F40068EDC004C0E33011F00C94412B203310F02A3308F007C0AAE05A9FA9
:2054C000502DE22FE0535E0FDCC0E22FE33649F40E947632E889F989A481AA930E947C32AC
:2054E000CFC0E33741F40E9476320E9484320E94EF291E2F0AC0E03761F40E9476320E9403
:2055000084320E94F9291E2F086002600F7730E035C0E43611F0E93611F4046002C0E537EE
:2055200031F4ECE8F0E0EE83FF8315E00DC0E83511F4086004C0E83711F00C94402BE6E9A5
:20554000F0E0EE83FF8314E002FF14C00E9476320E948C32AB85AA233AF4EA85FB850E9459
:20556000F632EA87FB874DE2403011F01F5F01C00B7F04C00E9476320E948C3200FD11C06B
:20558000151778F407FF08C002FF04C00B7F242F115001C020E301C020E20E946D32515039
:2055A000EFCF312F01FF17C03030A1F003FF06C0EE81FF812591EE83FF8305C0AE81BF8171
:2055C0002D91AE83BF830E946D32503009F051503150EACF4BC020E3EE81FF810E943533FE
:2055E000E887F987EE81FF813296EE83FF83E885F985AA85BB85AE17BF0750F02F5FA88532
:20560000B985EA85FB85EA1BFB0BEA87FB87EFCF2A3328F003FF02C0295F01C0295D04FD98
:205620001AC0213320F4A885B985119709F409C0531710F000FF01C013C020E207FF0BC07F
:2056400020E3006102FF07C00B7F4A930E947C32503009F051500E946D32503009F05150F2
:205660003150A885B985129708F0B5CF00FF08C0503031F05150E0E2EA930E947C32F8CFBA
:2056800010E0DDCEAC85BD850E9427330E947A3364960895FF92F82E26971A930A93DE017D
:2056A00014960E94F2328D01E0E0EC83ED83EE83EF83DE0118960E94F2320E9427330E9479
:2056C000EA2CEEE0FAE2FA93EA93FE013896FA93EA93ADDE198108812896FF9008950E94EF
:2056E0009932E881EA930E94CD32E0E0EA930E94B232EA830E94A832EA810895E295EF70CE
:20570000E695E6950895EAE5EA930E94082AE5EAEA930C94082AEA930E94082AEC81EA937D
:205720000E94082AEA81EA930C94082A0E94042A0E94042A0C94042A0E942B33EF5FFF4FD1
:205740006F4F7F4F0E9430330895ED91FD913196FE93EE93319708950E94FF32A03DE9E553
:20576000BE07E3E08E07E0E09E070895E0E0E0938B05E0938C050895A8E0B0E00E94413378
:205780000895E0E0E0938905E0938A050895A6E0B0E00E9441330895EE81FF81FA93EA934A
:2057A00008950E94082AE2E8EA930C94082AFA93EA93E0E0F0E0FA93EA930895E0E9F0E085
:2057C000FA93EA930895FA93EA93E0E1F0E0FA93EA930895E0E3F0E0FA93EA930895AC8575
:2057E000BD85E1E0F0E00E9409330E2E0895ABE0B5E0EE0FFF1FAE0FBF1F0895E0EAF0E012
:20580000FA93EA93EA85FB85FA93EA93EA85FB85FA93EA930C94A804FA93EA93EA85FB8547
:205820000895FA93EA930C94A804AA85BB85E1E0F0E00E940933E0210895AA85BB85E0E0CA
:20584000F0E00E940933E0210895AC85BD85E2E0F0E00E9409330E2E0895DF01EFEFF0E0B2
:205860000E9415330895AAE0B0E00E9441330895ACE0B0E00E9441330895A0E0B0E00E9453
:2058800041330895A2E0B0E00E9441330895A4E0B0E00E9441330895A8E0B0E0E0E0F0E0C3
:2058A0000E9451330895A6E0B0E0E0E0F0E00E9451330895E3E0F0E00E9451330895E6E0A0
:2058C000F5E0A1E00E943933E7E7F0E0FA93EA930895E0E0F0E0FA93EA930895E0E4F0E054
:2058E000FA93EA930C943604E0E8F0E0FA93EA930C943604E0933105F0933205EACF0E948A
:205900003604E0933305F093340564CFA0E0B0E00E945133E0E2F0E0FA93EA934FCF0E9421
:205920003604A2E0B0E00E945133E0E3F0E03FCF0E943604A4E0B0E00E9451330895E0E1E0
:20594000F0E0FA93EA930895E0E7F0E0FA93EA930895E0E5F0E0FA93EA930895E0E6F0E0C0
:20596000FA93EA930895E3E0F5E0A1E00E943933E9E7F0E0FA93EA930895E0EAF0E0FA93EB
:20598000EA93E0913D05F0913E05FA93EA93E0913F05F091400545CFE0913D05F0913E0503
:2059A000FA93EA93E0913F05F09140053ACFE1E0F5E0A1E00E943933E3E7F0E0FA93EA9390
:2059C0000895E029E0930205F2CFE0E2F0E0FA93EA930895FA93EA931A930A930895E1E0FB
:2059E000F0E0FA93EA930C94EC04ED93FC93F801FECEE0E0F0E0ED93FC930895FA93EA9323
:205A0000CBCFE0936505F0936605EBE6F5E00895A1E1B0E0A083B183EDE6F5E00895ABE1A4
:205A2000B0E0A083B183EFE6F5E0A6E9B1E0A083B183E3E7F5E0A1E1B0E00895A0E1B0E0FF
:205A4000A083B1830895EDE6F5E0ACE1B0E0A083B183EFE6F5E0A0E9B1E0A083B183E3E751
:205A6000F5E00895E7E7F5E0A0E0B0E00895A8E1B0E0A083B183EFE6F5E0A6E9B1E008958D
:205A8000A083B183E3E7F5E0A2E1B0E0A083B183E9CFAFE1B0E0A083B183EFE6F5E0A6E93E
:205AA000B1E00895A083B183DDCFA083B183E3E7F5E0A1E1B0E00895AFE1B0E0A083B18399
:205AC000EFE6F5E0A9E9B1E00895A9E1B0E0A083B183EFE6F5E0A9E9B1E00895A1E2B0E06E
:205AE000A083B183EFE6F5E0A9E9B1E00895A0E2B0E0A083B183EFE6F5E0A9E9B1E0C0CF20
:205B0000EDE6F5E0A6E1B0E0A083B183EFE6F5E0A0E9B1E0A083B183E3E7F5E00895ADE18A
:205B2000B0E0A083B183EFE6F5E00895A9E9B1E0A7CFA0E9B1E0A083B183E3E7F5E0AFE0FF
:205B4000B0E00895A8E1B0E0A083B183EFE6F5E0A0E9B1E0AACFA0E2B0E0A083B183EFE62D
:205B6000F5E00895A1E2B0E0A083B183EFE6F5E00895A6E9B1E084CFAEE1B0E0A083B18319
:205B8000EFE6F5E0D6CFA2E1B0E0A083B183EDE6F5E0A2E2B0E0A083B183EFE6F5E0A6E900
:205BA000B1E0A083B183E3E7F5E00895ACE9B1E067CFEDE6F5E0AEE1B0E0A083B183EFE672
:205BC000F5E0A6E9B1E071CFE0E0E0936505E0936605EBE6F5E0A0E0B0E0A083B183EDE635
:205BE000F5E0A083B183EFE6F5E0A083B183E3E7F5E058CFABE1B0E0A083B183EFE6F5E095
:205C00000895A9E1B0E0A083B183EFE6F5E0A0E9B1E0A083B183E3E7F5E0A3E1B0E008950B
:205C2000A9E1B0E0A083B183EFE6F5E0A0E9B1E03CCFACE1B0E0A083B183EFE6F5E0089569
:205C4000AAE1B0E0A083B183EFE6F5E00895A6E1B0E0A083B183EFE6F5E0A3E9B1E00895B9
:205C6000A6E9B1E022CFAEE1B0E0A083B183EFE6F5E00895A9E1B0E0A083B183EFE6F5E03B
:205C8000A3E9B1E00895A4E1B0E0A083B183EFE6F5E0A0E9B1E00895A083B183EFE6F5E07C
:205CA0000895A2E1B0E0A083B183EDE6F5E0A4E2B0E0F2CFA6E9B1E0A083B183E3E7F5E048
:205CC0000895A3E2B0E0E8CFA083B183E3E7F5E0AFE0B0E00895AFE1B0E0DECFA9E1B0E0C2
:205CE000DBCFEDE6F5E01BCFA2E1B0E0A083B183EDE6F5E0F0CFEDE6F5E0A7E1B0E0CCCF3C
:205D0000A3E9B1E0A083B183E3E7F5E0A3E1B0E00895AFE0B0E0A083B183EDE6F5E0089504
:205D2000A083B183E3E7F5E0A3E1B0E00895A8E1B0E0B2CFA2E1B0E0A083B183EDE6F5E010
:205D4000C0CFA0E9B1E0A083B183E3E7F5E00895E0916505F09166050895E0916D05F0913F
:205D60006E050895E0916F05F091700508953196E0937105F0937205E0917105F091720512
:205D80003196E0937505F09376050895E0916B05F0916C050895A0918105B0918205089528
:205DA000E2E0F0E00E9409330E2EA0918305B09184050895E0936F05F0937005D3CFE1E0D5
:205DC000F0E00E9409330895EAE0F0E00E940933E0210895E0E4F0E0FA93EA930C94C5045B
:205DE000FA93EA93F2CDE0EAF0E0FA93EA93E0914105F0914205FA93EA93E0914305F09173
:205E000044050FCDFA93EA93E0914105F0914205FA93EA93E0914305F091440502CDE8EEA2
:205E2000F3E0FA93EA930C94E6320E940D04A1E00E94043308950E941004A1E00E94043313
:205E400008950E941904A1E00E9404330895E5E0F5E0A1E00E943933E1E7F0E0FA93EA9324
:205E60000895E4E0F5E0A1E00E943933E5E7F0E0FA93EA9308950E942E04A1E00E940433EC
:205E800008950E942904A1E00E94043308950E942304A1E00E9404330895E0E0F0E087CCFC
:205EA000EA230E2EA0916105B09162050895E0E0F0E00E9409330895A0916105B091620573
:205EC000E2E0F0E00E9409330E2EA0E01E99A1E00895E0E0E0936105E0936205E4E6F0E0B4
:205EE000FA93EA930C94E632E0E0E0932105E0932205E0932305E09324050895E0E8F0E081
:205F0000FA93EA930C94C504E0E0E0931105E0931205E0931305E09314050895A230E0E0F5
:205F2000BE07E0E08E07E0E09E070895E0933505F09336050895E0E0E0931905E0931A055A
:205F4000E0931B05E0931C050895E0933905F0933A050895E029E0930005E09107050895D2
:205F6000E0930005E09362000895E0E0E0931505E0931605E0931705E09318050895E0932D
:205F80003705F09338050895E09300050895E0E0E0931D05E0931E05E0931F05E093200539
:205FA0000895E0933B05F0933C050895A0918505B09186050895A0918705B09188050895E4
:205FC0000E22A0E09799A1E0E0E00E9404330E22E091000593DBE170A0E00E9404330E22D9
:205FE0000895A0913105B09132050895E0E0F0E00E9421330E220895E0910D05F0910E051E
:20600000A0E0B0E00E940F33E0210895E0E0E0933505E0933605E0933905E0933A05E093FD
:206020003705E0933805E0933B05E0933C050895E1E0F0E0FA93EA930895A0913705B0918A
:20604000380508950E94EC1C9ACFA0913B05B0913C0508950E94BD1DA4CFEFDFE5E0F0E071
:206060000E9409330E2EF1DFE5E0F0E00E940933E0210895E0E0E0933705E0933805E09393
:206080003B05E0933C050895A0913505B091360508950E94A01B4ACFA0913905B0913A0586
:2060A0000895E8E0F0E0FA93EA930E94461C4DCFEBDFE5E0F0E00E9409330E2EEDDFE5E077
:2060C000F0E00E940933E021089542DEFA93EA930895FA93EA93B6CFA0913305B09134053B
:2060E0000895E0910F05F0911005A0E0B0E00E940F330895E2E0F0E0FA93EA930895E091AD
:206100006705F0916805FA93EA930895E0EAF0E0FA93EA930895E0E5F0E049CBE0E4F0E000
:2061200046CBE9EFF1E0FA93EA9308950E94461C0CCFE3E0F0E0EE83FF830895E0EDF7E058
:20614000FA93EA930C94E632E1E0F0E0E0935B05F0935C050895E0E0E0935F05E093600529
:206160000895E0E0E0935105E09352050895E0E0F0E00E9421330E2E0895E0913305F09109
:2061800034050895A0915B05B0915C050895E9E0F0E0FA93EA930895FA93EA937ACFE0E006
:2061A000E0935905E0935A050895E1E0F0E0E0934905F0934A0508956FDFE5E0F0E00E9459
:2061C0001B330E2EDFCFE2E0F0E00E940933E02108953BDFE5E0F0E008950E2E5DDFE5E0F0
:2061E000F0E00E940933089557DFE5E0F0E00895E0E0E0933505E09336050895E0E0E09301
:206200003905E0933A05E0933B05E0933C050895E0934705E09348050895E2E0F0E0E09369
:206220004905F0934A050895E0916905F0916A05FA93EA930FCFE0E0E0933B05E0933C05C3
:206240000895E3E0F0E0E0934905F0934A050895A0914705B09148050895A7E4B5E0ED9198
:20626000FD913196FE93EE930895E4E0F0E0E0934905F0934A050895E0E0E0934B05E09360
:206280004C05E5E0F0E0E0934905F0934A050895FBDEE5E0F0E00E941B330E2EA0914B05CD
:2062A000B0914C0504CE0E226DDF89CD0E226ADF8ACFEADEE5E0F0E008950E2EA0914B051F
:2062C000B0914C0508950E941B33F7CF0E941B330E2EA0915905B0915A050895FA93EA93D7
:2062E00025CFE0933705E09338050895E6E0F0E0E0934905F0934A0508959FDEE5E0F0E0D6
:206300000895E0913105F09132053197A0915105B09152050E940F3308952FDF3197A09112
:206320005105B09152050E940F330895A0915105B09152050895E0E0E0932505E093260537
:20634000E0932705E09328050895E0910005E06107CEE7E0F0E0E0934905F0934A0508950E
:20636000E8E0F0E0E0934905F0934A050895E0916305F0916405A0912505B09126058091BA
:206380002705909128050E94FA320E946E330895E0910005EF7EE4CDA0914D05B0914E052A
:2063A0000E941B330E22A0915305B09154057FCDED91FD913196FE93EE9308950E940933EE
:2063C0000E2EA0915305B091540508950E941B330E2EA0915705B091580508950E941B33DD
:2063E0000E2EA0915505B09156050895E9E0F0E0E0934905F0934A0508950E941B330E2EA8
:20640000E0913105F0913205089532978FDF0E941B33E0210895319789DF0E940933E021AC
:206420000895329783DF0E941533E02108950E941B330E2EA2CEEAE0F0E0E0934905F09392
:206440004A0508950E2EA0914905B0914A05E0E0F0E00E940F33E0210895E0915105F091AB
:206460005205A5C9E0913105F091320531975ECFE5E0F0E0E0934905F0934A050895E1E07D
:20648000F0E0E0935905F0935A050895E0913105F09132054BDF0E9409330E2EA2CDE09357
:2064A0004905F0934A05089568DE40DF0E9409330E2E12CEE0E0E0933905E0933A0562DE5D
:2064C00011970895EDE0F0E0EACFE0E1F0E0E7CFA0915F05B091600508952A93ED85FE8550
:2064E000FA93EA93E989FA8909950895E889F9893497E88BF98B0895ED85FE85FA93EA9311
:20650000E989FA8909950895A889B98914960E942733EE83FF8340C9A889B98914960E9477
:206520002733EA87FB87089590989198889A899815C089988898EE270000819B0895809BDE
:20654000089504D0899A02D0889AE1E06BE107C0899A889A03D08898F9DF899865E36A9567
:20656000F1F7089578E08898F1DF809BFECFEEDF889481990894889AF1DFEE1F7A9599F729
:206580007991772311F4899801C0899ADFDF8898E5DF889ADBDF8998D9CFE99178E0EE0F37
:2065A00010F4899801C0899AD9DF8898CFDF809BFECFCCDF889A7A9591F78998C7DF889819
:2065C000CDDFE1E08199EE27889AC0CFE991F991309639F080EA9FE00197F1F7A89531970D
:2065E000C9F708950024AF0DB01D0895F195E195F04008956F2F660F660B762F08958B2FAB
:20660000880F880B982F0895EA17E1E009F0EE270895EA17FB07E1E009F0EE270895EA170F
:20662000FB07E1E009F4EE270895AE17BF07E1E00CF4EE270895AE17BF07E1E00CF0EE278D
:206640000895EA17FB07E1E00CF0EE270895ED91FC9111970895ED91FD916D917D91089526
:206660007E936E93FE93EE9308950590F491E02D0895BB27EA0FFB1F02900A921197E1F7F2
:206680000895119602D0FE2F1197E199FECFFF93FFB7F894AEBBBFBBE09AEDB3FFBFFF91A9
:2066A000089507D01196EF93EF2F03D0EF9111970895E19B02C0A895FCCF9FB7F894AEBBF6
:2066C000BFBBE09A8DB3E81719F0EDBBE29AE19A9FBF089500240A160B060895EA17FB07EF
:2066E0006807790708955A934A933A932A931A930A9308955D814C813B812A81198108819E
:026700000895FA
:00000001FF
