:200000000C94DA030C9400000C9400000C9400000C9400000C9400000C9400000C94000003
:200020000C9400000C9400000C9400000C9400000C9400000C9400000C9400000C940000C0
:200040000C9453040C9400000C9400000C9400000C9400000C9400000C9400000C94000049
:200060000C9400000C9400000C9400000C9400000C9400000C9400000C9400000C94000080
:200080000C9400000C9400000C9400001027E80364000A00010000100001100001000000CD
:2000A000202020202020202020202020202020202020202020202020202020202020202040
:2000C00020202020202020202020202020202020005A616369736B206E6965207A6D69658A
:2000E000727A6F6E7920752057796B6F6E61776379004F73207A616369736B7520626C690A
:200100007A656A20737A616679004F73207A616369736B752064616C656A206F6420737A4D
:20012000616679004369736E69656E6965207A61206D616C65202D206D6E69656A737A655C
:20014000206E697A2036206261720038362D303137300038362D313034330038362D3136BB
:2001600037350038362D323039380038372D303137300038372D313034330038372D3136DA
:2001800037350038372D323039380038362D303139320038362D313035340038362D3136B6
:2001A00037360038362D323133320038372D303139320038372D313035340038372D31369E
:2001C00037360038372D323133320038362D303139330038362D313231360038362D31387D
:2001E00033320038362D323137340038372D303139330038372D313231360038372D31385D
:2002000033320038372D323137340038362D303139340038362D313334310038362D31383E
:2002200033330038362D323138300038372D303139340038372D313334310038372D31381E
:2002400033330038372D323138300038362D303636330038362D313334390038362D3138F7
:2002600033340038362D323230340038372D303636330038372D313334390038372D3138D7
:2002800033340038372D323230340038362D303736380038362D313335370038362D3138B4
:2002A00034380038362D323231320038372D303736380038372D313335370038372D31388E
:2002C00034380038372D323231320038362D303830300038362D313336330038362D31397F
:2002E00030340038362D323234310038372D303830300038372D313336330038372D313963
:2003000030340038372D323234310038362D303831310038362D313532330038362D313944
:2003200032390038362D323236310038372D303831310038372D313532330038372D313919
:2003400032390038372D323236310038362D303831340038362D313533300038362D3139FA
:2003600033360038362D323238350038372D303831340038372D313533300038372D3139D4
:2003800033360038372D323238350038362D303831350038362D313535310038362D3139B2
:2003A00034310038362D323238360038372D303831350038372D313535310038372D313993
:2003C00034310038372D323238360038362D303831360038362D313535320038362D32307B
:2003E00030370038362D323239320038372D303831360038372D313535320038372D32305A
:2004000030370038372D323239320038362D303831370038362D313630320038362D32303E
:2004200031370038362D323338340038372D303831370038372D313630320038372D323019
:2004400031370038372D323338340038362D303834370038362D313632300038362D3230F8
:2004600031390038362D323338350038372D303834370038372D313632300038372D3230D3
:2004800031390038372D323338350038362D303835340038362D313632320038362D3230B5
:2004A00032380038362D323433370038372D303835340038372D313632320038372D323095
:2004C00032380038372D323433370038362D303836320038362D313632350038362D323075
:2004E00035320038362D323439320038372D303836320038372D313632350038372D323055
:2005000035320038372D323439320038362D303933350038362D313634380038362D323030
:2005200038320038362D323530300038372D303933350038372D313634380038372D323015
:2005400038320038372D323530300038362D313031390038362D313634390038362D3230FC
:2005600038330038362D323538350038372D313031390038372D313634390038372D3230CC
:2005800038330038372D323632340038362D313032370038362D313636390038362D3230B3
:2005A00038370038362D323632340038372D313032370038372D313636390038372D32308D
:2005C00038370038372D32353835004E69652077637A7974616E6F207A616369736B750067
:2005E0004E616369736E696A20535441525420616279207779706F7A79636A6F6E6F7761EF
:2006000063206E617065647900506F7A79636A6F6E756A6520756B6C616479206C696E69C0
:200620006F77652058595A00537465726F776E696B2031202D207779706F7A79636A6F6E54
:200640006F77616C656D00537465726F776E696B2032202D207779706F7A79636A6F6E6FB5
:2006600077616C656D00537465726F776E696B2033202D207779706F7A79636A6F6E6F778C
:20068000616C656D00537465726F776E696B2034202D207779706F7A79636A6F6E6F776181
:2006A0006C656D00416C61726D20537465726F776E696B203400416C61726D20537465722A
:2006C0006F776E696B203300416C61726D20537465726F776E696B203100416C61726D206E
:2006E000537465726F776E696B2032005779706F7A79636A6F6E6F77616E6F20756B6C61A5
:200700006479206C696E696F77652058595A0050727A656369617A656E6961204C4546538B
:2007200033325F310050727A656369617A656E6961204C45465333325F320050727A65639B
:2007400069617A656E6961204C4546535F58595F320050727A656369617A656E6961204C7C
:200760004546535F58595F310057796D69656E20737A637A6F746B65207065647A656C6BD6
:200780006F77610057796D69656E206B72617A656B2073636965726E790001002D4E414EC9
:2007A00000494E460000010002009E00010095059A070000F894EE27ECBBF1E0F5BFE5BF0E
:2007C000E0936C00F8E1F1BDE1BD8DE0A2E0BB27ED938A95E9F780E090E1A0E0B1E0ED9363
:2007E0000197E9F7E6EAF7E085919591009761F0A591B59105901590BF01F00105900D921B
:200800000197E1F7FB01F0CF8BBFEFEFEDBFE0E1EEBFC0E0D5E00C94DB220E94492D23C07E
:200820000E94492DE6951FC00E94492DE695E6951AC00E94492DE695E695E69514C00E945F
:20084000492DE29510C00E94492DE295EF70E6950AC00E94492D0E94582D05C00E94492D8C
:20086000EE1FE0E0EE1FE170239608951A930A9300E010E00E945D2DE4E0EA930E94E22BC1
:20088000E3E80E94652DE1E0EA930E94E22B0E94702D0E94702D0E94702D0E2F1127F80141
:2008A000198108818CC06A937A938A939A93AA93BA93EA93FA93EFB7EA93A1E1B5E00E9405
:2008C000762DA5E1B5E00E94762DA9E1B5E00E94762DADE1B5E00E94762DA1E2B5E00E948F
:2008E000762DA5E2B5E00E94762DA9E2B5E00E94762D1B9B26C0AFE8B5E00E947F2DADE8E4
:20090000B5E00E947F2DA0918F05B09190050E94862D41F40E94902D0E94962D31960E94A2
:20092000E3353197A0918D05B0918E050E94862D41F40E949B2D0E94A12D31960E94E3355B
:200940003197E991EFBFF991E991B991A991999189917991699118951A930A9300E010E010
:200960000E94A62D0E94D32B8F010D5F1F4F0E945D2D0A930E94E22BE2E80E94652D0E94E0
:20098000A62D80E00E94242D229619810881289608950E945D2DE5E0EA930E94AB2DEA81A8
:2009A000EA930E94E22BE881EA930E94E22BE0E0EA930E94E22BEC81EA930E94E22B269635
:2009C00008950E94962D0E94B12D0E94B82DE1DF0E94A12D0E94BD2D0E94C42DDADF089569
:2009E00024970E94053600E010E0EE85FF85FA93EA930E94D32B8F010D5F1F4FAC85BD8511
:200A0000119759F420E030E040E550E0E0E5F0E0E887F987E0E0EE83EF83AC85BD85129739
:200A200059F420E030E040E250E0E0E4F0E0E887F987E0E0EE83EF830E945D2D0A930E9476
:200A4000AB2D2A930E94E22B4A930E94E22BEE85FF85FA93EA9380E00E94242D22960E9418
:200A6000C92DEC85FD850E94D12D0E94B935A0E0B0E00E949335E02151F00E94D82DE1ED2C
:200A8000F0E00E94E62D0E94E62D0E94EB2D0E94C92D0E94EF2D51F00E94D82DE2EFF0E083
:200AA0000E94E62D0E94E62D0E94EB2D0E94C92D0E94F72D51F00E94D82DEAE0F1E00E948F
:200AC000E62D0E94E62D0E94EB2D0E94FF2D0E94EF2D51F00E94D82DEAE0F1E00E94E62DD0
:200AE0000E94E62D0E94EB2D0E94FF2D0E94F72D51F00E94D82DE2EFF0E00E94E62D0E9413
:200B0000E62D0E94EB2D0E940C36609608950E94962D0E94072E0E2E0E94A12D0E94072ED2
:200B20000E2A0E940D2E0E94072E0E2A0E94122E0E94072E0E2A0E94172E0E94072E0E2AAA
:200B40000E941C2E0E94072E0E2A0E94212E0E94072EE029F1F00E94262E0E94902D0E94F1
:200B60002D2E0E949B2DAAE0B0E0E5E0F0E00E94E335ACE0B0E00E94E335A0E0B0E00E94BF
:200B8000342EA2E0B0E00E94342EA4E0B0E00E94342E08950E94392E40DEA0E00E948E351C
:200BA000EF930E94392E3CDEA0E00E948E35AF91EA2329F00E94432E0E94482E6F010E9408
:200BC000432E0E944E2E0E94542E0E94C42D0E94592E0E94482E0E94602E0E94692E0E9483
:200BE000722E0E94792E0E947E2E40DEACE0B0E00E94E335E0E2F0E00E94BD2D37DEAAE00D
:200C0000B0E00E94E3350E94432E0E94B82D2EDEA8E0B0E00E94E3350E94792E0E94C42D36
:200C200025DEA6E0B0E00E94E3350E94C42D0E94832E1CDEE0938905F0938A050E94C42D5B
:200C40000E94882E13DEE0938B05F0938C055FDF08951A930A9301E010E0002E012AA9F448
:200C60000E948D2EF6DDE03029F401E010E0E0EAF0E006C000E010E00E94972EE4E2F1E018
:200C8000FA93EA930E94A62EE8CF0991199108951A930A930E94B12EC0DDE1700E2EE091D6
:200CA0000205EE7F0E94BB2EBBDDE170EE0F0E2EE0910205ED7F0E94BB2EB6DDE170EE0FC3
:200CC000EE0F0E2EE0910205EB7F0E94BB2EB1DDE170EE0FEE0FEE0F0E2EE0910205E77F7E
:200CE0000E94BB2EACDDE170E295E07F0E2EE0910205EF7E0E94BB2EA6DDE170E295E07F63
:200D0000EE0F0E2EE0910205EF7D0E94BB2EA1DDE170E295E07FEE0FEE0F0E2EE0910205D8
:200D2000EF7B0E94BB2E9ADDE170E795E0E0E7950E2EE0910205EF77E029E09302050E94FF
:200D4000BF2E0E944E2E8F01A0910205A13059F4F8010E94D12D0E94C42EEBE4F1E00E9433
:200D6000C92E0E94CE2EA0910205A23071F4F8010E94D12DE2E0F0E0ED93FC93E3E5F1E09C
:200D80000E94C92E0E94432E2BDEA0910205A33071F4F8010E94D12DE3E0F0E0ED93FC93F3
:200DA000EBE5F1E00E94C92E0E94432E19DEA0910205A43071F4F8010E94D12DE4E0F0E051
:200DC000ED93FC93E3E6F1E00E94C92E0E94432E07DEA0910205A53071F4F8010E94D12DCE
:200DE000E5E0F0E0ED93FC93EBE6F1E00E94C92E0E94432EF5DDA0910205A63069F4F801CB
:200E00000E94D12DE6E0F0E0ED93FC93E3E7F1E00E94C92E0E94CE2EA0910205A73069F44F
:200E2000F8010E94D12DE7E0F0E0ED93FC93EBE7F1E00E94C92E0E94CE2EA0910205A83089
:200E400069F4F8010E94D12DE8E0F0E0ED93FC93E3E8F1E00E94C92E0E94CE2EA0910205EA
:200E6000A93071F4F8010E94D12DE9E0F0E0ED93FC93EBE8F1E00E94C92E0E94432EB0DD16
:200E8000A0910205AA3071F4F8010E94D12DEAE0F0E0ED93FC93E3E9F1E00E94C92E0E94C1
:200EA000432E9EDDA0910205AB3071F4F8010E94D12DEBE0F0E0ED93FC93EBE9F1E00E9444
:200EC000C92E0E94432E8CDDA0910205AC3069F4F8010E94D12DECE0F0E0ED93FC93E3EA1D
:200EE000F1E00E94C92E0E94CE2EA0910205AD3069F4F8010E94D12DEDE0F0E0ED93FC9333
:200F0000EBEAF1E00E94C92E0E94CE2EA0910205AE3069F4F8010E94D12DEEE0F0E0ED93CA
:200F2000FC93E3EBF1E00E94C92E0E94CE2EA0910205AF3069F4F8010E94D12DEFE0F0E0A0
:200F4000ED93FC93EBEBF1E00E94C92E0E94CE2EA0910205A03171F4F8010E94D12DE0E1DC
:200F6000F0E0ED93FC93E3ECF1E00E94C92E0E94432E36DDA0910205A13171F4F8010E9429
:200F8000D12DE1E1F0E0ED93FC93EBECF1E00E94C92E0E94432E24DDA0910205A23171F4ED
:200FA000F8010E94D12DE2E1F0E0ED93FC93E3EDF1E00E94C92E0E94432E12DDA091020582
:200FC000A33171F4F8010E94D12DE3E1F0E0ED93FC93EBEDF1E00E94C92E0E94432E00DD6A
:200FE000A0910205A43171F4F8010E94D12DE4E1F0E0ED93FC93E3EEF1E00E94C92E0E9465
:20100000432EEEDCA0910205A53169F4F8010E94D12DE5E1F0E0ED93FC93EBEEF1E00E94A0
:20102000C92E0E94CE2EA0910205A63169F4F8010E94D12DE6E1F0E0ED93FC93E3EFF1E0CD
:201040000E94C92E0E94CE2EA0910205A73169F4F8010E94D12DE7E1F0E0ED93FC93EBEFD2
:20106000F1E00E94C92E0E94CE2EA0910205A83169F4F8010E94D12DE8E1F0E0ED93FC93B9
:20108000E3E0F2E00E94C92E0E94CE2EA0910205A93171F4F8010E94D12DE9E1F0E0ED935A
:2010A000FC93EBE0F2E00E94C92E0E94432E98DCA0910205AA3171F4F8010E94D12DEAE108
:2010C000F0E0ED93FC93E3E1F2E00E94C92E0E94432E86DCA0910205AB3171F4F8010E9479
:2010E000D12DEBE1F0E0ED93FC93EBE1F2E00E94C92E0E94432E74DCA0910205AC3169F43B
:20110000F8010E94D12DECE1F0E0ED93FC93E3E2F2E00E94C92E0E94CE2EA0910205AD31A6
:2011200069F4F8010E94D12DEDE1F0E0ED93FC93EBE2F2E00E94C92E0E94CE2EA0910205FE
:20114000AE3169F4F8010E94D12DEEE1F0E0ED93FC93E3E3F2E00E94C92E0E94CE2EA0910C
:201160000205AF3169F4F8010E94D12DEFE1F0E0ED93FC93EBE3F2E00E94C92E0E94CE2E0C
:20118000A0910205A03271F4F8010E94D12DE0E2F0E0ED93FC93E3E4F2E00E94C92E0E94D2
:2011A000432E1EDCA0910205A13269F4F8010E94D12DE1E2F0E0ED93FC93EBE4F2E00E94DE
:2011C000C92E0E94CE2EA0910205A23271F4F8010E94D12DE2E2F0E0ED93FC93E3E5F2E033
:2011E0000E94C92E0E94432EFBDBA0910205A33271F4F8010E94D12DE3E2F0E0ED93FC93BE
:20120000EBE5F2E00E94C92E0E94432EE9DBA0910205A43271F4F8010E94D12DE4E2F0E01A
:20122000ED93FC93E3E6F2E00E94C92E0E94432ED7DBA0910205A53271F4F8010E94D12D99
:20124000E5E2F0E0ED93FC93EBE6F2E00E94C92E0E94432EC5DBA0910205A63269F4F80193
:201260000E94D12DE6E2F0E0ED93FC93E3E7F2E00E94C92E0E94CE2EA0910205A73269F4E6
:20128000F8010E94D12DE7E2F0E0ED93FC93EBE7F2E00E94C92E0E94CE2EA0910205A83220
:2012A00069F4F8010E94D12DE8E2F0E0ED93FC93E3E8F2E00E94C92E0E94CE2EA091020583
:2012C000A93269F4F8010E94D12DE9E2F0E0ED93FC93EBE8F2E00E94C92E0E94CE2EA09186
:2012E0000205AA3271F4F8010E94D12DEAE2F0E0ED93FC93E3E9F2E00E94C92E0E94432E18
:201300006FDBA0910205AB3271F4F8010E94D12DEBE2F0E0ED93FC93EBE9F2E00E94C92E85
:201320000E94432E5DDBA0910205AC3281F4F8010E94D12DECE2F0E00E94D42E0E94D82E54
:20134000E3EAF2E00E94C92E0E94432E49DBA0910205AD3271F4F8010E94D12DEDE2F0E06A
:20136000ED93FC93EBEAF2E00E94C92E0E94432E37DBA0910205AE3269F4F8010E94D12DEB
:20138000EEE2F0E0ED93FC93E3EBF2E00E94C92E0E94CE2EA0910205AF3269F4F8010E94B6
:2013A000D12DEFE2F0E0ED93FC93EBEBF2E00E94C92E0E94CE2EA0910205A03379F4F8012F
:2013C0000E94D12DE0E3F0E00E94D42E0E94D82EE3ECF2E00E94C92E0E94CE2EA09102057E
:2013E000A13371F4F8010E94D12DE1E3F0E0ED93FC93EBECF2E00E94C92E0E94432EF0DA59
:20140000A0910205A23371F4F8010E94D12DE2E3F0E0ED93FC93E3EDF2E00E94C92E0E9440
:20142000432EDEDAA0910205A33371F4F8010E94D12DE3E3F0E0ED93FC93EBEDF2E00E9486
:20144000C92E0E94432ECCDAA0910205A43369F4F8010E94D12DE4E3F0E0ED93FC93E3EE60
:20146000F2E00E94C92E0E94CE2EA0910205A53369F4F8010E94D12DE5E3F0E0ED93FC93B6
:20148000EBEEF2E00E94C92E0E94CE2EA0910205A63369F4F8010E94D12DE6E3F0E0ED934A
:2014A000FC93E3EFF2E00E94C92E0E94CE2EA0910205A73369F4F8010E94D12DE7E3F0E020
:2014C000ED93FC93EBEFF2E00E94C92E0E94CE2EA0910205A83371F4F8010E94D12DE8E33E
:2014E000F0E0ED93FC93E3E0F3E00E94C92E0E94432E76DAA0910205A93371F4F8010E9467
:20150000D12DE9E3F0E0ED93FC93EBE0F3E00E94C92E0E94432E64DAA0910205AA3371F420
:20152000F8010E94D12DEAE3F0E0ED93FC93E3E1F3E00E94C92E0E94432E52DAA0910205BF
:20154000AB3371F4F8010E94D12DEBE3F0E0ED93FC93EBE1F3E00E94C92E0E94432E40DA9D
:20156000A0910205AC3371F4F8010E94D12DECE3F0E0ED93FC93E3E2F3E00E94C92E0E94D5
:20158000432E2EDAA0910205AD3369F4F8010E94D12DEDE3F0E0ED93FC93EBE2F3E00E94D3
:2015A000C92E0E94CE2EA0910205AE3369F4F8010E94D12DEEE3F0E0ED93FC93E3E3F3E03E
:2015C0000E94C92E0E94CE2EA0910205AF3369F4F8010E94D12DEFE3F0E0ED93FC93EBE345
:2015E000F3E00E94C92E0E94CE2EA0910205A03469F4F8010E94D12DE0E4F0E0ED93FC933C
:20160000E3E4F3E00E94C92E0E94CE2EA0910205A13471F4F8010E94D12DE1E4F0E0ED93D9
:20162000FC93EBE4F3E00E94C92E0E94432ED8D9A0910205A23469F4F8010E94D12DE2E452
:20164000F0E0ED93FC93E3E5F3E00E94C92E0E94CE2EA0910205A33469F4F8010E94D12DD4
:20166000E3E4F0E0ED93FC93EBE5F3E00E94C92E0E94CE2EA0910205A43469F4F8010E94E2
:20168000D12DE4E4F0E0ED93FC93E3E6F3E00E94C92E0E94CE2EA0910205A53469F4F8016B
:2016A0000E94D12DE5E4F0E0ED93FC93EBE6F3E00E94C92E0E94CE2EA0910205A63471F490
:2016C000F8010E94D12DE6E4F0E0ED93FC93E3E7F3E00E94C92E0E94432E82D9A0910205EC
:2016E000A73471F4F8010E94D12DE7E4F0E0ED93FC93EBE7F3E00E94C92E0E94432E70D9CD
:20170000A0910205A83471F4F8010E94D12DE8E4F0E0ED93FC93E3E8F3E00E94C92E0E9433
:20172000432E5ED9A0910205A93471F4F8010E94D12DE9E4F0E0ED93FC93EBE8F3E00E94FA
:20174000C92E0E94432E4CD9A0910205AA3471F4F8010E94D12DEAE4F0E0ED93FC93E3E9CD
:20176000F3E00E94C92E0E94432E3AD9A0910205AB3471F4F8010E94D12DEBE4F0E0ED93A3
:20178000FC93EBE9F3E00E94C92E0E94432E28D9A0910205AC3481F4F8010E94D12DECE470
:2017A000F0E00E94D42E0E94D82EE3EAF3E00E94C92E0E94432E14D9A0910205AD3469F45E
:2017C000F8010E94D12DEDE4F0E0ED93FC93EBEAF3E00E94C92E0E94CE2EA0910205AE34C7
:2017E00069F4F8010E94D12DEEE4F0E0ED93FC93E3EBF3E00E94C92E0E94CE2EA091020532
:20180000AF3469F4F8010E94D12DEFE4F0E0ED93FC93EBEBF3E00E94C92E0E94CE2EA0912C
:201820000205A03581F4F8010E94D12DE0E5F0E00E94D42E0E94D82EE3ECF3E00E94C92EA2
:201840000E94432ECDD8A0910205A13571F4F8010E94D12DE1E5F0E0ED93FC93EBECF3E075
:201860000E94C92E0E94432EBBD8A0910205A23571F4F8010E94D12DE2E5F0E0ED93FC9376
:20188000E3EDF3E00E94C92E0E94432EA9D8A0910205A33569F4F8010E94D12DE3E5F0E0DA
:2018A000ED93FC93EBEDF3E00E94C92E0E94CE2EA0910205A43569F4F8010E94D12DE4E567
:2018C000F0E0ED93FC93E3EEF3E00E94C92E0E94CE2EA0910205A53569F4F8010E94D12D46
:2018E000E5E5F0E0ED93FC93EBEEF3E00E94C92E0E94CE2EA0910205A63569F4F8010E9451
:20190000D12DE6E5F0E0ED93FC93E3EFF3E00E94C92E0E94CE2EA0910205A73571F4F801D1
:201920000E94D12DE7E5F0E0ED93FC93EBEFF3E00E94C92E0E94432E53D8A0910205A835C3
:2019400071F4F8010E94D12DE8E5F0E0ED93FC93E3E0F4E00E94C92E0E94432E41D8A09150
:201960000205A93571F4F8010E94D12DE9E5F0E0ED93FC93EBE0F4E00E94C92E0E94432E8C
:201980002FD8A0910205AA3569F4F8010E94D12DEAE5F0E0ED93FC93E3E1F4E00E94C92E54
:2019A0000E94CE2EA0910205AB3569F4F8010E94D12DEBE5F0E0ED93FC93EBE1F4E00E948A
:2019C000C92E0E94CE2EA0910205AC3589F4F8010E94D12DECE5F0E00E94D42E0E94D82E56
:2019E000E3E2F4E00E94C92E0E94432E0E94F004A0910205AD3569F4F8010E94D12DEDE52A
:201A0000F0E0ED93FC93EBE2F4E00E94C92E0E94CE2EA0910205AE3579F4F8010E94D12DEE
:201A2000EEE5F0E0ED93FC93E3E3F4E00E94C92E0E94432E0E94F004A0910205AF3579F48F
:201A4000F8010E94D12DEFE5F0E0ED93FC93EBE3F4E00E94C92E0E94432E0E94F004A09125
:201A60000205A03689F4F8010E94D12DE0E6F0E00E94D42E0E94D82EE3E4F4E00E94C92E5D
:201A80000E94432E0E94F004A0910205A13679F4F8010E94D12DE1E6F0E0ED93FC93EBE413
:201AA000F4E00E94C92E0E94432E0E94F004A0910205A23679F4F8010E94D12DE2E6F0E062
:201AC000ED93FC93E3E5F4E00E94C92E0E94432E0E94F004A0910205A33669F4F8010E9410
:201AE000D12DE3E6F0E0ED93FC93EBE5F4E00E94C92E0E94CE2EA0910205A43679F4F801ED
:201B00000E94D12DE4E6F0E0ED93FC93E3E6F4E00E94C92E0E94432E0E94F004A091020565
:201B2000A53669F4F8010E94D12DE5E6F0E0ED93FC93EBE6F4E00E94C92E0E94CE2EA0911D
:201B40000205A63669F4F8010E94D12DE6E6F0E0ED93FC93E3E7F4E00E94C92E0E94CE2E2C
:201B6000A0910205A73679F4F8010E94D12DE7E6F0E0ED93FC93EBE7F4E00E94C92E0E94BD
:201B8000432E0E94F004A0910205A83669F4F8010E94D12DE8E6F0E0ED93FC93E3E8F4E0E6
:201BA0000E94C92E0E94CE2EA0910205A93679F4F8010E94D12DE9E6F0E0ED93FC93EBE850
:201BC000F4E00E94C92E0E94432E0E94F004A0910205AA3669F4F8010E94D12DEAE6F0E041
:201BE000ED93FC93E3E9F4E00E94C92E0E94CE2EA0910205AB3689F4F8010E94D12DEBE6FF
:201C0000F0E00E94D42E0E94D82EEBE9F4E00E94C92E0E94432E0E94F004A0910205AC36A4
:201C200079F4F8010E94D12DECE6F0E0ED93FC93E3EAF4E00E94C92E0E94432E0E94F0040A
:201C4000A0910205AD3669F4F8010E94D12DEDE6F0E0ED93FC93EBEAF4E00E94C92E0E94DD
:201C6000CE2EA0910205AE3679F4F8010E94D12DEEE6F0E0ED93FC93E3EBF4E00E94C92E58
:201C80000E94432E0E94F004A0910205AF3689F4F8010E94D12DEFE6F0E00E94D42E0E947D
:201CA000D82EEBEBF4E00E94C92E0E94432E0E94F004A0910205A03769F4F8010E94D12D2D
:201CC000E0E7F0E0ED93FC93E3ECF4E00E94C92E0E94CE2EA0910205A13779F4F8010E946C
:201CE000D12DE1E7F0E0ED93FC93EBECF4E00E94C92E0E94432E0E94F004A0910205A23741
:201D000079F4F8010E94D12DE2E7F0E0ED93FC93E3EDF4E00E94C92E0E94432E0E94F0042F
:201D2000A0910205A33779F4F8010E94D12DE3E7F0E0ED93FC93EBEDF4E00E94C92E0E94FB
:201D4000432E0E94F004A0910205A43769F4F8010E94D12DE4E7F0E0ED93FC93E3EEF4E024
:201D60000E94C92E0E94CE2EA0910205A53769F4F8010E94D12DE5E7F0E0ED93FC93EBEE9E
:201D8000F4E00E94C92E0E94CE2EA0910205A63769F4F8010E94D12DE6E7F0E0ED93FC9381
:201DA000E3EFF4E00E94C92E0E94CE2EA0910205A73769F4F8010E94D12DE7E7F0E0ED931C
:201DC000FC93EBEFF4E00E94C92E0E94CE2EA0910205A83779F4F8010E94D12DE8E7F0E0D3
:201DE000ED93FC93E3E0F5E00E94C92E0E94432E0E94F004A0910205A93779F4F8010E94DA
:201E0000D12DE9E7F0E0ED93FC93EBE0F5E00E94C92E0E94432E0E94F004A0910205AA371A
:201E200079F4F8010E94D12DEAE7F0E0ED93FC93E3E1F5E00E94C92E0E94432E0E94F00411
:201E4000A0910205AB3779F4F8010E94D12DEBE7F0E0ED93FC93EBE1F5E00E94C92E0E94D5
:201E6000432E0E94F004A0910205AC3779F4F8010E94D12DECE7F0E0ED93FC93E3E2F5E0EE
:201E80000E94C92E0E94432E0E94F004A0910205AD3769F4F8010E94D12DEDE7F0E0ED93CA
:201EA000FC93EBE2F5E00E94C92E0E94CE2EA0910205AE3769F4F8010E94D12DEEE7F0E002
:201EC000ED93FC93E3E3F5E00E94C92E0E94CE2EA0910205AF3769F4F8010E94D12DEFE737
:201EE000F0E0ED93FC93EBE3F5E00E94C92E0E94CE2EA0910205A03869F4F8010E94D12D23
:201F0000E0E8F0E0ED93FC93E3E4F5E00E94C92E0E94CE2EA0910205A13879F4F8010E942E
:201F2000D12DE1E8F0E0ED93FC93EBE4F5E00E94C92E0E94432E0E94F004A0910205A23803
:201F400079F4F8010E94D12DE2E8F0E0ED93FC93E3E5F5E00E94C92E0E94432E0E94F004F3
:201F6000A0910205A33869F4F8010E94D12DE3E8F0E0ED93FC93EBE5F5E00E94C92E0E94CE
:201F8000CE2EA0910205A43879F4F8010E94D12DE4E8F0E0ED93FC93E3E6F5E00E94C92E49
:201FA0000E94432E0E94F004A0910205A53869F4F8010E94D12DE5E8F0E0ED93FC93EBE6F0
:201FC000F5E00E94C92E0E94CE2EA0910205A63869F4F8010E94D12DE6E8F0E0ED93FC933C
:201FE000E3E7F5E00E94C92E0E94CE2EA0910205A73879F4F8010E94D12DE7E8F0E0ED93CF
:20200000FC93EBE7F5E00E94C92E0E94432E0E94F004A0910205A83869F4F8010E94D12D3A
:20202000E8E8F0E0ED93FC93E3E8F5E00E94C92E0E94CE2EA0910205A93879F4F8010E94F9
:20204000D12DE9E8F0E0ED93FC93EBE8F5E00E94C92E0E94432E0E94F004A0910205AA38CE
:2020600069F4F8010E94D12DEAE8F0E0ED93FC93E3E9F5E00E94C92E0E94CE2EA0910205A9
:20208000AB3869F4F8010E94D12DEBE8F0E0ED93FC93EBE9F5E00E94C92E0E94CE2EA091A4
:2020A0000205AC3879F4F8010E94D12DECE8F0E0ED93FC93E3EAF5E00E94C92E0E94432E2E
:2020C0000E94F004A0910205AD3869F4F8010E94D12DEDE8F0E0ED93FC93EBEAF5E00E9457
:2020E000C92E0E94CE2EA0910205AE3879F4F8010E94D12DEEE8F0E0ED93FC93E3EBF5E0CF
:202100000E94C92E0E94432E0E94F004A0910205AF3879F4F8010E94D12DEFE8F0E0ED9331
:20212000FC93EBEBF5E00E94C92E0E94432E0E94F004A0910205A03969F4F8010E94D12D1C
:20214000E0E9F0E0ED93FC93E3ECF5E00E94C92E0E94CE2EF801099119910895E881F9813F
:202160000E94D12D0E94B935309741F40E94972EEBECF5E00E94DD2E0C941619E130A0E013
:20218000FA0751F4E8ECF0E00E94E02E0E94E72E0E94EE2E0C94FD18E230A0E0FA0771F483
:2021A000E0E1F1E00E94E02E0E94FD2E0E94022F0E94FD2E0E94112F0C940319E330A0E03F
:2021C000FA0761F4EAE7F0E00E94E02E0E94E72E0E94162F0E941F2F0C940319E430A0E07A
:2021E000FA0761F4E2E0F1E00E94E02E0E94E72E0E94282F0E941F2F0C940319E530A0E055
:20220000FA0759F4E0EBF0E00E94E02E0E94E72E0E94EE2E0E94312FF6C7E630A0E0FA075A
:2022200059F4EEEFF0E00E94E02E0E94FD2E0E94022FA0E1B0E0E1C7E730A0E0FA0749F4C6
:20224000E8E7F0E00E94E02E0E94E72E0E94162FCEC7E830A0E0FA0749F4E0ECF0E00E94E8
:20226000E02E0E94E72E0E94282FC1C7E930A0E0FA0769F4E8E1F0E00E94E02E0E94E72E21
:202280000E94282F0E94342F0E94312FBCC7EA30A0E0FA0759F4E6E1F0E00E94E02E0E94EA
:2022A000E72E0E943B2F0E941F2FADC7EB30A0E0FA0759F4E4E7F0E00E94E02E0E94E72EAE
:2022C0000E94442F0E941F2F9EC7EC30A0E0FA0749F4E6E9F0E00E94E02E0E94E72E0E9412
:2022E0004D2F85C7ED30A0E0FA0759F4EAE1F0E00E94E02E0E94E72E0E94282F0E94342F2B
:202300007CC7EE30A0E0FA0749F4EEE5F0E00E94E02E0E94E72E0E943B2F69C7EF30A0E0B9
:20232000FA0749F4E4E8F0E00E94E02E0E94E72E0E94442F5CC7E031A0E0FA0749F4E8EB82
:20234000F0E00E94E02E0E94E72E0E94562F5BC7E131A0E0FA0759F4E0E2F0E00E94E02EDB
:202360000E94E72E0E94EE2E0E94312F4CC7E231A0E0FA0769F4E8E9F0E00E94E02E0E94EF
:20238000FD2E0E945F2F0E94FD2E0E94112F3BC7E331A0E0FA0759F4EAEAF0E00E94E02EFB
:2023A0000E94E72E0E946E2F0E94752F2CC7E431A0E0FA0769F4E2E4F0E00E94E02E0E9413
:2023C000E72E0E946E2F0E94782F0E94312F1BC7E531A0E0FA0749F4EEE4F0E00E94E02E56
:2023E0000E94E72E0E94EE2E08C7E631A0E0FA0759F4E2ECF0E00E94E02E0E94FD2E0E94F7
:202400005F2FA0E1B0E0F9C6E731A0E0FA0759F4EEECF0E00E94E02E0E94E72E0E946E2F28
:20242000A9E9B1E0E4C6E831A0E0FA0759F4E0E4F0E00E94E02E0E94E72E0E946E2F0E940C
:20244000782FDBC6E931A0E0FA0759F4EEE2F0E00E94E02E0E94E72E0E943B2F0E941F2F49
:20246000D2C6EA31A0E0FA0759F4EAEFF0E00E94E02E0E94E72E0E94812F0E94312FC3C6EE
:20248000EB31A0E0FA0749F4ECE6F0E00E94E02E0E94E72E0E94562FB6C6EC31A0E0FA0718
:2024A00049F4E4EAF0E00E94E02E0E94E72E0E944D2F9DC6ED31A0E0FA0749F4EAE2F0E0E1
:2024C0000E94E02E0E94E72E0E943B2F90C6EE31A0E0FA0749F4E4E9F0E00E94E02E0E9467
:2024E000E72E0E94812F89C6EF31A0E0FA0759F4EEE6F0E00E94E02E0E94E72E0E948A2FD2
:20250000A9E9B1E074C6E032A0E0FA0759F4E6E8F0E00E94E02E0E94E72E0E944D2F0E94B9
:202520001F2F71C6E132A0E0FA0749F4EEE8F0E00E94E02E0E94E72EA0E2B0E052C6E232FA
:20254000A0E0FA0759F4EAE5F0E00E94E02E0E94E72E0E94912F0E94982F55C6E332A0E02C
:20256000FA0759F4EAEDF0E00E94E02E0E94E72E0E949B2F0E94312F46C6E432A0E0FA07EE
:2025800059F4E2EAF0E00E94E02E0E94A22F0E94FD2E0E94112F37C6E532A0E0FA0759F49E
:2025A000E4E0F1E00E94E02E0E94E72E0E94912F0E94B52F28C6E632A0E0FA0759F4E6E39A
:2025C000F0E00E94E02E0E94E72E0E94912FA6E9B1E00DC6E732A0E0FA0749F4E8E1F1E0FE
:2025E0000E94E02E0E94E72E0E949B2F06C6E832A0E0FA0749F4E6EAF0E00E94E02E0E9472
:20260000A22FA0E1B0E0F9C5E932A0E0FA0759F4EEE1F0E00E94E02E0E94E72E0E94282F32
:202620000E94342FEAC5EA32A0E0FA0759F4ECE5F0E00E94E02E0E94FD2E0E94B82F0E94B3
:20264000312FE1C5EB32A0E0FA0759F4E2E6F0E00E94E02E0E94E72E0E948A2F0E94982FC6
:20266000D2C5EC32A0E0FA0719F40E94C32FCBC5ED32A0E0FA0769F4E0E1F0E00E94E02EB5
:202680000E94E72E0E94282F0E94342F0E94312FBAC5EE32A0E0FA0749F4E0E5F0E00E94EF
:2026A000E02E0E94FD2E0E94B82FA7C5EF32A0E0FA0759F4E8E6F0E00E94E02E0E94E72E56
:2026C0000E948A2FA6E9B1E092C5E033A0E0FA0719F40E94C32F97C5E133A0E0FA0759F4B5
:2026E000E4E2F0E00E94E02E0E94E72E0E94282F0E941F2F88C5E233A0E0FA0759F4E4E1FF
:20270000F0E00E94E02E0E94E72E0E949B2F0E94312F79C5E333A0E0FA0759F4E2E8F0E058
:202720000E94E02E0E94E72E0E94D92F0E94B52F6AC5E433A0E0FA0749F4E6E0F1E00E94C5
:20274000E02E0E94E72E0E94E02F57C5E533A0E0FA0749F4ECE4F0E00E94E02E0E94E72E0A
:202760000E94282F44C5E633A0E0FA0749F4ECE1F0E00E94E02E0E94E72E0E949B2F3DC50E
:20278000E733A0E0FA0749F4E4E1F1E00E94E02E0E94E72EAAE1B0E024C5E833A0E0FA07C4
:2027A00059F4EEEEF0E00E94E02E0E94E72E0E94E02F0E94312F27C5E933A0E0FA0759F430
:2027C000E8EFF0E00E94E02E0E94E72E0E94EF2F0E94312F18C5EA33A0E0FA0759F4E4EE8F
:2027E000F0E00E94E02E0E94E72E0E948A2F0E94982F09C5EB33A0E0FA0759F4E2E5F0E08D
:202800000E94E02E0E94E72E0E94F82F0E94752FFAC4EC33A0E0FA0779F4E0E9F0E00E943C
:20282000E02E0E94E72E0E94FF2FA0E9B1E00E94342F0E94312FE7C4ED33A0E0FA0749F459
:20284000ECEFF0E00E94E02E0E94E72E0E94812FD4C4EE33A0E0FA0759F4E8E2F0E00E9451
:20286000E02E0E94E72E0E948A2FA6E9B1E0BFC4EF33A0E0FA0759F4E4E3F0E00E94E02E5E
:202880000E94E72E0E94F82FA9E9B1E0B0C4E034A0E0FA0749F4ECEEF0E00E94E02E0E9453
:2028A000E72E0E94EF2FA9C4E134A0E0FA0759F4ECECF0E00E94E02E0E94E72E0E9406300C
:2028C0000E941F2FA0C4E234A0E0FA0759F4ECEBF0E00E94E02E0E94E72E0E94F82F0E9447
:2028E0000F308BC4E334A0E0FA0759F4ECE9F0E00E94E02E0E94E72E0E94F82FA6E9B1E070
:2029000076C4E434A0E0FA0749F4ECE7F0E00E94E02E0E94E72E0E944D2F69C4E534A0E0B9
:20292000FA0749F4E2EDF0E00E94E02E0E94E72E0E9406305CC4E634A0E0FA0769F4E6EE8F
:20294000F0E00E94E02E0E94E72E0E94F82F0E940F300E94312F57C4E734A0E0FA0759F490
:20296000E4EBF0E00E94E02E0E94E72E0E94F82F0E94982F48C4E834A0E0FA0759F4ECEA53
:20298000F0E00E94E02E0E94E72E0E944D2F0E941F2F39C4E934A0E0FA0769F4E2E1F0E067
:2029A0000E94E02E0E94FD2EE1E7F5E00E94D92F0E94982F28C4EA34A0E0FA0759F4E2EB45
:2029C000F0E00E94E02E0E94E72E0E94282F0E941F2F19C4EB34A0E0FA0759F4ECE0F1E070
:2029E0000E94E02E0E94E72E0E94912F0E94982F0AC4EC34A0E0FA0719F40E94C32F03C4CE
:202A0000ED34A0E0FA0769F4E6E2F0E00E94E02E0E94FD2EE1E7F5E00E94D92FA6E9B1E03B
:202A2000E6C3EE34A0E0FA0759F4ECE1F1E00E94E02E0E94E72E0E941230A6E9B1E0D7C35A
:202A4000EF34A0E0FA0759F4E2E1F1E00E94E02E0E94E72E0E94912FA6E9B1E0C8C3E03568
:202A6000A0E0FA0719F40E94C32FCDC3E135A0E0FA0759F4EAEEF0E00E94E02E0E94E72EB1
:202A80000E9419300E941F2FBEC3E235A0E0FA0759F4E8EDF0E00E94E02E0E94E72E0E9447
:202AA00022300E941F2FAFC3E335A0E0FA0769F4ECE8F0E00E94E02E0E94E72EA2E2B0E04D
:202AC0000E942B30A9E9B1E092C3E435A0E0FA0759F4E0EAF0E00E94E02E0E9430300E94AC
:202AE0003930A0E1B0E089C3E535A0E0FA0749F4EEEAF0E00E94E02E0E94E72E0E9419303E
:202B000076C3E635A0E0FA0749F4E6EFF0E00E94E02E0E94E72E0E94223069C3E735A0E0DB
:202B2000FA0759F4E4ECF0E00E94E02E0E94E72E0E9440300E94752F66C3E835A0E0FA0721
:202B400069F4EEE7F0E00E94E02E0E9430300E9439300E94FD2E0E94112F55C3E935A0E051
:202B6000FA0759F4ECE2F0E00E94E02E0E94E72E0E94FF2F0E94982F46C3EA35A0E0FA0720
:202B800049F4E0EFF0E00E94E02E0E94E72E0E94EE2E33C3EB35A0E0FA0759F4E8EAF0E0AE
:202BA0000E94E02E0E94E72E0E948A2FA9E9B1E01EC3EC35A0E0FA0719F40E94C32F23C326
:202BC000ED35A0E0FA0759F4E0E3F0E00E94E02E0E94E72E0E94FF2FA6E9B1E008C3EE352D
:202BE000A0E0FA0759F4E4EFF0E00E94E02E0E94E72E0E94EE2E0E94312F05C3EF35A0E0D1
:202C0000FA0749F4EEE9F0E00E94E02E0E94E72E0E94562FF8C2E036A0E0FA0719F40E9441
:202C2000C32FF1C2E136A0E0FA0759F4EAE6F0E00E94E02E0E94E72E0E944D2F0E941F2FF5
:202C4000E2C2E236A0E0FA0769F4EEEBF0E00E94E02E0E94E72E0E94162F0E9443300E942C
:202C6000312FD1C2E336A0E0FA0759F4EAEBF0E00E94E02E0E94E72E0E941230A9E9B1E067
:202C8000B6C2E436A0E0FA0759F4E0E6F0E00E94E02E0E94E72E0E94282F0E941F2FB3C279
:202CA000E536A0E0FA0749F4E0E7F0E00E94E02E0E94E72E0E944D2F9AC2E636A0E0FA0726
:202CC00059F4EAE8F0E00E94E02E0E94E72E0E94162F0E94433091C2E736A0E0FA0759F464
:202CE000E0E8F0E00E94E02E0E94E72E0E9412300E94752F88C2E836A0E0FA0749F4E6EBB4
:202D0000F0E00E94E02E0E94E72E0E94282F6FC2E936A0E0FA0769F4E4E4F0E00E94E02E0D
:202D20000E94E72E0E944A300E94782F0E94312F6AC2EA36A0E0FA0749F4EAE3F0E00E942C
:202D4000E02E0E94E72E0E949B2F57C2EB36A0E0FA0719F40E94C32F56C2EC36A0E0FA072B
:202D600069F4E6ECF0E00E94E02E0E94E72E0E94F82F0E940F300E94312F45C2ED36A0E097
:202D8000FA0759F4EAE0F0E00E94E02E0E94FD2E0E94022FA0E1B0E030C2EE36A0E0FA0753
:202DA00059F4E2E3F0E00E94E02E0E94E72E0E949B2F0E94312F27C2EF36A0E0FA0719F4C0
:202DC0000E94C32F20C2E037A0E0FA0759F4E2EEF0E00E94E02E0E94E72E0E94F82F0E9426
:202DE0000F300BC2E137A0E0FA0769F4E4EDF0E00E94E02E0E94E72E0E944D300E940F30C9
:202E00000E94312F00C2E237A0E0FA0779F4EAE4F0E00E94E02E0E94FD2E0E9450300E9408
:202E20003930AFE0B0E00E94312FEDC1E337A0E0FA0769F4E6E7F0E00E94E02E0E945330F0
:202E4000ACE9B1E00E94342F0E94312FDCC1E437A0E0FA0759F4E2E9F0E00E94E02E0E94D2
:202E6000E72E0E94912FA6E9B1E0C1C1E537A0E0FA0759F4EAE1F1E00E94E02E0E94E72E4C
:202E80000E944D300E940F30B8C1E637A0E0FA0759F4E6E5F0E00E94E02E0E94FD2E0E9414
:202EA00050300E940F30A9C1E737A0E0FA0759F4E2E7F0E00E94E02E0E945330ACE9B1E0C7
:202EC0000E94342F9AC1E837A0E0FA0759F4E0EDF0E00E94E02E0E94E72E0E94912F0E949D
:202EE000982F91C1E937A0E0FA0769F4E8E4F0E00E94E02E0E94FD2E0E9450300E940F309F
:202F00000E94312F80C1EA37A0E0FA0759F4EAE9F0E00E94E02E0E94E72E0E9412300E94EF
:202F2000982F71C1EB37A0E0FA0769F4E6E4F0E00E94E02E0E94FD2E0E945A300E945F3024
:202F40000E94312F60C1EC37A0E0FA0789F4E0EEF0E00E94E02E0E946830A5E1B0E00E94ED
:202F60002B300E943930A3E1B0E00E94312F4BC1ED37A0E0FA0759F4E8E3F0E00E94E02E8C
:202F80000E94E72E0E9412300E940F3036C1EE37A0E0FA0759F4EAECF0E00E94E02E0E94D3
:202FA000E72E0E941230A6E9B1E021C1EF37A0E0FA0759F4EEEDF0E00E94E02E0E94FD2EFA
:202FC0000E945A300E945F3018C1E038A0E0FA0769F4E6E1F1E00E94E02E0E94FD2EE1E7E8
:202FE000F5E00E94162F0E946F3007C1E138A0E0FA0779F4E8EEF0E00E94E02E0E94683075
:203000000E947630A9E9B1E00E946F300E94312FFAC0E238A0E0FA0769F4E2EFF0E00E940D
:20302000E02E0E9479300E9439300E94FD2E0E94112FE9C0E338A0E0FA0749F4E8E0F1E062
:203040000E94E02E0E94E72EAFE1B0E0CAC0E438A0E0FA0759F4E4E6F0E00E94E02E0E9489
:20306000E72E0E94F82F0E94B52FCDC0E538A0E0FA0769F4E8E8F0E00E94E02E0E946830DA
:203080000E947630A9E9B1E00E946F30B6C0E638A0E0FA0759F4EEE0F1E00E94E02E0E9431
:2030A00079300E943930A0E1B0E0A7C0E738A0E0FA0759F4E4E5F0E00E94E02E0E94E72EF7
:2030C0000E944A300E94B52F9EC0E838A0E0FA0779F4EEE3F0E00E94E02E0E94FD2EE1E7FC
:2030E000F5E00E9476300E948030A0E1B0E085C0E938A0E0FA0759F4ECE0F0E00E94E02ED0
:203100000E94E72E0E949B2F0E94312F7CC0EA38A0E0FA0759F4ECEDF0E00E94E02E0E9463
:20312000FD2EE1E7F5E00E94EE2E67C0EB38A0E0FA0759F4E8E5F0E00E94E02E0E94E72EED
:203140000E944D30A6E9B1E052C0EC38A0E0FA0779F4ECE3F0E00E94E02E0E94FD2E0E944E
:203160005A300E9480300E94FD2E0E94112F4BC0ED38A0E0FA0749F4EEE0F0E00E94E02E88
:203180000E94E72E0E949B2F38C0EE38A0E0FA0769F4EAE0F1E00E94E02E0E94FD2EE1E730
:2031A000F5E00E94EE2E0E94312F2DC0EF38A0E0FA0759F4E2E2F0E00E94E02E0E94E72E9D
:2031C0000E944D300E94982F1EC0E039A0E0FA0769F5E6E6F0E00E94E02E0E94E72EACE101
:2031E000B0E0A083B183E3E7F5E0ACE9B1E0A083B183E7E7F5E0A2E1B0E0A083B183EBE7ED
:20320000F5E0A1E0B0E0A083B1830E9487303196E0936B05F0936C050E948C30E0936D0537
:20322000F0936E050E9491300E949630A0918105B0918205D29739F40E94A5303597E09302
:203240006F05F0937005A0918305B0918405D29749F4E0917705F09178053597E093770533
:20326000F09378050E94AA3011970E94AA30129739F40E94913070960E94AF300E94963086
:203280000E94AA30139739F40E949130B0960E94AF300E9496300E94AA30149739F40E9453
:2032A0009130F0960E94AF300E949630229608950E94172EFA93EA930E94C42D0E94B4307F
:2032C0000E941C2E0E94BA300E94B82D0E94C9040E94212EFA93EA93E0E3F0E00E94B12D72
:2032E0000E94C904E0918105F09182050E94BA300E94832E0E94C904E0918305F09184050F
:203300000E94BA300E94882E0E94C904E0918505F0918605FA93EA93E0E3F0E00E94BD2D2A
:203320000E94C904E0918705F09188050E94BA300E947E2E0E94C9040E94122E0E94BD2D5C
:203340000E947E2E0E94C9040E940D2EFA93EA93E0E2F0E00E94BD2D0E94C9040E94962DD7
:203360000E94B12D0E94B82D0E94C9040E94A12D0E94BD2D0E94C42D0E94C90408950C2C04
:203380000D28A1F40E94972EE0EEF5E00E94DD2E0E94BD30E0EEF5E00E94CC300E94D93031
:2033A0000E94432E0E94482E6F01E9CF0E94392E0E94DF30EF930E94392E0E94E530AF917E
:2033C000EA2BA1F7929A0E94D9300E948D2E0E94EB30EF930E94F1300E94EB30AF91EA2BF8
:2033E000EF930E94FB300E94EB30AF91EA2BEF930E94FB300E940531AF91EA2B11F40C944B
:20340000B01A0E94392E0E94DF30EF930E94392E0E94E530AF91EA2B11F0979AFECF0E94F0
:20342000972EE9E0F6E00E94DD2E0E94BD30E9E0F6E00E94CC300E94D9300E948D2E0E9405
:203440001904E03041F40E94972EE8E2F6E00E94DD2E0E94D9300E94F1300E941904E03019
:2034600041F40E94BD30E7E4F6E00E94CC300E94D9300E94FB300E941904E03041F40E942B
:20348000972EE6E6F6E00E94DD2E0E94D9300E94FB300E942E04E03041F40E94BD30E5E82B
:2034A000F6E00E94DD2E0E94D9300E94392E0E942E04E13009F4979A0E94392E0E940B31DB
:2034C000EF930E94392E0E940531AF91EA2BEF930E948D2E0E941131AF91EA2BEF930E94F8
:2034E000F1300E941131AF91EA2BC9F1979A0E94392E0E942904E13041F40E94972EE4EA34
:20350000F6E00E94DD2E0E94D9300E94392E0E942E04E13041F40E94972EE6EBF6E00E94AA
:20352000DD2E0E94D9300E948D2E0E942304E13041F40E94972EE8ECF6E00E94DD2E0E9409
:20354000D9300E94F1300E942304E13041F40E94972EEAEDF6E00E94DD2E0E94D93035CF20
:203560000E94972EECEEF6E00E94DD2E0E94BD30ECEEF6E00E94CC3092980E94D9300E9433
:2035800017310E94B430CC24DD2408950E94F1300E942904A0E00E948E35EF930E94F13013
:2035A0000E942E04A0E00E948E35AF910E941A310E942131E02131F0E1E0F0E0E0936505A1
:2035C000F09366050E94F1300E940B31EF930E94F1300E940531AF910E941A310E94263119
:2035E000E02131F0E2E0F0E0E0936505F09366050E942B31E1E00E948E35E02119F01E9868
:203600000E9438310E942B31E0E00E948E35E02119F01E9A0E94383108951A930A93A09197
:203620002105B09122058091230590912405AD33E0E0BE07E0E08E07E0E09E0714F40C94B2
:20364000691B0E944331F501D4010E94A535EF930E94B12E0E94DF30EF930E94B12E0E9430
:20366000E530AF91EA2BEF930E94B12E0E941404A1E00E948E35AF91EA2BEF930E94B12EE5
:203680000E94EB30AF91EA2BEF930E94B12E0E941F04A1E00E948E35AF91EA2BEF930E94F1
:2036A000B12E0E941131AF91EA2BEF930E94B12E0E940B31AF91EA2BEF930E94B12E0E9417
:2036C0000531AF91EA2BAF91EA2319F0F40131964F01A814B904F1F40E9448068F010E947D
:2036E0004331F40131964F01E1E0F0E0E017F10731F4E2E0F0E00E94BA300E944D31E2E0A5
:20370000F0E0E017F10731F4E1E0F0E00E94BA300E944D31F5013196E815F90511F488241F
:2037200099240991199108950E948D2E0E942304E13019F4979A1A981B98E0913905F091E1
:203740003A05309711F00C94EA1B0E945331E881E0930905E17011F4D89801C0D89AE09143
:203760000905E27011F4D99801C0D99AE0910905E47011F4DA9801C0DA9AE0910905E870E9
:2037800011F4DB9801C0DB9AE0910905E07111F4DC9801C0DC9AE0910905E07211F4DD98B0
:2037A00001C0DD9AE0910905E07411F4DE9801C0DE9AE0910905E07811F4DF9801C0DF9ABD
:2037C000A881B981A030E1E0BE070CF0949AE1E0F0E047C0E130A0E0FA0789F4A091110518
:2037E000B091120580911305909114050E945D312CF0939AE2E0F0E00E94653136C0E230C3
:20380000A0E0FA0789F40E948D2E0E940D04E03051F49398E0E0EBBB94980E945331E3E09F
:20382000F0E00E94653121C0E330A0E0FA0769F40E948D2E0E941904E03031F40E94533137
:20384000E4E0F0E00E94653110C0E430A0E0FA0761F40E948D2E0E940D04E13031F4E5E0D7
:20386000F0E0E0933905F0933A05E0913905F0913A0576C10E94F1300E942304E13019F4B5
:20388000979A1A981B98E0913D05F0913E05309711F00C94901C0E946A31E881E0930A05DF
:2038A000E17011F4A89801C0A89AE0910A05E27011F4A99801C0A99AE0910A05E47011F47A
:2038C000AA9801C0AA9AE0910A05E87011F4AB9801C0AB9AE0910A05E07111F4AC9801C0A0
:2038E000AC9AE0910A05E07211F4AD9801C0AD9AE0910A05E07411F4AE9801C0AE9AE091C5
:203900000A05E07811F4AF9801C0AF9AA881B981A030E1E0BE070CF0959AE1E0F0E047C06E
:20392000E130A0E0FA0789F4A0911905B0911A0580911B0590911C050E945D312CF0969ADA
:20394000E2E0F0E00E94743136C0E230A0E0FA0789F40E94F1300E940D04E03051F496988F
:20396000E0E0E5BB95980E946A31E3E0F0E00E94743121C0E330A0E0FA0769F40E94F1300E
:203980000E941904E03031F40E946A31E4E0F0E00E94743110C0E430A0E0FA0761F40E94BF
:2039A000F1300E940D04E13031F4E5E0F0E0E0933D05F0933E05E0913D05F0913E05D0C0E6
:2039C0000E94392E0E942E04E13019F4979A1A981B98E0913B05F0913C05309711F00C947B
:2039E000361DE881E0930705E1700E2EE0910005EE7F0E947931E695E170EE0F0E2EE0915A
:203A00000005ED7F0E947931E695E695E170EE0FEE0F0E2EE0910005EB7F0E947931E695C5
:203A2000E695E695E170EE0FEE0FEE0F0E2EE0910005E77F0E947931E295E170E795E0E0E0
:203A4000E7950E2EE0910005EF77E0290E947F31E0910705E07211F4C79801C0C79A0E9480
:203A60008431E1E0F0E00E948E3176C0E130A0E0FA07A9F4A0911505B09116058091170566
:203A8000909118050E945D314CF0E0910005E0620E947F31E2E0F0E00E948E315DC0E23050
:203AA000A0E0FA0721F50E94FB300E940D04E030E9F4E0910005EF7D0E947F31E091000558
:203AC000EE7F0E949331ED7F0E949331EB7F0E949331E77F0E949331EF770E947F31C7988E
:203AE0000E948431E3E0F0E00E948E3135C0E330A0E0FA0769F40E94FB300E941904E030F9
:203B000031F40E948431E4E0F0E00E948E3124C0E430A0E0FA0701F50E94FB300E940D0445
:203B2000E130D1F4E5E0F0E00E948E31E0914905F0914A05309739F4E1E0F0E0E0934905E4
:203B4000F0934A0509C0E130A0E0FA0729F4E0E0E0934905E0934A05E0913B05F0913C0565
:203B6000229608950E94392E0E942904E13019F4979A1A981B98E0913F05F0914005309722
:203B800081F5EA81E0930805E17011F4C09801C0C09AE0910805E27011F4C19801C0C19AB1
:203BA000E0910805E47011F4C29801C0C29AE0910805E87011F4C39801C0C39AE0910805E5
:203BC000E07111F41C9801C01C9AE0910805E07211F41D9801C01D9A0E949631E1E0F0E068
:203BE0004FC0E130A0E0FA0789F4A0911D05B0911E0580911F05909120050E945D312CF029
:203C0000C59AE2E0F0E00E94A0313EC0E230A0E0FA07A1F40E94FB300E941F04E03069F41B
:203C2000C598C098C198C298C3981C981D980E949631E3E0F0E00E94A03126C0E330A0E070
:203C4000FA0791F40E94FB300E942E04E03059F4A881B981119709F41A9A0E949631E4E0F7
:203C6000F0E00E94A03110C0E430A0E0FA0761F40E94FB300E941F04E13031F4E5E0F0E0EA
:203C8000E0933F05F0934005E0913F05F09140052496089568970E94053620E030E000E007
:203CA00010E040E050E04B30E0E05E0744F4FA010E94A5310E94D82E4F5F5F4FF4CF0E9410
:203CC000AC310E9426310E2E0E94B1310E9421310E94B6310E94C7310E94D13111F40C94EE
:203CE000A91F0E94AC31119711F00C94A91FF801309749F40E94DB310E94ED310E94AE10A1
:203D000001E010E025C1E130A0E0FA07C1F40E94F231159724F40E94432E0E94F7310E949D
:203D2000FA31159724F40E9417310E94FF310E94023221F00E940F3202E010E009C1E23060
:203D4000A0E0FA07C1F40E941932159724F40E94432E0E941E320E942132159724F40E941C
:203D600026320E942B320E942E3221F00E94DB3103E010E0EDC0E330A0E0FA0789F40E94F8
:203D80001932159724F40E943B320E941E320E941932159721F40E94DB3104E010E0D8C04B
:203DA000E430A0E0FA0789F40E94F231159724F40E948C300E943F320E94F231159721F471
:203DC0000E94DB3105E010E0C3C0E530A0E0FA0711F00C94671F0E94C42D0E94832E0E9498
:203DE00036049F01022E032A11F40AE912E00E94423221F00E9449320E94C42E0E944D32A9
:203E00000E22AC85BD850E942131E02121F00E9449320E94C42E0E9456320E22AE85BF8577
:203E20000E942131E02121F00E9449320E94C42E0E945F320E22A889B9890E942131E02100
:203E400021F00E9449320E94C42E0E9468320E22AA89BB890E942131E02121F00E9449329A
:203E60000E94C42E0E9471320E22AC89BD890E942131E02121F00E9449320E94C42E0E9465
:203E80007A320E22AE89BF890E942131E02121F00E9449320E94C42E0E9483320E22A88D54
:203EA000B98D0E942131E02121F00E9449320E94C42E0E948C320E22AA8DBB8D0E94213102
:203EC000E02121F00E9449320E94C42E41C0E630A0E0FA0789F40E94F231159724F40E94DF
:203EE000432E0E94F7310E94F231159721F40E94DB3107E010E02CC0E730A0E0FA0779F48B
:203F00000E941932159714F40E9495320E941932159721F40E94DB3104E010E019C0EA396B
:203F2000A2E0FA07A9F40E94F231159724F40E94432E0E94F7310E94F231159749F40E94AB
:203F40000F3204E610E0E0E0E0938905E0938A05C8CE0E94AC310E9421310E2E0E94B131BA
:203F60000E9426310E94B6310E949A320E949F320E220E94A432E02111F40C94F5200E94D9
:203F8000B131119711F00C94F520F801309739F40E94DB310E94AD3201E010E025C1E130FD
:203FA000A0E0FA07C1F40E94F231159724F40E94432E0E94F7310E94FA31159724F40E9432
:203FC00017310E94FF310E94023221F00E940F3202E010E009C1E230A0E0FA07C1F40E9477
:203FE0001932159724F40E94ED310E941E320E942132159724F40E94B3320E942B320E941F
:204000002E3221F00E94DB3103E010E0EDC0E330A0E0FA0789F40E941932159724F40E949D
:20402000B8320E941E320E941932159721F40E94DB3104E010E0D8C0E430A0E0FA0789F4CA
:204040000E94F231159724F40E948C300E943F320E94F231159721F40E94DB3105E010E05D
:20406000C3C0E530A0E0FA0711F00C94B3200E94C42D0E94882E0E9436049F01022E032AEF
:2040800011F40AE912E00E94423221F00E9449320E94C42E0E944D320E22AC85BD850E94F8
:2040A0002131E02121F00E9449320E94C42E0E9456320E22AE85BF850E942131E02121F014
:2040C0000E9449320E94C42E0E945F320E22A889B9890E942131E02121F00E9449320E9494
:2040E000C42E0E9468320E22AA89BB890E942131E02121F00E9449320E94C42E0E947132EF
:204100000E22AC89BD890E942131E02121F00E9449320E94C42E0E947A320E22AE89BF8940
:204120000E942131E02121F00E9449320E94C42E0E9483320E22A88DB98D0E942131E021D1
:2041400021F00E9449320E94C42E0E948C320E22AA8DBB8D0E942131E02121F00E9449326B
:204160000E94C42E41C0E630A0E0FA0789F40E94F231159724F40E94432E0E94F7310E948E
:20418000F231159721F40E94DB3107E010E02CC0E730A0E0FA0779F40E941932159714F424
:2041A0000E9495320E941932159721F40E94DB3104E010E019C0EA39A2E0FA07A9F40E94A8
:2041C000F231159724F40E94432E0E94F7310E94F231159749F40E940F3204E610E0E0E0F0
:2041E000E0938B05E0938C05CACE0E940C366E9608950E94962D0F010E94122E0E161F06FB
:204200009CF0E0910005E0640E947F310E94BF320E94C4320E94AC04E9E6F7E0FA93EA93D9
:204220000E94C4320E94AC040E94A12D0F010E940D2E0E161F069CF0E0910005E0640E9406
:204240007F310E94BF320E94C7320E94AC04E4E8F7E0FA93EA930E94C7320E94AC040895F7
:2042600024970E940536E0E0EE83EF830E94C42D0E94BF2E0E9436048F010E94C42D0E9440
:20428000C42D0E943604AF01E1E0F0E0E017F10711F00C940622EE81FF81309739F40E94D3
:2042A000DB31E1E0F0E0EE83FF83AFC0E130A0E0FA07D1F40E94F231159724F40E94432E0C
:2042C0000E94F7310E94FA31159724F40E9417310E94FF310E94023231F00E940F32E2E02B
:2042E000F0E0EE83FF8391C0E230A0E0FA07C1F40E941932159724F40E94CA320E941E3221
:204300000E942132159724F40E94CA320E942B320E942E3221F00E94DB310E94CF3275C0AE
:20432000E330A0E0FA0711F00C94DE210E94F231159724F4E2E0F0E00E943F320E94FA314E
:20434000159734F4E2E0F0E00E94B12D0E94FF310E94023291F10E940F320E94C42D0E9435
:20436000BF2E0E943604E887F987309711F1E130A0E0FA0719F4E3E0F0E01DC0E230A0E01B
:20438000FA07D9F4E1E0F0E0E0937D05F0937E05E0910005EF7B0E947F310E94902D0E9490
:2043A000262E0E94E1040E94BF320E94C4320E94AC04E4E0F0E0EE83FF8327C0E430A0E0A3
:2043C000FA0719F50E94F231159724F40E94432E0E94F7310E94FA31159724F40E941731ED
:2043E0000E94FF310E94023281F00E94DB310E94432E0E94C42D0E94BF2E0E94C904E5E08D
:20440000F0E0EE83FF8300E010E03ECF0E94C42D0E94C42D0E943604AF01E0E0EE83EF83A7
:20442000E1E0F0E0E417F50711F00C94D722EE81FF81309739F40E94DB31E1E0F0E0EE83C7
:20444000FF83B4C0E130A0E0FA07D1F40E94F231159724F40E94432E0E94F7310E94FA31DC
:20446000159724F40E9417310E94FF310E94023231F00E940F32E2E0F0E0EE83FF8396C007
:20448000E230A0E0FA07C1F40E941932159724F40E94CA320E941E320E942132159724F4DA
:2044A0000E94CA320E942B320E942E3221F00E94DB310E94CF327AC0E330A0E0FA0711F02C
:2044C0000C94AF220E94F231159724F4E2E0F0E00E943F320E94FA31159734F4E2E0F0E00A
:2044E0000E94B12D0E94FF310E940232B9F10E940F320E94C42D0E94C42D0E9436049F0165
:20450000F901309729F4E4E0F0E0EE83FF8326C0E130A0E0FA0719F40E94CF321FC0E2301D
:20452000A0E0FA07D9F4E4E0F0E0EE83FF83E1E0F0E0E0937F05F0938005E0910005EF7B36
:204540000E947F310E949B2D0E942D2E0E94E1040E94BF320E94C7320E94AC0427C0E430A0
:20456000A0E0FA0719F50E94F231159724F40E94432E0E94F7310E94FA31159724F40E9413
:2045800017310E94FF310E94023281F00E94DB31E5E0F0E0EE83FF830E94432E0E94C42DDE
:2045A0000E94C42D0E94C90440E050E039CF0E940C362A960895E0E0EBBBEFEFEABBE0E0B7
:2045C000E8BBEFEFE7BBE0E0E5BBEFEFE4BBE0E0E2BBEFEFE1BBE0E0E3B9EFEFE2B9E0E06F
:2045E000E0936200EFEFE0936100E0E0E0936500EFE1E0936400E0E0E0BFE7E0E3BFE0E06D
:20460000E2BFE1BFEFBDEEBDEDBDECBDE7BDE6BDEBBDEABDE9BDE8BDE0937900E0937800F7
:20462000E5BDE4BDE3BDE0938B00E0938A00E0938900E0938800E0938100E0938000E0934B
:204640008700E0938600E0938500E0938400E0938300E0938200E0936A00EABFE9BFE1E011
:20466000E7BFE0E0E0937D00EBB9E8E1EAB9E6E0E0939500E0E0E0939000E8E0E9B9E0E019
:20468000E0939A00E0E8E8B9E0E0E0BDE6B9EDB9E09374000E941E3578940E94D4320E94D0
:2046A000D4320E94D4320E94D4320E945D2DE3E0EA930E94E22BE0E8EA930E94E22BE2E0D3
:2046C000EA930E94E22BE0E1EA930E94E22BE1E0F0E05F01CC24DD240E94DA32E0E0E093FE
:2046E0006105E09362050E94E1320E94E732689420F821F81E9A22F8E7EBF0E0E09367058A
:20470000F0936805E4E6F0E0E0938105F0938205E0938305F0938405E1E0F0E0E093850577
:20472000F0938605E2E3F0E0E0938705F0938805E1E4F0E0E0939305F0939405E0E5F0E076
:20474000E0934105F0934205E0E0E0934305E0934405E0E4F0E0E0934505F0934605E0E0C0
:20476000E0934705E09348050E9458190E94BF190E9429060E940D1B0E94C61A3ADD70DDAC
:204780000E94E1040E94CA0585DA0E942906D6010E9426310E2E0E94C7310E949A32E1E01C
:2047A000F0E00E9499350E220E94D1311E2E0E94A4320E2E0E949A320E942131E029E12178
:2047C0000E2EA0916105B09162050E942631E02911F40C94C62BE0914D05F0914E05309768
:2047E00011F00C94BD24C69AE0916105F0916205309711F00C9459240E9417310E94792E00
:204800000E94C9040E9417310E94882E0E94C9040E94432E0E944E2E0E94542E0E94C42D90
:204820000E94592E0E94482E0E94602E0E94692E0E94722E0E94BF2E0E94832E0E943604CE
:20484000E0938105F09382050E94BF2E0E94882E0E943604E0938305F0938405E0E3F0E0F8
:204860000E94BD2D0E943604E0938505F09386050E94BF2E0E947E2E0E943604E09387050D
:20488000F09388050E94ED320E2E0E94A432E02139F00E94EF32E0933705F093380505C072
:2048A000E0E0E0933705E09338050E94ED310E94AE10E1E0F0E0E0936105F09362050E94C3
:2048C000F432119789F41E980E941932159724F40E94B3320E941E320E942132159724F4F4
:2048E0000E94432E0E942B320E94F432129791F40E940D1B0E941932159724F40E9426323B
:204900000E941E320E942132159724F40E94ED310E942B320E942E3279F10E94F432129750
:2049200059F41E9903C00E94C61AFBCFE8EBFBE0FA93EA930E9470350E94D4320E94DB310F
:204940000E94E7320E94F9320E94F432119741F40E94392E0E940D04E130D1F30E94FF32C6
:204960000E94F432129741F40E94392E0E941004E130D1F30E94FF3207C7E130A0E0FA07CA
:2049800011F00C9410250E9406330E942631E02129F01F9A0E943B320E942B320E940633B1
:2049A0000E940D3339F01F9A0E940D1B0E94B8320E942B320E9413330E94A5350E9417338E
:2049C000E02121F00E941E330E94FF310E9421330E9493350E2E0E9413330E949335E02111
:2049E000F1F00E9425330E942B330E9435330E94F432119741F40E94392E0E940D04E13060
:204A0000D1F30E943A330E94F432129741F40E94392E0E941004E130D1F30E943A33B4C600
:204A2000E230A0E0FA0771F50E94F432129711F40E940D1B0E94FA31159724F40E94413396
:204A40000E94FF310E94FA311597D9F41A9A0E9448330E94F432119741F40E94392E0E941D
:204A60000D04E130D1F30E944E330E94F432129741F40E94392E0E941004E130D1F30E9451
:204A80004E3382C6E330A0E0FA0711F00C94A7250E94F432129711F40E940D1B0E94133324
:204AA0000E94A5350E2E0E945E33E02131F00E94A5300E94B12D0E94FF310E9413330E9496
:204AC00093350E2E0E94172E0E946F330E94A535E021E1F10E9474330E9448330E94172E0B
:204AE0000E946F33EA17FB07C9F40E94F432119741F40E94392E0E940D04E130D1F30E94DA
:204B00007C330E94F432129741F40E94392E0E941004E130D1F30E947C3318C00E94F432BB
:204B2000119741F40E94392E0E940D04E130D1F30E943A330E94F432129741F40E94392E49
:204B40000E941004E130D1F30E943A331DC6E430A0E0FA0771F50E94F432129711F40E94C5
:204B60000D1B0E94FA31159724F40E941E330E94FF310E94FA311597D9F41A980E944833A2
:204B80000E94F432119741F40E94392E0E940D04E130D1F30E9483330E94F432129741F4E1
:204BA0000E94392E0E941004E130D1F30E948333EBC5E530A0E0FA0711F00C9492260E94C8
:204BC0008F330E949A33E02121F00E94432E0E941E320E948F330E949D3321F00E94ED31E6
:204BE0000E941E320E94F432129711F40E940D1B0E94A0330E9493350E94A4330E94213137
:204C0000E02141F00E942533E1E0F0E0E0934F05F09350050E94A0330E94AA330E9426314B
:204C20000E949A33E02121F00E943B320E941E320E94A0330E94AA330E9426310E949D3393
:204C400021F00E94B8320E941E320E94A0330E94AA330E940D3311F00E9495320E9421338F
:204C60000E94AD330E942131E02121F0E3E0F0E00E94B5330E9421330E94AD330E9426311E
:204C80000E949A33E02121F00E9426320E942B320E9421330E94AD330E9426310E949D33B7
:204CA00021F00E94B3320E942B320E94A0330E9493350E9417330E22A0914F05B091500547
:204CC0000E942631E0211E2E0E94A0330E9493350E9417330E22A0914F05B09150050E94D6
:204CE0000D33E129F1F00E9425330E942B330E94B8330E94F432119741F40E94392E0E94B2
:204D00000D04E130D1F30E94BD330E94F432129741F40E94392E0E941004E130D1F30E943F
:204D2000BD3332C5E630A0E0FA0711F00C94FC260E94F231159724F40E948C300E943F3238
:204D4000A0915D05B0915E05119721F4E5E0F0E00E94A0310E94FA31159724F40E944133B0
:204D60000E94FF310E94F432129711F40E940D1B0E9413330E9493350E2E0E94C5330E9457
:204D80009335E021C1F10E94C9330E2E0E94F4320E942631E0211E2E0E94D5330E2E0E9428
:204DA000F4320E940D33E12909F01A9AC49A1B9A0E940F320E94DE330E94FC3524F40E94FE
:204DC000E3330E94ED330E94F432119741F40E94392E0E940D04E130D1F30E94F1330E945D
:204DE000F432129741F40E94392E0E941004E130D1F30E94F133C8C4E730A0E0FA0711F030
:204E00000C944D270E94F432129711F40E940D1B0E9419320E9421310E2E0E94212EA0E0B0
:204E2000B0E00E949335E029B9F10E942533E0E0E0935705E09358050E94212E309731F48F
:204E4000E5E0F0E00E9465310E940134E0E00E9435330E940834E0E0E0935905E0935A05A3
:204E6000E0935B05E0935C050E94F432119741F40E94392E0E940D04E130D1F30E940E3471
:204E80000E94F432129741F40E94392E0E941004E130D1F30E940E3477C4E830A0E0FA0720
:204EA00011F00C9404290E94153414F40E9426340E94F432129711F40E940D1B0E94A03380
:204EC0000E94A5350E2E0E94212EDF010E949F320E942A340E942131E02121F00E9491306D
:204EE0000E9430340E94A0330E9433340E942131E02121F00E9425330E9401340E94A033E2
:204F00000E94A5350E2E0E94212E0E943B340E942631E02131F0E0917505F09176050E9433
:204F200030340E94A0330E9493350E2E0E94212E0E943B340E942631E02131F00E942533DB
:204F4000A1E5B5E00E9442340E94212EA0915105B09152050E9433340E942631E02131F0EA
:204F60000E942533E2E0F0E00E9448340E94A0330E944D340E940D3331F0E0917905F0917C
:204F80007A050E9430340E94A0330E9433340E940D3331F00E942533E3E0F0E00E94483460
:204FA0000E94C5330E944D34E3E0F0E00E949335E02131F0E0917705F09178050E943F3217
:204FC0000E94C5330E943334E3E0F0E00E949335E021F1F00E940834A3E5B5E00E9442343C
:204FE0000E941C2EA0915305B0915405EA17FB0729F4E4E0F0E00E94483405C0E0E0E093D8
:205000005705E09358050E942533E0E00E94B8330E945534119721F4E5E0F0E00E94A0312D
:205020000E9413330E945A340E9421310E9462340E220E945E330E946834E02131F00E94C7
:20504000A5300E94B12D0E94FF310E9413330E9493350E2E0E94172E0E946F330E94A535F4
:205060000E9462340E946834E02121F1E0915D05F0915E05309711F40E944833E0915B0536
:20508000F0915C05309749F40E947433E1E0F0E0E0935B05F0935C050DC0E0E0E0935B0539
:2050A000E0935C05E0932905E0932A05E0932B05E0932C050E9413330E945A340E94263181
:2050C0000E9462340E946834E02121F00E9441330E94FF310E946B340E2E0E9413330E9459
:2050E00093350E220E94172E0E946F330E949335E0211E2EA0915705B0915805E1E0F0E01A
:205100000E9499350E2E0E941C2EA0915305B09154050E949935E029E12141F00E9448330B
:20512000E1E0F0E0E0939105F09392050E946B340E2E0E946D340E220E9413330E94A53567
:20514000E02121F00E941E330E94FF310E946B340E2E0E9413330E9493350E220E946D3436
:20516000E02129F0E0E0E0939105E0939205A0915705B0915805E4E0F0E00E9493356E2F7C
:205180000E2E0E94172E0E946F330E9493350E220E9413330E9493350E946234E0211E2E37
:2051A000062E0E9455340E942631E021E12959F1E0E0E0939105E09392050E94DB31E0E001
:2051C0000E943533E0E0E0935305E09354050E9408340E9426340E94F432119741F40E944D
:2051E000392E0E940D04E130D1F30E9472340E94F432129741F40E94392E0E941004E13002
:20520000D1F30E947234C0C2E930A0E0FA0711F00C94A2290E94F432119771F50E94C5338A
:205220000E94A5350E2E0E94C933E02121F00E94ED310E94F7310E9413330E9479340E94A3
:20524000813421F00E941E330E94FF310E94C5330E9479340E94873421F00E94432E0E94B7
:20526000F7310E9413330E9479340E948D3421F00E9417310E94FF310E94F4321297A1F598
:205280000E94C5330E94A5350E2E0E94D533E02121F00E94ED310E94F7310E9413330E94EC
:2052A00093340E94813421F00E941E330E94FF310E94C5330E9493340E94873421F00E94E7
:2052C000432E0E94F7310E9413330E9493340E948D3421F00E9417310E94FF310E94F4324A
:2052E000129711F40E940D1B0E94023251F11A981B98C4980E944833E0E00E94B833A5E569
:20530000B5E00E944234E2E0F0E0E0934F05F09350050E94F432119741F40E94392E0E945F
:205320000D04E130D1F30E9497340E94F432129741F40E94392E0E941004E130D1F30E943E
:20534000973422C2EA30A0E0FA0711F00C941D2A0E94F4320E9426310E949E3461F10E94F2
:20536000A9340E94792E0E94C9040E94AE34AE17BF0724F40E94B4340E94F9320E94AE3496
:20538000EA17FB0721F40E94B4340E94BB340E94C2340E949335E02121F0EBE0F0E00E9489
:2053A000D1340E94C2340E949935E02121F0EEE0F0E00E94D1340E94F432129711F40E9471
:2053C0000D1B0E94F432E2E0F0E00E9493350E949E3491F10E94A9340E94882E0E94C904A5
:2053E0000E94EF3231970E94DE33AE17BF0724F40E94B4340E94F9320E94EF3231970E9448
:20540000DE33EA17FB0721F40E94B4340E94BB340E94D6340E949335E02121F0ECE0F0E084
:205420000E94D1340E94D6340E949935E02121F0EEE0F0E00E94D134A7C1EB30A0E0FA074E
:20544000A9F50E94F432129711F40E940D1B0E941932159724F4E7E0F0E00E9430340E947E
:205460002132159724F4E0E9F1E00E94B5330E942E32D9F00E94ED330E9425330E94DF34B5
:2054800041F40E94392E0E940D04E130D1F30E94E7340E94F432129741F40E94392E0E9438
:2054A0001004E130D1F30E94E7346EC1EC30A0E0FA07A9F50E94F432129711F40E940D1B9C
:2054C0000E941932159724F4E7E0F0E00E9430340E942132159724F4E1E9F1E00E94B533A0
:2054E0000E942E32D9F00E94ED330E9425330E94DF3441F40E94392E0E940D04E130D1F3AA
:205500000E94E7340E94F432129741F40E94392E0E941004E130D1F30E94E73435C1ED30C4
:20552000A0E0FA0761F50E94F432129711F40E940D1B0E942132159724F4E2E9F1E00E945D
:20554000B5330E9421321597C9F40E9426340E94DF3441F40E94392E0E940D04E130D1F38E
:205560000E94EA340E94F432129741F40E94392E0E941004E130D1F30E94EA3405C1EE308D
:20558000A0E0FA0789F50E94F432129711F40E940D1B0E941932159714F40E9495320E9420
:2055A0001932159701F50E9425330E94E3330E94F432119751F40E94392E0E940D04E130CA
:2055C000D1F3EFE0F0E00E94D1340E94F432129751F40E94392E0E941004E130D1F3EFE0A8
:2055E000F0E00E94D134D0C0EF30A0E0FA0731F50E94F432129711F40E940D1B0E94ED33DC
:205600000E941534D4F40E9426340E94F432119741F40E94392E0E940D04E130D1F30E9403
:20562000EA340E94F432129741F40E94392E0E941004E130D1F30E94EA34A6C0E031A0E05B
:20564000FA0711F00C94A02BE0913505F09136050E94DE330E9493350E2E0E94ED340E94B8
:205660002131E02101F10E94E7321F980E949A320E94FC3574F4E2E0F0E0E0935F05F093DE
:2056800060050E94AD32E0E0E0934D05E0934E0504C0E1E1F0E00E94D134E1E0F0E0E093D8
:2056A0006305F09364050E94EF320E94DE330E9493350E2E0E94ED320E220E94ED340E9424
:2056C0002631E02179F01F980E94E732E1E1F0E00E94D1340E94DA32E2E0F0E0E093630543
:2056E000F09364050E94F2340E2E0E94ED320E220E94ED340E940D3351F00E94DA320E9493
:20570000E1321F98C6980E9417310E94B4300E94F2340E2E0E949A320E9421310E220E94B9
:20572000ED340E942631E02151F00E94DA320E94E1321E9AC6980E9417310E94B43024C040
:20574000E131A0E0FA0701F50E941932159724F40E94B3320E941E320E942132159724F4DD
:205760000E94432E0E942B320E942E3269F00E94DB31E0E0E0936105E0936205CC24DD24AA
:20578000E0934D05E0934E050C94C7230C94BA23FFCFA991B991EE27FF276D91662311F062
:2057A0003196FBCF0895AA27BB27E991F9910590002011F01196FBCFFD0108955F9BFECF7B
:2057C000ECB108955D9BFECFE881ECB921960895EA81EA93F7DFA881B9810E944234239676
:2057E000089526970E94053610E0AC85BD850E94D82EEA89FB893196EA8BFB8B3197E49171
:205800002E2FE03011F40C941C2DE12FE03039F4253211F411E002C00E94F7340CC1E13026
:20582000A9F4253219F40E94F73404C112E040E000E02D3211F401E0FEC02B3211F44BE251
:20584000FAC0203211F440E2F6C002C0E23039F450E013E0203311F40068EDC004C0E330F7
:2058600011F00C941B2D203310F02A3308F007C0AAE05A9F502DE22FE0535E0FDCC0E22F72
:20588000E33649F40E940035E889F989A481AA930E940635CFC0E33741F40E9400350E9452
:2058A0000E350E94C92B1E2F0AC0E03761F40E9400350E940E350E94D32B1E2F0860026019
:2058C0000F7730E035C0E43611F0E93611F4046002C0E53731F4ECE8F0E0EE83FF8315E00B
:2058E0000DC0E83511F4086004C0E83711F00C941A2DE6E9F0E0EE83FF8314E002FF14C02B
:205900000E9400350E941635AB85AA233AF4EA85FB850E948035EA87FB874DE2403011F0BF
:205920001F5F01C00B7F04C00E9400350E94163500FD11C0151778F407FF08C002FF04C01D
:205940000B7F242F115001C020E301C020E20E94F7345150EFCF312F01FF17C03030A1F02E
:2059600003FF06C0EE81FF812591EE83FF8305C0AE81BF812D91AE83BF830E94F734503015
:2059800009F051503150EACF4BC020E3EE81FF810E94C735E887F987EE81FF813296EE8381
:2059A000FF83E885F985AA85BB85AE17BF0750F02F5FA885B985EA85FB85EA1BFB0BEA87DC
:2059C000FB87EFCF2A3328F003FF02C0295F01C0295D04FD1AC0213320F4A885B985119729
:2059E00009F409C0531710F000FF01C013C020E207FF0BC020E3006102FF07C00B7F4A937E
:205A00000E940635503009F051500E94F734503009F051503150A885B985129708F0B5CF97
:205A200000FF08C0503031F05150E0E2EA930E940635F8CF10E0DDCEAC85BD850E94B935DC
:205A40000E940C3664960895FF92F82E26971A930A93DE0114960E947C358D01E0E0EC8374
:205A6000ED83EE83EF83DE0118960E947C350E94B9350E94C92EE8EEFBE2FA93EA93FE010E
:205A80003896FA93EA93ADDE198108812896FF9008950E942335E881EA930E945735E0E0C8
:205AA000EA930E943C35EA830E943235EA810895E295EF70E695E6950895EAE5EA930E9481
:205AC000E22BE5EAEA930C94E22BEA930E94E22BEC81EA930E94E22BEA81EA930C94E22B66
:205AE0000E94DE2B0E94DE2B0C94DE2B0E94BD35EF5FFF4F6F4F7F4F0E94C2350895ED9137
:205B0000FD913196FE93EE93319708950E948935A03DE9E5BE07E3E08E07E0E09E0708958F
:205B2000E0E0E0938F05E09390050895A8E0B0E00E94D3350895E0E0E0938D05E0938E05CF
:205B40000895A6E0B0E00E94D3350895EE81FF81FA93EA9308950E94E22BE2E8EA930C941F
:205B6000E22BFA93EA93E0E0F0E0FA93EA930895E0E9F0E0FA93EA930895FA93EA93E0E1CC
:205B8000F0E0FA93EA930895E0E3F0E0FA93EA930895AC85BD85E1E0F0E00E9493350E2EAA
:205BA0000895ABE0B5E0EE0FFF1FAE0FBF1F0895E0EAF0E0FA93EA93EA85FB85FA93EA9338
:205BC000EA85FB85FA93EA930C94AC04FA93EA93EA85FB850895FA93EA930C94AC04AA855D
:205BE000BB85E1E0F0E00E949335E0210895AA85BB85E0E0F0E00E949335E0210895AC8594
:205C0000BD85E2E0F0E00E9493350E2E0895DF01EFEFF0E00E949F350895AAE0B0E00E9410
:205C2000D3350895ACE0B0E00E94D3350895A0E0B0E00E94D3350895A2E0B0E00E94D33549
:205C40000895A4E0B0E00E94D3350895A8E0B0E0E0E0F0E00E94E3350895A6E0B0E0E0E077
:205C6000F0E00E94E3350895E3E0F0E00E94E3350895E6E0F5E0A1E00E94CB35E7E7F0E0B7
:205C8000FA93EA930895E0E0F0E0FA93EA930895E0E4F0E0FA93EA930C943604E0E8F0E016
:205CA000FA93EA930C943604E0933505F0933605EACF0E943604E0933705F093380564CF5E
:205CC000A0E0B0E00E94E335E0E2F0E0FA93EA934FCF0E943604A2E0B0E00E94E335E0E3D5
:205CE000F0E03FCF0E943604A4E0B0E00E94E3350895E0E1F0E0FA93EA930895E0E7F0E0B0
:205D0000FA93EA930895E0E5F0E0FA93EA930895E0E6F0E0FA93EA930895E3E0F5E0A1E04A
:205D20000E94CB35E9E7F0E0FA93EA930895E0EAF0E0FA93EA93E0914105F0914205FA93CA
:205D4000EA93E0914305F091440545CFE0914105F0914205FA93EA93E0914305F091440523
:205D60003ACFE1E0F5E0A1E00E94CB35E3E7F0E0FA93EA930895E029E0930205F2CFE0E21A
:205D8000F0E0FA93EA930895E1E0F0E0ED93FC930895FA93EA931A930A930895E1E0F0E0CD
:205DA000FA93EA930C94F004ED93FC93F801F9CEE0E0F0E0ED93FC930895FA93EA93C6CF9B
:205DC000E0936905F0936A05EFE6F5E00895A1E1B0E0A083B183E1E7F5E00895ABE1B0E0EA
:205DE000A083B183E3E7F5E0A6E9B1E0A083B183E7E7F5E0A1E1B0E00895A0E1B0E0A083B0
:205E0000B1830895E1E7F5E0ACE1B0E0A083B183E3E7F5E0A0E9B1E0A083B183E7E7F5E0ED
:205E20000895EBE7F5E0A0E0B0E00895A8E1B0E0A083B183E3E7F5E0A6E9B1E00895A08382
:205E4000B183E7E7F5E0A2E1B0E0A083B183E9CFAFE1B0E0A083B183E3E7F5E0A6E9B1E013
:205E60000895A083B183DDCFA083B183E7E7F5E0A1E1B0E00895AFE1B0E0A083B183E3E798
:205E8000F5E0A9E9B1E00895A9E1B0E0A083B183E3E7F5E0A9E9B1E00895A1E2B0E0A08367
:205EA000B183E3E7F5E0A9E9B1E00895A0E2B0E0A083B183E3E7F5E0A9E9B1E0C0CFE1E7CD
:205EC000F5E0A6E1B0E0A083B183E3E7F5E0A0E9B1E0A083B183E7E7F5E00895ADE1B0E011
:205EE000A083B183E3E7F5E00895A9E9B1E0A7CFA0E9B1E0A083B183E7E7F5E0AFE0B0E043
:205F00000895A8E1B0E0A083B183E3E7F5E0A0E9B1E0AACFA0E2B0E0A083B183E3E7F5E03A
:205F20000895A1E2B0E0A083B183E3E7F5E00895A6E9B1E084CFAEE1B0E0A083B183E3E76B
:205F4000F5E0D6CFA2E1B0E0A083B183E1E7F5E0A2E2B0E0A083B183E3E7F5E0A6E9B1E096
:205F6000A083B183E7E7F5E00895ACE9B1E067CFE1E7F5E0AEE1B0E0A083B183E3E7F5E07C
:205F8000A6E9B1E071CFE0E0E0936905E0936A05EFE6F5E0A0E0B0E0A083B183E1E7F5E070
:205FA000A083B183E3E7F5E0A083B183E7E7F5E058CFABE1B0E0A083B183E3E7F5E008951B
:205FC000A9E1B0E0A083B183E3E7F5E0A0E9B1E0A083B183E7E7F5E0A3E1B0E00895A9E162
:205FE000B0E0A083B183E3E7F5E0A0E9B1E03CCFACE1B0E0A083B183E3E7F5E00895AAE1BB
:20600000B0E0A083B183E3E7F5E00895A6E1B0E0A083B183E3E7F5E0A3E9B1E00895A6E907
:20602000B1E022CFAEE1B0E0A083B183E3E7F5E00895A9E1B0E0A083B183E3E7F5E0A3E990
:20604000B1E00895A4E1B0E0A083B183E3E7F5E0A0E9B1E00895A083B183E3E7F5E00895BD
:20606000A2E1B0E0A083B183E1E7F5E0A4E2B0E0F2CFA6E9B1E0A083B183E7E7F5E008958B
:20608000A3E2B0E0E8CFA083B183E7E7F5E0AFE0B0E00895AFE1B0E0DECFA9E1B0E0DBCFED
:2060A000E1E7F5E01BCFA2E1B0E0A083B183E1E7F5E0F0CFE1E7F5E0A7E1B0E0CCCFA3E9B7
:2060C000B1E0A083B183E7E7F5E0A3E1B0E00895AFE0B0E0A083B183E1E7F5E00895A083B1
:2060E000B183E7E7F5E0A3E1B0E00895A8E1B0E0B2CFA2E1B0E0A083B183E1E7F5E0C0CFE8
:20610000A0E9B1E0A083B183E7E7F5E00895E0916905F0916A050895E0917105F091720583
:206120000895E0917305F091740508953196E0937505F0937605E0917505F09176053196E2
:20614000E0937905F0937A050895E0916F05F09170050895A0918505B09186050895E093A0
:206160007305F0937405DDCFE0E4F0E0FA93EA930C94C904FA93EA9302CEE0EAF0E0FA93F3
:20618000EA93E0914505F0914605FA93EA93E0914705F09148051FCDFA93EA93E0914505B5
:2061A000F0914605FA93EA93E0914705F091480512CDE8EEF3E0FA93EA930C9470350E9405
:2061C0000D04A1E00E948E3508950E941004A1E00E948E3508950E941904A1E00E948E354D
:2061E0000895E5E0F5E0A1E00E94CB35E1E7F0E0FA93EA930895E4E0F5E0A1E00E94CB354A
:20620000E5E7F0E0FA93EA9308950E942E04A1E00E948E3508950E942904A1E00E948E352F
:2062200008950E942304A1E00E948E350895E0E0F0E097CCEA230E2EA0916505B0916605F2
:206240000895E0E0F0E00E9493350895E1E0F0E00E9493350895A0916505B0916605E2E069
:20626000F0E00E9493350E2EA0E01E99A1E00895E0E0E0936505E0936605E4E6F0E0FA93B1
:20628000EA930C947035E0E0E0932105E0932205E0932305E09324050895E0E8F0E0FA9350
:2062A000EA930C94C904E0E0E0931105E0931205E0931305E09314050895A230E0E0BE0716
:2062C000E0E08E07E0E09E070895E0933905F0933A050895E0E0E0931905E0931A05E09301
:2062E0001B05E0931C050895E0933D05F0933E050895E029E0930005E09107050895E09327
:206300000005E09362000895E0E0E0931505E0931605E0931705E09318050895E0933B05BC
:20632000F0933C050895E09300050895E0E0E0931D05E0931E05E0931F05E0932005089530
:20634000E0933F05F09340050895DE011696EE0FFF1FAE0FBF1F0895A0918905B0918A05B4
:206360000895A0918B05B0918C0508950E22A0E09799A1E0E0E00E948E350E22E091000524
:2063800097DBE170A0E00E948E350E220895A0913505B0913605E1E0F0E00E94AB350E225E
:2063A0000895E0910D05F0910E05A0E0B0E00E949935E0210895E0E0E0933905E0933A05E8
:2063C000E0933D05E0933E05E0933B05E0933C05E0933F05E09340050895E1E0F0E0FA93C1
:2063E000EA930895A0913B05B0913C0508950E94E01C94CFA0913F05B091400508950E94B8
:20640000B21D9ECFEFDFE5E0F0E00E9493350E2EF1DFE5E0F0E00E949335E0210895E0E00A
:20642000E0933B05E0933C05E0933F05E09340050895A0913905B0913A0508950E94941B0C
:2064400044CFA0913D05B0913E050895E8E0F0E0FA93EA9308950E943A1C46CFEADFE5E0BB
:20646000F0E00E9493350E2EECDFE5E0F0E00E949335E02108954BDEFA93EA930895FA93E1
:20648000EA93B5CFD901E2E0F0E00E9493350E2EAECB06E010E0F90158CFD901E3E0F0E00C
:2064A0000E9493350E2EAA85BB85D0CED901E4E0F0E00E9493350E2EAC85BD85C7CED90133
:2064C000E5E0F0E00E9493350E2EAE85BF85BECED901E6E0F0E00E9493350E2EA889B989F5
:2064E000B5CED901E7E0F0E00E9493350E2EAA89BB89ACCED901E8E0F0E00E9493350E2EF9
:20650000AC89BD89A3CED901E9E0F0E00E9493350E2EAE89BF899ACED901EAE0F0E00E9479
:2065200093350E2EA88DB98D91CEE3E0F0E0FA93EA9384CFA0913705B09138050895E0E045
:20654000F0E00E94AB350895E0910F05F0911005A0E0B0E00E9499350895E2E0F0E0FA93F5
:20656000EA930C94AE10E9E0F0E0FA93EA930895E0916B05F0916C05FA93EA930895E0EABC
:20658000F0E0FA93EA930895E0E5F0E0EACAE0E4F0E0E7CAE9EFF1E0FA93EA930895E3E0E3
:2065A000F0E0EE83FF830895E0EDF7E0FA93EA930C947035E1E0F0E0E0935F05F093600538
:2065C0000895E0E0E0936305E09364050895E0E0E0935505E09356050895ACDFB0CFE09197
:2065E0003705F09138050895A0915F05B09160050895E0E0E0935D05E0935E050895E1E063
:20660000F0E0E0934D05F0934E0508951ADFE5E0F0E00E94A5350E2EE7CFE2E0F0E00E9442
:206620009335E0210895E6DEE5E0F0E008950E2E08DFE5E0F0E00E9493350895E1E0F0E0AE
:2066400090CAFFDEE5E0F0E00895E0E0E0933905E0933A050895E0E0E0933D05E0933E05E6
:20666000E0933F05E09340050895E0934B05E0934C050895E2E0F0E0E0934D05F0934E05BD
:206680000895E0916D05F0916E05FA93EA93A5CEE0E0E0933F05E09340050895E0E0E0930A
:2066A0002905E0932A05E0932B05E0932C05E3E0F0E0E0934D05F0934E050895E0919305EF
:2066C000F0919405A0912905B0912A0580912B0590912C050E9484350E94B1350895A0918D
:2066E0004B05B0914C050895ABE4B5E0ED91FD913196FE93EE930895E4E0F0E0E0934D051C
:20670000F0934E050895E0E0E0934F05E0935005E5E0F0E0E0934D05F0934E05089589DE83
:20672000E5E0F0E00E94A5350E2EA0914F05B091500587CD0E2258DF89CD0E2255DF6DCF40
:2067400078DEE5E0F0E008950E2EA0914F05B091500508950E94A535F7CF0E94A5350E2EC3
:20676000A0915D05B0915E050895FA93EA9373CEE0933B05E0933C0508951B9AE6E0F0E0AB
:20678000E0934D05F0934E0508952CDEE5E0F0E00895E0913505F09136053197A0915505CB
:2067A000B09156050E949935089519DF3197A0915505B09156050E9499350895A0915505B1
:2067C000B09156050895E0E0E0932505E0932605E0932705E09328050895E0910005E061F2
:2067E0008ECDE0E0E0932905E0932A05E0932B05E0932C05E7E0F0E0E0934D05F0934E05C2
:206800000895E1E0F0E0E0935705F09358050895E0E0E0935105E09352050895E8E0F0E076
:20682000E0934D05F0934E050895E0916705F0916805A0912505B091260580912705909130
:2068400028050E9484350E9400360895E0910005EF7E55CD0E22A0915705B091580508953E
:20686000FA93EA93EBCD0E9493350E2EA0915705B09158050895A0915105B09152050E9427
:20688000A535E8CFED91FD913196FE93EE930895E0935705F093580508950E94A5350E2EE1
:2068A000A0915705B09158050895A0915D05B0915E0508950E94A5350E2EA0915B05B091B2
:2068C0005C0508950E22A0919105B0919205B9CC0E22EBDFB6CCE9DFB4CCA0919105B0919A
:2068E0009205B4CCE9E0F0E0E0934D05F0934E0508950E94A5350E2EE0913505F091360591
:20690000089532975BDF0E94A535E0210895319755DF0E949335E021089532974FDF0E9420
:206920009F35E02108950E94A5350E2E58CEEAE0F0E0E0934D05F0934E0508950E2EA091C8
