:020000000C945E
:100002004F000C9400000C9400000C9400000C941F
:1000120000000C9400000C9400000C9400000C945E
:1000220000000C9400000C9400000C9400000C944E
:1000320000000C9400000C9400000C9400000C943E
:1000420082000C9400000C9400000C9400000C94AC
:1000520000000C9400000C9400000C9400000C941E
:1000620000000C9400000C9400000C9400000C940E
:1000720000000C9400000C9400000C9400000C94FE
:1000820000000C9400000C9400001027E8036400A8
:100092000A0001000010000110000100F894EE2790
:1000A200ECBBF1E0F5BFE5BFE0936C00F8E1F1BD18
:1000B200E1BD8DE0A2E0BB27ED938A95E9F780E0F0
:1000C20090E1A0E0B1E0ED930197E9F78BBFEFEF8C
:1000D200EDBFE0E1EEBFC0E0D5E00C9483001A93DF
:1000E2000A93E0919B001E2FE078D9F300919C00C7
:1000F200E12FEC7111F4E02F01C0F3CF09911991B6
:10010200089518952297E0E0EBBBEFEFEABBE0E041
:10011200E8BBEFEFE7BBE0E0E5BBEFEFE4BBE0E01D
:10012200E2BBE1BBE3B9E2B9E0936200E0936100B4
:10013200E0936500E0936400E0BFE5E0E3BFE0E048
:10014200E2BFE1BFEFBDEEBDEDBDECBDE7BDE6BD7B
:10015200EBBDEABDE9BDE8BDE0937900E09378002C
:10016200E5BDE4BDE3BDE0938B00E0938A00E0933C
:100172008900E0938800E0938100E0938000E0939F
:100182008700E0938600E0938500E0938400E0938B
:100192008300E0938200E0936A00EABFE9BFE1E0F6
:1001A200E7BFE0E0E0937D00EBB9E8E1EAB9E6E021
:1001B200E0939500E0E0E0939000E8E0E9B9E0E048
:1001C200E0939B00E8E1E0939A00E6E0E0939D0073
:1001D200E0E0E0939800E7E6E0939900E0E8E8B910
:1001E200E0E0E0BDE6B9EDB9E093740078940E94D6
:1001F2004B010E944B010E945101E3E0EA9344D07B
:10020200E0E8EA9341D0E2E0EA933ED0E0E1EA930B
:100212003BD065DF1E2F63DF0E2F61DF3E2F5FDFD6
:100222002E2F5DDF5E2F5BDF4E2F59DFE98357DF15
:10023200E88355DFE8830E9451010E9459011A9315
:1002420023D00A9321D03A931FD02A931DD05A93D8
:100252001BD04A9319D0E981EA9316D00E944B0130
:100262000E9451010E9459010E9469010E94690184
:100272000E9469010E9469010E9469010E9469014C
:100282000E946901C6CFFFCF5D9BFECFE881ECB92A
:1002920021960895E0EDF7E0FA93EA930C946D014C
:1002A200EAE5EA930E944501E5EAEA930C944501E6
:1002B200EAE0EA930E944501E2E8EA930E944501DE
:1002C200E0E0EA930E944501E0E5EA930C944501DF
:1002D200E0E3EA930C944501E991F991309639F003
:1002E20080EA9FE00197F1F7A8953197C9F7089541
:00000001FF
