:020000000C945E
:10000200D8040C9400000C9400000C9400000C9492
:1000120000000C9400000C9400000C9400000C945E
:1000220000000C9400000C9400000C9400000C944E
:1000320000000C9400000C9400000C9400000C943E
:1000420051050C9400000C9400000C9400000C94D8
:1000520000000C9400000C9400000C9400000C941E
:1000620000000C9400000C9400000C9400000C940E
:1000720000000C9400000C9400000C9400000C94FE
:1000820000000C9400000C9400001027E8036400A8
:100092000A000100001000011000010000002020F1
:1000A200202020202020202020202020202020204E
:1000B200202020202020202020202020202020203E
:1000C2002020202020202020202020202020005A14
:1000D200616369736B206E6965207A6D6965727AF6
:1000E2006F6E7920752057796B6F6E617763790037
:1000F2004B6C792077206B696572756E6B75207019
:10010200726177656A207374726F6E79004B6C79D5
:100112002077206B696572756E6B75206C657765EB
:100122006A207374726F6E79004369736E69656ECB
:100132006965207A61206D616C65202D206D6E6984
:10014200656A737A65206E697A2036206261720070
:1001520038362D303137300038362D3130343300D7
:1001620038362D313637350038362D3230393800B1
:1001720038372D303137300038372D3130343300B5
:1001820038372D313637350038372D32303938008F
:1001920038362D303139320038362D313035340091
:1001A20038362D313637360038362D32313332007B
:1001B20038372D303139320038372D31303534006F
:1001C20038372D313637360038372D323133320059
:1001D20038362D303139330038362D313231360050
:1001E20038362D313833320038362D32313734003B
:1001F20038372D303139330038372D31323136002E
:1002020038372D313833320038372D323137340018
:1002120038362D303139340038362D31333431000F
:1002220038362D313833330038362D3231383000FC
:1002320038372D303139340038372D3133343100ED
:1002420038372D313833330038372D3231383000DA
:1002520038362D303636330038362D3133343900C6
:1002620038362D313833340038362D3232303400BE
:1002720038372D303636330038372D3133343900A4
:1002820038372D313833340038372D32323034009C
:1002920038362D303736380038362D313335370081
:1002A20038362D313834380038362D32323132007A
:1002B20038372D303736380038372D31333537005F
:1002C20038372D313834380038372D323231320058
:1002D20038362D303830300038362D313336330051
:1002E20038362D313930340038362D32323431003F
:1002F20038372D303830300038372D31333633002F
:1003020038372D313930340038372D32323431001C
:1003120038362D303831310038362D313532330010
:1003220038362D313932390038362D3232363100F5
:1003320038372D303831310038372D3135323300EE
:1003420038372D313932390038372D3232363100D3
:1003520038362D303831340038362D3135333000CF
:1003620038362D313933360038362D3232383500B1
:1003720038372D303831340038372D3135333000AD
:1003820038372D313933360038372D32323835008F
:1003920038362D303831350038362D31353531008B
:1003A20038362D313934310038362D323238360074
:1003B20038372D303831350038372D313535310069
:1003C20038372D313934310038372D323238360052
:1003D20038362D303831360038362D313535320049
:1003E20038362D323030370038362D32323932003D
:1003F20038372D303831360038372D313535320027
:1004020038372D323030370038372D32323932001A
:1004120038362D303831370038362D31363032000B
:1004220038362D323031370038362D3233383400F9
:1004320038372D303831370038372D3136303200E9
:1004420038372D323031370038372D3233383400D7
:1004520038362D303834370038362D3136323000C8
:1004620038362D323031390038362D3233383500B6
:1004720038372D303834370038372D3136323000A6
:1004820038372D323031390038372D323338350094
:1004920038362D303835340038362D313632320088
:1004A20038362D323032380038362D323433370078
:1004B20038372D303835340038372D313632320066
:1004C20038372D323032380038372D323433370056
:1004D20038362D303836320038362D313632350046
:1004E20038362D323035320038362D32343932003A
:1004F20038372D303836320038372D313632350024
:1005020038372D323035320038372D323439320017
:1005120038362D303933350038362D3136343800FF
:1005220038362D323038320038362D323530300000
:1005320038372D303933350038372D3136343800DD
:1005420038372D323038320038372D3235303000DE
:1005520038362D313031390038362D3136343900C4
:1005620038362D323038330038362D3235383500B2
:1005720038372D313031390038372D3136343900A2
:1005820038372D323038330038372D323632340096
:1005920038362D313032370038362D313636390083
:1005A20038362D323038370038362D323632340074
:1005B20038372D313032370038372D313636390061
:1005C20038372D323038370038372D32353835004C
:1005D2004E69652077637A7974616E6F207A616300
:1005E20069736B75005A6174727A796D616E6F20EE
:1005F2002D206E616369736E696A205354415254AF
:100602002061627920777A6E6F776963005A616D33
:100612006B6E696A206F736C6F6E7920676F726E92
:10062200652069206E616369736E696A2053544163
:100632005254004E616369736E696A205354415289
:100642005420616279207779706F7A79636A6F6E6C
:100652006F776163206E6170656479005A616D6BBA
:100662006E696A206F736C6F6E7920676F726E6548
:10067200004F74776172636965206F736C6F6E20CF
:1006820077207472616B63696520706F7A79636A2F
:100692006F6E6F77616E69610057796C61637A2062
:1006A2006920776C61637A206D61737A796E650077
:1006B2005A6174727A796D616E69652077207472FD
:1006C200616B63696520706F7A79636A6F6E6F77A9
:1006D200616E696100506F7A79636A6F6E756A65DF
:1006E20020756B6C616479206C696E696F77652027
:1006F20058595A00537465726F776E696B203320B4
:100702002D207779706F7A79636A6F6E6F77616C7B
:10071200656D00537465726F776E696B2034202D9E
:10072200207779706F7A79636A6F6E6F77616C6523
:100732006D00416C61726D20537465726F776E69E2
:100742006B203400416C61726D20537465726F7757
:100752006E696B203300537465726F776E696B201C
:1007620031202D207779706F7A79636A6F6E6F7797
:10077200616C656D00537465726F776E696B2032C0
:10078200202D207779706F7A79636A6F6E6F776147
:100792006C656D00416C61726D20537465726F7788
:1007A2006E696B203100416C61726D205374657209
:1007B2006F776E696B2032005779706F7A79636A4E
:1007C2006F6E6F77616E6F20756B6C616479206CF0
:1007D200696E696F77652058595A004B6F6C697A58
:1007E2006A6120585920756B6C616475206B726167
:1007F2007A6B61004B6F6C697A6A61205859207577
:100802006B6C61647520737A637A6F746B69004BE9
:100812006F6C697A6A61206B72617A6B61202D203C
:1008220077796C61637A206920776C61637A206DD5
:1008320061737A796E65004B6F6C697A6A612073B5
:100842007A637A2E206472756369616E656A202DFF
:100852002077796C61637A206920776C61637A20F2
:100862006D61737A796E650057796D69656E207373
:100872007A637A6F746B65206472756369616E6105
:100882000057796D69656E206B72617A656B2073B2
:10089200636965726E7920646F206B6F7270757315
:1008A20075206F20737265646E696379203334003A
:1008B20057796D69656E206B72617A656B2073631F
:1008C2006965726E7920646F206B6F7270757375D3
:1008D200206F20737265646E696379203336005726
:1008E200796D69656E206B72617A656B20736369DD
:1008F20065726E7920646F206B6F727075737520EC
:100902006F20737265646E6963792033380057799A
:100912006D69656E206B72617A656B2073636965C0
:10092200726E7920646F206B6F7270757375206FB1
:1009320020737265646E6963792034310057796D72
:1009420069656E206B72617A656B2073636965728B
:100952006E7920646F206B6F7270757375206F20D3
:10096200737265646E696379203433002D2D2D2DE9
:100972002D2D2D0057637A7974616A207A6163693B
:10098200736B2074656E2073616D206C7562206ECE
:100992006F77790001002D4E414E00494E4600000E
:1009A200010002009E000100BF0596090000F894B4
:1009B200EE27ECBBF1E0F5BFE5BFE0936C00F8E198
:1009C200F1BDE1BD8DE0A2E0BB27ED938A95E9F789
:1009D20080E090E1A0E0B1E0ED930197E9F7E2EA6F
:1009E200F9E085919591009761F0A591B5910590F7
:1009F2001590BF01F00105900D920197E1F7FB01FF
:100A0200F0CF8BBFEFEFEDBFE0E1EEBFC0E0D5E08E
:100A12000C9438290E94093325C00E940933E695B7
:100A220021C00E940933E695E6951CC00E94093355
:100A3200E695E695E69516C00E940933E29512C046
:100A42000E940933E295EF70E6950CC00E940933CB
:100A5200E295EF70E695E69505C00E940933EE1F18
:100A6200E0E0EE1FE170239608950E9418330E9481
:100A72001D33E4E0EA930E94A231E3E80E942533A9
:100A8200E1E0EA930E94A2310E9430330E943033A7
:100A92000E9430330E2F1127F801198108815CC0A2
:100AA2006A937A93AA93BA93EA93FA93EFB7EA9383
:100AB200A3E2B5E00E943633A7E2B5E00E943633E6
:100AC200ABE2B5E00E943633AFE2B5E00E943633C6
:100AD200A3E3B5E00E943633A7E3B5E00E943633C4
:100AE200ABE3B5E00E943633AFE3B5E00E943633A4
:100AF200E991EFBFF991E991B991A9917991699140
:100B020018950E9418330E943F330E9493318F013F
:100B12000D5F1F4F0E941D330A930E94A231E2E82B
:100B22000E9425330E943F3380E00E94E4322296E5
:100B320019810881289608950E941D33E5E0EA9301
:100B42000E944433EA81EA930E94A2310E944A330E
:100B5200EC81EA930E94A2312696089524970E947E
:100B62000B3E00E010E0EE85FF85FA93EA930E94C7
:100B720093318F010D5F1F4FAC85BD85119759F4DD
:100B820020E030E040E550E0E0E5F0E0E887F9877A
:100B9200E0E0EE83EF83AC85BD85129759F420E047
:100BA20030E040E250E0E0E4F0E0E887F987E0E09E
:100BB200EE83EF830E941D330A930E9444332A93EB
:100BC2000E94A2314A930E94A231EE85FF85FA93D8
:100BD200EA9380E00E94E43222960E945233EC852E
:100BE200FD850E945A330E94E83DA0E0B0E00E94D9
:100BF200C23DE02151F00E946133E1EDF0E00E943C
:100C02006F330E946F330E9474330E9452330E94EA
:100C1200783351F00E946133E2EFF0E00E946F33CB
:100C22000E946F330E9474330E9452330E948033B9
:100C320051F00E946133EFE0F1E00E946F330E94B5
:100C42006F330E9474330E9488330E94783351F0CC
:100C52000E946133EFE0F1E00E946F330E946F3334
:100C62000E9474330E9488330E94803351F00E94A4
:100C72006133E2EFF0E00E946F330E946F330E9413
:100C820074330E94123E609608950E9490330E942F
:100C920095330E949B330E94A8330E94AD330E9479
:100CA200A8330E94CA330E94D0330E94D5330E94D7
:100CB2009033DBDE0E94DA330E94D5330E949533F3
:100CC2000E94DF330E94D5330E94E4330E94EA334C
:100CD2000E94D5330E94D533C8DE0E94EF330E94B2
:100CE200D5330E94F4330E94FA330E9490330E945B
:100CF200E433E0939705F09398050E9490330E94A5
:100D0200D533B3DEE0939905F0939A050E949033B0
:100D12000E94F4330E94FF330E94CA33E093A50578
:100D2200F093A6050E94A8330E94F4335F01089550
:100D32001A930A930E9404346DDEE1700E2EE09144
:100D42000205EE7F0E940E3468DEE170EE0F0E2E79
:100D5200E0910205ED7F0E940E3463DEE170EE0F3A
:100D6200EE0F0E2EE0910205EB7F0E940E345EDE46
:100D7200E170EE0FEE0FEE0F0E2EE0910205E77F0F
:100D82000E940E3459DEE170E295E07F0E2EE09172
:100D92000205EF7E0E940E3453DEE170E295E07FA1
:100DA200EE0F0E2EE0910205EF7D0E940E344EDE14
:100DB200E170E295E07FEE0FEE0F0E2EE09102055C
:100DC200EF7B0E940E3449DEE170E795E0E0E795A3
:100DD2000E2EE0910205EF77E029E09302050E94D2
:100DE20012340E94173441DE8F01A0910205A13016
:100DF20079F4F8010E945A33E1E0F0E0ED93FC93BC
:100E0200E2E5F1E00E941C340E9421340E94273462
:100E1200A0910205A23079F4F8010E945A33E2E06F
:100E2200F0E0ED93FC93EAE5F1E00E941C340E94AD
:100E3200A8330E942E34A0910205A33079F4F80160
:100E42000E945A33E3E0F0E0ED93FC93E2E6F1E036
:100E52000E941C340E94A8330E943734A0910205DC
:100E6200A43079F4F8010E945A33E4E0F0E0ED9303
:100E7200FC93EAE6F1E00E941C340E94A8330E942F
:100E82003734A0910205A53079F4F8010E945A3353
:100E9200E5E0F0E0ED93FC93E2E7F1E00E941C3420
:100EA2000E94A8330E943734A0910205A63079F43B
:100EB200F8010E945A33E6E0F0E0ED93FC93EAE792
:100EC200F1E00E941C340E9421340E943A34A09125
:100ED2000205A73079F4F8010E945A33E7E0F0E006
:100EE200ED93FC93E2E8F1E00E941C340E9421346D
:100EF2000E942734A0910205A83079F4F8010E94DB
:100F02005A33E8E0F0E0ED93FC93EAE8F1E00E9466
:100F12001C340E9421340E942734A0910205A9307A
:100F220079F4F8010E945A33E9E0F0E0ED93FC9382
:100F3200E2E9F1E00E941C340E94A8330E94373497
:100F4200A0910205AA3079F4F8010E945A33EAE02E
:100F5200F0E0ED93FC93EAE9F1E00E941C340E9478
:100F6200A8330E944134A0910205AB3079F4F80114
:100F72000E945A33EBE0F0E0ED93FC93E2EAF1E0F9
:100F82000E941C340E94A8330E944134A0910205A1
:100F9200AC3079F4F8010E945A33ECE0F0E0ED93C2
:100FA200FC93EAEAF1E00E941C340E9421340E9480
:100FB2004A34A0910205AD3079F4F8010E945A3307
:100FC200EDE0F0E0ED93FC93E2EBF1E00E941C34E3
:100FD2000E9421340E942734A0910205AE3079F498
:100FE200F8010E945A33EEE0F0E0ED93FC93EAEB55
:100FF200F1E00E941C340E9421340E944A34A091E4
:101002000205AF3079F4F8010E945A33EFE0F0E0C4
:10101200ED93FC93E2ECF1E00E941C340E94213437
:101022000E944A34A0910205A03179F4F8010E948D
:101032005A33E0E1F0E0ED93FC93EAECF1E00E9438
:101042001C340E94A8330E944134A0910205A131B0
:1010520079F4F8010E945A33E1E1F0E0ED93FC9358
:10106200E2EDF1E00E941C340E94A8330E94373462
:10107200A0910205A23179F4F8010E945A33E2E10B
:10108200F0E0ED93FC93EAEDF1E00E941C340E9443
:10109200A8330E942E34A0910205A33179F4F801FD
:1010A2000E945A33E3E1F0E0ED93FC93E2EEF1E0CB
:1010B2000E941C340E94A8330E944134A091020570
:1010C200A43179F4F8010E945A33E4E1F0E0ED939F
:1010D200FC93EAEEF1E00E941C340E94A8330E94C5
:1010E2002E34A0910205A53179F4F8010E945A33F9
:1010F200E5E1F0E0ED93FC93E2EFF1E00E941C34B5
:101102000E9421340E942734A0910205A63179F46D
:10111200F8010E945A33E6E1F0E0ED93FC93EAEF26
:10112200F1E00E941C340E9421340E943A34A091C2
:101132000205A73179F4F8010E945A33E7E1F0E0A1
:10114200ED93FC93E2E0F2E00E941C340E94213411
:101152000E944A34A0910205A83179F4F8010E9454
:101162005A33E8E1F0E0ED93FC93EAE0F2E00E940A
:101172001C340E9421340E943A34A0910205A93104
:1011820079F4F8010E945A33E9E1F0E0ED93FC931F
:10119200E2E1F2E00E941C340E94A8330E94413432
:1011A200A0910205AA3179F4F8010E945A33EAE1CA
:1011B200F0E0ED93FC93EAE1F2E00E941C340E941D
:1011C200A8330E942E34A0910205AB3179F4F801C4
:1011D2000E945A33EBE1F0E0ED93FC93E2E2F2E09D
:1011E2000E941C340E94A8330E944134A09102053F
:1011F200AC3179F4F8010E945A33ECE1F0E0ED935E
:10120200FC93EAE2F2E00E941C340E9421340E9424
:101212004A34A0910205AD3179F4F8010E945A33A3
:10122200EDE1F0E0ED93FC93E2E3F2E00E941C3486
:101232000E9421340E944A34A0910205AE3179F411
:10124200F8010E945A33EEE1F0E0ED93FC93EAE3F9
:10125200F2E00E941C340E9421340E943A34A09190
:101262000205AF3179F4F8010E945A33EFE1F0E060
:10127200ED93FC93E2E4F2E00E941C340E942134DC
:101282000E944A34A0910205A03279F4F8010E942A
:101292005A33E0E2F0E0ED93FC93EAE4F2E00E94DC
:1012A2001C340E94A8330E944134A0910205A1324D
:1012B20079F4F8010E945A33E1E2F0E0ED93FC93F5
:1012C200E2E5F2E00E941C340E9421340E94513473
:1012D200A0910205A23279F4F8010E945A33E2E2A7
:1012E200F0E0ED93FC93EAE5F2E00E941C340E94E8
:1012F200A8330E943734A0910205A33279F4F80191
:101302000E945A33E3E2F0E0ED93FC93E2E6F2E06E
:101312000E941C340E94A8330E942E34A091020520
:10132200A43279F4F8010E945A33E4E2F0E0ED933A
:10133200FC93EAE6F2E00E941C340E94A8330E9469
:101342003734A0910205A53279F4F8010E945A338C
:10135200E5E2F0E0ED93FC93E2E7F2E00E941C3458
:101362000E94A8330E945834A0910205A63279F453
:10137200F8010E945A33E6E2F0E0ED93FC93EAE7CB
:10138200F2E00E941C340E9421340E942734A09172
:101392000205A73279F4F8010E945A33E7E2F0E03D
:1013A200ED93FC93E2E8F2E00E941C340E942134A7
:1013B2000E943A34A0910205A83279F4F8010E9401
:1013C2005A33E8E2F0E0ED93FC93EAE8F2E00E949F
:1013D2001C340E9421340E942734A0910205A932B4
:1013E20079F4F8010E945A33E9E2F0E0ED93FC93BC
:1013F200E2E9F2E00E941C340E9421340E94273468
:10140200A0910205AA3279F4F8010E945A33EAE265
:10141200F0E0ED93FC93EAE9F2E00E941C340E94B2
:10142200A8330E943734A0910205AB3279F4F80157
:101432000E945A33EBE2F0E0ED93FC93E2EAF2E031
:101442000E941C340E94A8330E943734A0910205E6
:10145200AC3289F4F8010E945A33ECE2F0E00E94C7
:101462005B340E945F34EAEAF2E00E941C340E947C
:10147200A8330E943734A0910205AD3279F4F80105
:101482000E945A33EDE2F0E0ED93FC93E2EBF2E0DE
:101492000E941C340E94A8330E943734A091020596
:1014A200AE3279F4F8010E945A33EEE2F0E0ED93A5
:1014B200FC93EAEBF2E00E941C340E9421340E9469
:1014C2002734A0910205AF3279F4F8010E945A3311
:1014D200EFE2F0E0ED93FC93E2ECF2E00E941C34C8
:1014E2000E9421340E942734A0910205A03389F47E
:1014F200F8010E945A33E0E3F0E00E945B340E945C
:101502005F34EAECF2E00E941C340E9421340E9413
:101512002734A0910205A13379F4F8010E945A33CD
:10152200E1E3F0E0ED93FC93E2EDF2E00E941C3483
:101532000E94A8330E943734A0910205A23379F4A5
:10154200F8010E945A33E2E3F0E0ED93FC93EAEDF6
:10155200F2E00E941C340E94A8330E942E34A09113
:101562000205A33379F4F8010E945A33E3E3F0E071
:10157200ED93FC93E2EEF2E00E941C340E94A83349
:101582000E945834A0910205A43379F4F8010E9414
:101592005A33E4E3F0E0ED93FC93EAEEF2E00E94CA
:1015A2001C340E9421340E943A34A0910205A533D2
:1015B20079F4F8010E945A33E5E3F0E0ED93FC93ED
:1015C200E2EFF2E00E941C340E9421340E94273490
:1015D200A0910205A63379F4F8010E945A33E6E39A
:1015E200F0E0ED93FC93EAEFF2E00E941C340E94DB
:1015F20021340E943A34A0910205A73379F4F8010C
:101602000E945A33E7E3F0E0ED93FC93E2E0F3E06B
:101612000E941C340E9421340E945134A091020580
:10162200A83379F4F8010E945A33E8E3F0E0ED932D
:10163200FC93EAE0F3E00E941C340E94A8330E946B
:101642002E34A0910205A93379F4F8010E945A338D
:10165200E9E3F0E0ED93FC93E2E1F3E00E941C3455
:101662000E94A8330E942E34A0910205AA3379F475
:10167200F8010E945A33EAE3F0E0ED93FC93EAE1C9
:10168200F3E00E941C340E94A8330E943734A091D8
:101692000205AB3379F4F8010E945A33EBE3F0E030
:1016A200ED93FC93E2E2F3E00E941C340E94A83323
:1016B2000E944134A0910205AC3379F4F8010E94F2
:1016C2005A33ECE3F0E0ED93FC93EAE2F3E00E949C
:1016D2001C340E94A8330E942E34A0910205AD331F
:1016E20079F4F8010E945A33EDE3F0E0ED93FC93B4
:1016F200E2E3F3E00E941C340E9421340E943A3457
:10170200A0910205AE3379F4F8010E945A33EEE358
:10171200F0E0ED93FC93EAE3F3E00E941C340E94B4
:1017220021340E942734A0910205AF3379F4F801E5
:101732000E945A33EFE3F0E0ED93FC93E2E4F3E02E
:101742000E941C340E9421340E944A34A091020556
:10175200A03479F4F8010E945A33E0E4F0E0ED930A
:10176200FC93EAE4F3E00E941C340E9421340E94BC
:101772003A34A0910205A13479F4F8010E945A3357
:10178200E1E4F0E0ED93FC93E2E5F3E00E941C3427
:101792000E94A8330E946434A0910205A23479F415
:1017A200F8010E945A33E2E4F0E0ED93FC93EAE59B
:1017B200F3E00E941C340E9421340E942734A0913D
:1017C2000205A33479F4F8010E945A33E3E4F0E00D
:1017D200ED93FC93E2E6F3E00E941C340E94213474
:1017E2000E942734A0910205A43479F4F8010E94E2
:1017F2005A33E4E4F0E0ED93FC93EAE6F3E00E946E
:101802001C340E9421340E944A34A0910205A5345E
:1018120079F4F8010E945A33E5E4F0E0ED93FC9389
:10182200E2E7F3E00E941C340E9421340E946D34EE
:10183200A0910205A63479F4F8010E945A33E6E435
:10184200F0E0ED93FC93EAE7F3E00E941C340E947F
:10185200A8330E943734A0910205A73479F4F80125
:101862000E945A33E7E4F0E0ED93FC93E2E8F3E000
:101872000E941C340E94A8330E943734A0910205B2
:10188200A83479F4F8010E945A33E8E4F0E0ED93C9
:10189200FC93EAE8F3E00E941C340E94A8330E9401
:1018A2004134A0910205A93479F4F8010E945A3317
:1018B200E9E4F0E0ED93FC93E2E9F3E00E941C34EA
:1018C2000E94A8330E943734A0910205AA3479F409
:1018D200F8010E945A33EAE4F0E0ED93FC93EAE95E
:1018E200F3E00E941C340E94A8330E943734A09176
:1018F2000205AB3479F4F8010E945A33EBE4F0E0CC
:10190200ED93FC93E2EAF3E00E941C340E94A833B8
:101912000E943734A0910205AC3489F4F8010E9488
:101922005A33ECE4F0E00E945B340E945F34EAEA4E
:10193200F3E00E941C340E94A8330E944134A0911B
:101942000205AD3479F4F8010E945A33EDE4F0E077
:10195200ED93FC93E2EBF3E00E941C340E942134ED
:101962000E942734A0910205AE3479F4F8010E9456
:101972005A33EEE4F0E0ED93FC93EAEBF3E00E94DD
:101982001C340E9421340E942734A0910205AF34F6
:1019920079F4F8010E945A33EFE4F0E0ED93FC93FE
:1019A200E2ECF3E00E941C340E9421340E942734AE
:1019B200A0910205A03589F4F8010E945A33E0E5AE
:1019C200F0E00E945B340E945F34EAECF3E00E9494
:1019D2001C340E94A8330E944134A0910205A13513
:1019E20079F4F8010E945A33E1E5F0E0ED93FC93BB
:1019F200E2EDF3E00E941C340E94A8330E9464349A
:101A0200A0910205A23579F4F8010E945A33E2E569
:101A1200F0E0ED93FC93EAEDF3E00E941C340E94A7
:101A2200A8330E942E34A0910205A33579F4F8015F
:101A32000E945A33E3E5F0E0ED93FC93E2EEF3E02B
:101A42000E941C340E9421340E944A34A091020553
:101A5200A43579F4F8010E945A33E4E5F0E0ED93FD
:101A6200FC93EAEEF3E00E941C340E9421340E94AF
:101A72002734A0910205A53579F4F8010E945A3362
:101A8200E5E5F0E0ED93FC93E2EFF3E00E941C3415
:101A92000E9421340E946D34A0910205A63579F48A
:101AA200F8010E945A33E6E5F0E0ED93FC93EAEF89
:101AB200F3E00E941C340E9421340E943A34A09127
:101AC2000205A73579F4F8010E945A33E7E5F0E000
:101AD200ED93FC93E2E0F4E00E941C340E94A833F0
:101AE2000E944134A0910205A83579F4F8010E94C0
:101AF2005A33E8E5F0E0ED93FC93EAE0F4E00E946B
:101B02001C340E94A8330E943734A0910205A935E3
:101B120079F4F8010E945A33E9E5F0E0ED93FC9381
:101B2200E2E1F4E00E941C340E94A8330E943734A0
:101B3200A0910205AA3579F4F8010E945A33EAE528
:101B4200F0E0ED93FC93EAE1F4E00E941C340E9481
:101B520021340E942734A0910205AB3579F4F801B3
:101B62000E945A33EBE5F0E0ED93FC93E2E2F4E0FD
:101B72000E941C340E9421340E944A34A091020522
:101B8200AC3589F4F8010E945A33ECE5F0E00E948A
:101B92005B340E945F34EAE2F4E00E941C340E944B
:101BA200A8330E943734A0910205AD3579F4F801CB
:101BB2000E945A33EDE5F0E0ED93FC93E2E3F4E0AA
:101BC2000E941C340E9421340E942734A0910205F5
:101BD200AE3579F4F8010E945A33EEE5F0E0ED9368
:101BE200FC93EAE3F4E00E941C340E94A8330E94B2
:101BF2003734A0910205AF3579F4F8010E945A33C7
:101C0200EFE5F0E0ED93FC93E2E4F4E00E941C3493
:101C12000E94A8330E944134A0910205A03689F4A3
:101C2200F8010E945A33E0E6F0E00E945B340E9421
:101C32005F34EAE4F4E00E941C340E94A8330E945C
:101C42003734A0910205A13679F4F8010E945A3383
:101C5200E1E6F0E0ED93FC93E2E5F4E00E941C344F
:101C62000E94A8330E944134A0910205A23679F461
:101C7200F8010E945A33E2E6F0E0ED93FC93EAE5C4
:101C8200F4E00E941C340E94A8330E943734A091D1
:101C92000205A33679F4F8010E945A33E3E6F0E034
:101CA200ED93FC93E2E6F4E00E941C340E9421349E
:101CB2000E944A34A0910205A43679F4F8010E94E8
:101CC2005A33E4E6F0E0ED93FC93EAE6F4E00E9496
:101CD2001C340E94A8330E943734A0910205A53615
:101CE20079F4F8010E945A33E5E6F0E0ED93FC93B3
:101CF200E2E7F4E00E941C340E9421340E944A343C
:101D0200A0910205A63679F4F8010E945A33E6E65C
:101D1200F0E0ED93FC93EAE7F4E00E941C340E94A9
:101D220021340E942734A0910205A73679F4F801E4
:101D32000E945A33E7E6F0E0ED93FC93E2E8F4E028
:101D42000E941C340E94A8330E944134A0910205D3
:101D5200A83679F4F8010E945A33E8E6F0E0ED93F0
:101D6200FC93EAE8F4E00E941C340E9421340E94B1
:101D72002734A0910205A93679F4F8010E945A335A
:101D8200E9E6F0E0ED93FC93E2E9F4E00E941C3412
:101D92000E94A8330E942E34A0910205AA3679F43B
:101DA200F8010E945A33EAE6F0E0ED93FC93EAE987
:101DB200F4E00E941C340E9421340E943A34A09123
:101DC2000205AB3689F4F8010E945A33EBE6F0E0E3
:101DD2000E945B340E945F34E2EAF4E00E941C3409
:101DE2000E94A8330E945834A0910205AC3679F4BF
:101DF200F8010E945A33ECE6F0E0ED93FC93EAEA34
:101E0200F4E00E941C340E94A8330E943734A0914F
:101E12000205AD3679F4F8010E945A33EDE6F0E09E
:101E2200ED93FC93E2EBF4E00E941C340E94213417
:101E32000E943A34A0910205AE3679F4F8010E946C
:101E42005A33EEE6F0E0ED93FC93EAEBF4E00E9405
:101E52001C340E94A8330E942E34A0910205AF3692
:101E620089F4F8010E945A33EFE6F0E00E945B34F5
:101E72000E945F34E2ECF4E00E941C340E94A8331A
:101E82000E945834A0910205A03779F4F8010E940B
:101E92005A33E0E7F0E0ED93FC93EAECF4E00E94C1
:101EA2001C340E9421340E942734A0910205A137DC
:101EB20079F4F8010E945A33E1E7F0E0ED93FC93E4
:101EC200E2EDF4E00E941C340E94A8330E943734F1
:101ED200A0910205A23779F4F8010E945A33E2E791
:101EE200F0E0ED93FC93EAEDF4E00E941C340E94D2
:101EF200A8330E943734A0910205A33779F4F80180
:101F02000E945A33E3E7F0E0ED93FC93E2EEF4E053
:101F12000E941C340E94A8330E945834A0910205EA
:101F2200A43779F4F8010E945A33E4E7F0E0ED9324
:101F3200FC93EAEEF4E00E941C340E9421340E94D9
:101F42002734A0910205A53779F4F8010E945A338B
:101F5200E5E7F0E0ED93FC93E2EFF4E00E941C343D
:101F62000E9421340E942734A0910205A63779F4F9
:101F7200F8010E945A33E6E7F0E0ED93FC93EAEFB2
:101F8200F4E00E941C340E9421340E942734A09164
:101F92000205A73779F4F8010E945A33E7E7F0E027
:101FA200ED93FC93E2E0F5E00E941C340E942134A0
:101FB2000E945134A0910205A83779F4F8010E94D9
:101FC2005A33E8E7F0E0ED93FC93EAE0F5E00E9493
:101FD2001C340E94A8330E943734A0910205A9370D
:101FE20079F4F8010E945A33E9E7F0E0ED93FC93AB
:101FF200E2E1F5E00E941C340E94A8330E943734CB
:10200200A0910205AA3779F4F8010E945A33EAE74F
:10201200F0E0ED93FC93EAE1F5E00E941C340E94AB
:10202200A8330E943734A0910205AB3779F4F80146
:102032000E945A33EBE7F0E0ED93FC93E2E2F5E025
:102042000E941C340E94A8330E946434A0910205AD
:10205200AC3779F4F8010E945A33ECE7F0E0ED93E3
:10206200FC93EAE2F5E00E941C340E94A8330E942D
:102072003734A0910205AD3779F4F8010E945A3342
:10208200EDE7F0E0ED93FC93E2E3F5E00E941C340F
:102092000E9421340E942734A0910205AE3779F4C0
:1020A200F8010E945A33EEE7F0E0ED93FC93EAE385
:1020B200F5E00E941C340E9421340E942734A09132
:1020C2000205AF3779F4F8010E945A33EFE7F0E0E6
:1020D200ED93FC93E2E4F5E00E941C340E9421346B
:1020E2000E946D34A0910205A03879F4F8010E9493
:1020F2005A33E0E8F0E0ED93FC93EAE4F5E00E9465
:102102001C340E9421340E942734A0910205A13878
:1021120079F4F8010E945A33E1E8F0E0ED93FC9380
:10212200E2E5F5E00E941C340E94A8330E9441348B
:10213200A0910205A23879F4F8010E945A33E2E82C
:10214200F0E0ED93FC93EAE5F5E00E941C340E9476
:10215200A8330E943734A0910205A33879F4F8011C
:102162000E945A33E3E8F0E0ED93FC93E2E6F5E0F7
:102172000E941C340E9421340E945134A091020515
:10218200A43879F4F8010E945A33E4E8F0E0ED93C0
:10219200FC93EAE6F5E00E941C340E94A8330E94F8
:1021A2005834A0910205A53879F4F8010E945A33F7
:1021B200E5E8F0E0ED93FC93E2E7F5E00E941C34E1
:1021C2000E9421340E944A34A0910205A63879F473
:1021D200F8010E945A33E6E8F0E0ED93FC93EAE757
:1021E200F5E00E941C340E9421340E942734A09101
:1021F2000205A73879F4F8010E945A33E7E8F0E0C3
:10220200ED93FC93E2E8F5E00E941C340E94A833AF
:102212000E945834A0910205A83879F4F8010E946E
:102222005A33E8E8F0E0ED93FC93EAE8F5E00E9427
:102232001C340E9421340E943A34A0910205A9382C
:1022420079F4F8010E945A33E9E8F0E0ED93FC9347
:10225200E2E9F5E00E941C340E94A8330E942E3469
:10226200A0910205AA3879F4F8010E945A33EAE8EB
:10227200F0E0ED93FC93EAE9F5E00E941C340E9441
:1022820021340E942734A0910205AB3879F4F80179
:102292000E945A33EBE8F0E0ED93FC93E2EAF5E0BA
:1022A2000E941C340E9421340E942734A09102050E
:1022B200AC3879F4F8010E945A33ECE8F0E0ED937F
:1022C200FC93EAEAF5E00E941C340E94A8330E94C3
:1022D2002E34A0910205AD3879F4F8010E945A33E8
:1022E200EDE8F0E0ED93FC93E2EBF5E00E941C34A4
:1022F2000E9421340E943A34A0910205AE3879F44A
:10230200F8010E945A33EEE8F0E0ED93FC93EAEB19
:10231200F5E00E941C340E94A8330E943734A09139
:102322000205AF3879F4F8010E945A33EFE8F0E081
:10233200ED93FC93E2ECF5E00E941C340E94A8337A
:102342000E943734A0910205A03979F4F8010E9465
:102352005A33E0E9F0E0ED93FC93EAECF5E00E94F9
:102362001C340E9421340E945134F80109911991C0
:102372000895E881F9810E945A330E94E83D30971E
:1023820041F40E947434E2EDF5E00E9483340C942F
:10239200201AE130A0E0FA0751F4E8ECF0E00E94E4
:1023A20090340E9497340E949E340C94071AE230B3
:1023B200A0E0FA0771F4E0E1F1E00E9490340E949B
:1023C200AD340E94B2340E94AD340E94C1340C94E8
:1023D2000D1AE330A0E0FA0761F4EAE7F0E00E94A8
:1023E20090340E9497340E94C6340E94CF340C94D9
:1023F2000D1AE430A0E0FA0761F4E2E0F1E00E9495
:1024020090340E9497340E94D8340E94CF340C94A6
:102412000D1AE530A0E0FA0759F4E0EBF0E00E9473
:1024220090340E9497340E949E340E94E134F4C793
:10243200E630A0E0FA0759F4EEEFF0E00E949034A3
:102442000E94AD340E94B234A0E1B0E0DFC7E730B1
:10245200A0E0FA0749F4E8E7F0E00E9490340E9415
:1024620097340E94C634CCC7E830A0E0FA0749F49A
:10247200E0ECF0E00E9490340E9497340E94D8343D
:10248200BFC7E930A0E0FA0769F4E8E1F0E00E9492
:1024920090340E9497340E94D8340E94E4340E94FF
:1024A200E134BAC7EA30A0E0FA0759F4E6E1F0E015
:1024B2000E9490340E9497340E94EB340E94CF34E1
:1024C200ABC7EB30A0E0FA0759F4E4E7F0E00E9472
:1024D20090340E9497340E94F4340E94CF349CC7F7
:1024E200EC30A0E0FA0749F4E6E9F0E00E9490340B
:1024F2000E9497340E94FD3483C7ED30A0E0FA07B2
:1025020059F4EAE1F0E00E9490340E9497340E946C
:10251200D8340E94E4347AC7EE30A0E0FA0749F4D6
:10252200EEE5F0E00E9490340E9497340E94EB3472
:1025320067C7EF30A0E0FA0749F4E4E8F0E00E9450
:1025420090340E9497340E94F4345AC7E031A0E0DC
:10255200FA0749F4E8EBF0E00E9490340E949734C5
:102562000E94063559C7E131A0E0FA0759F4E0E2CA
:10257200F0E00E9490340E9497340E949E340E94A0
:10258200E1344AC7E231A0E0FA0769F4E8E9F0E091
:102592000E9490340E94AD340E940F350E94AD34E7
:1025A2000E94C13439C7E331A0E0FA0759F4EAEADC
:1025B200F0E00E9490340E9497340E941E350E94DF
:1025C20025352AC7E431A0E0FA0769F4E2E4F0E035
:1025D2000E9490340E9497340E941E350E94283532
:1025E2000E94E13419C7E531A0E0FA0749F4EEE4AC
:1025F200F0E00E9490340E9497340E949E3406C7F5
:10260200E631A0E0FA0759F4E2ECF0E00E949034DF
:102612000E94AD340E940F35A0E1B0E0F7C6E73169
:10262200A0E0FA0759F4EEECF0E00E9490340E9428
:1026320097340E941E35A9E9B1E0E2C6E831A0E074
:10264200FA0759F4E0E4F0E00E9490340E949734D3
:102652000E941E350E942835D9C6E931A0E0FA074A
:1026620059F4EEE2F0E00E9490340E9497340E9406
:10267200EB340E94CF34D0C6EA31A0E0FA0759F415
:10268200EAEFF0E00E9490340E9497340E943135C4
:102692000E94E134C1C6EB31A0E0FA0749F4ECE64E
:1026A200F0E00E9490340E9497340E940635B4C62E
:1026B200EC31A0E0FA0749F4E4EAF0E00E94903439
:1026C2000E9497340E94FD349BC6ED31A0E0FA07C8
:1026D20049F4EAE2F0E00E9490340E9497340E94AA
:1026E200EB348EC6EE31A0E0FA0749F4E4E9F0E0FB
:1026F2000E9490340E9497340E94313587C6EF3190
:10270200A0E0FA0759F4EEE6F0E00E9490340E944D
:1027120097340E943A35A9E9B1E072C6E032A0E0EE
:10272200FA0759F4E6E8F0E00E9490340E949734E8
:102732000E94FD340E94CF346FC6E132A0E0FA0756
:1027420049F4EEE8F0E00E9490340E949734A0E24F
:10275200B0E050C6E232A0E0FA0759F4EAE5F0E050
:102762000E9490340E94AD340E9441350E94CF34C1
:1027720053C6E332A0E0FA0759F4EAEDF0E00E9412
:1027820090340E9497340E944C350E94E13444C632
:10279200E432A0E0FA0759F4E2EAF0E00E94903451
:1027A2000E9453350E94AD340E94C13435C6E532D1
:1027B200A0E0FA0759F4E4E0F1E00E9490340E94AC
:1027C20097340E9466350E946D3526C6E632A0E037
:1027D200FA0749F4E6E3F0E00E9490340E94AD3437
:1027E2000E9441350DC6E732A0E0FA0749F4E8E15C
:1027F200F1E00E9490340E9497340E944C3506C644
:10280200E832A0E0FA0749F4E6EAF0E00E949034E8
:102812000E945335A0E1B0E0F9C5E932A0E0FA0721
:1028220059F4EEE1F0E00E9490340E9497340E9445
:10283200D8340E94E434EAC5EA32A0E0FA0759F437
:10284200ECE5F0E00E9490340E94AD340E947035B5
:102852000E94E134E1C5EB32A0E0FA0759F4E2E666
:10286200F0E00E9490340E9497340E943A350E9410
:102872007B35D2C5EC32A0E0FA0719F40E947E350E
:10288200CBC5ED32A0E0FA0769F4E0E1F0E00E9486
:1028920090340E9497340E94D8340E94E4340E94FB
:1028A200E134BAC5EE32A0E0FA0749F4E0E5F0E01F
:1028B2000E9490340E94AD340E947035A7C5EF3259
:1028C200A0E0FA0759F4E8E6F0E00E9490340E9492
:1028D20097340E943A35A6E9B1E092C5E033A0E010
:1028E200FA0719F40E947E3597C5E133A0E0FA0792
:1028F20059F4E4E2F0E00E9490340E9497340E947E
:10290200D8340E94CF3488C5E233A0E0FA0759F4E4
:10291200E4E1F0E00E9490340E9497340E944C352A
:102922000E94E13479C5E333A0E0FA0759F4E2E802
:10293200F0E00E9490340E9497340E9494350E94E5
:102942006D356AC5E433A0E0FA0749F4E6E0F1E048
:102952000E9490340E9497340E949B3557C5E533FC
:10296200A0E0FA0749F4ECE4F0E00E9490340E94FF
:1029720097340E94D83444C5E633A0E0FA0749F4FC
:10298200ECE1F0E00E9490340E9497340E944C35B2
:102992003DC5E733A0E0FA0749F4E4E1F1E00E9423
:1029A20090340E949734AAE1B0E024C5E833A0E055
:1029B200FA0759F4EEEEF0E00E9490340E94973448
:1029C2000E949B350E94E13427C5E933A0E0FA0753
:1029D20059F4E8EFF0E00E9490340E9497340E948C
:1029E200AA350E94E13418C5EA33A0E0FA0759F487
:1029F200E4EEF0E00E9490340E9497340E943A354F
:102A02000E947B3509C5EB33A0E0FA0759F4E2E5F1
:102A1200F0E00E9490340E9497340E94B3350E94E5
:102A22002535FAC4EC33A0E0FA0779F4E0E9F0E0E6
:102A32000E9490340E9497340E94BA35A0E9B1E016
:102A42000E94E4340E94E134E7C4ED33A0E0FA07C7
:102A520049F4ECEFF0E00E9490340E9497340E9417
:102A62003135D4C4EE33A0E0FA0759F4E8E2F0E0DD
:102A72000E9490340E9497340E943A35A6E9B1E050
:102A8200BFC4EF33A0E0FA0759F4E4E3F0E00E9498
:102A920090340E9497340E94B335A9E9B1E0B0C4E2
:102AA200E034A0E0FA0749F4ECEEF0E00E94903442
:102AB2000E9497340E94AA35A9C4E134A0E0FA0723
:102AC20059F4ECECF0E00E9490340E9497340E949A
:102AD200C1350E94CF34A0C4E234A0E0FA0759F411
:102AE200ECEBF0E00E9490340E9497340E94B335E0
:102AF2000E94CA358BC4E334A0E0FA0759F4ECE92A
:102B0200F0E00E9490340E9497340E94B335A6E907
:102B1200B1E076C4E434A0E0FA0749F4ECE7F0E06F
:102B22000E9490340E9497340E94FD3469C4E534B7
:102B3200A0E0FA0749F4E2EDF0E00E9490340E942E
:102B420097340E94C1355CC4E634A0E0FA0769F408
:102B5200E6EEF0E00E9490340E9497340E94B33572
:102B62000E94CA350E94E13457C4E734A0E0FA0754
:102B720059F4E4EBF0E00E9490340E9497340E94F2
:102B8200B3350E947B3548C4E834A0E0FA0759F413
:102B9200ECEAF0E00E9490340E9497340E94FD34E7
:102BA2000E94CF3439C4E934A0E0FA0769F4E2E1C3
:102BB200F0E00E9490340E94AD34E3E8F5E00E9418
:102BC20094350E947B3528C4EA34A0E0FA0759F410
:102BD200E2EBF0E00E9490340E9497340E94D834D5
:102BE2000E94CF3419C4EB34A0E0FA0759F4ECE0A8
:102BF200F1E00E9490340E9497340E9466350E9450
:102C02007B350AC4EC34A0E0FA0719F40E947E3541
:102C120003C4ED34A0E0FA0769F4E6E2F0E00E94B2
:102C220090340E94AD34E3E8F5E00E949435A6E9C1
:102C3200B1E0E6C3EE34A0E0FA0759F4ECE1F1E0CA
:102C42000E9490340E9497340E94CD35A6E9B1E0EB
:102C5200D7C3EF34A0E0FA0759F4E2E1F1E00E94B1
:102C620090340E9497340E946635A6E9B1E0C8C349
:102C7200E035A0E0FA0719F40E947E35CDC3E135B4
:102C8200A0E0FA0759F4EAEEF0E00E9490340E94C4
:102C920097340E94D4350E94CF34BEC3E235A0E0FF
:102CA200FA0759F4E8EDF0E00E9490340E9497345C
:102CB2000E94DD350E94CF34AFC3E335A0E0FA07AE
:102CC20069F4ECE8F0E00E9490340E949734A2E2AA
:102CD200B0E00E94E635A9E9B1E092C3E435A0E094
:102CE200FA0759F4E0EAF0E00E9490340E94EB35D2
:102CF2000E94F435A0E1B0E089C3E535A0E0FA070F
:102D020049F4EEEAF0E00E9490340E9497340E9467
:102D1200D43576C3E635A0E0FA0749F4E6EFF0E0F1
:102D22000E9490340E9497340E94DD3569C3E735D2
:102D3200A0E0FA0759F4E4ECF0E00E9490340E941B
:102D420097340E94FB350E94253566C3E835A0E022
:102D5200FA0769F4EEE7F0E00E9490340E94EB3546
:102D62000E94F4350E94AD340E94C13455C3E93546
:102D7200A0E0FA0759F4ECE2F0E00E9490340E94DD
:102D820097340E94BA350E947B3546C3EA35A0E0EB
:102D9200FA0749F4E0EFF0E00E9490340E94973481
:102DA2000E949E3433C3EB35A0E0FA0759F4E8EAF7
:102DB200F0E00E9490340E9497340E943A35A9E9CB
:102DC200B1E01EC3EC35A0E0FA0719F40E947E358B
:102DD20023C3ED35A0E0FA0759F4E0E3F0E00E94E6
:102DE20090340E9497340E94BA35A6E9B1E008C334
:102DF200EE35A0E0FA0759F4E4EFF0E00E949034D7
:102E02000E9497340E949E340E94E13405C3EF353C
:102E1200A0E0FA0749F4EEE9F0E00E9490340E9443
:102E220097340E940635F8C2E036A0E0FA0719F49A
:102E32000E947E35F1C2E136A0E0FA0759F4EAE6D3
:102E4200F0E00E9490340E9497340E94FD340E9468
:102E5200CF34E2C2E236A0E0FA0769F4EEEBF0E02A
:102E62000E9490340E9497340E94C6340E94FE351C
:102E72000E94E134D1C2E336A0E0FA0759F4EAEB4A
:102E8200F0E00E9490340E9497340E94CD35A9E967
:102E9200B1E0B6C2E436A0E0FA0759F4E0E6F0E0A9
:102EA2000E9490340E9497340E94D8340E94CF34FA
:102EB200B3C2E536A0E0FA0749F4E0E7F0E00E9489
:102EC20090340E9497340E94FD349AC2E636A0E004
:102ED200FA0759F4EAE8F0E00E9490340E9497342D
:102EE2000E94C6340E94FE3591C2E736A0E0FA077E
:102EF20059F4E0E8F0E00E9490340E9497340E9476
:102F0200CD350E94253588C2E836A0E0FA0749F49B
:102F1200E6EBF0E00E9490340E9497340E94D8348D
:102F22006FC2E936A0E0FA0769F4E4E4F0E00E9437
:102F320090340E9497340E9405360E9428350E94E0
:102F4200E1346AC2EA36A0E0FA0749F4EAE3F0E0C3
:102F52000E9490340E9497340E944C3557C2EB363F
:102F6200A0E0FA0719F40E947E3556C2EC36A0E0C2
:102F7200FA0769F4E6ECF0E00E9490340E9497347C
:102F82000E94B3350E94CA350E94E13445C2ED3633
:102F9200A0E0FA0759F4EAE0F0E00E9490340E94BF
:102FA200AD340E94B234A0E1B0E030C2EE36A0E00F
:102FB200FA0759F4E2E3F0E00E9490340E94973459
:102FC2000E944C350E94E13427C2EF36A0E0FA0796
:102FD20019F40E947E3520C2E037A0E0FA0759F4C6
:102FE200E2EEF0E00E9490340E9497340E94B335E2
:102FF2000E94CA350BC2E137A0E0FA0769F4E4ED9A
:10300200F0E00E9490340E9497340E9408360E9499
:10301200CA350E94E13400C2E237A0E0FA0779F42F
:10302200EAE4F0E00E9490340E94AD340E940B3634
:103032000E94F435AFE0B0E00E94E134EDC1E33725
:10304200A0E0FA0769F4E6E7F0E00E9490340E94FB
:103052000E36ACE9B1E00E94E4340E94E134DCC1F6
:10306200E437A0E0FA0759F4E2E9F0E00E94903474
:103072000E9497340E946635A6E9B1E0C1C1E537E6
:10308200A0E0FA0759F4EAE1F1E00E9490340E94CC
:1030920097340E9408360E94CA35B8C1E637A0E0CC
:1030A200FA0759F4E6E5F0E00E9490340E94AD344C
:1030B2000E940B360E94CA35A9C1E737A0E0FA0781
:1030C20059F4E2E7F0E00E9490340E940E36ACE937
:1030D200B1E00E94E4349AC1E837A0E0FA0759F45B
:1030E200E0EDF0E00E9490340E9497340E94663531
:1030F2000E947B3591C1E937A0E0FA0769F4E8E460
:10310200F0E00E9490340E94AD340E940B360E947F
:10311200CA350E94E13480C1EA37A0E0FA0759F4C7
:10312200EAE9F0E00E9490340E9497340E94CD3583
:103132000E947B3571C1EB37A0E0FA0769F4E6E43F
:10314200F0E00E9490340E94AD340E9415360E9435
:103152001A360E94E13460C1EC37A0E0FA0789F424
:10316200E0EEF0E00E9490340E942336A5E1B0E048
:103172000E94E6350E94F435A3E1B0E00E94E134FA
:103182004BC1ED37A0E0FA0759F4E8E3F0E00E9402
:1031920090340E9497340E94CD350E94CA3536C1C0
:1031A200EE37A0E0FA0759F4EAECF0E00E9490341E
:1031B2000E9497340E94CD35A6E9B1E021C1EF37D4
:1031C200A0E0FA0759F4EEEDF0E00E9490340E947C
:1031D200AD340E9415360E941A3618C1E038A0E0BC
:1031E200FA0769F4E6E1F1E00E9490340E94AD34FE
:1031F200E3E8F5E00E94C6340E942A3607C1E138AE
:10320200A0E0FA0779F4E8EEF0E00E9490340E9420
:1032120023360E943136A9E9B1E00E942A360E9483
:10322200E134FAC0E238A0E0FA0769F4E2EFF0E034
:103232000E9490340E9434360E94F4350E94AD34CC
:103242000E94C134E9C0E338A0E0FA0749F4E8E09B
:10325200F1E00E9490340E949734AFE1B0E0CAC01E
:10326200E438A0E0FA0759F4E4E6F0E00E94903472
:103272000E9497340E94B3350E946D35CDC0E53867
:10328200A0E0FA0769F4E8E8F0E00E9490340E94B6
:1032920023360E943136A9E9B1E00E942A36B6C02F
:1032A200E638A0E0FA0759F4EEE0F1E00E9490342B
:1032B2000E9434360E94F435A0E1B0E0A7C0E7389E
:1032C200A0E0FA0759F4E4E5F0E00E9490340E948D
:1032D20097340E9405360E946D359EC0E838A0E002
:1032E200FA0779F4EEE3F0E00E9490340E94AD34E4
:1032F200E3E8F5E00E9431360E943B36A0E1B0E0FF
:1033020085C0E938A0E0FA0759F4ECE0F0E00E9449
:1033120090340E9497340E944C350E94E1347CC064
:10332200EA38A0E0FA0759F4ECEDF0E00E9490349C
:103332000E94AD34E3E8F5E00E949E3467C0EB38AA
:10334200A0E0FA0759F4E8E5F0E00E9490340E9408
:1033520097340E940836A6E9B1E052C0EC38A0E0EA
:10336200FA0779F4ECE3F0E00E9490340E94AD3465
:103372000E9415360E943B360E94AD340E94C13431
:103382004BC0ED38A0E0FA0749F4EEE0F0E00E940D
:1033920090340E9497340E944C3538C0EE38A0E039
:1033A200FA0769F4EAE0F1E00E9490340E94AD3439
:1033B200E3E8F5E00E949E340E94E1342DC0EF382C
:1033C200A0E0FA0759F4E2E2F0E00E9490340E9491
:1033D20097340E9408360E947B351EC0E039A0E077
:1033E200FA0769F5E6E6F0E00E9490340E9497340D
:1033F200ACE1B0E0A083B183E5E8F5E0ACE9B1E08F
:10340200A083B183E9E8F5E0A2E1B0E0A083B18353
:10341200EDE8F5E0A1E0B0E0A083B1830E9442367E
:103422003196E0937D05F0937E050E944736E09346
:103432007F05F09380050E944C360E9451360E940F
:10344200603621F40E9465360E946A360E946F3609
:1034520029F00E94653635970E946A360E946536C9
:1034620036970E946A360E947B363697E0937F0534
:10347200F0938005D4010E9480360E9486360E9415
:103482008B36E02939F00E9490363597E093890512
:10349200F0938A050E949536989739F40E94473630
:1034A2007396E0938305F09384050E949A360E94F6
:1034B2008B360E949F360E94A7360E949F3639F0B3
:1034C2000E944C3670960E94AD360E9451360E9480
:1034D200B2360E949F3639F00E944C36B0960E9456
:1034E200AD360E9451360E94B8360E949F3639F09E
:1034F2000E944C36F0960E94AD360E9451360E94D0
:103502009A360E948B360E94BE3639F00E944C36A3
:10351200F9960E94AD360E9451360E94A7360E944B
:10352200BE3641F00E944C36EE5BFF4F0E94AD3634
:103532000E9451360E94B2360E94BE3641F00E946D
:103542004C36E55BFF4F0E94AD360E9451360E9419
:10355200B8360E94BE3641F00E944C36EC5AFF4FFC
:103562000E94AD360E945136C2C20E941833A09109
:103572003F05B091400580914105909142050E941E
:10358200C63614F40C94141BE0E0E0933F05E0937C
:103592004005E0934105E09342050E94CE36E030BB
:1035A20001F50E94A8330E94A8330E94D9361A9BC3
:1035B20002C00E94E1361B9B02C00E94E9360E94B3
:1035C200F13611F40E94F6360E947434E7EEF5E00B
:1035D2000E9483340E940C37E7EEF5E00E941B370D
:1035E200DCCF979B20C0002E012A51F40E94CE36D8
:1035F200E13029F40E94A8330E9495338F01F3CF62
:103602000E9474340E940C370E94283711F40E94E1
:103612002F370E94363711F40E943C370E944337FD
:1036220011F40E944937B4C00E9418330E946437D3
:103632000E948B360E946937E02111F40C94711BB1
:103642000E946F37E13001F50E94A8330E94A8332F
:103652000E94D9361A9B02C00E94E1361B9B02C00F
:103662000E94E9360E94F13611F40E94F6360E9459
:103672007434EFE0F6E00E9483340E940C37EFE0EE
:10368200F6E00E941B37DCCF979B2AC0002E012A4E
:10369200A1F40E946F37A0E00E94BD3DEF930E940B
:1036A2007A37A0E00E94BD3DAF91EA2329F00E9443
:1036B200A8330E9495338F01E9CF0E9474340E948F
:1036C2000C370E94283711F40E942F370E94363798
:1036D20011F40E943C370E94433711F40E9449378B
:1036E2000E9485370E946937E02111F40C94C91BAE
:1036F2000E947A37E13001F50E94A8330E94A83374
:103702000E94D9361A9B02C00E94E1361B9B02C05E
:103712000E94E9360E94F13611F40E94F6360E94A8
:103722007434EFE0F6E00E9483340E940C37EFE03D
:10373200F6E00E941B37DCCF979B2AC0002E012A9D
:10374200A1F40E946F37A0E00E94BD3DEF930E945A
:103752007A37A0E00E94BD3DAF91EA2329F00E9492
:10376200A8330E9495338F01E9CF0E9474340E94DE
:103772000C370E94283711F40E942F370E943637E7
:1037820011F40E943C370E94433711F40E944937DA
:103792000991199108950E941D330E948B37E0EA26
:1037A20005C00E941D330E948B37E0E5EA930E9418
:1037B200A231E0E0EA930E94A231E0E0EA930E94A3
:1037C200A231EE810E9425330E944A33EAE0EA9355
:1037D2000E94A23128960895E881F981309769F50F
:1037E200E2E0F0E02F01E6E0F0E03F01E1E0F0E0AE
:1037F2005F0188249924E6E9F0E06F01E4E6F0E055
:10380200E0930B05F0930C05E0E0E0931705E093DD
:103812001805E0930D05E0930E05E0930F05E09384
:103822001005E0931105E0931205E0931305E09370
:103832001405E0931505E09316055A924A920E94E8
:1038420090330E949B370E949D050E94A0370E94E0
:10385200A8330E9490330E949B370E94A7370E9490
:10386200A8330E9490330E949B370E94AA377A9213
:103872006A920E9412340E94B2370E94B7370E94A5
:10388200BA370E94B2370E94A7370E94BA370E9405
:10389200B2370E94AA379A928A920E9490330E946B
:1038A200A8330E94B7370E9412340E9490330E94BC
:1038B200A8330E94A7370E9412340E9490330E94BC
:1038C200A8330E94AA37BA92AA920E94A8330E94F1
:1038D200BF370E94B7370E9490330E94A8330E94DC
:1038E200BF370E94A7370E9490330E94A8330E94DC
:1038F200BF370E94AA37DA92CA920E94C4370E9446
:10390200B7370E949B370E94C4370E94A7370E9494
:103912009B370E94C4370E94AA37E0910B05F091B1
:103922000C050E94C9370E94CC370E94B7370E940B
:10393200D1370E94CC370E94A7370E94D1370E940C
:10394200CC370E94AA37E0911705F09118050E9422
:10395200D4370E94B2370E94B7370E94D5330E94F3
:10396200A8330E94B2370E94A7370E94D5330E9423
:10397200A8330E94B2370E94AA370E94D7370E940A
:1039820080360E94D737E2E2F0E00E94C23DE02991
:10399200D1F0E0910D05F0910E050E94DC370E94F6
:1039A20090330E94B7370E94BF370E94D5330E94DE
:1039B20090330E94A7370E94BF370E94D5330E94DE
:1039C20090330E94AA370E94DF370E94D737E4E281
:1039D200F0E00E94C23DE029D1F0E0910F05F091A4
:1039E20010050E94DC370E949B370E94B7370E9465
:1039F20017340E94D5330E949B370E94A7370E943A
:103A020017340E94D5330E949B370E94AA370E9426
:103A1200DF370E94D737E6E2F0E00E94C23DE0299C
:103A2200D1F0E0911105F09112050E94DC370E945D
:103A3200E1370E94B7370E94B2370E94D5330E9405
:103A4200E1370E94A7370E94B2370E94D5330E9405
:103A5200E1370E94AA370E94DF370E94D737E9E296
:103A6200F0E00E94C23DE029E1F0E0911305F091FF
:103A720014050E94DC370E94D5330E949D050E94E6
:103A8200CC370E94A8330E94D5330E94D5330E94BE
:103A9200E6370E94A8330E94D5330E94D5330E9494
:103AA200AA370E94DF370E94D737EBE2F0E00E948C
:103AB200C23DE029E1F0E0911505F09116050E9462
:103AC200DC370E94BF370E949D050E94CC370E94BE
:103AD200CC370E94D5330E94BF370E94E6370E943E
:103AE200CC370E94D5330E94BF370E94AA37229654
:103AF20008951A930A930E9417340E94CA338F01C1
:103B0200E1E0F0E0E017F10711F00C94DE1DEBE2CA
:103B1200F0E00E94EF370E94F4335F010E9490337D
:103B22000E9495330E949B330E94A8330E94AD33BA
:103B32000E94F43711F40E94FE370E94D7379497FF
:103B420011F40E9406380E94D737969711F40E940A
:103B52000E380E94D737999711F40E9416380E94A6
:103B6200D7379B9711F40E941E380E94F43711F444
:103B72000E94FE370E94D737949711F40E940638AC
:103B82000E94D737969711F40E940E380E94D737B9
:103B9200999711F40E9416380E94D7379B9711F417
:103BA2000E941E380E94263817DE0E94A8330E9407
:103BB20017340E94B2370E949D05BBC10E94A037F4
:103BC2000E94A8330E9490330E949B370E942B3898
:103BD2000E94BA370E94B2370E942B380E941234D8
:103BE2000E9490330E94A8330E94AA37E8ECF0E0CA
:103BF2000E942E380E94A8330E949B370E94C4372D
:103C02000E942B380E94D1370E94CC370E942B3859
:103C12000E94D5330E94A8330E94B2370E942B38EB
:103C22000E94BF370E94D5330E9490330E942B38E6
:103C32000E9417340E94D5330E949B370E942B3872
:103C42000E94B2370E94D5330E94E1370E94AA3700
:103C52000E94CC370E94A8330E94D5330E94D533EC
:103C62000E94AA370E94CC370E94CC370E94D533DB
:103C72000E94BF370E942B380E9490330E94A833C3
:103C82000E94BF370E94AA37E0918F05F0919005FC
:103C92000E94C9370E94E1370E949D05E09191057B
:103CA200F09192050E94C9370E94D5330E949D056A
:103CB200E0919305F09194050E9432380E94CC372E
:103CC2000E949D05E0919505F09196050E94C937E5
:103CD2000E94BF370E949D05E8E2F0E00E94323860
:103CE2000E94BF370E949D05E1E9F0E00E94323850
:103CF2000E9417340E94B7370E9417340E949B37E4
:103D02000E949D0508950E946F37A0E00E94BD3D6C
:103D1200EF930E947A37A0E00E94BD3DAF91EA2363
:103D220011F40C94DF1E0E9435380E942705A0E092
:103D32000E94BD3DEF930E9435380E942E05A0E0FF
:103D42000E94BD3DAF910E943F380E94463831F03B
:103D5200E1E0F0E0E0937705F09378050E943538D2
:103D62000E942705A1E00E94BD3DEF930E943538D5
:103D72000E942E05A1E00E94BD3DAF910E943F38F6
:103D82000E948B36E02131F0E2E0F0E0E09377052B
:103D9200F09378050E944C38E1E00E94BD3DE0219D
:103DA20019F01E980E9459380E944C38E0E00E9497
:103DB200BD3DE02119F01E9A0E94593808951A93C8
:103DC2000A93A0913305B091340580913505909105
:103DD20036050E94C63614F40C94481F0E946138BE
:103DE2000E946B380E94D43DEF930E9404340E94DB
:103DF2000B05A1E00E94BD3DEF930E9404340E9496
:103E02000E05A1E00E94BD3DAF91EA2BEF930E9407
:103E120004340E941205A1E00E94BD3DAF91EA2B3D
:103E2200EF930E9404340E941705A1E00E94BD3D59
:103E3200AF91EA2BEF930E9404340E941D05A1E08A
:103E42000E94BD3DAF91EA2BEF930E9404340E9481
:103E52002105A1E00E94BD3DAF91EA2BEF930E94A4
:103E620004340E942705A1E00E94BD3DAF91EA2BD8
:103E7200EF930E9404340E942E05A1E00E94BD3DF2
:103E8200AF91EA2BAF91EA2311F00E9474380E949D
:103E92006B38EA17FB0739F40E9499068F010E94DA
:103EA20061380E947438E0911B05F0911C0531962F
:103EB200A0911905B0911A05EA17FB07D1F5E1E0C7
:103EC200F0E0E017F10741F40E94A8330E94A83302
:103ED2000E94D5330E949D05D8010E947C380E2E87
:103EE2000E9481380E94463841F00E94A8330E9405
:103EF200A8330E94CC370E949D05D8010E947C38CD
:103F02000E946937E02131F0E1E0F0E0E093B3058F
:103F1200F093B405E0E0E0931905E0931A050E94DE
:103F22008138119731F4E1E0F0E0E093B105F093CC
:103F3200B2050991199108950E9486380E942105BF
:103F4200E13079F40E9490380E947434EDEDF7E08C
:103F52000E9483340E940C37EDEDF7E00E941B377C
:103F6200F3CF0E948138119711F40E949B38E0919F
:103F72004B05F0914C05309711F00C9405200E94EE
:103F82009F38E881E0930905E17011F4D89801C0E7
:103F9200D89AE0910905E27011F4D99801C0D99A32
:103FA200E0910905E47011F4DA9801C0DA9AE0911F
:103FB2000905E87011F4DB9801C0DB9AE09109056C
:103FC200E07111F4DC9801C0DC9AE0910905E0721D
:103FD20011F4DD9801C0DD9AE0910905E07411F455
:103FE200DE9801C0DE9AE0910905E07811F4DF98CD
:103FF20001C0DF9AA881B981A030E1E0BE070CF0D0
:10400200949AE1E0F0E047C0E130A0E0FA0789F4D9
:10401200A0912305B0912405809125059091260554
:104022000E94A9382CF0939AE2E0F0E00E94B138A5
:1040320036C0E230A0E0FA0789F40E9486380E9476
:104042000B05E03051F49398E0E0EBBB94980E94AA
:104052009F38E3E0F0E00E94B13821C0E330A0E0F5
:10406200FA0769F40E9486380E941705E03031F49D
:104072000E949F38E4E0F0E00E94B13810C0E430C2
:10408200A0E0FA0761F40E9486380E940B05E13035
:1040920031F4E5E0F0E0E0934B05F0934C05E0915C
:1040A2004B05F0914C059AC10E9435380E942105BA
:1040B200E13079F40E9490380E947434E6EFF7E020
:1040C2000E9483340E940C37E6EFF7E00E941B3710
:1040D200F3CF0E948138119711F40E949B38E0912E
:1040E2004F05F0915005309711F00C94BD200E94BD
:1040F200B638E881E0930A05E17011F4A89801C08E
:10410200A89AE0910A05E27011F4A99801C0A99A4F
:10411200E0910A05E47011F4AA9801C0AA9AE0910C
:104122000A05E87011F4AB9801C0AB9AE0910A0558
:10413200E07111F4AC9801C0AC9AE0910A05E0720A
:1041420011F4AD9801C0AD9AE0910A05E07411F442
:10415200AE9801C0AE9AE0910A05E07811F4AF98EA
:1041620001C0AF9AA881B981A030E1E0BE070CF08E
:10417200959AE1E0F0E047C0E130A0E0FA0789F467
:10418200A0912B05B0912C0580912D0590912E05C3
:104192000E94A9382CF0969AE2E0F0E00E94C03822
:1041A20036C0E230A0E0FA0789F40E9435380E9456
:1041B2000B05E03051F49698E0E0E5BB95980E943B
:1041C200B638E3E0F0E00E94C03821C0E330A0E05E
:1041D200FA0769F40E9435380E941705E03031F47D
:1041E2000E94B638E4E0F0E00E94C03810C0E4302B
:1041F200A0E0FA0761F40E9435380E940B05E13015
:1042020031F4E5E0F0E0E0934F05F0935005E091E2
:104212004F05F0915005E2C00E94C5380E942E055C
:10422200E13079F40E9490380E947434E1E1F8E0C0
:104232000E9483340E940C37E1E1F8E00E941B37B0
:10424200F3CF0E948138119711F40E949B38E091BC
:104252004D05F0914E05309711F00C947521E881CF
:10426200E0930705E1700E2EE0910005EE7F0E94BB
:10427200CF38E695E170EE0F0E2EE0910005ED7F4E
:104282000E94CF38E695E695E170EE0FEE0F0E2E06
:10429200E0910005EB7F0E94CF38E695E695E69522
:1042A200E170EE0FEE0FEE0F0E2EE0910005E77FAC
:1042B2000E94CF38E295E170E795E0E0E7950E2E97
:1042C200E0910005EF77E0290E94D538E0910705DB
:1042D200E07211F4C79801C0C79A0E94DA38E1E08F
:1042E200F0E00E94E43876C0E130A0E0FA07A9F4D9
:1042F200A0912705B09128058091290590912A0562
:104302000E94A9384CF0E0910005E0620E94D53885
:10431200E2E0F0E00E94E4385DC0E230A0E0FA079B
:1043220021F50E94E9380E940B05E030E9F4E091A2
:104332000005EF7D0E94D538E0910005EE7F0E94D6
:10434200F338ED7F0E94F338EB7F0E94F338E77F6A
:104352000E94F338EF770E94D538C7980E94DA3866
:10436200E3E0F0E00E94E43835C0E330A0E0FA0771
:1043720069F40E94E9380E941705E03031F40E9486
:10438200DA38E4E0F0E00E94E43824C0E430A0E04F
:10439200FA0701F50E94E9380E940B05E130D1F4D9
:1043A200E5E0F0E00E94E438E0915B05F0915C0505
:1043B200309739F4E1E0F0E0E0935B05F0935C05BF
:1043C20009C0E130A0E0FA0729F4E0E0E0935B05E0
:1043D200E0935C05E0914D05F0914E05229608951B
:1043E2000E94C5380E942705E13079F40E94903876
:1043F2000E947434E9E3F8E00E9483340E940C378F
:10440200E9E3F8E00E941B37F3CF0E94813811974D
:1044120011F40E949B38E0915105F09152053097BA
:1044220049F5EA81E0930805E17011F4C09801C0F2
:10443200C09AE0910805E27011F4C19801C0C19AD6
:10444200E0910805E47011F4C29801C0C29AE091AB
:104452000805E87011F4C39801C0C39AE0910805F9
:10446200E07111F41C9801C01C9A0E94F638E1E038
:10447200F0E049C0E130A0E0FA0789F4A0912F05ED
:10448200B091300580913105909132050E94A93892
:104492002CF0C59AE2E0F0E00E94003938C0E23028
:1044A200A0E0FA0799F40E94E9380E941D05E03065
:1044B20061F4C598C098C198C298C3981C980E948C
:1044C200F638E3E0F0E00E94003921C0E330A0E0DA
:1044D200FA0769F40E94E9380E942E05E03031F4AF
:1044E2000E94F638E4E0F0E00E94003910C0E430A7
:1044F200A0E0FA0761F40E94E9380E941D05E1304C
:1045020031F4E5E0F0E0E0935105F0935205E091DB
:104512005105F0915205249608950E94053914F42C
:104522000E9416390E946437129709F448DC0E94EF
:104532001A3911F40E9420390E9423390E942A3923
:1045420021F00E944C360E9438390E9423390E9481
:104552003D390E94463821F00E9445390E944B396C
:104562000E9423390E945239E02111F00E946239DF
:104572000E9423390E946739E02121F00E944539C7
:104582000E9477390E947F390E948B36E02121F008
:104592000E9445390E9485390E9423390E948C3934
:1045A200E02111F00E9494390E9423390E943D3982
:1045B2000E947C38E02121F00E9445390E949939FD
:1045C2000E94A0390E94A7390E94AF390E94B539D2
:1045D2000E94AF390E94BA3931F00E9465360E94BA
:1045E200D4370E94CC390E94A0390E94CF390E9450
:1045F200D83969F00E94DD3911F40E94E3390E9432
:10460200E93919F40E94EF3902C00E94FD390E9473
:104612000B3A0E94123A0E94AF390E941A3A21F0D4
:104622000E9490360E941F3A0E940B3A0E94243A3E
:104632000E942D3A51F00E94313A0E94373A19F401
:104642000E943D3A02C00E944B3A0E940B3A0E94DD
:10465200123A0E948B36E02121F00E9447360E94D6
:104662001F3A0E94A0390E94A7390E948B360E94ED
:10467200513A21F00E94543A0E94CC390E940B3ADE
:104682000E94243A0E94593A21F00E94313A0E9433
:104692006E3A0E94753A0E2E0E940B3A0E94D43D49
:1046A200E02121F00E9426380E947A3A0E940B3AB9
:1046B2000E947D3AE02119F00E94813A1B980E94E3
:1046C200A0390E94CF390E94873A29F01A980E9495
:1046D200E3390E94933A0E949A3A0E2E0E94A03920
:1046E2000E94D43DE02121F00E949C3A0E94CC39E4
:1046F2000E94A0390E949F3AE02119F00E94A33A39
:104702001A980E94A93A0E94AF3A0E94B33A0E94B4
:10471200B73A0E94BF3A0E94C13A61F00E94813AC0
:104722000E94A33A0E9445390E94CB3A0E94E33983
:104732000E94D13A08950E94053914F40E94163954
:104742000E946437129709F43ADB0E941A3911F475
:104752000E9420390E9423390E942A3921F00E94A6
:104762004C360E9438390E9423390E943D390E94FA
:10477200463821F00E9445390E944B390E94233964
:104782000E945239E02111F00E9462390E942339BD
:104792000E946739E02121F00E9445390E94773951
:1047A2000E947F390E948B36E02121F00E94453918
:1047B2000E9485390E9423390E948C39E02111F030
:1047C2000E9494390E9423390E943D390E947C380C
:1047D200E02121F00E9445390E9499390E94A039B6
:1047E2000E94A7390E94AF390E94BF3A0E94BA398B
:1047F20031F00E9465360E94D4370E94CC390E9463
:10480200A0390E94CF390E94D839C9F00E94DD39FF
:1048120011F40E94E3390E94E93971F40E94EA3AE4
:1048220009F41A980E94EF390E94EF3A4A165B0681
:1048320011F40E94203903C01A9A0E94FD390E9485
:104842000B3A0E94123A0E94AF390E941A3A21F0A2
:104852000E9490360E941F3A0E940B3A0E94243A0C
:104862000E942D3A51F00E94313A0E94373A19F4CF
:104872000E943D3A02C00E944B3A0E940B3A0E94AB
:10488200123A0E948B36E02121F00E9447360E94A4
:104892001F3A0E94A0390E94A7390E948B360E94BB
:1048A200513A31F00E947B360E94F43A0E94CC3990
:1048B2000E940B3A0E94243A0E94593A21F00E9427
:1048C200313A0E946E3A0E94753A0E2E0E940B3ABD
:1048D2000E94D43DE02121F00E9426380E947A3ABB
:1048E2000E940B3A0E947D3AE02119F00E94813A1F
:1048F2001B980E94A0390E94CF390E94873A29F062
:104902001A980E94E3390E94933A0E949A3A0E2E14
:104912000E94A0390E94D43DE02121F00E949C3ADD
:104922000E94CC390E94A0390E949F3AE02119F0DE
:104932000E94A33A1A980E94A93A0E94AF3A0E9492
:10494200B33A0E94B73A0E94BF3A0E94C13A61F05C
:104952000E94813A0E94A33A0E9445390E94CB3AB2
:104962000E94E3390E94D13A08950E94053914F455
:104972000E9416390E946437129709F420DA0E94C5
:104982001A3911F40E9420390E94A0390E94A739D5
:104992000E94AF390E94BF3A0E94BA3931F00E9498
:1049A20065360E94D4370E94CC390E94A0390E94F9
:1049B200CF390E94D83921F10E94DD3911F40E94C9
:1049C200E3390E94E939D1F40E94F73A0E94FF3A92
:1049D20071F40E94053B0E9417340E949D050E94BB
:1049E2000A3B0E940F3B0E94E1370E949D05E1E0D5
:1049F200F0E0E0936D05F0936E0502C00E94FD3970
:104A02000E940B3A0E94123A0E94AF390E941A3A4F
:104A120021F00E9490360E941F3A0E940B3A0E9497
:104A2200243A0E942D3AC9F00E94313A0E94373A44
:104A320091F40E94123B0E94FF3A31F40E941A3B09
:104A42000E94D5330E949D05E1E0F0E0E0936B0502
:104A5200F0936C0502C00E944B3A0E940B3A0E94EE
:104A6200123A0E948B36E02121F00E9447360E94C2
:104A72001F3A0E94A0390E94A7390E948B360E94D9
:104A8200513A21F00E94543A0E94CC390E940B3ACA
:104A92000E94243A0E941F3B0E22A091B905B091B8
:104AA200BA050E94463869F00E94313A0E946E3A75
:104AB2000E94FF3A31F40E94273B0E94BF370E94B6
:104AC2009D050E94753A0E2E0E940B3A0E94D43D1B
:104AD200E02121F00E9426380E947A3A0E940B3A85
:104AE2000E947D3AE02191F00E94813AE1E0F0E0FB
:104AF200E093B905F093BA050E94FF3A31F40E949F
:104B02002C3B0E9417340E949D051B980E94A039DD
:104B12000E94CF390E94C23D0E220E94313B0E22DA
:104B2200A091BB05B091BC050E94463871F01A985D
:104B32000E94E3390E94933A0E94FF3A31F40E94A4
:104B4200393B0E94B2370E949D050E949A3A0E2E6E
:104B52000E94A0390E94D43DE02121F00E949C3A9B
:104B62000E94CC390E94A0390E949F3AE02191F024
:104B72000E94A33AE1E0F0E0E093BB05F093BC05AC
:104B82000E94FF3A31F40E943E3B0E94A8330E94E9
:104B92009D051A980E94A93A0E94AF3A0E94B33A20
:104BA2000E94B73A0E94B5390E94463811F40C941B
:104BB20018260E94813A0E94A33AE0E0E093B905E8
:104BC200E093BA05E093BB05E093BC050E9445392A
:104BD2000E94CB3A0E94E3390E94453B0E94FF3A71
:104BE20021F50E94053B0E9417340E949D050E94F8
:104BF2001A3B0E94D5330E949D050E94393B0E94B8
:104C0200B2370E949D050E94273B0E94BF370E9437
:104C12009D050E943E3B0E94A8330E949D050E9472
:104C22002C3B0E9417340E949D050E94543B08951C
:104C32000E94053914F40E9416390E9464371297B3
:104C420009F4BDD80E941A3911F40E9420390E9439
:104C5200A0390E94A7390E94AF390E94BF3A0E9430
:104C6200BA3931F00E9465360E94D4370E94CC399D
:104C72000E94A0390E94CF390E94D839C9F00E94FF
:104C8200DD3911F40E94E3390E94E93971F40E947E
:104C9200EA3A09F41A980E94EF390E94EF3A4A164A
:104CA2005B0611F40E94203903C01A9A0E94FD3952
:104CB2000E940B3A0E94123A0E94AF390E941A3A9D
:104CC20021F00E9490360E941F3A0E940B3A0E94E5
:104CD200243A0E942D3A51F00E94313A0E94373A0A
:104CE20019F40E943D3A02C00E944B3A0E940B3ACC
:104CF2000E94123A0E948B36E02121F00E94473630
:104D02000E941F3A0E94A0390E94A7390E948B3646
:104D12000E94513A31F00E947B360E94F43A0E947E
:104D2200CC390E940B3A0E94243A0E941F3BE02198
:104D320021F00E94313A0E946E3A0E94753A0E2E7C
:104D42000E940B3A0E94D43DE02121F00E942638B5
:104D52000E947A3A0E940B3A0E947D3AE02119F0B1
:104D62000E94813A1B980E94A0390E94CF390E946A
:104D7200873A29F01A980E94E3390E94933A0E94D6
:104D82009A3A0E2E0E94A0390E94D43DE02121F0D1
:104D92000E949C3A0E94CC390E94A0390E949F3AFC
:104DA200E02119F00E94A33A1A980E94A93A0E949F
:104DB200AF3A0E94B33A0E94B73A0E94B5390E94B4
:104DC200463871F00E94813A0E94A33A0E94453906
:104DD2000E94CB3A0E94E3390E94453B0E94543B19
:104DE20008950E94053914F40E9416390E9464370E
:104DF200129711F40E94E01E0E9423390E942A3960
:104E020021F00E944C360E9438390E9423390E94B8
:104E12003D390E94463821F00E9445390E944B39A3
:104E22000E9423390E945239E02111F00E94623916
:104E32000E9423390E946739E02121F00E944539FE
:104E42000E9477390E947F390E948B36E02121F03F
:104E52000E9445390E9485390E9423390E948C396B
:104E6200E02111F00E9494390E9423390E943D39B9
:104E72000E947C38E02121F00E9445390E94993934
:104E82000E940B3A0E94D43D0E2E0E94C13A21F09C
:104E92000E9490360E941F3A0E940B3A0E943D39AE
:104EA200E3E0F0E00E94C23DE02171F00E945B3B32
:104EB2000E94613B19F40E94683B02C00E946F3B52
:104EC2000E9445390E94313A0E941A3911F40E9417
:104ED20020390E94A0390E94A7390E94AF390E944E
:104EE200BF3A0E94753B31F00E9465360E94D4376A
:104EF2000E94CC390E94A0390E94CF390E94D43D31
:104F02000E220E94BF3A0E948B3B69F00E94DD395B
:104F120011F40E94E3390E94E93919F40E94EF3931
:104F220002C00E94FD390E94A0390E94A7390E9446
:104F32008B360E220E94BF3A0E948B3B21F00E94C8
:104F4200543A0E94CC390E940B3A0E94243A0E94A1
:104F52001F3BE02121F00E94313A0E946E3A0E94EA
:104F6200753A0E2E0E940B3A0E94D43DE02121F0A8
:104F72000E9426380E947A3A0E940B3A0E947D3A99
:104F8200E02119F00E94813A1B980E94903B0E94F6
:104F9200A0390E94953BE029E12129F01A980E944C
:104FA200E3390E94933A0E94903B0E949A3A0E2261
:104FB2000E94A0390E94D43DE02121F00E949C3A37
:104FC2000E94CC390E94903B0E94A0390E94C23DAF
:104FD2000E220E949A3AE02111F00E94A33A0E9406
:104FE200A83B0E94C23D0E220E94BF3A0E941A3A7A
:104FF2000E94B53B0E220E941A3AE12971F00E94EA
:10500200A33A0E94813A0E9445390E94CB3A0E94FB
:10501200E3390E94453B0E94543B08950E940539A2
:1050220014F40E9416390E946437129711F40E94F8
:10503200E01E0E9423390E942A3921F00E944C3638
:105042000E9438390E9423390E943D390E94463815
:1050520021F00E9445390E944B390E9423390E9457
:105062005239E02111F00E9462390E9423390E94D4
:105072006739E02121F00E9445390E9477390E9468
:105082007F390E948B36E02121F00E9445390E942F
:1050920085390E9423390E948C39E02111F00E9447
:1050A20094390E9423390E943D390E947C38E021C4
:1050B20021F00E9445390E9499390E940B3A0E94C0
:1050C200D43D0E2E0E94C13A21F00E9490360E94D9
:1050D2001F3A0E940B3A0E943D390E94BC3BE021DC
:1050E20071F00E945B3B0E94613B19F40E94683B95
:1050F20002C00E946F3B0E9445390E94313A0E94D1
:105102001A3911F40E9420390E94A0390E94A7394D
:105112000E94AF390E94BF3A0E94753B31F00E9453
:1051220065360E94D4370E94CC390E94A0390E9471
:10513200CF390E94D43D0E220E94BF3A0E948B3B7F
:10514200C9F00E94DD3911F40E94E3390E94E93965
:1051520071F40E94EA3A09F41A980E94EF390E9407
:10516200EF3A4A165B0611F40E94203903C01A9ADC
:105172000E94FD390E94A0390E94A7390E948B36F5
:105182000E220E94BF3A0E948B3B31F00E947B3676
:105192000E94F43A0E94CC390E940B3A0E94243AAF
:1051A2000E941F3BE02121F00E94313A0E946E3A98
:1051B2000E94753A0E2E0E940B3A0E94D43DE021C5
:1051C20021F00E9426380E947A3A0E940B3A0E94ED
:1051D2007D3AE02119F00E94813A1B980E94903B8F
:1051E2000E94A0390E94953BE029E12129F01A98FA
:1051F2000E94E3390E94933A0E94903B0E949A3A9D
:105202000E220E94A0390E94D43DE02121F00E948A
:105212009C3A0E94CC390E94903B0E94A0390E9485
:10522200C23D0E220E949A3AE02111F00E94A33A56
:105232000E94A83B0E94C23D0E220E94BF3A0E94D9
:105242001A3A0E94B53B0E220E941A3AE12971F0E5
:105252000E94A33A0E94813A0E9445390E94CB3AA9
:105262000E94E3390E94453B0E94543B0895E0E0CE
:10527200EBBBEFEFEABBE0E0E8BBEFEFE7BBE0E060
:10528200E5BBEFEFE4BBE0E0E2BBEFEFE1BBE0E068
:10529200E3B9EFEFE2B9E0E0E0936200EFEFE09311
:1052A2006100E0E0E0936500EFE1E0936400E0E09C
:1052B200E0BFE7E0E3BFE0E0E2BFE1BFEFBDEEBD8C
:1052C200EDBDECBDE7BDE6BDEBBDEABDE9BDE8BDA8
:1052D200E0937900E0937800E5BDE4BDE3BDE0939F
:1052E2008B00E0938A00E0938900E0938800E093CA
:1052F2008100E0938000E0938700E0938600E093D2
:105302008500E0938400E0938300E0938200E093C1
:105312006A00EABFE9BFE1E0E7BFE0E0E0937D00B9
:10532200EBB9E8E1EAB9E6E0E0939500E0E0E0936A
:105332009000E7E6E9B9E0E0E0939A00E0E8E8B936
:10534200E0E0E0BDE6B9EDB9E09374000E94523DA1
:1053520078940E94C13B0E94C13B0E94C13B0E94C3
:10536200C13B0E941D33E3E0EA930E94A231E0E8D0
:10537200EA930E94A231E2E0EA930E94A231E0E1C4
:10538200EA930E94A231E1E0F0E0E0931B05F09382
:105392001C05E0E0E0934505E09346050E94C43B0E
:1053A200E0E0E0937305E09374050E94CB3B0E941A
:1053B200D13B689420F821F822F8E7EBF0E0E09383
:1053C2007905F0937A05E4E6F0E0E0938F05F09337
:1053D2009005E0939105F0939205E1E0F0E0E0930F
:1053E2009305F0939405E2E3F0E0E0939505F093E2
:1053F2009605E4E6F0E0E0939F05F093A005E8E768
:10540200F0E0E0934305F0934405E0E0E093B70554
:10541200E093B805E0E5F0E0E0935305F09354051E
:10542200E0E0E0935505E0935605E0E4F0E0E09318
:105432005705F0935805E0E0E0935905E0935A05CB
:105442000E94DF1D0E9446060E947A1D0E9481383A
:105452000E948B360E94D73BE1E0F0E00E94DA3DE9
:105462000E220E94DD3BE1E0F0E00E94C83D0E22E8
:10547200E0911F05F09120050E94E23BE0211E2EE3
:105482000E94E73B0E94EC3B0E94C23DE029E121E1
:105492000E2EA0917305B09174050E948B36E029FF
:1054A20011F40C948731E0915F05F091600530971B
:1054B20011F00C94572BC69AE0917305F091740584
:1054C200309711F00C94062BE091B505F091B605DA
:1054D2000E94EF370E94A8330E94CC370E94B73750
:1054E2000E94A8330E94D5330E94B7370E94173416
:1054F2000E943605E0934705F09348050E94A833C1
:105502000E9490330E943605E0934905F0934A05C4
:105512000E9490330E94953331972F010E94A83345
:105522000E94F4335F010E94603619F4E1E0F0E07A
:105532002F010E946F3631F0E2E3F0E0E0939F0525
:10554200F093A0050E9412340E94CA333F010E94C8
:1055520090330E94A8330E9436054F01082C092877
:1055620019F4F30131973F010E9412340E94E4338F
:10557200E0938F05F09390050E9412340E94D53378
:105582000E943605E0939105F09392050E949033B4
:105592000E94CC370E943605E0939305F093940560
:1055A2000E9412340E94F433E0939505F09396051D
:1055B2000E9490330E94F4330E94FF330E94CA3348
:1055C200E093A505F093A6050E9417340E94953337
:1055D200E093BD05F093BE050E94DD3B0E94F13BC6
:1055E2000E2E0E94E73BE02139F00E94F63BE09349
:1055F2004905F0934A0505C0E0E0E0934905E093D0
:105602004A050E9426380E94BA11E1E0F0E0E093D8
:105612007305F09374050E946437119779F41E980C
:105622000E94FB3B24F4E9E0F0E00E9438390E943A
:10563200013C24F40E94A8330E94073C0E94643774
:10564200129781F40E94E01E0E94FB3B24F4E8E0E2
:10565200F0E00E9438390E94013C24F40E9426386E
:105662000E94073C0E9423390E940A3CE021E9F093
:105672000E946437129749F41E9903C00E94841E47
:10568200FBCFE8EBFBE00E942E380E94C13B0E9458
:1056920045390E94CB3A0E94E3390E94D13B0E94D5
:1056A200163CE1E0F0E00E941C3C2FC6E130A0E095
:1056B200FA07F1F50E94213C0E942B3CE02129F0DF
:1056C2001F9A0E9442360E942D3C0E94213C0E9459
:1056D2008537E02149F01F9A0E94E01EE0917D0586
:1056E200F0917E050E942D3C0E94A0390E94D43D7B
:1056F2000E2E0E94303CE02121F00E949C3A0E9432
:10570200CC390E94303C0E2E0E94A0390E94C23D2C
:10571200E02169F00E9445390E94393CE0E0E093C3
:105722005D05E0935E05E2E0F0E00E941C3CEDC501
:10573200E230A0E0FA07E1F40E946437129711F414
:105742000E94E01E0E943F3C34F40E947B360E947D
:10575200F43A0E94CC390E943F3C49F41A9A0E94C2
:10576200E3390E94453CE3E0F0E00E941C3CCDC5D9
:10577200E330A0E0FA0711F00C943A2C0E9464374F
:10578200129711F40E94E01E0E94A0390E94D43D9B
:105792000E2EE0919F05F091A005A0913B05B091DE
:1057A2003C0580913D0590913E050E94B83D0E94C6
:1057B200E03D0E220E944F3C31F00E9465360E946D
:1057C200D4370E94CC390E94A0390E94CF390E945E
:1057D200D43DE02141F10E94F73A0E94E339D5011C
:1057E2000E947C380E2ED5010E94BC3B0E2AF2018B
:1057F2000E94EF3A0E94C23DE02111F00E9420393E
:10580200D5010E947C380E2ED5010E94BC3B0E2A87
:105812000E944F3C41F0E2E0F0E00E941C3C0E94FA
:10582200EA3A09F41A980E94A0390E94D43D0E2E39
:10583200F2010E94EF3A0E94C23D0E22D5010E945F
:105842008B36E02131F0E3E0F0E00E94D4370E9491
:10585200CC390E94A0390E94CF390E94C23DE0217A
:1058620039F01A980E94E339E4E0F0E00E941C3C0F
:105872004CC5E430A0E0FA07D9F40E9464371297CD
:1058820011F40E94E01E0E943F3C24F40E949C3AC4
:105892000E94CC390E943F3C51F41A980E94E3398D
:1058A200E0E0E0936105E09362050E94553C2DC55E
:1058B200E530A0E0FA0711F00C94082D0E9423397C
:1058C2000E94583C0E942B3CE02131F00E94A833F8
:1058D2000E949D1F0E94B1380E9423390E94583CA9
:1058E2000E948537E02131F00E9426380E949D1FD8
:1058F2000E94B1380E946437129711F40E94E01E90
:105902000E9423390E94C23D0E94603C0E94463898
:1059120041F00E944539E1E0F0E0E0936105F09347
:1059220062050E9423390E94663C0E948B360E2239
:105932000E942B3CE02121F00E9442360E9438391D
:105942000E9423390E94663C0E948B360E220E94DE
:105952008537E02131F0E0917D05F0917E050E94CE
:1059620038390E9423390E94663C0E947C38E0212B
:1059720021F0E3E0F0E00E9438390E94213C0E94CD
:105982008B3B21F0E3E0F0E00E942D3C0E94213CA1
:105992000E94693C0E220E942B3CE02121F0E8E0AB
:1059A200F0E00E942D3C0E94213C0E94693C0E22A4
:1059B2000E948537E02121F0E9E0F0E00E942D3CD1
:1059C2000E9423390E940A3C0E22A0916105B091E7
:1059D20062050E948B36E0211E2E0E9423390E940E
:1059E2000A3C0E22A0916105B09162050E947C38AA
:1059F200E021E12959F00E9445390E94393C0E9478
:105A0200313A1B9AE6E0F0E00E941C3C7EC4E6308C
:105A1200A0E0FA0711F00C945C2DA0914D05B09115
:105A22004E05159724F40E9447360E941F3A0E94A1
:105A32001A3911F40E9420390E943F3C34F40E942A
:105A42007B360E94F43A0E94CC390E946437129746
:105A520011F40E94E01E0E94A0390E94C23D0E2E47
:105A62000E940B3A0E94C23DE02121F10E946E3C4D
:105A72000E2E0E942B3CE0211E2E0E947A3C0E2EFE
:105A82000E948537E021E12909F01A9A1B9A0E94A7
:105A9200313A0E94E3390E94833C0E94023E24F480
:105AA2000E94883C0E94923C0E94453CE7E0F0E064
:105AB2000E941C3C2AC4E730A0E0FA0711F00C94C3
:105AC200D32D0E946437129711F40E94E01E0E94A7
:105AD2006F3BE0E0E0935D05E0935E05E0936305D4
