:200000000C94D7030C9400000C9400000C9400000C9400000C9400000C9400000C94000006
:200020000C9400000C9400000C9400000C9400000C9400000C9400000C9400000C940000C0
:200040000C9450040C9400000C9400000C9400000C9400000C9400000C9400000C9400004C
:200060000C9400000C9400000C9400000C9400000C9400000C9400000C9400000C94000080
:200080000C9400000C9400000C9400001027E80364000A00010000100001100001000000CD
:2000A000202020202020202020202020202020202020202020202020202020202020202040
:2000C00020202020202020202020202020202020005A616369736B206E6965207A6D69658A
:2000E000727A6F6E7920752057796B6F6E61776379004F73207A616369736B7520626C690A
:200100007A656A20737A616679004F73207A616369736B752064616C656A206F6420737A4D
:20012000616679004369736E69656E6965207A61206D616C65202D206D6E69656A737A655C
:20014000206E697A2036206261720038362D303137300038362D313034330038362D3136BB
:2001600037350038362D323039380038372D303137300038372D313034330038372D3136DA
:2001800037350038372D323039380038362D303139320038362D313035340038362D3136B6
:2001A00037360038362D323133320038372D303139320038372D313035340038372D31369E
:2001C00037360038372D323133320038362D303139330038362D313231360038362D31387D
:2001E00033320038362D323137340038372D303139330038372D313231360038372D31385D
:2002000033320038372D323137340038362D303139340038362D313334310038362D31383E
:2002200033330038362D323138300038372D303139340038372D313334310038372D31381E
:2002400033330038372D323138300038362D303636330038362D313334390038362D3138F7
:2002600033340038362D323230340038372D303636330038372D313334390038372D3138D7
:2002800033340038372D323230340038362D303736380038362D313335370038362D3138B4
:2002A00034380038362D323231320038372D303736380038372D313335370038372D31388E
:2002C00034380038372D323231320038362D303830300038362D313336330038362D31397F
:2002E00030340038362D323234310038372D303830300038372D313336330038372D313963
:2003000030340038372D323234310038362D303831310038362D313532330038362D313944
:2003200032390038362D323236310038372D303831310038372D313532330038372D313919
:2003400032390038372D323236310038362D303831340038362D313533300038362D3139FA
:2003600033360038362D323238350038372D303831340038372D313533300038372D3139D4
:2003800033360038372D323238350038362D303831350038362D313535310038362D3139B2
:2003A00034310038362D323238360038372D303831350038372D313535310038372D313993
:2003C00034310038372D323238360038362D303831360038362D313535320038362D32307B
:2003E00030370038362D323239320038372D303831360038372D313535320038372D32305A
:2004000030370038372D323239320038362D303831370038362D313630320038362D32303E
:2004200031370038362D323338340038372D303831370038372D313630320038372D323019
:2004400031370038372D323338340038362D303834370038362D313632300038362D3230F8
:2004600031390038362D323338350038372D303834370038372D313632300038372D3230D3
:2004800031390038372D323338350038362D303835340038362D313632320038362D3230B5
:2004A00032380038362D323433370038372D303835340038372D313632320038372D323095
:2004C00032380038372D323433370038362D303836320038362D313632350038362D323075
:2004E00035320038362D323439320038372D303836320038372D313632350038372D323055
:2005000035320038372D323439320038362D303933350038362D313634380038362D323030
:2005200038320038362D323530300038372D303933350038372D313634380038372D323015
:2005400038320038372D323530300038362D313031390038362D313634390038362D3230FC
:2005600038330038362D323538350038372D313031390038372D313634390038372D3230CC
:2005800038330038372D323632340038362D313032370038362D313636390038362D3230B3
:2005A00038370038362D323632340038372D313032370038372D313636390038372D32308D
:2005C00038370038372D32353835004E69652077637A7974616E6F207A616369736B750067
:2005E0004E616369736E696A20535441525420616279207779706F7A79636A6F6E6F7761EF
:2006000063206E6170656479005A616D6B6E696A206F736C6F6E7920676F726E65004F7440
:20062000776172636965206F736C6F6E2077207472616B63696520706F7A79636A6F6E6F4F
:2006400077616E69610057796C61637A206920776C61637A206D61737A796E6500506F7AE6
:2006600079636A6F6E756A6520756B6C616479206C696E696F77652058595A005374657289
:200680006F776E696B2033202D207779706F7A79636A6F6E6F77616C656D00537465726F74
:2006A000776E696B2034202D207779706F7A79636A6F6E6F77616C656D00416C61726D20C2
:2006C000537465726F776E696B203400416C61726D20537465726F776E696B203300537413
:2006E00065726F776E696B2031202D207779706F7A79636A6F6E6F77616C656D0053746520
:20070000726F776E696B2032202D207779706F7A79636A6F6E6F77616C656D00416C61720F
:200720006D20537465726F776E696B203100416C61726D20537465726F776E696B203200F0
:200740005779706F7A79636A6F6E6F77616E6F20756B6C616479206C696E696F77652058F0
:20076000595A0057796D69656E20737A637A6F746B65207065647A656C6B6F77610057798A
:200780006D69656E206B72617A656B2073636965726E790001002D4E414E00494E46000003
:2007A000010002009E0001009B0594070000F894EE27ECBBF1E0F5BFE5BFE0936C00F8E133
:2007C000F1BDE1BD8DE0A2E0BB27ED938A95E9F780E090E1A0E0B1E0ED930197E9F7E0EAD9
:2007E000F7E085919591009761F0A591B59105901590BF01F00105900D920197E1F7FB01F7
:20080000F0CF8BBFEFEFEDBFE0E1EEBFC0E0D5E00C94A5230E949B3023C00E949B30E695E2
:200820001FC00E949B30E695E6951AC00E949B30E695E695E69514C00E949B30E29510C036
:200840000E949B30E295EF70E6950AC00E949B300E94AA3005C00E949B30EE1FE0E0EE1F1B
:20086000E170239608951A930A9300E010E00E94AF30E4E0EA930E94342FE3E80E94B7309C
:20088000E1E0EA930E94342F0E94C2300E94C2300E94C2300E2F1127F8011981088190C078
:2008A0006A937A938A939A93AA93BA93EA93FA93EFB7EA93A1E1B5E00E94C830A5E1B5E061
:2008C0000E94C830A9E1B5E00E94C830ADE1B5E00E94C830A1E2B5E00E94C830A5E2B5E03A
:2008E0000E94C830A9E2B5E00E94C830ADE2B5E00E94C8301B9B26C0ADE8B5E00E94D1307D
:20090000ABE8B5E00E94D130A0918D05B0918E050E94D83041F40E94E2300E94E830319661
:200920000E94833A3197A0918B05B0918C050E94D83041F40E94ED300E94F33031960E9431
:20094000833A3197E991EFBFF991E991B991A991999189917991699118951A930A9300E043
:2009600010E00E94F8300E94252F8F010D5F1F4F0E94AF300A930E94342FE2E80E94B730E7
:200980000E94F83080E00E947630229619810881289608950E94AF30E5E0EA930E94FD301D
:2009A000EA81EA930E94342FE881EA930E94342FE0E0EA930E94342FEC81EA930E94342F2E
:2009C000269608950E94E8300E9403310E940A31E1DF0E94F3300E940F310E941631DADF48
:2009E000089524970E94AA3A00E010E0EE85FF85FA93EA930E94252F8F010D5F1F4FAC85B7
:200A0000BD85119759F420E030E040E550E0E0E5F0E0E887F987E0E0EE83EF83AC85BD85A0
:200A2000129759F420E030E040E250E0E0E4F0E0E887F987E0E0EE83EF830E94AF300A931A
:200A40000E94FD302A930E94342F4A930E94342FEE85FF85FA93EA9380E00E9476302296C2
:200A60000E941B31EC85FD850E9423310E94593AA0E0B0E00E94333AE02151F00E942A310C
:200A8000E1EDF0E00E9438310E9438310E943D310E941B310E94413151F00E942A31E2EF81
:200AA000F0E00E9438310E9438310E943D310E941B310E94493151F00E942A31EAE0F1E05D
:200AC0000E9438310E9438310E943D310E9451310E94413151F00E942A31EAE0F1E00E943D
:200AE00038310E9438310E943D310E9451310E94493151F00E942A31E2EFF0E00E94383148
:200B00000E9438310E943D310E94B13A609608950E94E8300E9459310E2E0E94F3300E9411
:200B200059310E2A0E945F310E9459310E2A0E9464310E9459310E2A0E9469310E9459315A
:200B40000E2A0E946E310E9459310E2A0E9473310E945931E029F1F00E9478310E94E2305D
:200B60000E947F310E94ED30AAE0B0E0E5E0F0E00E94833AACE0B0E00E94833AA0E0B0E0CB
:200B80000E948631A2E0B0E00E948631A4E0B0E00E94863108950E948B313CDEA0E00E94ED
:200BA0002E3AEF930E948B3138DEA0E00E942E3AAF91EA2341F00E9495310E949A31E09387
:200BC0003105F09332050E9495310E94A0310E94A6310E9416310E94AB310E949A310E945B
:200BE000B2310E94BB310E94C4310E94CB310E94D031ACE0B0E00E94833AE0E2F0E00E94FD
:200C00000F3131DEAAE0B0E00E94833A0E9495310E940A3128DEA8E0B0E00E94833A0E94A8
:200C2000CB310E9416311FDEA6E0B0E00E94833A0E9416310E94D63116DEE0938705F09355
:200C400088050E9416310E94DB310DDEE0938905F0938A050E9416310E94D0310E94E03133
:200C60000E940A310E94E53153DF08951A930A9301E010E0002E012AA9F40E94EC31E6DD7D
:200C8000E03029F401E010E0E0EAF0E006C000E010E00E94F631E4E2F1E0FA93EA930E941A
:200CA0000532E8CF0991199108951A930A930E941032B0DDE1700E2EE0910205EE7F0E9496
:200CC0001A32ABDDE170EE0F0E2EE0910205ED7F0E941A32A6DDE170EE0FEE0F0E2EE09169
:200CE0000205EB7F0E941A32A1DDE170EE0FEE0FEE0F0E2EE0910205E77F0E941A329CDD4E
:200D0000E170E295E07F0E2EE0910205EF7E0E941A3296DDE170E295E07FEE0F0E2EE09159
:200D20000205EF7D0E941A3291DDE170E295E07FEE0FEE0F0E2EE0910205EF7B0E941A32B7
:200D40008ADDE170E795E0E0E7950E2EE0910205EF77E029E09302050E941E320E94A03121
:200D60008F01A0910205A13059F4F8010E9423310E942332EBE4F1E00E9428320E942D320A
:200D8000A0910205A23071F4F8010E942331E2E0F0E0ED93FC93E3E5F1E00E9428320E941D
:200DA00095311FDEA0910205A33071F4F8010E942331E3E0F0E0ED93FC93EBE5F1E00E942C
:200DC00028320E9495310DDEA0910205A43071F4F8010E942331E4E0F0E0ED93FC93E3E69A
:200DE000F1E00E9428320E949531FBDDA0910205A53071F4F8010E942331E5E0F0E0ED9370
:200E0000FC93EBE6F1E00E9428320E949531E9DDA0910205A63069F4F8010E942331E6E057
:200E2000F0E0ED93FC93E3E7F1E00E9428320E942D32A0910205A73069F4F8010E942331E0
:200E4000E7E0F0E0ED93FC93EBE7F1E00E9428320E942D32A0910205A83069F4F8010E9444
:200E60002331E8E0F0E0ED93FC93E3E8F1E00E9428320E942D32A0910205A93071F4F8016F
:200E80000E942331E9E0F0E0ED93FC93EBE8F1E00E9428320E949531A4DDA0910205AA3019
:200EA00071F4F8010E942331EAE0F0E0ED93FC93E3E9F1E00E9428320E94953192DDA09194
:200EC0000205AB3071F4F8010E942331EBE0F0E0ED93FC93EBE9F1E00E9428320E94953129
:200EE00080DDA0910205AC3069F4F8010E942331ECE0F0E0ED93FC93E3EAF1E00E942832F0
:200F00000E942D32A0910205AD3069F4F8010E942331EDE0F0E0ED93FC93EBEAF1E00E947B
:200F200028320E942D32A0910205AE3069F4F8010E942331EEE0F0E0ED93FC93E3EBF1E0A8
:200F40000E9428320E942D32A0910205AF3069F4F8010E942331EFE0F0E0ED93FC93EBEBAD
:200F6000F1E00E9428320E942D32A0910205A03171F4F8010E942331E0E1F0E0ED93FC93A6
:200F8000E3ECF1E00E9428320E9495312ADDA0910205A13171F4F8010E942331E1E1F0E056
:200FA000ED93FC93EBECF1E00E9428320E94953118DDA0910205A23171F4F8010E942331C2
:200FC000E2E1F0E0ED93FC93E3EDF1E00E9428320E94953106DDA0910205A33171F4F8011D
:200FE0000E942331E3E1F0E0ED93FC93EBEDF1E00E9428320E949531F4DCA0910205A4316E
:2010000071F4F8010E942331E4E1F0E0ED93FC93E3EEF1E00E9428320E949531E2DCA091E3
:201020000205A53169F4F8010E942331E5E1F0E0ED93FC93EBEEF1E00E9428320E942D323B
:20104000A0910205A63169F4F8010E942331E6E1F0E0ED93FC93E3EFF1E00E9428320E944E
:201060002D32A0910205A73169F4F8010E942331E7E1F0E0ED93FC93EBEFF1E00E94283267
:201080000E942D32A0910205A83169F4F8010E942331E8E1F0E0ED93FC93E3E0F2E00E9413
:2010A00028320E942D32A0910205A93171F4F8010E942331E9E1F0E0ED93FC93EBE0F2E029
:2010C0000E9428320E9495318CDCA0910205AA3171F4F8010E942331EAE1F0E0ED93FC9333
:2010E000E3E1F2E00E9428320E9495317ADCA0910205AB3171F4F8010E942331EBE1F0E09C
:20110000ED93FC93EBE1F2E00E9428320E94953168DCA0910205AC3169F4F8010E94233119
:20112000ECE1F0E0ED93FC93E3E2F2E00E9428320E942D32A0910205AD3169F4F8010E9461
:201140002331EDE1F0E0ED93FC93EBE2F2E00E9428320E942D32A0910205AE3169F4F80185
:201160000E942331EEE1F0E0ED93FC93E3E3F2E00E9428320E942D32A0910205AF3169F4C1
:20118000F8010E942331EFE1F0E0ED93FC93EBE3F2E00E9428320E942D32A0910205A0320A
:2011A00071F4F8010E942331E0E2F0E0ED93FC93E3E4F2E00E9428320E94953112DCA0911E
:2011C0000205A13269F4F8010E942331E1E2F0E0ED93FC93EBE4F2E00E9428320E942D32A9
:2011E000A0910205A23271F4F8010E942331E2E2F0E0ED93FC93E3E5F2E00E9428320E94B4
:201200009531EFDBA0910205A33271F4F8010E942331E3E2F0E0ED93FC93EBE5F2E00E94F5
:2012200028320E949531DDDBA0910205A43271F4F8010E942331E4E2F0E0ED93FC93E3E664
:20124000F2E00E9428320E949531CBDBA0910205A53271F4F8010E942331E5E2F0E0ED9338
:20126000FC93EBE6F2E00E9428320E949531B9DBA0910205A63269F4F8010E942331E6E220
:20128000F0E0ED93FC93E3E7F2E00E9428320E942D32A0910205A73269F4F8010E94233179
:2012A000E7E2F0E0ED93FC93EBE7F2E00E9428320E942D32A0910205A83269F4F8010E94DB
:2012C0002331E8E2F0E0ED93FC93E3E8F2E00E9428320E942D32A0910205A93269F4F8010E
:2012E0000E942331E9E2F0E0ED93FC93EBE8F2E00E9428320E942D32A0910205AA3271F433
:20130000F8010E942331EAE2F0E0ED93FC93E3E9F2E00E9428320E94953163DBA0910205BB
:20132000AB3271F4F8010E942331EBE2F0E0ED93FC93EBE9F2E00E9428320E94953151DB9A
:20134000A0910205AC3281F4F8010E942331ECE2F0E00E9433320E943732E3EAF2E00E9422
:2013600028320E9495313DDBA0910205AD3271F4F8010E942331EDE2F0E0ED93FC93EBEAA5
:20138000F2E00E9428320E9495312BDBA0910205AE3269F4F8010E942331EEE2F0E0ED938D
:2013A000FC93E3EBF2E00E9428320E942D32A0910205AF3269F4F8010E942331EFE2F0E0FB
:2013C000ED93FC93EBEBF2E00E9428320E942D32A0910205A03379F4F8010E942331E0E32F
:2013E000F0E00E9433320E943732E3ECF2E00E9428320E942D32A0910205A13371F4F80103
:201400000E942331E1E3F0E0ED93FC93EBECF2E00E9428320E949531E4DAA0910205A2335B
:2014200071F4F8010E942331E2E3F0E0ED93FC93E3EDF2E00E9428320E949531D2DAA091D1
:201440000205A33371F4F8010E942331E3E3F0E0ED93FC93EBEDF2E00E9428320E949531A8
:20146000C0DAA0910205A43369F4F8010E942331E4E3F0E0ED93FC93E3EEF2E00E94283232
:201480000E942D32A0910205A53369F4F8010E942331E5E3F0E0ED93FC93EBEEF2E00E94FB
:2014A00028320E942D32A0910205A63369F4F8010E942331E6E3F0E0ED93FC93E3EFF2E028
:2014C0000E9428320E942D32A0910205A73369F4F8010E942331E7E3F0E0ED93FC93EBEF2E
:2014E000F2E00E9428320E942D32A0910205A83371F4F8010E942331E8E3F0E0ED93FC930C
:20150000E3E0F3E00E9428320E9495316ADAA0910205A93371F4F8010E942331E9E3F0E089
:20152000ED93FC93EBE0F3E00E9428320E94953158DAA0910205AA3371F4F8010E942331FF
:20154000EAE3F0E0ED93FC93E3E1F3E00E9428320E94953146DAA0910205AB3371F4F80150
:201560000E942331EBE3F0E0ED93FC93EBE1F3E00E9428320E94953134DAA0910205AC33A0
:2015800071F4F8010E942331ECE3F0E0ED93FC93E3E2F3E00E9428320E94953122DAA09120
:2015A0000205AD3369F4F8010E942331EDE3F0E0ED93FC93EBE2F3E00E9428320E942D32AC
:2015C000A0910205AE3369F4F8010E942331EEE3F0E0ED93FC93E3E3F3E00E9428320E94BF
:2015E0002D32A0910205AF3369F4F8010E942331EFE3F0E0ED93FC93EBE3F3E00E942832D8
:201600000E942D32A0910205A03469F4F8010E942331E0E4F0E0ED93FC93E3E4F3E00E9492
:2016200028320E942D32A0910205A13471F4F8010E942331E1E4F0E0ED93FC93EBE4F3E0A8
:201640000E9428320E949531CCD9A0910205A23469F4F8010E942331E2E4F0E0ED93FC9382
:20166000E3E5F3E00E9428320E942D32A0910205A33469F4F8010E942331E3E4F0E0ED9360
:20168000FC93EBE5F3E00E9428320E942D32A0910205A43469F4F8010E942331E4E4F0E027
:2016A000ED93FC93E3E6F3E00E9428320E942D32A0910205A53469F4F8010E942331E5E45C
:2016C000F0E0ED93FC93EBE6F3E00E9428320E942D32A0910205A63471F4F8010E94233124
:2016E000E6E4F0E0ED93FC93E3E7F3E00E9428320E94953176D9A0910205A73471F4F80180
:201700000E942331E7E4F0E0ED93FC93EBE7F3E00E9428320E94953164D9A0910205A834CF
:2017200071F4F8010E942331E8E4F0E0ED93FC93E3E8F3E00E9428320E94953152D9A0914C
:201740000205A93471F4F8010E942331E9E4F0E0ED93FC93EBE8F3E00E9428320E9495319B
:2017600040D9A0910205AA3471F4F8010E942331EAE4F0E0ED93FC93E3E9F3E00E9428329E
:201780000E9495312ED9A0910205AB3471F4F8010E942331EBE4F0E0ED93FC93EBE9F3E01A
:2017A0000E9428320E9495311CD9A0910205AC3481F4F8010E942331ECE4F0E00E943332AD
:2017C0000E943732E3EAF3E00E9428320E94953108D9A0910205AD3469F4F8010E942331B4
:2017E000EDE4F0E0ED93FC93EBEAF3E00E9428320E942D32A0910205AE3469F4F8010E9482
:201800002331EEE4F0E0ED93FC93E3EBF3E00E9428320E942D32A0910205AF3469F4F801B4
:201820000E942331EFE4F0E0ED93FC93EBEBF3E00E9428320E942D32A0910205A03581F4D8
:20184000F8010E942331E0E5F0E00E9433320E943732E3ECF3E00E9428320E949531C1D853
:20186000A0910205A13571F4F8010E942331E1E5F0E0ED93FC93EBECF3E00E9428320E9419
:201880009531AFD8A0910205A23571F4F8010E942331E2E5F0E0ED93FC93E3EDF3E00E94AD
:2018A00028320E9495319DD8A0910205A33569F4F8010E942331E3E5F0E0ED93FC93EBED16
:2018C000F3E00E9428320E942D32A0910205A43569F4F8010E942331E4E5F0E0ED93FC9333
:2018E000E3EEF3E00E9428320E942D32A0910205A53569F4F8010E942331E5E5F0E0ED93CF
:20190000FC93EBEEF3E00E9428320E942D32A0910205A63569F4F8010E942331E6E5F0E095
:20192000ED93FC93E3EFF3E00E9428320E942D32A0910205A73571F4F8010E942331E7E5C2
:20194000F0E0ED93FC93EBEFF3E00E9428320E94953147D8A0910205A83571F4F8010E9463
:201960002331E8E5F0E0ED93FC93E3E0F4E00E9428320E94953135D8A0910205A93571F4E4
:20198000F8010E942331E9E5F0E0ED93FC93EBE0F4E00E9428320E94953123D8A091020575
:2019A000AA3569F4F8010E942331EAE5F0E0ED93FC93E3E1F4E00E9428320E942D32A09188
:2019C0000205AB3569F4F8010E942331EBE5F0E0ED93FC93EBE1F4E00E9428320E942D3288
:2019E000A0910205AC3589F4F8010E942331ECE5F0E00E9433320E943732E3E2F4E00E9474
:201A000028320E9495310E94F104A0910205AD3569F4F8010E942331EDE5F0E0ED93FC9356
:201A2000EBE2F4E00E9428320E942D32A0910205AE3579F4F8010E942331EEE5F0E0ED936E
:201A4000FC93E3E3F4E00E9428320E9495310E94F104A0910205AF3579F4F8010E942331EA
:201A6000EFE5F0E0ED93FC93EBE3F4E00E9428320E9495310E94F104A0910205A03689F48B
:201A8000F8010E942331E0E6F0E00E9433320E943732E3E4F4E00E9428320E9495310E940E
:201AA000F104A0910205A13679F4F8010E942331E1E6F0E0ED93FC93EBE4F4E00E94283281
:201AC0000E9495310E94F104A0910205A23679F4F8010E942331E2E6F0E0ED93FC93E3E52C
:201AE000F4E00E9428320E9495310E94F104A0910205A33669F4F8010E942331E3E6F0E021
:201B0000ED93FC93EBE5F4E00E9428320E942D32A0910205A43679F4F8010E942331E4E6DD
:201B2000F0E0ED93FC93E3E6F4E00E9428320E9495310E94F104A0910205A53669F4F801C5
:201B40000E942331E5E6F0E0ED93FC93EBE6F4E00E9428320E942D32A0910205A63669F4D2
:201B6000F8010E942331E6E6F0E0ED93FC93E3E7F4E00E9428320E942D32A0910205A7361B
:201B800079F4F8010E942331E7E6F0E0ED93FC93EBE7F4E00E9428320E9495310E94F1049C
:201BA000A0910205A83669F4F8010E942331E8E6F0E0ED93FC93E3E8F4E00E9428320E94D9
:201BC0002D32A0910205A93679F4F8010E942331E9E6F0E0ED93FC93EBE8F4E00E942832E2
:201BE0000E9495310E94F104A0910205AA3669F4F8010E942331EAE6F0E0ED93FC93E3E907
:201C0000F4E00E9428320E942D32A0910205AB3689F4F8010E942331EBE6F0E00E943332C6
:201C20000E943732EBE9F4E00E9428320E9495310E94F104A0910205AC3679F4F8010E94D4
:201C40002331ECE6F0E0ED93FC93E3EAF4E00E9428320E9495310E94F104A0910205AD36C8
:201C600069F4F8010E942331EDE6F0E0ED93FC93EBEAF4E00E9428320E942D32A091020588
:201C8000AE3679F4F8010E942331EEE6F0E0ED93FC93E3EBF4E00E9428320E9495310E94A9
:201CA000F104A0910205AF3689F4F8010E942331EFE6F0E00E9433320E943732EBEBF4E045
:201CC0000E9428320E9495310E94F104A0910205A03769F4F8010E942331E0E7F0E0ED9397
:201CE000FC93E3ECF4E00E9428320E942D32A0910205A13779F4F8010E942331E1E7F0E0B1
:201D0000ED93FC93EBECF4E00E9428320E9495310E94F104A0910205A23779F4F8010E94F5
:201D20002331E2E7F0E0ED93FC93E3EDF4E00E9428320E9495310E94F104A0910205A337F6
:201D400079F4F8010E942331E3E7F0E0ED93FC93EBEDF4E00E9428320E9495310E94F104D7
:201D6000A0910205A43769F4F8010E942331E4E7F0E0ED93FC93E3EEF4E00E9428320E9417
:201D80002D32A0910205A53769F4F8010E942331E5E7F0E0ED93FC93EBEEF4E00E94283230
:201DA0000E942D32A0910205A63769F4F8010E942331E6E7F0E0ED93FC93E3EFF4E00E94CD
:201DC00028320E942D32A0910205A73769F4F8010E942331E7E7F0E0ED93FC93EBEFF4E0EB
:201DE0000E9428320E942D32A0910205A83779F4F8010E942331E8E7F0E0ED93FC93E3E002
:201E0000F5E00E9428320E9495310E94F104A0910205A93779F4F8010E942331E9E7F0E0DE
:201E2000ED93FC93EBE0F5E00E9428320E9495310E94F104A0910205AA3779F4F8010E94D7
:201E40002331EAE7F0E0ED93FC93E3E1F5E00E9428320E9495310E94F104A0910205AB37D0
:201E600079F4F8010E942331EBE7F0E0ED93FC93EBE1F5E00E9428320E9495310E94F104B9
:201E8000A0910205AC3779F4F8010E942331ECE7F0E0ED93FC93E3E2F5E00E9428320E94E1
:201EA00095310E94F104A0910205AD3769F4F8010E942331EDE7F0E0ED93FC93EBE2F5E008
:201EC0000E9428320E942D32A0910205AE3769F4F8010E942331EEE7F0E0ED93FC93E3E322
:201EE000F5E00E9428320E942D32A0910205AF3769F4F8010E942331EFE7F0E0ED93FC93F1
:201F0000EBE3F5E00E9428320E942D32A0910205A03869F4F8010E942331E0E8F0E0ED93AD
:201F2000FC93E3E4F5E00E9428320E942D32A0910205A13879F4F8010E942331E1E8F0E073
:201F4000ED93FC93EBE4F5E00E9428320E9495310E94F104A0910205A23879F4F8010E94B9
:201F60002331E2E8F0E0ED93FC93E3E5F5E00E9428320E9495310E94F104A0910205A338B9
:201F800069F4F8010E942331E3E8F0E0ED93FC93EBE5F5E00E9428320E942D32A091020571
:201FA000A43879F4F8010E942331E4E8F0E0ED93FC93E3E6F5E00E9428320E9495310E949A
:201FC000F104A0910205A53869F4F8010E942331E5E8F0E0ED93FC93EBE6F5E00E9428325D
:201FE0000E942D32A0910205A63869F4F8010E942331E6E8F0E0ED93FC93E3E7F5E00E9490
:2020000028320E942D32A0910205A73879F4F8010E942331E7E8F0E0ED93FC93EBE7F5E09D
:202020000E9428320E9495310E94F104A0910205A83869F4F8010E942331E8E8F0E0ED9321
:20204000FC93E3E8F5E00E9428320E942D32A0910205A93879F4F8010E942331E9E8F0E03E
:20206000ED93FC93EBE8F5E00E9428320E9495310E94F104A0910205AA3869F4F8010E949C
:202080002331EAE8F0E0ED93FC93E3E9F5E00E9428320E942D32A0910205AB3869F4F8012C
:2020A0000E942331EBE8F0E0ED93FC93EBE9F5E00E9428320E942D32A0910205AC3879F449
:2020C000F8010E942331ECE8F0E0ED93FC93E3EAF5E00E9428320E9495310E94F104A09190
:2020E0000205AD3869F4F8010E942331EDE8F0E0ED93FC93EBEAF5E00E9428320E942D324D
:20210000A0910205AE3879F4F8010E942331EEE8F0E0ED93FC93E3EBF5E00E9428320E944F
:2021200095310E94F104A0910205AF3879F4F8010E942331EFE8F0E0ED93FC93EBEBF5E066
:202140000E9428320E9495310E94F104A0910205A03969F4F8010E942331E0E9F0E0ED930E
:20216000FC93E3ECF5E00E9428320E942D32F801099119910895E881F9810E9423310E94DA
:20218000593A309741F40E94F631EBECF5E00E943C320C942319E130A0E0FA0751F4E8ECA4
:2021A000F0E00E943F320E9446320E944D320C940A19E230A0E0FA0771F4E0E1F1E00E9412
:2021C0003F320E945C320E9461320E945C320E9470320C941019E330A0E0FA0761F4EAE732
:2021E000F0E00E943F320E9446320E9475320E947E320C941019E430A0E0FA0761F4E2E0D2
:20220000F1E00E943F320E9446320E9487320E947E320C941019E530A0E0FA0759F4E0EB9C
:20222000F0E00E943F320E9446320E944D320E949032F6C7E630A0E0FA0759F4EEEFF0E0CE
:202240000E943F320E945C320E946132A0E1B0E0E1C7E730A0E0FA0749F4E8E7F0E00E9437
:202260003F320E9446320E947532CEC7E830A0E0FA0749F4E0ECF0E00E943F320E94463256
:202280000E948732C1C7E930A0E0FA0769F4E8E1F0E00E943F320E9446320E9487320E94A1
:2022A00093320E949032BCC7EA30A0E0FA0759F4E6E1F0E00E943F320E9446320E949A3258
:2022C0000E947E32ADC7EB30A0E0FA0759F4E4E7F0E00E943F320E9446320E94A3320E946E
:2022E0007E329EC7EC30A0E0FA0749F4E6E9F0E00E943F320E9446320E94AC3285C7ED303A
:20230000A0E0FA0759F4EAE1F0E00E943F320E9446320E9487320E9493327CC7EE30A0E084
:20232000FA0749F4EEE5F0E00E943F320E9446320E949A3269C7EF30A0E0FA0749F4E4E848
:20234000F0E00E943F320E9446320E94A3325CC7E031A0E0FA0749F4E8EBF0E00E943F3261
:202360000E9446320E94B5325BC7E131A0E0FA0759F4E0E2F0E00E943F320E9446320E9457
:202380004D320E9490324CC7E231A0E0FA0769F4E8E9F0E00E943F320E945C320E94BE32E0
:2023A0000E945C320E9470323BC7E331A0E0FA0759F4EAEAF0E00E943F320E9446320E9452
:2023C000CD320E94D4322CC7E431A0E0FA0769F4E2E4F0E00E943F320E9446320E94CD320C
:2023E0000E94D7320E9490321BC7E531A0E0FA0749F4EEE4F0E00E943F320E9446320E94A7
:202400004D3208C7E631A0E0FA0759F4E2ECF0E00E943F320E945C320E94BE32A0E1B0E005
:20242000F9C6E731A0E0FA0759F4EEECF0E00E943F320E9446320E94CD32A9E9B1E0E4C6B2
:20244000E831A0E0FA0759F4E0E4F0E00E943F320E9446320E94CD320E94D732DBC6E931CD
:20246000A0E0FA0759F4EEE2F0E00E943F320E9446320E949A320E947E32D2C6EA31A0E0CE
:20248000FA0759F4EAEFF0E00E943F320E9446320E94E0320E949032C3C6EB31A0E0FA07DA
:2024A00049F4ECE6F0E00E943F320E9446320E94B532B6C6EC31A0E0FA0749F4E4EAF0E092
:2024C0000E943F320E9446320E94AC329DC6ED31A0E0FA0749F4EAE2F0E00E943F320E94BF
:2024E00046320E949A3290C6EE31A0E0FA0749F4E4E9F0E00E943F320E9446320E94E03245
:2025000089C6EF31A0E0FA0759F4EEE6F0E00E943F320E9446320E94E932A9E9B1E074C693
:20252000E032A0E0FA0759F4E6E8F0E00E943F320E9446320E94AC320E947E3271C6E132D4
:20254000A0E0FA0749F4EEE8F0E00E943F320E944632A0E2B0E052C6E232A0E0FA0759F4DE
:20256000EAE5F0E00E943F320E9446320E94F0320E94F73255C6E332A0E0FA0759F4EAED2B
:20258000F0E00E943F320E9446320E94FA320E94903246C6E432A0E0FA0759F4E2EAF0E080
:2025A0000E943F320E9401330E945C320E94703237C6E532A0E0FA0759F4E4E0F1E00E94A5
:2025C0003F320E9446320E94F0320E94143328C6E632A0E0FA0759F4E6E3F0E00E943F3243
:2025E0000E9446320E94F032A6E9B1E00DC6E732A0E0FA0749F4E8E1F1E00E943F320E94E4
:2026000046320E94FA3206C6E832A0E0FA0749F4E6EAF0E00E943F320E940133A0E1B0E036
:20262000F9C5E932A0E0FA0759F4EEE1F0E00E943F320E9446320E9487320E949332EAC5B6
:20264000EA32A0E0FA0759F4ECE5F0E00E943F320E945C320E9417330E949032E1C5EB3299
:20266000A0E0FA0759F4E2E6F0E00E943F320E9446320E94E9320E94F732D2C5EC32A0E00A
:20268000FA0719F40E942233CBC5ED32A0E0FA0769F4E0E1F0E00E943F320E9446320E9448
:2026A00087320E9493320E949032BAC5EE32A0E0FA0749F4E0E5F0E00E943F320E945C3261
:2026C0000E941733A7C5EF32A0E0FA0759F4E8E6F0E00E943F320E9446320E94E932A6E99C
:2026E000B1E092C5E033A0E0FA0719F40E94223397C5E133A0E0FA0759F4E4E2F0E00E94E4
:202700003F320E9446320E9487320E947E3288C5E233A0E0FA0759F4E4E1F0E00E943F32A9
:202720000E9446320E94FA320E94903279C5E333A0E0FA0759F4E2E8F0E00E943F320E94DC
:2027400046320E9438330E9414336AC5E433A0E0FA0749F4E6E0F1E00E943F320E94463243
:202760000E943F3357C5E533A0E0FA0749F4ECE4F0E00E943F320E9446320E94873244C522
:20278000E633A0E0FA0749F4ECE1F0E00E943F320E9446320E94FA323DC5E733A0E0FA072D
:2027A00049F4E4E1F1E00E943F320E944632AAE1B0E024C5E833A0E0FA0759F4EEEEF0E080
:2027C0000E943F320E9446320E943F330E94903227C5E933A0E0FA0759F4E8EFF0E00E9435
:2027E0003F320E9446320E944E330E94903218C5EA33A0E0FA0759F4E4EEF0E00E943F324A
:202800000E9446320E94E9320E94F73209C5EB33A0E0FA0759F4E2E5F0E00E943F320E9410
:2028200046320E9457330E94D432FAC4EC33A0E0FA0779F4E0E9F0E00E943F320E944632BB
:202840000E945E33A0E9B1E00E9493320E949032E7C4ED33A0E0FA0749F4ECEFF0E00E948A
:202860003F320E9446320E94E032D4C4EE33A0E0FA0759F4E8E2F0E00E943F320E944632CB
:202880000E94E932A6E9B1E0BFC4EF33A0E0FA0759F4E4E3F0E00E943F320E9446320E9482
:2028A0005733A9E9B1E0B0C4E034A0E0FA0749F4ECEEF0E00E943F320E9446320E944E332B
:2028C000A9C4E134A0E0FA0759F4ECECF0E00E943F320E9446320E9465330E947E32A0C4E3
:2028E000E234A0E0FA0759F4ECEBF0E00E943F320E9446320E9457330E946E338BC4E3344B
:20290000A0E0FA0759F4ECE9F0E00E943F320E9446320E945733A6E9B1E076C4E434A0E0F9
:20292000FA0749F4ECE7F0E00E943F320E9446320E94AC3269C4E534A0E0FA0749F4E2ED36
:20294000F0E00E943F320E9446320E9465335CC4E634A0E0FA0769F4E6EEF0E00E943F3271
:202960000E9446320E9457330E946E330E94903257C4E734A0E0FA0759F4E4EBF0E00E9425
:202980003F320E9446320E9457330E94F73248C4E834A0E0FA0759F4ECEAF0E00E943F3206
:2029A0000E9446320E94AC320E947E3239C4E934A0E0FA0769F4E2E1F0E00E943F320E94EB
:2029C0005C32EFE6F5E00E9438330E94F73228C4EA34A0E0FA0759F4E2EBF0E00E943F325F
:2029E0000E9446320E9487320E947E3219C4EB34A0E0FA0759F4ECE0F1E00E943F320E94F4
:202A000046320E94F0320E94F7320AC4EC34A0E0FA0719F40E94223303C4ED34A0E0FA07D3
:202A200069F4E6E2F0E00E943F320E945C32EFE6F5E00E943833A6E9B1E0E6C3EE34A0E03C
:202A4000FA0759F4ECE1F1E00E943F320E9446320E947133A6E9B1E0D7C3EF34A0E0FA07B9
:202A600059F4E2E1F1E00E943F320E9446320E94F032A6E9B1E0C8C3E035A0E0FA0719F436
:202A80000E942233CDC3E135A0E0FA0759F4EAEEF0E00E943F320E9446320E9478330E9407
:202AA0007E32BEC3E235A0E0FA0759F4E8EDF0E00E943F320E9446320E9481330E947E3286
:202AC000AFC3E335A0E0FA0769F4ECE8F0E00E943F320E944632A2E2B0E00E948A33A9E9B8
:202AE000B1E092C3E435A0E0FA0759F4E0EAF0E00E943F320E948F330E949833A0E1B0E07A
:202B000089C3E535A0E0FA0749F4EEEAF0E00E943F320E9446320E94783376C3E635A0E09B
:202B2000FA0749F4E6EFF0E00E943F320E9446320E94813369C3E735A0E0FA0759F4E4EC49
:202B4000F0E00E943F320E9446320E949F330E94D43266C3E835A0E0FA0769F4EEE7F0E093
:202B60000E943F320E948F330E9498330E945C320E94703255C3E935A0E0FA0759F4ECE22B
:202B8000F0E00E943F320E9446320E945E330E94F73246C3EA35A0E0FA0749F4E0EFF0E0B5
:202BA0000E943F320E9446320E944D3233C3EB35A0E0FA0759F4E8EAF0E00E943F320E948C
:202BC00046320E94E932A9E9B1E01EC3EC35A0E0FA0719F40E94223323C3ED35A0E0FA078D
:202BE00059F4E0E3F0E00E943F320E9446320E945E33A6E9B1E008C3EE35A0E0FA0759F4B9
:202C0000E4EFF0E00E943F320E9446320E944D320E94903205C3EF35A0E0FA0749F4EEE9DE
:202C2000F0E00E943F320E9446320E94B532F8C2E036A0E0FA0719F40E942233F1C2E136EF
:202C4000A0E0FA0759F4EAE6F0E00E943F320E9446320E94AC320E947E32E2C2E236A0E0CB
:202C6000FA0769F4EEEBF0E00E943F320E9446320E9475320E94A2330E949032D1C2E33650
:202C8000A0E0FA0759F4EAEBF0E00E943F320E9446320E947133A9E9B1E0B6C2E436A0E019
:202CA000FA0759F4E0E6F0E00E943F320E9446320E9487320E947E32B3C2E536A0E0FA0745
:202CC00049F4E0E7F0E00E943F320E9446320E94AC329AC2E636A0E0FA0759F4EAE8F0E08B
:202CE0000E943F320E9446320E9475320E94A23391C2E736A0E0FA0759F4E0E8F0E00E946F
:202D00003F320E9446320E9471330E94D43288C2E836A0E0FA0749F4E6EBF0E00E943F3260
:202D20000E9446320E9487326FC2E936A0E0FA0769F4E4E4F0E00E943F320E9446320E9489
:202D4000A9330E94D7320E9490326AC2EA36A0E0FA0749F4EAE3F0E00E943F320E944632B4
:202D60000E94FA3257C2EB36A0E0FA0719F40E94223356C2EC36A0E0FA0769F4E6ECF0E00C
:202D80000E943F320E9446320E9457330E946E330E94903245C2ED36A0E0FA0759F4EAE071
:202DA000F0E00E943F320E945C320E946132A0E1B0E030C2EE36A0E0FA0759F4E2E3F0E041
:202DC0000E943F320E9446320E94FA320E94903227C2EF36A0E0FA0719F40E94223320C21F
:202DE000E037A0E0FA0759F4E2EEF0E00E943F320E9446320E9457330E946E330BC2E137CD
:202E0000A0E0FA0769F4E4EDF0E00E943F320E9446320E94AC330E946E330E94903200C21C
:202E2000E237A0E0FA0779F4EAE4F0E00E943F320E945C320E94AF330E949833AFE0B0E09A
:202E40000E949032EDC1E337A0E0FA0769F4E6E7F0E00E943F320E94B233ACE9B1E00E9469
:202E600093320E949032DCC1E437A0E0FA0759F4E2E9F0E00E943F320E9446320E94F03217
:202E8000A6E9B1E0C1C1E537A0E0FA0759F4EAE1F1E00E943F320E9446320E94AC330E94BA
:202EA0006E33B8C1E637A0E0FA0759F4E6E5F0E00E943F320E945C320E94AF330E946E3368
:202EC000A9C1E737A0E0FA0759F4E2E7F0E00E943F320E94B233ACE9B1E00E9493329AC181
:202EE000E837A0E0FA0759F4E0EDF0E00E943F320E9446320E94F0320E94F73291C1E9371A
:202F0000A0E0FA0769F4E8E4F0E00E943F320E945C320E94AF330E946E330E94903280C188
:202F2000EA37A0E0FA0759F4EAE9F0E00E943F320E9446320E9471330E94F73271C1EB376D
:202F4000A0E0FA0769F4E6E4F0E00E943F320E945C320E94B9330E94BE330E94903260C110
:202F6000EC37A0E0FA0789F4E0EEF0E00E943F320E94C733A5E1B0E00E948A330E94983301
:202F8000A3E1B0E00E9490324BC1ED37A0E0FA0759F4E8E3F0E00E943F320E9446320E9451
:202FA00071330E946E3336C1EE37A0E0FA0759F4EAECF0E00E943F320E9446320E94713327
:202FC000A6E9B1E021C1EF37A0E0FA0759F4EEEDF0E00E943F320E945C320E94B9330E94DD
:202FE000BE3318C1E038A0E0FA0769F4E6E1F1E00E943F320E945C32EFE6F5E00E94753243
:203000000E94CE3307C1E138A0E0FA0779F4E8EEF0E00E943F320E94C7330E94D533A9E9AD
:20302000B1E00E94CE330E949032FAC0E238A0E0FA0769F4E2EFF0E00E943F320E94D833E5
:203040000E9498330E945C320E947032E9C0E338A0E0FA0749F4E8E0F1E00E943F320E94BF
:203060004632AFE1B0E0CAC0E438A0E0FA0759F4E4E6F0E00E943F320E9446320E94573351
:203080000E941433CDC0E538A0E0FA0769F4E8E8F0E00E943F320E94C7330E94D533A9E934
:2030A000B1E00E94CE33B6C0E638A0E0FA0759F4EEE0F1E00E943F320E94D8330E949833AE
:2030C000A0E1B0E0A7C0E738A0E0FA0759F4E4E5F0E00E943F320E9446320E94A9330E94A5
:2030E00014339EC0E838A0E0FA0779F4EEE3F0E00E943F320E945C32EFE6F5E00E94D533E5
:203100000E94DF33A0E1B0E085C0E938A0E0FA0759F4ECE0F0E00E943F320E9446320E944B
:20312000FA320E9490327CC0EA38A0E0FA0759F4ECEDF0E00E943F320E945C32EFE6F5E03D
:203140000E944D3267C0EB38A0E0FA0759F4E8E5F0E00E943F320E9446320E94AC33A6E95C
:20316000B1E052C0EC38A0E0FA0779F4ECE3F0E00E943F320E945C320E94B9330E94DF3376
:203180000E945C320E9470324BC0ED38A0E0FA0749F4EEE0F0E00E943F320E9446320E9460
:2031A000FA3238C0EE38A0E0FA0769F4EAE0F1E00E943F320E945C32EFE6F5E00E944D323E
:2031C0000E9490322DC0EF38A0E0FA0759F4E2E2F0E00E943F320E9446320E94AC330E94C5
:2031E000F7321EC0E039A0E0FA0769F5E6E6F0E00E943F320E944632ACE1B0E0A083B18393
:20320000E1E7F5E0ACE9B1E0A083B183E5E7F5E0A2E1B0E0A083B183E9E7F5E0A1E0B0E0D3
:20322000A083B1830E94E6333196E0936905F0936A050E94EB33E0936B05F0936C050E94A9
:20324000F0330E94F533A0917F05B0918005D29739F40E9404343597E0936D05F0936E05EF
:203260000E947331A0E0B0E00E94333A0E2E0E9409340E940E34E02939F00E941334359703
:20328000E0937505F09376050E941834989739F40E94EB337396E0936F05F09370050E94AF
:2032A0001D340E940E340E9422340E942A340E94223439F00E94F03370960E9430340E944D
:2032C000F5330E9435340E94223439F00E94F033B0960E9430340E94F5330E943B340E940C
:2032E000223439F00E94F033F0960E9430340E94F5330E941D340E940E340E94413439F01D
:203300000E94F033F9960E9430340E94F5330E942A340E94413441F00E94F033EE5BFF4FE5
:203320000E9430340E94F5330E9435340E94413441F00E94F033E55BFF4F0E9430340E946F
:20334000F5330E943B340E94413441F00E94F033EC5AFF4F0E9430340E94F533229608956E
:203360000E946931FA93EA930E9416310E9449340E946E310E944F340E940A310E94CA044C
:203380000E947331FA93EA93E0E3F0E00E9403310E94CA04E0917F05F09180050E944F34E4
:2033A0000E94D6310E94CA04E0918105F09182050E944F340E94DB310E94CA04E0918305B9
:2033C000F0918405FA93EA93E0E3F0E00E940F310E94CA04E0918505F09186050E944F34C8
:2033E0000E9452340E9464310E940F310E9452340E945F31FA93EA93E0E2F0E00E940F31B4
:203400000E94CA040E94E8300E9403310E940A310E94CA040E94F3300E940F310E941631CF
:203420000E94CA040895E0913105F09132053097B9F40E94F631E0EEF5E00E943C320E948E
:203440005834E0EEF5E00E9467340E9474340E9495310E949A31E0933105F0933205E3CFCC
:203460000E948B310E947A34EF930E948B310E948034AF91EA2B69F00E94F631E9E0F6E052
:203480000E943C320E945834E9E0F6E00E946734E7CFC49A0E947434C69A0E9486340E9456
:2034A0009034EF930E9486340E949634AF91EA2B11F40C94CB1A0E948B310E947A34EF93EF
:2034C0000E948B310E948034AF91EA2B81F0979AC49892980E94F631EEE1F6E00E943C323D
:2034E0000E945834E6E4F6E00E946734F0CF0E94F631EDE5F6E00E943C320E945834EDE581
:20350000F6E00E9467340E9474340E9486340E941604E03041F40E94F631ECE7F6E00E94DD
:203520003C320E9474340E9486340E942B04E03041F40E945834EBE9F6E00E943C320E94D7
:2035400074340E948B310E949C34EF930E948B310E949634AF91EA2BE9F0979A0E948B31EA
:203560000E942604E13041F40E94F631EAEBF6E00E943C320E9474340E948B310E942B043C
:20358000E13041F40E94F631ECECF6E00E943C320E94743482CFC498929A0E9474340E944F
:2035A000EC310E949034EF930E94A2340E949034AF91EA2B11F40C944D1B0E948B310E94C6
:2035C0007A34EF930E948B310E948034AF91EA2B81F0979A0E94F631EEE1F6E00E943C3292
:2035E0000E945834E6E4F6E00E946734C4989298F0CF0E94F631EDE5F6E00E943C320E9458
:203600005834EDE5F6E00E9467340E9474340E94EC310E941604E03041F40E94F631EEED8B
:20362000F6E00E943C320E9474340E94A2340E941604E03041F40E945834EDEFF6E00E945F
:2036400067340E9474340E94EC310E94AC34EF930E94A2340E94AC34AF91EA2BE9F0979A69
:203660000E94EC310E942004E13041F40E94F631ECE1F7E00E943C320E9474340E94A23440
:203680000E942004E13041F40E94F631EEE2F7E00E943C320E94743482CF0E94F631E0E476
:2036A000F7E00E943C320E945834E0E4F7E00E9467349298C6980E9474340E94B2340E9421
:2036C00049340E94B53408950E94A2340E942604A0E00E942E3AEF930E94A2340E942B04AC
:2036E000A0E00E942E3AAF910E94BB340E94C234E02131F0E1E0F0E0E0936305F09364055D
:203700000E94A2340E949C34EF930E94A2340E949634AF910E94BB340E940E34E02131F082
:20372000E2E0F0E0E0936305F09364050E94C734E1E00E942E3AE02119F01E980E94D4345E
:203740000E94C734E0E00E942E3AE02119F01E9A0E94D43408951A930A93A0912105B09117
:2037600022058091230590912405AD33E0E0BE07E0E08E07E0E09E0714F40C94071C0E9413
:20378000DF34F501D4010E94453AEF930E9410320E947A34EF930E9410320E948034AF9178
:2037A000EA2BEF930E9410320E941104A1E00E942E3AAF91EA2BEF930E9410320E9490342B
:2037C000AF91EA2BEF930E9410320E941C04A1E00E942E3AAF91EA2BEF930E9410320E9484
:2037E000AC34AF91EA2BEF930E9410320E949C34AF91EA2BEF930E9410320E949634AF9155
:20380000EA2BAF91EA2319F0F40131964F01A814B904F1F40E9455068F010E94DF34F4019C
:2038200031964F01E1E0F0E0E017F10731F4E2E0F0E00E944F340E94E934E2E0F0E0E017CD
:20384000F10731F4E1E0F0E00E944F340E94E934F5013196E815F90511F488249924099116
:20386000199108950E94EC310E942004E13019F4979A1A981B98E0913705F0913805309796
:2038800011F00C94881C0E94EF34E881E0930905E17011F4D89801C0D89AE0910905E2706A
:2038A00011F4D99801C0D99AE0910905E47011F4DA9801C0DA9AE0910905E87011F4DB9890
:2038C00001C0DB9AE0910905E07111F4DC9801C0DC9AE0910905E07211F4DD9801C0DD9AAF
:2038E000E0910905E07411F4DE9801C0DE9AE0910905E07811F4DF9801C0DF9AA881B98151
:20390000A030E1E0BE070CF0949AE1E0F0E047C0E130A0E0FA0789F4A0911105B0911205E1
:2039200080911305909114050E94F9342CF0939AE2E0F0E00E94013536C0E230A0E0FA0719
:2039400089F40E94EC310E940A04E03051F49398E0E0EBBB94980E94EF34E3E0F0E00E946F
:20396000013521C0E330A0E0FA0769F40E94EC310E941604E03031F40E94EF34E4E0F0E036
:203980000E94013510C0E430A0E0FA0761F40E94EC310E940A04E13031F4E5E0F0E0E093E8
:2039A0003705F0933805E0913705F091380576C10E94A2340E942004E13019F4979A1A982A
:2039C0001B98E0913B05F0913C05309711F00C942E1D0E940635E881E0930A05E17011F4F0
:2039E000A89801C0A89AE0910A05E27011F4A99801C0A99AE0910A05E47011F4AA9801C08C
:203A0000AA9AE0910A05E87011F4AB9801C0AB9AE0910A05E07111F4AC9801C0AC9AE091AA
:203A20000A05E07211F4AD9801C0AD9AE0910A05E07411F4AE9801C0AE9AE0910A05E078D3
:203A400011F4AF9801C0AF9AA881B981A030E1E0BE070CF0959AE1E0F0E047C0E130A0E003
:203A6000FA0789F4A0911905B0911A0580911B0590911C050E94F9342CF0969AE2E0F0E0F9
:203A80000E94103536C0E230A0E0FA0789F40E94A2340E940A04E03051F49698E0E0E5BB2E
:203AA00095980E940635E3E0F0E00E94103521C0E330A0E0FA0769F40E94A2340E9416047C
:203AC000E03031F40E940635E4E0F0E00E94103510C0E430A0E0FA0761F40E94A2340E9485
:203AE0000A04E13031F4E5E0F0E0E0933B05F0933C05E0913B05F0913C05D0C00E948B3115
:203B00000E942B04E13019F4979A1A981B98E0913905F0913A05309711F00C94D41DE881EF
:203B2000E0930705E1700E2EE0910005EE7F0E941535E695E170EE0F0E2EE0910005ED7FC3
:203B40000E941535E695E695E170EE0FEE0F0E2EE0910005EB7F0E941535E695E695E695BF
:203B6000E170EE0FEE0FEE0F0E2EE0910005E77F0E941535E295E170E795E0E0E7950E2E3D
:203B8000E0910005EF77E0290E941B35E0910705E07211F4C79801C0C79A0E942035E1E041
:203BA000F0E00E942A3576C0E130A0E0FA07A9F4A0911505B09116058091170590911805BD
:203BC0000E94F9344CF0E0910005E0620E941B35E2E0F0E00E942A355DC0E230A0E0FA07ED
:203BE00021F50E9486340E940A04E030E9F4E0910005EF7D0E941B35E0910005EE7F0E945D
:203C00002F35ED7F0E942F35EB7F0E942F35E77F0E942F35EF770E941B35C7980E94203544
:203C2000E3E0F0E00E942A3535C0E330A0E0FA0769F40E9486340E941604E03031F40E941B
:203C40002035E4E0F0E00E942A3524C0E430A0E0FA0701F50E9486340E940A04E130D1F429
:203C6000E5E0F0E00E942A35E0914705F0914805309739F4E1E0F0E0E0934705F09348050F
:203C800009C0E130A0E0FA0729F4E0E0E0934705E0934805E0913905F0913A0522960895A9
:203CA0000E948B310E942604E13019F4979A1A981B98E0913D05F0913E05309781F5EA8107
:203CC000E0930805E17011F4C09801C0C09AE0910805E27011F4C19801C0C19AE0910805D3
:203CE000E47011F4C29801C0C29AE0910805E87011F4C39801C0C39AE0910805E07111F4CC
:203D00001C9801C01C9AE0910805E07211F41D9801C01D9A0E943235E1E0F0E04AC0E130C1
:203D2000A0E0FA0789F4A0911D05B0911E0580911F05909120050E94F9342CF0C59AE2E047
:203D4000F0E00E943C3539C0E230A0E0FA07A1F40E9486340E941C04E03069F4C598C0981F
:203D6000C198C298C3981C981D980E943235E3E0F0E00E943C3521C0E330A0E0FA0769F44B
:203D80000E9486340E942B04E03031F40E943235E4E0F0E00E943C3510C0E430A0E0FA07AC
:203DA00061F40E9486340E941C04E13031F4E5E0F0E0E0933D05F0933E05E0913D05F09116
:203DC0003E052496089568970E94AA3A20E030E000E010E040E050E04B30E0E05E0744F4BC
:203DE000FA010E9441350E9437324F5F5F4FF4CFE1E9F0E0E0939705F09398050E941631D4
:203E00000E94A031E0939705F0939805A0919705B0919805A139E0E0BE0761F0E091970598
:203E2000F0919805E0930D05F0930E05E0930F05F09310050E9448350E940E340E2E0E9449
:203E40004D350E94C2340E9452350E9463350E946D3511F40C9465200E944835119711F0AF
:203E60000C946520F801309749F40E9477350E947D350E94773501E010E026C1E130A0E0E7
:203E8000FA07C1F40E949035159724F40E9495310E9495350E949835159724F40E94B234B2
:203EA0000E949D350E94A03521F00E94AD3502E010E00AC1E230A0E0FA07C1F40E94B7350F
:203EC000159724F40E9495310E94BC350E94BF35159724F40E94C4350E94C9350E94CC35EB
:203EE00021F00E94D93503E010E0EEC0E330A0E0FA0789F40E94B735159724F40E94E33563
:203F00000E94BC350E94B735159721F40E94D93504E010E0D9C0E430A0E0FA0789F40E94EE
:203F20009035159724F40E94EB330E94E7350E949035159721F40E94D93505E010E0C4C049
:203F4000E530A0E0FA0711F00C9422200E9416310E94D6310E9433049F01022E032A11F47B
:203F60000AE912E00E94EA3521F00E94F1350E9423320E94F5350E22AC85BD850E94C234C4
:203F8000E02121F00E94F1350E9423320E94FE350E22AE85BF850E94C234E02121F00E9488
:203FA000F1350E9423320E9407360E22A889B9890E94C234E02121F00E94F1350E942332F9
:203FC0000E9410360E22AA89BB890E94C234E02121F00E94F1350E9423320E9419360E22C8
:203FE000AC89BD890E94C234E02121F00E94F1350E9423320E9422360E22AE89BF890E9492
:20400000C234E02121F00E94F1350E9423320E942B360E22A88DB98D0E94C234E02121F081
:204020000E94F1350E9423320E9434360E22AA8DBB8D0E94C234E02121F00E94F1350E94F2
:20404000233242C0E630A0E0FA0789F40E949035159724F40E9495310E9495350E9490358F
:20406000159721F40E94D93507E010E02DC0E730A0E0FA0779F40E94B735159714F40E9422
:204080003D360E94B735159721F40E94D93504E010E01AC0EA39A2E0FA07B1F40E9490354E
:2040A000159724F40E9495310E9495350E949035159751F40E94AD3504E610E0E0E0E0937F
:2040C0008705E0938805C698C7CE0E9448350E94C2340E2E0E944D350E940E340E9452353D
:2040E0000E9442360E9447360E220E944C36E02111F40C94B4210E944D35119711F00C944B
:20410000B421F801309749F40E9455360E947D350E94553601E010E026C1E130A0E0FA07D5
:20412000C1F40E949035159724F40E9495310E9495350E949835159724F40E94B2340E946E
:204140009D350E94A03521F00E94AD3502E010E00AC1E230A0E0FA07C1F40E94B735159762
:2041600024F40E945B360E94BC350E94BF35159724F40E9460360E94C9350E94CC3521F07B
:204180000E94D93503E010E0EEC0E330A0E0FA0789F40E94B735159724F40E9465360E94AC
:2041A000BC350E94B735159721F40E94D93504E010E0D9C0E430A0E0FA0789F40E94903529
:2041C000159724F40E94EB330E94E7350E949035159721F40E94D93505E010E0C4C0E53057
:2041E000A0E0FA0711F00C9471210E9416310E94DB310E9433049F01022E032A11F40AE9A6
:2042000012E00E94EA3521F00E94F1350E9423320E94F5350E22AC85BD850E94C234E02113
:2042200021F00E94F1350E9423320E94FE350E22AE85BF850E94C234E02121F00E94F135C0
:204240000E9423320E9407360E22A889B9890E94C234E02121F00E94F1350E9423320E94DA
:2042600010360E22AA89BB890E94C234E02121F00E94F1350E9423320E9419360E22AC8992
:20428000BD890E94C234E02121F00E94F1350E9423320E9422360E22AE89BF890E94C2342E
:2042A000E02121F00E94F1350E9423320E942B360E22A88DB98D0E94C234E02121F00E9433
:2042C000F1350E9423320E9434360E22AA8DBB8D0E94C234E02121F00E94F1350E9423329D
:2042E00042C0E630A0E0FA0789F40E949035159724F40E9495310E9495350E949035159796
:2043000021F40E94D93507E010E02DC0E730A0E0FA0779F40E94B735159714F40E943D36B8
:204320000E94B735159721F40E94D93504E010E01AC0EA39A2E0FA07B1F40E949035159772
:2043400024F40E9495310E9495350E949035159751F40E94AD3504E610E0C698E0E0E0932A
:204360008905E0938A05C7CE0E94B13A6E9608950E94E8300F010E9464310E161F069CF014
:20438000E0910005E0640E941B350E946C360E9471360E94AD04E3E6F7E0FA93EA930E9445
:2043A00071360E94AD040E94F3300F010E945F310E161F069CF0E0910005E0640E941B357B
:2043C0000E946C360E9474360E94AD04EEE7F7E0FA93EA930E9474360E94AD04089524974D
:2043E0000E94AA3AE0E0EE83EF830E9416310E941E320E9433048F010E9416310E9416317E
:204400000E943304AF01E1E0F0E0E017F10711F00C94CB22EE81FF81309741F40E94D9356A
:20442000C69AE1E0F0E0EE83FF83B4C0E130A0E0FA07D1F40E949035159724F40E9495313A
:204440000E9495350E949835159724F40E94B2340E949D350E94A03531F00E94AD35E2E0E3
:20446000F0E0EE83FF8396C0E230A0E0FA07C1F40E94B735159724F40E9477360E94BC35A7
:204480000E94BF35159724F40E9477360E94C9350E94CC3521F00E94D9350E947C367AC0E1
:2044A000E330A0E0FA0711F00C94A2220E949035159724F4E2E0F0E00E94E7350E94983519
:2044C000159734F4E2E0F0E00E9403310E949D350E94A035B1F10E94AD350E9416310E9404
:2044E0001E320E943304E887F987309711F4C69A24C0E130A0E0FA0721F40E947C36C6983B
:2045000020C0E230A0E0FA07E1F4C69AE1E0F0E0E0937B05F0937C05E0910005EF7B0E94E9
:204520001B350E94E2300E9478310E94E2040E946C360E9471360E94AD04E4E0F0E0EE83BF
:20454000FF8328C0E430A0E0FA0721F50E949035159724F40E9495310E9495350E949835D8
:20456000159724F40E94B2340E949D350E94A03589F00E94D9350E9495310E9416310E94E8
:204580001E320E94CA04C698E5E0F0E0EE83FF8300E010E038CF0E9416310E9416310E942A
:2045A0003304AF01E0E0EE83EF83E1E0F0E0E417F50711F00C94A123EE81FF81309741F499
:2045C0000E94D935C69AE1E0F0E0EE83FF83B8C0E130A0E0FA07D1F40E949035159724F44D
:2045E0000E9495310E9495350E949835159724F40E94B2340E949D350E94A03531F00E947E
:20460000AD35E2E0F0E0EE83FF839AC0E230A0E0FA07C1F40E94B735159724F40E947736F0
:204620000E94BC350E94BF35159724F40E9477360E94C9350E94CC3521F00E94D9350E9498
:204640007C367EC0E330A0E0FA0711F00C9478230E949035159724F4E2E0F0E00E94E7351F
:204660000E949835159734F4E2E0F0E00E9403310E949D350E94A035D1F10E94AD350E94BC
:2046800016310E9416310E9433049F01F901309731F4E4E0F0E0EE83FF83C69A28C0E130AB
:2046A000A0E0FA0721F4C6980E947C3620C0E230A0E0FA07E1F4E4E0F0E0EE83FF83E1E022
:2046C000F0E0E0937D05F0937E05C69AE0910005EF7B0E941B350E94ED300E947F310E942A
:2046E000E2040E946C360E9474360E94AD0428C0E430A0E0FA0721F50E949035159724F433
:204700000E9495310E9495350E949835159724F40E94B2340E949D350E94A03589F00E9404
:20472000D935E5E0F0E0EE83FF830E9495310E9416310E9416310E94CA04C69840E050E08B
:2047400034CF0E94B13A2A960895E0E0EBBBEFEFEABBE0E0E8BBEFEFE7BBE0E0E5BBEFEF62
:20476000E4BBE0E0E2BBEFEFE1BBE0E0E3B9EFEFE2B9E0E0E0936200EFEFE0936100E0E0E7
:20478000E0936500EFE1E0936400E0E0E0BFE7E0E3BFE0E0E2BFE1BFEFBDEEBDEDBDECBD27
:2047A000E7BDE6BDEBBDEABDE9BDE8BDE0937900E0937800E5BDE4BDE3BDE0938B00E093ED
:2047C0008A00E0938900E0938800E0938100E0938000E0938700E0938600E0938500E09313
:2047E0008400E0938300E0938200E0936A00EABFE9BFE1E0E7BFE0E0E0937D00EBB9E8E198
:20480000EAB9E6E0E0939500E0E0E0939000E8E0E9B9E0E0E0939A00E0E8E8B9E0E0E0BD67
:20482000E6B9EDB9E09374000E94BE3978940E9481360E9481360E9481360E9481360E94A1
:20484000AF30E3E0EA930E94342FE0E8EA930E94342FE2E0EA930E94342FE0E1EA930E94C6
:20486000342FE1E0F0E05F010E94B5340E948736E0E0E0935F05E09360050E948E360E9483
:204880009436689420F821F81E9A22F8E7EBF0E0E0936505F0936605E4E6F0E0E0937F0551
:2048A000F0938005E0938105F0938205E1E0F0E0E0938305F0938405E2E3F0E0E0938505C3
:2048C000F0938605EAE4F1E0E0939305F0939405E8E7F0E06F01E0E5F0E0E0933F05F09326
:2048E0004005E0E0E0934105E0934205E0E4F0E0E0934305F0934405E0E0E0934505E09335
:2049000046050E94B0190E94131A0E9436060E94AB1B0E94641B2CDD62DD0E94E2040E9439
:20492000CB0551DA0E943606A0913105B09132050E940E340E2E0E9463350E944236E1E08A
:20494000F0E00E94393A0E220E946D351E2E0E944C360E2E0E9442360E94C234E029E12195
:204960000E2EA0915F05B09160050E940E34E02911F40C94182FE0914B05F0914C0530978D
:2049800011F00C94A025C69AE0915F05F0916005309711F00C943B25C69A0E94B2340E9444
:2049A000CB310E94CA040E94B2340E94DB310E94CA040E9495310E94A0310E94A6310E94EF
:2049C00016310E94AB310E949A3131970E94B2310E94BB310E94C4310E947331309731F401
:2049E0000E946E3131970E94833A31960E941E320E94D6310E943304E0937F05F093800515
:204A00000E941E320E94DB310E943304E0938105F0938205E0E3F0E00E940F310E943304CC
:204A2000E0938305F09384050E941E320E94D031E0938505F09386050E9416310E94D03143
:204A40000E94E0310E940A310E94E5310E949A360E2E0E944C36E02139F00E949C36E0932B
:204A60003505F093360505C0E0E0E0933505E09336050E947735E1E0F0E0E0935F05F09325
:204A800060050E94A136119789F41E980E94B735159724F40E9460360E94BC350E94BF35AA
:204AA000159724F40E9495310E94C9350E94A136129791F40E94AB1B0E94B735159724F4C9
:204AC0000E94C4350E94BC350E94BF35159724F40E945B360E94C9350E94CC3579F10E94CC
:204AE000A136129759F41E9903C00E94641BFBCFE8EBFBE0FA93EA930E94103A0E94813687
:204B00000E94D9350E9494360E94A6360E94A136119741F40E948B310E940A04E130D1F3C2
:204B20000E94AC360E94A136129741F40E948B310E940D04E130D1F30E94AC360C94162F4B
:204B4000E130A0E0FA0711F00C94F4250E94B3360E940E34E02129F01F9A0E94E3350E946B
:204B6000C9350E94B3360E94BA3639F01F9A0E94AB1B0E9465360E94C9350E94C0360E94B9
:204B8000453A0E94C436E02121F00E94CB360E949D350E94CE360E94333A0E2E0E94C03648
:204BA0000E94333AE021F1F00E94D2360E94D8360E94E2360E94A136119741F40E948B313C
:204BC0000E940A04E130D1F30E94E7360E94A136129741F40E948B310E940D04E130D1F354
:204BE0000E94E7360C94162FE230A0E0FA0779F50E94A136129711F40E94AB1B0E94983512
:204C0000159724F40E94EE360E949D350E9498351597D9F41A9A0E94F5360E94A13611970C
:204C200041F40E948B310E940A04E130D1F30E94FB360E94A136129741F40E948B310E9432
:204C40000D04E130D1F30E94FB360C94162FE330A0E0FA0711F00C94A3260E94A136129796
:204C600011F40E94AB1B0E94C0360E94453A0E2E0E940B3731F00E9404340E9403310E947B
:204C80009D350E94C0360E941D370E9421370E94453AE02111F40C94A1260E9426370E948B
:204CA000F5360E9469310E942137EA17FB0789F5E0E0E0932D05E0932E05E0932F05E093ED
:204CC00030050E94A1361197B9F4F601A0912D05B0912E0580912F05909130050E94243A68
:204CE0000E94A53A94F31A980E948B310E940A04E130D1F30E942E370E94A136129741F4B9
:204D00000E948B310E940D04E130D1F30E942E3718C00E94A136119741F40E948B310E9478
:204D20000A04E130D1F30E94E7360E94A136129741F40E948B310E940D04E130D1F30E94F2
:204D4000E7360C94162FE430A0E0FA0779F50E94A136129711F40E94AB1B0E9498351597A4
:204D600024F40E94CB360E949D350E9498351597D9F41A980E94F5360E94A136119741F447
:204D80000E948B310E940A04E130D1F30E9435370E94A136129741F40E948B310E940D04BA
:204DA000E130D1F30E9435370C94162FE530A0E0FA0711F00C948C270E9441370E944C3702
:204DC000E02121F00E9495310E94BC350E9441370E944F3721F00E945B360E94BC350E940B
:204DE000A136129711F40E94AB1B0E9452370E94333A0E9456370E94C234E02141F00E94F1
:204E0000D236E1E0F0E0E0934D05F0934E050E9452370E945C370E940E340E944C37E021F4
:204E200021F00E94E3350E94BC350E9452370E945C370E940E340E944F3721F00E9465365A
:204E40000E94BC350E9452370E945C370E94BA3611F00E943D360E94CE360E945F370E9437
:204E6000C234E02121F0E3E0F0E00E9467370E94CE360E945F370E940E340E944C37E0216F
:204E800021F00E94C4350E94C9350E94CE360E945F370E940E340E944F3721F00E94603693
:204EA0000E94C9350E9452370E94333A0E94C4360E22A0914D05B0914E050E940E34E02150
:204EC0001E2E0E9452370E94333A0E94C4360E22A0914D05B0914E050E94BA36E129D9F004
:204EE0000E94D2360E94D8360E946A3741F40E948B310E940A04E130D1F30E9471370E9411
:204F0000A136129741F40E948B310E940D04E130D1F30E9471378AC7E630A0E0FA0711F0C3
:204F20000C94F5270E949035159724F40E94EB330E94E7350E94793711F40E947F370E94BB
:204F40009835159724F40E94EE360E949D350E94A136129711F40E94AB1B0E94C0360E94BD
:204F6000333A0E9482370E94333AE021E9F10E9487370E2E0E94A1360E940E34E0211E2E39
:204F80000E9493370E2E0E94A1360E94BA36E12909F01A9AC69A0E949835159709F41A9A7B
:204FA0001B9A0E94AD350E949C370E949C3A24F40E94A1370E94AB370E94A136119741F45F
:204FC0000E948B310E940A04E130D1F30E94AF370E94A136129741F40E948B310E940D04FE
:204FE000E130D1F30E94AF3721C7E730A0E0FA0711F00C9446280E94A136129711F40E94FC
:20500000AB1B0E94BF370E94C5370E94C937E0E00E94CE370E94D4370E94D9370E94DF3774
:205020000E94E5370E94D2360E94D8360E946A37A1F40E948B310E940A04E130D1F30E94FB
:205040007331DF010E949C3A34F40E94EB3711F40E94F43702C00E94FB370E94A1361297DE
:20506000A1F40E948B310E940D04E130D1F30E947331DF010E949C3A34F40E94EB3711F426
:205080000E94F43702C00E94FB37D0C6E837A3E0FA0711F00C94B2290E94023814F40E9472
:2050A00013380E94A136129711F40E94AB1B0E94793711F40E947F370E9452370E9417384B
:2050C000DF010E9447360E941B380E94C234E02121F00E94F0330E9421380E9452370E94A5
:2050E00024380E94C234E02121F00E94D2360E942C380E9452370E9417380E9433380E942F
:205100000E34E02111F00E943A380E9452370E94333A0E2E0E9473310E9433380E940E348A
:20512000E02121F00E94D2360E943F380E9473310E9447380E940E34E02121F00E94D23693
:205140000E944C380E9452370E94533811F00E945B380E9452370E9424380E94BA3621F0CF
:205160000E94D2360E9460380E94C0360E9467380E94C2340E946F380E220E940B3731F05C
:205180000E9404340E9403310E949D350E94C0360E941D370E947538E021A1F0E0915B05AB
:2051A000F0915C05309711F40E94F5360E94793829F40E9426370E947F3804C00E94E5372A
:2051C0000E9486380E9490380E9494380E94C2340E949C38E02121F00E9413340E94E735D0
:2051E0000E9490380E94A2380E94A6380E94453A0E949C38E02169F00E94AB38E091570506
:20520000F0915805309719F40E94B13802C00E94DF370E9490380E9494380E940E34E0211A
:2052200021F00E94EB330E94E7350E94C0360E9467380E940E340E946F38E02121F00E9425
:20524000EE360E949D350E9490380E94A2380E94BF380E9469310E94C4380E941B380E94C6
:20526000C83821F00E94AB380E94CE380E94D5380E9482370E94453AE02111F00E94DA380F
:205280000E9490380E94DD38E02111F00E94E1380E94C0360E941D370E94E5380E94A63863
:2052A0000E94393AE02121F00E94F5360E94EA380E94F1380E2E0E94C0360E94453AE02175
:2052C00021F00E94CB360E949D350E94C0360E94333A0E2E0E94F138E02119F00E94D9373C
:2052E0001A980E9469310E9421370E94A2380E94BF380E9490380E94F6380E94333A0E94C6
:205300009C380E946F380E941B380E94C83849F1E0E00E94D4370E94D9370E94D9350E942E
:20532000C5370E94CE370E94C9370E94BF370E9413380E94A136119741F40E948B310E944D
:205340000A04E130D1F30E94FA380E94A136129741F40E948B310E940D04E130D1F30E94B7
:20536000FA3864C5E73EA3E0FA0711F00C94BC2A0E94023814F40E9413380E94A1361297AF
:2053800011F40E94AB1B0E94793711F40E947F370E94C0360E9467380E94C2340E946F3837
:2053A0000E220E940B3731F00E9404340E9403310E949D350E94C0360E941D370E947538B7
:2053C000E02169F00E94793831F41A980E9426370E947F3804C00E94E5370E9486380E946D
:2053E00090380E9494380E94C2340E949C38E02121F00E9413340E94E7350E9490380E94A4
:20540000A2380E94A6380E94453A0E949C38E02169F00E94AB38E0915705F091580530974A
:2054200019F40E94B13802C00E94DF370E9490380E9494380E940E34E02121F00E94EB33CC
:205440000E94E7350E94C0360E9467380E940E340E946F380E220E9469310E94C438E0217D
:2054600021F00E94EE360E949D350E9490380E94A2380E94BF380E9469310E94C438E02187
:2054800021F00E94AB380E94CE380E94D5380E9482370E94453AE02111F00E94DA380E944B
:2054A00090380E94DD38E02111F00E94E1380E94C0360E941D370E94E5380E94A6380E9441
:2054C000393AE02121F00E94F5360E94EA380E94F1380E2E0E94C0360E94453AE02121F0E4
:2054E0000E94CB360E949D350E94C0360E94333A0E2E0E94F138E02119F00E94D9371A9879
:205500000E9469310E9421370E94A2380E94BF380E9490380E94F6380E94333A0E949C3881
:205520000E946F38E02139F1E0E00E94D4370E94D9370E94D9350E94C5370E94CE370E9441
:20554000C9370E9413380E94A136119741F40E948B310E940A04E130D1F30E94FA380E94AF
:20556000A136129741F40E948B310E940D04E130D1F30E94FA385AC4E830A0E0FA0711F004
:205580000C94592C0E94023814F40E9413380E94A136129711F40E94AB1B0E9452370E94B9
:2055A0001738DF010E9447360E941B380E94C234E02121F00E94F0330E9421380E94523713
:2055C0000E9424380E94C234E02121F00E94D2360E942C380E9452370E9417380E9433384A
:2055E0000E940E34E02111F00E943A380E9452370E94333A0E2E0E9473310E9433380E9446
:205600000E34E02121F00E94D2360E943F380E9473310E9447380E940E34E02121F00E9474
:20562000D2360E944C380E9452370E94533811F00E945B380E9452370E9424380E94BA36F3
:2056400021F00E94D2360E9460380E9490380E94453A0E2E0E9401390E94C83821F00E945D
:2056600013340E94E7350E9490380E9424380E94C838D9F0E0E00E94C937A1E5B5E00E9433
:2056800006390E946E310E94A638EA17FB0739F4E4E0F0E0E0935505F093560502C00E9437
:2056A000BF370E94D2360E94AB380E94793711F40E947F370E94C0360E9467380E94C234A5
:2056C0000E946F380E22E0919305F0919405A0912905B0912A0580912B0590912C050E942A
:2056E000243A0E94513A0E940C39E02131F00E9404340E9403310E949D350E94C0360E94B8
:205700001D370E9475380E940C39E021A1F0E0915B05F0915C05309711F40E94F5360E947F
:20572000793829F40E9426370E947F3804C00E94E5370E9486380E94C0360E9467380E94E6
:205740000E340E946F380E940C39E02121F00E94EE360E949D350E9490380E94A2380E9403
:20576000BF380E9469310E94C438E02121F00E94AB380E94CE380E94D5380E9482370E946D
:20578000453AE02111F00E94DA380E9490380E94DD38E02111F00E94E1380E9412390E2ECD
:2057A0000E94C0360E94333A0E220E9469310E9421370E94333AE0211E2E0E940139E1E0E3
:2057C000F0E00E94393A0E2E0E946E310E94A6380E94393AE029E12121F00E94F5360E9447
:2057E000EA380E9412390E2E0E94F1380E220E94C0360E94453AE02121F00E94CB360E9453
:205800009D350E9412390E2E0E94C0360E94333A0E220E94F138E02111F00E94D9370E9495
:205820000139E4E0F0E00E94333A6E2F0E2E0E9469310E9421370E94F6380E94333A0E94FB
:205840006F380E949C38E0211E2E062EA0915B05B0915C050E940E340E949C38E021E12912
:2058600039F10E94D937E0E00E94D4370E94D9350E94C5370E94CE370E94C9370E9413385B
:205880000E94A136119741F40E948B310E940A04E130D1F30E94FA380E94A136129741F4A4
:2058A0000E948B310E940D04E130D1F30E94FA38BDC2E930A0E0FA0711F00C94F22C0E94B4
:2058C000A136119761F50E9490380E94453A0E2E0E948737E02111F00E94DA380E94C0367E
:2058E0000E9417390E941F3921F00E94CB360E949D350E9490380E9417390E94253921F027
:205900000E9495310E9495350E94C0360E9417390E942B3921F00E94B2340E949D350E9474
:20592000A136129791F50E9490380E94453A0E2E0E949337E02111F00E94DA380E94C036E0
:205940000E9431390E941F3921F00E94CB360E949D350E9490380E9431390E94253921F092
:205960000E9495310E9495350E94C0360E9431390E942B3921F00E94B2340E949D350E94FA
:20598000A136129711F40E94AB1B0E94A03549F11A981B98C6980E94F5360E94AB38A3E5CC
:2059A000B5E00E940639E2E0F0E0E0934D05F0934E050E94A136119741F40E948B310E94EE
:2059C0000A04E130D1F30E9435390E94A136129741F40E948B310E940D04E130D1F30E94F5
:2059E000353924C2EA30A0E0FA0711F00C946D2D0E94A1360E940E340E943C3961F10E9415
:205A000047390E94CB310E94CA040E944D39AE17BF0724F40E9453390E94A6360E944D3959
:205A2000EA17FB0721F40E9453390E945A390E9461390E94333AE02121F0EBE0F0E00E9451
:205A400070390E9461390E94393AE02121F0EEE0F0E00E9470390E94A136129711F40E9488
:205A6000AB1B0E94A136E2E0F0E00E94333A0E943C3991F10E9447390E94DB310E94CA046D
:205A80000E949C3631970E949C37AE17BF0724F40E9453390E94A6360E949C3631970E9428
:205AA0009C37EA17FB0721F40E9453390E945A390E9475390E94333AE02121F0ECE0F0E08B
:205AC0000E9470390E9475390E94393AE02121F0EEE0F0E00E947039A9C1EB30A0E0FA0715
:205AE000A9F50E94A136129711F40E94AB1B0E94B735159724F4E7E0F0E00E9421380E94F3
:205B0000BF35159724F4E0E9F1E00E9467370E94CC35D9F00E94AB370E94D2360E947E3900
:205B200041F40E948B310E940A04E130D1F30E9486390E94A136129741F40E948B310E9495
:205B40000D04E130D1F30E94863970C1EC30A0E0FA07A9F50E94A136129711F40E94AB1B03
:205B60000E94B735159724F4E7E0F0E00E9421380E94BF35159724F4E1E9F1E00E9467370C
:205B80000E94CC35D9F00E94AB370E94D2360E947E3941F40E948B310E940A04E130D1F3FA
:205BA0000E9486390E94A136129741F40E948B310E940D04E130D1F30E94863937C1ED30D1
:205BC000A0E0FA0761F50E94A136129711F40E94AB1B0E94BF35159724F4E2E9F1E00E94C7
:205BE00067370E94BF351597C9F40E9413380E947E3941F40E948B310E940A04E130D1F3AA
:205C00000E9489390E94A136129741F40E948B310E940D04E130D1F30E94893907C1EE3099
:205C2000A0E0FA0789F50E94A136129711F40E94AB1B0E94B735159714F40E943D360E94DD
:205C4000B735159701F50E94D2360E94A1370E94A136119751F40E948B310E940A04E1300D
:205C6000D1F3EFE0F0E00E9470390E94A136129751F40E948B310E940D04E130D1F3EFE05A
:205C8000F0E00E947039D2C0EF30A0E0FA0731F50E94A136129711F40E94AB1B0E94AB377E
:205CA0000E940238D4F40E9413380E94A136119741F40E948B310E940A04E130D1F30E9478
:205CC00089390E94A136129741F40E948B310E940D04E130D1F30E948939A8C0E031A0E068
:205CE000FA0711F00C94F02EE0913305F09134050E949C370E94333A0E2E0E948C390E94B8
:205D0000C234E02101F10E9494361F980E9442360E949C3A74F4E2E0F0E0E0935D05F09393
:205D20005E050E945536E0E0E0934B05E0934C0504C0E1E1F0E00E947039E1E0F0E0E093E7
:205D40006105F09362050E949C360E949C370E94333A0E2E0E949A360E220E948C390E9414
:205D60000E34E02179F01F980E949436E1E1F0E00E9470390E948736E2E0F0E0E0936105AD
:205D8000F09362050E9491390E2E0E949A360E220E948C390E94BA3651F00E9487360E9494
:205DA0008E361F98C6980E94B2340E9449340E9491390E2E0E9442360E94C2340E220E9437
:205DC0008C390E940E34E02151F00E9487360E948E361E9AC6980E94B2340E94493426C070
:205DE000E131A0E0FA0711F50E94B735159724F40E9460360E94BC350E94BF35159724F493
:205E00000E9495310E94C9350E94CC3579F00E94D935E0E0E0935F05E0936005C6980E944F
:205E2000B534E0E0E0934B05E0934C050C9494240C948724FFCFA991B991EE27FF276D9104
:205E4000662311F03196FBCF0895AA27BB27E991F9910590002011F01196FBCFFD01089511
:205E60005F9BFECFECB108955D9BFECFE881ECB921960895EA81EA93F7DFA881B9810E9437
:205E800006392396089526970E94AA3A10E0AC85BD850E943732EA89FB893196EA8BFB8B03
:205EA0003197E4912E2FE03011F40C946E30E12FE03039F4253211F411E002C00E94963928
:205EC0000CC1E130A9F4253219F40E94963904C112E040E000E02D3211F401E0FEC02B325B
:205EE00011F44BE2FAC0203211F440E2F6C002C0E23039F450E013E0203311F40068EDC0F6
:205F000004C0E33011F00C946D30203310F02A3308F007C0AAE05A9F502DE22FE0535E0F4C
:205F2000DCC0E22FE33649F40E949F39E889F989A481AA930E94A539CFC0E33741F40E948F
:205F40009F390E94AD390E941B2F1E2F0AC0E03761F40E949F390E94AD390E94252F1E2F2D
:205F6000086002600F7730E035C0E43611F0E93611F4046002C0E53731F4ECE8F0E0EE8311
:205F8000FF8315E00DC0E83511F4086004C0E83711F00C946C30E6E9F0E0EE83FF8314E08D
:205FA00002FF14C00E949F390E94B639AB85AA233AF4EA85FB850E94203AEA87FB874DE2C9
:205FC000403011F01F5F01C00B7F04C00E949F390E94B63900FD11C0151778F407FF08C084
:205FE00002FF04C00B7F242F115001C020E301C020E20E9496395150EFCF312F01FF17C010
:206000003030A1F003FF06C0EE81FF812591EE83FF8305C0AE81BF812D91AE83BF830E9428
:206020009639503009F051503150EACF4BC020E3EE81FF810E94673AE887F987EE81FF811F
:206040003296EE83FF83E885F985AA85BB85AE17BF0750F02F5FA885B985EA85FB85EA1B73
:20606000FB0BEA87FB87EFCF2A3328F003FF02C0295F01C0295D04FD1AC0213320F4A885F1
:20608000B985119709F409C0531710F000FF01C013C020E207FF0BC020E3006102FF07C058
:2060A0000B7F4A930E94A539503009F051500E949639503009F051503150A885B9851297BF
:2060C00008F0B5CF00FF08C0503031F05150E0E2EA930E94A539F8CF10E0DDCEAC85BD85A7
:2060E0000E94593A0E94B13A64960895FF92F82E26971A930A93DE0114960E941C3A8D017A
:20610000E0E0EC83ED83EE83EF83DE0118960E941C3A0E94593A0E942832EAE3FFE2FA930C
:20612000EA93FE013896FA93EA93ADDE198108812896FF9008950E94C339E881EA930E944D
:20614000F739E0E0EA930E94DC39EA830E94D239EA810895E295EF70E695E6950895EAE5C1
:20616000EA930E94342FE5EAEA930C94342FEA930E94342FEC81EA930E94342FEA81EA93F5
:206180000C94342F0E94302F0E94302F0C94302F0E945D3AEF5FFF4F6F4F7F4F0E94623A5C
:2061A0000895ED91FD913196FE93EE93319708950E94293AA03DE9E5BE07E3E08E07E0E06B
:2061C0009E070895E0E0E0938D05E0938E050895A8E0B0E00E94733A0895E0E0E0938B054E
:2061E000E0938C050895A6E0B0E00E94733A0895EE81FF81FA93EA9308950E94342FE2E897
:20620000EA930C94342FFA93EA93E0E0F0E0FA93EA930895E0E9F0E0FA93EA930895FA93F0
:20622000EA93E0E1F0E0FA93EA930895E0E3F0E0FA93EA930895AC85BD85E1E0F0E00E94C9
:20624000333A0E2E0895ABE0B5E0EE0FFF1FAE0FBF1F0895E0EAF0E0FA93EA93EA85FB85F2
:20626000FA93EA93EA85FB85FA93EA930C94AD04FA93EA93EA85FB850895FA93EA930C948A
:20628000AD04AA85BB85E1E0F0E00E94333AE0210895AA85BB85E0E0F0E00E94333AE02191
:2062A0000895AC85BD85E2E0F0E00E94333A0E2E0895DF01EFEFF0E00E943F3A0895AAE084
:2062C000B0E00E94733A0895ACE0B0E00E94733A0895A0E0B0E00E94733A0895A2E0B0E02C
:2062E0000E94733A0895A4E0B0E00E94733A0895A8E0B0E0E0E0F0E00E94833A0895A6E088
:20630000B0E0E0E0F0E00E94833A0895E3E0F0E00E94833A0895E6E0F5E0A1E00E946B3A6F
:20632000E7E7F0E0FA93EA930895E0E0F0E0FA93EA930895E0E4F0E0FA93EA930C9433046C
:20634000E0E8F0E0FA93EA930C943304E0933305F0933405EACF0E943304E0933505F0939B
:20636000360564CFA0E0B0E00E94833AE0E2F0E0FA93EA934FCF0E943304A2E0B0E00E94F9
:20638000833AE0E3F0E03FCF0E943304A4E0B0E00E94833A0895E0E1F0E0FA93EA9308957E
:2063A000E0E7F0E0FA93EA930C943304E0E5F0E0FA93EA930895E0E6F0E0FA93EA930895EC
:2063C000E0939505F093960531CF0E943304E0939905F0939A050895E3E0F5E0A1E00E942E
:2063E0006B3AE9E7F0E0FA93EA930895E0EAF0E0FA93EA93E0913F05F0914005FA93EA9388
:20640000E0914105F091420538CFE0913F05F0914005FA93EA93E0914105F09142052DCFF6
:20642000E1E0F5E0A1E00E946B3AE3E7F0E0FA93EA930895E029E0930205F2CFE0E2F0E0E7
:20644000FA93EA930895E1E0F0E0ED93FC930895FA93EA931A930A930895E1E0F0E0FA9349
:20646000EA930C94F104ED93FC93F801ECCEE0E0F0E0ED93FC930895FA93EA93C6CFE093FA
:206480006705F0936805EDE6F5E00895A1E1B0E0A083B183EFE6F5E00895ABE1B0E0A0836C
:2064A000B183E1E7F5E0A6E9B1E0A083B183E5E7F5E0A1E1B0E00895A0E1B0E0A083B183DC
:2064C0000895EFE6F5E0ACE1B0E0A083B183E1E7F5E0A0E9B1E0A083B183E5E7F5E00895B5
:2064E000E9E7F5E0A0E0B0E00895A8E1B0E0A083B183E1E7F5E0A6E9B1E00895A083B18329
:20650000E5E7F5E0A2E1B0E0A083B183E9CFAFE1B0E0A083B183E1E7F5E0A6E9B1E00895E7
:20652000A083B183DDCFA083B183E5E7F5E0A1E1B0E00895AFE1B0E0A083B183E1E7F5E09D
:20654000A9E9B1E00895A9E1B0E0A083B183E1E7F5E0A9E9B1E00895A1E2B0E0A083B18343
:20656000E1E7F5E0A9E9B1E00895A0E2B0E0A083B183E1E7F5E0A9E9B1E0C0CFEFE6F5E05C
:20658000A6E1B0E0A083B183E1E7F5E0A0E9B1E0A083B183E5E7F5E00895ADE1B0E0A08300
:2065A000B183E1E7F5E00895A9E9B1E0A7CFA0E9B1E0A083B183E5E7F5E0AFE0B0E0089506
:2065C000A8E1B0E0A083B183E1E7F5E0A0E9B1E0AACFA0E2B0E0A083B183E1E7F5E0089578
:2065E000A1E2B0E0A083B183E1E7F5E00895A6E9B1E084CFAEE1B0E0A083B183E1E7F5E071
:20660000D6CFA2E1B0E0A083B183EFE6F5E0A2E2B0E0A083B183E1E7F5E0A6E9B1E0A08376
:20662000B183E5E7F5E00895ACE9B1E067CFEFE6F5E0AEE1B0E0A083B183E1E7F5E0A6E940
:20664000B1E071CFE0E0E0936705E0936805EDE6F5E0A0E0B0E0A083B183EFE6F5E0A0830E
:20666000B183E1E7F5E0A083B183E5E7F5E058CFABE1B0E0A083B183E1E7F5E00895A9E1F3
:20668000B0E0A083B183E1E7F5E0A0E9B1E0A083B183E5E7F5E0A3E1B0E00895A9E1B0E099
:2066A000A083B183E1E7F5E0A0E9B1E03CCFACE1B0E0A083B183E1E7F5E00895AAE1B0E0F8
:2066C000A083B183E1E7F5E00895A6E1B0E0A083B183E1E7F5E0A3E9B1E00895A6E9B1E044
:2066E00022CFAEE1B0E0A083B183E1E7F5E00895A9E1B0E0A083B183E1E7F5E0A3E9B1E0CE
:206700000895A4E1B0E0A083B183E1E7F5E0A0E9B1E00895A083B183E1E7F5E00895A2E108
:20672000B0E0A083B183EFE6F5E0A4E2B0E0F2CFA6E9B1E0A083B183E5E7F5E00895A3E2B7
:20674000B0E0E8CFA083B183E5E7F5E0AFE0B0E00895AFE1B0E0DECFA9E1B0E0DBCFEFE6D8
:20676000F5E01BCFA2E1B0E0A083B183EFE6F5E0F0CFEFE6F5E0A7E1B0E0CCCFA3E9B1E00D
:20678000A083B183E5E7F5E0A3E1B0E00895AFE0B0E0A083B183EFE6F5E00895A083B1833C
:2067A000E5E7F5E0A3E1B0E00895A8E1B0E0B2CFA2E1B0E0A083B183EFE6F5E0C0CFA0E9C1
:2067C000B1E0A083B183E5E7F5E00895E0916705F09168050895E0916F05F09170050895B3
:2067E000E0917105F091720508953196E0937305F0937405E0917305F09174053196E09352
:206800007705F09378050895E0916D05F0916E050895A0919905B0919A050895E1E0F0E00E
:206820000E94333A0895E0917505F09176050895A0919505B09196050895A0918305B091EA
:20684000840508950E2EF4DFEEE1F0E00E94333AE0210895F2DFE2E0F0E00E94333A0895A8
:20686000E0937105F0937205BBCFE7DFE3E0F0E00E94333A0895E1DFE4E0F0E00E94333A43
:2068800008950E2ED5DFE8E2F0E00E94333AE0210895E0E4F0E0FA93EA930C94CA04FA938B
:2068A000EA93CCCDE0E7F0E0FA93EA930C94CA04E0EAF0E0FA93EA93E0914305F09144058C
:2068C000FA93EA93E0914505F0914605D6CCFA93EA93E0914305F0914405FA93EA93E0917D
:2068E0004505F0914605C9CCE8EEF3E0FA93EA930C94103A0E940A04A1E00E942E3A089578
:206900000E940D04A1E00E942E3A0895E4E0F5E0A1E00E946B3AE5E7F0E0FA93EA930895F8
:206920000E941604A1E00E942E3A08950E942B04A1E00E942E3A08950E942604A1E00E948B
