:0E0000000C9459000C9400000C9400000C9419
:10000E0000000C9400000C9400000C9400000C9462
:10001E0000000C9400000C9400000C9400000C9452
:10002E0000000C9400000C9400000C9400000C9442
:10003E0000000C948C000C9400000C9400000C94A6
:10004E0000000C9400000C9400000C9400000C9422
:10005E0000000C9400000C9400000C9400000C9412
:10006E0000000C9400000C9400000C9400000C9402
:10007E0000000C9400000C9400000C94000010275B
:10008E00E80364000A0001000010000110000100E6
:10009E0001002D4E414E00494E4600000100040560
:1000AE009E000000F894EE27ECBBF1E0F5BFE5BF33
:1000BE00E0936C00F8E1F1BDE1BD8DE0A2E0BB275D
:1000CE00ED938A95E9F780E090E1A0E0B1E0ED9341
:1000DE000197E9F7EAEAF0E085919591009761F0D2
:1000EE00A591B59105901590BF01F00105900D9267
:1000FE000197E1F7FB01F0CF8BBFEFEFEDBFE0E132
:10010E00EEBFC0E0D5E00C94CE016A937A93AA9329
:10011E00BA93EA93FA93EFB7EA93A0E0B5E00E94A0
:10012E000F05EF5FFF4F6F4F7F4F0E941405E99150
:10013E00EFBFF991E991B991A991799169911895CA
:10014E000E946803E5E0EA930E946203E2E80E94DF
:10015E0070030E947703EC8115C11A930A9300E095
:10016E0010E00E9468030E947F03E3E80E9483036D
:10017E00E1E0EA930E9462030E9488030E948803D2
:10018E000E9488030E2F1127F80119810881FDC0E6
:10019E000E9468030E948E03E0E5E7C02E970E943E
:1001AE001905E0E0EE83EF830E949E030E94A303F5
:1001BE000E94AB030E94B3030E94BB030E94C403C0
:1001CE000E94CD030E94D6030E94DF030E94E80323
:1001DE00D8010E94F1030E2ED9010E94F1030E2ABE
:1001EE00DA010E94F1030E2AAA89BB890E94F1034B
:1001FE000E2AA889B9890E94F1030E2AAE85BF8501
:10020E000E94F1030E2AAC85BD850E94F1030E2AD1
:10021E00AA85BB850E94F1030E2AA885B9850E9486
:10022E00F103E02911F40C94B301EE81FF813097B4
:10023E0021F40E94F603EE83FF830E949E030E9428
:10024E00A3030E94AB030E94B3030E94BB030E9450
:10025E00C4030E94CD030E94D6030E94DF030E94B6
:10026E00E803E889F989E40FF51FAC85BD85AE0F6B
:10027E00BF1FE3E0F0E00E9409051E2EDA010E9486
:10028E00F1030E2EA889B9890E94F1030E22AC85C6
:10029E00BD850E94F103E021E121C1F10E946803B6
:1002AE000E947F030E9402040E9406040E940A0418
:1002BE000E940A040E940E040E9406040E94020478
:1002CE000E9415040E9406040E9402040E94150456
:1002DE000E9406040E9402040E9415040E94060455
:1002EE000E9402040E941E040E942B040E943604E7
:1002FE000E9441040E944C040E9457040E94620412
:10030E000E946D040E9478040E9483040E949F0440
:10031E0014F1442455240E940E040E9406040E94E7
:10032E0002040E9415040E9406040E9402040E9408
:10033E001E040E942B040E9436040E9441040E9457
:10034E004C040E9457040E9462040E946D040E9495
:10035E0078040E9483043CCF0E9420056496089581
:10036E000E9468030E948E03E0EAEA930E946203F1
:10037E000E940A040E940A04E0E00E9483030E9485
:10038E007703E0E1EA930E94620326960895EFEF69
:10039E00EBBBEABBE0E0E8BBE7BBE5BBE4BBE2BB23
:1003AE00E1BBE3B9E2B9E0936200E0936100E09350
:1003BE006500E0936400E0BFE7E0E3BFE0E0E2BF8A
:1003CE00E1BFEFBDEEBDEDBDECBDE7BDE6BDEBBDE6
:1003DE00EABDE9BDE8BDE0937900E0937800E5BDA4
:1003EE00E4BDE3BDE0938B00E0938A00E0938900C7
:1003FE00E0938800E0938100E0938000E093870013
:10040E00E0938600E0938500E0938400E093830000
:10041E00E0938200E0936A00EABFE9BFE1E0E7BF44
:10042E00E0E0E0937D00EBB9E8E1EAB9E6E0E093C5
:10043E009500E0E0E0939000E7E6E9B9E0E0E093B4
:10044E009A00E0E8E8B9E0E0E0BDE6B9EDB9E09386
:10045E00740078940E94AF040E94AF040E94680357
:10046E000E9406040E9402040E94B5040E946803C2
:10047E000E9406040E9402040E94B5040E94BE045B
:10048E000E94C3040E94C8045BDE0E94CD040E9439
:10049E00C3040E94C3040E94D2040E94C3040E949B
:1004AE00C8040E94D5040E94C3040E94C3040E9483
:1004BE00C3040E94D5040E94C8040E94C304E0E352
:1004CE00F0E0FA93EA934CDFE8ECF0E00E94DD04F2
:1004DE000E94C3040E94C304E0E2F0E0FA93EA93A0
:1004EE003FDF5CDEE7E0F0E0FA93EA930E94C3049C
:1004FE000E94C80425DE0E94E1040E94C8042DDE7D
:10050E003F010E94E1040E94BE0427DE4F010E94BB
:10051E00E1040E94CD0421DE5F01D3010E94F103AC
:10052E000E2ED4010E94F1030E2AD5010E94F10372
:10053E00E02911F40C9445030C2C0D2819F40E949B
:10054E00F6036F010E94E1040E94C80406DE3F011B
:10055E000E94E1040E94BE0400DE4F010E94E104ED
:10056E000E94CD04FADD5F01F401E60DF71DEA0DE0
:10057E00FB1DA2E0B0E00E9409051E2ED3010E94D1
:10058E00F1030E2ED401E0E0F0E00E9409050E22E8
:10059E00D5010E94F103E021E12111F40C941D0319
:1005AE00E1E0F0E02F010E9468030E947F030E94A9
:1005BE0002040E9406040E940A040E94E604F2014C
:1005CE003396FA93EA930E94C3040E94C804B8DDDE
:1005DE000E940E040E9406040E9402040E9415044A
:1005EE000E9406040E9402040E9415040E94060442
:1005FE000E9402040E9415040E9406040E94020436
:10060E000E94E6040E94EA040E94E1040E94C804CB
:10061E000E94D2040E94E1040E94BE040E94D204F1
:10062E000E94E1040E94CD040E94EF040E949F04E8
:10063E0024F1442455240E940E040E9406040E94B4
:10064E0002040E9415040E9406040E9402040E94E5
:10065E00E6040E94EA040E94E1040E94C8040E947B
:10066E00D2040E94E1040E94BE040E94D2040E94A1
:10067E00E1040E94CD040E94EF044FCFE1E0F0E0D0
:10068E00E415F50591F444245524D898E8EEF3E0EA
:10069E000E94DD04D89A0E94FA040E94FA040E9475
:1006AE00FA040E94FA040E94FA041CCFFFCF5F9B4B
:1006BE00FECFECB108955D9BFECFE881ECB921969B
:1006CE000895EAE5EA930E946203E5EAEA930C9440
:1006DE006203EA930E946203EA81EA930C94620336
:1006EE00E881EA930E946203E0E0EA930C946203CD
:1006FE00E4E0EA930C946203EA930E946203EC81B5
:10070E00E8CF0E945E030E945E030C945E03ECE051
:10071E00EA930E946203E0E8EA930E946203E6E530
:10072E00EA930E946203EAE5EA930C946203E0E521
:10073E00F0E0FA93EA930895E0E9F0E0FA93EA9391
:10074E000E94B4008F01F3CFE1E9F0E0FA93EA934F
:10075E000E94B4009F01EBCFE2E9F0E0FA93EA9336
:10076E000E94B400AF01E3CFE3E9F0E0FA93EA931D
:10077E000E94B400EA8BFB8BDACFE4E9F0E0FA9347
:10078E00EA930E94B400E88BF98BD1CFE5E9F0E053
:10079E00FA93EA930E94B400EE87FF87C8CFE6E98A
:1007AE00F0E0FA93EA930E94B400EC87FD87BFCF86
:1007BE00E7E9F0E0FA93EA930E94B400EA87FB8738
:1007CE00B6CFE8E9F0E0FA93EA930E94B400E88726
:1007DE00F9870895E1E0F0E00E9409050895E0E050
:1007EE00E0930005E0930105E0930205E093030515
:1007FE00E1E0F0E00895E0E8EA930C946203E3E0B0
:10080E00EA930C946203E0E0EA930C946203E4EF43
:10081E00F1E0FA93EA930E94FD0453CFE2E0EA93EB
:10082E000E946203E0E1EA930E946203F0CFE2E0ED
:10083E00EA930E946203E0E1EA930E946203E0E021
:10084E00F0E0FA93EA9373CFE0E9F0E0FA93EA93DB
:10085E000E94A700E0E0F0E0FA93EA9368CFE1E9A6
:10086E00F0E0FA93EA930E94A700E0E0F0E0FA933A
:10087E00EA935DCFE2E9F0E0FA93EA930E94A700D3
:10088E00E0E0F0E0FA93EA9352CFE3E9F0E0FA9376
:10089E00EA930E94A700E0E0F0E0FA93EA9347CFD4
:1008AE00E4E9F0E0FA93EA930E94A700E0E0F0E0BA
:1008BE00FA93EA933CCFE5E9F0E0FA93EA930E94CB
:1008CE00A700E0E0F0E0FA93EA9331CFE6E9F0E03A
:1008DE00FA93EA930E94A700E0E0F0E0FA93EA931D
:1008EE0026CFE7E9F0E0FA93EA930E94A700E0E052
:1008FE00F0E0FA93EA931BCFE8E9F0E0FA93EA937B
:10090E000E94A70000E010E020E030E040E050E060
:10091E00E0E0EA8BEB8BE88BE98BEE87EF87EC87D9
:10092E00ED87EA87EB87E887E987EE83EF83089503
:10093E00A0910005B09101058091020590910305EB
:10094E00A134E1E0BE07E0E08E07E0E09E070895E7
:10095E00E0EDF7E0FA93EA930C94FD04E2E0EA93FB
:10096E000E946203E0E1EA930E946203F1CFE1E0AC
:10097E00F0E0FA93EA930895E0E1F0E0FA93EA9357
:10098E000895E0E0F0E0FA93EA930895E2E0F0E0F3
:10099E00FA93EA9308950E94A700F3CF0E94CF0026
:1009AE00E8ECF0E0FA93EA930C94FD04FA93EA93E0
:1009BE000C94FD04E0E9F0E0FA93EA930895E2E086
:1009CE00EA930C946203E0E1EA930E946203D9CFAA
:1009DE000E94A7006624772488249924AA24BB2485
:1009EE00CC24DD240895E8EBFBE0E0CFE991F9910A
:1009FE00309639F080EA9FE00197F1F7A89531978C
:100A0E00C9F70895EA17FB07E1E009F0EE2708950C
:100A1E00ED91FD916D917D9108957E936E93FE9370
:100A2E00EE9308955A934A933A932A931A930A93FC
:100A3E0008955D814C813B812A8119810881089539
:00000001FF
