:0E0000000C94FA030C9400000C9400000C9475
:10000E0000000C9400000C9400000C9400000C9462
:10001E0000000C9400000C9400000C9400000C9452
:10002E0000000C9400000C9400000C9400000C9442
:10003E0000000C9471040C9400000C9400000C94BD
:10004E0000000C9400000C9400000C9400000C9422
:10005E0000000C9400000C9400000C9400000C9412
:10006E0000000C9400000C9400000C9400000C9402
:10007E0000000C9400000C9400000C94000010275B
:10008E00E80364000A0001000010000110000100E6
:10009E000000202020202020202020202020202092
:1000AE002020202020202020202020202020202042
:1000BE002020202020202020202020202020202032
:1000CE002020005A616369736B206E6965207A6D1A
:1000DE006965727A6F6E7920752057796B6F6E61D4
:1000EE00776379004F73207A616369736B75206251
:1000FE006C697A656A20737A616679004F73207A2B
:10010E00616369736B752064616C656A206F64202E
:10011E00737A616679004369736E69656E696520ED
:10012E007A61206D616C65202D206D6E69656A7334
:10013E007A65206E697A2036206261720038362D1B
:10014E00303137300038362D313034330038362DDB
:10015E00313637350038362D323039380038372DB4
:10016E00303137300038372D313034330038372DB9
:10017E00313637350038372D323039380038362D94
:10018E00303139320038362D313035340038362D95
:10019E00313637360038362D323133320038372D7E
:1001AE00303139320038372D313035340038372D73
:1001BE00313637360038372D323133320038362D5E
:1001CE00303139330038362D313231360038362D54
:1001DE00313833320038362D323137340038372D3E
:1001EE00303139330038372D313231360038372D32
:1001FE00313833320038372D323137340038362D1E
:10020E00303139340038362D313334310038362D13
:10021E00313833330038362D323138300038372DFF
:10022E00303139340038372D313334310038372DF1
:10023E00313833330038372D323138300038362DDF
:10024E00303636330038362D313334390038362DCA
:10025E00313833340038362D323230340038372DC1
:10026E00303636330038372D313334390038372DA8
:10027E00313833340038372D323230340038362DA1
:10028E00303736380038362D313335370038362D85
:10029E00313834380038362D323231320038372D7D
:1002AE00303736380038372D313335370038372D63
:1002BE00313834380038372D323231320038362D5D
:1002CE00303830300038362D313336330038362D55
:1002DE00313930340038362D323234310038372D42
:1002EE00303830300038372D313336330038372D33
:1002FE00313930340038372D323234310038362D22
:10030E00303831310038362D313532330038362D14
:10031E00313932390038362D323236310038372DF8
:10032E00303831310038372D313532330038372DF2
:10033E00313932390038372D323236310038362DD8
:10034E00303831340038362D313533300038362DD3
:10035E00313933360038362D323238350038372DB4
:10036E00303831340038372D313533300038372DB1
:10037E00313933360038372D323238350038362D94
:10038E00303831350038362D313535310038362D8F
:10039E00313934310038362D323238360038372D77
:1003AE00303831350038372D313535310038372D6D
:1003BE00313934310038372D323238360038362D57
:1003CE00303831360038362D313535320038362D4D
:1003DE00323030370038362D323239320038372D40
:1003EE00303831360038372D313535320038372D2B
:1003FE00323030370038372D323239320038362D20
:10040E00303831370038362D313630320038362D0F
:10041E00323031370038362D323338340038372DFC
:10042E00303831370038372D313630320038372DED
:10043E00323031370038372D323338340038362DDC
:10044E00303834370038362D313632300038362DCC
:10045E00323031390038362D323338350038372DB9
:10046E00303834370038372D313632300038372DAA
:10047E00323031390038372D323338350038362D99
:10048E00303835340038362D313632320038362D8C
:10049E00323032380038362D323433370038372D7B
:1004AE00303835340038372D313632320038372D6A
:1004BE00323032380038372D323433370038362D5B
:1004CE00303836320038362D313632350038362D4A
:1004DE00323035320038362D323439320038372D3D
:1004EE00303836320038372D313632350038372D28
:1004FE00323035320038372D323439320038362D1D
:10050E00303933350038362D313634380038362D03
:10051E00323038320038362D323530300038372D03
:10052E00303933350038372D313634380038372DE1
:10053E00323038320038372D323530300038362DE3
:10054E00313031390038362D313634390038362DC8
:10055E00323038330038362D323538350038372DB5
:10056E00313031390038372D313634390038372DA6
:10057E00323038330038372D323632340038362D9B
:10058E00313032370038362D313636390038362D87
:10059E00323038370038362D323632340038372D77
:1005AE00313032370038372D313636390038372D65
:1005BE00323038370038372D32353835004E6965D0
:1005CE002077637A7974616E6F207A616369736BD9
:1005DE0075005A616D6B6E696A206F736C6F6E7900
:1005EE0020676F726E652069206E616369736E6934
:1005FE006A205354415254004E616369736E696AA6
:10060E0020535441525420616279207779706F7A69
:10061E0079636A6F6E6F776163206E61706564795E
:10062E00005A616D6B6E696A206F736C6F6E792004
:10063E00676F726E65004F74776172636965206FC4
:10064E00736C6F6E2077207472616B6369652070B6
:10065E006F7A79636A6F6E6F77616E696100577931
:10066E006C61637A206920776C61637A206D6173A7
:10067E007A796E6500506F7A79636A6F6E756A6506
:10068E0020756B6C616479206C696E696F7765207B
:10069E0058595A00537465726F776E696B20332008
:1006AE002D207779706F7A79636A6F6E6F77616CD0
:1006BE00656D00537465726F776E696B2034202DF3
:1006CE00207779706F7A79636A6F6E6F77616C6578
:1006DE006D00416C61726D20537465726F776E6937
:1006EE006B203400416C61726D20537465726F77AC
:1006FE006E696B203300537465726F776E696B2071
:10070E0031202D207779706F7A79636A6F6E6F77EB
:10071E00616C656D00537465726F776E696B203214
:10072E00202D207779706F7A79636A6F6E6F77619B
:10073E006C656D00416C61726D20537465726F77DC
:10074E006E696B203100416C61726D20537465725D
:10075E006F776E696B2032005779706F7A79636AA2
:10076E006F6E6F77616E6F20756B6C616479206C44
:10077E00696E696F77652058595A0057796D6965AA
:10078E006E20737A637A6F746B65207065647A6518
:10079E006C6B6F77610057796D69656E206B726156
:1007AE007A656B2073636965726E790057637A7927
:1007BE0074616A207A616369736B2074656E20734D
:1007CE00616D206C7562206E6F77790001002D4E81
:1007DE00414E00494E460000010002009E000100FD
:1007EE009B05DA070000F894EE27ECBBF1E0F5BFAD
:1007FE00E5BFE0936C00F8E1F1BDE1BD8DE0A2E054
:10080E00BB27ED938A95E9F780E090E1A0E0B1E097
:10081E00ED930197E9F7E6EEF7E085919591009754
:10082E0061F0A591B59105901590BF01F00105906D
:10083E000D920197E1F7FB01F0CF8BBFEFEFEDBF0C
:10084E00E0E1EEBFC0E0D5E00C9479240E94313196
:10085E0023C00E943131E6951FC00E943131E695CA
:10086E00E6951AC00E943131E695E695E69514C0DC
:10087E000E943131E29510C00E943131E295EF7045
:10088E00E6950AC00E9431310E94403105C00E9497
:10089E003131EE1FE0E0EE1FE170239608950E94C5
:1008AE0045310E944A31E4E0EA930E94CA2FE3E800
:1008BE000E945231E1E0EA930E94CA2F0E945D31FC
:1008CE000E945D310E945D310E2F1127F8011981B2
:1008DE0008815EC06A937A93AA93BA93EA93FA93C5
:1008EE00EFB7EA93A1E1B5E00E946331A5E1B5E06F
:1008FE000E946331A9E1B5E00E946331ADE1B5E03C
:10090E000E946331A1E2B5E00E946331A5E2B5E039
:10091E000E946331A9E2B5E00E946331E991EFBF15
:10092E00F991E991B991A9917991699118950E94DE
:10093E0045310E946C310E94BB2F8F010D5F1F4FFE
:10094E000E944A310A930E94CA2FE2E80E94523155
:10095E000E946C3180E00E940C3122961981088130
:10096E00289608950E944A31E5E0EA930E9471317B
:10097E00EA81EA930E94CA2FE881EA930E94CA2F65
:10098E00E0E0EA930E94CA2FEC81EA930E94CA2FFC
:10099E00269608950E9477310E947C310E94833101
:1009AE000E948831089524970E94793B00E010E060
:1009BE00EE85FF85FA93EA930E94BB2F8F010D5FA0
:1009CE001F4FAC85BD85119759F420E030E040E50E
:1009DE0050E0E0E5F0E0E887F987E0E0EE83EF83B2
:1009EE00AC85BD85129759F420E030E040E250E02E
:1009FE00E0E4F0E0E887F987E0E0EE83EF830E9421
:100A0E004A310A930E9471312A930E94CA2F4A9347
:100A1E000E94CA2FEE85FF85FA93EA9380E00E942A
:100A2E000C3122960E949A31EC85FD850E94A231EE
:100A3E000E942D3BA0E0B0E00E94073BE02151F068
:100A4E000E94A931E1EDF0E00E94B7310E94B7316A
:100A5E000E94BC310E949A310E94C03151F00E9416
:100A6E00A931E2EFF0E00E94B7310E94B7310E9447
:100A7E00BC310E949A310E94C83151F00E94A931B6
:100A8E00EAE0F1E00E94B7310E94B7310E94BC311A
:100A9E000E94D0310E94C03151F00E94A931EAE08B
:100AAE00F1E00E94B7310E94B7310E94BC310E9422
:100ABE00D0310E94C83151F00E94A931E2EFF0E02E
:100ACE000E94B7310E94B7310E94BC310E94803B18
:100ADE00609608950E9477310E94D8310E2EA6E0BE
:100AEE00B0E00E94DE310E2AAAE0B0E00E94DE31B4
:100AFE000E2AACE0B0E00E94DE310E2AA0E0B0E09B
:100B0E000E94DE310E2AA2E0B0E00E94DE310E2AF3
:100B1E00A4E0B0E00E94DE31E02921F10E94E13133
:100B2E00E0E0E0938905E0938A050E94E831E0E079
:100B3E00E0938705E0938805AAE0B0E0E5E0F0E0F9
:100B4E000E94573BACE0B0E00E94573BA0E0B0E003
:100B5E000E94EF31A2E0B0E00E94EF31A4E0B0E0DD
:100B6E000E94EF3108950E94F4310E94FE31EF93FE
:100B7E000E94F4310E940432AF91EA2341F00E94A8
:100B8E000A320E940F32E0932D05F0932E050E943B
:100B9E000A320E9415320E941B320E9420320E949D
:100BAE0025320E940F32A0E0B0E00E942C320E944B
:100BBE0083310E9433320E943C320E9443320E94A3
:100BCE004832ACE0B0E00E942C320E94433267DE25
:100BDE00AAE0B0E00E94573B0E940A320E94833185
:100BEE005EDEA8E0B0E00E94573B0E9443320E94B6
:100BFE00203255DEA6E0B0E00E94573B0E94203224
:100C0E000E944E324CDEE0938305F09384050E94E1
:100C1E0020320E94533243DEE0938505F093860521
:100C2E000E9420320E9448320E9458320E94833124
:100C3E000E945D324FDF08951A930A9301E010E08F
:100C4E00002E012AA9F40E9464321CDEE03029F441
:100C5E0001E010E0E0EAF0E006C000E010E00E94E3
:100C6E006E32E4E2F1E0FA93EA930E947D32E8CF2D
:100C7E000991199108951A930A930E948832E6DD1C
:100C8E00E1700E2EE0910205EE7F0E949232E1DDC0
:100C9E00E170EE0F0E2EE0910205ED7F0E94923272
:100CAE00DCDDE170EE0FEE0F0E2EE0910205EB7F14
:100CBE000E949232D7DDE170EE0FEE0FEE0F0E2E88
:100CCE00E0910205E77F0E949232D2DDE170E2955B
:100CDE00E07F0E2EE0910205EF7E0E949232CCDD77
:100CEE00E170E295E07FEE0F0E2EE0910205EF7DB2
:100CFE000E949232C7DDE170E295E07FEE0FEE0FBB
:100D0E000E2EE0910205EF7B0E949232C0DDE17063
:100D1E00E795E0E0E7950E2EE0910205EF77E029EA
:100D2E00E09302050E9496320E9415328F01A09127
:100D3E000205A13059F4F8010E94A2310E949B32A3
:100D4E00EBE4F1E00E94A0320E94A532A0910205D0
:100D5E00A23071F4F8010E94A231E2E0F0E0ED93CE
:100D6E00FC93E3E5F1E00E94A0320E940A321BDE02
:100D7E00A0910205A33071F4F8010E94A231E3E0C4
:100D8E00F0E0ED93FC93EBE5F1E00E94A0320E94BF
:100D9E000A3209DEA0910205A43071F4F8010E9416
:100DAE00A231E4E0F0E0ED93FC93E3E6F1E00E9483
:100DBE00A0320E940A32F7DDA0910205A53071F42F
:100DCE00F8010E94A231E5E0F0E0ED93FC93EBE632
:100DDE00F1E00E94A0320E940A32E5DDA0910205E8
:100DEE00A63069F4F8010E94A231E6E0F0E0ED933E
:100DFE00FC93E3E7F1E00E94A0320E94A532A0919D
:100E0E000205A73069F4F8010E94A231E7E0F0E094
:100E1E00ED93FC93EBE7F1E00E94A0320E94A53225
:100E2E00A0910205A83069F4F8010E94A231E8E011
:100E3E00F0E0ED93FC93E3E8F1E00E94A0320E9413
:100E4E00A532A0910205A93071F4F8010E94A231D9
:100E5E00E9E0F0E0ED93FC93EBE8F1E00E94A032C4
:100E6E000E940A32A0DDA0910205AA3071F4F801A9
:100E7E000E94A231EAE0F0E0ED93FC93E3E9F1E0A9
:100E8E000E94A0320E940A328EDDA0910205AB3084
:100E9E0071F4F8010E94A231EBE0F0E0ED93FC93C7
:100EAE00EBE9F1E00E94A0320E940A327CDDA091B3
:100EBE000205AC3069F4F8010E94A231ECE0F0E0DA
:100ECE00ED93FC93E3EAF1E00E94A0320E94A5327A
:100EDE00A0910205AD3069F4F8010E94A231EDE057
:100EEE00F0E0ED93FC93EBEAF1E00E94A0320E9459
:100EFE00A532A0910205AE3069F4F8010E94A2312C
:100F0E00EEE0F0E0ED93FC93E3EBF1E00E94A03213
:100F1E000E94A532A0910205AF3069F4F8010E943B
:100F2E00A231EFE0F0E0ED93FC93EBEBF1E00E94E9
:100F3E00A0320E94A532A0910205A03171F4F801F1
:100F4E000E94A231E0E1F0E0ED93FC93E3ECF1E0DE
:100F5E000E94A0320E940A3226DDA0910205A13124
:100F6E0071F4F8010E94A231E1E1F0E0ED93FC93FF
:100F7E00EBECF1E00E94A0320E940A3214DDA09147
:100F8E000205A23171F4F8010E94A231E2E1F0E013
:100F9E00ED93FC93E3EDF1E00E94A0320E940A3241
:100FAE0002DDA0910205A33171F4F8010E94A23175
:100FBE00E3E1F0E0ED93FC93EBEDF1E00E94A03263
:100FCE000E940A32F0DCA0910205A43171F4F801FE
:100FDE000E94A231E4E1F0E0ED93FC93E3EEF1E048
:100FEE000E94A0320E940A32DEDCA0910205A531D9
:100FFE0069F4F8010E94A231E5E1F0E0ED93FC9373
:10100E00EBEEF1E00E94A0320E94A532A091020503
:10101E00A63169F4F8010E94A231E6E1F0E0ED9309
:10102E00FC93E3EFF1E00E94A0320E94A532A09162
:10103E000205A73169F4F8010E94A231E7E1F0E060
:10104E00ED93FC93EBEFF1E00E94A0320E94A532EB
:10105E00A0910205A83169F4F8010E94A231E8E1DD
:10106E00F0E0ED93FC93E3E0F2E00E94A0320E94E8
:10107E00A532A0910205A93171F4F8010E94A231A6
:10108E00E9E1F0E0ED93FC93EBE0F2E00E94A03298
:10109E000E940A3288DCA0910205AA3171F4F8018F
:1010AE000E94A231EAE1F0E0ED93FC93E3E1F2E07D
:1010BE000E94A0320E940A3276DCA0910205AB316A
:1010CE0071F4F8010E94A231EBE1F0E0ED93FC9394
:1010DE00EBE1F2E00E94A0320E940A3264DCA091A1
:1010EE000205AC3169F4F8010E94A231ECE1F0E0A6
:1010FE00ED93FC93E3E2F2E00E94A0320E94A5324F
:10110E00A0910205AD3169F4F8010E94A231EDE122
:10111E00F0E0ED93FC93EBE2F2E00E94A0320E942D
:10112E00A532A0910205AE3169F4F8010E94A231F8
:10113E00EEE1F0E0ED93FC93E3E3F2E00E94A032E7
:10114E000E94A532A0910205AF3169F4F8010E9408
:10115E00A231EFE1F0E0ED93FC93EBE3F2E00E94BD
:10116E00A0320E94A532A0910205A03271F4F801BE
:10117E000E94A231E0E2F0E0ED93FC93E3E4F2E0B2
:10118E000E94A0320E940A320EDCA0910205A1320A
:10119E0069F4F8010E94A231E1E2F0E0ED93FC93D4
:1011AE00EBE4F2E00E94A0320E94A532A09102056B
:1011BE00A23271F4F8010E94A231E2E2F0E0ED9366
:1011CE00FC93E3E5F2E00E94A0320E940A32EBDBD0
:1011DE00A0910205A33271F4F8010E94A231E3E25C
:1011EE00F0E0ED93FC93EBE5F2E00E94A0320E945A
:1011FE000A32D9DBA0910205A43271F4F8010E94E3
:10120E00A231E4E2F0E0ED93FC93E3E6F2E00E941B
:10121E00A0320E940A32C7DBA0910205A53271F4FA
:10122E00F8010E94A231E5E2F0E0ED93FC93EBE6CB
:10123E00F2E00E94A0320E940A32B5DBA0910205B4
:10124E00A63269F4F8010E94A231E6E2F0E0ED93D5
:10125E00FC93E3E7F2E00E94A0320E94A532A09137
:10126E000205A73269F4F8010E94A231E7E2F0E02C
:10127E00ED93FC93EBE7F2E00E94A0320E94A532C0
:10128E00A0910205A83269F4F8010E94A231E8E2A9
:10129E00F0E0ED93FC93E3E8F2E00E94A0320E94AE
:1012AE00A532A0910205A93269F4F8010E94A2317B
:1012BE00E9E2F0E0ED93FC93EBE8F2E00E94A0325D
:1012CE000E94A532A0910205AA3271F4F8010E9483
:1012DE00A231EAE2F0E0ED93FC93E3E9F2E00E9442
:1012EE00A0320E940A325FDBA0910205AB3271F48C
:1012FE00F8010E94A231EBE2F0E0ED93FC93EBE9F2
:10130E00F2E00E94A0320E940A324DDBA09102054B
:10131E00AC3281F4F8010E94A231ECE2F0E00E94BE
:10132E00AB320E94AF32E3EAF2E00E94A0320E949A
:10133E000A3239DBA0910205AD3271F4F8010E9438
:10134E00A231EDE2F0E0ED93FC93EBEAF2E00E94C5
:10135E00A0320E940A3227DBA0910205AE3269F458
:10136E00F8010E94A231EEE2F0E0ED93FC93E3EB84
:10137E00F2E00E94A0320E94A532A0910205AF3287
:10138E0069F4F8010E94A231EFE2F0E0ED93FC93D4
:10139E00EBEBF2E00E94A0320E94A532A091020572
:1013AE00A03379F4F8010E94A231E0E3F0E00E944C
:1013BE00AB320E94AF32E3ECF2E00E94A0320E9408
:1013CE00A532A0910205A13371F4F8010E94A23159
:1013DE00E1E3F0E0ED93FC93EBECF2E00E94A0323F
:1013EE000E940A32E0DAA0910205A23371F4F801EC
:1013FE000E94A231E2E3F0E0ED93FC93E3EDF2E024
:10140E000E94A0320E940A32CEDAA0910205A333C6
:10141E0071F4F8010E94A231E3E3F0E0ED93FC9346
:10142E00EBEDF2E00E94A0320E940A32BCDAA091EB
:10143E000205A43369F4F8010E94A231E4E3F0E05E
:10144E00ED93FC93E3EEF2E00E94A0320E94A532EF
:10145E00A0910205A53369F4F8010E94A231E5E3DB
:10146E00F0E0ED93FC93EBEEF2E00E94A0320E94CE
:10147E00A532A0910205A63369F4F8010E94A231AB
:10148E00E6E3F0E0ED93FC93E3EFF2E00E94A0328E
:10149E000E94A532A0910205A73369F4F8010E94BB
:1014AE00A231E7E3F0E0ED93FC93EBEFF2E00E9464
:1014BE00A0320E94A532A0910205A83371F4F80162
:1014CE000E94A231E8E3F0E0ED93FC93E3E0F3E059
:1014DE000E94A0320E940A3266DAA0910205A93358
:1014EE0071F4F8010E94A231E9E3F0E0ED93FC9370
:1014FE00EBE0F3E00E94A0320E940A3254DAA0918F
:10150E000205AA3371F4F8010E94A231EAE3F0E079
:10151E00ED93FC93E3E1F3E00E94A0320E940A32C5
:10152E0042DAA0910205AB3371F4F8010E94A231A8
:10153E00EBE3F0E0ED93FC93EBE1F3E00E94A032DD
:10154E000E940A3230DAA0910205AC3371F4F80130
:10155E000E94A231ECE3F0E0ED93FC93E3E2F3E0C2
:10156E000E94A0320E940A321EDAA0910205AD330B
:10157E0069F4F8010E94A231EDE3F0E0ED93FC93E3
:10158E00EBE2F3E00E94A0320E94A532A091020588
:10159E00AE3369F4F8010E94A231EEE3F0E0ED9370
:1015AE00FC93E3E3F3E00E94A0320E94A532A091E7
:1015BE000205AF3369F4F8010E94A231EFE3F0E0C7
:1015CE00ED93FC93EBE3F3E00E94A0320E94A53270
:1015DE00A0910205A03469F4F8010E94A231E0E462
:1015EE00F0E0ED93FC93E3E4F3E00E94A0320E945E
:1015FE00A532A0910205A13471F4F8010E94A23126
:10160E00E1E4F0E0ED93FC93EBE4F3E00E94A03212
:10161E000E940A32C8D9A0910205A23469F4F801D9
:10162E000E94A231E2E4F0E0ED93FC93E3E5F3E0F7
:10163E000E94A0320E94A532A0910205A33469F443
:10164E00F8010E94A231E3E4F0E0ED93FC93EBE5A8
:10165E00F3E00E94A0320E94A532A0910205A434AC
:10166E0069F4F8010E94A231E4E4F0E0ED93FC93FA
:10167E00E3E6F3E00E94A0320E94A532A09102059B
:10168E00A53469F4F8010E94A231E5E4F0E0ED938F
:10169E00FC93EBE6F3E00E94A0320E94A532A091EB
:1016AE000205A63471F4F8010E94A231E6E4F0E0DE
:1016BE00ED93FC93E3E7F3E00E94A0320E940A321E
:1016CE0072D9A0910205A73471F4F8010E94A231DB
:1016DE00E7E4F0E0ED93FC93EBE7F3E00E94A03239
:1016EE000E940A3260D9A0910205A83471F4F80163
:1016FE000E94A231E8E4F0E0ED93FC93E3E8F3E01E
:10170E000E94A0320E940A324ED9A0910205A9343D
:10171E0071F4F8010E94A231E9E4F0E0ED93FC933C
:10172E00EBE8F3E00E94A0320E940A323CD9A0916D
:10173E000205AA3471F4F8010E94A231EAE4F0E045
:10174E00ED93FC93E3E9F3E00E94A0320E940A328B
:10175E002AD9A0910205AB3471F4F8010E94A2318E
:10176E00EBE4F0E0ED93FC93EBE9F3E00E94A032A2
:10177E000E940A3218D9A0910205AC3481F4F80106
:10178E000E94A231ECE4F0E00E94AB320E94AF3234
:10179E00E3EAF3E00E94A0320E940A3204D9A0913B
:1017AE000205AD3469F4F8010E94A231EDE4F0E0D7
:1017BE00ED93FC93EBEAF3E00E94A0320E94A53277
:1017CE00A0910205AE3469F4F8010E94A231EEE454
:1017DE00F0E0ED93FC93E3EBF3E00E94A0320E9465
:1017EE00A532A0910205AF3469F4F8010E94A2312E
:1017FE00EFE4F0E0ED93FC93EBEBF3E00E94A0320C
:10180E000E94A532A0910205A03581F4F8010E9434
:10181E00A231E0E5F0E00E94AB320E94AF32E3EC81
:10182E00F3E00E94A0320E940A32BDD8A0910205B8
:10183E00A13571F4F8010E94A231E1E5F0E0ED93DB
:10184E00FC93EBECF3E00E94A0320E940A32ABD87C
:10185E00A0910205A23571F4F8010E94A231E2E5D1
:10186E00F0E0ED93FC93E3EDF3E00E94A0320E94D2
:10187E000A3299D8A0910205A33569F4F8010E94A5
:10188E00A231E3E5F0E0ED93FC93EBEDF3E00E9483
:10189E00A0320E94A532A0910205A43569F4F80188
:1018AE000E94A231E4E5F0E0ED93FC93E3EEF3E069
:1018BE000E94A0320E94A532A0910205A53569F4BE
:1018CE00F8010E94A231E5E5F0E0ED93FC93EBEE1A
:1018DE00F3E00E94A0320E94A532A0910205A63527
:1018EE0069F4F8010E94A231E6E5F0E0ED93FC9375
:1018FE00E3EFF3E00E94A0320E94A532A091020510
:10190E00A73571F4F8010E94A231E7E5F0E0ED93FE
:10191E00FC93EBEFF3E00E94A0320E940A3243D810
:10192E00A0910205A83571F4F8010E94A231E8E5F4
:10193E00F0E0ED93FC93E3E0F4E00E94A0320E940D
:10194E000A3231D8A0910205A93571F4F8010E942E
:10195E00A231E9E5F0E0ED93FC93EBE0F4E00E94B8
:10196E00A0320E940A321FD8A0910205AA3569F44E
:10197E00F8010E94A231EAE5F0E0ED93FC93E3E179
:10198E00F4E00E94A0320E94A532A0910205AB3570
:10199E0069F4F8010E94A231EBE5F0E0ED93FC93BF
:1019AE00EBE1F4E00E94A0320E94A532A091020564
:1019BE00AC3589F4F8010E94A231ECE5F0E00E940A
:1019CE00AB320E94AF32E3E2F4E00E94A0320E94FA
:1019DE000A320E94DA04A0910205AD3569F4F801CD
:1019EE000E94A231EDE5F0E0ED93FC93EBE2F4E022
:1019FE000E94A0320E94A532A0910205AE3579F464
:101A0E00F8010E94A231EEE5F0E0ED93FC93E3E3E2
:101A1E00F4E00E94A0320E940A320E94DA04A091E1
:101A2E000205AF3579F4F8010E94A231EFE5F0E03E
:101A3E00ED93FC93EBE3F4E00E94A0320E940A3295
:101A4E000E94DA04A0910205A03689F4F8010E94E2
:101A5E00A231E0E6F0E00E94AB320E94AF32E3E446
:101A6E00F4E00E94A0320E940A320E94DA04A09191
:101A7E000205A13679F4F8010E94A231E1E6F0E008
:101A8E00ED93FC93EBE4F4E00E94A0320E940A3244
:101A9E000E94DA04A0910205A23679F4F8010E94A0
:101AAE00A231E2E6F0E0ED93FC93E3E5F4E00E9470
:101ABE00A0320E940A320E94DA04A0910205A336D7
:101ACE0069F4F8010E94A231E3E6F0E0ED93FC9395
:101ADE00EBE5F4E00E94A0320E94A532A09102052F
:101AEE00A43679F4F8010E94A231E4E6F0E0ED9319
:101AFE00FC93E3E6F4E00E94A0320E940A320E94B8
:101B0E00DA04A0910205A53669F4F8010E94A2310B
:101B1E00E5E6F0E0ED93FC93EBE6F4E00E94A032F4
:101B2E000E94A532A0910205A63669F4F8010E9422
:101B3E00A231E6E6F0E0ED93FC93E3E7F4E00E94D9
:101B4E00A0320E94A532A0910205A73679F4F801C1
:101B5E000E94A231E7E6F0E0ED93FC93EBE7F4E0B0
:101B6E000E94A0320E940A320E94DA04A09102055D
:101B7E00A83669F4F8010E94A231E8E6F0E0ED9390
:101B8E00FC93E3E8F4E00E94A0320E94A532A091FB
:101B9E000205A93679F4F8010E94A231E9E6F0E0D7
:101BAE00ED93FC93EBE8F4E00E94A0320E940A321F
:101BBE000E94DA04A0910205AA3669F4F8010E9487
:101BCE00A231EAE6F0E0ED93FC93E3E9F4E00E9443
:101BDE00A0320E94A532A0910205AB3689F4F8011D
:101BEE000E94A231EBE6F0E00E94AB320E94AF32CF
:101BFE00EBE9F4E00E94A0320E940A320E94DA045D
:101C0E00A0910205AC3679F4F8010E94A231ECE6FF
:101C1E00F0E0ED93FC93E3EAF4E00E94A0320E9420
:101C2E000A320E94DA04A0910205AD3669F4F80179
:101C3E000E94A231EDE6F0E0ED93FC93EBEAF4E0C6
:101C4E000E94A0320E94A532A0910205AE3679F410
:101C5E00F8010E94A231EEE6F0E0ED93FC93E3EB87
:101C6E00F4E00E94A0320E940A320E94DA04A0918F
:101C7E000205AF3689F4F8010E94A231EFE6F0E0DA
:101C8E000E94AB320E94AF32EBEBF4E00E94A03226
:101C9E000E940A320E94DA04A0910205A03769F46C
:101CAE00F8010E94A231E0E7F0E0ED93FC93E3EC43
:101CBE00F4E00E94A0320E94A532A0910205A13745
:101CCE0079F4F8010E94A231E1E7F0E0ED93FC9384
:101CDE00EBECF4E00E94A0320E940A320E94DA0479
:101CEE00A0910205A23779F4F8010E94A231E2E731
:101CFE00F0E0ED93FC93E3EDF4E00E94A0320E943D
:101D0E000A320E94DA04A0910205A33779F4F80191
:101D1E000E94A231E3E7F0E0ED93FC93EBEDF4E0EB
:101D2E000E94A0320E940A320E94DA04A09102059B
:101D3E00A43769F4F8010E94A231E4E7F0E0ED93D4
:101D4E00FC93E3EEF4E00E94A0320E94A532A09133
:101D5E000205A53769F4F8010E94A231E5E7F0E02B
:101D6E00ED93FC93EBEEF4E00E94A0320E94A532BC
:101D7E00A0910205A63769F4F8010E94A231E6E7A8
:101D8E00F0E0ED93FC93E3EFF4E00E94A0320E94AA
:101D9E00A532A0910205A73769F4F8010E94A2317D
:101DAE00E7E7F0E0ED93FC93EBEFF4E00E94A03256
:101DBE000E94A532A0910205A83779F4F8010E947D
:101DCE00A231E8E7F0E0ED93FC93E3E0F5E00E944A
:101DDE00A0320E940A320E94DA04A0910205A937AD
:101DEE0079F4F8010E94A231E9E7F0E0ED93FC935B
:101DFE00EBE0F5E00E94A0320E940A320E94DA0463
:101E0E00A0910205AA3779F4F8010E94A231EAE7FF
:101E1E00F0E0ED93FC93E3E1F5E00E94A0320E9426
:101E2E000A320E94DA04A0910205AB3779F4F80168
:101E3E000E94A231EBE7F0E0ED93FC93EBE1F5E0CD
:101E4E000E94A0320E940A320E94DA04A09102057A
:101E5E00AC3779F4F8010E94A231ECE7F0E0ED9393
:101E6E00FC93E3E2F5E00E94A0320E940A320E9447
:101E7E00DA04A0910205AD3769F4F8010E94A2318F
:101E8E00EDE7F0E0ED93FC93EBE2F5E00E94A0327B
:101E9E000E94A532A0910205AE3769F4F8010E94A6
:101EAE00A231EEE7F0E0ED93FC93E3E3F5E00E9460
:101EBE00A0320E94A532A0910205AF3769F4F80155
:101ECE000E94A231EFE7F0E0ED93FC93EBE3F5E037
:101EDE000E94A0320E94A532A0910205A03869F49A
:101EEE00F8010E94A231E0E8F0E0ED93FC93E3E408
:101EFE00F5E00E94A0320E94A532A0910205A13801
:101F0E0079F4F8010E94A231E1E8F0E0ED93FC9340
:101F1E00EBE4F5E00E94A0320E940A320E94DA043D
:101F2E00A0910205A23879F4F8010E94A231E2E8EC
:101F3E00F0E0ED93FC93E3E5F5E00E94A0320E9401
:101F4E000A320E94DA04A0910205A33869F4F8015E
:101F5E000E94A231E3E8F0E0ED93FC93EBE5F5E0AF
:101F6E000E94A0320E94A532A0910205A43879F4F5
:101F7E00F8010E94A231E4E8F0E0ED93FC93E3E671
:101F8E00F5E00E94A0320E940A320E94DA04A0916B
:101F9E000205A53869F4F8010E94A231E5E8F0E0E7
:101FAE00ED93FC93EBE6F5E00E94A0320E94A53281
:101FBE00A0910205A63869F4F8010E94A231E6E864
:101FCE00F0E0ED93FC93E3E7F5E00E94A0320E946F
:101FDE00A532A0910205A73879F4F8010E94A2312A
:101FEE00E7E8F0E0ED93FC93EBE7F5E00E94A0321A
:101FFE000E940A320E94DA04A0910205A83869F400
:10200E00F8010E94A231E8E8F0E0ED93FC93E3E8DA
:10201E00F5E00E94A0320E94A532A0910205A938D7
:10202E0079F4F8010E94A231E9E8F0E0ED93FC9317
:10203E00EBE8F5E00E94A0320E940A320E94DA0418
:10204E00A0910205AA3869F4F8010E94A231EAE8CB
:10205E00F0E0ED93FC93E3E9F5E00E94A0320E94DC
:10206E00A532A0910205AB3869F4F8010E94A231A5
:10207E00EBE8F0E0ED93FC93EBE9F5E00E94A03283
:10208E000E94A532A0910205AC3879F4F8010E94A5
:10209E00A231ECE8F0E0ED93FC93E3EAF5E00E9468
:1020AE00A0320E940A320E94DA04A0910205AD38D5
:1020BE0069F4F8010E94A231EDE8F0E0ED93FC9393
:1020CE00EBEAF5E00E94A0320E94A532A091020533
:1020DE00AE3879F4F8010E94A231EEE8F0E0ED930B
:1020EE00FC93E3EBF5E00E94A0320E940A320E94BC
:1020FE00DA04A0910205AF3879F4F8010E94A231FA
:10210E00EFE8F0E0ED93FC93EBEBF5E00E94A032EC
:10211E000E940A320E94DA04A0910205A03969F4E5
:10212E00F8010E94A231E0E9F0E0ED93FC93E3ECBC
:10213E00F5E00E94A0320E94A532F8010991199192
:10214E000895E881F9810E94A2310E942D3B3097BB
:10215E0041F40E946E32EBECF5E00E94B4320C9426
:10216E001019E130A0E0FA0751F4E8ECF0E00E941B
:10217E00B7320E94BE320E94C5320C94F718E2307C
:10218E00A0E0FA0771F4E0E1F1E00E94B7320E949C
:10219E00D4320E94D9320E94D4320E94E8320C947A
:1021AE00FD18E330A0E0FA0761F4EAE7F0E00E94E0
:1021BE00B7320E94BE320E94ED320E94F6320C946B
:1021CE00FD18E430A0E0FA0761F4E2E0F1E00E94CD
:1021DE00B7320E94BE320E94FF320E94F6320C9439
:1021EE00FD18E530A0E0FA0759F4E0EBF0E00E94AC
:1021FE00B7320E94BE320E94C5320E940833F6C723
:10220E00E630A0E0FA0759F4EEEFF0E00E94B732A4
:10221E000E94D4320E94D932A0E1B0E0E1C7E7308B
:10222E00A0E0FA0749F4E8E7F0E00E94B7320E9416
:10223E00BE320E94ED32CEC7E830A0E0FA0749F474
:10224E00E0ECF0E00E94B7320E94BE320E94FF32F4
:10225E00C1C7E930A0E0FA0769F4E8E1F0E00E94B6
:10226E00B7320E94BE320E94FF320E940B330E9490
:10227E000833BCC7EA30A0E0FA0759F4E6E1F0E013
:10228E000E94B7320E94BE320E9412330E94F63272
:10229E00ADC7EB30A0E0FA0759F4E4E7F0E00E9496
:1022AE00B7320E94BE320E941B330E94F6329EC786
:1022BE00EC30A0E0FA0749F4E6E9F0E00E94B7320C
:1022CE000E94BE320E94243385C7ED30A0E0FA078B
:1022DE0059F4EAE1F0E00E94B7320E94BE320E9449
:1022EE00FF320E940B337CC7EE30A0E0FA0749F4B0
:1022FE00EEE5F0E00E94B7320E94BE320E94123329
:10230E0069C7EF30A0E0FA0749F4E4E8F0E00E9474
:10231E00B7320E94BE320E941B335CC7E031A0E090
:10232E00FA0749F4E8EBF0E00E94B7320E94BE32A1
:10233E000E942D335BC7E131A0E0FA0759F4E0E2C9
:10234E00F0E00E94B7320E94BE320E94C5320E9457
:10235E0008334CC7E231A0E0FA0769F4E8E9F0E08F
:10236E000E94B7320E94D4320E9436330E94D43279
:10237E000E94E8323BC7E331A0E0FA0759F4EAEADB
:10238E00F0E00E94B7320E94BE320E9445330E9496
:10239E004C332CC7E431A0E0FA0769F4E2E4F0E034
:1023AE000E94B7320E94BE320E9445330E944F33C4
:1023BE000E9408331BC7E531A0E0FA0749F4EEE4AA
:1023CE00F0E00E94B7320E94BE320E94C53208C7AA
:1023DE00E631A0E0FA0759F4E2ECF0E00E94B732E1
:1023EE000E94D4320E943633A0E1B0E0F9C6E73144
:1023FE00A0E0FA0759F4EEECF0E00E94B7320E942A
:10240E00BE320E944533A9E9B1E0E4C6E831A0E04E
:10241E00FA0759F4E0E4F0E00E94B7320E94BE32AF
:10242E000E9445330E944F33DBC6E931A0E0FA0724
:10243E0059F4EEE2F0E00E94B7320E94BE320E94E2
:10244E0012330E94F632D2C6EA31A0E0FA0759F4EE
:10245E00EAEFF0E00E94B7320E94BE320E9458337B
:10246E000E940833C3C6EB31A0E0FA0749F4ECE64C
:10247E00F0E00E94B7320E94BE320E942D33B6C6E3
:10248E00EC31A0E0FA0749F4E4EAF0E00E94B7323A
:10249E000E94BE320E9424339DC6ED31A0E0FA07A1
:1024AE0049F4EAE2F0E00E94B7320E94BE320E9486
:1024BE00123390C6EE31A0E0FA0749F4E4E9F0E0F9
:1024CE000E94B7320E94BE320E94583389C6EF3145
:1024DE00A0E0FA0759F4EEE6F0E00E94B7320E944F
:1024EE00BE320E946133A9E9B1E074C6E032A0E0C9
:1024FE00FA0759F4E6E8F0E00E94B7320E94BE32C5
:10250E000E9424330E94F63271C6E132A0E0FA072F
:10251E0049F4EEE8F0E00E94B7320E94BE32A0E22B
:10252E00B0E052C6E232A0E0FA0759F4EAE5F0E074
:10253E000E94B7320E94BE320E9468330E946F33EF
:10254E0055C6E332A0E0FA0759F4EAEDF0E00E9436
:10255E00B7320E94BE320E9472330E94083346C6C2
:10256E00E432A0E0FA0759F4E2EAF0E00E94B73252
:10257E000E9479330E94D4320E94E83237C6E53287
:10258E00A0E0FA0759F4E4E0F1E00E94B7320E94AD
:10259E00BE320E9468330E948C3328C6E632A0E019
:1025AE00FA0759F4E6E3F0E00E94B7320E94BE3219
:1025BE000E946833A6E9B1E00DC6E732A0E0FA0743
:1025CE0049F4E8E1F1E00E94B7320E94BE320E9467
:1025DE00723306C6E832A0E0FA0749F4E6EAF0E004
:1025EE000E94B7320E947933A0E1B0E0F9C5E9321A
:1025FE00A0E0FA0759F4EEE1F0E00E94B7320E9433
:10260E00BE320E94FF320E940B33EAC5EA32A0E0CE
:10261E00FA0759F4ECE5F0E00E94B7320E94D4328A
:10262E000E948F330E940833E1C5EB32A0E0FA0717
:10263E0059F4E2E6F0E00E94B7320E94BE320E94E8
:10264E0061330E946F33D2C5EC32A0E0FA0719F461
:10265E000E949A33CBC5ED32A0E0FA0769F4E0E1AF
:10266E00F0E00E94B7320E94BE320E94FF320E94FA
:10267E000B330E940833BAC5EE32A0E0FA0749F4D4
:10268E00E0E5F0E00E94B7320E94D4320E948F3310
:10269E00A7C5EF32A0E0FA0759F4E8E6F0E00E9491
:1026AE00B7320E94BE320E946133A6E9B1E092C5F4
:1026BE00E033A0E0FA0719F40E949A3397C5E1338C
:1026CE00A0E0FA0759F4E4E2F0E00E94B7320E946B
:1026DE00BE320E94FF320E94F63288C5E233A0E07D
:1026EE00FA0759F4E4E1F0E00E94B7320E94BE32DC
:1026FE000E9472330E94083379C5E333A0E0FA07D3
:10270E0059F4E2E8F0E00E94B7320E94BE320E9415
:10271E00B0330E948C336AC5E433A0E0FA0749F463
:10272E00E6E0F1E00E94B7320E94BE320E94B7335B
:10273E0057C5E533A0E0FA0749F4ECE4F0E00E9457
:10274E00B7320E94BE320E94FF3244C5E633A0E08B
:10275E00FA0749F4ECE1F0E00E94B7320E94BE3273
:10276E000E9472333DC5E733A0E0FA0749F4E4E175
:10277E00F1E00E94B7320E94BE32AAE1B0E024C559
:10278E00E833A0E0FA0759F4EEEEF0E00E94B7321B
:10279E000E94BE320E94B7330E94083327C5E93328
:1027AE00A0E0FA0759F4E8EFF0E00E94B7320E9479
:1027BE00BE320E94C6330E94083318C5EA33A0E029
:1027CE00FA0759F4E4EEF0E00E94B7320E94BE32EE
:1027DE000E9461330E946F3309C5EB33A0E0FA0704
:1027EE0059F4E2E5F0E00E94B7320E94BE320E9438
:1027FE00CF330E944C33FAC4EC33A0E0FA0779F4DD
:10280E00E0E9F0E00E94B7320E94BE320E94D63359
:10281E00A0E9B1E00E940B330E940833E7C4ED3308
:10282E00A0E0FA0749F4ECEFF0E00E94B7320E9404
:10283E00BE320E945833D4C4EE33A0E0FA0759F4E6
:10284E00E8E2F0E00E94B7320E94BE320E9461338D
:10285E00A6E9B1E0BFC4EF33A0E0FA0759F4E4E310
:10286E00F0E00E94B7320E94BE320E94CF33A9E937
:10287E00B1E0B0C4E034A0E0FA0749F4ECEEF0E0C9
:10288E000E94B7320E94BE320E94C633A9C4E13400
:10289E00A0E0FA0759F4ECECF0E00E94B7320E9487
:1028AE00BE320E94DD330E94F632A0C4E234A0E0B4
:1028BE00FA0759F4ECEBF0E00E94B7320E94BE32F8
:1028CE000E94CF330E94E6338BC4E334A0E0FA07B4
:1028DE0059F4ECE9F0E00E94B7320E94BE320E9439
:1028EE00CF33A6E9B1E076C4E434A0E0FA0749F4A8
:1028FE00ECE7F0E00E94B7320E94BE320E94243311
:10290E0069C4E534A0E0FA0749F4E2EDF0E00E9474
:10291E00B7320E94BE320E94DD335CC4E634A0E0C2
:10292E00FA0769F4E6EEF0E00E94B7320E94BE327A
:10293E000E94CF330E94E6330E94083357C4E73417
:10294E00A0E0FA0759F4E4EBF0E00E94B7320E94DF
:10295E00BE320E94CF330E946F3348C4E834A0E0E9
:10296E00FA0759F4ECEAF0E00E94B7320E94BE3248
:10297E000E9424330E94F63239C4E934A0E0FA07EB
:10298E0069F4E2E1F0E00E94B7320E94D432EBE645
:10299E00F5E00E94B0330E946F3328C4EA34A0E001
:1029AE00FA0759F4E2EBF0E00E94B7320E94BE3211
:1029BE000E94FF320E94F63219C4EB34A0E0FA07EF
:1029CE0059F4ECE0F1E00E94B7320E94BE320E9450
:1029DE0068330E946F330AC4EC34A0E0FA0719F48E
:1029EE000E949A3303C4ED34A0E0FA0769F4E6E2DC
:1029FE00F0E00E94B7320E94D432EBE6F5E00E947E
:102A0E00B033A6E9B1E0E6C3EE34A0E0FA0759F41C
:102A1E00ECE1F1E00E94B7320E94BE320E94E9332F
:102A2E00A6E9B1E0D7C3EF34A0E0FA0759F4E2E12A
:102A3E00F1E00E94B7320E94BE320E946833A6E9CE
:102A4E00B1E0C8C3E035A0E0FA0719F40E949A334A
:102A5E00CDC3E135A0E0FA0759F4EAEEF0E00E94AA
:102A6E00B7320E94BE320E94F0330E94F632BEC3CD
:102A7E00E235A0E0FA0759F4E8EDF0E00E94B73233
:102A8E000E94BE320E94F9330E94F632AFC3E33584
:102A9E00A0E0FA0769F4ECE8F0E00E94B7320E9479
:102AAE00BE32A2E2B0E00E940234A9E9B1E092C3C4
:102ABE00E435A0E0FA0759F4E0EAF0E00E94B732FC
:102ACE000E9407340E941034A0E1B0E089C3E535BE
:102ADE00A0E0FA0749F4EEEAF0E00E94B7320E9455
:102AEE00BE320E94F03376C3E635A0E0FA0749F411
:102AFE00E6EFF0E00E94B7320E94BE320E94F93338
:102B0E0069C3E735A0E0FA0759F4E4ECF0E00E945F
:102B1E00B7320E94BE320E9417340E944C3366C3F5
:102B2E00E835A0E0FA0769F4EEE7F0E00E94B7326C
:102B3E000E9407340E9410340E94D4320E94E83260
:102B4E0055C3E935A0E0FA0759F4ECE2F0E00E9433
:102B5E00B7320E94BE320E94D6330E946F3346C3F4
:102B6E00EA35A0E0FA0749F4E0EFF0E00E94B73250
:102B7E000E94BE320E94C53233C3EB35A0E0FA0785
:102B8E0059F4E8EAF0E00E94B7320E94BE320E9489
:102B9E006133A9E9B1E01EC3EC35A0E0FA0719F4E0
:102BAE000E949A3323C3ED35A0E0FA0759F4E0E30F
:102BBE00F0E00E94B7320E94BE320E94D633A6E9E0
:102BCE00B1E008C3EE35A0E0FA0759F4E4EFF0E007
:102BDE000E94B7320E94BE320E94C5320E94083354
:102BEE0005C3EF35A0E0FA0749F4EEE9F0E00E94E4
:102BFE00B7320E94BE320E942D33F8C2E036A0E0FA
:102C0E00FA0719F40E949A33F1C2E136A0E0FA07EE
:102C1E0059F4EAE6F0E00E94B7320E94BE320E94FA
:102C2E0024330E94F632E2C2E236A0E0FA0769F4DB
:102C3E00EEEBF0E00E94B7320E94BE320E94ED32FF
:102C4E000E941A340E940833D1C2E336A0E0FA077C
:102C5E0059F4EAEBF0E00E94B7320E94BE320E94B5
:102C6E00E933A9E9B1E0B6C2E436A0E0FA0759F4B7
:102C7E00E0E6F0E00E94B7320E94BE320E94FF32C0
:102C8E000E94F632B3C2E536A0E0FA0749F4E0E757
:102C9E00F0E00E94B7320E94BE320E9424339AC2E4
:102CAE00E636A0E0FA0759F4EAE8F0E00E94B732FF
:102CBE000E94BE320E94ED320E941A3491C2E73653
:102CCE00A0E0FA0759F4E0E8F0E00E94B7320E9463
:102CDE00BE320E94E9330E944C3388C2E836A0E02F
:102CEE00FA0749F4E6EBF0E00E94B7320E94BE32DA
:102CFE000E94FF326FC2E936A0E0FA0769F4E4E4FD
:102D0E00F0E00E94B7320E94BE320E9421340E942F
:102D1E004F330E9408336AC2EA36A0E0FA0749F43C
:102D2E00EAE3F0E00E94B7320E94BE320E94723394
:102D3E0057C2EB36A0E0FA0719F40E949A3356C236
:102D4E00EC36A0E0FA0769F4E6ECF0E00E94B73248
:102D5E000E94BE320E94CF330E94E6330E94083397
:102D6E0045C2ED36A0E0FA0759F4EAE0F0E00E9421
:102D7E00B7320E94D4320E94D932A0E1B0E030C204
:102D8E00EE36A0E0FA0759F4E2E3F0E00E94B73223
:102D9E000E94BE320E9472330E94083327C2EF3661
:102DAE00A0E0FA0719F40E949A3320C2E037A0E09F
:102DBE00FA0759F4E2EEF0E00E94B7320E94BE32FA
:102DCE000E94CF330E94E6330BC2E137A0E0FA0730
:102DDE0069F4E4EDF0E00E94B7320E94BE320E9428
:102DEE0024340E94E6330E94083300C2E237A0E08A
:102DFE00FA0779F4EAE4F0E00E94B7320E94D43286
:102E0E000E9427340E941034AFE0B0E00E940833D5
:102E1E00EDC1E337A0E0FA0769F4E6E7F0E00E94BF
:102E2E00B7320E942A34ACE9B1E00E940B330E9403
:102E3E000833DCC1E437A0E0FA0759F4E2E9F0E028
:102E4E000E94B7320E94BE320E946833A6E9B1E0FA
:102E5E00C1C1E537A0E0FA0759F4EAE1F1E00E94BA
:102E6E00B7320E94BE320E9424340E94E633B8C1AB
:102E7E00E637A0E0FA0759F4E6E5F0E00E94B73233
:102E8E000E94D4320E9427340E94E633A9C1E7374C
:102E9E00A0E0FA0759F4E2E7F0E00E94B7320E9490
:102EAE002A34ACE9B1E00E940B339AC1E837A0E0B6
:102EBE00FA0759F4E0EDF0E00E94B7320E94BE32FC
:102ECE000E9468330E946F3391C1E937A0E0FA0780
:102EDE0069F4E8E4F0E00E94B7320E94D4320E9416
:102EEE0027340E94E6330E94083380C1EA37A0E0FF
:102EFE00FA0759F4EAE9F0E00E94B7320E94BE32B6
:102F0E000E94E9330E946F3371C1EB37A0E0FA07DC
:102F1E0069F4E6E4F0E00E94B7320E94D4320E94D7
:102F2E0031340E9436340E94083360C1EC37A0E081
:102F3E00FA0789F4E0EEF0E00E94B7320E943F34C7
:102F4E00A5E1B0E00E9402340E941034A3E1B0E08B
:102F5E000E9408334BC1ED37A0E0FA0759F4E8E3BD
:102F6E00F0E00E94B7320E94BE320E94E9330E9406
:102F7E00E63336C1EE37A0E0FA0759F4EAECF0E09A
:102F8E000E94B7320E94BE320E94E933A6E9B1E038
:102F9E0021C1EF37A0E0FA0759F4EEEDF0E00E9400
:102FAE00B7320E94D4320E9431340E94363418C196
:102FBE00E038A0E0FA0769F4E6E1F1E00E94B732EA
:102FCE000E94D432EBE6F5E00E94ED320E944634C8
:102FDE0007C1E138A0E0FA0779F4E8EEF0E00E94CC
:102FEE00B7320E943F340E944D34A9E9B1E00E94ED
:102FFE0046340E940833FAC0E238A0E0FA0769F4BA
:10300E00E2EFF0E00E94B7320E9450340E9410347A
:10301E000E94D4320E94E832E9C0E338A0E0FA07F9
:10302E0049F4E8E0F1E00E94B7320E94BE32AFE10F
:10303E00B0E0CAC0E438A0E0FA0759F4E4E6F0E0E4
:10304E000E94B7320E94BE320E94CF330E948C3350
:10305E00CDC0E538A0E0FA0769F4E8E8F0E00E9498
:10306E00B7320E943F340E944D34A9E9B1E00E946C
:10307E004634B6C0E638A0E0FA0759F4EEE0F1E0C7
:10308E000E94B7320E9450340E941034A0E1B0E08A
:10309E00A7C0E738A0E0FA0759F4E4E5F0E00E9493
:1030AE00B7320E94BE320E9421340E948C339EC0E1
:1030BE00E838A0E0FA0779F4EEE3F0E00E94B732C8
:1030CE000E94D432EBE6F5E00E944D340E94573454
:1030DE00A0E1B0E085C0E938A0E0FA0759F4ECE0D1
:1030EE00F0E00E94B7320E94BE320E9472330E94FC
:1030FE0008337CC0EA38A0E0FA0759F4ECEDF0E0B2
:10310E000E94B7320E94D432EBE6F5E00E94C5323F
:10311E0067C0EB38A0E0FA0759F4E8E5F0E00E944A
:10312E00B7320E94BE320E942434A6E9B1E052C0EA
:10313E00EC38A0E0FA0779F4ECE3F0E00E94B73245
:10314E000E94D4320E9431340E9457340E94D432ED
:10315E000E94E8324BC0ED38A0E0FA0749F4EEE0E9
:10316E00F0E00E94B7320E94BE320E94723338C025
:10317E00EE38A0E0FA0769F4EAE0F1E00E94B73217
:10318E000E94D432EBE6F5E00E94C5320E9408336D
:10319E002DC0EF38A0E0FA0759F4E2E2F0E00E9409
:1031AE00B7320E94BE320E9424340E946F331EC07A
:1031BE00E039A0E0FA0769F5E6E6F0E00E94B732E2
:1031CE000E94BE32ACE1B0E0A083B183EDE6F5E043
:1031DE00ACE9B1E0A083B183E1E7F5E0A2E1B0E0B4
:1031EE00A083B183E5E7F5E0A1E0B0E0A083B18371
:1031FE000E945E343196E0936505F09366050E9459
:10320E006334E0936705F09368050E9468340E946A
:10321E006D34A0917B05B0917C05D29739F40E9454
:10322E007C343597E0936905F0936A050E948134EA
:10323E00A0E0B0E00E94073B0E2E0E9486340E9452
:10324E008B34E02939F00E9490343597E093710564
:10325E00F09372050E949534989739F40E94633466
:10326E007396E0936B05F0936C050E949A340E945E
:10327E008B340E949F340E94A7340E949F3439F0F1
:10328E000E94683470960E94AD340E946D340E9484
:10329E00B2340E949F3439F00E946834B0960E9476
:1032AE00AD340E946D340E94B8340E949F3439F0C0
:1032BE000E946834F0960E94AD340E946D340E94D4
:1032CE009A340E948B340E94BE3439F00E946834C6
:1032DE00F9960E94AD340E946D340E94A7340E946C
:1032EE00BE3441F00E946834EE5BFF4F0E94AD3455
:1032FE000E946D340E94B2340E94BE3441F00E948E
:10330E006834E55BFF4F0E94AD340E946D340E941D
:10331E00B8340E94BE3441F00E946834EC5AFF4F1C
:10332E000E94AD340E946D34229608950E9445315C
:10333E000E94C6340E948B340E94CB34E02111F4DB
:10334E000C94EC190E94F4310E942D04E130B9F472
:10335E000E94D1340E94D4341A9B02C00E94DC34E5
:10336E001B9B02C00E94E4340E946E32E0EEF5E038
:10337E000E94B4320E94EC340E94FB34E3CF979B40
:10338E0024C0002E012A91F40E94F4310E94FE31D5
:10339E00EF930E94F4310E940432AF91EA2329F098
:1033AE000E940A320E940F328F01EBCF0E946E32C2
:1033BE000E94EC340E940A3509F41A9AA0919705DE
:1033CE00B0919805119709F41B9A0E9411350E942D
:1033DE00CB34E02111F40C94371A0E94F4310E9480
:1033EE003004E130B9F40E94D1340E94D4341A9BD7
:1033FE0002C00E94DC341B9B02C00E94E4340E9477
:10340E006E32E0EEF5E00E94B4320E94EC340E947F
:10341E00FB34E3CF979B24C0002E012A91F40E9427
:10342E00F4310E94FE31EF930E94F4310E94043277
:10343E00AF91EA2329F00E940A320E940F328F01C7
:10344E00EBCF0E946E320E94EC340E940A3509F4D2
:10345E001A9AA0919705B0919805119709F41B9AA5
:10346E007FC20E9417350E941C350E941F350E9494
:10347E0025350E942A350E9483310E94B9040E948C
:10348E008134FA93EA93E0E3F0E00E947C310E94EB
:10349E00B904E0917B05F0917C050E942A350E94CB
:1034AE004E320E94B904E0917D05F0917E050E9496
:1034BE002A350E9453320E94B904E0917F05F091A3
:1034CE0080050E941C350E9443320E94B904E0918F
:1034DE008105F09182050E942A350E942D35ACE0BF
:1034EE00B0E00E94473BFA93EA930E9443320E9457
:1034FE002D35AAE0B0E00E94473B0E942A350E947B
:10350E0043320E94B9040E9477310E947C310E949E
:10351E0083310E948831E8E2F0E00E941C350E945F
:10352E002D350895E0912D05F0912E053097B9F4C3
:10353E000E946E32E6E0F6E00E94B4320E94EC3455
:10354E00E6E0F6E00E9433350E9440350E940A32D2
:10355E000E940F32E0932D05F0932E05E3CF0E94CB
:10356E00F4310E944635EF930E94F4310E944C359F
:10357E00AF91EA2B69F00E946E32EFE2F6E00E9404
:10358E00B4320E94EC34EFE2F6E00E943335E7CF1E
:10359E00C49A0E944035C69A0E9452350E945C35EC
:1035AE00EF930E9452350E946235AF91EA2B11F4CF
:1035BE000C94561B0E94F4310E944635EF930E94E4
:1035CE00F4310E944C35AF91EA2BA9F0979AC69828
:1035DE00C49892980E946E32E4E4F6E00E94B432EF
:1035EE000E94EC34ECE6F6E00E9433350E94D134B2
:1035FE000E941F35EBCF0E946E32E3E8F6E00E9488
:10360E00B4320E94EC34E3E8F6E00E9433350E94B7
:10361E0040350E9452350E943904E03041F40E9438
:10362E006E32E2EAF6E00E94B4320E9440350E9409
:10363E0052350E944E04E03041F40E94EC34E1EC2D
:10364E00F6E00E94B4320E9440350E94F4310E948E
:10365E006835EF930E94F4310E946235AF91EA2BE8
:10366E00E9F0979A0E94F4310E944904E13041F446
:10367E000E946E32E0EEF6E00E94B4320E944035B7
:10368E000E94F4310E944E04E13041F40E946E32E9
:10369E00E2EFF6E00E94B4320E9440357DCFC4982E
:1036AE00929A0E9440350E9464320E945C35EF93DC
:1036BE000E946E350E945C35AF91EA2B11F40C948A
:1036CE00DD1B0E94F4310E944635EF930E94F431C7
:1036DE000E944C35AF91EA2BA9F0979AC6980E949A
:1036EE006E32E4E4F6E00E94B4320E94EC34ECE672
:1036FE00F6E00E943335C49892980E94D1340E940D
:10370E001F35EBCF0E946E32E3E8F6E00E94B43232
:10371E000E94EC34E3E8F6E00E9433350E94403517
:10372E000E9464320E943904E03041F40E946E32ED
:10373E00E4E0F7E00E94B4320E9440350E946E35FC
:10374E000E943904E03041F40E94EC34E3E2F7E0E9
:10375E000E9433350E9440350E9464320E947835B3
:10376E00EF930E946E350E947835AF91EA2BE9F007
:10377E00979A0E9464320E944304E13041F40E9401
:10378E006E32E2E4F7E00E94B4320E9440350E94AD
:10379E006E350E944304E13041F40E946E32E4E53E
:1037AE00F7E00E94B4320E9440357DCF0E946E3207
:1037BE00E6E6F7E00E94B4320E94EC34E6E6F7E06B
:1037CE000E9433359298C6980E9440350E94D1349B
:1037DE000E941F350E947E3508950E94F4310E948A
:1037EE00FE31EF930E94F4310E940432AF91EA232E
:1037FE0011F40C94481C0E946E350E944904A0E0FE
:10380E000E94023BEF930E946E350E944E04A0E090
:10381E000E94023BAF910E9484350E948B35E021BD
:10382E0031F0E1E0F0E0E0935F05F09360050E9477
:10383E006E350E946835EF930E946E350E94623598
:10384E00AF910E9484350E948B34E02131F0E2E08A
:10385E00F0E0E0935F05F09360050E949035E1E0A3
:10386E000E94023BE02119F01E980E949D350E9495
:10387E009035E0E00E94023BE02119F01E9A0E9472
:10388E009D3508951A930A93A0912105B0912205B2
:10389E008091230590912405AD33E0E0BE07E0E072
:1038AE008E07E0E09E0714F40C94A51C0E94A83528
:1038BE00F501D4010E94193BEF930E9488320E94B9
:1038CE004635EF930E9488320E944C35AF91EA2B19
:1038DE00EF930E9488320E943404A1E00E94023BC2
:1038EE00AF91EA2BEF930E9488320E945C35AF9124
:1038FE00EA2BEF930E9488320E943F04A1E00E94BF
:10390E00023BAF91EA2BEF930E9488320E947835EA
:10391E00AF91EA2BEF930E9488320E946835AF91E7
:10392E00EA2BEF930E9488320E946235AF91EA2B08
:10393E00AF91EA2319F0F40131964F01A814B9049E
:10394E0041F40E9442068F010E94A835F40131967F
:10395E004F01F5013196E815F90511F488249924E3
:10396E000991199108950E9464320E944304E13036
:10397E0019F4979A1A981B980E94B23509F4D6DC5E
:10398E00E0913305F0913405309711F00C94141D2D
:10399E000E94B835E881E0930905E17011F4D898DA
:1039AE0001C0D89AE0910905E27011F4D99801C0CE
:1039BE00D99AE0910905E47011F4DA9801C0DA9A07
:1039CE00E0910905E87011F4DB9801C0DB9AE091F3
:1039DE000905E07111F4DC9801C0DC9AE09109054B
:1039EE00E07211F4DD9801C0DD9AE0910905E074F2
:1039FE0011F4DE9801C0DE9AE0910905E07811F429
:103A0E00DF9801C0DF9AA881B981A030E1E0BE073E
:103A1E000CF0949AE1E0F0E047C0E130A0E0FA0744
:103A2E0089F4A0911105B091120580911305909122
:103A3E0014050E94C2352CF0939AE2E0F0E00E9449
:103A4E00CA3536C0E230A0E0FA0789F40E9464322B
:103A5E000E942D04E03051F49398E0E0EBBB949873
:103A6E000E94B835E3E0F0E00E94CA3521C0E33091
:103A7E00A0E0FA0769F40E9464320E943904E03033
:103A8E0031F40E94B835E4E0F0E00E94CA3510C06F
:103A9E00E430A0E0FA0761F40E9464320E942D0423
:103AAE00E13031F4E5E0F0E0E0933305F0933405D6
:103ABE00E0913305F09134057EC10E946E350E946F
:103ACE004304E13019F4979A1A981B980E94B23564
:103ADE0009F42CDCE0913705F0913805309711F0A0
:103AEE000C94BE1D0E94CF35E881E0930A05E1706B
:103AFE0011F4A89801C0A89AE0910A05E27011F499
:103B0E00A99801C0A99AE0910A05E47011F4AA9847
:103B1E0001C0AA9AE0910A05E87011F4AB9801C0B1
:103B2E00AB9AE0910A05E07111F4AC9801C0AC9A21
:103B3E00E0910A05E07211F4AD9801C0AD9AE091E2
:103B4E000A05E07411F4AE9801C0AE9AE0910A0530
:103B5E00E07811F4AF9801C0AF9AA881B981A03076
:103B6E00E1E0BE070CF0959AE1E0F0E047C0E130ED
:103B7E00A0E0FA0789F4A0911905B0911A05809179
:103B8E001B0590911C050E94C2352CF0969AE2E01E
:103B9E00F0E00E94D93536C0E230A0E0FA0789F491
:103BAE000E946E350E942D04E03051F49698E0E0AC
:103BBE00E5BB95980E94CF35E3E0F0E00E94D93541
:103BCE0021C0E330A0E0FA0769F40E946E350E942E
:103BDE003904E03031F40E94CF35E4E0F0E00E9489
:103BEE00D93510C0E430A0E0FA0761F40E946E35BA
:103BFE000E942D04E13031F4E5E0F0E0E09337056A
:103C0E00F0933805E0913705F0913805D4C00E9445
:103C1E00F4310E944E04E13019F4979A1A981B98C9
:103C2E000E94B23509F482DBE0913505F09136053C
:103C3E00309711F00C94681EE881E0930705E1704F
:103C4E000E2EE0910005EE7F0E94DE35E695E170C6
:103C5E00EE0F0E2EE0910005ED7F0E94DE35E6950B
:103C6E00E695E170EE0FEE0F0E2EE0910005EB7F64
:103C7E000E94DE35E695E695E695E170EE0FEE0FC5
:103C8E00EE0F0E2EE0910005E77F0E94DE35E295E5
:103C9E00E170E795E0E0E7950E2EE0910005EF77F5
:103CAE00E0290E94E435E0910705E07211F4C7980F
:103CBE0001C0C79A0E94E935E1E0F0E00E94F335B9
:103CCE0076C0E130A0E0FA07A9F4A0911505B091F5
:103CDE00160580911705909118050E94C2354CF07B
:103CEE00E0910005E0620E94E435E2E0F0E00E941F
:103CFE00F3355DC0E230A0E0FA0721F50E9452359F
:103D0E000E942D04E030E9F4E0910005EF7D0E9461
:103D1E00E435E0910005EE7F0E94F835ED7F0E94BC
:103D2E00F835EB7F0E94F835E77F0E94F835EF7784
:103D3E000E94E435C7980E94E935E3E0F0E00E9466
:103D4E00F33535C0E330A0E0FA0769F40E9452352E
:103D5E000E943904E03031F40E94E935E4E0F0E0ED
:103D6E000E94F33524C0E430A0E0FA0701F50E946A
:103D7E0052350E942D04E130D1F4E5E0F0E00E94CE
:103D8E00F335E0914305F0914405309739F4E1E0C5
:103D9E00F0E0E0934305F093440509C0E130A0E064
:103DAE00FA0729F4E0E0E0934305E0934405E0913F
:103DBE003505F0913605229608950E94F4310E9441
:103DCE004904E13019F4979A1A981B980E94B2355B
:103DDE0009F4ACDAE0913905F0913A05309781F5A6
:103DEE00EA81E0930805E17011F4C09801C0C09A11
:103DFE00E0910805E27011F4C19801C0C19AE091FA
:103E0E000805E47011F4C29801C0C29AE091080549
:103E1E00E87011F4C39801C0C39AE0910805E071EF
:103E2E0011F41C9801C01C9AE0910805E07211F47F
:103E3E001D9801C01D9A0E94FB35E1E0F0E04AC0DA
:103E4E00E130A0E0FA0789F4A0911D05B0911E059E
:103E5E0080911F05909120050E94C2352CF0C59AC5
:103E6E00E2E0F0E00E94053639C0E230A0E0FA0749
:103E7E00A1F40E9452350E943F04E03069F4C598C7
:103E8E00C098C198C298C3981C981D980E94FB3583
:103E9E00E3E0F0E00E94053621C0E330A0E0FA072F
:103EAE0069F40E9452350E944E04E03031F40E94B3
:103EBE00FB35E4E0F0E00E94053610C0E430A0E0EF
:103ECE00FA0761F40E9452350E943F04E13031F44A
:103EDE00E5E0F0E0E0933905F0933A05E09139051D
:103EEE00F0913A052496089568970E94793B20E058
:103EFE0030E000E010E040E050E04B30E0E05E07E4
:103F0E0044F4FA010E940A360E94AF324F5F5F4FAF
:103F1E00F4CFE1E9F0E0E0939305F09394050E946D
:103F2E0020320E941532E0939305F0939405A091F0
:103F3E009305B0919405A139E0E0BE0761F0E091E0
:103F4E009305F0919405E0930D05F0930E05E09323
:103F5E000F05F09310050E9411360E948B340E2E21
:103F6E000E9416360E948B350E941B360E942C36FC
:103F7E000E943636EF930E94F4310E94FE31AF91CB
:103F8E00EA23EF930E94F4310E940432AF91EA23A8
:103F9E0011F40C940B210E941136119711F00C9410
:103FAE000B21F801309749F40E9440360E944636A4
:103FBE000E94403601E010E026C1E130A0E0FA0791
:103FCE00C1F40E945936159724F40E940A320E94B9
:103FDE005E360E946136159724F40E94D1340E94F9
:103FEE0066360E94693621F00E94763602E010E0B5
:103FFE000AC1E230A0E0FA07C1F40E94803615979C
:10400E0024F40E940A320E9485360E948836159743
:10401E0024F40E948D360E9492360E94953621F02D
:10402E000E94A23603E010E0EEC0E330A0E0FA07F3
:10403E0089F40E948036159724F40E94AC360E94B3
:10404E0085360E948036159721F40E94A23604E030
:10405E0010E0D9C0E430A0E0FA0789F40E94593686
:10406E00159724F40E9463340E94B0360E9459368C
:10407E00159721F40E94A23605E010E0C4C0E53089
:10408E00A0E0FA0711F00C94C8200E9420320E9482
:10409E004E320E9456049F01022E032A11F40AE9A1
:1040AE0012E00E94B33621F00E94BA360E949B3273
:1040BE000E94BE360E22AC85BD850E948B35E02156
:1040CE0021F00E94BA360E949B320E94C7360E2201
:1040DE00AE85BF850E948B35E02121F00E94BA3655
:1040EE000E949B320E94D0360E22A889B9890E9466
:1040FE008B35E02121F00E94BA360E949B320E943D
:10410E00D9360E22AA89BB890E948B35E02121F077
:10411E000E94BA360E949B320E94E2360E22AC8971
:10412E00BD890E948B35E02121F00E94BA360E9493
:10413E009B320E94EB360E22AE89BF890E948B35D0
:10414E00E02121F00E94BA360E949B320E94F43682
:10415E000E22A88DB98D0E948B35E02121F00E9490
:10416E00BA360E949B320E94FD360E22AA8DBB8D5E
:10417E000E948B35E02121F00E94BA360E949B32BC
:10418E0042C0E630A0E0FA0789F40E94593615972E
:10419E0024F40E940A320E945E360E945936159708
:1041AE0021F40E94A23607E010E02DC0E730A0E017
:1041BE00FA0779F40E948036159714F40E94063798
:1041CE000E948036159721F40E94A23604E010E07A
:1041DE001AC0EA39A2E0FA07B1F40E9459361597CF
:1041EE0024F40E940A320E945E360E9459361597B8
:1041FE0051F40E94763604E610E0E0E0E093830589
:10420E00E0938405C698C7CE0E9411360E948B3566
:10421E000E2E0E9416360E948B340E941B360E9470
:10422E000B370E9410370E220E941537E02111F431
:10423E000C945A220E941636119711F00C945A22A1
:10424E00F801309749F40E941E370E9446360E94AC
:10425E001E3701E010E026C1E130A0E0FA07C1F4FC
:10426E000E945936159724F40E940A320E945E3637
:10427E000E946136159724F40E94D1340E9466364E
:10428E000E94693621F00E94763602E010E00AC1E3
:10429E00E230A0E0FA07C1F40E948036159724F4AC
:1042AE000E9424370E9485360E948836159724F482
:1042BE000E9429370E9492360E94953621F00E9464
:1042CE00A23603E010E0EEC0E330A0E0FA0789F476
:1042DE000E948036159724F40E942E370E94853650
:1042EE000E948036159721F40E94A23604E010E059
:1042FE00D9C0E430A0E0FA0789F40E945936159728
:10430E0024F40E9463340E94B0360E9459361597E9
:10431E0021F40E94A23605E010E0C4C0E530A0E012
:10432E00FA0711F00C9417220E9420320E94533289
:10433E000E9456049F01022E032A11F40AE912E08C
:10434E000E94B33621F00E94BA360E949B320E9420
:10435E00BE360E22AC85BD850E948B35E02121F044
:10436E000E94BA360E949B320E94C7360E22AE853C
:10437E00BF850E948B35E02121F00E94BA360E9443
:10438E009B320E94D0360E22A889B9890E948B35A5
:10439E00E02121F00E94BA360E949B320E94D9364B
:1043AE000E22AA89BB890E948B35E02121F00E9442
:1043BE00BA360E949B320E94E2360E22AC89BD892B
:1043CE000E948B35E02121F00E94BA360E949B326A
:1043DE000E94EB360E22AE89BF890E948B35E021FA
:1043EE0021F00E94BA360E949B320E94F4360E22B1
:1043FE00A88DB98D0E948B35E02121F00E94BA362E
:10440E000E949B320E94FD360E22AA8DBB8D0E9409
:10441E008B35E02121F00E94BA360E949B3242C0B9
:10442E00E630A0E0FA0789F40E945936159724F475
:10443E000E940A320E945E360E945936159721F468
:10444E000E94A23607E010E02DC0E730A0E0FA0788
:10445E0079F40E948036159714F40E9406370E9454
:10446E008036159721F40E94A23604E010E01AC09F
:10447E00EA39A2E0FA07B1F40E945936159724F4EE
:10448E000E940A320E945E360E945936159751F4E8
:10449E000E94763604E610E0C698E0E0E0938505CB
:1044AE00E0938605C7CE0E94803B6E9608950E94CB
:1044BE0077310F01ACE0B0E00E94473B0E161F06AD
:1044CE009CF0E0910005E0640E94E4350E943537CF
:1044DE000E943A370E949E04E9E8F7E0FA93EA93C5
:1044EE000E943A370E949E04A6E0B0E00E94473B2D
:1044FE000F01AAE0B0E00E94473B0E161F069CF08B
:10450E00E0910005E0640E94E4350E9435370E9478
:10451E003D370E949E04E4EAF7E0FA93EA930E9484
:10452E003D370E949E04089524970E94793BE0E057
:10453E00EE83EF830E94F4310E94FE31EF930E94CE
:10454E00F4310E940432AF91EA2371F00E942032BE
:10455E000E9496320E9456048F010E9420320E94C1
:10456E0020320E945604AF01E1E0F0E0E017F107BF
:10457E0011F00C94A023EE81FF81309741F40E943C
:10458E00A236C69AE1E0F0E0EE83FF83D1C0E130BF
:10459E00A0E0FA07D1F40E945936159724F40E9430
:1045AE000A320E945E360E946136159724F40E94EC
:1045BE00D1340E9466360E94693631F00E947636FA
:1045CE00E2E0F0E0EE83FF83B3C0E230A0E0FA0752
:1045DE00C1F40E948036159724F40E9440370E9441
:1045EE0085360E948836159724F40E9440370E9423
:1045FE0092360E94953621F00E94A2360E944537CF
:10460E0097C0E330A0E0FA0711F00C9477230E94D4
:10461E005936159724F4E2E0F0E00E94B0360E947D
:10462E006136159734F4E2E0F0E00E947C310E948E
:10463E0066360E94693611F40C9476230E94763603
:10464E000E9420320E9496320E945604E887F98713
:10465E00309781F4C69A0E94F4310E94FE31EF9396
:10466E000E94F4310E940432AF91EA2311F00E94AD
:10467E004A3735C0E130A0E0FA0721F40E944537F1
:10468E00C6982DC0E230A0E0FA0749F5C69AE1E0DF
:10469E00F0E0E0937705F0937805E0910005EF7B6D
:1046AE000E94E435E0E0E0938905E0938A050E94DC
:1046BE00E1310E94D1040E9435370E943A370E94A0
:1046CE009E040E94F4310E94FE31EF930E94F43159
:1046DE000E940432AF91EA2311F00E944A3728C09B
:1046EE00E430A0E0FA0721F50E945936159724F41C
:1046FE000E940A320E945E360E946136159724F49B
:10470E000E94D1340E9466360E94693689F00E945A
:10471E00A2360E940A320E9420320E9496320E94D5
:10472E00B904C698E5E0F0E0EE83FF8300E010E008
:10473E001BCF0E9420320E9420320E945604AF01ED
:10474E00E0E0EE83EF83E1E0F0E0E417F50711F02F
:10475E000C947524EE81FF81309741F40E94A236AD
:10476E00C69AE1E0F0E0EE83FF83B7C0E130A0E04F
:10477E00FA07D1F40E945936159724F40E940A3292
:10478E000E945E360E946136159724F40E94D13441
:10479E000E9466360E94693631F00E947636E2E05B
:1047AE00F0E0EE83FF8399C0E230A0E0FA07C1F497
:1047BE000E948036159724F40E9440370E94853659
:1047CE000E948836159724F40E9440370E94923634
:1047DE000E94953621F00E94A2360E9445377DC078
:1047EE00E330A0E0FA0711F00C944C240E945936E5
:1047FE00159724F4E2E0F0E00E94B0360E94613694
:10480E00159734F4E2E0F0E00E947C310E946636A7
:10481E000E946936C9F10E9476360E9420320E94AB
:10482E0020320E9456049F01F901309721F40E9414
:10483E004A37C69A29C0E130A0E0FA0721F4C6989B
:10484E000E94453721C0E230A0E0FA07E9F40E9449
:10485E004A37E1E0F0E0E0937905F0937A05C69AE5
:10486E00E0910005EF7B0E94E435E0E0E0938705E0
:10487E00E09388050E94E8310E94D1040E943537EA
:10488E000E943D370E949E0428C0E430A0E0FA0743
:10489E0021F50E945936159724F40E940A320E947F
:1048AE005E360E946136159724F40E94D1340E9420
:1048BE0066360E94693689F00E94A236E5E0F0E085
:1048CE00EE83FF830E940A320E9420320E94203221
:1048DE000E94B904C69840E050E035CF0E94803B5C
:1048EE002A960895E0E0EBBBEFEFEABBE0E0E8BB11
:1048FE00EFEFE7BBE0E0E5BBEFEFE4BBE0E0E2BBF0
:10490E00EFEFE1BBE0E0E3B9EFEFE2B9E0E0E09317
:10491E006200EFEFE0936100E0E0E0936500EFE10D
:10492E00E0936400E0E0E0BFE7E0E3BFE0E0E2BF79
:10493E00E1BFEFBDEEBDEDBDECBDE7BDE6BDEBBD30
:10494E00EABDE9BDE8BDE0937900E0937800E5BDEE
:10495E00E4BDE3BDE0938B00E0938A00E093890011
:10496E00E0938800E0938100E0938000E09387005D
:10497E00E0938600E0938500E0938400E09383004B
:10498E00E0938200E0936A00EABFE9BFE1E0E7BF8F
:10499E00E0E0E0937D00EBB9E8E1EAB9E6E0E09310
:1049AE009500E0E0E0939000E8E0E9B9E0E0E09304
:1049BE009A00E0E8E8B9E0E0E0BDE6B9EDB9E093D1
:1049CE0074000E94973A78940E944F370E944F3796
:1049DE000E944F370E944F370E944A31E3E0EA931C
:1049EE000E94CA2FE0E8EA930E94CA2FE2E0EA93FF
:1049FE000E94CA2FE0E1EA930E94CA2FE1E0F0E0A4
:104A0E005F010E947E350E945537E0E0E0935B0522
:104A1E00E0935C050E945C370E946237689420F830
:104A2E0021F81E9A22F8E7EBF0E0E0936105F0938F
:104A3E006205E4E6F0E0E0937B05F0937C05E093FD
:104A4E007D05F0937E05E1E0F0E0E0937F05F093C5
:104A5E008005E2E3F0E0E0938105F0938205E4E661
:104A6E00F0E0E0938F05F0939005E8E7F0E06F013A
:104A7E00E0E5F0E0E0933B05F0933C05E0E0E093E9
:104A8E003D05E0933E05E0E4F0E0E0933F05F09352
:104A9E004005E0E0E0934105E09342050E94381A9C
:104AAE000E94991A0E9423060E94491C0E94F41B20
:104ABE00FEDC3ADD0E94D1040E94BA0515DA0E948E
:104ACE002306A0912D05B0912E050E948B340E2E3B
:104ADE000E942C360E940B37E1E0F0E00E940D3B65
:104AEE000E220E9436361E2E0E9415370E2E0E9462
:104AFE000B370E948B35E029E1210E2EA0915B052C
:104B0E00B0915C050E948B34E02911F40C94AE2F09
:104B1E00E0914705F0914805309711F00C947D26F1
:104B2E00C69AE0915B05F0915C05309711F00C94FC
:104B3E0018260E94D1340E9443320E94B9040E946A
:104B4E00D1340E9453320E94B9040E940A320E944C
:104B5E0015320E941B320E9420320E9425320E9482
:104B6E000F323197A0E0B0E00E94573BA0E0B0E0DA
:104B7E00E1E0F0E00E942C320E9483310E94333239
:104B8E000E943C320E948134309731F40E942535C8
:104B9E0031970E94573B31960E9496320E944E32B8
:104BAE000E945604E0937B05F0937C050E9496329A
:104BBE000E9453320E945604E0937D05F0937E05C9
:104BCE000E9420320E9443320E945604E0937F05D9
:104BDE00F09380050E9496320E944832E093810540
:104BEE00F09382050E9420320E9448320E94583271
:104BFE000E9483310E945D320E9468370E2E0E9401
:104C0E001537E02139F00E946A37E0933105F093B1
:104C1E00320505C0E0E0E0933105E09332050E94D5
:104C2E004036E1E0F0E0E0935B05F0935C050E9416
:104C3E00C634119789F41E980E948036159724F475
:104C4E000E9429370E9485360E948836159724F4D3
:104C5E000E940A320E9492360E94C634129791F434
:104C6E000E94491C0E948036159724F40E948D36AE
:104C7E000E9485360E948836159724F40E942437A8
:104C8E000E9492360E94953679F10E94C634129790
:104C9E0059F41E9903C00E94F41BFBCFE8EBFBE016
:104CAE00FA93EA930E94E93A0E944F370E94A23685
:104CBE000E9462370E946F370E94C634119741F4EA
:104CCE000E94F4310E942D04E130D1F30E94753719
:104CDE000E94C634129741F40E94F4310E943004AF
:104CEE00E130D1F30E9475370C94AC2FE130A0E087
:104CFE00FA0711F00C94D1260E947C370E9483375C
:104D0E00E02129F01F9A0E94AC360E9492360E9432
:104D1E007C370E941135E02139F01F9A0E94491C00
:104D2E000E942E370E9492360E9485370E94193BB0
:104D3E000E948937E02121F00E9490370E9466364A
:104D4E000E9488360E9493370E9485370E94073B47
:104D5E00E021F1F00E9499370E949F370E94A937F7
:104D6E000E94C634119741F40E94F4310E942D0422
:104D7E00E130D1F30E94AE370E94C634129741F44F
:104D8E000E94F4310E943004E130D1F30E94AE371C
:104D9E000C94AC2FE230A0E0FA0779F50E94C634ED
:104DAE00129711F40E94491C0E946136159724F443
:104DBE000E94B5370E9466360E9461361597D9F467
:104DCE001A9A0E94BC370E94C634119741F40E9471
:104DDE00F4310E942D04E130D1F30E94C2370E94BB
:104DEE00C634129741F40E94F4310E943004E1302F
:104DFE00D1F30E94C2370C94AC2FE330A0E0FA0737
:104E0E0011F00C9462270E94C634129711F40E947E
:104E1E00491C0E9485370E94193B0E2E0E94D237E4
:104E2E000E220E9417350E94E33731F00E947C3427
:104E3E000E947C310E9466360E9485370E94EB37B5
:104E4E000E94E33721F00E94EF370E94BC370E9488
:104E5E0085370E94193B0E2E0E9417350E94F73798
:104E6E0031F0E3E0F0E00E947C310E9466360E9451
:104E7E0085370E94EB370E94F737D9F01A980E94B7
:104E8E00BC370E94C634119741F40E94F4310E943F
:104E9E002D04E130D1F30E94FF370E94C6341297E1
:104EAE0041F40E94F4310E943004E130D1F30E94AB
:104EBE00FF370C94AC2FE430A0E0FA0779F50E948E
:104ECE00C634129711F40E94491C0E946136159740
:104EDE0024F40E9490370E9466360E946136159720
:104EEE00D9F41A980E94BC370E94C634119741F427
:104EFE000E94F4310E942D04E130D1F30E94063855
:104F0E000E94C634129741F40E94F4310E9430047C
:104F1E00E130D1F30E9406380C94AC2FE530A0E0BE
:104F2E00FA0711F00C9441280E9412380E220E94AA
:104F3E008337E02121F00E940A320E9485360E94BA
:104F4E0012380E220E941135E02121F00E942437E2
:104F5E000E9485360E94C634129711F40E94491C95
:104F6E000E941D380E941F380E948B35E02141F0AF
:104F7E000E949937E1E0F0E0E0934905F0934A058D
:104F8E000E9424380E220E948337E02121F00E94D5
:104F9E00AC360E9485360E9424380E220E941135AE
:104FAE00E02121F00E942E370E9485360E942C3877
:104FBE000E94193B0E2E0E94303811F00E940637C7
:104FCE000E947C370E9437380E948B35E02121F0F9
:104FDE000E943C380E9492360E947C370E944138D3
:104FEE000E220E948337E02121F00E948D360E940E
:104FFE0092360E947C370E9441380E220E94113553
:10500E00E02121F00E9429370E9492360E942C380E
:10501E000E94073B0E9489370E220E941F380E9471
:10502E008B34E0211E2E0E942C380E94073B0E94DA
:10503E0089370E220E943038E129D9F00E94993723
:10504E000E949F370E94433841F40E94F4310E941F
:10505E002D04E130D1F30E944A380E94C6341297D3
:10506E0041F40E94F4310E943004E130D1F30E94E9
:10507E004A386BC7E630A0E0FA0711F00C94A2286C
:10508E000E945936159724F40E9463340E94B0365C
:10509E000E943738119711F40E9452380E946136DF
:1050AE00159724F40E94B5370E9466360E94C634C6
:1050BE00129711F40E94491C0E9485370E94073BEB
:1050CE000E9455380E94073BE021A1F10E945A38F8
:1050DE000E2E0E948337E0211E2E0E9466380E2E61
:1050EE000E941135E021E12909F01A9A1B9A0E94BB
:1050FE0076360E946F380E94703B24F40E947438FA
:10510E000E947E380E94C634119741F40E94F431F9
:10511E000E942D04E130D1F30E9482380E94C634E1
:10512E00129741F40E94F4310E943004E130D1F321
:10513E000E9482380AC7E730A0E0FA0711F00C94FB
:10514E00F3280E94C634129711F40E94491C0E9443
:10515E0092380E9498380E949C38E0E00E94A13854
:10516E000E94A7380E94AC380E94B2380E94B8380C
:10517E000E9499370E949F370E944338A1F40E94E3
:10518E00F4310E942D04E130D1F30E948134DF010D
:10519E000E94703B34F40E94BE3811F40E94C7384E
:1051AE0002C00E94CE380E94C6341297A1F40E940B
:1051BE00F4310E943004E130D1F30E948134DF01DA
:1051CE000E94703B34F40E94BE3811F40E94C7381E
:1051DE0002C00E94CE38B9C6E837A3E0FA0711F034
:1051EE000C94592A0E94D53814F40E94E6380E9475
:1051FE00C634129711F40E94491C0E943738119739
:10520E0011F40E9452380E942C380E94EA38DF01B5
:10521E000E9410370E94EE380E948B35E02121F05B
:10522E000E9468340E94F4380E941D380E94F7389C
:10523E000E948B35E02121F00E9499370E94FC38A4
:10524E000E942C380E94EA380E9403390E948B3447
:10525E00E02111F00E940A390E941D380E9481340B
:10526E000E9403390E948B34E02121F00E9499376D
:10527E000E940F390E9481340E941739E02121F0DB
:10528E000E9499370E9420390E942C380E9427399B
:10529E0011F00E9431390E941D380E94363921F0DA
:1052AE000E9499370E943D390E9485370E944439E9
:1052BE000E948B350E944C390E220E94D237E0217B
:1052CE0031F00E947C340E947C310E9466360E942E
:1052DE0085370E94EB370E9452390E945739E021E0
:1052EE0089F00E945A3911F40E94BC370E9460392D
:1052FE0029F40E94EF370E94663904C00E94B83824
:10530E000E946D390E9477390E948B350E94823936
:10531E00E02121F00E9490340E94B0360E9488391C
:10532E000E9425350E948A390E94193B0E948239BB
:10533E00E02169F00E948F39E0915305F0915405F8
:10534E00309719F40E94953902C00E94B2380E941B
:10535E0077390E948B34E02121F00E9463340E9441
:10536E00B0360E9485370E9444390E948B340E94C9
:10537E004C39E02131F00E943C380E9424370E94C3
:10538E0066360E9488390E9425350E94A3390E94F4
:10539E0017350E94A8390E94EE380E94AC3921F0D0
:1053AE000E948F390E94B2390E94B9390E94553835
:1053BE000E94193BE02111F00E94BE390E948839EB
:1053CE000E94B939E02111F00E94C1390E9485373F
:1053DE000E94EB370E94C5390E220E9425350E948D
:1053EE008A390E940D3BE02129F01A980E94BC37A1
:1053FE000E94C9390E94D0390E2E0E9485370E9414
:10540E00193BE02121F00E9490370E9466360E94DF
:10541E0085370E94073B0E2E0E94D039E02119F0ED
:10542E000E94AC381A980E9417350E94C5390E2E6C
:10543E000E9425350E94A3390E94D5390E94073B50
:10544E000E9482390E944C390E94EE380E94AC397B
:10545E0041F1E0E00E94A7380E94AC380E94A236CB
:10546E000E9498380E94A1380E949C380E9492385F
:10547E000E94E6380E94DC3941F40E94F4310E9409
:10548E002D04E130D1F30E94E0390E94C634129708
:10549E0041F40E94F4310E943004E130D1F30E94B5
:1054AE00E03953C5E73EA3E0FA0711F00C94662BE2
:1054BE000E94D53814F40E94E6380E94C634129722
:1054CE0011F40E94491C0E943738119711F40E9462
:1054DE0052380E9485370E9444390E948B350E94B3
:1054EE004C390E220E94D237E02131F00E947C34DA
:1054FE000E947C310E9466360E9485370E94EB37EF
:10550E000E9452390E945739E02189F00E945A397F
:10551E0011F40E94BC370E94603929F40E94EF37C3
:10552E000E94663904C00E94B8380E946D390E94EC
:10553E0077390E948B350E948239E02121F00E943A
:10554E0090340E94B0360E9488390E9425350E9400
:10555E008A390E94193B0E948239E02169F00E942B
:10556E008F39E0915305F0915405309719F40E944C
:10557E00953902C00E94B2380E9477390E948B344E
:10558E00E02121F00E9463340E94B0360E948537DC
:10559E000E9444390E948B340E944C39E02131F034
:1055AE000E943C380E9424370E9466360E94883939
:1055BE000E9425350E94A3390E9417350E94A839F2
:1055CE00E02121F00E948F390E94B2390E94B93930
:1055DE000E9455380E94193BE02111F00E94BE39FD
:1055EE000E9488390E94B939E02111F00E94C13918
:1055FE000E9485370E94EB370E94C5390E220E9409
:10560E0025350E948A390E940D3BE02129F01A9817
:10561E000E94BC370E94C9390E94D0390E2E0E94BA
:10562E0085370E94193BE02121F00E9490370E949D
:10563E0066360E9485370E94073B0E2E0E94D03997
:10564E00E02119F00E94AC381A980E9417350E947A
:10565E00C5390E2E0E9425350E94A3390E94D539D8
:10566E000E94073B0E9482390E944C39E02131F1A1
:10567E00E0E00E94A7380E94AC380E94A2360E9439
:10568E0098380E94A1380E949C380E94E6380E94E9
:10569E00DC3941F40E94F4310E942D04E130D1F343
:1056AE000E94E0390E94C634129741F40E94F431F0
:1056BE000E943004E130D1F30E94E03946C4E83054
:1056CE00A0E0FA0711F00C94E72C0E94D53814F4E0
:1056DE000E94E6380E94C634129711F40E94491CAB
:1056EE000E942C380E94EA38DF010E9410370E9477
:1056FE00EE380E948B35E02121F00E9468340E9422
:10570E00F4380E941D380E94F7380E948B35E02134
:10571E0021F00E9499370E94FC380E942C380E947A
:10572E00EA380E9403390E948B34E02111F00E9466
:10573E000A390E941D380E9481340E9403390E944A
:10574E008B34E02121F00E9499370E940F390E947C
:10575E0081340E941739E02121F00E9499370E946E
:10576E0020390E942C380E94273911F00E943139BD
:10577E000E941D380E94363921F00E9499370E94EE
:10578E003D390E94E7390E94F7380E94AC3921F06A
:10579E000E9490340E94B0360E9488390E94F738D9
:1057AE000E94AC39D9F0E0E00E949C38ADE4B5E03F
:1057BE000E94EE390E9425350E948A39EA17FB07AE
:1057CE0039F4E4E0F0E0E0935105F093520502C0A5
:1057DE000E9492380E9499370E948F390E94373862
:1057EE00119711F40E9452380E9485370E94443955
:1057FE000E948B350E944C390E220E94D2370E9495
:10580E00F439E02131F00E947C340E947C310E94F8
:10581E0066360E9485370E94EB370E9452390E94ED
:10582E0057390E94F439E02189F00E945A3911F457
:10583E000E94BC370E94603929F40E94EF370E9403
:10584E00663904C00E94B8380E946D390E948537AF
:10585E000E9444390E948B340E944C390E94F439C4
:10586E00E02131F00E943C380E9424370E946636B7
:10587E000E9488390E9425350E94A3390E9417354F
:10588E000E94A839E02121F00E948F390E94B2397E
:10589E000E94B9390E9455380E94193BE02111F03F
:1058AE000E94BE390E9488390E94B939E02111F058
:1058BE000E94C1390E94F7390E2E0E9485370E9430
:1058CE00073B0E220E9417350E94F7371E2E0E94AC
:1058DE00F738E1E0F0E00E940D3B0E2E0E942535D8
:1058EE000E948A390E940D3BE029E12129F01A9885
:1058FE000E94BC370E94C9390E94F7390E2E0E94B1
:10590E00D0390E220E9485370E94193BE02121F0EA
:10591E000E9490370E9466360E94F7390E2E0E9422
:10592E0085370E94073B0E220E94D039E02111F0EC
:10593E000E94AC380E94F738E4E0F0E00E94073B8A
:10594E006E2F0E2E0E9417350E94C5390E220E9410
:10595E0085370E94073B0E944C390E948239E02114
:10596E001E2E062E0E9441380E948239E021E12926
:10597E0031F10E94AC38E0E00E94A7380E94A236B6
:10598E000E9498380E94A1380E949C380E94E638E6
:10599E000E94DC3941F40E94F4310E942D04E13062
:1059AE00D1F30E94E0390E94C634129741F40E944E
:1059BE00F4310E943004E130D1F30E94E039C5C2C7
:1059CE00E930A0E0FA0711F00C947F2D0E94C63446
:1059DE00119761F50E94E7390E945A38E02111F0C3
:1059EE000E94BE390E9485370E94F9390E94193BE8
:1059FE00E02121F00E9490370E9466360E94E7391E
:105A0E000E94023A0E94073BE02121F00E940A32D6
:105A1E000E945E360E9485370E94F9390E94133B20
:105A2E00E02121F00E94D1340E9466360E94C634D5
:105A3E00129791F50E94E7390E946638E02111F025
:105A4E000E94BE390E9485370E94083A0E94193B77
:105A5E00E02121F00E9490370E9466360E94E739BD
:105A6E000E940E3A0E94073BE02121F00E940A326A
:105A7E000E945E360E9485370E94083A0E94133BB0
:105A8E00E02121F00E94D1340E9466360E94C63475
:105A9E00129711F40E94491C0E94693641F11A981E
:105AAE001B980E94BC370E948F39AFE4B5E00E946C
:105ABE00EE39E2E0F0E0E0934905F0934A050E94EA
:105ACE00C634119741F40E94F4310E942D04E13046
