:0C0000000C94ED040C9400000C94000023
:10000C000C9400000C9400000C9400000C94000064
:10001C000C9400000C9400000C9400000C94000054
:10002C000C9400000C9400000C9400000C94000044
:10003C000C9400000C9466050C9400000C940000C9
:10004C000C9400000C9400000C9400000C94000024
:10005C000C9400000C9400000C9400000C94000014
:10006C000C9400000C9400000C9400000C94000004
:10007C000C9400000C9400000C9400000C940000F4
:10008C001027E80364000A000100001000011000B2
:10009C0001000000202020202020202020202020D3
:1000AC002020202020202020202020202020202044
:1000BC002020202020202020202020202020202034
:1000CC0020202020005A616369736B206E696520C3
:1000DC007A6D6965727A6F6E7920752057796B6FBE
:1000EC006E61776379004B6C792077206B69657250
:1000FC00756E6B752070726177656A207374726FA0
:10010C006E79004B6C792077206B696572756E6B1C
:10011C0075206C6577656A207374726F6E79004315
:10012C0069736E69656E6965207A61206D616C65B5
:10013C00202D206D6E69656A737A65206E697A2050
:10014C0036206261720038362D3031373000383647
:10015C002D313034330038362D31363735003836C2
:10016C002D323039380038372D30313730003837B0
:10017C002D313034330038372D31363735003837A0
:10018C002D323039380038362D303139320038368E
:10019C002D313035340038362D313637360038367F
:1001AC002D323133320038372D3031393200383777
:1001BC002D313035340038372D313637360038375D
:1001CC002D323133320038362D3031393300383658
:1001DC002D313231360038362D3138333200383645
:1001EC002D323137340038372D3031393300383730
:1001FC002D313231360038372D3138333200383723
:10020C002D323137340038362D3031393400383610
:10021C002D313334310038362D3138333300383604
:10022C002D323138300038372D30313934003837F1
:10023C002D313334310038372D31383333003837E2
:10024C002D323138300038362D30363633003836D2
:10025C002D313334390038362D31383334003836BB
:10026C002D323230340038372D30363633003837B3
:10027C002D313334390038372D3138333400383799
:10028C002D323230340038362D303736380038368F
:10029C002D313335370038362D3138343800383677
:1002AC002D323231320038372D303736380038376E
:1002BC002D313335370038372D3138343800383755
:1002CC002D323231320038362D303830300038365D
:1002DC002D313336330038362D3139303400383641
:1002EC002D323234310038372D3038303000383739
:1002FC002D313336330038372D313930340038371F
:10030C002D323234310038362D3038313100383618
:10031C002D313532330038362D31393239003836FB
:10032C002D323236310038372D30383131003837F4
:10033C002D313532330038372D31393239003837D9
:10034C002D323236310038362D30383134003836D3
:10035C002D313533300038362D31393336003836BF
:10036C002D323238350038372D30383134003837AB
:10037C002D313533300038372D313933360038379D
:10038C002D323238350038362D303831350038368C
:10039C002D313535310038362D3139343100383680
:1003AC002D323238360038372D3038313500383769
:1003BC002D313535310038372D313934310038375E
:1003CC002D323238360038362D303831360038364A
:1003DC002D313535320038362D3230303700383645
:1003EC002D323239320038372D303831360038372B
:1003FC002D313535320038372D3230303700383723
:10040C002D323239320038362D303831370038360B
:10041C002D313630320038362D3230313700383607
:10042C002D323338340038372D30383137003837E7
:10043C002D313630320038372D32303137003837E5
:10044C002D323338340038362D30383437003836C6
:10045C002D313632300038362D32303139003836C5
:10046C002D323338350038372D30383437003837A3
:10047C002D313632300038372D32303139003837A3
:10048C002D323338350038362D3038353400383687
:10049C002D313632320038362D3230323800383683
:1004AC002D323433370038372D3038353400383767
:1004BC002D313632320038372D3230323800383761
:1004CC002D323433370038362D303836320038364A
:1004DC002D313632350038362D3230353200383643
:1004EC002D323439320038372D3038363200383727
:1004FC002D313632350038372D3230353200383721
:10050C002D323439320038362D3039333500383607
:10051C002D313634380038362D32303832003836FA
:10052C002D323530300038372D30393335003837EF
:10053C002D313634380038372D32303832003837D8
:10054C002D323530300038362D31303139003836D7
:10055C002D313634390038362D32303833003836B8
:10056C002D323538350038372D31303139003837A8
:10057C002D313634390038372D3230383300383796
:10058C002D323632340038362D3130323700383691
:10059C002D313636390038362D3230383700383672
:1005AC002D323632340038372D313032370038376F
:1005BC002D313636390038372D3230383700383750
:1005CC002D32353835004E69652077637A79746140
:1005DC006E6F207A616369736B75005A6174727AFD
:1005EC00796D616E6F202D206E616369736E696A1F
:1005FC002053544152542061627920777A6E6F7780
:10060C006963005A616D6B6E696A206F736C6F6EF3
:10061C007920676F726E652069206E616369736EF5
:10062C00696A205354415254004E616369736E6978
:10063C006A20535441525420616279207779706F4B
:10064C007A79636A6F6E6F776163206E617065642F
:10065C0079005A616D6B6E696A206F736C6F6E797D
:10066C0020676F726E65004F7477617263696520E5
:10067C006F736C6F6E2077207472616B6369652089
:10068C00706F7A79636A6F6E6F77616E696100570C
:10069C00796C61637A206920776C61637A206D6173
:1006AC00737A796E65005A6174727A796D616E69CC
:1006BC00652077207472616B63696520706F7A793D
:1006CC00636A6F6E6F77616E696100506F7A7963E0
:1006DC006A6F6E756A6520756B6C616479206C69E4
:1006EC006E696F77652058595A00537465726F772D
:1006FC006E696B2033202D207779706F7A79636A5D
:10070C006F6E6F77616C656D00537465726F776E89
:10071C00696B2034202D207779706F7A79636A6F3A
:10072C006E6F77616C656D00416C61726D205374F6
:10073C0065726F776E696B203400416C61726D204D
:10074C00537465726F776E696B20330053746572E6
:10075C006F776E696B2031202D207779706F7A79E5
:10076C00636A6F6E6F77616C656D00537465726F41
:10077C00776E696B2032202D207779706F7A7963D0
:10078C006A6F6E6F77616C656D00416C61726D2084
:10079C00537465726F776E696B203100416C6172B6
:1007AC006D20537465726F776E696B2032005779C8
:1007BC00706F7A79636A6F6E6F77616E6F20756B8D
:1007CC006C616479206C696E696F77652058595A31
:1007DC00004B6F6C697A6A6120585920756B6C619B
:1007EC006475206B72617A6B61004B6F6C697A6A0D
:1007FC006120585920756B6C61647520737A637A2B
:10080C006F746B69004B6F6C697A6A61206B7261F3
:10081C007A6B61202D2077796C61637A206920775F
:10082C006C61637A206D61737A796E65004B6F6CC5
:10083C00697A6A6120737A637A2E206472756369AF
:10084C00616E656A202D2077796C61637A2069204E
:10085C00776C61637A206D61737A796E6500577974
:10086C006D69656E20737A637A6F746B6520647240
:10087C00756369616E612031372D73746B65005738
:10088C00796D69656E20737A637A6F746B65206419
:10089C0072756369616E612031352D73746B6500FF
:1008AC0057796D69656E206B72617A656B20736325
:1008BC006965726E7920646F206B6F7270757375D9
:1008CC00206F20737265646E69637920333400572E
:1008DC00796D69656E206B72617A656B20736369E3
:1008EC0065726E7920646F206B6F727075737520F2
:1008FC006F20737265646E696379203336005779A3
:10090C006D69656E206B72617A656B2073636965C6
:10091C00726E7920646F206B6F7270757375206FB7
:10092C0020737265646E6963792033380057796D72
:10093C0069656E206B72617A656B20736369657291
:10094C006E7920646F206B6F7270757375206F20D9
:10095C00737265646E6963792034310057796D69FF
:10096C00656E206B72617A656B2073636965726E5C
:10097C007920646F206B6F7270757375206F2073A4
:10098C007265646E696379203433002D2D2D2D2D05
:10099C002D2D0057637A7974616A207A61636973CB
:1009AC006B2074656E2073616D206C7562206E6FA8
:1009BC007779000001002D4E414E00494E46000053
:1009CC00010002009E000100CB05C0090000F89454
:1009DC00EE27ECBBF1E0F5BFE5BFE0936C00F8E16E
:1009EC00F1BDE1BD8DE0A2E0BB27ED938A95E9F75F
:1009FC0080E090E1A0E0B1E0ED930197E9F7ECEC39
:100A0C00F9E085919591009761F0A591B5910590CC
:100A1C001590BF01F00105900D920197E1F7FB01D4
:100A2C00F0CF8BBFEFEFEDBFE0E1EEBFC0E0D5E064
:100A3C000C9474320E94A83C25C00E94A83CE695F8
:100A4C0021C00E94A83CE695E6951CC00E94A83CDB
:100A5C00E695E695E69516C00E94A83CE29512C074
:100A6C000E94A83CE295EF70E6950CC00E94A83C51
:100A7C00E295EF70E695E69505C00E94A83CEE1F46
:100A8C00E0E0EE1FE170239608950E94B73C0E94AF
:100A9C00BC3CE4E0EA930E94413BE3E80E94C43C86
:100AAC00E1E0EA930E94413B0E94CF3C0E94CF3C84
:100ABC000E94CF3C0E2F1127F8011981088164C0C8
:100ACC006A937A93AA93BA93EA93FA93EFB7EA9359
:100ADC00A5E2B5E00E94D53CA9E2B5E00E94D53C68
:100AEC00ADE2B5E00E94D53CA1E3B5E00E94D53C57
:100AFC00A5E3B5E00E94D53CA9E3B5E00E94D53C46
:100B0C00ADE3B5E00E94D53CA1E4B5E00E94D53C34
:100B1C00A5E4B5E00E94D53CA5ECB5E00E94D53C1F
:100B2C00E991EFBFF991E991B991A9917991699105
:100B3C0018950E94B73C0E94DE3C0E94323B8F010C
:100B4C000D5F1F4F0E94BC3C0A930E94413BE2E8A0
:100B5C000E94C43C0E94DE3C80E00E94833C2296B2
:100B6C0019810881289608950E94BC3CE5E0EA931F
:100B7C000E94E33CEA81EA930E94413B0E94E93CDB
:100B8C00EC81EA930E94413B26960895A091B90509
:100B9C00B091BA05119761F40E94F13C0E94F13CAE
:100BAC000E94F63CE1DFE0E0E093B905E093BA0582
:100BBC00089524970E94F84900E010E0EE85FF8527
:100BCC00FA93EA930E94323B8F010D5F1F4FAC8565
:100BDC00BD85119759F420E030E040E550E0E0E5A8
:100BEC00F0E0E887F987E0E0EE83EF83AC85BD8524
:100BFC00129759F420E030E040E250E0E0E4F0E0FD
:100C0C00E887F987E0E0EE83EF830E94BC3C0A930F
:100C1C000E94E33C2A930E94413B4A930E94413B31
:100C2C00EE85FF85FA93EA9380E00E94833C22963E
:100C3C000E94FB3C0E94033D31F00E94133DE1ED0C
:100C4C00F0E00E94213D0E94FB3C0E942D3D31F0C2
:100C5C000E94133DE2EFF0E00E94213D0E94FB3C1C
:100C6C000E94353D31F00E94133DEFE0F1E00E940F
:100C7C00213D0E943D3D0E942D3D31F00E94453D9D
:100C8C00EFE0F1E00E94533D0E943D3D0E94353D56
:100C9C0031F00E94453DE2EFF0E00E94533D0E948E
:100CAC003D3D0E94033D31F00E94453DE1EDF0E0F9
:100CBC000E94533D0E94FF49609608950E945F3D3B
:100CCC000E94693DEF930E945F3D0E946F3DAF9182
:100CDC00EA2341F00E94F13C0E94753DE0934B05E4
:100CEC00F0934C050E94F13C0E947B3D0E94813D9B
:100CFC000E94863D0E948B3D0E94753D0E94923D54
:100D0C000E94F13CC2DE4F010E94F63C0E949F3DC6
:100D1C000E94A53D0E94AB3D0E94F13C0E94B23D59
:100D2C000E94B83D0E94F63C0E947B3D0E94BD3D56
:100D3C000E94C23D0E94863DA8DE0E94C73D0E94D3
:100D4C00C23D0E94753D0E94CC3D0E94C23D0E9456
:100D5C00D13D0E94D73D0E94C23D0E94C23D95DE0E
:100D6C000E94DC3D0E94C23D0E949F3D0E94E13DDD
:100D7C000E94863D0E94D13DE0939D05F0939E0517
:100D8C000E94863D0E94C23D80DEE0939F05F09359
:100D9C00A0050E94863D0E949F3D0E94E63D0E9458
:100DAC00B23DE093AB05F093AC050E94F13C0E9480
:100DBC009F3D5F0108950E94B73C002E012A21F54A
:100DCC000E94EB3D53DEE03089F401E010E0E0914D
:100DDC00B505F091B605309741F40E94F53DE1E080
:100DEC00F0E0E093B505F093B6050DC000E010E01F
:100DFC00E0E0E093B505E093B6050E94F53DEBE22B
:100E0C00F1E00E94073ED9CF0991199108951A93E8
:100E1C000A930E94173E0EDEE1700E2EE091020541
:100E2C00EE7F0E94213E09DEE170EE0F0E2EE09166
:100E3C000205ED7F0E94213E04DEE170EE0FEE0F05
:100E4C000E2EE0910205EB7F0E94213EFFDDE1704A
:100E5C00EE0FEE0FEE0F0E2EE0910205E77F0E94D3
:100E6C00213EFADDE170E295E07F0E2EE091020565
:100E7C00EF7E0E94213EF4DDE170E295E07FEE0F03
:100E8C000E2EE0910205EF7D0E94213EEFDDE17018
:100E9C00E295E07FEE0FEE0F0E2EE0910205EF7B58
:100EAC000E94213EEADDE170E795E0E0E7950E2E29
:100EBC00E0910205EF77E029E09302050E94253EC0
:100ECC000E947B3D8F01A0910205A13061F40E942C
:100EDC002A3E0E94323EE2E5F1E00E94373E0E943B
:100EEC003C3E0E94423EA0910205A23071F40E9449
:100EFC002A3EE2E0F0E0ED93FC93EAE5F1E00E949B
:100F0C00373E0E94F13C0E94493EA0910205A3305D
:100F1C0071F40E942A3EE3E0F0E0ED93FC93E2E6EC
:100F2C00F1E00E94373E0E94F13C0E94523EA0919B
:100F3C000205A43071F40E942A3EE4E0F0E0ED9347
:100F4C00FC93EAE6F1E00E94373E0E94F13C0E94DD
:100F5C00523EA0910205A53071F40E942A3EE5E0B4
:100F6C00F0E0ED93FC93E2E7F1E00E94373E0E9443
:100F7C00F13C0E94523EA0910205A63071F40E94F1
:100F8C002A3EE6E0F0E0ED93FC93EAE7F1E00E9404
:100F9C00373E0E943C3E0E94553EA0910205A73070
:100FAC0071F40E942A3EE7E0F0E0ED93FC93E2E856
:100FBC00F1E00E94373E0E943C3E0E94423EA091CE
:100FCC000205A83071F40E942A3EE8E0F0E0ED93AF
:100FDC00FC93EAE8F1E00E94373E0E943C3E0E94FE
:100FEC00423EA0910205A93071F40E942A3EE9E02C
:100FFC00F0E0ED93FC93E2E9F1E00E94373E0E94B1
:10100C00F13C0E94523EA0910205AA3071F40E945C
:10101C002A3EEAE0F0E0ED93FC93EAE9F1E00E946D
:10102C00373E0E94F13C0E945C3EA0910205AB3021
:10103C0071F40E942A3EEBE0F0E0ED93FC93E2EABF
:10104C00F1E00E94373E0E94F13C0E945C3EA09170
:10105C000205AC3071F40E942A3EECE0F0E0ED9316
:10106C00FC93EAEAF1E00E94373E0E943C3E0E946B
:10107C00653EA0910205AD3071F40E942A3EEDE070
:10108C00F0E0ED93FC93E2EBF1E00E94373E0E941E
:10109C003C3E0E94423EA0910205AE3071F40E948B
:1010AC002A3EEEE0F0E0ED93FC93EAEBF1E00E94D7
:1010BC00373E0E943C3E0E94653EA0910205AF3037
:1010CC0071F40E942A3EEFE0F0E0ED93FC93E2EC29
:1010DC00F1E00E94373E0E943C3E0E94653EA0918A
:1010EC000205A03171F40E942A3EE0E1F0E0ED939C
:1010FC00FC93EAECF1E00E94373E0E94F13C0E9426
:10110C005C3EA0910205A13171F40E942A3EE1E1FE
:10111C00F0E0ED93FC93E2EDF1E00E94373E0E948B
:10112C00F13C0E94523EA0910205A23171F40E9442
:10113C002A3EE2E1F0E0ED93FC93EAEDF1E00E944F
:10114C00373E0E94F13C0E94493EA0910205A3311A
:10115C0071F40E942A3EE3E1F0E0ED93FC93E2EEA1
:10116C00F1E00E94373E0E94F13C0E945C3EA0914F
:10117C000205A43171F40E942A3EE4E1F0E0ED9303
:10118C00FC93EAEEF1E00E94373E0E94F13C0E9493
:10119C00493EA0910205A53171F40E942A3EE5E179
:1011AC00F0E0ED93FC93E2EFF1E00E94373E0E94F9
:1011BC003C3E0E94423EA0910205A63171F40E9471
:1011CC002A3EE6E1F0E0ED93FC93EAEFF1E00E94B9
:1011DC00373E0E943C3E0E94553EA0910205A7312D
:1011EC0071F40E942A3EE7E1F0E0ED93FC93E2E01B
:1011FC00F2E00E94373E0E943C3E0E94653EA09168
:10120C000205A83171F40E942A3EE8E1F0E0ED936A
:10121C00FC93EAE0F2E00E94373E0E943C3E0E94C2
:10122C00553EA0910205A93171F40E942A3EE9E1D4
:10123C00F0E0ED93FC93E2E1F2E00E94373E0E9475
:10124C00F13C0E945C3EA0910205AA3171F40E940F
:10125C002A3EEAE1F0E0ED93FC93EAE1F2E00E9431
:10126C00373E0E94F13C0E94493EA0910205AB31F1
:10127C0071F40E942A3EEBE1F0E0ED93FC93E2E284
:10128C00F2E00E94373E0E94F13C0E945C3EA0912D
:10129C000205AC3171F40E942A3EECE1F0E0ED93D2
:1012AC00FC93EAE2F2E00E94373E0E943C3E0E9430
:1012BC00653EA0910205AD3171F40E942A3EEDE12C
:1012CC00F0E0ED93FC93E2E3F2E00E94373E0E94E3
:1012DC003C3E0E94653EA0910205AE3171F40E9425
:1012EC002A3EEEE1F0E0ED93FC93EAE3F2E00E949B
:1012FC00373E0E943C3E0E94553EA0910205AF3104
:10130C0071F40E942A3EEFE1F0E0ED93FC93E2E4ED
:10131C00F2E00E94373E0E943C3E0E94653EA09146
:10132C000205A03271F40E942A3EE0E2F0E0ED9357
:10133C00FC93EAE4F2E00E94373E0E94F13C0E94EA
:10134C005C3EA0910205A13271F40E942A3EE1E2BA
:10135C00F0E0ED93FC93E2E5F2E00E94373E0E9450
:10136C003C3E0E946C3EA0910205A23271F40E9498
:10137C002A3EE2E2F0E0ED93FC93EAE5F2E00E9413
:10138C00373E0E94F13C0E94523EA0910205A332CE
:10139C0071F40E942A3EE3E2F0E0ED93FC93E2E666
:1013AC00F2E00E94373E0E94F13C0E94493EA0911F
:1013BC000205A43271F40E942A3EE4E2F0E0ED93BF
:1013CC00FC93EAE6F2E00E94373E0E94F13C0E9458
:1013DC00523EA0910205A53271F40E942A3EE5E22C
:1013EC00F0E0ED93FC93E2E7F2E00E94373E0E94BE
:1013FC00F13C0E94733EA0910205A63271F40E944A
:10140C002A3EE6E2F0E0ED93FC93EAE7F2E00E947C
:10141C00373E0E943C3E0E94423EA0910205A732FC
:10142C0071F40E942A3EE7E2F0E0ED93FC93E2E8CF
:10143C00F2E00E94373E0E943C3E0E94553EA09135
:10144C000205A83271F40E942A3EE8E2F0E0ED9326
:10145C00FC93EAE8F2E00E94373E0E943C3E0E9478
:10146C00423EA0910205A93271F40E942A3EE9E2A3
:10147C00F0E0ED93FC93E2E9F2E00E94373E0E942B
:10148C003C3E0E94423EA0910205AA3271F40E9499
:10149C002A3EEAE2F0E0ED93FC93EAE9F2E00E94E6
:1014AC00373E0E94F13C0E94523EA0910205AB32A5
:1014BC0071F40E942A3EEBE2F0E0ED93FC93E2EA39
:1014CC00F2E00E94373E0E94F13C0E94523EA091F5
:1014DC000205AC3281F40E942A3EECE2F0E00E945C
:1014EC00763E0E94793EEAEAF2E00E94373E0E9484
:1014FC00F13C0E94523EA0910205AD3271F40E9463
:10150C002A3EEDE2F0E0ED93FC93E2EBF2E00E9478
:10151C00373E0E94F13C0E94523EA0910205AE3231
:10152C0071F40E942A3EEEE2F0E0ED93FC93EAEBBC
:10153C00F2E00E94373E0E943C3E0E94423EA09147
:10154C000205AF3271F40E942A3EEFE2F0E0ED9317
:10155C00FC93E2ECF2E00E94373E0E943C3E0E947B
:10156C00423EA0910205A03381F40E942A3EE0E3A2
:10157C00F0E00E94763E0E94793EEAECF2E00E9496
:10158C00373E0E943C3E0E94423EA0910205A13390
:10159C0071F40E942A3EE1E3F0E0ED93FC93E2ED5E
:1015AC00F2E00E94373E0E94F13C0E94523EA09114
:1015BC000205A23371F40E942A3EE2E3F0E0ED93BF
:1015CC00FC93EAEDF2E00E94373E0E94F13C0E944F
:1015DC00493EA0910205A33371F40E942A3EE3E335
:1015EC00F0E0ED93FC93E2EEF2E00E94373E0E94B5
:1015FC00F13C0E94733EA0910205A43371F40E9449
:10160C002A3EE4E3F0E0ED93FC93EAEEF2E00E9474
:10161C00373E0E943C3E0E94553EA0910205A533E8
:10162C0071F40E942A3EE5E3F0E0ED93FC93E2EFC7
:10163C00F2E00E94373E0E943C3E0E94423EA09146
:10164C000205A63371F40E942A3EE6E3F0E0ED9326
:10165C00FC93EAEFF2E00E94373E0E943C3E0E946F
:10166C00553EA0910205A73371F40E942A3EE7E390
:10167C00F0E0ED93FC93E2E0F3E00E94373E0E9431
:10168C003C3E0E946C3EA0910205A83371F40E946E
:10169C002A3EE8E3F0E0ED93FC93EAE0F3E00E94ED
:1016AC00373E0E94F13C0E94493EA0910205A933AD
:1016BC0071F40E942A3EE9E3F0E0ED93FC93E2E141
:1016CC00F3E00E94373E0E94F13C0E94493EA091FB
:1016DC000205AA3371F40E942A3EEAE3F0E0ED938E
:1016EC00FC93EAE1F3E00E94373E0E94F13C0E9439
:1016FC00523EA0910205AB3371F40E942A3EEBE3FB
:10170C00F0E0ED93FC93E2E2F3E00E94373E0E949E
:10171C00F13C0E945C3EA0910205AC3371F40E9436
:10172C002A3EECE3F0E0ED93FC93EAE2F3E00E9456
:10173C00373E0E94F13C0E94493EA0910205AD3318
:10174C0071F40E942A3EEDE3F0E0ED93FC93E2E3AA
:10175C00F3E00E94373E0E943C3E0E94553EA09111
:10176C000205AE3371F40E942A3EEEE3F0E0ED93F5
:10177C00FC93EAE3F3E00E94373E0E943C3E0E9459
:10178C00423EA0910205AF3371F40E942A3EEFE372
:10179C00F0E0ED93FC93E2E4F3E00E94373E0E940C
:1017AC003C3E0E94653EA0910205A03471F40E945B
:1017BC002A3EE0E4F0E0ED93FC93EAE4F3E00E94CF
:1017CC00373E0E943C3E0E94553EA0910205A1343A
:1017DC0071F40E942A3EE1E4F0E0ED93FC93E2E523
:1017EC00F3E00E94373E0E94F13C0E947E3EA091A5
:1017FC000205A23471F40E942A3EE2E4F0E0ED937B
:10180C00FC93EAE5F3E00E94373E0E943C3E0E94C6
:10181C00423EA0910205A33471F40E942A3EE3E4F7
:10182C00F0E0ED93FC93E2E6F3E00E94373E0E9479
:10183C003C3E0E94423EA0910205A43471F40E94E9
:10184C002A3EE4E4F0E0ED93FC93EAE6F3E00E9438
:10185C00373E0E943C3E0E94653EA0910205A53495
:10186C0071F40E942A3EE5E4F0E0ED93FC93E2E78C
:10187C00F3E00E94373E0E943C3E0E94873EA091BE
:10188C000205A63471F40E942A3EE6E4F0E0ED93E2
:10189C00FC93EAE7F3E00E94373E0E94F13C0E9481
:1018AC00523EA0910205A73471F40E942A3EE7E44F
:1018BC00F0E0ED93FC93E2E8F3E00E94373E0E94E7
:1018CC00F13C0E94523EA0910205A83471F40E9492
:1018DC002A3EE8E4F0E0ED93FC93EAE8F3E00E94A2
:1018EC00373E0E94F13C0E945C3EA0910205A93457
:1018FC0071F40E942A3EE9E4F0E0ED93FC93E2E9F6
:10190C00F3E00E94373E0E94F13C0E94523EA091AF
:10191C000205AA3471F40E942A3EEAE4F0E0ED9349
:10192C00FC93EAE9F3E00E94373E0E94F13C0E94EE
:10193C00523EA0910205AB3471F40E942A3EEBE4B6
:10194C00F0E0ED93FC93E2EAF3E00E94373E0E9454
:10195C00F13C0E94523EA0910205AC3481F40E94ED
:10196C002A3EECE4F0E00E94763E0E94793EEAEAE0
:10197C00F3E00E94373E0E94F13C0E945C3EA09135
:10198C000205AD3471F40E942A3EEDE4F0E0ED93D3
:10199C00FC93E2EBF3E00E94373E0E943C3E0E9437
:1019AC00423EA0910205AE3471F40E942A3EEEE450
:1019BC00F0E0ED93FC93EAEBF3E00E94373E0E94DB
:1019CC003C3E0E94423EA0910205AF3471F40E944D
:1019DC002A3EEFE4F0E0ED93FC93E2ECF3E00E949E
:1019EC00373E0E943C3E0E94423EA0910205A0352B
:1019FC0081F40E942A3EE0E5F0E00E94763E0E94CF
:101A0C00793EEAECF3E00E94373E0E94F13C0E94E2
:101A1C005C3EA0910205A13571F40E942A3EE1E5DD
:101A2C00F0E0ED93FC93E2EDF3E00E94373E0E9470
:101A3C00F13C0E947E3EA0910205A23571F40E94F9
:101A4C002A3EE2E5F0E0ED93FC93EAEDF3E00E9430
:101A5C00373E0E94F13C0E94493EA0910205A335FD
:101A6C0071F40E942A3EE3E5F0E0ED93FC93E2EE84
:101A7C00F3E00E94373E0E943C3E0E94653EA091DE
:101A8C000205A43571F40E942A3EE4E5F0E0ED93E2
:101A9C00FC93EAEEF3E00E94373E0E943C3E0E942B
:101AAC00423EA0910205A53571F40E942A3EE5E55F
:101ABC00F0E0ED93FC93E2EFF3E00E94373E0E94DE
:101ACC003C3E0E94873EA0910205A63571F40E940F
:101ADC002A3EE6E5F0E0ED93FC93EAEFF3E00E949A
:101AEC00373E0E943C3E0E94553EA0910205A73510
:101AFC0071F40E942A3EE7E5F0E0ED93FC93E2E0FE
:101B0C00F4E00E94373E0E94F13C0E945C3EA091A2
:101B1C000205A83571F40E942A3EE8E5F0E0ED9349
:101B2C00FC93EAE0F4E00E94373E0E94F13C0E94F4
:101B3C00523EA0910205A93571F40E942A3EE9E5B6
:101B4C00F0E0ED93FC93E2E1F4E00E94373E0E945A
:101B5C00F13C0E94523EA0910205AA3571F40E94FC
:101B6C002A3EEAE5F0E0ED93FC93EAE1F4E00E9412
:101B7C00373E0E943C3E0E94423EA0910205AB358E
:101B8C0071F40E942A3EEBE5F0E0ED93FC93E2E267
:101B9C00F4E00E94373E0E943C3E0E94653EA091BC
:101BAC000205AC3581F40E942A3EECE5F0E00E947F
:101BBC00763E0E94793EEAE2F4E00E94373E0E94B3
:101BCC00F13C0E94523EA0910205AD3571F40E9489
:101BDC002A3EEDE5F0E0ED93FC93E2E3F4E00E94A5
:101BEC00373E0E943C3E0E94423EA0910205AE351B
:101BFC0071F40E942A3EEEE5F0E0ED93FC93EAE3EB
:101C0C00F4E00E94373E0E94F13C0E94523EA091AB
:101C1C000205AF3571F40E942A3EEFE5F0E0ED933A
:101C2C00FC93E2E4F4E00E94373E0E94F13C0E94F7
:101C3C005C3EA0910205A03681F40E942A3EE0E6AB
:101C4C00F0E00E94763E0E94793EEAE4F4E00E94C5
:101C5C00373E0E94F13C0E94523EA0910205A136F3
:101C6C0071F40E942A3EE1E6F0E0ED93FC93E2E58C
:101C7C00F4E00E94373E0E94F13C0E945C3EA09131
:101C8C000205A23671F40E942A3EE2E6F0E0ED93E2
:101C9C00FC93EAE5F4E00E94373E0E94F13C0E947E
:101CAC00523EA0910205A33671F40E942A3EE3E64F
:101CBC00F0E0ED93FC93E2E6F4E00E94373E0E94E4
:101CCC003C3E0E94653EA0910205A43671F40E9430
:101CDC002A3EE4E6F0E0ED93FC93EAE6F4E00E94A1
:101CEC00373E0E94F13C0E94523EA0910205A5365F
:101CFC0071F40E942A3EE5E6F0E0ED93FC93E2E7F6
:101D0C00F4E00E94373E0E943C3E0E94653EA0914A
:101D1C000205A63671F40E942A3EE6E6F0E0ED9349
:101D2C00FC93EAE7F4E00E94373E0E943C3E0E949E
:101D3C00423EA0910205A73671F40E942A3EE7E6C6
:101D4C00F0E0ED93FC93E2E8F4E00E94373E0E9451
:101D5C00F13C0E945C3EA0910205A83671F40E94F1
:101D6C002A3EE8E6F0E0ED93FC93EAE8F4E00E940A
:101D7C00373E0E943C3E0E94423EA0910205A9368D
:101D8C0071F40E942A3EE9E6F0E0ED93FC93E2E95F
:101D9C00F4E00E94373E0E94F13C0E94493EA09123
:101DAC000205AA3671F40E942A3EEAE6F0E0ED93B1
:101DBC00FC93EAE9F4E00E94373E0E943C3E0E940C
:101DCC00553EA0910205AB3681F40E942A3EEBE60B
:101DDC00F0E00E94763E0E94793EE2EAF4E00E9436
:101DEC00373E0E94F13C0E94733EA0910205AC3636
:101DFC0071F40E942A3EECE6F0E0ED93FC93EAEAE3
:101E0C00F4E00E94373E0E94F13C0E94523EA091A9
:101E1C000205AD3671F40E942A3EEDE6F0E0ED933A
:101E2C00FC93E2EBF4E00E94373E0E943C3E0E94A1
:101E3C00553EA0910205AE3671F40E942A3EEEE6A4
:101E4C00F0E0ED93FC93EAEBF4E00E94373E0E9445
:101E5C00F13C0E94493EA0910205AF3681F40E94EC
:101E6C002A3EEFE6F0E00E94763E0E94793EE2ECDC
:101E7C00F4E00E94373E0E94F13C0E94733EA09118
:101E8C000205A03771F40E942A3EE0E7F0E0ED93E2
:101E9C00FC93EAECF4E00E94373E0E943C3E0E9428
:101EAC00423EA0910205A13771F40E942A3EE1E75F
:101EBC00F0E0ED93FC93E2EDF4E00E94373E0E94DB
:101ECC00F13C0E94523EA0910205A23771F40E948F
:101EDC002A3EE2E7F0E0ED93FC93EAEDF4E00E9499
:101EEC00373E0E94F13C0E94523EA0910205A3375E
:101EFC0071F40E942A3EE3E7F0E0ED93FC93E2EEEE
:101F0C00F4E00E94373E0E94F13C0E94733EA09187
:101F1C000205A43771F40E942A3EE4E7F0E0ED9349
:101F2C00FC93EAEEF4E00E94373E0E943C3E0E9495
:101F3C00423EA0910205A53771F40E942A3EE5E7C6
:101F4C00F0E0ED93FC93E2EFF4E00E94373E0E9448
:101F5C003C3E0E94423EA0910205A63771F40E94BD
:101F6C002A3EE6E7F0E0ED93FC93EAEFF4E00E9402
:101F7C00373E0E943C3E0E94423EA0910205A7378C
:101F8C0071F40E942A3EE7E7F0E0ED93FC93E2E067
:101F9C00F5E00E94373E0E943C3E0E946C3EA091B0
:101FAC000205A83771F40E942A3EE8E7F0E0ED93B1
:101FBC00FC93EAE0F5E00E94373E0E94F13C0E945F
:101FCC00523EA0910205A93771F40E942A3EE9E71E
:101FDC00F0E0ED93FC93E2E1F5E00E94373E0E94C5
:101FEC00F13C0E94523EA0910205AA3771F40E9466
:101FFC002A3EEAE7F0E0ED93FC93EAE1F5E00E947B
:10200C00373E0E94F13C0E94523EA0910205AB3734
:10201C0071F40E942A3EEBE7F0E0ED93FC93E2E2D0
:10202C00F5E00E94373E0E94F13C0E947E3EA0915A
:10203C000205AC3771F40E942A3EECE7F0E0ED9318
:10204C00FC93EAE2F5E00E94373E0E94F13C0E94CC
:10205C00523EA0910205AD3771F40E942A3EEDE785
:10206C00F0E0ED93FC93E2E3F5E00E94373E0E9432
:10207C003C3E0E94423EA0910205AE3771F40E9494
:10208C002A3EEEE7F0E0ED93FC93EAE3F5E00E94E4
:10209C00373E0E943C3E0E94423EA0910205AF3763
:1020AC0071F40E942A3EEFE7F0E0ED93FC93E2E43A
:1020BC00F5E00E94373E0E943C3E0E94873EA09174
:1020CC000205A03871F40E942A3EE0E8F0E0ED939E
:1020DC00FC93EAE4F5E00E94373E0E943C3E0E94ED
:1020EC00423EA0910205A13871F40E942A3EE1E81B
:1020FC00F0E0ED93FC93E2E5F5E00E94373E0E94A0
:10210C00F13C0E945C3EA0910205A23871F40E9441
:10211C002A3EE2E8F0E0ED93FC93EAE5F5E00E945C
:10212C00373E0E94F13C0E94523EA0910205A3381A
:10213C0071F40E942A3EE3E8F0E0ED93FC93E2E6B2
:10214C00F5E00E94373E0E943C3E0E946C3EA091FE
:10215C000205A43871F40E942A3EE4E8F0E0ED9305
:10216C00FC93EAE6F5E00E94373E0E94F13C0E94A7
:10217C00733EA0910205A53871F40E942A3EE5E851
:10218C00F0E0ED93FC93E2E7F5E00E94373E0E940D
:10219C003C3E0E94653EA0910205A63871F40E9457
:1021AC002A3EE6E8F0E0ED93FC93EAE7F5E00E94C6
:1021BC00373E0E943C3E0E94423EA0910205A73849
:1021CC0071F40E942A3EE7E8F0E0ED93FC93E2E81C
:1021DC00F5E00E94373E0E94F13C0E94733EA091B4
:1021EC000205A83871F40E942A3EE8E8F0E0ED936D
:1021FC00FC93EAE8F5E00E94373E0E943C3E0E94C8
:10220C00553EA0910205A93871F40E942A3EE9E8D6
:10221C00F0E0ED93FC93E2E9F5E00E94373E0E947A
:10222C00F13C0E94493EA0910205AA3871F40E942B
:10223C002A3EEAE8F0E0ED93FC93EAE9F5E00E942F
:10224C00373E0E943C3E0E94423EA0910205AB38B4
:10225C0071F40E942A3EEBE8F0E0ED93FC93E2EA85
:10226C00F5E00E94373E0E943C3E0E94423EA09107
:10227C000205AC3871F40E942A3EECE8F0E0ED93D4
:10228C00FC93EAEAF5E00E94373E0E94F13C0E9482
:10229C00493EA0910205AD3871F40E942A3EEDE84A
:1022AC00F0E0ED93FC93E2EBF5E00E94373E0E94E8
:1022BC003C3E0E94553EA0910205AE3871F40E943E
:1022CC002A3EEEE8F0E0ED93FC93EAEBF5E00E9499
:1022DC00373E0E94F13C0E94523EA0910205AF385D
:1022EC0071F40E942A3EEFE8F0E0ED93FC93E2ECEF
:1022FC00F5E00E94373E0E94F13C0E94523EA091B4
:10230C000205A03971F40E942A3EE0E9F0E0ED9359
:10231C00FC93EAECF5E00E94373E0E943C3E0E94A2
:10232C006C3EF801099119910895E881F981AFE1AA
:10233C00B5E00E948E3E0E94D549309741F40E9430
:10234C00F53DE2EDF5E00E94073E0C94031AE130F6
:10235C00A0E0FA0751F4E8ECF0E00E94933E0E94F2
:10236C009A3E0E94A13E0C94EA19E230A0E0FA07D2
:10237C0071F4E0E1F1E00E94933E0E94B03E0E94B5
:10238C00B53E0E94B03E0E94C43E0C94F019E3305E
:10239C00A0E0FA0761F4EAE7F0E00E94933E0E94A5
:1023AC009A3E0E94C93E0E94D23E0C94F019E43031
:1023BC00A0E0FA0761F4E2E0F1E00E94933E0E9493
:1023CC009A3E0E94DB3E0E94D23E0C94F019E530FE
:1023DC00A0E0FA0759F4E0EBF0E00E94933E0E9473
:1023EC009A3E0E94A13E0E94E43EF4C7E630A0E073
:1023FC00FA0759F4EEEFF0E00E94933E0E94B03ED3
:10240C000E94B53EA0E1B0E0DFC7E730A0E0FA07DC
:10241C0049F4E8E7F0E00E94933E0E949A3E0E9445
:10242C00C93ECCC7E830A0E0FA0749F4E0ECF0E094
:10243C000E94933E0E949A3E0E94DB3EBFC7E93049
:10244C00A0E0FA0769F4E8E1F0E00E94933E0E94F4
:10245C009A3E0E94DB3E0E94E73E0E94E43EBAC7D1
:10246C00EA30A0E0FA0759F4E6E1F0E00E94933E6E
:10247C000E949A3E0E94EE3E0E94D23EABC7EB30C9
:10248C00A0E0FA0759F4E4E7F0E00E94933E0E94C2
:10249C009A3E0E94F73E0E94D23E9CC7EC30A0E0D0
:1024AC00FA0749F4E6E9F0E00E94933E0E949A3E56
:1024BC000E94003F83C7ED30A0E0FA0759F4EAE12F
:1024CC00F0E00E94933E0E949A3E0E94DB3E0E94E6
:1024DC00E73E7AC7EE30A0E0FA0749F4EEE5F0E00B
:1024EC000E94933E0E949A3E0E94EE3E67C7EF30D8
:1024FC00A0E0FA0749F4E4E8F0E00E94933E0E9461
:10250C009A3E0E94F73E5AC7E031A0E0FA0749F420
:10251C00E8EBF0E00E94933E0E949A3E0E94093F35
:10252C0059C7E131A0E0FA0759F4E0E2F0E00E946B
:10253C00933E0E949A3E0E94A13E0E94E43E4AC7EE
:10254C00E231A0E0FA0769F4E8E9F0E00E94933E7A
:10255C000E94B03E0E94123F0E94B03E0E94C43EB8
:10256C0039C7E331A0E0FA0759F4EAEAF0E00E9437
:10257C00933E0E949A3E0E94213F0E94283F2AC708
:10258C00E431A0E0FA0769F4E2E4F0E00E94933E43
:10259C000E949A3E0E94213F0E942B3F0E94E43EE3
:1025AC0019C7E531A0E0FA0749F4EEE4F0E00E9427
:1025BC00933E0E949A3E0E94A13E06C7E631A0E0DF
:1025CC00FA0759F4E2ECF0E00E94933E0E94B03E10
:1025DC000E94123FA0E1B0E0F7C6E731A0E0FA0795
:1025EC0059F4EEECF0E00E94933E0E949A3E0E9459
:1025FC00213FA9E9B1E0E2C6E831A0E0FA0759F4BD
:10260C00E0E4F0E00E94933E0E949A3E0E94213F3B
:10261C000E942B3FD9C6E931A0E0FA0759F4EEE24B
:10262C00F0E00E94933E0E949A3E0E94EE3E0E9471
:10263C00D23ED0C6EA31A0E0FA0759F4EAEFF0E056
:10264C000E94933E0E949A3E0E94343F0E94E43EB8
:10265C00C1C6EB31A0E0FA0749F4ECE6F0E00E94C9
:10266C00933E0E949A3E0E94093FB4C6EC31A0E012
:10267C00FA0749F4E4EAF0E00E94933E0E949A3E85
:10268C000E94003F9BC6ED31A0E0FA0749F4EAE254
:10269C00F0E00E94933E0E949A3E0E94EE3E8EC64F
:1026AC00EE31A0E0FA0749F4E4E9F0E00E94933E31
:1026BC000E949A3E0E94343F87C6EF31A0E0FA0791
:1026CC0059F4EEE6F0E00E94933E0E949A3E0E947E
:1026DC003D3FA9E9B1E072C6E032A0E0FA0759F437
:1026EC00E6E8F0E00E94933E0E949A3E0E94003F72
:1026FC000E94D23E6FC6E132A0E0FA0749F4EEE840
:10270C00F0E00E94933E0E949A3EA0E2B0E050C6D8
:10271C00E232A0E0FA0759F4EAE5F0E00E94933EB9
:10272C000E94B03E0E94443F0E94D23E53C6E33208
:10273C00A0E0FA0759F4EAEDF0E00E94933E0E9403
:10274C009A3E0E944F3F0E94E43E44C6E432A0E011
:10275C00FA0759F4E2EAF0E00E94933E0E94563FD9
:10276C000E94B03E0E94C43E35C6E532A0E0FA0796
:10277C0059F4E4E0F1E00E94933E0E949A3E0E94DC
:10278C00693F0E94703F26C6E632A0E0FA0749F482
:10279C00E6E3F0E00E94933E0E94B03E0E94443F6C
:1027AC000DC6E732A0E0FA0749F4E8E1F1E00E9437
:1027BC00933E0E949A3E0E944F3F06C6E832A0E02C
:1027CC00FA0749F4E6EAF0E00E94933E0E94563F75
:1027DC00A0E1B0E0F9C5E932A0E0FA0759F4EEE166
:1027EC00F0E00E94933E0E949A3E0E94DB3E0E94C3
:1027FC00E73EEAC5EA32A0E0FA0759F4ECE5F0E06E
:10280C000E94933E0E94B03E0E94733F0E94E43EA1
:10281C00E1C5EB32A0E0FA0759F4E2E6F0E00E94E1
:10282C00933E0E949A3E0E943D3F0E947E3FD2C53D
:10283C00EC32A0E0FA0719F40E94813FCBC5ED32CF
:10284C00A0E0FA0769F4E0E1F0E00E94933E0E94F8
:10285C009A3E0E94DB3E0E94E73E0E94E43EBAC5CF
:10286C00EE32A0E0FA0749F4E0E5F0E00E94933E76
:10287C000E94B03E0E94733FA7C5EF32A0E0FA075A
:10288C0059F4E8E6F0E00E94933E0E949A3E0E94C2
:10289C003D3FA6E9B1E092C5E033A0E0FA0719F498
:1028AC000E94813F97C5E133A0E0FA0759F4E4E2B6
:1028BC00F0E00E94933E0E949A3E0E94DB3E0E94F2
:1028CC00D23E88C5E233A0E0FA0759F4E4E1F0E027
:1028DC000E94933E0E949A3E0E944F3F0E94E43E0B
:1028EC0079C5E333A0E0FA0759F4E2E8F0E00E947E
:1028FC00933E0E949A3E0E94973F0E94703F6AC589
:10290C00E433A0E0FA0749F4E6E0F1E00E94933EDC
:10291C000E949A3E0E949E3F57C5E533A0E0FA07FD
:10292C0049F4ECE4F0E00E94933E0E949A3E0E942F
:10293C00DB3E44C5E633A0E0FA0749F4ECE1F0E0F5
:10294C000E94933E0E949A3E0E944F3F3DC5E73342
:10295C00A0E0FA0749F4E4E1F1E00E94933E0E9402
:10296C009A3EAAE1B0E024C5E833A0E0FA0759F496
:10297C00EEEEF0E00E94933E0E949A3E0E949E3F33
:10298C000E94E43E27C5E933A0E0FA0759F4E8EFCA
:10299C00F0E00E94933E0E949A3E0E94AD3F0E943E
:1029AC00E43E18C5EA33A0E0FA0759F4E4EEF0E08F
:1029BC000E94933E0E949A3E0E943D3F0E947E3FA1
:1029CC0009C5EB33A0E0FA0759F4E2E5F0E00E9408
:1029DC00933E0E949A3E0E94B63F0E94283FFAC442
:1029EC00EC33A0E0FA0779F4E0E9F0E00E94933EC2
:1029FC000E949A3E0E94BD3FA0E9B1E00E94E73ED2
:102A0C000E94E43EE7C4ED33A0E0FA0749F4ECEF92
:102A1C00F0E00E94933E0E949A3E0E94343FD4C440
:102A2C00EE33A0E0FA0759F4E8E2F0E00E94933E9E
:102A3C000E949A3E0E943D3FA6E9B1E0BFC4EF332D
:102A4C00A0E0FA0759F4E4E3F0E00E94933E0E9400
:102A5C009A3E0E94B63FA9E9B1E0B0C4E034A0E0D0
:102A6C00FA0749F4ECEEF0E00E94933E0E949A3E85
:102A7C000E94AD3FA9C4E134A0E0FA0759F4ECEC94
:102A8C00F0E00E94933E0E949A3E0E94C43F0E9436
:102A9C00D23EA0C4E234A0E0FA0759F4ECEBF0E02B
:102AAC000E94933E0E949A3E0E94B63F0E94CD3FE8
:102ABC008BC4E334A0E0FA0759F4ECE9F0E00E948F
:102ACC00933E0E949A3E0E94B63FA6E9B1E076C4BE
:102ADC00E434A0E0FA0749F4ECE7F0E00E94933EFE
:102AEC000E949A3E0E94003F69C4E534A0E0FA07B8
:102AFC0049F4E2EDF0E00E94933E0E949A3E0E945F
:102B0C00C43F5CC4E634A0E0FA0769F4E6EEF0E0FA
:102B1C000E94933E0E949A3E0E94B63F0E94CD3F77
:102B2C000E94E43E57C4E734A0E0FA0759F4E4EB02
:102B3C00F0E00E94933E0E949A3E0E94B63F0E9493
:102B4C007E3F48C4E834A0E0FA0759F4ECEAF0E020
:102B5C000E94933E0E949A3E0E94003F0E94D23EE9
:102B6C0039C4E934A0E0FA0769F4E2E1F0E00E942C
:102B7C00933E0E94B03EE9E8F5E00E94973F0E9428
:102B8C007E3F28C4EA34A0E0FA0759F4E2EBF0E007
:102B9C000E94933E0E949A3E0E94DB3E0E94D23ECF
:102BAC0019C4EB34A0E0FA0759F4ECE0F1E00E9410
:102BBC00933E0E949A3E0E94693F0E947E3F0AC447
:102BCC00EC34A0E0FA0719F40E94813F03C4ED3401
:102BDC00A0E0FA0769F4E6E2F0E00E94933E0E945E
:102BEC00B03EE9E8F5E00E94973FA6E9B1E0E6C304
:102BFC00EE34A0E0FA0759F4ECE1F1E00E94933EC8
:102C0C000E949A3E0E94D03FA6E9B1E0D7C3EF34B0
:102C1C00A0E0FA0759F4E2E1F1E00E94933E0E9431
:102C2C009A3E0E94693FA6E9B1E0C8C3E035A0E036
:102C3C00FA0719F40E94813FCDC3E135A0E0FA07F1
:102C4C0059F4EAEEF0E00E94933E0E949A3E0E94F4
:102C5C00D73F0E94D23EBEC3E235A0E0FA0759F43A
:102C6C00E8EDF0E00E94933E0E949A3E0E94E03F05
:102C7C000E94D23EAFC3E335A0E0FA0769F4ECE85A
:102C8C00F0E00E94933E0E949A3EA2E2B0E00E94C5
:102C9C00E93FA9E9B1E092C3E435A0E0FA0759F4A1
:102CAC00E0EAF0E00E94933E0E94EE3F0E94F73F64
:102CBC00A0E1B0E089C3E535A0E0FA0749F4EEEAFB
:102CCC00F0E00E94933E0E949A3E0E94D73F76C34A
:102CDC00E635A0E0FA0749F4E6EFF0E00E94933EF7
:102CEC000E949A3E0E94E03F69C3E735A0E0FA07D4
:102CFC0059F4E4ECF0E00E94933E0E949A3E0E944C
:102D0C00FE3F0E94283F66C3E835A0E0FA0769F44D
:102D1C00EEE7F0E00E94933E0E94EE3F0E94F73FE8
:102D2C000E94B03E0E94C43E55C3E935A0E0FA07AC
:102D3C0059F4ECE2F0E00E94933E0E949A3E0E940D
:102D4C00BD3F0E947E3F46C3EA35A0E0FA0749F436
:102D5C00E0EFF0E00E94933E0E949A3E0E94A13E5A
:102D6C0033C3EB35A0E0FA0759F4E8EAF0E00E942F
:102D7C00933E0E949A3E0E943D3FA9E9B1E01EC3DA
:102D8C00EC35A0E0FA0719F40E94813F23C3ED351E
:102D9C00A0E0FA0759F4E0E3F0E00E94933E0E94B1
:102DAC009A3E0E94BD3FA6E9B1E008C3EE35A0E013
:102DBC00FA0759F4E4EFF0E00E94933E0E949A3E29
:102DCC000E94A13E0E94E43E05C3EF35A0E0FA0745
:102DDC0049F4EEE9F0E00E94933E0E949A3E0E9474
:102DEC00093FF8C2E036A0E0FA0719F40E94813FCF
:102DFC00F1C2E136A0E0FA0759F4EAE6F0E00E94ED
:102E0C00933E0E949A3E0E94003F0E94D23EE2C234
:102E1C00E236A0E0FA0769F4EEEBF0E00E94933E94
:102E2C000E949A3E0E94C93E0E9401400E94E43ECC
:102E3C00D1C2E336A0E0FA0759F4EAEBF0E00E94C5
:102E4C00933E0E949A3E0E94D03FA9E9B1E0B6C2DF
:102E5C00E436A0E0FA0759F4E0E6F0E00E94933E75
:102E6C000E949A3E0E94DB3E0E94D23EB3C2E536DF
:102E7C00A0E0FA0749F4E0E7F0E00E94933E0E94DC
:102E8C009A3E0E94003F9AC2E636A0E0FA0759F437
:102E9C00EAE8F0E00E94933E0E949A3E0E94C93EEE
:102EAC000E94014091C2E736A0E0FA0759F4E0E82D
:102EBC00F0E00E94933E0E949A3E0E94D03F0E94F6
:102ECC00283F88C2E836A0E0FA0749F4E6EBF0E0C8
:102EDC000E94933E0E949A3E0E94DB3E6FC2E936EE
:102EEC00A0E0FA0769F4E4E4F0E00E94933E0E944B
:102EFC009A3E0E9408400E942B3F0E94E43E6AC208
:102F0C00EA36A0E0FA0749F4EAE3F0E00E94933EC7
:102F1C000E949A3E0E944F3F57C2EB36A0E0FA0740
:102F2C0019F40E94813F56C2EC36A0E0FA0769F40E
:102F3C00E6ECF0E00E94933E0E949A3E0E94B63F5F
:102F4C000E94CD3F0E94E43E45C2ED36A0E0FA0758
:102F5C0059F4EAE0F0E00E94933E0E94B03E0E94D9
:102F6C00B53EA0E1B0E030C2EE36A0E0FA0759F46D
:102F7C00E2E3F0E00E94933E0E949A3E0E944F3F93
:102F8C000E94E43E27C2EF36A0E0FA0719F40E9433
:102F9C00813F20C2E037A0E0FA0759F4E2EEF0E0FE
:102FAC000E94933E0E949A3E0E94B63F0E94CD3FE3
:102FBC000BC2E137A0E0FA0769F4E4EDF0E00E94FF
:102FCC00933E0E949A3E0E940B400E94CD3F0E946D
:102FDC00E43E00C2E237A0E0FA0779F4EAE4F0E05C
:102FEC000E94933E0E94B03E0E940E400E94F73F0A
:102FFC00AFE0B0E00E94E43EEDC1E337A0E0FA0799
:10300C0069F4E6E7F0E00E94933E0E941140ACE9BF
:10301C00B1E00E94E73E0E94E43EDCC1E437A0E050
:10302C00FA0759F4E2E9F0E00E94933E0E949A3EBE
:10303C000E94693FA6E9B1E0C1C1E537A0E0FA07FB
:10304C0059F4EAE1F1E00E94933E0E949A3E0E94FC
:10305C000B400E94CD3FB8C1E637A0E0FA0759F407
:10306C00E6E5F0E00E94933E0E94B03E0E940E40C6
:10307C000E94CD3FA9C1E737A0E0FA0759F4E2E777
:10308C00F0E00E94933E0E941140ACE9B1E00E9436
:10309C00E73E9AC1E837A0E0FA0759F4E0EDF0E01A
:1030AC000E94933E0E949A3E0E94693F0E947E3F7E
:1030BC0091C1E937A0E0FA0769F4E8E4F0E00E9476
:1030CC00933E0E94B03E0E940E400E94CD3F0E9453
:1030DC00E43E80C1EA37A0E0FA0759F4EAE9F0E0EF
:1030EC000E94933E0E949A3E0E94D03F0E947E3FD7
:1030FC0071C1EB37A0E0FA0769F4E6E4F0E00E9456
:10310C00933E0E94B03E0E9418400E941D400E94B7
:10311C00E43E60C1EC37A0E0FA0789F4E0EEF0E0A1
:10312C000E94933E0E942640A5E1B0E00E94E93F38
:10313C000E94F73FA3E1B0E00E94E43E4BC1ED37A3
:10314C00A0E0FA0759F4E8E3F0E00E94933E0E94F5
:10315C009A3E0E94D03F0E94CD3F36C1EE37A0E090
:10316C00FA0759F4EAECF0E00E94933E0E949A3E72
:10317C000E94D03FA6E9B1E021C1EF37A0E0FA07E9
:10318C0059F4EEEDF0E00E94933E0E94B03E0E9496
:10319C0018400E941D4018C1E038A0E0FA0769F4FD
:1031AC00E6E1F1E00E94933E0E94B03EE9E8F5E0D2
:1031BC000E94C93E0E942D4007C1E138A0E0FA07E9
:1031CC0079F4E8EEF0E00E94933E0E9426400E94C3
:1031DC003440A9E9B1E00E942D400E94E43EFAC0BF
:1031EC00E238A0E0FA0769F4E2EFF0E00E94933EC7
:1031FC000E9437400E94F73F0E94B03E0E94C43E9E
:10320C00E9C0E338A0E0FA0749F4E8E0F1E00E94F5
:10321C00933E0E949A3EAFE1B0E0CAC0E438A0E011
:10322C00FA0759F4E4E6F0E00E94933E0E949A3EBD
:10323C000E94B63F0E94703FCDC0E538A0E0FA076F
:10324C0069F4E8E8F0E00E94933E0E9426400E9458
:10325C003440A9E9B1E00E942D40B6C0E638A0E0A8
:10326C00FA0759F4EEE0F1E00E94933E0E943740D9
:10327C000E94F73FA0E1B0E0A7C0E738A0E0FA0752
:10328C0059F4E4E5F0E00E94933E0E949A3E0E94BD
:10329C0008400E94703F9EC0E838A0E0FA0779F41D
:1032AC00EEE3F0E00E94933E0E94B03EE9E8F5E0C8
:1032BC000E9434400E943E40A0E1B0E085C0E93855
:1032CC00A0E0FA0759F4ECE0F0E00E94933E0E9473
:1032DC009A3E0E944F3F0E94E43E7CC0EA38A0E038
:1032EC00FA0759F4ECEDF0E00E94933E0E94B03ED8
:1032FC00E9E8F5E00E94A13E67C0EB38A0E0FA07D0
:10330C0059F4E8E5F0E00E94933E0E949A3E0E9438
:10331C000B40A6E9B1E052C0EC38A0E0FA0779F412
:10332C00ECE3F0E00E94933E0E94B03E0E941840F5
:10333C000E943E400E94B03E0E94C43E4BC0ED38FD
:10334C00A0E0FA0749F4EEE0F0E00E94933E0E9400
:10335C009A3E0E944F3F38C0EE38A0E0FA0769F45D
:10336C00EAE0F1E00E94933E0E94B03EE9E8F5E00D
:10337C000E94A13E0E94E43E2DC0EF38A0E0FA0767
:10338C0059F4E2E2F0E00E94933E0E949A3E0E94C1
:10339C000B400E947E3F1EC0E039A0E0FA0769F5A1
:1033AC00E6E6F0E00E94933E0E949A3EACE1B0E06B
:1033BC00A083B183EBE8F5E0ACE9B1E0A083B18385
:1033CC00EFE8F5E0A2E1B0E0A083B183E3E9F5E03A
:1033DC00A1E0B0E0A083B1830E9445403196E09318
:1033EC008305F09384050E944A40E0938505F09391
:1033FC0086050E944F400E9454400E94634021F475
:10340C000E9468400E946D400E94724029F00E9408
:10341C00684035970E946D400E94684036970E9424
:10342C006D400E947E403697E0938505F0938605AB
:10343C00D4010E9483400E9489400E948E40E02962
:10344C0039F00E9493403597E0938F05F0939005E7
:10345C000E949840989739F40E944A407396E093E2
:10346C008905F0938A050E949D400E948E400E941F
:10347C00A2400E94AA400E94A24039F00E944F40F4
:10348C0070960E94B0400E9454400E94B5400E9429
:10349C00A24039F00E944F40B0960E94B0400E946A
:1034AC0054400E94BB400E94A24039F00E944F4001
:1034BC00F0960E94B0400E9454400E949D400E9491
:1034CC008E400E94C14039F00E944F40F9960E94F4
:1034DC00B0400E9454400E94AA400E94C14041F05A
:1034EC000E944F40EE5BFF4F0E94B0400E94544040
:1034FC000E94B5400E94C14041F00E944F40E55BE4
:10350C00FF4F0E94B0400E9454400E94BB400E945A
:10351C00C14041F00E944F40EC5AFF4F0E94B04016
:10352C000E945440229608950E94B73C0E94C940C4
:10353C000E94D24014F40C94EF1A0E94DA400E94BC
:10354C005F3D0E942705E03001F50E94F13C0E948E
:10355C00F13C0E94E4401A9B02C00E94EC401B9B71
:10356C0002C00E94F4400E94FC4011F40E940141F0
:10357C000E94F53DE7EEF5E00E94073E0E941741E0
:10358C00E7EEF5E00E942941DACF979B22C0002E8E
:10359C00012A61F40E945F3D0E942705E13029F465
:1035AC000E94F13C0E94753D8F01F1CF0E94F53DC8
:1035BC000E9417410E94394111F40E9440410E941F
:1035CC00474111F40E944D410E94544111F40E9454
:1035DC005A41B4C00E94B73C0E9475410E948E4073
:1035EC000E947A41E02111F40C944C1B0E945F3D27
:1035FC000E942005E13001F50E94F13C0E94F13C53
:10360C000E94E4401A9B02C00E94EC401B9B02C02B
:10361C000E94F4400E94FC4011F40E9401410E945F
:10362C00F53DEFE0F6E00E94073E0E941741EFE007
:10363C00F6E00E942941DACF979B28C0002E012A80
:10364C0091F40E945F3D0E94693DEF930E945F3DA3
:10365C000E946F3DAF91EA2329F00E94F13C0E9439
:10366C00753D8F01EBCF0E94F53D0E9417410E94E2
:10367C00394111F40E9440410E94474111F40E94CB
:10368C004D410E94544111F40E945A410E948041C4
:10369C000E947A41E02111F40C94A41B0E945F3D1E
:1036AC000E942305E13001F50E94F13C0E94F13C9F
:1036BC000E94E4401A9B02C00E94EC401B9B02C07B
:1036CC000E94F4400E94FC4011F40E9401410E94AF
:1036DC00F53DEFE0F6E00E94073E0E941741EFE057
:1036EC00F6E00E942941DACF979B28C0002E012AD0
:1036FC0091F40E945F3D0E94693DEF930E945F3DF3
:10370C000E946F3DAF91EA2329F00E94F13C0E9488
:10371C00753D8F01EBCF0E94F53D0E9417410E9431
:10372C00394111F40E9440410E94474111F40E941A
:10373C004D410E94544111F40E945A410991199132
:10374C0008950E94BC3C0E948641E0EA05C00E949C
:10375C00BC3C0E948641E0E5EA930E9496410E949F
:10376C0096410E94413BEE810E94C43C0E94E93C80
:10377C00EAE0EA930E94413B28960895E881F9819A
:10378C00309789F5E2E0F0E02F01E6E0F0E03F0150
:10379C00E1E0F0E05F0188249924E6E9F0E06F01B4
:1037AC00E4E6F0E0E0930B05F0930C05E0E0E09329
:1037BC001705E0931805E0931905E0931A05E093BB
:1037CC000D05E0930E05E0930F05E0931005E093D3
:1037DC001105E0931205E0931305E0931405E093B3
:1037EC001505E09316055A924A920E94863D0E9456
:1037FC009B410E94BA050E94A0410E94F13C0E948C
:10380C00863D0E949B410E94A7410E94F13C0E9470
:10381C00863D0E949B410E94AA417A926A920E9424
:10382C00253E0E94B2410E94B7410E94F63C0E9484
:10383C00253E0E94B2410E94A7410E94F63C0E9484
:10384C00253E0E94B2410E94AA419A928A920E94FD
:10385C00863D0E94F13C0E94B7410E94253E0E9489
:10386C00863D0E94F13C0E94A7410E94253E0E9489
:10387C00863D0E94F13C0E94AA41BA92AA920E94F3
:10388C00F13C0E94BA410E94B7410E94863D0E94C1
:10389C00F13C0E94BA410E94A7410E94863D0E94C1
:1038AC00F13C0E94BA410E94AA41DA92CA920E944B
:1038BC00F63C0E94BA410E94B7410E949B410E9473
:1038CC00F63C0E94BA410E94A7410E949B410E9473
:1038DC00F63C0E94BA410E94AA410E94BF410E943C
:1038EC00C4410E94F63C0E94B7410E94C7410E940D
:1038FC00F63C0E94A7410E94C7410E94F63C0E94E0
:10390C00AA410E94CA410E9483400E94CF410E2AC4
:10391C000E94D5410E94DB41B1F00E94E3410E941C
:10392C00B2410E94B7410E94C23D0E94F13C0E94EC
:10393C00B2410E94A7410E94C23D0E94F13C0E94EC
:10394C00B2410E94AA410E94EA410E94EC410E2A17
:10395C000E94F241B1F00E94F9410E9400420E9483
:10396C0005420E94253E0E94F63C0E9400420E94A5
:10397C0008420E94253E0E94F63C0E9400420E9492
:10398C00AA410E94EA410E94EC41E029B1F00E9458
:10399C0011420E94863D0E94B7410E94BA410E948A
:1039AC00C23D0E94863D0E94A7410E94BA410E94DE
:1039BC00C23D0E94863D0E94AA410E94EA410E949B
:1039CC00F241B1F00E9418420E949B410E94B74103
:1039DC000E9400420E94C23D0E949B410E94A7414E
:1039EC000E9400420E94C23D0E949B410E94AA413B
:1039FC000E94EA410E94CF41E029B1F00E941F428F
:103A0C000E9426420E94B7410E94B2410E94C23DD0
:103A1C000E9426420E94A7410E94B2410E94C23DD0
:103A2C000E9426420E94AA410E94EA410E94D5416E
:103A3C00E029B1F00E942B420E94C23D0E94054237
:103A4C000E94F13C0E94C23D0E94C23D0E9408426D
:103A5C000E94F13C0E94C23D0E94C23D0E94AA41BC
:103A6C000E94EA410E94CA41EBE2F0E00E94A749A1
:103A7C00E029B1F00E9432420E94BA410E940542F4
:103A8C000E94F63C0E94C23D0E94BA410E9408422C
:103A9C000E94F63C0E94C23D0E94BA410E94AA417B
:103AAC00229608950E94A0410E94F13C0E94863DFE
:103ABC000E949B410E9439420E94F63C0E94253E86
:103ACC000E94B2410E9439420E94253E0E94863DCE
:103ADC000E94F13C0E94AA41E8ECF0E00E943C42BA
:103AEC000E94F13C0E949B410E94F63C0E94BA410C
:103AFC000E9439420E94C7410E94F63C0E94394202
:103B0C000E94C23D0E94F13C0E94B2410E94AA4117
:103B1C000E94F63C0E94253E0E94F63C0E94004208
:103B2C000E9439420E94BA410E94C23D0E94863DC9
:103B3C000E9439420E9400420E94C23D0E949B4159
:103B4C000E9439420E94B2410E94C23D0E9426420C
:103B5C000E94AA410E94F63C0E94F13C0E94C23D88
:103B6C000E94C23D0E94AA410E94F63C0E94F63C73
:103B7C000E94C23D0E94BA410E9439420E94863D79
:103B8C000E94F13C0E94BA410E94AA41E091950525
:103B9C00F09196050E94C4410E9426420E94BA05EB
:103BAC00E0919705F09198050E94C4410E94C23D96
:103BBC000E94BA05E0919905F0919A050E94404245
:103BCC000E94F63C0E94BA05E0919B05F0919C0581
:103BDC000E94C4410E94BA410E94BA05E8E2F0E09A
:103BEC000E9440420E94BA410E94BA05E1E9F0E00D
:103BFC000E9440420E9400420E94BA050E94434229
:103C0C000E9400420E949B410E94BA0508952E9783
:103C1C000E94F849E0E0EE83EF830E9426420E9466
:103C2C00B23D8F010E9426420E9448420E9450429F
:103C3C000E9458420E9461420E946A420E94734252
:103C4C000E947C420E948542D8010E948E400E2E1A
:103C5C00D9010E948E400E2ADA010E948E400E2A53
:103C6C000E948E420E2A0E9491420E2A0E94944279
:103C7C000E2A0E9497420E2A0E949A420E2AA8856A
:103C8C00B9850E948E40E02911F40C942E1FEE8110
:103C9C00FF81309759F4E0E0E0934505E093460549
:103CAC00E0934705E09348050E949D420E942642FE
:103CBC000E94B23D8F010E9426420E9448420E94FF
:103CCC0050420E9458420E9461420E946A420E94E5
:103CDC0073420E947C420E948542E889F989E40F74
:103CEC00F51FAC85BD85EA0FFB1FA885B985AE0F06
:103CFC00BF1F0E94A2421E2EDA010E948E400E2E81
:103D0C000E9491420E220E9497420E22A885B985EC
:103D1C000E948E40E021E12111F40C94E51E0E94DA
:103D2C00BC3CE4E00E94A742E3E0EA930E94964187
:103D3C000E94413BE1E40E94AE420E94BC3CE3E0A5
:103D4C000E94A7420E94B4420E94BC3CE3E00E9445
:103D5C00A7420E94B4420E94BC3CE3E00E94A742EE
:103D6C000E94B4420E94BC3CE3E00E94A7420E9425
:103D7C00BA420E9426420E94B2410E94B7410E9460
:103D8C0026420E94C3420E9426420E94C8420E94C0
:103D9C0026420E94CD420E9426420E94D2420E949C
:103DAC0026420E94D7420E9426420E94DC420E9478
:103DBC0026420E94E1420E9426420E94E642A091C5
:103DCC004505B09146058091470590914805A13471
:103DDC00E1E0BE07E0E08E07E0E09E07C4F1E4EF0F
:103DEC00F1E00E943C420E94BC3CE3E00E94A742EE
:103DFC000E94B4420E94BC3CE3E00E94A7420E9495
:103E0C00BA420E9426420E94B2410E94B7410E94CF
:103E1C0026420E94C3420E9426420E94C8420E942F
:103E2C0026420E94CD420E9426420E94D2420E940B
:103E3C0026420E94D7420E9426420E94DC420E94E7
:103E4C0026420E94E1420E9426420E94E642FCCE9B
:103E5C000E94FF4964960895E0914B05F0914C0542
:103E6C003097B9F40E94F53DE5E3F6E00E94073E79
:103E7C000E941741E5E3F6E00E9429410E940243AB
:103E8C000E94F13C0E94753DE0934B05F0934C056C
:103E9C00E3CF0E945F3D0E940543EF930E945F3D7C
:103EAC000E940B43AF91EA2B69F00E94F53DEEE5C1
:103EBC00F6E00E94073E0E941741EEE5F6E00E94F4
:103ECC002941E7CFC49A0E940243C498C69A0E9423
:103EDC0011430E941B43EF930E9411430E94214304
:103EEC00AF91EA2B11F40C9403200E945F3D0E94C9
:103EFC000543EF930E945F3D0E940B43AF91EA2B69
:103F0C0089F00E9427430E942C430E9417410E9473
:103F1C002F430E94F13C0E94F13C0E949B410E9465
:103F2C00BA05EFCF0E945F3D0E942705E03089F46F
:103F3C000E9427430E9432430E9417410E942F4344
:103F4C000E94F13C0E94F13C0E949B410E94BA05E8
:103F5C00EFCF0E94F53DE7EDF6E00E94073E0E9490
:103F6C001741E7EDF6E00E9429410E9402430E94AE
:103F7C0011430E942C05E03041F40E94F53DE6EF20
:103F8C00F6E00E94073E0E9402430E9411430E94E9
:103F9C004305E03041F40E941741E5E1F7E00E944F
:103FAC00073E0E9402430E945F3D0E943543EF93FF
:103FBC000E945F3D0E942143AF91EA2BE9F0979A52
:103FCC000E945F3D0E943C05E13041F40E94F53DAA
:103FDC00E4E3F7E00E94073E0E9402430E945F3D2B
:103FEC000E944305E13041F40E94F53DE6E4F7E020
:103FFC000E94073E0E9402436ACFC498929A0E9484
:10400C00024392980E94DA400E94EB3D0E941B43AF
:10401C00EF930E943B43AF91EA2B0E2E0E94C940B6
:10402C00EEE4FEE060E070E00E94C549E02111F48E
:10403C000C94C5200E945F3D0E940543EF930E94A3
:10404C005F3D0E940B43AF91EA2BA9F0979AC6985B
:10405C000E94F53D0E942C430E9417410E942F4361
:10406C00C49892980E94F13C0E94F13C0E949B41A2
:10407C000E94BA05EBCF0E945F3D0E942705E030FD
:10408C0089F40E9427430E9432430E9417410E94E8
:10409C002F430E94F13C0E94F13C0E949B410E94E4
:1040AC00BA05EFCF0E94F53DE7EDF6E00E94073E22
:1040BC000E941741E7EDF6E00E9429410E9402435D
:1040CC000E94EB3D0E942C05E03091F40E943B4392
:1040DC000E2EA2E3B0E00E94454309F0929A0E9492
:1040EC00F53DE8E5F7E00E94073E0E9402439298F6
:1040FC000E944B430E942C05E030B9F40E94EB3D2A
:10410C000E941B430E2EA0E09299A1E0E0E00E94D9
:10411C00A249E02109F0929A0E941741E7E7F7E0E3
:10412C000E9429410E94024392980E94EB3D0E94FA
:10413C005543EF930E944B430E945543AF91EA2B9A
:10414C00E9F0979A0E94EB3D0E943605E13041F46C
:10415C000E94F53DE6E9F7E00E94073E0E9402430B
:10416C000E944B430E943605E13041F40E94F53D1C
:10417C00E8EAF7E00E94073E0E94024345CF92987E
:10418C00E4EFF1E00E943C42929A0E940243929822
:10419C000E94EB3D0E941B43EF930E943B43AF9167
:1041AC00EA2B11F40C9454210E945F3D0E940543AC
:1041BC00EF930E945F3D0E940B43AF91EA2BA9F055
:1041CC00979AC6980E94F53D0E942C430E94174175
:1041DC000E942F43C49892980E94F13C0E94F13C9B
:1041EC000E949B410E94BA05EBCF0E945F3D0E944A
:1041FC002705E03089F40E9427430E9432430E9435
:10420C0017410E942F430E94F13C0E94F13C0E94F6
:10421C009B410E94BA05EFCF0E94EB3D0E942C05FA
:10422C00E03031F40E94F53DE8E5F7E00E94073EEE
:10423C000E944B430E942C05E03031F40E94174140
:10424C00E7E7F7E00E9429410E94EB3D0E945543AD
:10425C00EF930E944B430E945543AF91EA2BE9F038
:10426C00979A0E94EB3D0E943605E13041F40E9482
:10427C00F53DE6E9F7E00E94073E0E9402430E94EA
:10428C004B430E943605E13041F40E94F53DE8EACB
:10429C00F7E00E94073E0E9402437ACF0E94F53D50
:1042AC00EAEBF7E00E94073E0E941741EAEBF7E0C9
:1042BC000E9429419298C6980E9402430E94F13CA8
:1042CC000E94F13C0E949B410E945B4308950E9416
:1042DC005F3D0E94693DEF930E945F3D0E946F3DE0
:1042EC00AF91EA2311F40C94C0210E944B430E941D
:1042FC003C05A0E00E94A249EF930E944B430E9410
:10430C004305A0E00E94A249AF910E9463430E9422
:10431C00454331F0E1E0F0E0E0937D05F0937E055C
:10432C000E944B430E943543EF930E944B430E94E3
:10433C002143AF910E9463430E948E40E02131F0F3
:10434C00E2E0F0E0E0937D05F0937E050E946A4385
:10435C00E1E00E94A249E02119F01E980E947743E7
:10436C000E946A43E0E00E94A249E02119F01E9AE3
:10437C000E94774308951A930A93A0913505B09142
:10438C00360580913705909138050E94D24014F47F
:10439C000C9417220E947F430E9489430E94B949C2
:1043AC00EF930E94173E0E940543EF930E94173E25
:1043BC000E940B43AF91EA2BEF930E94173E0E9491
:1043CC002705A1E00E94A249AF91EA2BEF930E942E
:1043DC00173E0E941B43AF91EA2BEF930E94173EAE
:1043EC000E943205A1E00E94A249AF91EA2BEF9303
:1043FC000E94173E0E945543AF91EA2BEF930E9407
:10440C00173E0E943543AF91EA2BEF930E94173E63
:10441C000E942143AF91EA2BAF91EA2311F00E9445
:10442C0092430E948943EA17FB0739F40E940D0757
:10443C008F010E947F430E949243E0911D05F091F1
:10444C001E053196A0911B05B0911C05EA17FB07C0
:10445C00D1F5E1E0F0E0E017F10741F40E94F13C06
:10446C000E94F13C0E94C23D0E94BA05D8010E94F4
:10447C009A430E2E0E949F430E94454341F00E9496
:10448C00F13C0E94F13C0E94F63C0E94BA05D80116
:10449C000E949A430E947A41E02131F0E1E0F0E081
:1044AC00E093B905F093BA05E0E0E0931B05E093C7
:1044BC001C050E949F43119731F4E1E0F0E0E0937A
:1044CC00B705F093B8050991199108950E94EB3D39
:1044DC000E943605E13079F40E94A4430E94F53D18
:1044EC00EDEDF7E00E94073E0E941741EDEDF7E07D
:1044FC000E942941F3CF0E949F43119711F40E940F
:10450C00AF43E0915105F0915205309711F00C94A6
:10451C00D4220E94B343E881E0930905E17011F4C1
:10452C00D89801C0D89AE0910905E27011F4D99895
:10453C0001C0D99AE0910905E47011F4DA9801C030
:10454C00DA9AE0910905E87011F4DB9801C0DB9A66
:10455C00E0910905E07111F4DC9801C0DC9AE0915E
:10456C000905E07211F4DD9801C0DD9AE0910905AE
:10457C00E07411F4DE9801C0DE9AE0910905E07850
:10458C0011F4DF9801C0DF9AA881B981A030E1E075
:10459C00BE070CF0949AE1E0F0E047C0E130A0E0F7
:1045AC00FA0789F4A0912505B0912605809127057D
:1045BC00909128050E94BD432CF0939AE2E0F0E024
:1045CC000E94C54336C0E230A0E0FA0789F40E948D
:1045DC00EB3D0E942005E03051F49398E0E0EBBBFA
:1045EC0094980E94B343E3E0F0E00E94C54321C0DD
:1045FC00E330A0E0FA0769F40E94EB3D0E942C0521
:10460C00E03031F40E94B343E4E0F0E00E94C54393
:10461C0010C0E430A0E0FA0761F40E94EB3D0E9468
:10462C002005E13031F4E5E0F0E0E0935105F09342
:10463C005205E0915105F09152059AC10E944B43ED
:10464C000E943605E13079F40E94A4430E94F53DA6
:10465C00E6EFF7E00E94073E0E941741E6EFF7E015
:10466C000E942941F3CF0E949F43119711F40E949D
:10467C00AF43E0915505F0915605309711F00C942D
:10468C008C230E94CA43E881E0930A05E17011F47F
:10469C00A89801C0A89AE0910A05E27011F4A998B3
:1046AC0001C0A99AE0910A05E47011F4AA9801C01E
:1046BC00AA9AE0910A05E87011F4AB9801C0AB9A84
:1046CC00E0910A05E07111F4AC9801C0AC9AE0914C
:1046DC000A05E07211F4AD9801C0AD9AE0910A059B
:1046EC00E07411F4AE9801C0AE9AE0910A05E0783E
:1046FC0011F4AF9801C0AF9AA881B981A030E1E064
:10470C00BE070CF0959AE1E0F0E047C0E130A0E084
:10471C00FA0789F4A0912D05B0912E0580912F05F3
:10472C00909130050E94BD432CF0969AE2E0F0E0A7
:10473C000E94D44336C0E230A0E0FA0789F40E940C
:10474C004B430E942005E03051F49698E0E0E5BB25
:10475C0095980E94CA43E3E0F0E00E94D44321C044
:10476C00E330A0E0FA0769F40E944B430E942C0549
:10477C00E03031F40E94CA43E4E0F0E00E94D443FC
:10478C0010C0E430A0E0FA0761F40E944B430E9491
:10479C002005E13031F4E5E0F0E0E0935505F093CD
:1047AC005605E0915505F0915605E2C00E945F3D1B
:1047BC000E944305E13079F40E94A4430E94F53D28
:1047CC00E1E1F8E00E94073E0E941741E1E1F8E0C8
:1047DC000E942941F3CF0E949F43119711F40E942C
:1047EC00AF43E0915305F0915405309711F00C94C0
:1047FC004424E881E0930705E1700E2EE09100055A
:10480C00EE7F0E94D943E695E170EE0F0E2EE091FB
:10481C000005ED7F0E94D943E695E695E170EE0F19
:10482C00EE0F0E2EE0910005EB7F0E94D943E6952A
:10483C00E695E695E170EE0FEE0FEE0F0E2EE09181
:10484C000005E77F0E94D943E295E170E795E0E02F
:10485C00E7950E2EE0910005EF77E0290E94DF43EB
:10486C00E0910705E07211F4C79801C0C79A0E9445
:10487C00E443E1E0F0E00E94EE4376C0E130A0E0DA
:10488C00FA07A9F4A0912905B0912A0580912B056E
:10489C0090912C050E94BD434CF0E0910005E06224
:1048AC000E94DF43E2E0F0E00E94EE435DC0E230A4
:1048BC00A0E0FA0721F50E9411430E942005E03088
:1048CC00E9F4E0910005EF7D0E94DF43E0910005E3
:1048DC00EE7F0E94F343ED7F0E94F343EB7F0E9437
:1048EC00F343E77F0E94F343EF770E94DF43C798BF
:1048FC000E94E443E3E0F0E00E94EE4335C0E33075
:10490C00A0E0FA0769F40E9411430E942C05E030E4
:10491C0031F40E94E443E4E0F0E00E94EE4324C052
:10492C00E430A0E0FA0701F50E9411430E94200533
:10493C00E130D1F4E5E0F0E00E94EE43E091610556
:10494C00F0916205309739F4E1E0F0E0E093610515
:10495C00F093620509C0E130A0E0FA0729F4E0E029
:10496C00E0936105E0936205E0915305F0915405E5
:10497C00229608950E945F3D0E943C05E13079F437
:10498C000E94A4430E94F53DE9E3F8E00E94073E33
:10499C000E941741E9E3F8E00E942941F3CF0E94FD
:1049AC009F43119711F40E94AF43E0915705F0918A
:1049BC005805309749F5EA81E0930805E17011F448
:1049CC00C09801C0C09AE0910805E27011F4C1983A
:1049DC0001C0C19AE0910805E47011F4C29801C0BD
:1049EC00C29AE0910805E87011F4C39801C0C39A0B
:1049FC00E0910805E07111F41C9801C01C9A0E940A
:104A0C00F643E1E0F0E049C0E130A0E0FA0789F4B8
:104A1C00A0913105B0913205809133059091340508
:104A2C000E94BD432CF0C59AE2E0F0E00E940044E5
:104A3C0038C0E230A0E0FA0799F40E9411430E94BA
:104A4C003205E03061F4C598C098C198C298C398FB
:104A5C001C980E94F643E3E0F0E00E94004421C061
:104A6C00E330A0E0FA0769F40E9411430E94430569
:104A7C00E03031F40E94F643E4E0F0E00E940044A0
:104A8C0010C0E430A0E0FA0761F40E9411430E94C8
:104A9C003205E13031F4E5E0F0E0E0935705F093B6
:104AAC005805E0915705F09158052496089568979C
:104ABC000E94F84920E030E000E010E040E050E0D7
:104ACC004B30E0E05E0744F4FA010E9405440E947A
:104ADC00793E4F5F5F4FF4CFE1E9F0E0E093A90539
:104AEC00F093AA050E94863D0E947B3DE093A905A8
:104AFC00F093AA05A091A905B091AA05A139E0E00F
:104B0C00BE0761F0E091A905F091AA05E09321059B
:104B1C00F0932205E0932305F09324050E940844AA
:104B2C000E948E400E2E0E940D440E9412440E9440
:104B3C0018440E9420440E942A44EF930E945F3D37
:104B4C000E94693DAF91EA23EF930E945F3D0E9462
:104B5C006F3DAF91EA2311F40C94FD260E9408449A
:104B6C00119711F00C94FD26F801309759F40E941E
:104B7C0043420E9434440E9443420E949B1101E034
:104B8C0010E034C1E130A0E0FA07D1F40E944944AE
:104B9C00159724F40E94F13C0E944E440E9451440B
:104BAC00159734F40E94F13C0E94F13C0E9456444B
:104BBC000E94594421F00E94664402E010E016C1A4
:104BCC00E230A0E0FA07C1F40E947044159724F477
:104BDC000E94F13C0E9475440E947844159724F47D
:104BEC000E947D440E9482440E94854421F00E94D0
:104BFC00924403E010E0FAC0E330A0E0FA0789F435
:104C0C000E947044159724F40E949C440E947544A1
:104C1C000E947044159721F40E94924404E010E025
:104C2C00E5C0E430A0E0FA0789F40E9449441597E6
:104C3C0024F40E944A400E94A0440E9449441597C3
:104C4C0021F40E94924405E010E0D0C0E530A0E0D1
:104C5C00FA0711F00C94BA260E945F3D0E94693D40
:104C6C00EF930E945F3D0E946F3DAF91EA2311F4D8
:104C7C000C94B9260E94863D0E94D13D9F01022EC4
:104C8C00032A11F40AE912E0D9010E949A430E2E6C
:104C9C000E94353D21F00E94A3440E94323E0E94A6
:104CAC00A7440E22AC85BD850E94454321F00E948D
:104CBC00A3440E94323ED9010E94A2420E2E0E94B1
:104CCC0097420E22AE85BF850E94454321F00E947B
:104CDC00A3440E94323E0E94AE440E22A889B98998
:104CEC000E94454321F00E94A3440E94323E0E9440
:104CFC00B5440E22AA89BB890E94454321F00E942B
:104D0C00A3440E94323E0E94BC440E22AC89BD8951
:104D1C000E94454321F00E94A3440E94323E0E940F
:104D2C00C3440E22AE89BF890E94454321F00E94E4
:104D3C00A3440E94323E0E94CC440E22A88DB98D11
:104D4C000E94454321F00E94A3440E94323E0E94DF
:104D5C00D5440E22AA8DBB8D0E94454321F00E94A2
:104D6C00A3440E94323E42C0E630A0E0FA0789F428
:104D7C000E944944159724F40E94F13C0E944E4431
:104D8C000E944944159721F40E94924407E010E0D8
:104D9C002DC0E730A0E0FA0779F40E947044159713
:104DAC0014F40E94DE440E947044159721F40E9472
:104DBC00924404E010E01AC0EA39A2E0FA07B1F418
:104DCC000E944944159724F40E94F13C0E944E44E1
:104DDC000E944944159751F40E94664404E610E081
:104DEC00E0E0E0939D05E0939E05C698B7CE0E9447
:104DFC0008440E9483400E940D440E948E400E2263
:104E0C000E9418440E94E3440E94E8440E94EE442D
:104E1C00E021EF930E945F3D0E94693DAF91EA2330
:104E2C00EF930E945F3D0E946F3DAF91EA2311F416
:104E3C000C946B280E940D44119711F00C946B2864
:104E4C00F801309759F40E94F7440E9434440E94B0
:104E5C00F7440E949B1101E010E036C1E130A0E064
:104E6C00FA07D1F40E944944159724F40E94F13CAE
:104E7C000E944E440E945144159734F40E94F13C18
:104E8C000E94F13C0E9456440E94594421F00E9419
:104E9C00664402E010E018C1E230A0E0FA07C1F469
:104EAC000E947044159724F40E9443420E9475445A
:104EBC000E947844159724F40E94FC440E9482447A
:104ECC000E94854421F00E94924403E010E0FCC053
:104EDC00E330A0E0FA0789F40E947044159724F49B
:104EEC000E9401450E9475440E947044159721F45C
:104EFC000E94924404E010E0E7C0E430A0E0FA071E
:104F0C0089F40E944944159724F40E944A400E9457
:104F1C00A0440E944944159721F40E94924405E054
:104F2C0010E0D2C0E530A0E0FA0711F00C9428286C
:104F3C000E945F3D0E94693DEF930E945F3D0E947D
:104F4C006F3DAF91EA2311F40C9427280E94863D03
:104F5C000E94C23D0E944B059F01022E032A11F4B0
:104F6C000AE912E0D9010E949A430E2E0E94353DA7
:104F7C0021F00E94A3440E94323E0E94A7440E22BC
:104F8C00AC85BD850E94454321F00E94A3440E943C
:104F9C00323ED9010E94A2420E2E0E9497420E224E
:104FAC00AE85BF850E94454321F00E94A3440E9418
:104FBC00323E0E94AE440E22A889B9890E94454314
:104FCC0021F00E94A3440E94323E0E94B5440E225E
:104FDC00AA89BB890E94454321F00E94A3440E94E8
:104FEC00323E0E94BC440E22AC89BD890E944543CE
:104FFC0021F00E94A3440E94323E0E94C3440E2220
:10500C00AE89BF890E94454321F00E94A3440E94AF
:10501C00323E0E94CC440E22A88DB98D0E9445438D
:10502C0021F00E94A3440E94323E0E94D5440E22DD
:10503C00AA8DBB8D0E94454321F00E94A3440E947F
:10504C00323E42C0E630A0E0FA0789F40E9449449F
:10505C00159724F40E94F13C0E944E440E9449444E
:10506C00159721F40E94924407E010E02DC0E73020
:10507C00A0E0FA0779F40E947044159714F40E948A
:10508C00DE440E947044159721F40E94924404E07F
:10509C0010E01AC0EA39A2E0FA07B1F40E944944C0
:1050AC00159724F40E94F13C0E944E440E944944FE
:1050BC00159751F40E94664404E610E0C698E0E0AF
:1050CC00E0939F05E093A005B5CE0E94FF496E9634
:1050DC0008950E940845AC15BD0594F00E940D453D
:1050EC000E9411450E94F13C0E949F05EAE6F8E0FF
:1050FC00FA93EA930E9426420E94F13C0E949F057B
:10510C000E941645AC15BD0594F00E940D450E94F9
:10511C0011450E94F13C0E949F05EBE8F8E0FA93E0
:10512C00EA930E94F63C0E9400420E949F050E9456
:10513C00BF410E941B45AE17BF0784F00E940D456E
:10514C000E9420450E94F13C0E949F05ECEAF8E089
:10515C000E9425450E94F13C0E949F050E94BF4180
:10516C000E942845AE17BF0784F00E940D450E948F
:10517C0020450E94F13C0E949F05EBEDF8E00E9457
:10518C0025450E94F13C0E949F050E94BF410E9450
:10519C002D45AE17BF0784F00E940D450E94204597
:1051AC000E94F13C0E949F05EAE0F9E00E9425452F
:1051BC000E94F13C0E949F050E94BF410E94324513
:1051CC00AE17BF0784F00E940D450E9420450E9437
:1051DC00F13C0E949F05E9E3F9E00E9425450E94FD
:1051EC00F13C0E949F050E94BF410E943745AE17BB
:1051FC00BF0784F00E940D450E9420450E94F13C9F
:10520C000E949F05E8E6F9E00E9425450E94F13CCA
:10521C000E949F05089524970E94F849E0E0EE83D0
:10522C00EF830E945F3D0E94693DEF930E945F3DBA
:10523C000E946F3DAF91EA2371F00E94863D0E945F
:10524C00253E0E944B058F010E94863D0E94863DA3
:10525C000E944B05AF01E1E0F0E0E017F10711F01F
:10526C000C94642AEE81FF81309731F40E949244B1
:10527C00C69A0E949D4221C1E130A0E0FA07E1F4F8
:10528C000E944944159724F40E94F13C0E944E441C
:10529C000E945144159734F40E94F13C0E94F13C59
:1052AC000E9456440E94594431F00E946644E2E048
:1052BC00F0E0EE83FF8301C1E230A0E0FA07C1F415
:1052CC000E947044159724F40E943C450E9475443A
:1052DC000E947844159724F40E943C450E94824415
:1052EC000E94854421F00E9492440E944145E5C0F1
:1052FC00E330A0E0FA0711F00C94392A0E944944DB
:10530C00159724F4E2E0F0E00E94A0440E9451447E
:10531C00159734F40E94F7440E94F13C0E945644C5
:10532C000E94594411F40C94382A0E9466440E943D
:10533C00863D0E94253E0E944B05E887F9873097F1
:10534C0079F40E945F3D0E94693DEF930E945F3D9E
:10535C000E946F3DAF91EA2311F00E94464582C036
:10536C00E130A0E0FA0721F40E944145C6987AC0CA
:10537C00E230A0E0FA0711F00C94382AE091000515
:10538C00EF7B0E94DF430E944C45E2E2F0E00E947A
:10539C00A7490E2E0E944C45E4E2F0E00E94A7497A
:1053AC00E029D9F0E0E0E0931905E0931A050E949A
:1053BC00F9410E9400420E9405420E94253E0E9433
:1053CC00F63C0E9400420E9408420E94253E0E9428
:1053DC00F63C0E9400420E94AA410E944C45E6E223
:1053EC00F0E00E94A7490E2E0E944C45E9E2F0E045
:1053FC000E94A7490E2A0E944C45EBE2F0E00E9465
:10540C00A749E029D9F0E0E0E0931705E0931805EF
:10541C000E94E3410E94B2410E94B7410E94C23DEA
:10542C000E94F13C0E94B2410E94A7410E94C23DE1
:10543C000E94F13C0E94B2410E94AA410E94114577
:10544C000E94F13C0E949F050E945F3D0E94693DB5
:10545C00EF930E945F3D0E946F3DAF91EA2311F0E4
:10546C000E9446452AC0E430A0E0FA0731F50E94BC
:10547C004944159724F40E94F13C0E944E440E942A
:10548C005144159734F40E94F13C0E94F13C0E9467
:10549C0056440E94594489F00E9492440E94F13C67
:1054AC000E94863D0E94253E0E94BA05C698E5E002
:1054BC00F0E0EE83FF8300E010E0CDCEE1E0F0E021
:1054CC00E417F50711F00C94DA2BEE81FF8130977D
:1054DC0031F40E949244C69A0E949D4264C1E1300C
:1054EC00A0E0FA07E1F40E944944159724F40E94C5
:1054FC00F13C0E944E440E945144159734F40E9492
:10550C00F13C0E94F13C0E9456440E94594431F0F7
:10551C000E946644E2E0F0E0EE83FF8344C1E23097
:10552C00A0E0FA07C1F40E947044159724F40E947D
:10553C003C450E9475440E947844159724F40E94BF
:10554C003C450E9482440E94854421F00E94924472
:10555C000E94414528C1E330A0E0FA0711F00C94F9
:10556C00AF2B0E944944159724F4E2E0F0E00E942E
:10557C00A0440E945144159734F40E94F7440E94B1
:10558C00F13C0E9456440E94594411F40C94AE2BE9
:10559C000E9466440E94863D0E94863D0E944B05F7
:1055AC009F01F901309779F40E945F3D0E94693D9B
:1055BC00EF930E945F3D0E946F3DAF91EA2311F083
:1055CC000E944645C5C0E130A0E0FA0721F4C69818
:1055DC00E3E0F0E0BBC0E230A0E0FA0711F00C947D
:1055EC00AE2BE0910005EF7B0E94DF430E944C45FF
:1055FC009297D9F4E0E0E0930D05E0930E050E943C
:10560C0011420E94863D0E94B7410E94BA410E94FD
:10561C00C23D0E94863D0E94A7410E94BA410E9451
:10562C00C23D0E94863D0E94AA410E944C4594971F
:10563C00D9F4E0E0E0930F05E09310050E941842C6
:10564C000E949B410E94B7410E9400420E94C23DB1
:10565C000E949B410E94A7410E9400420E94C23DB1
:10566C000E949B410E94AA410E944C459697D9F4F6
:10567C00E0E0E0931105E09312050E941F420E94A6
:10568C0026420E94B7410E94B2410E94C23D0E9434
:10569C0026420E94A7410E94B2410E94C23D0E9434
:1056AC0026420E94AA410E944C459997D9F4E0E009
:1056BC00E0931305E09314050E942B420E94C23D17
:1056CC000E9405420E94F13C0E94C23D0E94C23DD4
:1056DC000E9408420E94F13C0E94C23D0E94C23DC1
:1056EC000E94AA410E944C459B97D9F4E0E0E093BC
:1056FC001505E09316050E9432420E94BA410E94A1
:10570C0005420E94F63C0E94C23D0E94BA410E9492
:10571C0008420E94F63C0E94C23D0E94BA410E947F
:10572C00AA410E9420450E94F13C0E949F050E94C4
:10573C005F3D0E94693DEF930E945F3D0E946F3D6B
:10574C00AF91EA2329F0C69AE4E0F0E0EE83FF8300
:10575C002AC0E430A0E0FA0731F50E9449441597BD
:10576C0024F40E94F13C0E944E440E94514415972F
:10577C0034F40E94F13C0E94F13C0E9456440E9479
:10578C00594489F00E949244E5E0F0E0EE83FF83F7
:10579C000E94F13C0E94863D0E94863D0E94BA0503
:1057AC00C69840E050E08ACE0E94FF492A960895A0
:1057BC000E94514514F40E9462450E947541129753
:1057CC0011F40E94C1210E94664511F40E946C459F
:1057DC000E946F450E9473450E94784521F00E94FB
:1057EC004F400E947D450E946F450E94804521F0EC
:1057FC000E9484450E948A450E946F450E949145F3
:10580C00E02111F00E94A1450E946F450E94A6451F
:10581C00E02121F00E9484450E94B6450E94BE45BD
:10582C00E02121F00E9484450E94CB450E946F45E7
:10583C000E94D245E02111F00E94DA450E946F458A
:10584C000E94DF45E02121F00E9484450E94E7453B
:10585C000E94EE450E94F2450E9412440E94FA45B5
:10586C000E9412440E94FF4531F00E9468400E9441
:10587C0011460E9456440E94EE450E9415460E9415
:10588C001E4669F00E94234611F40E9429460E948C
:10589C002F4619F40E94354602C00E9443460E94CE
:1058AC0051460E9455460E9412440E945D4621F0CA
:1058BC000E9493400E94A0440E9451460E9462465E
:1058CC000E946B4651F00E946F460E94754619F477
:1058DC000E947B4602C00E9489460E9451460E944B
:1058EC0055460E948E40E02121F00E944A400E94C1
:1058FC00A0440E94EE450E94F2450E948E400E94F8
:10590C008F4621F00E9492460E9456440E945146B6
:10591C000E9462460E94974621F00E946F460E94A8
:10592C00AC460E94B3460E2E0E9451460E94B949C5
:10593C00E02121F00E9443420E944E440E945146B5
:10594C000E94B846E02119F00E94BC461B980E94A8
:10595C00EE450E9415460E94C24629F01A980E94F4
:10596C0029460E94CE460E94D5460E2E0E94EE4538
:10597C000E94B949E02131F00E9443420E94F13C5F
:10598C000E9456440E94EE450E94D746E02119F031
:10599C000E94DB461A980E94E1460E94E7460E944C
:1059AC00EB460E94EF460E94F7460E94F94641F0F2
:1059BC000E94BC460E94DB460E9492440E94034710
:1059CC0008950E94514514F40E9462450E9475414D
:1059DC00129711F40E94C1210E94664511F40E9495
:1059EC006C450E946F450E9473450E94784521F0DA
:1059FC000E944F400E947D450E946F450E94804549
:105A0C0021F00E9484450E948A450E946F450E94A5
:105A1C009145E02111F00E94A1450E946F450E9422
:105A2C00A645E02121F00E9484450E94B6450E94C3
:105A3C00BE45E02121F00E9484450E94CB450E9486
:105A4C006F450E94D245E02111F00E94DA450E9478
:105A5C006F450E94DF45E02121F00E9484450E94A1
:105A6C00E7450E94EE450E94F2450E9412440E94B6
:105A7C00F7460E94FF4531F00E9468400E94114693
:105A8C000E9456440E94EE450E9415460E941E46F6
:105A9C00C9F00E94234611F40E9429460E942F4609
:105AAC0071F40E941C4709F41A980E9435460E9412
:105ABC0021474A165B0611F40E946C4503C01A9AE2
:105ACC000E9443460E9451460E9455460E94124431
