:200000000C94AD030C9400000C9400000C9400000C9400000C9400000C9400000C94000030
:200020000C9400000C9400000C9400000C9400000C9400000C9400000C9400000C940000C0
:200040000C9426040C9400000C9400000C9400000C9400000C9400000C9400000C94000076
:200060000C9400000C9400000C9400000C9400000C9400000C9400000C9400000C94000080
:200080000C9400000C9400000C9400001027E80364000A00010000100001100001000000CD
:2000A000202020202020202020202020202020202020202020202020202020202020202040
:2000C00020202020202020202020202020202020005A616369736B206E6965207A6D69658A
:2000E000727A6F6E7920752057796B6F6E61776379004F73207A616369736B7520626C690A
:200100007A656A20737A616679004F73207A616369736B752064616C656A206F6420737A4D
:20012000616679004369736E69656E6965207A61206D616C65202D206D6E69656A737A655C
:20014000206E697A2036206261720038362D303137300038362D313034330038362D3136BB
:2001600037350038362D323039380038372D303137300038372D313034330038372D3136DA
:2001800037350038372D323039380038362D303139320038362D313035340038362D3136B6
:2001A00037360038362D323133320038372D303139320038372D313035340038372D31369E
:2001C00037360038372D323133320038362D303139330038362D313231360038362D31387D
:2001E00033320038362D323137340038372D303139330038372D313231360038372D31385D
:2002000033320038372D323137340038362D303139340038362D313334310038362D31383E
:2002200033330038362D323138300038372D303139340038372D313334310038372D31381E
:2002400033330038372D323138300038362D303636330038362D313334390038362D3138F7
:2002600033340038362D323230340038372D303636330038372D313334390038372D3138D7
:2002800033340038372D323230340038362D303736380038362D313335370038362D3138B4
:2002A00034380038362D323231320038372D303736380038372D313335370038372D31388E
:2002C00034380038372D323231320038362D303830300038362D313336330038362D31397F
:2002E00030340038362D323234310038372D303830300038372D313336330038372D313963
:2003000030340038372D323234310038362D303831310038362D313532330038362D313944
:2003200032390038362D323236310038372D303831310038372D313532330038372D313919
:2003400032390038372D323236310038362D303831340038362D313533300038362D3139FA
:2003600033360038362D323238350038372D303831340038372D313533300038372D3139D4
:2003800033360038372D323238350038362D303831350038362D313535310038362D3139B2
:2003A00034310038362D323238360038372D303831350038372D313535310038372D313993
:2003C00034310038372D323238360038362D303831360038362D313535320038362D32307B
:2003E00030370038362D323239320038372D303831360038372D313535320038372D32305A
:2004000030370038372D323239320038362D303831370038362D313630320038362D32303E
:2004200031370038362D323338340038372D303831370038372D313630320038372D323019
:2004400031370038372D323338340038362D303834370038362D313632300038362D3230F8
:2004600031390038362D323338350038372D303834370038372D313632300038372D3230D3
:2004800031390038372D323338350038362D303835340038362D313632320038362D3230B5
:2004A00032380038362D323433370038372D303835340038372D313632320038372D323095
:2004C00032380038372D323433370038362D303836320038362D313632350038362D323075
:2004E00035320038362D323439320038372D303836320038372D313632350038372D323055
:2005000035320038372D323439320038362D303933350038362D313634380038362D323030
:2005200038320038362D323530300038372D303933350038372D313634380038372D323015
:2005400038320038372D323530300038362D313031390038362D313634390038362D3230FC
:2005600038330038362D323538350038372D313031390038372D313634390038372D3230CC
:2005800038330038372D323632340038362D313032370038362D313636390038362D3230B3
:2005A00038370038362D323632340038372D313032370038372D313636390038372D32308D
:2005C00038370038372D32353835004E69652077637A7974616E6F207A616369736B750067
:2005E0004E616369736E696A20535441525420616279207779706F7A79636A6F6E6F7761EF
:2006000063206E617065647900506F7A79636A6F6E756A6520756B6C616479206C696E69C0
:200620006F77652058595A00537465726F776E696B2031202D207779706F7A79636A6F6E54
:200640006F77616C656D00537465726F776E696B2032202D207779706F7A79636A6F6E6FB5
:2006600077616C656D00537465726F776E696B2033202D207779706F7A79636A6F6E6F778C
:20068000616C656D00537465726F776E696B2034202D207779706F7A79636A6F6E6F776181
:2006A0006C656D00416C61726D20537465726F776E696B203400416C61726D20537465722A
:2006C0006F776E696B203300416C61726D20537465726F776E696B203100416C61726D206E
:2006E000537465726F776E696B2032005779706F7A79636A6F6E6F77616E6F20756B6C61A5
:200700006479206C696E696F77652058595A0057796D69656E20737A637A6F746B65207014
:2007200065647A656C6B6F77610057796D69656E206B72617A656B2073636965726E7900B5
:2007400001002D4E414E00494E460000010002009E000100950540070000F894EE27ECBBE6
:20076000F1E0F5BFE5BFE0936C00F8E1F1BDE1BD8DE0A2E0BB27ED938A95E9F780E090E12B
:20078000A0E0B1E0ED930197E9F7ECE4F7E085919591009761F0A591B59105901590BF010F
:2007A000F00105900D920197E1F7FB01F0CF8BBFEFEFEDBFE0E1EEBFC0E0D5E00C9431235E
:2007C0000E94FC2F23C00E94FC2FE6951FC00E94FC2FE695E6951AC00E94FC2FE695E695E2
:2007E000E69514C00E94FC2FE29510C00E94FC2FE295EF70E6950AC00E94FC2F0E940B3004
:2008000005C00E94FC2FEE1FE0E0EE1FE170239608951A930A9300E010E00E941030E4E005
:20082000EA930E94952EE3E80E941830E1E0EA930E94952E0E9423300E9423300E9423309F
:200840000E2F1127F801198108818CC06A937A938A939A93AA93BA93EA93FA93EFB7EA93B0
:20086000A1E1B5E00E942930A5E1B5E00E942930A9E1B5E00E942930ADE1B5E00E94293018
:20088000A1E2B5E00E942930A5E2B5E00E942930A9E2B5E00E9429301B9B26C0A7E8B5E053
:2008A0000E943230A5E8B5E00E943230A0918705B09188050E94393041F40E9443300E948C
:2008C000493031960E94E4393197A0918505B09186050E94393041F40E944E300E94543044
:2008E00031960E94E4393197E991EFBFF991E991B991A991999189917991699118951A9358
:200900000A9300E010E00E9459300E94862E8F010D5F1F4F0E9410300A930E94952EE2E8D1
:200920000E9418300E94593080E00E94D72F229619810881289608950E941030E5E0EA9340
:200940000E945E30EA81EA930E94952EE881EA930E94952EE0E0EA930E94952EEC81EA9343
:200960000E94952E269608950E9449300E9464300E946B30E1DF0E9454300E9470300E9461
:200980007730DADF089524970E94063A00E010E0EE85FF85FA93EA930E94862E8F010D5F9A
:2009A0001F4FAC85BD85119759F420E030E040E550E0E0E5F0E0E887F987E0E0EE83EF83D5
:2009C000AC85BD85129759F420E030E040E250E0E0E4F0E0E887F987E0E0EE83EF830E9484
:2009E00010300A930E945E302A930E94952E4A930E94952EEE85FF85FA93EA9380E00E9483
:200A0000D72F22960E947C30EC85FD850E9484300E94BA39A0E0B0E00E949439E02151F02B
:200A20000E948B30E1EDF0E00E9499300E9499300E949E300E947C300E94A23051F00E94D0
:200A40008B30E2EFF0E00E9499300E9499300E949E300E947C300E94AA3051F00E948B308C
:200A6000EAE0F1E00E9499300E9499300E949E300E94B2300E94A23051F00E948B30EAE035
:200A8000F1E00E9499300E9499300E949E300E94B2300E94AA3051F00E948B30E2EFF0E000
:200AA0000E9499300E9499300E949E300E940D3A609608950E9449300E94BA300E2E0E94EF
:200AC00054300E94BA300E2A0E94C0300E94BA300E2A0E94C5300E94BA300E2A0E94CA3081
:200AE0000E94BA300E2A0E94CF300E94BA300E2A0E94D4300E94BA30E029F1F00E94D93006
:200B00000E9443300E94E0300E944E30AAE0B0E0E5E0F0E00E94E439ACE0B0E00E94E439A5
:200B2000A0E0B0E00E94E730A2E0B0E00E94E730A4E0B0E00E94E73008950E94EC3040DEDB
:200B4000A0E00E948F39EF930E94EC303CDEA0E00E948F39AF91EA2329F00E94F6300E9497
:200B6000FB306F010E94F6300E9401310E9407310E9477300E940C310E94FB300E94133189
:200B80000E941C310E9425310E942C310E943131ACE0B0E00E94E439E0E2F0E00E947030BC
:200BA00038DEAAE0B0E00E94E4390E94F6300E946B302FDEA8E0B0E00E94E4390E942C315E
:200BC0000E94773026DEA6E0B0E00E94E4390E9477300E9437311DDEE0938105F0938205A2
:200BE0000E9477300E943C3114DEE0938305F09384050E9477300E9431310E9441310E94A1
:200C00006B300E94463156DF08951A930A9301E010E0002E012AA9F40E944D31EDDDE03043
:200C200029F401E010E0E0EAF0E006C000E010E00E945731E4E2F1E0FA93EA930E94663192
:200C4000E8CF0991199108951A930A930E947131B7DDE1700E2EE0910205EE7F0E947B311A
:200C6000B2DDE170EE0F0E2EE0910205ED7F0E947B31ADDDE170EE0FEE0F0E2EE0910205A0
:200C8000EB7F0E947B31A8DDE170EE0FEE0FEE0F0E2EE0910205E77F0E947B31A3DDE17096
:200CA000E295E07F0E2EE0910205EF7E0E947B319DDDE170E295E07FEE0F0E2EE09102059D
:200CC000EF7D0E947B3198DDE170E295E07FEE0FEE0F0E2EE0910205EF7B0E947B3191DDEA
:200CE000E170E795E0E0E7950E2EE0910205EF77E029E09302050E947F310E9401318F0198
:200D0000A0910205A13059F4F8010E9484300E948431EBE4F1E00E9489310E948E31A09149
:200D20000205A23071F4F8010E948430E2E0F0E0ED93FC93E3E5F1E00E9489310E94F630C8
:200D400022DEA0910205A33071F4F8010E948430E3E0F0E0ED93FC93EBE5F1E00E94893135
:200D60000E94F63010DEA0910205A43071F4F8010E948430E4E0F0E0ED93FC93E3E6F1E0C0
:200D80000E9489310E94F630FEDDA0910205A53071F4F8010E948430E5E0F0E0ED93FC93EF
:200DA000EBE6F1E00E9489310E94F630ECDDA0910205A63069F4F8010E948430E6E0F0E054
:200DC000ED93FC93E3E7F1E00E9489310E948E31A0910205A73069F4F8010E948430E7E02A
:200DE000F0E0ED93FC93EBE7F1E00E9489310E948E31A0910205A83069F4F8010E948430F8
:200E0000E8E0F0E0ED93FC93E3E8F1E00E9489310E948E31A0910205A93071F4F8010E94C1
:200E20008430E9E0F0E0ED93FC93EBE8F1E00E9489310E94F630A7DDA0910205AA3071F493
:200E4000F8010E948430EAE0F0E0ED93FC93E3E9F1E00E9489310E94F63095DDA09102052F
:200E6000AB3071F4F8010E948430EBE0F0E0ED93FC93EBE9F1E00E9489310E94F63083DD10
:200E8000A0910205AC3069F4F8010E948430ECE0F0E0ED93FC93E3EAF1E00E9489310E944B
:200EA0008E31A0910205AD3069F4F8010E948430EDE0F0E0ED93FC93EBEAF1E00E94893104
:200EC0000E948E31A0910205AE3069F4F8010E948430EEE0F0E0ED93FC93E3EBF1E00E9401
:200EE00089310E948E31A0910205AF3069F4F8010E948430EFE0F0E0ED93FC93EBEBF1E0BF
:200F00000E9489310E948E31A0910205A03171F4F8010E948430E0E1F0E0ED93FC93E3ECE8
:200F2000F1E00E9489310E94F6302DDDA0910205A13171F4F8010E948430E1E1F0E0ED93E2
:200F4000FC93EBECF1E00E9489310E94F6301BDDA0910205A23171F4F8010E948430E2E1BC
:200F6000F0E0ED93FC93E3EDF1E00E9489310E94F63009DDA0910205A33171F4F8010E94DB
:200F80008430E3E1F0E0ED93FC93EBEDF1E00E9489310E94F630F7DCA0910205A43171F4E8
:200FA000F8010E948430E4E1F0E0ED93FC93E3EEF1E00E9489310E94F630E5DCA09102057F
:200FC000A53169F4F8010E948430E5E1F0E0ED93FC93EBEEF1E00E9489310E948E31A09152
:200FE0000205A63169F4F8010E948430E6E1F0E0ED93FC93E3EFF1E00E9489310E948E3161
:20100000A0910205A73169F4F8010E948430E7E1F0E0ED93FC93EBEFF1E00E9489310E94C4
:201020008E31A0910205A83169F4F8010E948430E8E1F0E0ED93FC93E3E0F2E00E9489319B
:201040000E948E31A0910205A93171F4F8010E948430E9E1F0E0ED93FC93EBE0F2E00E9481
:2010600089310E94F6308FDCA0910205AA3171F4F8010E948430EAE1F0E0ED93FC93E3E14E
:20108000F2E00E9489310E94F6307DDCA0910205AB3171F4F8010E948430EBE1F0E0ED931D
:2010A000FC93EBE1F2E00E9489310E94F6306BDCA0910205AC3169F4F8010E948430ECE10A
:2010C000F0E0ED93FC93E3E2F2E00E9489310E948E31A0910205AD3169F4F8010E9484301B
:2010E000EDE1F0E0ED93FC93EBE2F2E00E9489310E948E31A0910205AE3169F4F8010E94D8
:201100008430EEE1F0E0ED93FC93E3E3F2E00E9489310E948E31A0910205AF3169F4F801AA
:201120000E948430EFE1F0E0ED93FC93EBE3F2E00E9489310E948E31A0910205A03271F4DE
:20114000F8010E948430E0E2F0E0ED93FC93E3E4F2E00E9489310E94F63015DCA0910205B9
:20116000A13269F4F8010E948430E1E2F0E0ED93FC93EBE4F2E00E9489310E948E31A091BF
:201180000205A23271F4F8010E948430E2E2F0E0ED93FC93E3E5F2E00E9489310E94F6305F
:2011A000F2DBA0910205A33271F4F8010E948430E3E2F0E0ED93FC93EBE5F2E00E948931FF
:2011C0000E94F630E0DBA0910205A43271F4F8010E948430E4E2F0E0ED93FC93E3E6F2E08A
:2011E0000E9489310E94F630CEDBA0910205A53271F4F8010E948430E5E2F0E0ED93FC93B9
:20120000EBE6F2E00E9489310E94F630BCDBA0910205A63269F4F8010E948430E6E2F0E01C
:20122000ED93FC93E3E7F2E00E9489310E948E31A0910205A73269F4F8010E948430E7E2C0
:20124000F0E0ED93FC93EBE7F2E00E9489310E948E31A0910205A83269F4F8010E94843090
:20126000E8E2F0E0ED93FC93E3E8F2E00E9489310E948E31A0910205A93269F4F8010E9460
:201280008430E9E2F0E0ED93FC93EBE8F2E00E9489310E948E31A0910205AA3271F4F8011C
:2012A0000E948430EAE2F0E0ED93FC93E3E9F2E00E9489310E94F63066DBA0910205AB3215
:2012C00071F4F8010E948430EBE2F0E0ED93FC93EBE9F2E00E9489310E94F63054DBA09184
:2012E0000205AC3281F4F8010E948430ECE2F0E00E9494310E949831E3EAF2E00E948931DA
:201300000E94F63040DBA0910205AD3271F4F8010E948430EDE2F0E0ED93FC93EBEAF2E0CA
:201320000E9489310E94F6302EDBA0910205AE3269F4F8010E948430EEE2F0E0ED93FC930D
:20134000E3EBF2E00E9489310E948E31A0910205AF3269F4F8010E948430EFE2F0E0ED934A
:20136000FC93EBEBF2E00E9489310E948E31A0910205A03379F4F8010E948430E0E3F0E01F
:201380000E9494310E949831E3ECF2E00E9489310E948E31A0910205A13371F4F8010E9411
:2013A0008430E1E3F0E0ED93FC93EBECF2E00E9489310E94F630E7DAA0910205A23371F4D6
:2013C000F8010E948430E2E3F0E0ED93FC93E3EDF2E00E9489310E94F630D5DAA09102056D
:2013E000A33371F4F8010E948430E3E3F0E0ED93FC93EBEDF2E00E9489310E94F630C3DA53
:20140000A0910205A43369F4F8010E948430E4E3F0E0ED93FC93E3EEF2E00E9489310E94CA
:201420008E31A0910205A53369F4F8010E948430E5E3F0E0ED93FC93EBEEF2E00E94893183
:201440000E948E31A0910205A63369F4F8010E948430E6E3F0E0ED93FC93E3EFF2E00E9480
:2014600089310E948E31A0910205A73369F4F8010E948430E7E3F0E0ED93FC93EBEFF2E03E
:201480000E9489310E948E31A0910205A83371F4F8010E948430E8E3F0E0ED93FC93E3E05B
:2014A000F3E00E9489310E94F6306DDAA0910205A93371F4F8010E948430E9E3F0E0ED930A
:2014C000FC93EBE0F3E00E9489310E94F6305BDAA0910205AA3371F4F8010E948430EAE3F0
:2014E000F0E0ED93FC93E3E1F3E00E9489310E94F63049DAA0910205AB3371F4F8010E9419
:201500008430EBE3F0E0ED93FC93EBE1F3E00E9489310E94F63037DAA0910205AC3371F41A
:20152000F8010E948430ECE3F0E0ED93FC93E3E2F3E00E9489310E94F63025DAA0910205BB
:20154000AD3369F4F8010E948430EDE3F0E0ED93FC93EBE2F3E00E9489310E948E31A091C2
:201560000205AE3369F4F8010E948430EEE3F0E0ED93FC93E3E3F3E00E9489310E948E31D1
:20158000A0910205AF3369F4F8010E948430EFE3F0E0ED93FC93EBE3F3E00E9489310E9435
:2015A0008E31A0910205A03469F4F8010E948430E0E4F0E0ED93FC93E3E4F3E00E9489311B
:2015C0000E948E31A0910205A13471F4F8010E948430E1E4F0E0ED93FC93EBE4F3E00E9401
:2015E00089310E94F630CFD9A0910205A23469F4F8010E948430E2E4F0E0ED93FC93E3E59A
:20160000F3E00E9489310E948E31A0910205A33469F4F8010E948430E3E4F0E0ED93FC93D9
:20162000EBE5F3E00E9489310E948E31A0910205A43469F4F8010E948430E4E4F0E0ED9376
:20164000FC93E3E6F3E00E9489310E948E31A0910205A53469F4F8010E948430E5E4F0E04C
:20166000ED93FC93EBE6F3E00E9489310E948E31A0910205A63471F4F8010E948430E6E46A
:20168000F0E0ED93FC93E3E7F3E00E9489310E94F63079D9A0910205A73471F4F8010E9445
:2016A0008430E7E4F0E0ED93FC93EBE7F3E00E9489310E94F63067D9A0910205A83471F44A
:2016C000F8010E948430E8E4F0E0ED93FC93E3E8F3E00E9489310E94F63055D9A0910205E8
:2016E000A93471F4F8010E948430E9E4F0E0ED93FC93EBE8F3E00E9489310E94F63043D9C7
:20170000A0910205AA3471F4F8010E948430EAE4F0E0ED93FC93E3E9F3E00E9489310E94B5
:20172000F63031D9A0910205AB3471F4F8010E948430EBE4F0E0ED93FC93EBE9F3E00E94B7
:2017400089310E94F6301FD9A0910205AC3481F4F8010E948430ECE4F0E00E9494310E948A
:201760009831E3EAF3E00E9489310E94F6300BD9A0910205AD3469F4F8010E948430EDE462
:20178000F0E0ED93FC93EBEAF3E00E9489310E948E31A0910205AE3469F4F8010E9484303F
:2017A000EEE4F0E0ED93FC93E3EBF3E00E9489310E948E31A0910205AF3469F4F8010E9407
:2017C0008430EFE4F0E0ED93FC93EBEBF3E00E9489310E948E31A0910205A03581F4F801C2
:2017E0000E948430E0E5F0E00E9494310E949831E3ECF3E00E9489310E94F630C4D8A09199
:201800000205A13571F4F8010E948430E1E5F0E0ED93FC93EBECF3E00E9489310E94F630C4
:20182000B2D8A0910205A23571F4F8010E948430E2E5F0E0ED93FC93E3EDF3E00E948931B6
:201840000E94F630A0D8A0910205A33569F4F8010E948430E3E5F0E0ED93FC93EBEDF3E03A
:201860000E9489310E948E31A0910205A43569F4F8010E948430E4E5F0E0ED93FC93E3EE75
:20188000F3E00E9489310E948E31A0910205A53569F4F8010E948430E5E5F0E0ED93FC9351
:2018A000EBEEF3E00E9489310E948E31A0910205A63569F4F8010E948430E6E5F0E0ED93E5
:2018C000FC93E3EFF3E00E9489310E948E31A0910205A73571F4F8010E948430E7E5F0E0B3
:2018E000ED93FC93EBEFF3E00E9489310E94F6304AD8A0910205A83571F4F8010E9484301D
:20190000E8E5F0E0ED93FC93E3E0F4E00E9489310E94F63038D8A0910205A93571F4F801DC
:201920000E948430E9E5F0E0ED93FC93EBE0F4E00E9489310E94F63026D8A0910205AA35CC
:2019400069F4F8010E948430EAE5F0E0ED93FC93E3E1F4E00E9489310E948E31A0910205A0
:20196000AB3569F4F8010E948430EBE5F0E0ED93FC93EBE1F4E00E9489310E948E31A0919E
:201980000205AC3589F4F8010E948430ECE5F0E00E9494310E949831E3E2F4E00E9489312B
:2019A0000E94F6300E94C304A0910205AD3569F4F8010E948430EDE5F0E0ED93FC93EBE2B2
:2019C000F4E00E9489310E948E31A0910205AE3579F4F8010E948430EEE5F0E0ED93FC93ED
:2019E000E3E3F4E00E9489310E94F6300E94C304A0910205AF3579F4F8010E948430EFE514
:201A0000F0E0ED93FC93EBE3F4E00E9489310E94F6300E94C304A0910205A03689F4F80134
:201A20000E948430E0E6F0E00E9494310E949831E3E4F4E00E9489310E94F6300E94C304C0
:201A4000A0910205A13679F4F8010E948430E1E6F0E0ED93FC93EBE4F4E00E9489310E9474
:201A6000F6300E94C304A0910205A23679F4F8010E948430E2E6F0E0ED93FC93E3E5F4E0C8
:201A80000E9489310E94F6300E94C304A0910205A33669F4F8010E948430E3E6F0E0ED93E3
:201AA000FC93EBE5F4E00E9489310E948E31A0910205A43679F4F8010E948430E4E6F0E0CE
:201AC000ED93FC93E3E6F4E00E9489310E94F6300E94C304A0910205A53669F4F8010E94C2
:201AE0008430E5E6F0E0ED93FC93EBE6F4E00E9489310E948E31A0910205A63669F4F801BC
:201B00000E948430E6E6F0E0ED93FC93E3E7F4E00E9489310E948E31A0910205A73679F4E7
:201B2000F8010E948430E7E6F0E0ED93FC93EBE7F4E00E9489310E94F6300E94C304A09146
:201B40000205A83669F4F8010E948430E8E6F0E0ED93FC93E3E8F4E00E9489310E948E31EB
:201B6000A0910205A93679F4F8010E948430E9E6F0E0ED93FC93EBE8F4E00E9489310E943F
:201B8000F6300E94C304A0910205AA3669F4F8010E948430EAE6F0E0ED93FC93E3E9F4E0A3
:201BA0000E9489310E948E31A0910205AB3689F4F8010E948430EBE6F0E00E9494310E94D9
:201BC0009831EBE9F4E00E9489310E94F6300E94C304A0910205AC3679F4F8010E94843031
:201BE000ECE6F0E0ED93FC93E3EAF4E00E9489310E94F6300E94C304A0910205AD3669F48E
:201C0000F8010E948430EDE6F0E0ED93FC93EBEAF4E00E9489310E948E31A0910205AE3641
:201C200079F4F8010E948430EEE6F0E0ED93FC93E3EBF4E00E9489310E94F6300E94C30406
:201C4000A0910205AF3689F4F8010E948430EFE6F0E00E9494310E949831EBEBF4E00E94D8
:201C600089310E94F6300E94C304A0910205A03769F4F8010E948430E0E7F0E0ED93FC9318
:201C8000E3ECF4E00E9489310E948E31A0910205A13779F4F8010E948430E1E7F0E0ED9300
:201CA000FC93EBECF4E00E9489310E94F6300E94C304A0910205A23779F4F8010E94843090
:201CC000E2E7F0E0ED93FC93E3EDF4E00E9489310E94F6300E94C304A0910205A33779F4AC
:201CE000F8010E948430E3E7F0E0ED93FC93EBEDF4E00E9489310E94F6300E94C304A09182
:201D00000205A43769F4F8010E948430E4E7F0E0ED93FC93E3EEF4E00E9489310E948E3129
:201D2000A0910205A53769F4F8010E948430E5E7F0E0ED93FC93EBEEF4E00E9489310E948D
:201D40008E31A0910205A63769F4F8010E948430E6E7F0E0ED93FC93E3EFF4E00E94893155
:201D60000E948E31A0910205A73769F4F8010E948430E7E7F0E0ED93FC93EBEFF4E00E9443
:201D800089310E948E31A0910205A83779F4F8010E948430E8E7F0E0ED93FC93E3E0F5E00F
:201DA0000E9489310E94F6300E94C304A0910205A93779F4F8010E948430E9E7F0E0ED93A2
:201DC000FC93EBE0F5E00E9489310E94F6300E94C304A0910205AA3779F4F8010E94843072
:201DE000EAE7F0E0ED93FC93E3E1F5E00E9489310E94F6300E94C304A0910205AB3779F486
:201E0000F8010E948430EBE7F0E0ED93FC93EBE1F5E00E9489310E94F6300E94C304A09163
:201E20000205AC3779F4F8010E948430ECE7F0E0ED93FC93E3E2F5E00E9489310E94F6308C
:201E40000E94C304A0910205AD3769F4F8010E948430EDE7F0E0ED93FC93EBE2F5E00E945A
:201E600089310E948E31A0910205AE3769F4F8010E948430EEE7F0E0ED93FC93E3E3F5E02F
:201E80000E9489310E948E31A0910205AF3769F4F8010E948430EFE7F0E0ED93FC93EBE338
:201EA000F5E00E9489310E948E31A0910205A03869F4F8010E948430E0E8F0E0ED93FC932D
:201EC000E3E4F5E00E9489310E948E31A0910205A13879F4F8010E948430E1E8F0E0ED93C3
:201EE000FC93EBE4F5E00E9489310E94F6300E94C304A0910205A23879F4F8010E94843054
:201F0000E2E8F0E0ED93FC93E3E5F5E00E9489310E94F6300E94C304A0910205A33869F47E
:201F2000F8010E948430E3E8F0E0ED93FC93EBE5F5E00E9489310E948E31A0910205A43832
:201F400079F4F8010E948430E4E8F0E0ED93FC93E3E6F5E00E9489310E94F6300E94C304EF
:201F6000A0910205A53869F4F8010E948430E5E8F0E0ED93FC93EBE6F5E00E9489310E9450
:201F80008E31A0910205A63869F4F8010E948430E6E8F0E0ED93FC93E3E7F5E00E94893118
:201FA0000E948E31A0910205A73879F4F8010E948430E7E8F0E0ED93FC93EBE7F5E00E94F6
:201FC00089310E94F6300E94C304A0910205A83869F4F8010E948430E8E8F0E0ED93FC93A3
:201FE000E3E8F5E00E9489310E948E31A0910205A93879F4F8010E948430E9E8F0E0ED938E
:20200000FC93EBE8F5E00E9489310E94F6300E94C304A0910205AA3869F4F8010E94843036
:20202000EAE8F0E0ED93FC93E3E9F5E00E9489310E948E31A0910205AB3869F4F8010E947E
:202040008430EBE8F0E0ED93FC93EBE9F5E00E9489310E948E31A0910205AC3879F4F80132
:202060000E948430ECE8F0E0ED93FC93E3EAF5E00E9489310E94F6300E94C304A0910205F0
:20208000AD3869F4F8010E948430EDE8F0E0ED93FC93EBEAF5E00E9489310E948E31A09163
:2020A0000205AE3879F4F8010E948430EEE8F0E0ED93FC93E3EBF5E00E9489310E94F630FB
:2020C0000E94C304A0910205AF3879F4F8010E948430EFE8F0E0ED93FC93EBEBF5E00E94B9
:2020E00089310E94F6300E94C304A0910205A03969F4F8010E948430E0E9F0E0ED93FC9390
:20210000E3ECF5E00E9489310E948E31F801099119910895E881F9810E9484300E94BA39B6
:20212000309741F40E945731EBECF5E00E949D310C94F218E130A0E0FA0751F4E8ECF0E038
:202140000E94A0310E94A7310E94AE310C94D918E230A0E0FA0771F4E0E1F1E00E94A03183
:202160000E94BD310E94C2310E94BD310E94D1310C94DF18E330A0E0FA0761F4EAE7F0E0E5
:202180000E94A0310E94A7310E94D6310E94DF310C94DF18E430A0E0FA0761F4E2E0F1E0E3
:2021A0000E94A0310E94A7310E94E8310E94DF310C94DF18E530A0E0FA0759F4E0EBF0E0B0
:2021C0000E94A0310E94A7310E94AE310E94F131F6C7E630A0E0FA0759F4EEEFF0E00E94DD
:2021E000A0310E94BD310E94C231A0E1B0E0E1C7E730A0E0FA0749F4E8E7F0E00E94A03149
:202200000E94A7310E94D631CEC7E830A0E0FA0749F4E0ECF0E00E94A0310E94A7310E9405
:20222000E831C1C7E930A0E0FA0769F4E8E1F0E00E94A0310E94A7310E94E8310E94F431FE
:202240000E94F131BCC7EA30A0E0FA0759F4E6E1F0E00E94A0310E94A7310E94FB310E945B
:20226000DF31ADC7EB30A0E0FA0759F4E4E7F0E00E94A0310E94A7310E9404320E94DF31DF
:202280009EC7EC30A0E0FA0749F4E6E9F0E00E94A0310E94A7310E940D3285C7ED30A0E0A9
:2022A000FA0759F4EAE1F0E00E94A0310E94A7310E94E8310E94F4317CC7EE30A0E0FA07E4
:2022C00049F4EEE5F0E00E94A0310E94A7310E94FB3169C7EF30A0E0FA0749F4E4E8F0E0BA
:2022E0000E94A0310E94A7310E9404325CC7E031A0E0FA0749F4E8EBF0E00E94A0310E946F
:20230000A7310E9416325BC7E131A0E0FA0759F4E0E2F0E00E94A0310E94A7310E94AE31F9
:202320000E94F1314CC7E231A0E0FA0769F4E8E9F0E00E94A0310E94BD310E941F320E949C
:20234000BD310E94D1313BC7E331A0E0FA0759F4EAEAF0E00E94A0310E94A7310E942E3274
:202360000E9435322CC7E431A0E0FA0769F4E2E4F0E00E94A0310E94A7310E942E320E9447
:2023800038320E94F1311BC7E531A0E0FA0749F4EEE4F0E00E94A0310E94A7310E94AE3149
:2023A00008C7E631A0E0FA0759F4E2ECF0E00E94A0310E94BD310E941F32A0E1B0E0F9C605
:2023C000E731A0E0FA0759F4EEECF0E00E94A0310E94A7310E942E32A9E9B1E0E4C6E83198
:2023E000A0E0FA0759F4E0E4F0E00E94A0310E94A7310E942E320E943832DBC6E931A0E045
:20240000FA0759F4EEE2F0E00E94A0310E94A7310E94FB310E94DF31D2C6EA31A0E0FA072D
:2024200059F4EAEFF0E00E94A0310E94A7310E9441320E94F131C3C6EB31A0E0FA0749F47D
:20244000ECE6F0E00E94A0310E94A7310E941632B6C6EC31A0E0FA0749F4E4EAF0E00E946C
:20246000A0310E94A7310E940D329DC6ED31A0E0FA0749F4EAE2F0E00E94A0310E94A73168
:202480000E94FB3190C6EE31A0E0FA0749F4E4E9F0E00E94A0310E94A7310E94413289C64D
:2024A000EF31A0E0FA0759F4EEE6F0E00E94A0310E94A7310E944A32A9E9B1E074C6E03210
:2024C000A0E0FA0759F4E6E8F0E00E94A0310E94A7310E940D320E94DF3171C6E132A0E046
:2024E000FA0749F4EEE8F0E00E94A0310E94A731A0E2B0E052C6E232A0E0FA0759F4EAE530
:20250000F0E00E94A0310E94A7310E9451320E94583255C6E332A0E0FA0759F4EAEDF0E008
:202520000E94A0310E94A7310E945B320E94F13146C6E432A0E0FA0759F4E2EAF0E00E948D
:20254000A0310E9462320E94BD310E94D13137C6E532A0E0FA0759F4E4E0F1E00E94A03156
:202560000E94A7310E9451320E94753228C6E632A0E0FA0759F4E6E3F0E00E94A0310E94F1
:20258000A7310E945132A6E9B1E00DC6E732A0E0FA0749F4E8E1F1E00E94A0310E94A731ED
:2025A0000E945B3206C6E832A0E0FA0749F4E6EAF0E00E94A0310E946232A0E1B0E0F9C530
:2025C000E932A0E0FA0759F4EEE1F0E00E94A0310E94A7310E94E8310E94F431EAC5EA3239
:2025E000A0E0FA0759F4ECE5F0E00E94A0310E94BD310E9478320E94F131E1C5EB32A0E016
:20260000FA0759F4E2E6F0E00E94A0310E94A7310E944A320E945832D2C5EC32A0E0FA0767
:2026200019F40E948332CBC5ED32A0E0FA0769F4E0E1F0E00E94A0310E94A7310E94E83170
:202640000E94F4310E94F131BAC5EE32A0E0FA0749F4E0E5F0E00E94A0310E94BD310E9458
:202660007832A7C5EF32A0E0FA0759F4E8E6F0E00E94A0310E94A7310E944A32A6E9B1E08C
:2026800092C5E033A0E0FA0719F40E94833297C5E133A0E0FA0759F4E4E2F0E00E94A031A4
:2026A0000E94A7310E94E8310E94DF3188C5E233A0E0FA0759F4E4E1F0E00E94A0310E9459
:2026C000A7310E945B320E94F13179C5E333A0E0FA0759F4E2E8F0E00E94A0310E94A73186
:2026E0000E9499320E9475326AC5E433A0E0FA0749F4E6E0F1E00E94A0310E94A7310E94FA
:20270000A03257C5E533A0E0FA0749F4ECE4F0E00E94A0310E94A7310E94E83144C5E6338B
:20272000A0E0FA0749F4ECE1F0E00E94A0310E94A7310E945B323DC5E733A0E0FA0749F448
:20274000E4E1F1E00E94A0310E94A731AAE1B0E024C5E833A0E0FA0759F4EEEEF0E00E94BB
:20276000A0310E94A7310E94A0320E94F13127C5E933A0E0FA0759F4E8EFF0E00E94A031E6
:202780000E94A7310E94AF320E94F13118C5EA33A0E0FA0759F4E4EEF0E00E94A0310E94F9
:2027A000A7310E944A320E94583209C5EB33A0E0FA0759F4E2E5F0E00E94A0310E94A731B9
:2027C0000E94B8320E943532FAC4EC33A0E0FA0779F4E0E9F0E00E94A0310E94A7310E9471
:2027E000BF32A0E9B1E00E94F4310E94F131E7C4ED33A0E0FA0749F4ECEFF0E00E94A0319C
:202800000E94A7310E944132D4C4EE33A0E0FA0759F4E8E2F0E00E94A0310E94A7310E9479
:202820004A32A6E9B1E0BFC4EF33A0E0FA0759F4E4E3F0E00E94A0310E94A7310E94B83279
:20284000A9E9B1E0B0C4E034A0E0FA0749F4ECEEF0E00E94A0310E94A7310E94AF32A9C488
:20286000E134A0E0FA0759F4ECECF0E00E94A0310E94A7310E94C6320E94DF31A0C4E2341A
:20288000A0E0FA0759F4ECEBF0E00E94A0310E94A7310E94B8320E94CF328BC4E334A0E0C1
:2028A000FA0759F4ECE9F0E00E94A0310E94A7310E94B832A6E9B1E076C4E434A0E0FA07B9
:2028C00049F4ECE7F0E00E94A0310E94A7310E940D3269C4E534A0E0FA0749F4E2EDF0E0A7
:2028E0000E94A0310E94A7310E94C6325CC4E634A0E0FA0769F4E6EEF0E00E94A0310E9480
:20290000A7310E94B8320E94CF320E94F13157C4E734A0E0FA0759F4E4EBF0E00E94A031D6
:202920000E94A7310E94B8320E94583248C4E834A0E0FA0759F4ECEAF0E00E94A0310E94B4
:20294000A7310E940D320E94DF3139C4E934A0E0FA0769F4E2E1F0E00E94A0310E94BD317E
:20296000E9E6F5E00E9499320E94583228C4EA34A0E0FA0759F4E2EBF0E00E94A0310E9490
:20298000A7310E94E8310E94DF3119C4EB34A0E0FA0759F4ECE0F1E00E94A0310E94A7319E
:2029A0000E9451320E9458320AC4EC34A0E0FA0719F40E94833203C4ED34A0E0FA0769F42D
:2029C000E6E2F0E00E94A0310E94BD31E9E6F5E00E949932A6E9B1E0E6C3EE34A0E0FA07DF
:2029E00059F4ECE1F1E00E94A0310E94A7310E94D232A6E9B1E0D7C3EF34A0E0FA0759F4AE
:202A0000E2E1F1E00E94A0310E94A7310E945132A6E9B1E0C8C3E035A0E0FA0719F40E9420
:202A20008332CDC3E135A0E0FA0759F4EAEEF0E00E94A0310E94A7310E94D9320E94DF3179
:202A4000BEC3E235A0E0FA0759F4E8EDF0E00E94A0310E94A7310E94E2320E94DF31AFC3A4
:202A6000E335A0E0FA0769F4ECE8F0E00E94A0310E94A731A2E2B0E00E94EB32A9E9B1E0D9
:202A800092C3E435A0E0FA0759F4E0EAF0E00E94A0310E94F0320E94F932A0E1B0E089C3FF
:202AA000E535A0E0FA0749F4EEEAF0E00E94A0310E94A7310E94D93276C3E635A0E0FA0727
:202AC00049F4E6EFF0E00E94A0310E94A7310E94E23269C3E735A0E0FA0759F4E4ECF0E0BB
:202AE0000E94A0310E94A7310E9400330E94353266C3E835A0E0FA0769F4EEE7F0E00E94A0
:202B0000A0310E94F0320E94F9320E94BD310E94D13155C3E935A0E0FA0759F4ECE2F0E07D
:202B20000E94A0310E94A7310E94BF320E94583246C3EA35A0E0FA0749F4E0EFF0E00E94C2
:202B4000A0310E94A7310E94AE3133C3EB35A0E0FA0759F4E8EAF0E00E94A0310E94A73136
:202B60000E944A32A9E9B1E01EC3EC35A0E0FA0719F40E94833223C3ED35A0E0FA0759F457
:202B8000E0E3F0E00E94A0310E94A7310E94BF32A6E9B1E008C3EE35A0E0FA0759F4E4EF73
:202BA000F0E00E94A0310E94A7310E94AE310E94F13105C3EF35A0E0FA0749F4EEE9F0E0C2
:202BC0000E94A0310E94A7310E941632F8C2E036A0E0FA0719F40E948332F1C2E136A0E01F
:202BE000FA0759F4EAE6F0E00E94A0310E94A7310E940D320E94DF31E2C2E236A0E0FA072A
:202C000069F4EEEBF0E00E94A0310E94A7310E94D6310E9403330E94F131D1C2E336A0E050
:202C2000FA0759F4EAEBF0E00E94A0310E94A7310E94D232A9E9B1E0B6C2E436A0E0FA07D8
:202C400059F4E0E6F0E00E94A0310E94A7310E94E8310E94DF31B3C2E536A0E0FA0749F4E9
:202C6000E0E7F0E00E94A0310E94A7310E940D329AC2E636A0E0FA0759F4EAE8F0E00E9465
:202C8000A0310E94A7310E94D6310E94033391C2E736A0E0FA0759F4E0E8F0E00E94A0311F
:202CA0000E94A7310E94D2320E94353288C2E836A0E0FA0749F4E6EBF0E00E94A0310E940F
:202CC000A7310E94E8316FC2E936A0E0FA0769F4E4E4F0E00E94A0310E94A7310E940A33CF
:202CE0000E9438320E94F1316AC2EA36A0E0FA0749F4EAE3F0E00E94A0310E94A7310E94CE
:202D00005B3257C2EB36A0E0FA0719F40E94833256C2EC36A0E0FA0769F4E6ECF0E00E94AB
:202D2000A0310E94A7310E94B8320E94CF320E94F13145C2ED36A0E0FA0759F4EAE0F0E0C3
:202D40000E94A0310E94BD310E94C231A0E1B0E030C2EE36A0E0FA0759F4E2E3F0E00E94AF
:202D6000A0310E94A7310E945B320E94F13127C2EF36A0E0FA0719F40E94833220C2E03729
:202D8000A0E0FA0759F4E2EEF0E00E94A0310E94A7310E94B8320E94CF320BC2E137A0E044
:202DA000FA0769F4E4EDF0E00E94A0310E94A7310E940D330E94CF320E94F13100C2E23703
:202DC000A0E0FA0779F4EAE4F0E00E94A0310E94BD310E9410330E94F932AFE0B0E00E94F1
:202DE000F131EDC1E337A0E0FA0769F4E6E7F0E00E94A0310E941333ACE9B1E00E94F43126
:202E00000E94F131DCC1E437A0E0FA0759F4E2E9F0E00E94A0310E94A7310E945132A6E92C
:202E2000B1E0C1C1E537A0E0FA0759F4EAE1F1E00E94A0310E94A7310E940D330E94CF3287
:202E4000B8C1E637A0E0FA0759F4E6E5F0E00E94A0310E94BD310E9410330E94CF32A9C17E
:202E6000E737A0E0FA0759F4E2E7F0E00E94A0310E941333ACE9B1E00E94F4319AC1E8370B
:202E8000A0E0FA0759F4E0EDF0E00E94A0310E94A7310E9451320E94583291C1E937A0E097
:202EA000FA0769F4E8E4F0E00E94A0310E94BD310E9410330E94CF320E94F13180C1EA3767
:202EC000A0E0FA0759F4EAE9F0E00E94A0310E94A7310E94D2320E94583271C1EB37A0E0EE
:202EE000FA0769F4E6E4F0E00E94A0310E94BD310E941A330E941F330E94F13160C1EC37EC
:202F0000A0E0FA0789F4E0EEF0E00E94A0310E942833A5E1B0E00E94EB320E94F932A3E17F
:202F2000B0E00E94F1314BC1ED37A0E0FA0759F4E8E3F0E00E94A0310E94A7310E94D23211
:202F40000E94CF3236C1EE37A0E0FA0759F4EAECF0E00E94A0310E94A7310E94D232A6E91C
:202F6000B1E021C1EF37A0E0FA0759F4EEEDF0E00E94A0310E94BD310E941A330E941F3359
:202F800018C1E038A0E0FA0769F4E6E1F1E00E94A0310E94BD31E9E6F5E00E94D6310E94D8
:202FA0002F3307C1E138A0E0FA0779F4E8EEF0E00E94A0310E9428330E943633A9E9B1E09C
:202FC0000E942F330E94F131FAC0E238A0E0FA0769F4E2EFF0E00E94A0310E9439330E94B3
:202FE000F9320E94BD310E94D131E9C0E338A0E0FA0749F4E8E0F1E00E94A0310E94A7316A
:20300000AFE1B0E0CAC0E438A0E0FA0759F4E4E6F0E00E94A0310E94A7310E94B8320E9467
:203020007532CDC0E538A0E0FA0769F4E8E8F0E00E94A0310E9428330E943633A9E9B1E023
:203040000E942F33B6C0E638A0E0FA0759F4EEE0F1E00E94A0310E9439330E94F932A0E19C
:20306000B0E0A7C0E738A0E0FA0759F4E4E5F0E00E94A0310E94A7310E940A330E947532BE
:203080009EC0E838A0E0FA0779F4EEE3F0E00E94A0310E94BD31E9E6F5E00E9436330E94CF
:2030A0004033A0E1B0E085C0E938A0E0FA0759F4ECE0F0E00E94A0310E94A7310E945B32A0
:2030C0000E94F1317CC0EA38A0E0FA0759F4ECEDF0E00E94A0310E94BD31E9E6F5E00E940E
:2030E000AE3167C0EB38A0E0FA0759F4E8E5F0E00E94A0310E94A7310E940D33A6E9B1E04D
:2031000052C0EC38A0E0FA0779F4ECE3F0E00E94A0310E94BD310E941A330E9440330E9443
:20312000BD310E94D1314BC0ED38A0E0FA0749F4EEE0F0E00E94A0310E94A7310E945B3255
:2031400038C0EE38A0E0FA0769F4EAE0F1E00E94A0310E94BD31E9E6F5E00E94AE310E940E
:20316000F1312DC0EF38A0E0FA0759F4E2E2F0E00E94A0310E94A7310E940D330E945832BC
:203180001EC0E039A0E0FA0769F5E6E6F0E00E94A0310E94A731ACE1B0E0A083B183EBE68B
:2031A000F5E0ACE9B1E0A083B183EFE6F5E0A2E1B0E0A083B183E3E7F5E0A1E0B0E0A083D6
:2031C000B1830E9447333196E0936305F09364050E944C33E0936505F09366050E945133FF
:2031E0000E945633A0917905B0917A05D29739F40E9465333597E0936705F09368050E9428
:20320000D430A0E0B0E00E9494390E2E0E946A330E946F33E02939F00E9474333597E093B2
:203220006F05F09370050E947933989739F40E944C337396E0936905F0936A050E947E3328
:203240000E946F330E9483330E948B330E94833339F00E94513370960E9491330E94563334
:203260000E9496330E94833339F00E945133B0960E9491330E9456330E949C330E9483339C
:2032800039F00E945133F0960E9491330E9456330E947E330E946F330E94A23339F00E94EF
:2032A0005133F9960E9491330E9456330E948B330E94A23341F00E945133EE5BFF4F0E9403
:2032C00091330E9456330E9496330E94A23341F00E945133E55BFF4F0E9491330E945633A7
:2032E0000E949C330E94A23341F00E945133EC5AFF4F0E9491330E945633229608950E9473
:20330000CA30FA93EA930E9477300E94AA330E94CF300E94B0330E946B300E949C040E949A
:20332000D430FA93EA93E0E3F0E00E9464300E949C04E0917905F0917A050E94B0330E945E
:2033400037310E949C04E0917B05F0917C050E94B0330E943C310E949C04E0917D05F09186
:203360007E05FA93EA93E0E3F0E00E9470300E949C04E0917F05F09180050E94B0330E9487
:20338000B3330E94C5300E9470300E94B3330E94C030FA93EA93E0E2F0E00E9470300E94D4
:2033A0009C040E9449300E9464300E946B300E949C040E9454300E9470300E9477300E944A
:2033C0009C0408950C2C0D28A1F40E945731E0EEF5E00E949D310E94B933E0EEF5E00E949E
:2033E000C8330E94D5330E94F6300E94FB306F01E9CF0E94EC300E94DB33EF930E94EC30BD
:203400000E94E133AF91EA2BA1F7929A0E94D533C49A0E944D310E94E733EF930E94ED33B5
:203420000E94E733AF91EA2BEF930E94F7330E94E733AF91EA2BEF930E94F7330E940134F7
:20344000AF91EA2B11F40C94D41A0E94EC300E94DB33EF930E94EC300E94E133AF91EA2BCB
:2034600011F0979AFECF0E945731E9E0F6E00E949D310E94B933E9E0F6E00E94C8330E94A8
:20348000D5330E944D310E94EC03E03041F40E945731E8E2F6E00E949D310E94D5330E94A8
:2034A000ED330E94EC03E03041F40E94B933E7E4F6E00E94C8330E94D5330E94F7330E9432
:2034C000EC03E03041F40E945731E6E6F6E00E949D310E94D5330E94F7330E940104E0304F
:2034E00041F40E94B933E5E8F6E00E949D310E94D5330E94EC300E940104E13009F4979AA8
:203500000E94EC300E940734EF930E94EC300E940134AF91EA2BEF930E944D310E940D341F
:20352000AF91EA2BEF930E94ED330E940D34AF91EA2BC9F1979A0E94EC300E94FC03E1305F
:2035400041F40E945731E4EAF6E00E949D310E94D5330E94EC300E940104E13041F40E9401
:203560005731E6EBF6E00E949D310E94D5330E944D310E94F603E13041F40E945731E8EC03
:20358000F6E00E949D310E94D5330E94ED330E94F603E13041F40E945731EAEDF6E00E941F
:2035A0009D310E94D53335CF0E945731ECEEF6E00E949D310E94B933ECEEF6E00E94C8336A
:2035C0009298C4980E94D5330E9413340E94AA33CC24DD2408950E94ED330E94FC03A0E0E2
:2035E0000E948F39EF930E94ED330E940104A0E00E948F39AF910E9416340E941D34E0216C
:2036000031F0E1E0F0E0E0935D05F0935E050E94ED330E940734EF930E94ED330E94013483
:20362000AF910E9416340E946F33E02131F0E2E0F0E0E0935D05F0935E050E942234E1E0F2
:203640000E948F39E02119F01E980E942F340E942234E0E00E948F39E02119F01E9A0E94B5
:203660002F3408951A930A93A0912105B09122058091230590912405AD33E0E0BE07E0E099
:203680008E07E0E09E0714F40C948E1B0E943A34F501D4010E94A639EF930E9471310E941B
:2036A000DB33EF930E9471310E94E133AF91EA2BEF930E9471310E94E703A1E00E948F39EE
:2036C000AF91EA2BEF930E9471310E94E733AF91EA2BEF930E9471310E94F203A1E00E943E
:2036E0008F39AF91EA2BEF930E9471310E940D34AF91EA2BEF930E9471310E940734AF91CC
:20370000EA2BEF930E9471310E940134AF91EA2BAF91EA2319F0F40131964F01A814B904C7
:20372000F1F40E9424068F010E943A34F40131964F01E1E0F0E0E017F10731F4E2E0F0E0F5
:203740000E94B0330E944434E2E0F0E0E017F10731F4E1E0F0E00E94B0330E944434F501FE
:203760003196E815F90511F4882499240991199108950E944D310E94F603E13019F4979A2E
:203780001A981B98E0913105F0913205309711F00C940F1C0E944A34E881E0930905E17077
:2037A00011F4D89801C0D89AE0910905E27011F4D99801C0D99AE0910905E47011F4DA989C
:2037C00001C0DA9AE0910905E87011F4DB9801C0DB9AE0910905E07111F4DC9801C0DC9AAF
:2037E000E0910905E07211F4DD9801C0DD9AE0910905E07411F4DE9801C0DE9AE091090540
:20380000E07811F4DF9801C0DF9AA881B981A030E1E0BE070CF0949AE1E0F0E047C0E1300E
:20382000A0E0FA0789F4A0911105B091120580911305909114050E9454342CF0939AE2E053
:20384000F0E00E945C3436C0E230A0E0FA0789F40E944D310E94E003E03051F49398E0E07B
:20386000EBBB94980E944A34E3E0F0E00E945C3421C0E330A0E0FA0769F40E944D310E94FD
:20388000EC03E03031F40E944A34E4E0F0E00E945C3410C0E430A0E0FA0761F40E944D3144
:2038A0000E94E003E13031F4E5E0F0E0E0933105F0933205E0913105F091320576C10E941D
:2038C000ED330E94F603E13019F4979A1A981B98E0913505F0913605309711F00C94B51CD9
:2038E0000E946134E881E0930A05E17011F4A89801C0A89AE0910A05E27011F4A99801C034
:20390000A99AE0910A05E47011F4AA9801C0AA9AE0910A05E87011F4AB9801C0AB9AE091AD
:203920000A05E07111F4AC9801C0AC9AE0910A05E07211F4AD9801C0AD9AE0910A05E074DF
:2039400011F4AE9801C0AE9AE0910A05E07811F4AF9801C0AF9AA881B981A030E1E0BE072C
:203960000CF0959AE1E0F0E047C0E130A0E0FA0789F4A0911905B0911A0580911B05909174
:203980001C050E9454342CF0969AE2E0F0E00E946B3436C0E230A0E0FA0789F40E94ED33F5
:2039A0000E94E003E03051F49698E0E0E5BB95980E946134E3E0F0E00E946B3421C0E33073
:2039C000A0E0FA0769F40E94ED330E94EC03E03031F40E946134E4E0F0E00E946B3410C0A5
:2039E000E430A0E0FA0761F40E94ED330E94E003E13031F4E5E0F0E0E0933505F093360560
:203A0000E0913505F0913605D0C00E94EC300E940104E13019F4979A1A981B98E0913305ED
:203A2000F0913405309711F00C945B1DE881E0930705E1700E2EE0910005EE7F0E9470344E
:203A4000E695E170EE0F0E2EE0910005ED7F0E947034E695E695E170EE0FEE0F0E2EE0914B
:203A60000005EB7F0E947034E695E695E695E170EE0FEE0FEE0F0E2EE0910005E77F0E941E
:203A80007034E295E170E795E0E0E7950E2EE0910005EF77E0290E947634E0910705E072C6
:203AA00011F4C79801C0C79A0E947B34E1E0F0E00E94853476C0E130A0E0FA07A9F4A091AD
:203AC0001505B091160580911705909118050E9454344CF0E0910005E0620E947634E2E0D9
:203AE000F0E00E9485345DC0E230A0E0FA0721F50E94F7330E94E003E030E9F4E091000521
:203B0000EF7D0E947634E0910005EE7F0E948A34ED7F0E948A34EB7F0E948A34E77F0E940C
:203B20008A34EF770E947634C7980E947B34E3E0F0E00E94853435C0E330A0E0FA0769F491
:203B40000E94F7330E94EC03E03031F40E947B34E4E0F0E00E94853424C0E430A0E0FA071A
:203B600001F50E94F7330E94E003E130D1F4E5E0F0E00E948534E0914105F09142053097F2
:203B800039F4E1E0F0E0E0934105F093420509C0E130A0E0FA0729F4E0E0E0934105E09380
:203BA0004205E0913305F0913405229608950E94EC300E94FC03E13019F4979A1A981B98F3
:203BC000E0913705F0913805309781F5EA81E0930805E17011F4C09801C0C09AE09108050B
:203BE000E27011F4C19801C0C19AE0910805E47011F4C29801C0C29AE0910805E87011F4D0
:203C0000C39801C0C39AE0910805E07111F41C9801C01C9AE0910805E07211F41D9801C0E1
:203C20001D9A0E948D34E1E0F0E04FC0E130A0E0FA0789F4A0911D05B0911E0580911F05CF
:203C4000909120050E9454342CF0C59AE2E0F0E00E9497343EC0E230A0E0FA07A1F40E94B2
:203C6000F7330E94F203E03069F4C598C098C198C298C3981C981D980E948D34E3E0F0E0F4
:203C80000E94973426C0E330A0E0FA0791F40E94F7330E940104E03059F4A881B9811197DD
:203CA00009F41A9A0E948D34E4E0F0E00E94973410C0E430A0E0FA0761F40E94F7330E94C7
:203CC000F203E13031F4E5E0F0E0E0933705F0933805E0913705F0913805249608956897F4
:203CE0000E94063A20E030E000E010E040E050E04B30E0E05E0744F4FA010E949C340E94CB
:203D000098314F5F5F4FF4CFE1E9F0E0E0939105F09392050E9477300E940131E0939105D8
:203D2000F0939205A0919105B0919205A139E0E0BE0761F0E0919105F0919205E0930D0576
:203D4000F0930E05E0930F05F09310050E94A3340E946F330E2E0E94A8340E941D340E94A2
:203D6000AD340E94BE340E94C83411F40C94F11F0E94A334119711F00C94F11FF8013097E9
:203D800049F40E94D2340E94D8340E94D23401E010E026C1E130A0E0FA07C1F40E94EB3428
:203DA000159724F40E94F6300E94F0340E94F334159724F40E9413340E94F8340E94FB349C
:203DC00021F00E94083502E010E00AC1E230A0E0FA07C1F40E941235159724F40E94F63099
:203DE0000E9417350E941A35159724F40E941F350E9424350E94273521F00E94343503E032
:203E000010E0EEC0E330A0E0FA0789F40E941235159724F40E943E350E9417350E9412355A
:203E2000159721F40E94343504E010E0D9C0E430A0E0FA0789F40E94EB34159724F40E9410
:203E40004C330E9442350E94EB34159721F40E94343505E010E0C4C0E530A0E0FA0711F04D
:203E60000C94AE1F0E9477300E9437310E9409049F01022E032A11F40AE912E00E944535D0
:203E800021F00E944C350E9484310E9450350E22AC85BD850E941D34E02121F00E944C35A5
:203EA0000E9484310E9459350E22AE85BF850E941D34E02121F00E944C350E9484310E94B3
:203EC00062350E22A889B9890E941D34E02121F00E944C350E9484310E946B350E22AA8984
:203EE000BB890E941D34E02121F00E944C350E9484310E9474350E22AC89BD890E941D3416
:203F0000E02121F00E944C350E9484310E947D350E22AE89BF890E941D34E02121F00E946B
:203F20004C350E9484310E9486350E22A88DB98D0E941D34E02121F00E944C350E94843122
:203F40000E948F350E22AA8DBB8D0E941D34E02121F00E944C350E94843142C0E630A0E035
:203F6000FA0789F40E94EB34159724F40E94F6300E94F0340E94EB34159721F40E94343523
:203F800007E010E02DC0E730A0E0FA0779F40E941235159714F40E9498350E9412351597B7
:203FA00021F40E94343504E010E01AC0EA39A2E0FA07B1F40E94EB34159724F40E94F6309B
:203FC0000E94F0340E94EB34159751F40E94083504E610E0E0E0E0938105E0938205C498A1
:203FE000C7CE0E94A3340E941D340E2E0E94A8340E946F330E94AD340E949D350E94A23552
:204000000E220E94A735E02111F40C9440210E94A834119711F00C944021F801309749F4C6
:204020000E94B0350E94D8340E94B03501E010E026C1E130A0E0FA07C1F40E94EB34159758
:2040400024F40E94F6300E94F0340E94F334159724F40E9413340E94F8340E94FB3421F094
:204060000E94083502E010E00AC1E230A0E0FA07C1F40E941235159724F40E94B6350E94A0
:2040800017350E941A35159724F40E94BB350E9424350E94273521F00E94343503E010E0A5
:2040A000EEC0E330A0E0FA0789F40E941235159724F40E94C0350E9417350E94123515977A
:2040C00021F40E94343504E010E0D9C0E430A0E0FA0789F40E94EB34159724F40E944C339B
:2040E0000E9442350E94EB34159721F40E94343505E010E0C4C0E530A0E0FA0711F00C948A
:20410000FD200E9477300E943C310E9409049F01022E032A11F40AE912E00E94453521F067
:204120000E944C350E9484310E9450350E22AC85BD850E941D34E02121F00E944C350E9471
:2041400084310E9459350E22AE85BF850E941D34E02121F00E944C350E9484310E9462351B
:204160000E22A889B9890E941D34E02121F00E944C350E9484310E946B350E22AA89BB8934
:204180000E941D34E02121F00E944C350E9484310E9474350E22AC89BD890E941D34E021B6
:2041A00021F00E944C350E9484310E947D350E22AE89BF890E941D34E02121F00E944C3549
:2041C0000E9484310E9486350E22A88DB98D0E941D34E02121F00E944C350E9484310E945F
:2041E0008F350E22AA8DBB8D0E941D34E02121F00E944C350E94843142C0E630A0E0FA0734
:2042000089F40E94EB34159724F40E94F6300E94F0340E94EB34159721F40E94343507E09A
:2042200010E02DC0E730A0E0FA0779F40E941235159714F40E9498350E941235159721F4E6
:204240000E94343504E010E01AC0EA39A2E0FA07B1F40E94EB34159724F40E94F6300E946B
:20426000F0340E94EB34159751F40E94083504E610E0C498E0E0E0938305E0938405C7CE07
:204280000E940D3A6E9608950E9449300F010E94C5300E161F069CF0E0910005E0640E94A1
:2042A00076340E94C7350E94CC350E947F04EFE0F7E0FA93EA930E94CC350E947F040E94D4
:2042C00054300F010E94C0300E161F069CF0E0910005E0640E9476340E94C7350E94CF3599
:2042E0000E947F04EAE2F7E0FA93EA930E94CF350E947F04089524970E94063AE0E0EE83B6
:20430000EF830E9477300E947F310E9409048F010E9477300E9477300E940904AF01E1E09F
:20432000F0E0E017F10711F00C945722EE81FF81309741F40E943435C49AE1E0F0E0EE834E
:20434000FF83B4C0E130A0E0FA07D1F40E94EB34159724F40E94F6300E94F0340E94F33434
:20436000159724F40E9413340E94F8340E94FB3431F00E940835E2E0F0E0EE83FF8396C016
:20438000E230A0E0FA07C1F40E941235159724F40E94D2350E9417350E941A35159724F4DC
:2043A0000E94D2350E9424350E94273521F00E9434350E94D7357AC0E330A0E0FA0711F0C2
:2043C0000C942E220E94EB34159724F4E2E0F0E00E9442350E94F334159734F4E2E0F0E08E
:2043E0000E9464300E94F8340E94FB34B1F10E9408350E9477300E947F310E940904E887AE
:20440000F987309711F4C49A24C0E130A0E0FA0721F40E94D735C49820C0E230A0E0FA07EA
:20442000E1F4C49AE1E0F0E0E0937505F0937605E0910005EF7B0E9476340E9443300E94EA
:20444000D9300E94B4040E94C7350E94CC350E947F04E4E0F0E0EE83FF8328C0E430A0E090
:20446000FA0721F50E94EB34159724F40E94F6300E94F0340E94F334159724F40E9413349C
:204480000E94F8340E94FB3489F00E9434350E94F6300E9477300E947F310E949C04C498F8
:2044A000E5E0F0E0EE83FF8300E010E038CF0E9477300E9477300E940904AF01E0E0EE837B
:2044C000EF83E1E0F0E0E417F50711F00C942D23EE81FF81309741F40E943435C49AE1E0DC
:2044E000F0E0EE83FF83B8C0E130A0E0FA07D1F40E94EB34159724F40E94F6300E94F03417
:204500000E94F334159724F40E9413340E94F8340E94FB3431F00E940835E2E0F0E0EE8383
:20452000FF839AC0E230A0E0FA07C1F40E941235159724F40E94D2350E9417350E941A3522
:20454000159724F40E94D2350E9424350E94273521F00E9434350E94D7357EC0E330A0E05A
:20456000FA0711F00C9404230E94EB34159724F4E2E0F0E00E9442350E94F334159734F4A5
:20458000E2E0F0E00E9464300E94F8340E94FB34D1F10E9408350E9477300E9477300E94DF
:2045A00009049F01F901309731F4E4E0F0E0EE83FF83C49A28C0E130A0E0FA0721F4C49898
:2045C0000E94D73520C0E230A0E0FA07E1F4E4E0F0E0EE83FF83E1E0F0E0E0937705F0935B
:2045E0007805C49AE0910005EF7B0E9476340E944E300E94E0300E94B4040E94C7350E9448
:20460000CF350E947F0428C0E430A0E0FA0721F50E94EB34159724F40E94F6300E94F034CB
:204620000E94F334159724F40E9413340E94F8340E94FB3489F00E943435E5E0F0E0EE83DB
:20464000FF830E94F6300E9477300E9477300E949C04C49840E050E034CF0E940D3A2A96E4
:204660000895E0E0EBBBEFEFEABBE0E0E8BBEFEFE7BBE0E0E5BBEFEFE4BBE0E0E2BBEFEFB9
:20468000E1BBE0E0E3B9EFEFE2B9E0E0E0936200EFEFE0936100E0E0E0936500EFE1E09387
:2046A0006400E0E0E0BFE7E0E3BFE0E0E2BFE1BFEFBDEEBDEDBDECBDE7BDE6BDEBBDEABD8D
:2046C000E9BDE8BDE0937900E0937800E5BDE4BDE3BDE0938B00E0938A00E0938900E0936B
:2046E0008800E0938100E0938000E0938700E0938600E0938500E0938400E0938300E09300
:204700008200E0936A00EABFE9BFE1E0E7BFE0E0E0937D00EBB9E8E1EAB9E6E0E0939500F4
:20472000E0E0E0939000E8E0E9B9E0E0E0939A00E0E8E8B9E0E0E0BDE6B9EDB9E09374008D
:204740000E941F3978940E94DC350E94DC350E94DC350E94DC350E941030E3E0EA930E94C3
:20476000952EE0E8EA930E94952EE2E0EA930E94952EE0E1EA930E94952EE1E0F0E05F0194
:20478000CC24DD240E94E235E0E0E0935905E0935A050E94E9350E94EF35689420F821F859
:2047A0001E9A22F8E7EBF0E0E0935F05F0936005E4E6F0E0E0937905F0937A05E0937B0546
:2047C000F0937C05E1E0F0E0E0937D05F0937E05E2E3F0E0E0937F05F0938005E1E4F0E020
:2047E000E0938D05F0938E05E0E5F0E0E0933905F0933A05E0E0E0933B05E0933C05E0E4AB
:20480000F0E0E0933D05F0933E05E0E0E0933F05E09340050E947F190E94E2190E9405069A
:204820000E94321B0E94EB1A2FDD65DD0E94B4040E949D0554DA0E940506D6010E946F3300
:204840000E2E0E94BE340E949D35E1E0F0E00E949A390E220E94C8341E2E0E94A7350E2E3A
:204860000E949D350E941D34E029E1210E2EA0915905B0915A050E946F33E02911F40C9469
:20488000792EE0914505F0914605309711F00C942625C69AE0915905F0915A05309711F060
:2048A0000C94C124C49A0E9413340E942C310E949C040E9413340E943C310E949C040E940F
:2048C000F6300E9401310E9407310E9477300E940C310E94FB3031970E9413310E941C3172
:2048E0000E9425310E94D430309731F40E94CF3031970E94E43931960E947F310E943731E3
:204900000E940904E0937905F0937A050E947F310E943C310E940904E0937B05F0937C05EE
:20492000E0E3F0E00E9470300E940904E0937D05F0937E050E947F310E943131E0937F05AB
:20494000F09380050E9477300E9431310E9441310E946B300E9446310E94F5350E2E0E94EE
:20496000A735E02139F00E94F735E0932F05F093300505C0E0E0E0932F05E09330050E948E
:20498000D234E1E0F0E0E0935905F0935A050E94FC35119789F41E980E941235159724F472
:2049A0000E94BB350E9417350E941A35159724F40E94F6300E9424350E94FC35129791F4FE
:2049C0000E94321B0E941235159724F40E941F350E9417350E941A35159724F40E94B63515
:2049E0000E9424350E94273579F10E94FC35129759F41E9903C00E94EB1AFBCFE8EBFBE0F2
:204A0000FA93EA930E9471390E94DC350E9434350E94EF350E9401360E94FC35119741F433
:204A20000E94EC300E94E003E130D1F30E9407360E94FC35129741F40E94EC300E94E30388
:204A4000E130D1F30E9407360C94772EE130A0E0FA0711F00C947A250E940E360E946F3361
:204A6000E02129F01F9A0E943E350E9424350E940E360E94153639F01F9A0E94321B0E940D
:204A8000C0350E9424350E941B360E94A6390E941F36E02121F00E9426360E94F8340E943B
:204AA00029360E9494390E2E0E941B360E949439E021F1F00E942D360E9433360E943D3683
:204AC0000E94FC35119741F40E94EC300E94E003E130D1F30E9442360E94FC35129741F443
:204AE0000E94EC300E94E303E130D1F30E9442360C94772EE230A0E0FA0779F50E94FC3568
:204B0000129711F40E94321B0E94F334159724F40E9449360E94F8340E94F3341597D9F43A
:204B20001A9A0E9450360E94FC35119741F40E94EC300E94E003E130D1F30E9456360E9401
:204B4000FC35129741F40E94EC300E94E303E130D1F30E9456360C94772EE330A0E0FA0724
:204B600011F00C9411260E94FC35129711F40E94321B0E941B360E94A6390E2E0E946636FF
:204B800031F00E9465330E9464300E94F8340E941B360E94783631960E947C360E94A639D7
:204BA000E021E9F10E9481360E9450360E94CA3031960E947C36EA17FB07C9F40E94FC354F
:204BC000119741F40E94EC300E94E003E130D1F30E9489360E94FC35129741F40E94EC3010
:204BE0000E94E303E130D1F30E94893618C00E94FC35119741F40E94EC300E94E003E1301B
:204C0000D1F30E9442360E94FC35129741F40E94EC300E94E303E130D1F30E9442360C9430
:204C2000772EE430A0E0FA0779F50E94FC35129711F40E94321B0E94F334159724F40E942D
:204C400026360E94F8340E94F3341597D9F41A980E9450360E94FC35119741F40E94EC30A0
:204C60000E94E003E130D1F30E9490360E94FC35129741F40E94EC300E94E303E130D1F3A6
:204C80000E9490360C94772EE530A0E0FA0711F00C94FA260E949C360E94A736E02121F00B
:204CA0000E94F6300E9417350E949C360E94AA3621F00E94B6350E9417350E94FC35129740
:204CC00011F40E94321B0E94AD360E9494390E94B1360E941D34E02141F00E942D36E1E078
:204CE000F0E0E0934705F09348050E94AD360E94B7360E946F330E94A736E02121F00E94CA
:204D00003E350E9417350E94AD360E94B7360E946F330E94AA3621F00E94C0350E941735C2
:204D20000E94AD360E94B7360E94153611F00E9498350E9429360E94BA360E941D34E0217B
:204D400021F0E3E0F0E00E94C2360E9429360E94BA360E946F330E94A736E02121F00E940B
:204D60001F350E9424350E9429360E94BA360E946F330E94AA3621F00E94BB350E942435ED
:204D80000E94AD360E9494390E941F360E22A0914705B09148050E946F33E0211E2E0E94BA
:204DA000AD360E9494390E941F360E22A0914705B09148050E941536E129D9F00E942D36AA
:204DC0000E9433360E94C53641F40E94EC300E94E003E130D1F30E94CC360E94FC351297BE
:204DE00041F40E94EC300E94E303E130D1F30E94CC367DC7E630A0E0FA0711F00C945E27BE
:204E00000E94EB34159724F40E944C330E9442350E94D43611F40E94DA360E94F3341597FB
:204E200024F40E9449360E94F8340E94FC35129711F40E94321B0E941B360E9494390E94F7
:204E4000DD360E949439E021C1F10E94E2360E2E0E94FC350E946F33E0211E2E0E94EE36FD
:204E60000E2E0E94FC350E941536E12909F01A9AC49A1B9A0E9408350E94F7360E94FD39E6
:204E800024F40E94FC360E9406370E94FC35119741F40E94EC300E94E003E130D1F30E94DD
:204EA0000A370E94FC35129741F40E94EC300E94E303E130D1F30E940A3719C7E730A0E08B
:204EC000FA0711F00C94AF270E94FC35129711F40E94321B0E941A370E9420370E94243701
:204EE000E0E00E9429370E942F370E9434370E943A370E9440370E942D360E9433360E94FD
:204F0000C536A1F40E94EC300E94E003E130D1F30E94D430DF010E94FD3934F40E94463744
:204F200011F40E944F3702C00E9456370E94FC351297A1F40E94EC300E94E303E130D1F327
:204F40000E94D430DF010E94FD3934F40E94463711F40E944F3702C00E945637C8C6E837E1
:204F6000A3E0FA0711F00C9418290E945D3714F40E946E370E94FC35129711F40E94321BD6
:204F80000E94D43611F40E94DA360E94AD360E947237DF010E94A2350E9476370E941D3443
:204FA000E02121F00E9451330E947C370E94AD360E947F370E941D34E02121F00E942D367D
:204FC0000E9487370E94AD360E9472370E948E370E946F33E02111F00E9495370E94AD3601
:204FE0000E9494390E2E0E94D4300E948E370E946F33E02121F00E942D360E949A370E9489
:20500000D4300E94A2370E946F33E02121F00E942D360E94A7370E94AD360E94AE3711F029
:205020000E94B6370E94AD360E947F370E94153621F00E942D360E94BB370E941B360E94D8
:20504000C2370E941D340E94CA370E220E94663631F00E9465330E9464300E94F8340E9452
:205060001B360E9478360E94D037E02189F00E94D43711F40E9450360E94DA3729F40E9420
:2050800081360E94E03704C00E9440370E94E7370E94F1370E94F5370E941D340E94FD37A2
:2050A000E02121F00E9474330E9442350E94F1370E9403380E9407380E94A6390E94FD379D
:2050C000E02169F00E940C38E0915105F0915205309719F40E94123802C00E943A370E94BA
:2050E000F1370E94F5370E946F33E02121F00E944C330E9442350E941B360E94C2370E94FA
:205100006F330E94CA37E02121F00E9449360E94F8340E94F1370E9403380E9420380E9406
:20512000CA300E9425380E9476370E94293821F00E940C380E942F380E9436380E94DD365F
:205140000E94A639E02111F00E943B380E94F1370E943E38E02111F00E9442380E941B36C4
:205160000E9478360E9446380E9407380E949A39E02121F00E9450360E944B380E945238DE
:205180000E2E0E941B360E94A639E02121F00E9426360E94F8340E941B360E9494390E2EE3
:2051A0000E945238E02119F00E9434371A980E94CA300E947C360E9403380E9420380E9491
:2051C000F1370E9457380E9494390E94FD370E94CA370E9476370E94293849F1E0E00E94A0
:2051E0002F370E9434370E9434350E9420370E9429370E9424370E941A370E946E370E945D
:20520000FC35119741F40E94EC300E94E003E130D1F30E945B380E94FC35129741F40E94E0
:20522000EC300E94E303E130D1F30E945B385FC5E73EA3E0FA0711F00C94212A0E945D37D1
:2052400014F40E946E370E94FC35129711F40E94321B0E94D43611F40E94DA360E941B3639
:205260000E94C2370E941D340E94CA370E220E94663631F00E9465330E9464300E94F83430
:205280000E941B360E9478360E94D037E02189F00E94D43711F40E9450360E94DA3729F4FE
:2052A0000E9481360E94E03704C00E9440370E94E7370E94F1370E94F5370E941D340E9412
:2052C000FD37E02121F00E9474330E9442350E94F1370E9403380E9407380E94A6390E947B
:2052E000FD37E02169F00E940C38E0915105F0915205309719F40E94123802C00E943A3706
:205300000E94F1370E94F5370E946F33E02121F00E944C330E9442350E941B360E94C237D7
:205320000E946F330E94CA37E02121F00E9449360E94F8340E94F1370E9403380E942038E4
:205340000E94CA300E942538E02121F00E940C380E942F380E9436380E94DD360E94A6396B
:20536000E02111F00E943B380E94F1370E943E38E02111F00E9442380E941B360E947836D3
:205380000E9446380E9407380E949A39E02121F00E9450360E944B380E9452380E2E0E942E
:2053A0001B360E94A639E02121F00E9426360E94F8340E941B360E9494390E2E0E94523873
:2053C000E02119F00E9434371A980E94CA300E947C360E9403380E9420380E94F1370E94D1
:2053E00057380E9494390E94FD370E94CA37E02139F1E0E00E942F370E9434370E9434352B
:205400000E9420370E9429370E9424370E946E370E94FC35119741F40E94EC300E94E0035A
:20542000E130D1F30E945B380E94FC35129741F40E94EC300E94E303E130D1F30E945B3861
:2054400056C4E830A0E0FA0711F00C94BB2B0E945D3714F40E946E370E94FC35129711F40C
:205460000E94321B0E94AD360E947237DF010E94A2350E9476370E941D34E02121F00E941E
:2054800051330E947C370E94AD360E947F370E941D34E02121F00E942D360E9487370E944A
:2054A000AD360E9472370E948E370E946F33E02111F00E9495370E94AD360E9494390E2E73
:2054C0000E94D4300E948E370E946F33E02121F00E942D360E949A370E94D4300E94A237D0
:2054E0000E946F33E02121F00E942D360E94A7370E94AD360E94AE3711F00E94B6370E9493
:20550000AD360E947F370E94153621F00E942D360E94BB370E94F1370E94A6390E2E0E9490
:2055200062380E94293821F00E9474330E9442350E94F1370E947F370E942938D9F0E0E0AD
:205540000E942437ABE4B5E00E9467380E94CF300E940738EA17FB0739F4E4E0F0E0E09330
:205560004F05F093500502C00E941A370E942D360E940C380E94D43611F40E94DA360E945A
:205580001B360E94C2370E941D340E94CA370E22E0918D05F0918E05A0912905B0912A0573
:2055A00080912B0590912C050E9485390E94B2390E946D38E02131F00E9465330E94643092
:2055C0000E94F8340E941B360E9478360E94D0370E946D38E02189F00E94D43711F40E94FC
:2055E00050360E94DA3729F40E9481360E94E03704C00E9440370E94E7370E941B360E9411
:20560000C2370E946F330E94CA370E946D38E02121F00E9449360E94F8340E94F1370E94F6
:2056200003380E9420380E94CA300E942538E02121F00E940C380E942F380E9436380E94E7
:20564000DD360E94A639E02111F00E943B380E94F1370E943E38E02111F00E9442380E94FD
:2056600073380E2E0E941B360E9494390E220E94CA300E947C360E949439E0211E2E0E9463
:205680006238E1E0F0E00E949A390E2E0E94CF300E9407380E949A39E029E12121F00E9479
:2056A00050360E944B380E9473380E2E0E9452380E220E941B360E94A639E02121F00E9432
:2056C00026360E94F8340E9473380E2E0E941B360E9494390E220E945238E02111F00E94B5
:2056E00034370E946238E4E0F0E00E9494396E2F0E2E0E94CA300E947C360E9457380E9464
:2057000094390E94CA370E94FD37E0211E2E062EA0915505B09156050E946F330E94FD3781
:20572000E021E12939F10E943437E0E00E942F370E9434350E9420370E9429370E9424375C
:205740000E946E370E94FC35119741F40E94EC300E94E003E130D1F30E945B380E94FC3532
:20576000129741F40E94EC300E94E303E130D1F30E945B38BCC2E930A0E0FA0711F00C9442
:20578000542C0E94FC35119761F50E94F1370E94A6390E2E0E94E236E02111F00E943B3860
:2057A0000E941B360E9478380E94803821F00E9426360E94F8340E94F1370E9478380E94AF
:2057C000863821F00E94F6300E94F0340E941B360E9478380E948C3821F00E9413340E9425
:2057E000F8340E94FC35129791F50E94F1370E94A6390E2E0E94EE36E02111F00E943B3817
:205800000E941B360E9492380E94803821F00E9426360E94F8340E94F1370E9492380E941A
:20582000863821F00E94F6300E94F0340E941B360E9492380E948C3821F00E9413340E94AA
:20584000F8340E94FC35129711F40E94321B0E94FB3449F11A981B98C4980E9450360E9416
:205860000C38ADE4B5E00E946738E2E0F0E0E0934705F09348050E94FC35119741F40E940A
:20588000EC300E94E003E130D1F30E9496380E94FC35129741F40E94EC300E94E303E1301A
:2058A000D1F30E94963823C2EA30A0E0FA0711F00C94CF2C0E94FC350E946F330E949D380A
:2058C00061F10E94A8380E942C310E949C040E94AE38AE17BF0724F40E94B4380E94013621
:2058E0000E94AE38EA17FB0721F40E94B4380E94BB380E94C2380E949439E02121F0EBE0FD
:20590000F0E00E94D1380E94C2380E949A39E02121F0EEE0F0E00E94D1380E94FC35129724
:2059200011F40E94321B0E94FC35E2E0F0E00E9494390E949D3891F10E94A8380E943C3115
:205940000E949C040E94F73531970E94F736AE17BF0724F40E94B4380E9401360E94F735C8
:2059600031970E94F736EA17FB0721F40E94B4380E94BB380E94D6380E949439E02121F024
:20598000ECE0F0E00E94D1380E94D6380E949A39E02121F0EEE0F0E00E94D138A8C1EB30BC
:2059A000A0E0FA07A9F50E94FC35129711F40E94321B0E941235159724F4E7E0F0E00E9472
:2059C0007C370E941A35159724F4E0E9F1E00E94C2360E942735D9F00E9406370E942D3680
:2059E0000E94DF3841F40E94EC300E94E003E130D1F30E94E7380E94FC35129741F40E948D
:205A0000EC300E94E303E130D1F30E94E7386FC1EC30A0E0FA07A9F50E94FC35129711F460
:205A20000E94321B0E941235159724F4E7E0F0E00E947C370E941A35159724F4E1E9F1E08E
:205A40000E94C2360E942735D9F00E9406370E942D360E94DF3841F40E94EC300E94E003D0
:205A6000E130D1F30E94E7380E94FC35129741F40E94EC300E94E303E130D1F30E94E73803
:205A800036C1ED30A0E0FA0761F50E94FC35129711F40E94321B0E941A35159724F4E2E92B
:205AA000F1E00E94C2360E941A351597C9F40E946E370E94DF3841F40E94EC300E94E003A9
:205AC000E130D1F30E94EA380E94FC35129741F40E94EC300E94E303E130D1F30E94EA389D
:205AE00006C1EE30A0E0FA0789F50E94FC35129711F40E94321B0E941235159714F40E9413
:205B000098350E941235159701F50E942D360E94FC360E94FC35119751F40E94EC300E9434
:205B2000E003E130D1F3EFE0F0E00E94D1380E94FC35129751F40E94EC300E94E303E1304B
:205B4000D1F3EFE0F0E00E94D138D1C0EF30A0E0FA0731F50E94FC35129711F40E94321B70
:205B60000E9406370E945D37D4F40E946E370E94FC35119741F40E94EC300E94E003E130FD
:205B8000D1F30E94EA380E94FC35129741F40E94EC300E94E303E130D1F30E94EA38A7C086
:205BA000E031A0E0FA0711F00C94522EE0912D05F0912E050E94F7360E9494390E2E0E94BF
:205BC000ED380E941D34E02101F10E94EF351F980E949D350E94FD3974F4E2E0F0E0E09384
:205BE0005705F09358050E94B035E0E0E0934505E093460504C0E1E1F0E00E94D138E1E0E5
:205C0000F0E0E0935B05F0935C050E94F7350E94F7360E9494390E2E0E94F5350E220E9417
:205C2000ED380E946F33E02179F01F980E94EF35E1E1F0E00E94D1380E94E235E2E0F0E08C
:205C4000E0935B05F0935C050E94F2380E2E0E94F5350E220E94ED380E94153651F00E94F2
:205C6000E2350E94E9351F98C6980E9413340E94AA330E94F2380E2E0E949D350E941D3461
:205C80000E220E94ED380E946F33E02151F00E94E2350E94E9351E9AC6980E9413340E946D
:205CA000AA3325C0E131A0E0FA0709F50E941235159724F40E94BB350E9417350E941A3573
:205CC000159724F40E94F6300E9424350E94273571F00E943435E0E0E0935905E0935A0570
:205CE000C498CC24DD24E0934505E09346050C941D240C941024FFCFA991B991EE27FF279A
:205D00006D91662311F03196FBCF0895AA27BB27E991F9910590002011F01196FBCFFD01F1
:205D200008955F9BFECFECB108955D9BFECFE881ECB921960895EA81EA93F7DFA881B9817D
:205D40000E9467382396089526970E94063A10E0AC85BD850E949831EA89FB893196EA8B0C
:205D6000FB8B3197E4912E2FE03011F40C94CF2FE12FE03039F4253211F411E002C00E9452
:205D8000F7380CC1E130A9F4253219F40E94F73804C112E040E000E02D3211F401E0FEC06A
:205DA0002B3211F44BE2FAC0203211F440E2F6C002C0E23039F450E013E0203311F4006887
:205DC000EDC004C0E33011F00C94CE2F203310F02A3308F007C0AAE05A9F502DE22FE053EE
:205DE0005E0FDCC0E22FE33649F40E940039E889F989A481AA930E940639CFC0E33741F444
:205E00000E9400390E940E390E947C2E1E2F0AC0E03761F40E9400390E940E390E94862ED5
:205E20001E2F086002600F7730E035C0E43611F0E93611F4046002C0E53731F4ECE8F0E076
:205E4000EE83FF8315E00DC0E83511F4086004C0E83711F00C94CD2FE6E9F0E0EE83FF83F1
:205E600014E002FF14C00E9400390E941739AB85AA233AF4EA85FB850E948139EA87FB8723
:205E80004DE2403011F01F5F01C00B7F04C00E9400390E94173900FD11C0151778F407FF9C
:205EA00008C002FF04C00B7F242F115001C020E301C020E20E94F7385150EFCF312F01FF00
:205EC00017C03030A1F003FF06C0EE81FF812591EE83FF8305C0AE81BF812D91AE83BF8335
:205EE0000E94F738503009F051503150EACF4BC020E3EE81FF810E94C839E887F987EE817F
:205F0000FF813296EE83FF83E885F985AA85BB85AE17BF0750F02F5FA885B985EA85FB8539
:205F2000EA1BFB0BEA87FB87EFCF2A3328F003FF02C0295F01C0295D04FD1AC0213320F45A
:205F4000A885B985119709F409C0531710F000FF01C013C020E207FF0BC020E3006102FF33
:205F600007C00B7F4A930E940639503009F051500E94F738503009F051503150A885B98521
:205F8000129708F0B5CF00FF08C0503031F05150E0E2EA930E940639F8CF10E0DDCEAC8520
:205FA000BD850E94BA390E940D3A64960895FF92F82E26971A930A93DE0114960E947D39EB
:205FC0008D01E0E0EC83ED83EE83EF83DE0118960E947D390E94BA390E948931EBE9FEE227
:205FE000FA93EA93FE013896FA93EA93ADDE198108812896FF9008950E942439E881EA9343
:206000000E945839E0E0EA930E943D39EA830E943339EA810895E295EF70E695E69508950C
:20602000EAE5EA930E94952EE5EAEA930C94952EEA930E94952EEC81EA930E94952EEA8164
:20604000EA930C94952E0E94912E0E94912E0C94912E0E94BE39EF5FFF4F6F4F7F4F0E94DC
:20606000C3390895ED91FD913196FE93EE93319708950E948A39A03DE9E5BE07E3E08E0710
:20608000E0E09E070895E0E0E0938705E09388050895A8E0B0E00E94D4390895E0E0E0930B
:2060A0008505E09386050895A6E0B0E00E94D4390895EE81FF81FA93EA9308950E94952E5E
:2060C000E2E8EA930C94952EFA93EA93E0E0F0E0FA93EA930895E0E9F0E0FA93EA93089595
:2060E000FA93EA93E0E1F0E0FA93EA930895E0E3F0E0FA93EA930895AC85BD85E1E0F0E020
:206100000E9494390E2E0895ABE0B5E0EE0FFF1FAE0FBF1F0895E0EAF0E0FA93EA93EA85B1
:20612000FB85FA93EA93EA85FB85FA93EA930C947F04FA93EA93EA85FB850895FA93EA9319
:206140000C947F04AA85BB85E1E0F0E00E949439E0210895AA85BB85E0E0F0E00E949439A1
:20616000E0210895AC85BD85E2E0F0E00E9494390E2E0895DF01EFEFF0E00E94A03908958E
:20618000AAE0B0E00E94D4390895ACE0B0E00E94D4390895A0E0B0E00E94D4390895A2E053
:2061A000B0E00E94D4390895A4E0B0E00E94D4390895A8E0B0E0E0E0F0E00E94E43908959F
:2061C000A6E0B0E0E0E0F0E00E94E4390895E3E0F0E00E94E4390895E6E0F5E0A1E00E9410
:2061E000CC39E7E7F0E0FA93EA930895E0E0F0E0FA93EA930895E0E4F0E0FA93EA930C94E0
:206200000904E0E8F0E0FA93EA930C940904E0932D05F0932E05EACF0E940904E0932F05B8
:20622000F093300564CFA0E0B0E00E94E439E0E2F0E0FA93EA934FCF0E940904A2E0B0E029
:206240000E94E439E0E3F0E03FCF0E940904A4E0B0E00E94E4390895E0E1F0E0FA93EA9324
:206260000895E0E7F0E0FA93EA930C940904E0E5F0E0FA93EA930895E0E6F0E0FA93EA9357
:206280000895E0938F05F093900531CF0E940904E0939305F09394050895E3E0F5E0A1E0B6
:2062A0000E94CC39E9E7F0E0FA93EA930895E0EAF0E0FA93EA93E0913905F0913A05FA9350
:2062C000EA93E0913B05F0913C0538CFE0913905F0913A05FA93EA93E0913B05F0913C05DB
:2062E0002DCFE1E0F5E0A1E00E94CC39E3E7F0E0FA93EA930895E029E0930205F2CFE0E29D
:20630000F0E0FA93EA930895E1E0F0E0ED93FC930895FA93EA931A930A930895E1E0F0E047
:20632000FA93EA930C94C304ED93FC93F801ECCEE0E0F0E0ED93FC930895FA93EA93C6CF4F
:20634000E0936105F0936205E7E6F5E00895A1E1B0E0A083B183E9E6F5E00895ABE1B0E075
:20636000A083B183EBE6F5E0A6E9B1E0A083B183EFE6F5E0A1E1B0E00895A0E1B0E0A0831C
:20638000B1830895E9E6F5E0ACE1B0E0A083B183EBE6F5E0A0E9B1E0A083B183EFE6F5E053
:2063A0000895E3E7F5E0A0E0B0E00895A8E1B0E0A083B183EBE6F5E0A6E9B1E00895A083FE
:2063C000B183EFE6F5E0A2E1B0E0A083B183E9CFAFE1B0E0A083B183EBE6F5E0A6E9B1E080
:2063E0000895A083B183DDCFA083B183EFE6F5E0A1E1B0E00895AFE1B0E0A083B183EBE605
:20640000F5E0A9E9B1E00895A9E1B0E0A083B183EBE6F5E0A9E9B1E00895A1E2B0E0A083DA
:20642000B183EBE6F5E0A9E9B1E00895A0E2B0E0A083B183EBE6F5E0A9E9B1E0C0CFE9E632
:20644000F5E0A6E1B0E0A083B183EBE6F5E0A0E9B1E0A083B183EFE6F5E00895ADE1B0E07D
:20646000A083B183EBE6F5E00895A9E9B1E0A7CFA0E9B1E0A083B183EFE6F5E0AFE0B0E0AF
:206480000895A8E1B0E0A083B183EBE6F5E0A0E9B1E0AACFA0E2B0E0A083B183EBE6F5E0A7
:2064A0000895A1E2B0E0A083B183EBE6F5E00895A6E9B1E084CFAEE1B0E0A083B183EBE6D8
:2064C000F5E0D6CFA2E1B0E0A083B183E9E6F5E0A2E2B0E0A083B183EBE6F5E0A6E9B1E003
:2064E000A083B183EFE6F5E00895ACE9B1E067CFE9E6F5E0AEE1B0E0A083B183EBE6F5E0E2
:20650000A6E9B1E071CFE0E0E0936105E0936205E7E6F5E0A0E0B0E0A083B183E9E6F5E0FB
:20652000A083B183EBE6F5E0A083B183EFE6F5E058CFABE1B0E0A083B183EBE6F5E0089580
:20654000A9E1B0E0A083B183EBE6F5E0A0E9B1E0A083B183EFE6F5E0A3E1B0E00895A9E1CE
:20656000B0E0A083B183EBE6F5E0A0E9B1E03CCFACE1B0E0A083B183EBE6F5E00895AAE127
:20658000B0E0A083B183EBE6F5E00895A6E1B0E0A083B183EBE6F5E0A3E9B1E00895A6E974
:2065A000B1E022CFAEE1B0E0A083B183EBE6F5E00895A9E1B0E0A083B183EBE6F5E0A3E9FD
:2065C000B1E00895A4E1B0E0A083B183EBE6F5E0A0E9B1E00895A083B183EBE6F5E008952A
:2065E000A2E1B0E0A083B183E9E6F5E0A4E2B0E0F2CFA6E9B1E0A083B183EFE6F5E00895F8
:20660000A3E2B0E0E8CFA083B183EFE6F5E0AFE0B0E00895AFE1B0E0DECFA9E1B0E0DBCF60
:20662000E9E6F5E01BCFA2E1B0E0A083B183E9E6F5E0F0CFE9E6F5E0A7E1B0E0CCCFA3E91C
:20664000B1E0A083B183EFE6F5E0A3E1B0E00895AFE0B0E0A083B183E9E6F5E00895A0831D
:20666000B183EFE6F5E0A3E1B0E00895A8E1B0E0B2CFA2E1B0E0A083B183E9E6F5E0C0CF54
:20668000A0E9B1E0A083B183EFE6F5E00895E0916105F09162050895E0916905F0916A0517
:2066A0000895E0916B05F0916C0508953196E0936D05F0936E05E0916D05F0916E0531968D
:2066C000E0937105F09372050895E0916705F09168050895A0919305B09194050895E1E0D1
:2066E000F0E00E9494390895E0916F05F09170050895A0918F05B09190050895A0917D055B
:20670000B0917E0508950E2EF4DFEEE1F0E00E949439E0210895F2DFE2E0F0E00E9494398B
:206720000895E0936B05F0936C05BBCFE7DFE3E0F0E00E9494390895E1DFE4E0F0E00E9400
:20674000943908950E2ED5DFE8E2F0E00E949439E0210895E0E4F0E0FA93EA930C949C045A
:20676000FA93EA93CCCDE0E7F0E0FA93EA930C949C04E0EAF0E0FA93EA93E0913D05F091BD
:206780003E05FA93EA93E0913F05F0914005D6CCFA93EA93E0913D05F0913E05FA93EA9304
:2067A000E0913F05F0914005C9CCE8EEF3E0FA93EA930C9471390E94E003A1E00E948F395C
:2067C00008950E94E303A1E00E948F3908950E94EC03A1E00E948F390895E5E0F5E0A1E0D8
:2067E0000E94CC39E1E7F0E0FA93EA930895E4E0F5E0A1E00E94CC39E5E7F0E0FA93EA934C
:2068000008950E940104A1E00E948F3908950E94FC03A1E00E948F3908950E94F603A1E067
:206820000E948F390895E0E0F0E04ECCEA230E2EA0915D05B0915E050895E0E0F0E00E9458
:2068400094390895A0915D05B0915E05E2E0F0E00E9494390E2EA0E01E99A1E00895E0E045
:20686000E0935D05E0935E05E4E6F0E0FA93EA930C947139E0E0E0932105E0932205E09319
:206880002305E09324050895E0E8F0E0FA93EA930C949C04E0E0E0931105E0931205E0936F
:2068A0001305E09314050895A230E0E0BE07E0E08E07E0E09E070895E0933105F093320586
:2068C0000895E0E0E0931905E0931A05E0931B05E0931C050895E0933505F093360508956C
:2068E000E029E0930005E09107050895E0930005E09362000895E0E0E0931505E093160538
:20690000E0931705E09318050895E0933305F09334050895E09300050895E0E0E0931D054D
:20692000E0931E05E0931F05E09320050895E0933705F09338050895DE011696EE0FFF1F43
