:020000000C945E
:10000200DA030C9400000C9400000C9400000C9491
:1000120000000C9400000C9400000C9400000C945E
:1000220000000C9400000C9400000C9400000C944E
:1000320000000C9400000C9400000C9400000C943E
:1000420053040C9400000C9400000C9400000C94D7
:1000520000000C9400000C9400000C9400000C941E
:1000620000000C9400000C9400000C9400000C940E
:1000720000000C9400000C9400000C9400000C94FE
:1000820000000C9400000C9400001027E8036400A8
:100092000A000100001000011000010000002020F1
:1000A200202020202020202020202020202020204E
:1000B200202020202020202020202020202020203E
:1000C2002020202020202020202020202020005A14
:1000D200616369736B206E6965207A6D6965727AF6
:1000E2006F6E7920752057796B6F6E617763790037
:1000F2004F73207A616369736B7520626C697A65EC
:100102006A20737A616679004F73207A616369733A
:100112006B752064616C656A206F6420737A616616
:1001220079004369736E69656E6965207A61206D35
:10013200616C65202D206D6E69656A737A65206E2B
:10014200697A2036206261720038362D30313730BC
:100152000038362D313034330038362D31363735CC
:100162000038362D323039380038372D30313730BB
:100172000038372D313034330038372D31363735AA
:100182000038372D323039380038362D3031393297
:100192000038362D313035340038362D3136373689
:1001A2000038362D323133320038372D3031393282
:1001B2000038372D313035340038372D3136373667
:1001C2000038372D323133320038362D3031393361
:1001D2000038362D313231360038362D313833324F
:1001E2000038362D323137340038372D303139333B
:1001F2000038372D313231360038372D313833322D
:100202000038372D323137340038362D3031393419
:100212000038362D313334310038362D313833330E
:100222000038362D323138300038372D30313934FC
:100232000038372D313334310038372D31383333EC
:100242000038372D323138300038362D30363633DB
:100252000038362D313334390038362D31383334C5
:100262000038362D323230340038372D30363633BE
:100272000038372D313334390038372D31383334A3
:100282000038372D323230340038362D3037363898
:100292000038362D313335370038362D3138343881
:1002A2000038362D323231320038372D3037363879
:1002B2000038372D313335370038372D313834385F
:1002C2000038372D323231320038362D3038303066
:1002D2000038362D313336330038362D313930344B
:1002E2000038362D323234310038372D3038303044
:1002F2000038372D313336330038372D3139303429
:100302000038372D323234310038362D3038313121
:100312000038362D313532330038362D3139323905
:100322000038362D323236310038372D30383131FF
:100332000038372D313532330038372D31393239E3
:100342000038372D323236310038362D30383134DC
:100352000038362D313533300038362D31393336C9
:100362000038362D323238350038372D30383134B6
:100372000038372D313533300038372D31393336A7
:100382000038372D323238350038362D3038313595
:100392000038362D313535310038362D313934318A
:1003A2000038362D323238360038372D3038313574
:1003B2000038372D313535310038372D3139343168
:1003C2000038372D323238360038362D3038313653
:1003D2000038362D313535320038362D323030374F
:1003E2000038362D323239320038372D3038313636
:1003F2000038372D313535320038372D323030372D
:100402000038372D323239320038362D3038313714
:100412000038362D313630320038362D3230313711
:100422000038362D323338340038372D30383137F2
:100432000038372D313630320038372D32303137EF
:100442000038372D323338340038362D30383437CF
:100452000038362D313632300038362D32303139CF
:100462000038362D323338350038372D30383437AE
:100472000038372D313632300038372D32303139AD
:100482000038372D323338350038362D3038353490
:100492000038362D313632320038362D323032388D
:1004A2000038362D323433370038372D3038353472
:1004B2000038372D313632320038372D323032386B
:1004C2000038372D323433370038362D3038363253
:1004D2000038362D313632350038362D323035324D
:1004E2000038362D323439320038372D3038363232
:1004F2000038372D313632350038372D323035322B
:100502000038372D323439320038362D3039333510
:100512000038362D313634380038362D3230383204
:100522000038362D323530300038372D30393335FA
:100532000038372D313634380038372D32303832E2
:100542000038372D323530300038362D31303139E0
:100552000038362D313634390038362D32303833C2
:100562000038362D323538350038372D31303139B3
:100572000038372D313634390038372D32303833A0
:100582000038372D323632340038362D313032379A
:100592000038362D313636390038362D323038377C
:1005A2000038362D323632340038372D313032377A
:1005B2000038372D313636390038372D323038375A
:1005C2000038372D32353835004E69652077637A29
:1005D2007974616E6F207A616369736B75004E6125
:1005E2006369736E696A205354415254206162797F
:1005F200207779706F7A79636A6F6E6F77616320A3
:100602006E617065647900506F7A79636A6F6E7596
:100612006A6520756B6C616479206C696E696F77AD
:10062200652058595A00537465726F776E696B2052
:1006320031202D207779706F7A79636A6F6E6F77C8
:10064200616C656D00537465726F776E696B2032F1
:10065200202D207779706F7A79636A6F6E6F776178
:100662006C656D00537465726F776E696B20332011
:100672002D207779706F7A79636A6F6E6F77616C0C
:10068200656D00537465726F776E696B2034202D2F
:10069200207779706F7A79636A6F6E6F77616C65B4
:1006A2006D00416C61726D20537465726F776E6973
:1006B2006B203400416C61726D20537465726F77E8
:1006C2006E696B203300416C61726D2053746572E8
:1006D2006F776E696B203100416C61726D205374CB
:1006E20065726F776E696B2032005779706F7A7915
:1006F200636A6F6E6F77616E6F20756B6C61647980
:10070200206C696E696F77652058595A0050727A69
:10071200656369617A656E6961204C45465333327F
:100722005F310050727A656369617A656E69612032
:100732004C45465333325F320050727A65636961C9
:100742007A656E6961204C4546535F58595F3200A5
:1007520050727A656369617A656E6961204C4546BB
:10076200535F58595F310057796D69656E20737A0E
:10077200637A6F746B65207065647A656C6B6F77F2
:10078200610057796D69656E206B72617A656B20C5
:1007920073636965726E790001002D4E414E004906
:1007A2004E460000010002009E0001008F059A07DC
:1007B2000000F894EE27ECBBF1E0F5BFE5BFE09353
:1007C2006C00F8E1F1BDE1BD8DE0A2E0BB27ED9345
:1007D2008A95E9F780E090E1A0E0B1E0ED9301971E
:1007E200E9F7E6EAF7E085919591009761F0A59126
:1007F200B59105901590BF01F00105900D920197FA
:10080200E1F7FB01F0CF8BBFEFEFEDBFE0E1EEBF11
:10081200C0E0D5E00C949B210E94B32B23C00E9420
:10082200B32BE6951FC00E94B32BE695E6951AC03E
:100832000E94B32BE695E695E69514C00E94B32B71
:10084200E29510C00E94B32BE295EF70E6950AC0C4
:100852000E94B32B0E94C22B05C00E94B32BEE1F35
:10086200E0E0EE1FE170239608951A930A9300E0E8
:1008720010E00E94C72BE4E0EA930E944C2AE3E8CE
:100882000E94CF2BE1E0EA930E944C2A0E94DA2BCD
:100892000E94DA2B0E94DA2B0E2F1127F801198100
:1008A200088188C06A937A938A939A93AA93BA9397
:1008B200EA93FA93EFB7EA93A1E1B5E00E94E02B45
:1008C200A5E1B5E00E94E02BA9E1B5E00E94E02B92
:1008D200ADE1B5E00E94E02BA1E2B5E00E94E02B81
:1008E200A5E2B5E00E94E02B1B9B26C0ABE8B5E079
:1008F2000E94E92BA9E8B5E00E94E92BA0918B05A3
:10090200B0918C050E94F02B41F40E94FA2B0E94B8
:10091200002C31960E94A9333197A0918905B0919C
:100922008A050E94F02B41F40E94052C0E940B2C98
:1009320031960E94A9333197E991EFBFF991E9917C
:10094200B991A991999189917991699118951A937F
:100952000A9300E010E00E94102C0E943D2A8F01B1
:100962000D5F1F4F0E94C72B0A930E944C2AE2E898
:100972000E94CF2B0E94102C80E00E948E2B229688
:1009820019810881289608950E94C72BE5E0EA9311
:100992000E94152CEA81EA930E944C2AE881EA938C
:1009A2000E944C2AE0E0EA930E944C2AEC81EA93EE
:1009B2000E944C2A269608950E94002C0E941B2C0D
:1009C2000E94222CE1DF0E940B2C0E94272C0E9405
:1009D2002E2CDADF089524970E94CB3300E010E03A
:1009E200EE85FF85FA93EA930E943D2A8F010D5FFF
:1009F2001F4FAC85BD85119759F420E030E040E5EA
:100A020050E0E0E5F0E0E887F987E0E0EE83EF838D
:100A1200AC85BD85129759F420E030E040E250E009
:100A2200E0E4F0E0E887F987E0E0EE83EF830E94FC
:100A3200C72B0A930E94152C2A930E944C2A4A9390
:100A42000E944C2AEE85FF85FA93EA9380E00E9489
:100A52008E2B22960E94332CEC85FD850E943B2C26
:100A62000E947F33A0E0B0E00E946133E02151F0A8
:100A72000E94422CE1EDF0E00E94502C0E94502C8A
:100A82000E94552C0E94332C0E94592C51F00E9436
:100A9200422CE2EFF0E00E94502C0E94502C0E9467
:100AA200552C0E94332C0E94612C51F00E94422C42
:100AB200EAE0F1E00E94502C0E94502C0E94552C3A
:100AC2000E94692C0E94592C51F00E94422CEAE0AB
:100AD200F1E00E94502C0E94502C0E94552C0E9442
:100AE200692C0E94612C51F00E94422CE2EFF0E04E
:100AF2000E94502C0E94502C0E94552C0E94D233EE
:100B0200609608950E94002C0E94712C0E2E0E9465
:100B12000B2C0E94712C0E2A0E94772C0E94712CA1
:100B22000E2A0E947C2C0E94712C0E2A0E94812C7B
:100B32000E94712C0E2A0E94862C0E94712C0E2A71
:100B42000E948B2C0E94712CE029F1F00E94902CC3
:100B52000E94FA2B0E94972C0E94052CAAE0B0E07A
:100B6200E5E0F0E00E94A933ACE0B0E00E94A933D6
:100B7200A0E0B0E00E949E2CA2E0B0E00E949E2C79
:100B8200A4E0B0E00E949E2C08950E94A32C44DEB3
:100B9200A0E00E945C33EF930E94A32C40DEA0E011
:100BA2000E945C33AF91EA2329F00E94AD2C0E948F
:100BB200B22C6F010E94AD2C0E94B82C0E94BE2C58
:100BC2000E942E2C0E94C32C0E94B22C0E94CA2C7E
:100BD2000E94D32C0E94DC2C0E94E32C0E94E82C61
:100BE20044DEACE0B0E00E94A933E0E2F0E00E9413
:100BF200272C3BDEAAE0B0E00E94A9330E94AD2C74
:100C02000E94222C32DEA8E0B0E00E94A9330E94AA
:100C1200E32C0E942E2C29DEA6E0B0E00E94A9332C
:100C22000E942E2C0E94ED2C20DEE0938505F0938D
:100C320086050E942E2C0E94F22C17DEE093870577
:100C4200F09388055FDF08951A930A9301E010E09C
:100C5200002E012AA9F40E94F72CFADDE03029F4D3
:100C620001E010E0E0EAF0E006C000E010E00E94DF
:100C7200012DE4E2F1E0FA93EA930E94102DE8CF0D
:100C82000991199108951A930A930E941B2DC4DDAC
:100C9200E1700E2EE0910205EE7F0E94252DBFDD50
:100CA200E170EE0F0E2EE0910205ED7F0E94252DE0
:100CB200BADDE170EE0FEE0F0E2EE0910205EB7F32
:100CC2000E94252DB5DDE170EE0FEE0FEE0F0E2E18
:100CD200E0910205E77F0E94252DB0DDE170E295EB
:100CE200E07F0E2EE0910205EF7E0E94252DAADD07
:100CF200E170E295E07FEE0F0E2EE0910205EF7DAE
:100D02000E94252DA5DDE170E295E07FEE0FEE0F4A
:100D12000E2EE0910205EF7B0E94252D9EDDE170F3
:100D2200E795E0E0E7950E2EE0910205EF77E029E6
:100D3200E09302050E94292D0E94B82C8F01A091F8
:100D42000205A13069F4F8010E943B2CE1E0F0E0D9
:100D5200ED93FC93EBE4F1E00E942E2D0E94332DE3
:100D6200A0910205A23071F4F8010E943B2CE2E04E
:100D7200F0E0ED93FC93E3E5F1E00E942E2D0E945A
:100D8200AD2C29DEA0910205A33071F4F8010E9476
:100D92003B2CE3E0F0E0ED93FC93EBE5F1E00E9405
:100DA2002E2D0E94AD2C17DEA0910205A43071F405
:100DB200F8010E943B2CE4E0F0E0ED93FC93E3E6C3
:100DC200F1E00E942E2D0E94AD2C05DEA0910205BD
:100DD200A53071F4F8010E943B2CE5E0F0E0ED93C0
:100DE200FC93EBE6F1E00E942E2D0E94AD2CF3DD88
:100DF200A0910205A63069F4F8010E943B2CE6E0BE
:100E0200F0E0ED93FC93E3E7F1E00E942E2D0E94C7
:100E1200332DA0910205A73069F4F8010E943B2C02
:100E2200E7E0F0E0ED93FC93EBE7F1E00E942E2D7A
:100E32000E94332DA0910205A83069F4F8010E94A6
:100E42003B2CE8E0F0E0ED93FC93E3E8F1E00E9454
:100E52002E2D0E94332DA0910205A93071F4F801C4
:100E62000E943B2CE9E0F0E0ED93FC93EBE8F1E02B
:100E72000E942E2D0E94AD2CAEDDA0910205AA305B
:100E820071F4F8010E943B2CEAE0F0E0ED93FC9350
:100E9200E3E9F1E00E942E2D0E94AD2C9CDDA09191
:100EA2000205AB3071F4F8010E943B2CEBE0F0E05C
:100EB200ED93FC93EBE9F1E00E942E2D0E94AD2C04
:100EC2008ADDA0910205AC3069F4F8010E943B2C46
:100ED200ECE0F0E0ED93FC93E3EAF1E00E942E2DCA
:100EE2000E94332DA0910205AD3069F4F8010E94F1
:100EF2003B2CEDE0F0E0ED93FC93EBEAF1E00E9495
:100F02002E2D0E94332DA0910205AE3069F4F80116
:100F12000E943B2CEEE0F0E0ED93FC93E3EBF1E07A
:100F22000E942E2D0E94332DA0910205AF3069F44C
:100F3200F8010E943B2CEFE0F0E0ED93FC93EBEB29
:100F4200F1E00E942E2D0E94332DA0910205A031C6
:100F520071F4F8010E943B2CE0E1F0E0ED93FC9388
:100F6200E3ECF1E00E942E2D0E94AD2C34DDA09125
:100F72000205A13171F4F8010E943B2CE1E1F0E09D
:100F8200ED93FC93EBECF1E00E942E2D0E94AD2C30
:100F920022DDA0910205A23171F4F8010E943B2CDE
:100FA200E2E1F0E0ED93FC93E3EDF1E00E942E2DFF
:100FB2000E94AD2C10DDA0910205A33171F4F8015D
:100FC2000E943B2CE3E1F0E0ED93FC93EBEDF1E0CA
:100FD2000E942E2D0E94AD2CFEDCA0910205A431B0
:100FE20071F4F8010E943B2CE4E1F0E0ED93FC93F4
:100FF200E3EEF1E00E942E2D0E94AD2CECDCA091DC
:101002000205A53169F4F8010E943B2CE5E1F0E00C
:10101200ED93FC93EBEEF1E00E942E2D0E94332D16
:10102200A0910205A63169F4F8010E943B2CE6E189
:10103200F0E0ED93FC93E3EFF1E00E942E2D0E948D
:10104200332DA0910205A73169F4F8010E943B2CCF
:10105200E7E1F0E0ED93FC93EBEFF1E00E942E2D3F
:101062000E94332DA0910205A83169F4F8010E9473
:101072003B2CE8E1F0E0ED93FC93E3E0F2E00E9428
:101082002E2D0E94332DA0910205A93171F4F80191
:101092000E943B2CE9E1F0E0ED93FC93EBE0F2E0FF
:1010A2000E942E2D0E94AD2C96DCA0910205AA3141
:1010B20071F4F8010E943B2CEAE1F0E0ED93FC931D
:1010C200E3E1F2E00E942E2D0E94AD2C84DCA0917F
:1010D2000205AB3171F4F8010E943B2CEBE1F0E028
:1010E200ED93FC93EBE1F2E00E942E2D0E94AD2CD9
:1010F20072DCA0910205AC3169F4F8010E943B2C2C
:10110200ECE1F0E0ED93FC93E3E2F2E00E942E2D9D
:101112000E94332DA0910205AD3169F4F8010E94BD
:101122003B2CEDE1F0E0ED93FC93EBE2F2E00E9468
:101132002E2D0E94332DA0910205AE3169F4F801E3
:101142000E943B2CEEE1F0E0ED93FC93E3E3F2E04E
:101152000E942E2D0E94332DA0910205AF3169F419
:10116200F8010E943B2CEFE1F0E0ED93FC93EBE3FE
:10117200F2E00E942E2D0E94332DA0910205A03292
:1011820071F4F8010E943B2CE0E2F0E0ED93FC9355
:10119200E3E4F2E00E942E2D0E94AD2C1CDCA09113
:1011A2000205A13269F4F8010E943B2CE1E2F0E071
:1011B200ED93FC93EBE4F2E00E942E2D0E94332D7E
:1011C200A0910205A23271F4F8010E943B2CE2E2E6
:1011D200F0E0ED93FC93E3E5F2E00E942E2D0E94F5
:1011E200AD2CF9DBA0910205A33271F4F8010E9443
:1011F2003B2CE3E2F0E0ED93FC93EBE5F2E00E949E
:101202002E2D0E94AD2CE7DBA0910205A43271F4D1
:10121200F8010E943B2CE4E2F0E0ED93FC93E3E65C
:10122200F2E00E942E2D0E94AD2CD5DBA09102058A
:10123200A53271F4F8010E943B2CE5E2F0E0ED9357
:10124200FC93EBE6F2E00E942E2D0E94AD2CC3DB54
:10125200A0910205A63269F4F8010E943B2CE6E255
:10126200F0E0ED93FC93E3E7F2E00E942E2D0E9462
:10127200332DA0910205A73269F4F8010E943B2C9C
:10128200E7E2F0E0ED93FC93EBE7F2E00E942E2D13
:101292000E94332DA0910205A83269F4F8010E9440
:1012A2003B2CE8E2F0E0ED93FC93E3E8F2E00E94ED
:1012B2002E2D0E94332DA0910205A93269F4F80166
:1012C2000E943B2CE9E2F0E0ED93FC93EBE8F2E0C4
:1012D2000E942E2D0E94332DA0910205AA3271F494
:1012E200F8010E943B2CEAE2F0E0ED93FC93E3E983
:1012F200F2E00E942E2D0E94AD2C6DDBA091020522
:10130200AB3271F4F8010E943B2CEBE2F0E0ED937A
:10131200FC93EBE9F2E00E942E2D0E94AD2C5BDBE8
:10132200A0910205AC3281F4F8010E943B2CECE260
:10133200F0E00E94392D0E943D2DE3EAF2E00E9486
:101342002E2D0E94AD2C47DBA0910205AD3271F427
:10135200F8010E943B2CEDE2F0E0ED93FC93EBEA06
:10136200F2E00E942E2D0E94AD2C35DBA0910205E9
:10137200AE3269F4F8010E943B2CEEE2F0E0ED930C
:10138200FC93E3EBF2E00E942E2D0E94332DA091FC
:101392000205AF3269F4F8010E943B2CEFE2F0E063
:1013A200ED93FC93EBEBF2E00E942E2D0E94332D85
:1013B200A0910205A03379F4F8010E943B2CE0E3EE
:1013C200F0E00E94392D0E943D2DE3ECF2E00E94F4
:1013D2002E2D0E94332DA0910205A13371F4F80144
:1013E2000E943B2CE1E3F0E0ED93FC93EBECF2E0A6
:1013F2000E942E2D0E94AD2CEEDAA0910205A2339E
:1014020071F4F8010E943B2CE2E3F0E0ED93FC93CF
:10141200E3EDF2E00E942E2D0E94AD2CDCDAA091C9
:101422000205A33371F4F8010E943B2CE3E3F0E0E0
:10143200ED93FC93EBEDF2E00E942E2D0E94AD2C79
:10144200CADAA0910205A43369F4F8010E943B2C88
:10145200E4E3F0E0ED93FC93E3EEF2E00E942E2D44
:101462000E94332DA0910205A53369F4F8010E9470
:101472003B2CE5E3F0E0ED93FC93EBEEF2E00E940F
:101482002E2D0E94332DA0910205A63369F4F80196
:101492000E943B2CE6E3F0E0ED93FC93E3EFF2E0F5
:1014A2000E942E2D0E94332DA0910205A73369F4CC
:1014B200F8010E943B2CE7E3F0E0ED93FC93EBEFA5
:1014C200F2E00E942E2D0E94332DA0910205A83336
:1014D20071F4F8010E943B2CE8E3F0E0ED93FC93F9
:1014E200E3E0F3E00E942E2D0E94AD2C74DAA0916D
:1014F2000205A93371F4F8010E943B2CE9E3F0E004
:10150200ED93FC93EBE0F3E00E942E2D0E94AD2CB4
:1015120062DAA0910205AA3371F4F8010E943B2C11
:10152200EAE3F0E0ED93FC93E3E1F3E00E942E2D79
:101532000E94AD2C50DAA0910205AB3371F4F80190
:101542000E943B2CEBE3F0E0ED93FC93EBE1F3E044
:101552000E942E2D0E94AD2C3EDAA0910205AC33E2
:1015620071F4F8010E943B2CECE3F0E0ED93FC9364
:10157200E3E2F3E00E942E2D0E94AD2C2CDAA09122
:101582000205AD3369F4F8010E943B2CEDE3F0E073
:10159200ED93FC93EBE2F3E00E942E2D0E94332D9B
:1015A200A0910205AE3369F4F8010E943B2CEEE3F0
:1015B200F0E0ED93FC93E3E3F3E00E942E2D0E9412
:1015C200332DA0910205AF3369F4F8010E943B2C40
:1015D200EFE3F0E0ED93FC93EBE3F3E00E942E2DBA
:1015E2000E94332DA0910205A03469F4F8010E94F3
:1015F2003B2CE0E4F0E0ED93FC93E3E4F3E00E94A3
:101602002E2D0E94332DA0910205A13471F4F80110
:101612000E943B2CE1E4F0E0ED93FC93EBE4F3E079
:101622000E942E2D0E94AD2CD6D9A0910205A23483
:1016320069F4F8010E943B2CE2E4F0E0ED93FC93A4
:10164200E3E5F3E00E942E2D0E94332DA0910205C6
:10165200A33469F4F8010E943B2CE3E4F0E0ED933B
:10166200FC93EBE5F3E00E942E2D0E94332DA09116
:101672000205A43469F4F8010E943B2CE4E4F0E092
:10168200ED93FC93E3E6F3E00E942E2D0E94332DAE
:10169200A0910205A53469F4F8010E943B2CE5E40F
:1016A200F0E0ED93FC93EBE6F3E00E942E2D0E9416
:1016B200332DA0910205A63471F4F8010E943B2C4F
:1016C200E6E4F0E0ED93FC93E3E7F3E00E942E2DD5
:1016D2000E94AD2C80D9A0910205A73471F4F801C3
:1016E2000E943B2CE7E4F0E0ED93FC93EBE7F3E0A0
:1016F2000E942E2D0E94AD2C6ED9A0910205A83415
:1017020071F4F8010E943B2CE8E4F0E0ED93FC93C5
:10171200E3E8F3E00E942E2D0E94AD2C5CD9A0914B
:101722000205A93471F4F8010E943B2CE9E4F0E0CF
:10173200ED93FC93EBE8F3E00E942E2D0E94AD2C7A
:101742004AD9A0910205AA3471F4F8010E943B2CF7
:10175200EAE4F0E0ED93FC93E3E9F3E00E942E2D3E
:101762000E94AD2C38D9A0910205AB3471F4F80176
:101772000E943B2CEBE4F0E0ED93FC93EBE9F3E009
:101782000E942E2D0E94AD2C26D9A0910205AC34C8
:1017920081F4F8010E943B2CECE4F0E00E94392D28
:1017A2000E943D2DE3EAF3E00E942E2D0E94AD2C13
:1017B20012D9A0910205AD3469F4F8010E943B2CC4
:1017C200EDE4F0E0ED93FC93EBEAF3E00E942E2DC2
:1017D2000E94332DA0910205AE3469F4F8010E94F3
:1017E2003B2CEEE4F0E0ED93FC93E3EBF3E00E949C
:1017F2002E2D0E94332DA0910205AF3469F4F80119
:101802000E943B2CEFE4F0E0ED93FC93EBEBF3E072
:101812000E942E2D0E94332DA0910205A03581F445
:10182200F8010E943B2CE0E5F0E00E94392D0E9475
:101832003D2DE3ECF3E00E942E2D0E94AD2CCBD87F
:10184200A0910205A13571F4F8010E943B2CE1E55B
:10185200F0E0ED93FC93EBECF3E00E942E2D0E945E
:10186200AD2CB9D8A0910205A23571F4F8010E94FD
:101872003B2CE2E5F0E0ED93FC93E3EDF3E00E9414
:101882002E2D0E94AD2CA7D8A0910205A33569F494
:10189200F8010E943B2CE3E5F0E0ED93FC93EBEDC5
:1018A200F3E00E942E2D0E94332DA0910205A43553
:1018B20069F4F8010E943B2CE4E5F0E0ED93FC931F
:1018C200E3EEF3E00E942E2D0E94332DA09102053B
:1018D200A53569F4F8010E943B2CE5E5F0E0ED93B3
:1018E200FC93EBEEF3E00E942E2D0E94332DA0918B
:1018F2000205A63569F4F8010E943B2CE6E5F0E00A
:10190200ED93FC93E3EFF3E00E942E2D0E94332D22
:10191200A0910205A73571F4F8010E943B2CE7E57E
:10192200F0E0ED93FC93EBEFF3E00E942E2D0E948A
:10193200AD2C51D8A0910205A83571F4F8010E948E
:101942003B2CE8E5F0E0ED93FC93E3E0F4E00E9449
:101952002E2D0E94AD2C3FD8A0910205A93571F41D
:10196200F8010E943B2CE9E5F0E0ED93FC93EBE0FB
:10197200F4E00E942E2D0E94AD2C2DD8A0910205DC
:10198200AA3569F4F8010E943B2CEAE5F0E0ED93F8
:10199200FC93E3E1F4E00E942E2D0E94332DA091EE
:1019A2000205AB3569F4F8010E943B2CEBE5F0E04F
:1019B200ED93FC93EBE1F4E00E942E2D0E94332D77
:1019C200A0910205AC3589F4F8010E943B2CECE5AC
:1019D200F0E00E94392D0E943D2DE3E2F4E00E94E6
:1019E2002E2D0E94AD2C0E94EC04A0910205AD3573
:1019F20069F4F8010E943B2CEDE5F0E0ED93FC93D5
:101A0200EBE2F4E00E942E2D0E94332DA0910205FC
:101A1200AE3579F4F8010E943B2CEEE5F0E0ED934F
:101A2200FC93E3E3F4E00E942E2D0E94AD2C0E9471
:101A3200EC04A0910205AF3579F4F8010E943B2C29
:101A4200EFE5F0E0ED93FC93EBE3F4E00E942E2D42
:101A52000E94AD2C0E94EC04A0910205A03689F4EC
:101A6200F8010E943B2CE0E6F0E00E94392D0E9432
:101A72003D2DE3E4F4E00E942E2D0E94AD2C0E9445
:101A8200EC04A0910205A13679F4F8010E943B2CE6
:101A9200E1E6F0E0ED93FC93EBE4F4E00E942E2DFE
:101AA2000E94AD2C0E94EC04A0910205A23679F4AA
:101AB200F8010E943B2CE2E6F0E0ED93FC93E3E5B3
:101AC200F4E00E942E2D0E94AD2C0E94EC04A09105
:101AD2000205A33669F4F8010E943B2CE3E6F0E02C
:101AE200ED93FC93EBE5F4E00E942E2D0E94332D42
:101AF200A0910205A43679F4F8010E943B2CE4E699
:101B0200F0E0ED93FC93E3E6F4E00E942E2D0E94B8
:101B1200AD2C0E94EC04A0910205A53669F4F801EF
:101B22000E943B2CE5E6F0E0ED93FC93EBE6F4E05B
:101B32000E942E2D0E94332DA0910205A63669F433
:101B4200F8010E943B2CE6E6F0E0ED93FC93E3E71C
:101B5200F4E00E942E2D0E94332DA0910205A7369B
:101B620079F4F8010E943B2CE7E6F0E0ED93FC9358
:101B7200EBE7F4E00E942E2D0E94AD2C0E94EC04B3
:101B8200A0910205A83669F4F8010E943B2CE8E610
:101B9200F0E0ED93FC93E3E8F4E00E942E2D0E9426
:101BA200332DA0910205A93679F4F8010E943B2C4D
:101BB200E9E6F0E0ED93FC93EBE8F4E00E942E2DD1
:101BC2000E94AD2C0E94EC04A0910205AA3669F491
:101BD200F8010E943B2CEAE6F0E0ED93FC93E3E986
:101BE200F4E00E942E2D0E94332DA0910205AB3607
:101BF20089F4F8010E943B2CEBE6F0E00E94392DBB
:101C02000E943D2DEBE9F4E00E942E2D0E94AD2CA6
:101C12000E94EC04A0910205AC3679F4F8010E940E
:101C22003B2CECE6F0E0ED93FC93E3EAF4E00E9457
:101C32002E2D0E94AD2C0E94EC04A0910205AD361F
:101C420069F4F8010E943B2CEDE6F0E0ED93FC9381
:101C5200EBEAF4E00E942E2D0E94332DA0910205A2
:101C6200AE3679F4F8010E943B2CEEE6F0E0ED93FB
:101C7200FC93E3EBF4E00E942E2D0E94AD2C0E9417
:101C8200EC04A0910205AF3689F4F8010E943B2CC6
:101C9200EFE6F0E00E94392D0E943D2DEBEBF4E0DF
:101CA2000E942E2D0E94AD2C0E94EC04A0910205F0
:101CB200A03769F4F8010E943B2CE0E7F0E0ED93D5
:101CC200FC93E3ECF4E00E942E2D0E94332DA091B0
:101CD2000205A13779F4F8010E943B2CE1E7F0E01C
:101CE200ED93FC93EBECF4E00E942E2D0E94AD2CC0
:101CF2000E94EC04A0910205A23779F4F8010E9437
:101D02003B2CE2E7F0E0ED93FC93E3EDF4E00E947C
:101D12002E2D0E94AD2C0E94EC04A0910205A33747
:101D220079F4F8010E943B2CE3E7F0E0ED93FC9399
:101D3200EBEDF4E00E942E2D0E94AD2C0E94EC04EB
:101D4200A0910205A43769F4F8010E943B2CE4E754
:101D5200F0E0ED93FC93E3EEF4E00E942E2D0E945E
:101D6200332DA0910205A53769F4F8010E943B2C9E
:101D7200E5E7F0E0ED93FC93EBEEF4E00E942E2D0C
:101D82000E94332DA0910205A63769F4F8010E9442
:101D92003B2CE6E7F0E0ED93FC93E3EFF4E00E94E6
:101DA2002E2D0E94332DA0910205A73769F4F80168
:101DB2000E943B2CE7E7F0E0ED93FC93EBEFF4E0BD
:101DC2000E942E2D0E94332DA0910205A83779F48E
:101DD200F8010E943B2CE8E7F0E0ED93FC93E3E08E
:101DE200F5E00E942E2D0E94AD2C0E94EC04A091E1
:101DF2000205A93779F4F8010E943B2CE9E7F0E0EB
:101E0200ED93FC93EBE0F5E00E942E2D0E94AD2CA9
:101E12000E94EC04A0910205AA3779F4F8010E940D
:101E22003B2CEAE7F0E0ED93FC93E3E1F5E00E945E
:101E32002E2D0E94AD2C0E94EC04A0910205AB371E
:101E420079F4F8010E943B2CEBE7F0E0ED93FC9370
:101E5200EBE1F5E00E942E2D0E94AD2C0E94EC04D5
:101E6200A0910205AC3779F4F8010E943B2CECE713
:101E7200F0E0ED93FC93E3E2F5E00E942E2D0E9448
:101E8200AD2C0E94EC04A0910205AD3769F4F80173
:101E92000E943B2CEDE7F0E0ED93FC93EBE2F5E0E2
:101EA2000E942E2D0E94332DA0910205AE3769F4B7
:101EB200F8010E943B2CEEE7F0E0ED93FC93E3E3A4
:101EC200F5E00E942E2D0E94332DA0910205AF371E
:101ED20069F4F8010E943B2CEFE7F0E0ED93FC93EC
:101EE200EBE3F5E00E942E2D0E94332DA091020516
:101EF200A03869F4F8010E943B2CE0E8F0E0ED9391
:101F0200FC93E3E4F5E00E942E2D0E94332DA09174
:101F12000205A13879F4F8010E943B2CE1E8F0E0D7
:101F2200ED93FC93EBE4F5E00E942E2D0E94AD2C84
:101F32000E94EC04A0910205A23879F4F8010E94F3
:101F42003B2CE2E8F0E0ED93FC93E3E5F5E00E9440
:101F52002E2D0E94AD2C0E94EC04A0910205A33804
:101F620069F4F8010E943B2CE3E8F0E0ED93FC9366
:101F7200EBE5F5E00E942E2D0E94332DA091020583
:101F8200A43879F4F8010E943B2CE4E8F0E0ED93E8
:101F9200FC93E3E6F5E00E942E2D0E94AD2C0E94F8
:101FA200EC04A0910205A53869F4F8010E943B2CCB
:101FB200E5E8F0E0ED93FC93EBE6F5E00E942E2DD0
:101FC2000E94332DA0910205A63869F4F8010E94FF
:101FD2003B2CE6E8F0E0ED93FC93E3E7F5E00E94AA
:101FE2002E2D0E94332DA0910205A73879F4F80115
:101FF2000E943B2CE7E8F0E0ED93FC93EBE7F5E081
:102002000E942E2D0E94AD2C0E94EC04A09102058C
:10201200A83869F4F8010E943B2CE8E8F0E0ED935F
:10202200FC93E3E8F5E00E942E2D0E94332DA0914F
:102032000205A93879F4F8010E943B2CE9E8F0E0A6
:10204200ED93FC93EBE8F5E00E942E2D0E94AD2C5F
:102052000E94EC04A0910205AA3869F4F8010E94DA
:102062003B2CEAE8F0E0ED93FC93E3E9F5E00E9413
:102072002E2D0E94332DA0910205AB3869F4F80190
:102082000E943B2CEBE8F0E0ED93FC93EBE9F5E0EA
:102092000E942E2D0E94332DA0910205AC3879F4B6
:1020A200F8010E943B2CECE8F0E0ED93FC93E3EAAC
:1020B200F5E00E942E2D0E94AD2C0E94EC04A0910E
:1020C2000205AD3869F4F8010E943B2CEDE8F0E01E
:1020D200ED93FC93EBEAF5E00E942E2D0E94332D46
:1020E200A0910205AE3879F4F8010E943B2CEEE88B
:1020F200F0E0ED93FC93E3EBF5E00E942E2D0E94BD
:10210200AD2C0E94EC04A0910205AF3879F4F801DD
:102112000E943B2CEFE8F0E0ED93FC93EBEBF5E053
:102122000E942E2D0E94AD2C0E94EC04A09102056B
:10213200A03969F4F8010E943B2CE0E9F0E0ED934C
:10214200FC93E3ECF5E00E942E2D0E94332DF80162
:10215200099119910895E881F9810E943B2C0E940E
:102162007F33309741F40E94012DEBECF5E00E94A1
:10217200422D0C941419E130A0E0FA0751F4E8EC76
:10218200F0E00E94452D0E944C2D0E94532D0C948C
:10219200FB18E230A0E0FA0771F4E0E1F1E00E94FE
:1021A200452D0E94622D0E94672D0E94622D0E9481
:1021B200762D0C940119E330A0E0FA0761F4EAE706
:1021C200F0E00E94452D0E944C2D0E947B2D0E9422
:1021D200842D0C940119E430A0E0FA0761F4E2E0E6
:1021E200F1E00E94452D0E944C2D0E948D2D0E94EF
:1021F200842D0C940119E530A0E0FA0759F4E0EBC4
:10220200F0E00E94452D0E944C2D0E94532D0E9409
:10221200962DF6C7E630A0E0FA0759F4EEEFF0E0AB
:102222000E94452D0E94622D0E94672DA0E1B0E020
:10223200E1C7E730A0E0FA0749F4E8E7F0E00E94DE
:10224200452D0E944C2D0E947B2DCEC7E830A0E088
:10225200FA0749F4E0ECF0E00E94452D0E944C2D73
:102262000E948D2DC1C7E930A0E0FA0769F4E8E1C8
:10227200F0E00E94452D0E944C2D0E948D2D0E945F
:10228200992D0E94962DBCC7EA30A0E0FA0759F4B6
:10229200E6E1F0E00E94452D0E944C2D0E94A02D07
:1022A2000E94842DADC7EB30A0E0FA0759F4E4E7B1
:1022B200F0E00E94452D0E944C2D0E94A92D0E9403
:1022C200842D9EC7EC30A0E0FA0749F4E6E9F0E07D
:1022D2000E94452D0E944C2D0E94B22D85C7ED30E3
:1022E200A0E0FA0759F4EAE1F0E00E94452D0E94CD
:1022F2004C2D0E948D2D0E94992D7CC7EE30A0E0BE
:10230200FA0749F4EEE5F0E00E94452D0E944C2DBB
:102312000E94A02D69C7EF30A0E0FA0749F4E4E873
:10232200F0E00E94452D0E944C2D0E94A92D5CC711
:10233200E031A0E0FA0749F4E8EBF0E00E94452D15
:102342000E944C2D0E94BB2D5BC7E131A0E0FA0731
:1023520059F4E0E2F0E00E94452D0E944C2D0E94CB
:10236200532D0E94962D4CC7E231A0E0FA0769F482
:10237200E8E9F0E00E94452D0E94622D0E94C42DE2
:102382000E94622D0E94762D3BC7E331A0E0FA073E
:1023920059F4EAEAF0E00E94452D0E944C2D0E9479
:1023A200D32D0E94DA2D2CC7E431A0E0FA0769F49C
:1023B200E2E4F0E00E94452D0E944C2D0E94D32DB4
:1023C2000E94DD2D0E94962D1BC7E531A0E0FA0781
:1023D20049F4EEE4F0E00E94452D0E944C2D0E944B
:1023E200532D08C7E631A0E0FA0759F4E2ECF0E019
:1023F2000E94452D0E94622D0E94C42DA0E1B0E0F2
:10240200F9C6E731A0E0FA0759F4EEECF0E00E94D9
:10241200452D0E944C2D0E94D32DA9E9B1E0E4C6BE
:10242200E831A0E0FA0759F4E0E4F0E00E94452D1B
:102432000E944C2D0E94D32D0E94DD2DDBC6E93176
:10244200A0E0FA0759F4EEE2F0E00E94452D0E9466
:102452004C2D0E94A02D0E94842DD2C6EA31A0E00C
:10246200FA0759F4EAEFF0E00E94452D0E944C2D44
:102472000E94E62D0E94962DC3C6EB31A0E0FA071A
:1024820049F4ECE6F0E00E94452D0E944C2D0E949A
:10249200BB2DB6C6EC31A0E0FA0749F4E4EAF0E05D
:1024A2000E94452D0E944C2D0E94B22D9DC6ED31F9
:1024B200A0E0FA0749F4EAE2F0E00E94452D0E940A
:1024C2004C2D0E94A02D90C6EE31A0E0FA0749F4EF
:1024D200E4E9F0E00E94452D0E944C2D0E94E62D79
:1024E20089C6EF31A0E0FA0759F4EEE6F0E00E9467
:1024F200452D0E944C2D0E94EF2DA9E9B1E074C632
:10250200E032A0E0FA0759F4E6E8F0E00E94452D37
:102512000E944C2D0E94B22D0E94842D71C6E13280
:10252200A0E0FA0749F4EEE8F0E00E94452D0E948F
:102532004C2DA0E2B0E052C6E232A0E0FA0759F414
:10254200EAE5F0E00E94452D0E944C2D0E94F62DF6
:102552000E94FD2D55C6E332A0E0FA0759F4EAEDD8
:10256200F0E00E94452D0E944C2D0E94002E0E94F8
:10257200962D46C6E432A0E0FA0759F4E2EAF0E00A
:102582000E94452D0E94072E0E94622D0E94762DE8
:1025920037C6E532A0E0FA0759F4E4E0F1E00E9420
:1025A200452D0E944C2D0E94F62D0E941A2E28C6FF
:1025B200E632A0E0FA0759F4E6E3F0E00E94452D86
:1025C2000E944C2D0E94F62DA6E9B1E00DC6E7321D
:1025D200A0E0FA0749F4E8E1F1E00E94452D0E94EB
:1025E2004C2D0E94002E06C6E832A0E0FA0749F4FC
:1025F200E6EAF0E00E94452D0E94072EA0E1B0E03D
:10260200F9C5E932A0E0FA0759F4EEE1F0E00E94E0
:10261200452D0E944C2D0E948D2D0E94992DEAC5B8
:10262200EA32A0E0FA0759F4ECE5F0E00E94452D09
:102632000E94622D0E941D2E0E94962DE1C5EB3252
:10264200A0E0FA0759F4E2E6F0E00E94452D0E946C
:102652004C2D0E94EF2D0E94FD2DD2C5EC32A0E040
:10266200FA0719F40E94282ECBC5ED32A0E0FA0732
:1026720069F4E0E1F0E00E94452D0E944C2D0E9499
:102682008D2D0E94992D0E94962DBAC5EE32A0E0A2
:10269200FA0749F4E0E5F0E00E94452D0E94622D20
:1026A2000E941D2EA7C5EF32A0E0FA0759F4E8E612
:1026B200F0E00E94452D0E944C2D0E94EF2DA6E9CC
:1026C200B1E092C5E033A0E0FA0719F40E94282E87
:1026D20097C5E133A0E0FA0759F4E4E2F0E00E9482
:1026E200452D0E944C2D0E948D2D0E94842D88C55F
:1026F200E233A0E0FA0759F4E4E1F0E00E94452D4C
:102702000E944C2D0E94002E0E94962D79C5E33323
:10271200A0E0FA0759F4E2E8F0E00E94452D0E9499
:102722004C2D0E943E2E0E941A2E6AC5E433A0E070
:10273200FA0749F4E6E0F1E00E94452D0E944C2D93
:102742000E94452E57C5E533A0E0FA0749F4ECE4B0
:10275200F0E00E94452D0E944C2D0E948D2D44C513
:10276200E633A0E0FA0749F4ECE1F0E00E94452DDF
:102772000E944C2D0E94002E3DC5E733A0E0FA07CF
:1027820049F4E4E1F1E00E94452D0E944C2DAAE1BA
:10279200B0E024C5E833A0E0FA0759F4EEEEF0E029
:1027A2000E94452D0E944C2D0E94452E0E94962D7E
:1027B20027C5E933A0E0FA0759F4E8EFF0E00E94F8
:1027C200452D0E944C2D0E94542E0E94962D18C514
:1027D200EA33A0E0FA0759F4E4EEF0E00E94452D56
:1027E2000E944C2D0E94EF2D0E94FD2D09C5EB3356
:1027F200A0E0FA0759F4E2E5F0E00E94452D0E94BC
:102802004C2D0E945D2E0E94DA2DFAC4EC33A0E01A
:10281200FA0779F4E0E9F0E00E94452D0E944C2D80
:102822000E94642EA0E9B1E00E94992D0E94962D8B
:10283200E7C4ED33A0E0FA0749F4ECEFF0E00E94C0
:10284200452D0E944C2D0E94E62DD4C4EE33A0E00B
:10285200FA0759F4E8E2F0E00E94452D0E944C2D5F
:102862000E94EF2DA6E9B1E0BFC4EF33A0E0FA0762
:1028720059F4E4E3F0E00E94452D0E944C2D0E94A1
:102882005D2EA9E9B1E0B0C4E034A0E0FA0749F452
:10289200ECEEF0E00E94452D0E944C2D0E94542E39
:1028A200A9C4E134A0E0FA0759F4ECECF0E00E948C
:1028B200452D0E944C2D0E946B2E0E94842DA0C497
:1028C200E234A0E0FA0759F4ECEBF0E00E94452D67
:1028D2000E944C2D0E945D2E0E94742E8BC4E33404
:1028E200A0E0FA0759F4ECE9F0E00E94452D0E94BD
:1028F2004C2D0E945D2EA6E9B1E076C4E434A0E03E
:10290200FA0749F4ECE7F0E00E94452D0E944C2DB5
:102912000E94B22D69C4E534A0E0FA0749F4E2ED61
:10292200F0E00E94452D0E944C2D0E946B2E5CC44B
:10293200E634A0E0FA0769F4E6EEF0E00E94452DE5
:102942000E944C2D0E945D2E0E94742E0E94962D94
:1029520057C4E734A0E0FA0759F4E4EBF0E00E9430
:10296200452D0E944C2D0E945D2E0E94FD2D48C4D3
:10297200E834A0E0FA0759F4ECEAF0E00E94452DB1
:102982000E944C2D0E94B22D0E94842D39C4E9343C
:10299200A0E0FA0769F4E2E1F0E00E94452D0E940E
:1029A200622DEDE6F5E00E943E2E0E94FD2D28C428
:1029B200EA34A0E0FA0759F4E2EBF0E00E94452D78
:1029C2000E944C2D0E948D2D0E94842D19C4EB343F
:1029D200A0E0FA0759F4ECE0F1E00E94452D0E94D4
:1029E2004C2D0E94F62D0E94FD2D0AC4EC34A0E06D
:1029F200FA0719F40E94282E03C4ED34A0E0FA0766
:102A020069F4E6E2F0E00E94452D0E94622DEDE6B7
:102A1200F5E00E943E2EA6E9B1E0E6C3EE34A0E066
:102A2200FA0759F4ECE1F1E00E94452D0E944C2D89
:102A32000E94772EA6E9B1E0D7C3EF34A0E0FA07EF
:102A420059F4E2E1F1E00E94452D0E944C2D0E94D2
:102A5200F62DA6E9B1E0C8C3E035A0E0FA0719F403
:102A62000E94282ECDC3E135A0E0FA0759F4EAEE20
:102A7200F0E00E94452D0E944C2D0E947E2E0E9465
:102A8200842DBEC3E235A0E0FA0759F4E8EDF0E088
:102A92000E94452D0E944C2D0E94872E0E94842D5B
:102AA200AFC3E335A0E0FA0769F4ECE8F0E00E9476
:102AB200452D0E944C2DA2E2B0E00E94902EA9E981
:102AC200B1E092C3E435A0E0FA0759F4E0EAF0E09D
:102AD2000E94452D0E94952E0E949E2EA0E1B0E0FC
:102AE20089C3E535A0E0FA0749F4EEEAF0E00E9476
:102AF200452D0E944C2D0E947E2E76C3E635A0E025
:102B0200FA0749F4E6EFF0E00E94452D0E944C2DB1
:102B12000E94872E69C3E735A0E0FA0759F4E4EC76
:102B2200F0E00E94452D0E944C2D0E94A52E0E948D
:102B3200DA2D66C3E835A0E0FA0769F4EEE7F0E0C3
:102B42000E94452D0E94952E0E949E2E0E94622D6B
:102B52000E94762D55C3E935A0E0FA0759F4ECE25C
:102B6200F0E00E94452D0E944C2D0E94642E0E948E
:102B7200FD2D46C3EA35A0E0FA0749F4E0EFF0E0A4
:102B82000E94452D0E944C2D0E94532D33C3EB35DC
:102B9200A0E0FA0759F4E8EAF0E00E94452D0E940D
:102BA2004C2D0E94EF2DA9E9B1E01EC3EC35A0E047
:102BB200FA0719F40E94282E23C3ED35A0E0FA0784
:102BC20059F4E0E3F0E00E94452D0E944C2D0E9452
:102BD200642EA6E9B1E008C3EE35A0E0FA0759F485
:102BE200E4EFF0E00E94452D0E944C2D0E94532DEF
:102BF2000E94962D05C3EF35A0E0FA0749F4EEE9ED
:102C0200F0E00E94452D0E944C2D0E94BB2DF8C27F
:102C1200E036A0E0FA0719F40E94282EF1C2E1364C
:102C2200A0E0FA0759F4EAE6F0E00E94452D0E947E
:102C32004C2D0E94B22D0E94842DE2C2E236A0E009
:102C4200FA0769F4EEEBF0E00E94452D0E944C2D4C
:102C52000E947B2D0E94A82E0E94962DD1C2E3369F
:102C6200A0E0FA0759F4EAEBF0E00E94452D0E9439
:102C72004C2D0E94772EA9E9B1E0B6C2E436A0E05D
:102C8200FA0759F4E0E6F0E00E94452D0E944C2D2F
:102C92000E948D2D0E94842DB3C2E536A0E0FA0772
:102CA20049F4E0E7F0E00E94452D0E944C2D0E947D
:102CB200B22D9AC2E636A0E0FA0759F4EAE8F0E04B
:102CC2000E94452D0E944C2D0E947B2D0E94A82E11
:102CD20091C2E736A0E0FA0759F4E0E8F0E00E947A
:102CE200452D0E944C2D0E94772E0E94DA2D88C21B
:102CF200E836A0E0FA0749F4E6EBF0E00E94452D41
:102D02000E944C2D0E948D2D6FC2E936A0E0FA0779
:102D120069F4E4E4F0E00E94452D0E944C2D0E94EB
:102D2200AF2E0E94DD2D0E94962D6AC2EA36A0E0E7
:102D3200FA0749F4EAE3F0E00E94452D0E944C2D87
:102D42000E94002E57C2EB36A0E0FA0719F40E9447
:102D5200282E56C2EC36A0E0FA0769F4E6ECF0E061
:102D62000E94452D0E944C2D0E945D2E0E94742EC1
:102D72000E94962D45C2ED36A0E0FA0759F4EAE02A
:102D8200F0E00E94452D0E94622D0E94672DA0E175
:102D9200B0E030C2EE36A0E0FA0759F4E2E3F0E028
:102DA2000E94452D0E944C2D0E94002E0E94962DBD
:102DB20027C2EF36A0E0FA0719F40E94282E20C29B
:102DC200E037A0E0FA0759F4E2EEF0E00E94452D68
:102DD2000E944C2D0E945D2E0E94742E0BC2E13780
:102DE200A0E0FA0769F4E4EDF0E00E94452D0E94AC
:102DF2004C2D0E94B22E0E94742E0E94962D00C26B
:102E0200E237A0E0FA0779F4EAE4F0E00E94452D07
:102E12000E94622D0E94B52E0E949E2EAFE0B0E06D
:102E22000E94962DEDC1E337A0E0FA0769F4E6E7C8
:102E3200F0E00E94452D0E94B82EACE9B1E00E945C
:102E4200992D0E94962DDCC1E437A0E0FA0759F4CF
:102E5200E2E9F0E00E94452D0E944C2D0E94F62DE1
:102E6200A6E9B1E0C1C1E537A0E0FA0759F4EAE109
:102E7200F1E00E94452D0E944C2D0E94B22E0E942C
:102E8200742EB8C1E637A0E0FA0759F4E6E5F0E09F
:102E92000E94452D0E94622D0E94B52E0E94742E22
:102EA200A9C1E737A0E0FA0759F4E2E7F0E00E948F
:102EB200452D0E94B82EACE9B1E00E94992D9AC12D
:102EC200E837A0E0FA0759F4E0EDF0E00E94452D62
:102ED2000E944C2D0E94F62D0E94FD2D91C1E937D2
:102EE200A0E0FA0769F4E8E4F0E00E94452D0E94B0
:102EF200622D0E94B52E0E94742E0E94962D80C1D2
:102F0200EA37A0E0FA0759F4EAE9F0E00E94452D19
:102F12000E944C2D0E94772E0E94FD2D71C1EB372D
:102F2200A0E0FA0769F4E6E4F0E00E94452D0E9471
:102F3200622D0E94BF2E0E94C42E0E94962D60C157
:102F4200EC37A0E0FA0789F4E0EEF0E00E94452DAC
:102F52000E94CD2EA5E1B0E00E94902E0E949E2EEE
:102F6200A3E1B0E00E94962D4BC1ED37A0E0FA0735
:102F720059F4E8E3F0E00E94452D0E944C2D0E9496
:102F8200772E0E94742E36C1EE37A0E0FA0759F46C
:102F9200EAECF0E00E94452D0E944C2D0E94772E13
:102FA200A6E9B1E021C1EF37A0E0FA0759F4EEED4E
:102FB200F0E00E94452D0E94622D0E94BF2E0E94C9
:102FC200C42E18C1E038A0E0FA0769F4E6E1F1E0A6
:102FD2000E94452D0E94622DEDE6F5E00E947B2DB8
:102FE2000E94D42E07C1E138A0E0FA0779F4E8EE96
:102FF200F0E00E94452D0E94CD2E0E94DB2EA9E911
:10300200B1E00E94D42E0E94962DFAC0E238A0E0D0
:10301200FA0769F4E2EFF0E00E94452D0E94DE2EED
:103022000E949E2E0E94622D0E94762DE9C0E338F6
:10303200A0E0FA0749F4E8E0F1E00E94452D0E9481
:103042004C2DAFE1B0E0CAC0E438A0E0FA0759F471
:10305200E4E6F0E00E94452D0E944C2D0E945D2E78
:103062000E941A2ECDC0E538A0E0FA0769F4E8E81C
:10307200F0E00E94452D0E94CD2E0E94DB2EA9E990
:10308200B1E00E94D42EB6C0E638A0E0FA0759F4A7
:10309200EEE0F1E00E94452D0E94DE2E0E949E2E5F
:1030A200A0E1B0E0A7C0E738A0E0FA0759F4E4E5F0
:1030B200F0E00E94452D0E944C2D0E94AF2E0E94EE
:1030C2001A2E9EC0E838A0E0FA0779F4EEE3F0E0A9
:1030D2000E94452D0E94622DEDE6F5E00E94DB2E56
:1030E2000E94E52EA0E1B0E085C0E938A0E0FA0731
:1030F20059F4ECE0F0E00E94452D0E944C2D0E9414
:10310200002E0E94962D7CC0EA38A0E0FA0759F4FE
:10311200ECEDF0E00E94452D0E94622DEDE6F5E017
:103122000E94532D67C0EB38A0E0FA0759F4E8E596
:10313200F0E00E94452D0E944C2D0E94B22EA6E97D
:10314200B1E052C0EC38A0E0FA0779F4ECE3F0E029
:103152000E94452D0E94622D0E94BF2E0E94E52EE4
:103162000E94622D0E94762D4BC0ED38A0E0FA0736
:1031720049F4EEE0F0E00E94452D0E944C2D0E94A1
:10318200002E38C0EE38A0E0FA0769F4EAE0F1E078
:103192000E94452D0E94622DEDE6F5E00E94532D1E
:1031A2000E94962D2DC0EF38A0E0FA0759F4E2E212
:1031B200F0E00E94452D0E944C2D0E94B22E0E94EA
:1031C200FD2D1EC0E039A0E0FA0769F5E6E6F0E061
:1031D2000E94452D0E944C2DACE1B0E0A083B1834A
:1031E200EFE6F5E0ACE9B1E0A083B183E3E7F5E017
:1031F200A2E1B0E0A083B183E7E7F5E0A1E0B0E0AF
:10320200A083B1830E94EC2E3196E0936705F09380
:1032120068050E94F12EE0936905F0936A050E9409
:10322200F62E0E94FB2EA0917D05B0917E05D297CD
:1032320039F40E940A2F3597E0936B05F0936C05E1
:10324200A0917F05B0918005D29749F4E091730572
:10325200F09174053597E0937305F09374050E941D
:103262000F2F0E94142FE2E3F0E00E946133E0216D
:1032720039F00E94F62E70960E941E2F0E94FB2E9D
:103282000E940F2F0E94232F0E2EA0918305B09132
:1032920084050E94282F39F00E94F62EB0960E94D3
:1032A2001E2F0E94FB2E0E940F2F0E94142F0E949D
:1032B200282F39F00E94F62EF0960E941E2F0E94AF
:1032C200FB2E229608950E94812CFA93EA930E9483
:1032D2002E2C0E942E2F0E94862C0E94342F0E9498
:1032E200222C0E94C5040E948B2CFA93EA93E0E3FD
:1032F200F0E00E941B2C0E94C504E0917D05F09134
:103302007E050E94342F0E94ED2C0E94C504E0919C
:103312007F05F09180050E94342F0E94F22C0E94BA
:10332200C504E0918105F0918205FA93EA93E0E306
:10333200F0E00E94272C0E94C504E0918305F091E1
:1033420084050E94342F0E94E82C0E94C5040E942A
:103352007C2C0E94272C0E94E82C0E94C5040E940B
:10336200772CFA93EA93E0E2F0E00E94272C0E9485
:10337200C5040E94002C0E941B2C0E94222C0E9439
:10338200C5040E940B2C0E94272C0E942E2C0E9406
:10339200C50408950C2C0D28A1F40E94012DE0EE25
:1033A200F5E00E94422D0E94372FE0EEF5E00E94E8
:1033B200462F0E94532F0E94AD2C0E94B22C6F0107
:1033C200E9CF0E94A32C0E94592FEF930E94A32CB5
:1033D2000E945F2FAF91EA2BA1F7929A0E94532F7E
:1033E2000E94F72C0E94652FEF930E946B2F0E9480
:1033F200652FAF91EA2BEF930E94752F0E94652FE4
:10340200AF91EA2BEF930E94752F0E947F2FAF910D
:10341200EA2B11F40C94BC1A0E94A32C0E94592F7F
:10342200EF930E94A32C0E945F2FAF91EA2B11F021
:10343200979AFECF0E94012DE9E0F6E00E94422D0C
:103442000E94372FE9E0F6E00E94462F0E94532F98
:103452000E94F72C0E941904E03041F40E94012DD1
:10346200E8E2F6E00E94422D0E94532F0E946B2F49
:103472000E941904E03041F40E94372FE7E4F6E09D
:103482000E94462F0E94532F0E94752F0E941904FA
:10349200E03041F40E94012DE6E6F6E00E94422D62
:1034A2000E94532F0E94752F0E942E04E03041F497
:1034B2000E94372FE5E8F6E00E94422D0E94532F2A
:1034C2000E94A32C0E942E04E13009F4979A0E94D4
:1034D200A32C0E94852FEF930E94A32C0E947F2F82
:1034E200AF91EA2BEF930E94F72C0E948B2FAF91A2
:1034F200EA2BEF930E946B2F0E948B2FAF91EA2B46
:10350200C9F1979A0E94A32C0E942904E13041F448
:103512000E94012DE4EAF6E00E94422D0E94532F00
:103522000E94A32C0E942E04E13041F40E94012D3E
:10353200E6EBF6E00E94422D0E94532F0E94F72CE8
:103542000E942304E13041F40E94012DE8ECF6E0F0
:103552000E94422D0E94532F0E946B2F0E9423042F
:10356200E13041F40E94012DEAEDF6E00E94422D85
:103572000E94532F35CF0E94012DECEEF6E00E94FF
:10358200422D0E94372FECEEF6E00E94462F9298D1
:103592000E94532F0E94912F0E942E2FCC24DD24B3
:1035A20008950E946B2F0E942904A0E00E945C33C0
:1035B200EF930E946B2F0E942E04A0E00E945C33C6
:1035C200AF910E94942F0E949B2FE02131F0E1E005
:1035D200F0E0E0936105F09362050E946B2F0E9478
:1035E200852FEF930E946B2F0E947F2FAF910E9435
:1035F200942F0E94232FE02131F0E2E0F0E0E093EB
:103602006105F09362050E94A02FE1E00E945C3305
:10361200E02119F01E980E94AD2F0E94A02FE0E039
:103622000E945C33E02119F01E9A0E94AD2F08958A
:103632001A930A93A0912105B09122058091230546
:1036420090912405AD33E0E0BE07E0E08E07E0E0B4
:103652009E0714F40C94751B0E94B82FF501D40137
:103662000E947333EF930E941B2D0E94592FEF93F8
:103672000E941B2D0E945F2FAF91EA2BEF930E94B5
:103682001B2D0E941404A1E00E945C33AF91EA2B2F
:10369200EF930E941B2D0E94652FAF91EA2BEF93AF
:1036A2000E941B2D0E941F04A1E00E945C33AF9177
:1036B200EA2BEF930E941B2D0E948B2FAF91EA2BD6
:1036C200EF930E941B2D0E94852FAF91EA2BEF935F
:1036D2000E941B2D0E947F2FAF91EA2BAF91EA230C
:1036E20019F0F40131964F01A814B904F1F40E94C3
:1036F20044068F010E94B82FF40131964F01E1E098
:10370200F0E0E017F10731F4E2E0F0E00E94342F3C
:103712000E94C22FE2E0F0E0E017F10731F4E1E0AD
:10372200F0E00E94342F0E94C22FF5013196E81575
:10373200F90511F4882499240991199108950E9498
:10374200F72C0E942304E13019F4979A1A981B98D7
:10375200E0913505F0913605309711F00C94F61B87
:103762000E94C82FE881E0930905E17011F4D8980E
:1037720001C0D89AE0910905E27011F4D99801C00C
:10378200D99AE0910905E47011F4DA9801C0DA9A45
:10379200E0910905E87011F4DB9801C0DB9AE09131
:1037A2000905E07111F4DC9801C0DC9AE091090589
:1037B200E07211F4DD9801C0DD9AE0910905E07430
:1037C20011F4DE9801C0DE9AE0910905E07811F467
:1037D200DF9801C0DF9AA881B981A030E1E0BE077D
:1037E2000CF0949AE1E0F0E047C0E130A0E0FA0783
:1037F20089F4A0911105B091120580911305909161
:1038020014050E94D22F2CF0939AE2E0F0E00E947D
:10381200DA2F36C0E230A0E0FA0789F40E94F72CD2
:103822000E940D04E03051F49398E0E0EBBB9498D1
:103832000E94C82FE3E0F0E00E94DA2F21C0E330BB
:10384200A0E0FA0769F40E94F72C0E941904E03004
:1038520031F40E94C82FE4E0F0E00E94DA2F10C099
:10386200E430A0E0FA0761F40E94F72C0E940D04F4
:10387200E13031F4E5E0F0E0E0933505F093360510
:10388200E0913505F091360508C20E946B2F0E9427
:103892002304E13019F4979A1A981B98E09139059C
:1038A200F0913A05309711F00C949C1C0E94DF2F86
:1038B200E881E0930A05E17011F4A89801C0A89A82
:1038C200E0910A05E27011F4A99801C0A99AE09169
:1038D2000A05E47011F4AA9801C0AA9AE0910A05B7
:1038E200E87011F4AB9801C0AB9AE0910A05E0715F
:1038F20011F4AC9801C0AC9AE0910A05E07211F49F
:10390200AD9801C0AD9AE0910A05E07411F4AE9849
:1039120001C0AE9AE0910A05E07811F4AF9801C0B7
:10392200AF9AA881B981A030E1E0BE070CF0959A68
:10393200E1E0F0E047C0E130A0E0FA0789F4A091AD
:103942001905B0911A0580911B0590911C050E94E2
:10395200D22F2CF0969AE2E0F0E00E94E92F36C0D6
:10396200E230A0E0FA0789F40E946B2F0E940D0456
:10397200E03051F49698E0E0E5BB95980E94DF2F85
:10398200E3E0F0E00E94E92F21C0E330A0E0FA0773
:1039920069F40E946B2F0E941904E03031F40E94F6
:1039A200DF2FE4E0F0E00E94E92F10C0E430A0E055
:1039B200FA0761F40E946B2F0E940D04E13031F48A
:1039C200E5E0F0E0E0933905F0933A05E09139053E
:1039D200F0913A0562C10E94A32C0E942E04E130AC
:1039E20019F4979A1A981B98E0913705F0913805C7
:1039F200309711F00C94421DE881E0930705E170C5
:103A02000E2EE0910005EE7F0E94EE2FE695E1700A
:103A1200EE0F0E2EE0910005ED7F0E94EE2FE6954F
:103A2200E695E170EE0FEE0F0E2EE0910005EB7FB2
:103A32000E94EE2FE695E695E695E170EE0FEE0F09
:103A4200EE0F0E2EE0910005E77F0E94EE2FE29529
:103A5200E170E795E0E0E7950E2EE0910005EF7743
:103A6200E0290E94F42FE0910705E07211F4C79853
:103A720001C0C79A0E94F92FE1E0F0E00E940330F2
:103A820076C0E130A0E0FA07A9F4A0911505B09143
:103A9200160580911705909118050E94D22F4CF0BF
:103AA200E0910005E0620E94F42FE2E0F0E00E9463
:103AB20003305DC0E230A0E0FA0721F50E94752FC5
:103AC2000E940D04E030E9F4E0910005EF7D0E94D0
:103AD200F42FE0910005EE7F0E940830ED7F0E94F6
:103AE2000830EB7F0E940830E77F0E940830EF77B2
:103AF2000E94F42FC7980E94F92FE3E0F0E00E94A1
:103B0200033035C0E330A0E0FA0769F40E94752F54
:103B12000E941904E03031F40E94F92FE4E0F0E051
:103B22000E94033024C0E430A0E0FA0701F50E94AD
:103B3200752F0E940D04E130D1F4E5E0F0E00E941F
:103B42000330E0914505F0914605309739F4E1E004
:103B5200F0E0E0934505F093460509C0E130A0E0AE
:103B6200FA0729F4E0E0E0934505E0934605E09189
:103B72003705F091380591C00E94A32C0E942904B8
:103B8200E13019F4979A1A981B98E0913B05F0914D
:103B92003C05309781F5E881E0930805E17011F466
:103BA200C09801C0C09AE0910805E27011F4C19872
:103BB20001C0C19AE0910805E47011F4C29801C0F5
:103BC200C29AE0910805E87011F4C39801C0C39A43
:103BD200E0910805E07111F41C9801C01C9AE09173
:103BE2000805E07211F41D9801C01D9A0E940B3065
:103BF200E1E0F0E04AC0E130A0E0FA0789F4A091E8
:103C02001D05B0911E0580911F05909120050E940F
:103C1200D22F2CF0C59AE2E0F0E00E94153039C0B4
:103C2200E230A0E0FA07A1F40E94752F0E941F045F
:103C3200E03069F4C598C098C198C298C3981C989E
:103C42001D980E940B30E3E0F0E00E94153021C085
:103C5200E330A0E0FA0769F40E94752F0E942E0457
:103C6200E03031F40E940B30E4E0F0E00E941530C5
:103C720010C0E430A0E0FA0761F40E94752F0E94A0
:103C82001F04E13031F4E5E0F0E0E0933B05F0930E
:103C92003C05E0913B05F0913C05229608950E9477
:103CA200CD3320E030E000E010E00E941A300E94A4
:103CB200232F0E2E0E941F300E949B2F0E94243021
:103CC2000E9435300E943A300E94403011F40C9428
:103CD200071F0E941A30119711F00C94071FF80168
:103CE200309749F40E944A300E945C300E94AC1026
:103CF20001E010E08AC0E130A0E0FA07C1F40E94BE
:103D02006130159724F40E94AD2C0E9466300E9407
:103D12006930159724F40E94AD2C0E946E300E94E7
:103D2200713021F00E947E3002E010E06EC0E2307D
:103D3200A0E0FA07B1F40E948830159724F40E949B
:103D4200AD2C0E948D300E949030159714F40E9481
:103D520095300E949C3021F00E944A3003E010E02E
:103D620054C0E330A0E0FA0789F40E948830159726
:103D720024F40E94A9300E948D300E948830159749
:103D820021F40E944A3004E010E03FC0E430A0E099
:103D9200FA0789F40E946130159724F40E94F12EEB
:103DA2000E94AD300E946130159721F40E944A3082
:103DB20005E010E02AC0E530A0E0FA0769F40E94AD
:103DC2002E2C0E94ED2C0E9436049F01022E032A03
:103DD20011F406E010E019C0E630A0E0FA07A9F4F9
:103DE2000E946130159724F40E94AD2C0E94663027
:103DF2000E946130159749F40E947E3007E010E07E
:103E0200E0E0E0938505E093860563CF0E941A30D7
:103E12000E949B2F0E2E0E941F300E94232F0E9471
:103E220024300E94B0300E943A300E94B530E02126
:103E320011F40C94B91F0E941F30119711F00C94C9
:103E4200B91FF801309749F40E944A300E94BE30EF
:103E52000E94AC1001E010E08AC0E130A0E0FA0755
:103E6200C1F40E946130159724F40E94AD2C0E9487
:103E720066300E946930159724F40E94AD2C0E948E
:103E82006E300E94713021F00E947E3002E010E01C
:103E92006EC0E230A0E0FA07B1F40E9488301597B4
:103EA20024F40E945C300E948D300E94903015975D
:103EB20014F40E9495300E949C3021F00E944A30F6
:103EC20003E010E054C0E330A0E0FA0789F40E9456
:103ED2008830159724F40E94C3300E948D300E94CE
:103EE2008830159721F40E944A3004E010E03FC068
:103EF200E430A0E0FA0789F40E946130159724F4B7
:103F02000E94F12E0E94AD300E946130159721F47B
:103F12000E944A3005E010E02AC0E530A0E0FA072E
:103F220069F40E942E2C0E94F22C0E9436049F01FA
:103F3200022E032A11F406E010E019C0E630A0E0D8
:103F4200FA07A9F40E946130159724F40E94AD2C5F
:103F52000E9466300E946130159749F40E947E30BB
:103F620007E010E0E0E0E0938705E093880563CF87
:103F72000E94D433249608950E94002C0F010E94BF
:103F82007C2C0E161F069CF0E0910005E0640E9456
:103F9200F42F0E94CA300E94CF300E94A804E9E6A2
:103FA200F7E0FA93EA930E94CF300E94A8040E949D
:103FB2000B2C0F010E94772C0E161F069CF0E0912D
:103FC2000005E0640E94F42F0E94CA300E94D230A1
:103FD2000E94A804E4E8F7E0FA93EA930E94D23040
:103FE2000E94A804089524970E94CB33E0E0EE8358
:103FF200EF830E942E2C0E94292D0E9436048F01ED
:104002000E942E2C0E942E2C0E943604AF01E1E069
:10401200F0E0E017F10711F00C94C820EE81FF8167
:10402200309739F40E944A30E1E0F0E0EE83FF83FA
:10403200ADC0E130A0E0FA07D1F40E9461301597DB
:1040420024F40E94AD2C0E9466300E9469301597BC
:1040520024F40E94AD2C0E946E300E94713031F027
:104062000E947E30E2E0F0E0EE83FF838FC0E23018
:10407200A0E0FA07C1F40E948830159724F40E9448
:10408200D5300E948D300E949030159724F40E9402
:10409200D5300E94DA300E949C3021F00E944A30D2
:1040A2000E94DD3073C0E330A0E0FA0711F00C94F7
:1040B200A0200E946130159724F4E2E0F0E00E9413
:1040C200AD300E946930159724F40E94BE300E94E0
:1040D2006E300E94713091F10E947E300E942E2C2F
:1040E2000E94292D0E943604E887F987309711F142
:1040F200E130A0E0FA0719F4E3E0F0E01DC0E2309D
:10410200A0E0FA07D9F4E1E0F0E0E0937905F0935A
:104112007A05E0910005EF7B0E94F42F0E94FA2BB2
:104122000E94902C0E94DD040E94CA300E94CF306F
:104132000E94A804E4E0F0E0EE83FF8327C0E430AD
:10414200A0E0FA0719F50E946130159724F40E9445
:10415200AD2C0E9466300E946930159724F40E94AB
:10416200AD2C0E946E300E94713081F00E944A3064
:104172000E94AD2C0E942E2C0E94292D0E94C50463
:10418200E5E0F0E0EE83FF8300E010E040CF0E9424
:104192002E2C0E942E2C0E943604AF01E0E0EE830A
:1041A200EF83E1E0F0E0E417F50711F00C949721BA
:1041B200EE81FF81309739F40E944A30E1E0F0E06D
:1041C200EE83FF83B2C0E130A0E0FA07D1F40E948F
:1041D2006130159724F40E94AD2C0E9466300E9433
:1041E2006930159724F40E94AD2C0E946E300E9413
:1041F200713031F00E947E30E2E0F0E0EE83FF8326
:1042020094C0E230A0E0FA07C1F40E94883015970A
:1042120024F40E94D5300E948D300E949030159770
:1042220024F40E94D5300E94DA300E949C3021F0A2
:104232000E944A300E94DD3078C0E330A0E0FA07E5
:1042420011F00C946F210E946130159724F4E2E082
:10425200F0E00E94AD300E946930159724F40E946C
:10426200BE300E946E300E947130B9F10E947E30E1
:104272000E942E2C0E942E2C0E9436049F01F901CE
:10428200309729F4E4E0F0E0EE83FF8326C0E130CA
:10429200A0E0FA0719F40E94DD301FC0E230A0E06E
:1042A200FA07D9F4E4E0F0E0EE83FF83E1E0F0E026
:1042B200E0937B05F0937C05E0910005EF7B0E9483
:1042C200F42F0E94052C0E94972C0E94DD040E946C
:1042D200CA300E94D2300E94A80427C0E430A0E075
:1042E200FA0719F50E946130159724F40E94AD2C4B
:1042F2000E9466300E946930159724F40E94AD2C0A
:104302000E946E300E94713081F00E944A30E5E0D6
:10431200F0E0EE83FF830E94AD2C0E942E2C0E94BF
:104322002E2C0E94C50440E050E03BCF0E94D233C5
:104332002A960895E0E0EBBBEFEFEABBE0E0E8BBD2
:10434200EFEFE7BBE0E0E5BBEFEFE4BBE0E0E2BBB1
:10435200EFEFE1BBE0E0E3B9EFEFE2B9E0E0E093D9
:104362006200EFEFE0936100E0E0E0936500EFE1CF
:10437200E0936400E0E0E0BFE7E0E3BFE0E0E2BF3B
:10438200E1BFEFBDEEBDEDBDECBDE7BDE6BDEBBDF2
:10439200EABDE9BDE8BDE0937900E0937800E5BDB0
:1043A200E4BDE3BDE0938B00E0938A00E0938900D3
:1043B200E0938800E0938100E0938000E09387001F
:1043C200E0938600E0938500E0938400E09383000D
:1043D200E0938200E0936A00EABFE9BFE1E0E7BF51
:1043E200E0E0E0937D00EBB9E8E1EAB9E6E0E093D2
:1043F2009500E0E0E0939000E8E0E9B9E0E0E093C6
:104402009A00E0E8E8B9E0E0E0BDE6B9EDB9E09392
:1044120074000E94EC3278940E94E2300E94E230F2
:104422000E94E2300E94E2300E94C72BE3E0EA934E
:104432000E944C2AE0E8EA930E944C2AE2E0EA93C6
:104442000E944C2AE0E1EA930E944C2AE1E0F0E06B
:104452005F01CC24DD240E94E830E0E0E0935D05BA
:10446200E0935E050E94EF300E94F530689420F8D8
:1044720021F81E9A22F8E7EBF0E0E0936305F0934F
:104482006405E4E6F0E0E0937D05F0937E05E093B9
:104492007F05F0938005E1E0F0E0E0938105F09381
:1044A2008205E2E3F0E0E0938305F0938405E0E522
:1044B200F0E0E0933D05F0933E05E0E0E0933F0538
:1044C200E0934005E0E4F0E0E0934105F09342051B
:1044D200E0E0E0934305E09344050E9464190E94E2
:1044E200CB190E942506A4D80E94D21A45DD7BDD95
:1044F2000E94DD040E94C605D2DB0E942506D60179
:104502000E94232F0E2E0E943530E1E0F0E00E943F
:1045120079330E220E94B030E1E0F0E00E9467336E
:104522000E220E9440301E2E0E94B5300E2E0E9496
:10453200B0300E949B2FE029E1210E2EA0915D0553
:10454200B0915E050E94232FE02911F40C94312AC8
:10455200E0914905F0914A05309711F00C947C23C3
:10456200C69AE0915D05F0915E05309711F00C94CA
:1045720018230E94912F0E94E32C0E94C5040E94DE
:10458200912F0E94F22C0E94C5040E94AD2C0E9421
:10459200B82C0E94BE2C0E942E2C0E94C32C0E947A
:1045A200B22C0E94CA2C0E94D32C0E94DC2C0E94A6
:1045B200292D0E94ED2C0E943604E0937D05F09394
:1045C2007E050E94292D0E94F22C0E943604E0935F
:1045D2007F05F0938005E0E3F0E00E94272C0E9423
:1045E2003604E0938105F09382050E94292D0E94F2
:1045F200E82C0E943604E0938305F09384050E9420
:10460200B0300E94FB300E94B530E02139F00E94A8
:104612000131E0933305F093340505C0E0E0E09307
:104622003305E09334050E945C300E94AC10E1E057
:10463200F0E0E0935D05F0935E050E94063111976C
:1046420089F41E980E948830159724F40E940B3139
:104652000E948D300E949030159724F40E94AD2C58
:104662000E94DA300E940631129791F40E94191BBF
:104672000E948830159724F4E8E0F0E00E9410319F
:104682000E949030159724F40E945C300E94DA3028
:104692000E949C3079F10E940631129759F41E99BA
:1046A20003C00E94D21AFBCFE8EBFBE0FA93EA9335
:1046B2000E943E330E94E2300E944A300E94F5304E
:1046C2000E9413310E940631119741F40E94A32CDB
:1046D2000E940D04E130D1F30E9419310E9406318B
:1046E200129741F40E94A32C0E941004E130D1F3EE
:1046F2000E941931B4C6E130A0E0FA0711F00C941F
:10470200CF230E9420310E94232FE02129F01F9AFB
:104712000E94A9300E94DA300E9420310E94273183
:1047220039F01F9A0E94191B0E94C3300E94DA308E
:104732000E942D310E9473330E943131E02121F019
:104742000E945C300E946E300E9438310E946133B8
:104752000E2E0E942D310E946133E021F1F00E9461
:104762003C310E9442310E944C310E940631119725
:1047720041F40E94A32C0E940D04E130D1F30E9467
:1047820051310E940631129741F40E94A32C0E94DB
:104792001004E130D1F30E94513161C6E230A0E051
:1047A200FA0761F50E940631129711F40E94191B53
:1047B2000E946930159714F40E9458310E946930A2
:1047C2001597D9F41A9A0E945F310E940631119707
:1047D20041F40E94A32C0E940D04E130D1F30E9407
:1047E20065310E940631129741F40E94A32C0E9467
:1047F2001004E130D1F30E94653131C6E330A0E00C
:10480200FA0711F00C945C240E940631129711F4FD
:104812000E94191B0E946930159734F40E940A2FD6
:10482200FA93EA930E946E300E942D310E946C31FD
:104832000E9470310E947333E021E1F10E947531D0
:104842000E945F310E94812C0E947031EA17FB079F
:10485200C9F40E940631119741F40E94A32C0E94D0
:104862000D04E130D1F30E947D310E94063112978E
:1048720041F40E94A32C0E941004E130D1F30E9463
:104882007D3118C00E940631119741F40E94A32C79
:104892000E940D04E130D1F30E9451310E94063191
:1048A200129741F40E94A32C0E941004E130D1F32C
:1048B2000E945131D4C5E430A0E0FA0771F50E949C
:1048C2000631129711F40E94191B0E946930159744
:1048D20024F40E945C300E946E300E946930159769
:1048E200D9F41A980E945F310E940631119741F45F
:1048F2000E94A32C0E940D04E130D1F30E94843166
:104902000E940631129741F40E94A32C0E941004C7
:10491200E130D1F30E948431A2C5E530A0E0FA076C
:1049220011F00C9447250E9490310E949B31E021A6
:1049320021F00E94AD2C0E948D300E9490310E9485
:104942009E3121F00E945C300E948D300E9406311F
:10495200129711F40E94191B0E94A1310E94613327
:104962000E94A5310E949B2FE02141F00E943C3120
:10497200E1E0F0E0E0934B05F0934C050E94A13199
:104982000E94AB310E94232F0E949B31E02121F033
:104992000E94A9300E948D300E94A1310E94AB3149
:1049A2000E94232F0E949E3121F00E94C3300E9458
:1049B2008D300E94A1310E94AB310E94273121F03B
:1049C200E3E0F0E00E9410310E9438310E94AE31E3
:1049D2000E949B2FE02121F0E3E0F0E00E94B6313B
:1049E2000E9438310E94AE310E94232F0E949B31D7
:1049F200E02111F00E9495300E9438310E94AE31C0
:104A02000E94232F0E949E3121F00E940B310E94AE
:104A1200DA300E94A1310E9461330E9431310E22AC
:104A2200A0914B05B0914C050E94232FE0211E2E30
:104A32000E94A1310E9461330E9431310E22A09165
:104A42004B05B0914C050E942731E129F1F00E94FB
:104A52003C310E9442310E94B9310E9406311197C5
:104A620041F40E94A32C0E940D04E130D1F30E9474
:104A7200BE310E940631129741F40E94A32C0E947B
:104A82001004E130D1F30E94BE31E9C4E630A0E067
:104A9200FA0711F00C94AF250E946130159724F4A7
:104AA2000E94F12E0E94AD30A0915905B0915A0595
:104AB200119721F4E5E0F0E00E9415300E94693080
:104AC200159714F40E9458310E940631129711F47E
:104AD2000E94191B0E942D310E9461330E2E0E94EA
:104AE200C5310E946133E021C1F10E94C9310E2E0D
:104AF2000E9406310E94232FE0211E2E0E94D531F2
:104B02000E2E0E9406310E942731E12909F01A9ADD
:104B1200C49A1B9A0E947E300E94DE310E94C233E8
:104B220024F40E94E3310E94ED310E940631119774
:104B320041F40E94A32C0E940D04E130D1F30E94A3
:104B4200F1310E940631129741F40E94A32C0E9477
:104B52001004E130D1F30E94F13181C4E730A0E0CA
:104B6200FA0711F00C94F6250E948830159724F468
:104B72000E94F62E0E9410310E940631129711F403
:104B82000E94191B0E948830159771F50E943C31D2
:104B9200E0E00E944C31E0E0E0934D05E0934E05E9
:104BA200E0935305E0935405E0935505E0935605D1
:104BB200E0935705E09358050E940631119741F49E
:104BC2000E94A32C0E940D04E130D1F30E94F8311F
:104BD2000E940631129741F40E94A32C0E941004F5
:104BE200E130D1F30E94F8313AC4E830A0E0FA078C
:104BF20011F00C946D270E94FF3114F40E941032C0
:104C02000E940631129711F40E94191B0E94A131D1
:104C12000E9473330E2E0E948B2C0E941432E021CC
:104C220031F0E0917105F09172050E9410310E94FD
:104C3200A1310E9461330E2E0E948B2C0E941432ED
:104C4200E02131F00E943C31ADE4B5E00E94203217
:104C52000E948B2CA0914D05B0914E050E942632E8
:104C62000E949B2FE02141F00E943C31E1E0F0E004
:104C7200E0935305F0935405A0915905B0915A055C
:104C8200119721F4E5E0F0E00E9415300E942D31E9
:104C92000E942E320E949B2F0E943632E02131F078
:104CA2000E940A2FFA93EA930E946E300E942D31DD
:104CB2000E946C310E9470310E9473330E9436321E
:104CC200E021E1F0E0915905F0915A05309711F495
:104CD2000E945F31E0915705F0915805309749F4F1
:104CE2000E947531E1E0F0E0E0935705F09358053A
:104CF20005C0E0E0E0935705E09358050E94C531F6
:104D02000E943C320E949B2FE02131F0E09173051A
:104D1200F09174050E94AD300E94C5310E9461334A
:104D22000E2E0E94862C0E9444320E947333E02190
:104D3200C9F0E0E00E94B931E0915505F0915605C5
:104D4200309759F4AFE4B5E00E942032E1E0F0E0A0
:104D5200E0935505F093560505C0E0E0E093550554
:104D6200E09356050E94C5310E943C320E94232FD7
:104D7200E02121F00E94F12E0E94AD300E942D31DF
:104D82000E942E320E94232F0E943632E02111F01F
:104D92000E9458310E94A1310E9473330E2EA091BD
:104DA2005305B09154050E94232FE02131F0E09188
:104DB2007505F09176050E9410310E942D310E94F6
:104DC2006C310E9470310E946133E0211E2EA0914D
:104DD2005305B0915405E1E0F0E00E9467330E2ED6
:104DE2000E94862C0E9444320E946733E029E1210E
:104DF20041F00E945F31E1E0F0E0E0938D05F09335
:104E02008E050E9449320E2E0E942D310E9473336C
:104E1200E02121F00E945C300E946E300E942D3110
:104E22000E9461330E2E0E944932E02129F0E0E017
:104E3200E0938D05E0938E050E94A1310E942632F7
:104E42000E94232F0E220E94812C0E9470310E9408
:104E520061330E220E94862C0E9444320E946133EA
:104E62000E220E94C5310E9461330E220E942D3112
:104E72000E9461330E943632E02169F1E0E0E09362
:104E82008D05E0938E050E944A30E0E00E944C318D
:104E9200E0E0E0934F05E0935005E0934D05E09389
:104EA2004E050E9410320E940631119741F40E9471
:104EB200A32C0E940D04E130D1F30E944E320E94D5
:104EC2000631129741F40E94A32C0E941004E13093
:104ED200D1F30E944E32C3C2E930A0E0FA0711F0CA
:104EE2000C940B280E940631119771F50E94C5316E
:104EF2000E9473330E2E0E94C931E02121F00E94DC
:104F02005C300E9466300E942D310E9455320E9410
:104F12005D3221F00E945C300E946E300E94C531E9
:104F22000E9455320E94633221F00E94AD2C0E94F1
:104F320066300E942D310E9455320E94693221F062
:104F42000E94AD2C0E946E300E9406311297A1F58C
:104F52000E94C5310E9473330E2E0E94D531E0218A
:104F620021F00E945C300E9466300E942D310E9426
:104F72006F320E945D3221F00E945C300E946E30DE
:104F82000E94C5310E946F320E94633221F00E945A
:104F9200AD2C0E9466300E942D310E946F320E9419
:104FA200693221F00E94AD2C0E946E300E940631BF
:104FB200129711F40E94191B0E94713051F11A9834
:104FC2001B98C4980E945F31E0E00E94B931A1E5CC
:104FD200B5E00E942032E2E0F0E0E0934B05F0936E
:104FE2004C050E940631119741F40E94A32C0E94A5
:104FF2000D04E130D1F30E9473320E940631129700
:1050020041F40E94A32C0E941004E130D1F30E94CB
:10501200733225C2EA30A0E0FA0711F00C94882816
:105022000E9406310E94232F0E947A3269F10E9467
:1050320085320E94E32C0E94C5040E948A32AE1778
:10504200BF0724F40E9490320E9413310E948A32D8
:10505200EA17FB0721F40E9490320E9497320E94C5
:105062009E320E94282F21F0EBE0F0E00E94A7324E
:105072000E949E32EAE0F0E00E946733E02121F0D4
:10508200EEE0F0E00E94A7320E940631129711F47E
:105092000E94191B0E940631E2E0F0E00E94613397
:1050A2000E947A3299F10E9485320E94F22C0E946B
:1050B200C5040E94013131970E94DE31AE17BF074D
:1050C20024F40E9490320E9413310E9401313197E0
:1050D2000E94DE31EA17FB0721F40E9490320E94FF
:1050E20097320E94AC320E94282F21F0ECE0F0E0CF
:1050F2000E94A7320E94AC32EAE0F0E00E946733DD
:10510200E02121F0EEE0F0E00E94A732A8C1EB30EE
:10511200A0E0FA07A9F50E940631129711F40E9445
:10512200191B0E948830159724F4E7E0F0E00E94F2
:1051320010310E949030159724F4E0E9F1E00E94CA
:10514200B6310E949C30D9F00E94ED310E943C3170
:105152000E94B23241F40E94A32C0E940D04E1305D
:10516200D1F30E94BA320E940631129741F40E9492
:10517200A32C0E941004E130D1F30E94BA326FC115
:10518200EC30A0E0FA07A9F50E940631129711F45B
:105192000E94191B0E948830159724F4E7E0F0E082
:1051A2000E9410310E949030159724F4E1E9F1E059
:1051B2000E94B6310E949C30D9F00E94ED310E94CB
:1051C2003C310E94B23241F40E94A32C0E940D0491
:1051D200E130D1F30E94BA320E940631129741F4B3
:1051E2000E94A32C0E941004E130D1F30E94BA3233
:1051F20036C1ED30A0E0FA0761F50E940631129740
:1052020011F40E94191B0E949030159724F4E2E9D0
:10521200F1E00E94B6310E9490301597C9F40E94C5
:1052220010320E94B23241F40E94A32C0E940D045B
:10523200E130D1F30E94BD320E940631129741F44F
:105242000E94A32C0E941004E130D1F30E94BD32CF
:1052520006C1EE30A0E0FA0799F50E9406311297D6
:1052620011F40E94191B0E948830159724F4E3E080
:10527200F0E00E9410310E948830159701F50E94DB
:105282003C310E94E3310E940631119751F40E9491
:10529200A32C0E940D04E130D1F3EFE0F0E00E9474
:1052A200A7320E940631129751F40E94A32C0E9449
:1052B2001004E130D1F3EFE0F0E00E94A732CFC05A
:1052C200EF30A0E0FA0731F50E940631129711F48F
:1052D2000E94191B0E94ED310E94FF31D4F40E94FA
:1052E20010320E940631119741F40E94A32C0E94B1
:1052F2000D04E130D1F30E94BD320E9406311297B3
:1053020041F40E94A32C0E941004E130D1F30E94C8
:10531200BD32A5C0E031A0E0FA0711F00C940C2ACE
:10532200E0913105F09132050E94DE310E94613335
:105332000E2E0E94C0320E949B2FE02111F10E948A
:10534200F5301F980E94B0300E94C23384F4E2E02C
:10535200F0E0E0935B05F0935C050E94BE300E9492
:10536200AC10E0E0E0934905E0934A0504C0E1E1B6
:10537200F0E00E94A732E1E0F0E0E0935F05F093F5
:1053820060050E94AC320E943A300E94C0320E94F4
:10539200232FE02179F01F980E94F530E1E1F0E03F
:1053A2000E94A7320E94E830E2E0F0E0E0935F055D
:1053B200F09360050E9435300E94FB300E94B030AD
:1053C2000E943A300E94C0320E94273151F00E945E
:1053D200E8300E94EF301F98C6980E94912F0E94D9
:1053E2002E2F0E9435300E94FB300E94B0300E9466
:1053F2009B2F0E220E94C0320E94232FE02151F0E7
:105402000E94E8300E94EF301E9AC6980E94912FA7
:105412000E942E2F24C0E131A0E0FA0701F50E947C
:105422008830159724F40E940B310E948D300E941F
:105432009030159724F40E94AD2C0E94DA300E941D
:105442009C3069F00E944A30E0E0E0935D05E09311
:105452005E05CC24DD24E0934905E0934A054FC85C
:1054620042C8FFCFA991B991EE27FF276D9166231C
:1054720011F03196FBCF0895AA27BB27E991F99144
:105482000590002011F01196FBCFFD0108955F9B5E
:10549200FECFECB108955D9BFECFE881ECB9219679
:1054A2000895EA81EA93F7DFA881B9810E94203248
:1054B2002396089526970E94CB3310E0AC85BD85D4
:1054C2000E943D2DEA89FB893196EA8BFB8B31974D
:1054D200E4912E2FE03011F40C94862BE12FE03072
:1054E20039F4253211F411E002C00E94C5320CC118
:1054F200E130A9F4253219F40E94C53204C112E048
:1055020040E000E02D3211F401E0FEC02B3211F434
:105512004BE2FAC0203211F440E2F6C002C0E2309F
:1055220039F450E013E0203311F40068EDC004C0F8
:10553200E33011F00C94852B203310F02A3308F05D
:1055420007C0AAE05A9F502DE22FE0535E0FDCC045
:10555200E22FE33649F40E94CE32E889F989A48128
:10556200AA930E94D432CFC0E33741F40E94CE32D4
:105572000E94DC320E94332A1E2F0AC0E03761F4F7
:105582000E94CE320E94DC320E943D2A1E2F086009
:1055920002600F7730E035C0E43611F0E93611F4DD
:1055A200046002C0E53731F4ECE8F0E0EE83FF83FB
:1055B20015E00DC0E83511F4086004C0E83711F0B9
:1055C2000C94842BE6E9F0E0EE83FF8314E002FF03
:1055D20014C00E94CE320E94E432AB85AA233AF470
:1055E200EA85FB850E944E33EA87FB874DE2403015
:1055F20011F01F5F01C00B7F04C00E94CE320E94D7
:10560200E43200FD11C0151778F407FF08C002FF4D
:1056120004C00B7F242F115001C020E301C020E2FF
:105622000E94C5325150EFCF312F01FF17C03030E9
:10563200A1F003FF06C0EE81FF812591EE83FF8377
:1056420005C0AE81BF812D91AE83BF830E94C5325A
:10565200503009F051503150EACF4BC020E3EE8177
:10566200FF810E948D33E887F987EE81FF813296B0
:10567200EE83FF83E885F985AA85BB85AE17BF0750
:1056820050F02F5FA885B985EA85FB85EA1BFB0BE5
:10569200EA87FB87EFCF2A3328F003FF02C0295F96
:1056A20001C0295D04FD1AC0213320F4A885B98503
:1056B200119709F409C0531710F000FF01C013C07D
:1056C20020E207FF0BC020E3006102FF07C00B7F4F
:1056D2004A930E94D432503009F051500E94C53290
:1056E200503009F051503150A885B985129708F011
:1056F200B5CF00FF08C0503031F05150E0E2EA93DC
:105702000E94D432F8CF10E0DDCEAC85BD850E9478
:105712007F330E94D23364960895FF92F82E269723
:105722001A930A93DE0114960E944A338D01E0E037
:10573200EC83ED83EE83EF83DE0118960E944A33F9
:105742000E947F330E942E2DE2E5FAE2FA93EA9359
:10575200FE013896FA93EA93ADDE19810881289604
:10576200FF9008950E94F132E881EA930E94253366
:10577200E0E0EA930E940A33EA830E940033EA815E
:105782000895E295EF70E695E6950895EAE5EA93C5
:105792000E944C2AE5EAEA930C944C2AEA930E946E
:1057A2004C2AEC81EA930E944C2AEA81EA930C94F7
:1057B2004C2A0E94482A0E94482A0C94482A0E9495
:1057C2008333EF5FFF4F6F4F7F4F0E9488330895FF
:1057D200ED91FD913196FE93EE93319708950E94DB
:1057E2005733A03DE9E5BE07E3E08E07E0E09E0700
:1057F2000895E0E0E0938B05E0938C050895A8E01E
:10580200B0E00E9499330895E0E0E0938905E093C7
:105812008A050895A6E0B0E00E9499330895EE81CA
:10582200FF81FA93EA9308950E944C2AE2E8EA93F0
:105832000C944C2AFA93EA93E0E0F0E0FA93EA93AC
:105842000895E0E9F0E0FA93EA930895FA93EA936F
:10585200E0E1F0E0FA93EA930895E0E3F0E0FA93EE
:10586200EA930895AC85BD85E1E0F0E00E946133E2
:105872000E2E0895ABE0B5E0EE0FFF1FAE0FBF1F77
:105882000895E0EAF0E0FA93EA93EA85FB85FA9359
:10589200EA93EA85FB85FA93EA930C94A804FA93B7
:1058A200EA93EA85FB850895FA93EA930C94A80497
:1058B200AA85BB85E1E0F0E00E946133E021089512
:1058C200AA85BB85E0E0F0E00E946133E021089503
:1058D200AC85BD85E2E0F0E00E9461330E2E0895B2
:1058E200DF01EFEFF0E00E946D330895AAE0B0E02F
:1058F2000E9499330895ACE0B0E00E949933089574
:10590200A0E0B0E00E9499330895A2E0B0E00E94C6
:1059120099330895A4E0B0E00E9499330895A8E075
:10592200B0E0E0E0F0E00E94A9330895A6E0B0E024
:10593200E0E0F0E00E94A9330895E3E0F0E00E9485
:10594200A9330895E6E0F5E0A1E00E949133E7E78C
:10595200F0E0FA93EA930895E0E0F0E0FA93EA9334
:105962000895E0E4F0E0FA93EA930C943604E0E858
:10597200F0E0FA93EA930C943604E0933105F09345
:105982003205EACF0E943604E0933305F0933405E2
:1059920064CFA0E0B0E00E94A933E0E2F0E0FA9325
:1059A200EA934FCF0E943604A2E0B0E00E94A933EE
:1059B200E0E3F0E03FCF0E943604A4E0B0E00E94B2
:1059C200A9330895E0E1F0E0FA93EA930895E0E75D
:1059D200F0E0FA93EA930895E0E5F0E0FA93EA93AF
:1059E2000895E0E6F0E0FA93EA930895E3E0F5E043
:1059F200A1E00E949133E9E7F0E0FA93EA93089577
:105A0200E0EAF0E0FA93EA93E0913D05F0913E0579
:105A1200FA93EA93E0913F05F091400545CFE0917A
:105A22003D05F0913E05FA93EA93E0913F05F0912E
:105A320040053ACFE1E0F5E0A1E00E949133E3E7CF
:105A4200F0E0FA93EA930895E029E0930205F2CF99
:105A5200E0E2F0E0FA93EA930895FA93EA931A9354
:105A62000A930895E1E0F0E0FA93EA930C94EC04CF
:105A7200ED93FC93F801FECEE0E0F0E0ED93FC93B1
:105A82000895FA93EA93CBCFE0936505F093660508
:105A9200EBE6F5E00895A1E1B0E0A083B183EDE685
:105AA200F5E00895ABE1B0E0A083B183EFE6F5E065
:105AB200A6E9B1E0A083B183E3E7F5E0A1E1B0E0BC
:105AC2000895A0E1B0E0A083B1830895EDE6F5E08A
:105AD200ACE1B0E0A083B183EFE6F5E0A0E9B1E08C
