:0C0000000C94ED040C9400000C94000023
:10000C000C9400000C9400000C9400000C94000064
:10001C000C9400000C9400000C9400000C94000054
:10002C000C9400000C9400000C9400000C94000044
:10003C000C9400000C9464050C9400000C940000CB
:10004C000C9400000C9400000C9400000C94000024
:10005C000C9400000C9400000C9400000C94000014
:10006C000C9400000C9400000C9400000C94000004
:10007C000C9400000C9400000C9400000C940000F4
:10008C001027E80364000A000100001000011000B2
:10009C0001000000202020202020202020202020D3
:1000AC002020202020202020202020202020202044
:1000BC002020202020202020202020202020202034
:1000CC0020202020005A616369736B206E696520C3
:1000DC007A6D6965727A6F6E7920752057796B6FBE
:1000EC006E61776379004B6C792077206B69657250
:1000FC00756E6B752070726177656A207374726FA0
:10010C006E79004B6C792077206B696572756E6B1C
:10011C0075206C6577656A207374726F6E79004315
:10012C0069736E69656E6965207A61206D616C65B5
:10013C00202D206D6E69656A737A65206E697A2050
:10014C0036206261720038362D3031373000383647
:10015C002D313034330038362D31363735003836C2
:10016C002D323039380038372D30313730003837B0
:10017C002D313034330038372D31363735003837A0
:10018C002D323039380038362D303139320038368E
:10019C002D313035340038362D313637360038367F
:1001AC002D323133320038372D3031393200383777
:1001BC002D313035340038372D313637360038375D
:1001CC002D323133320038362D3031393300383658
:1001DC002D313231360038362D3138333200383645
:1001EC002D323137340038372D3031393300383730
:1001FC002D313231360038372D3138333200383723
:10020C002D323137340038362D3031393400383610
:10021C002D313334310038362D3138333300383604
:10022C002D323138300038372D30313934003837F1
:10023C002D313334310038372D31383333003837E2
:10024C002D323138300038362D30363633003836D2
:10025C002D313334390038362D31383334003836BB
:10026C002D323230340038372D30363633003837B3
:10027C002D313334390038372D3138333400383799
:10028C002D323230340038362D303736380038368F
:10029C002D313335370038362D3138343800383677
:1002AC002D323231320038372D303736380038376E
:1002BC002D313335370038372D3138343800383755
:1002CC002D323231320038362D303830300038365D
:1002DC002D313336330038362D3139303400383641
:1002EC002D323234310038372D3038303000383739
:1002FC002D313336330038372D313930340038371F
:10030C002D323234310038362D3038313100383618
:10031C002D313532330038362D31393239003836FB
:10032C002D323236310038372D30383131003837F4
:10033C002D313532330038372D31393239003837D9
:10034C002D323236310038362D30383134003836D3
:10035C002D313533300038362D31393336003836BF
:10036C002D323238350038372D30383134003837AB
:10037C002D313533300038372D313933360038379D
:10038C002D323238350038362D303831350038368C
:10039C002D313535310038362D3139343100383680
:1003AC002D323238360038372D3038313500383769
:1003BC002D313535310038372D313934310038375E
:1003CC002D323238360038362D303831360038364A
:1003DC002D313535320038362D3230303700383645
:1003EC002D323239320038372D303831360038372B
:1003FC002D313535320038372D3230303700383723
:10040C002D323239320038362D303831370038360B
:10041C002D313630320038362D3230313700383607
:10042C002D323338340038372D30383137003837E7
:10043C002D313630320038372D32303137003837E5
:10044C002D323338340038362D30383437003836C6
:10045C002D313632300038362D32303139003836C5
:10046C002D323338350038372D30383437003837A3
:10047C002D313632300038372D32303139003837A3
:10048C002D323338350038362D3038353400383687
:10049C002D313632320038362D3230323800383683
:1004AC002D323433370038372D3038353400383767
:1004BC002D313632320038372D3230323800383761
:1004CC002D323433370038362D303836320038364A
:1004DC002D313632350038362D3230353200383643
:1004EC002D323439320038372D3038363200383727
:1004FC002D313632350038372D3230353200383721
:10050C002D323439320038362D3039333500383607
:10051C002D313634380038362D32303832003836FA
:10052C002D323530300038372D30393335003837EF
:10053C002D313634380038372D32303832003837D8
:10054C002D323530300038362D31303139003836D7
:10055C002D313634390038362D32303833003836B8
:10056C002D323538350038372D31303139003837A8
:10057C002D313634390038372D3230383300383796
:10058C002D323632340038362D3130323700383691
:10059C002D313636390038362D3230383700383672
:1005AC002D323632340038372D313032370038376F
:1005BC002D313636390038372D3230383700383750
:1005CC002D32353835004E69652077637A79746140
:1005DC006E6F207A616369736B75005A6174727AFD
:1005EC00796D616E6F202D206E616369736E696A1F
:1005FC002053544152542061627920777A6E6F7780
:10060C006963005A616D6B6E696A206F736C6F6EF3
:10061C007920676F726E652069206E616369736EF5
:10062C00696A205354415254004E616369736E6978
:10063C006A20535441525420616279207779706F4B
:10064C007A79636A6F6E6F776163206E617065642F
:10065C0079005A616D6B6E696A206F736C6F6E797D
:10066C0020676F726E65004F7477617263696520E5
:10067C006F736C6F6E2077207472616B6369652089
:10068C00706F7A79636A6F6E6F77616E696100570C
:10069C00796C61637A206920776C61637A206D6173
:1006AC00737A796E65005A6174727A796D616E69CC
:1006BC00652077207472616B63696520706F7A793D
:1006CC00636A6F6E6F77616E696100506F7A7963E0
:1006DC006A6F6E756A6520756B6C616479206C69E4
:1006EC006E696F77652058595A00537465726F772D
:1006FC006E696B2033202D207779706F7A79636A5D
:10070C006F6E6F77616C656D00537465726F776E89
:10071C00696B2034202D207779706F7A79636A6F3A
:10072C006E6F77616C656D00416C61726D205374F6
:10073C0065726F776E696B203400416C61726D204D
:10074C00537465726F776E696B20330053746572E6
:10075C006F776E696B2031202D207779706F7A79E5
:10076C00636A6F6E6F77616C656D00537465726F41
:10077C00776E696B2032202D207779706F7A7963D0
:10078C006A6F6E6F77616C656D00416C61726D2084
:10079C00537465726F776E696B203100416C6172B6
:1007AC006D20537465726F776E696B2032005779C8
:1007BC00706F7A79636A6F6E6F77616E6F20756B8D
:1007CC006C616479206C696E696F77652058595A31
:1007DC00004B6F6C697A6A6120585920756B6C619B
:1007EC006475206B72617A6B61004B6F6C697A6A0D
:1007FC006120585920756B6C61647520737A637A2B
:10080C006F746B69004B6F6C697A6A61206B7261F3
:10081C007A6B61202D2077796C61637A206920775F
:10082C006C61637A206D61737A796E65004B6F6CC5
:10083C00697A6A6120737A637A2E206472756369AF
:10084C00616E656A202D2077796C61637A2069204E
:10085C00776C61637A206D61737A796E6500577974
:10086C006D69656E20737A637A6F746B6520647240
:10087C00756369616E612031372D73746B65005738
:10088C00796D69656E20737A637A6F746B65206419
:10089C0072756369616E612031352D73746B6500FF
:1008AC0057796D69656E206B72617A656B20736325
:1008BC006965726E7920646F206B6F7270757375D9
:1008CC00206F20737265646E69637920333400572E
:1008DC00796D69656E206B72617A656B20736369E3
:1008EC0065726E7920646F206B6F727075737520F2
:1008FC006F20737265646E696379203336005779A3
:10090C006D69656E206B72617A656B2073636965C6
:10091C00726E7920646F206B6F7270757375206FB7
:10092C0020737265646E6963792033380057796D72
:10093C0069656E206B72617A656B20736369657291
:10094C006E7920646F206B6F7270757375206F20D9
:10095C00737265646E6963792034310057796D69FF
:10096C00656E206B72617A656B2073636965726E5C
:10097C007920646F206B6F7270757375206F2073A4
:10098C007265646E696379203433002D2D2D2D2D05
:10099C002D2D0057637A7974616A207A61636973CB
:1009AC006B2074656E2073616D206C7562206E6FA8
:1009BC007779000001002D4E414E00494E46000053
:1009CC00010002009E000100C505C0090000F8945A
:1009DC00EE27ECBBF1E0F5BFE5BFE0936C00F8E16E
:1009EC00F1BDE1BD8DE0A2E0BB27ED938A95E9F75F
:1009FC0080E090E1A0E0B1E0ED930197E9F7ECEC39
:100A0C00F9E085919591009761F0A591B5910590CC
:100A1C001590BF01F00105900D920197E1F7FB01D4
:100A2C00F0CF8BBFEFEFEDBFE0E1EEBFC0E0D5E064
:100A3C000C94D1310E940B3C23C00E940B3CE695D8
:100A4C001FC00E940B3CE695E6951AC00E940B3C19
:100A5C00E695E695E69514C00E940B3CE29510C015
:100A6C000E940B3CE295EF70E6950AC00E940B3C8D
:100A7C000E941A3C05C00E940B3CEE1FE0E0EE1FEA
:100A8C00E170239608950E941F3C0E94243CE4E0F0
:100A9C00EA930E94A43AE3E80E942C3CE1E0EA933A
:100AAC000E94A43A0E94373C0E94373C0E94373C7B
:100ABC000E2F1127F8011981088160C06A937A936F
:100ACC00AA93BA93EA93FA93EFB7EA93A5E2B5E047
:100ADC000E943D3CA9E2B5E00E943D3CADE2B5E090
:100AEC000E943D3CA1E3B5E00E943D3CA5E3B5E08E
:100AFC000E943D3CA9E3B5E00E943D3CADE3B5E06E
:100B0C000E943D3CA1E4B5E00E943D3CA5E4B5E06B
:100B1C000E943D3CE991EFBFF991E991B991A991FE
:100B2C007991699118950E941F3C0E94463C0E9445
:100B3C00953A8F010D5F1F4F0E94243C0A930E942F
:100B4C00A43AE2E80E942C3C0E94463C80E00E94C1
:100B5C00E63B229619810881289608950E94243C30
:100B6C00E5E0EA930E944B3CEA81EA930E94A43AA6
:100B7C000E94513CEC81EA930E94A43A2696089577
:100B8C00A091B905B091BA05119761F40E94593C36
:100B9C000E94593C0E945E3CE1DFE0E0E093B90525
:100BAC00E093BA05089524970E94404900E010E0B4
:100BBC00EE85FF85FA93EA930E94953A8F010D5FBB
:100BCC001F4FAC85BD85119759F420E030E040E50E
:100BDC0050E0E0E5F0E0E887F987E0E0EE83EF83B2
:100BEC00AC85BD85129759F420E030E040E250E02E
:100BFC00E0E4F0E0E887F987E0E0EE83EF830E9421
:100C0C00243C0A930E944B3C2A930E94A43A4A9398
:100C1C000E94A43AEE85FF85FA93EA9380E00E9445
:100C2C00E63B22960E94633C0E946B3C31F00E9492
:100C3C007B3CE1EDF0E00E94893C0E94633C0E9409
:100C4C00953C31F00E947B3CE2EFF0E00E94893C45
:100C5C000E94633C0E949D3C31F00E947B3CEFE083
:100C6C00F1E00E94893C0E94A53C0E94953C31F029
:100C7C000E94AD3CEFE0F1E00E94BB3C0E94A53C21
:100C8C000E949D3C31F00E94AD3CE2EFF0E00E94EE
:100C9C00BB3C0E94A53C0E946B3C31F00E94AD3CD9
:100CAC00E1EDF0E00E94BB3C0E944749609608953C
:100CBC000E94C73C0E94D13CEF930E94C73C0E940B
:100CCC00D73CAF91EA2341F00E94593C0E94DD3C95
:100CDC00E0934B05F0934C050E94593C0E94E33C79
:100CEC000E94E93C0E94EE3C0E94F33C0E94DD3CD9
:100CFC000E94FA3C0E94593CC6DE4F010E945E3CA9
:100D0C000E94073D0E940D3D0E94133D0E94593CDC
:100D1C000E941A3D0E94203D0E945E3C0E94E33CD2
:100D2C000E94253D0E942A3D0E94EE3CACDE0E94B2
:100D3C002F3D0E942A3D0E94DD3C0E94343D0E94C2
:100D4C002A3D0E94393D0E943F3D0E942A3D0E944F
:100D5C002A3D99DE0E94443D0E942A3D0E94073D97
:100D6C000E94493D0E94EE3C0E94393DE0939D0556
:100D7C00F0939E050E94EE3C0E942A3D84DEE09397
:100D8C009F05F093A0050E94EE3C0E94073D0E9437
:100D9C004E3D0E941A3DE093AB05F093AC050E94CA
:100DAC00593C0E94073D5F0108950E941F3C002E94
:100DBC00012A21F50E94533D59DEE03089F401E00F
:100DCC0010E0E091B505F091B605309741F40E9422
:100DDC005D3DE1E0F0E0E093B505F093B6050DC0A4
:100DEC0000E010E0E0E0E093B505E093B6050E946A
:100DFC005D3DEBE2F1E00E946F3DD9CF0991199175
:100E0C0008951A930A930E947F3D14DEE1700E2E12
:100E1C00E0910205EE7F0E94893D0FDEE170EE0F3E
:100E2C000E2EE0910205ED7F0E94893D0ADEE170F5
:100E3C00EE0FEE0F0E2EE0910205EB7F0E94893D26
:100E4C0005DEE170EE0FEE0FEE0F0E2EE0910205B7
:100E5C00E77F0E94893D00DEE170E295E07F0E2E77
:100E6C00E0910205EF7E0E94893DFADDE170E2958A
:100E7C00E07FEE0F0E2EE0910205EF7D0E94893D82
:100E8C00F5DDE170E295E07FEE0FEE0F0E2EE091B6
:100E9C000205EF7B0E94893DEEDDE170E795E0E015
:100EAC00E7950E2EE0910205EF77E029E09302051D
:100EBC000E948D3D0E94E33C8F01A0910205A13060
:100ECC0061F40E94923D0E949A3DE2E5F1E00E949D
:100EDC009F3D0E94A43D0E94AA3DA0910205A23014
:100EEC0071F40E94923DE2E0F0E0ED93FC93EAE5B0
:100EFC00F1E00E949F3D0E94593C0E94B13DA0919F
:100F0C000205A33071F40E94923DE3E0F0E0ED9312
:100F1C00FC93E2E6F1E00E949F3D0E94593C0E9446
:100F2C00BA3DA0910205A43071F40E94923DE4E018
:100F3C00F0E0ED93FC93EAE6F1E00E949F3D0E9405
:100F4C00593C0E94BA3DA0910205A53071F40E9453
:100F5C00923DE5E0F0E0ED93FC93E2E7F1E00E94D6
:100F6C009F3D0E94593C0E94BA3DA0910205A630BB
:100F7C0071F40E94923DE6E0F0E0ED93FC93EAE719
:100F8C00F1E00E949F3D0E94A43D0E94BD3DA091B6
:100F9C000205A73071F40E94923DE7E0F0E0ED937A
:100FAC00FC93E2E8F1E00E949F3D0E94A43D0E9468
:100FBC00AA3DA0910205A83071F40E94923DE8E090
:100FCC00F0E0ED93FC93EAE8F1E00E949F3D0E9473
:100FDC00A43D0E94AA3DA0910205A93071F40E9483
:100FEC00923DE9E0F0E0ED93FC93E2E9F1E00E9440
:100FFC009F3D0E94593C0E94BA3DA0910205AA3027
:10100C0071F40E94923DEAE0F0E0ED93FC93EAE982
:10101C00F1E00E949F3D0E94593C0E94C43DA0916A
:10102C000205AB3071F40E94923DEBE0F0E0ED93E1
:10103C00FC93E2EAF1E00E949F3D0E94593C0E9421
:10104C00C43DA0910205AC3071F40E94923DECE0DD
:10105C00F0E0ED93FC93EAEAF1E00E949F3D0E94E0
:10106C00A43D0E94CD3DA0910205AD3071F40E94CB
:10107C00923DEDE0F0E0ED93FC93E2EBF1E00E94A9
:10108C009F3D0E94A43D0E94AA3DA0910205AE3056
:10109C0071F40E94923DEEE0F0E0ED93FC93EAEBEC
:1010AC00F1E00E949F3D0E94A43D0E94CD3DA09185
:1010BC000205AF3071F40E94923DEFE0F0E0ED9349
:1010CC00FC93E2ECF1E00E949F3D0E94A43D0E9443
:1010DC00CD3DA0910205A03171F40E94923DE0E15A
:1010EC00F0E0ED93FC93EAECF1E00E949F3D0E944E
:1010FC00593C0E94C43DA0910205A13171F40E949B
:10110C00923DE1E1F0E0ED93FC93E2EDF1E00E9421
:10111C009F3D0E94593C0E94BA3DA0910205A2310C
:10112C0071F40E94923DE2E1F0E0ED93FC93EAED64
:10113C00F1E00E949F3D0E94593C0E94B13DA0915C
:10114C000205A33171F40E94923DE3E1F0E0ED93CE
:10115C00FC93E2EEF1E00E949F3D0E94593C0E94FC
:10116C00C43DA0910205A43171F40E94923DE4E1CA
:10117C00F0E0ED93FC93EAEEF1E00E949F3D0E94BB
:10118C00593C0E94B13DA0910205A53171F40E9419
:10119C00923DE5E1F0E0ED93FC93E2EFF1E00E948B
:1011AC009F3D0E94A43D0E94AA3DA0910205A6313C
:1011BC0071F40E94923DE6E1F0E0ED93FC93EAEFCE
:1011CC00F1E00E949F3D0E94A43D0E94BD3DA09174
:1011DC000205A73171F40E94923DE7E1F0E0ED9336
:1011EC00FC93E2E0F2E00E949F3D0E94A43D0E942D
:1011FC00CD3DA0910205A83171F40E94923DE8E129
:10120C00F0E0ED93FC93EAE0F2E00E949F3D0E9437
:10121C00A43D0E94BD3DA0910205A93171F40E942C
:10122C00923DE9E1F0E0ED93FC93E2E1F2E00E9403
:10123C009F3D0E94593C0E94C43DA0910205AA31D9
:10124C0071F40E94923DEAE1F0E0ED93FC93EAE147
:10125C00F2E00E949F3D0E94593C0E94B13DA0913A
:10126C000205AB3171F40E94923DEBE1F0E0ED939D
:10127C00FC93E2E2F2E00E949F3D0E94593C0E94E6
:10128C00C43DA0910205AC3171F40E94923DECE199
:10129C00F0E0ED93FC93EAE2F2E00E949F3D0E94A5
:1012AC00A43D0E94CD3DA0910205AD3171F40E9488
:1012BC00923DEDE1F0E0ED93FC93E2E3F2E00E946D
:1012CC009F3D0E94A43D0E94CD3DA0910205AE31F0
:1012DC0071F40E94923DEEE1F0E0ED93FC93EAE3B1
:1012EC00F2E00E949F3D0E94A43D0E94BD3DA09152
:1012FC000205AF3171F40E94923DEFE1F0E0ED9305
:10130C00FC93E2E4F2E00E949F3D0E94A43D0E9407
:10131C00CD3DA0910205A03271F40E94923DE0E215
:10132C00F0E0ED93FC93EAE4F2E00E949F3D0E9412
:10133C00593C0E94C43DA0910205A13271F40E9457
:10134C00923DE1E2F0E0ED93FC93E2E5F2E00E94E5
:10135C009F3D0E94A43D0E94D43DA0910205A23263
:10136C0071F40E94923DE2E2F0E0ED93FC93EAE529
:10137C00F2E00E949F3D0E94593C0E94BA3DA09110
:10138C000205A33271F40E94923DE3E2F0E0ED938A
:10139C00FC93E2E6F2E00E949F3D0E94593C0E94C1
:1013AC00B13DA0910205A43271F40E94923DE4E299
:1013BC00F0E0ED93FC93EAE6F2E00E949F3D0E9480
:1013CC00593C0E94BA3DA0910205A53271F40E94CD
:1013DC00923DE5E2F0E0ED93FC93E2E7F2E00E944F
:1013EC009F3D0E94593C0E94DB3DA0910205A63214
:1013FC0071F40E94923DE6E2F0E0ED93FC93EAE793
:10140C00F2E00E949F3D0E94A43D0E94AA3DA09143
:10141C000205A73271F40E94923DE7E2F0E0ED93F1
:10142C00FC93E2E8F2E00E949F3D0E94A43D0E94E2
:10143C00BD3DA0910205A83271F40E94923DE8E2F4
:10144C00F0E0ED93FC93EAE8F2E00E949F3D0E94ED
:10145C00A43D0E94AA3DA0910205A93271F40E94FC
:10146C00923DE9E2F0E0ED93FC93E2E9F2E00E94B8
:10147C009F3D0E94A43D0E94AA3DA0910205AA3264
:10148C0071F40E94923DEAE2F0E0ED93FC93EAE9FC
:10149C00F2E00E949F3D0E94593C0E94BA3DA091EF
:1014AC000205AB3271F40E94923DEBE2F0E0ED9359
:1014BC00FC93E2EAF2E00E949F3D0E94593C0E949C
:1014CC00BA3DA0910205AC3281F40E94923DECE24F
:1014DC00F0E00E94DE3D0E94E13DEAEAF2E00E946B
:1014EC009F3D0E94593C0E94BA3DA0910205AD322D
:1014FC0071F40E94923DEDE2F0E0ED93FC93E2EB8F
:10150C00F2E00E949F3D0E94593C0E94BA3DA0917E
:10151C000205AE3271F40E94923DEEE2F0E0ED93E2
:10152C00FC93EAEBF2E00E949F3D0E94A43D0E94D6
:10153C00AA3DA0910205AF3271F40E94923DEFE2F8
:10154C00F0E0ED93FC93E2ECF2E00E949F3D0E94F0
:10155C00A43D0E94AA3DA0910205A03381F40E94F3
:10156C00923DE0E3F0E00E94DE3D0E94E13DEAECBA
:10157C00F2E00E949F3D0E94A43D0E94AA3DA091D2
:10158C000205A13371F40E94923DE1E3F0E0ED938A
:10159C00FC93E2EDF2E00E949F3D0E94593C0E94B8
:1015AC00BA3DA0910205A23371F40E94923DE2E390
:1015BC00F0E0ED93FC93EAEDF2E00E949F3D0E9477
:1015CC00593C0E94B13DA0910205A33371F40E94D5
:1015DC00923DE3E3F0E0ED93FC93E2EEF2E00E9447
:1015EC009F3D0E94593C0E94DB3DA0910205A43313
:1015FC0071F40E94923DE4E3F0E0ED93FC93EAEE8B
:10160C00F2E00E949F3D0E94A43D0E94BD3DA0912E
:10161C000205A53371F40E94923DE5E3F0E0ED93F1
:10162C00FC93E2EFF2E00E949F3D0E94A43D0E94D9
:10163C00AA3DA0910205A63371F40E94923DE6E307
:10164C00F0E0ED93FC93EAEFF2E00E949F3D0E94E4
:10165C00A43D0E94BD3DA0910205A73371F40E94E8
:10166C00923DE7E3F0E0ED93FC93E2E0F3E00E94BF
:10167C009F3D0E94A43D0E94D43DA0910205A83339
:10168C0071F40E94923DE8E3F0E0ED93FC93EAE004
:10169C00F3E00E949F3D0E94593C0E94B13DA091F5
:1016AC000205A93371F40E94923DE9E3F0E0ED9359
:1016BC00FC93E2E1F3E00E949F3D0E94593C0E94A2
:1016CC00B13DA0910205AA3371F40E94923DEAE368
:1016DC00F0E0ED93FC93EAE1F3E00E949F3D0E9461
:1016EC00593C0E94BA3DA0910205AB3371F40E94A3
:1016FC00923DEBE3F0E0ED93FC93E2E2F3E00E9429
:10170C009F3D0E94593C0E94C43DA0910205AC3300
:10171C0071F40E94923DECE3F0E0ED93FC93EAE26D
:10172C00F3E00E949F3D0E94593C0E94B13DA09164
:10173C000205AD3371F40E94923DEDE3F0E0ED93C0
:10174C00FC93E2E3F3E00E949F3D0E94A43D0E94C3
:10175C00BD3DA0910205AE3371F40E94923DEEE3C3
:10176C00F0E0ED93FC93EAE3F3E00E949F3D0E94CE
:10177C00A43D0E94AA3DA0910205AF3371F40E94D2
:10178C00923DEFE3F0E0ED93FC93E2E4F3E00E9492
:10179C009F3D0E94A43D0E94CD3DA0910205A03426
:1017AC0071F40E94923DE0E4F0E0ED93FC93EAE4E6
:1017BC00F3E00E949F3D0E94A43D0E94BD3DA0917C
:1017CC000205A13471F40E94923DE1E4F0E0ED9346
:1017DC00FC93E2E5F3E00E949F3D0E94593C0E947D
:1017EC00E63DA0910205A23471F40E94923DE2E420
:1017FC00F0E0ED93FC93EAE5F3E00E949F3D0E943C
:10180C00A43D0E94AA3DA0910205A33471F40E944C
:10181C00923DE3E4F0E0ED93FC93E2E6F3E00E940A
:10182C009F3D0E94A43D0E94AA3DA0910205A434B4
:10183C0071F40E94923DE4E4F0E0ED93FC93EAE64F
:10184C00F3E00E949F3D0E94A43D0E94CD3DA091DB
:10185C000205A53471F40E94923DE5E4F0E0ED93AD
:10186C00FC93E2E7F3E00E949F3D0E94A43D0E949E
:10187C00EF3DA0910205A63471F40E94923DE6E47E
:10188C00F0E0ED93FC93EAE7F3E00E949F3D0E94A9
:10189C00593C0E94BA3DA0910205A73471F40E94F4
:1018AC00923DE7E4F0E0ED93FC93E2E8F3E00E9474
:1018BC009F3D0E94593C0E94BA3DA0910205A8345C
:1018CC0071F40E94923DE8E4F0E0ED93FC93EAE8B9
:1018DC00F3E00E949F3D0E94593C0E94C43DA091A0
:1018EC000205A93471F40E94923DE9E4F0E0ED9315
:1018FC00FC93E2E9F3E00E949F3D0E94593C0E9458
:10190C00BA3DA0910205AA3471F40E94923DEAE41A
:10191C00F0E0ED93FC93EAE9F3E00E949F3D0E9416
:10192C00593C0E94BA3DA0910205AB3471F40E945F
:10193C00923DEBE4F0E0ED93FC93E2EAF3E00E94DD
:10194C009F3D0E94593C0E94BA3DA0910205AC34C7
:10195C0081F40E94923DECE4F0E00E94DE3D0E9496
:10196C00E13DEAEAF3E00E949F3D0E94593C0E944F
:10197C00C43DA0910205AD3471F40E94923DEDE49A
:10198C00F0E0ED93FC93E2EBF3E00E949F3D0E94AC
:10199C00A43D0E94AA3DA0910205AE3471F40E94B0
:1019AC00923DEEE4F0E0ED93FC93EAEBF3E00E9461
:1019BC009F3D0E94A43D0E94AA3DA0910205AF3418
:1019CC0071F40E94923DEFE4F0E0ED93FC93E2ECB5
:1019DC00F3E00E949F3D0E94A43D0E94AA3DA0916D
:1019EC000205A03581F40E94923DE0E5F0E00E94F2
:1019FC00DE3D0E94E13DEAECF3E00E949F3D0E9437
:101A0C00593C0E94C43DA0910205A13571F40E947D
:101A1C00923DE1E5F0E0ED93FC93E2EDF3E00E9402
:101A2C009F3D0E94593C0E94E63DA0910205A235C3
:101A3C0071F40E94923DE2E5F0E0ED93FC93EAED47
:101A4C00F3E00E949F3D0E94593C0E94B13DA09141
:101A5C000205A33571F40E94923DE3E5F0E0ED93AD
:101A6C00FC93E2EEF3E00E949F3D0E94A43D0E9495
:101A7C00CD3DA0910205A43571F40E94923DE4E5A0
:101A8C00F0E0ED93FC93EAEEF3E00E949F3D0E94A0
:101A9C00A43D0E94AA3DA0910205A53571F40E94B7
:101AAC00923DE5E5F0E0ED93FC93E2EFF3E00E946C
:101ABC009F3D0E94A43D0E94EF3DA0910205A635DA
:101ACC0071F40E94923DE6E5F0E0ED93FC93EAEFB1
:101ADC00F3E00E949F3D0E94A43D0E94BD3DA09159
:101AEC000205A73571F40E94923DE7E5F0E0ED9315
:101AFC00FC93E2E0F4E00E949F3D0E94593C0E945E
:101B0C00C43DA0910205A83571F40E94923DE8E510
:101B1C00F0E0ED93FC93EAE0F4E00E949F3D0E941C
:101B2C00593C0E94BA3DA0910205A93571F40E945E
:101B3C00923DE9E5F0E0ED93FC93E2E1F4E00E94E4
:101B4C009F3D0E94593C0E94BA3DA0910205AA35C6
:101B5C0071F40E94923DEAE5F0E0ED93FC93EAE12A
:101B6C00F4E00E949F3D0E94A43D0E94AA3DA091DA
:101B7C000205AB3571F40E94923DEBE5F0E0ED937C
:101B8C00FC93E2E2F4E00E949F3D0E94A43D0E947F
:101B9C00CD3DA0910205AC3581F40E94923DECE55F
:101BAC00F0E00E94DE3D0E94E13DEAE2F4E00E949A
:101BBC009F3D0E94593C0E94BA3DA0910205AD3553
:101BCC0071F40E94923DEDE5F0E0ED93FC93E2E3BD
:101BDC00F4E00E949F3D0E94A43D0E94AA3DA0916A
:101BEC000205AE3571F40E94923DEEE5F0E0ED9306
:101BFC00FC93EAE3F4E00E949F3D0E94593C0E9452
:101C0C00BA3DA0910205AF3571F40E94923DEFE50B
:101C1C00F0E0ED93FC93E2E4F4E00E949F3D0E941F
:101C2C00593C0E94C43DA0910205A03681F40E944B
:101C3C00923DE0E6F0E00E94DE3D0E94E13DEAE4E8
:101C4C00F4E00E949F3D0E94593C0E94BA3DA09135
:101C5C000205A13671F40E94923DE1E6F0E0ED93AD
:101C6C00FC93E2E5F4E00E949F3D0E94593C0E94E7
:101C7C00C43DA0910205A23671F40E94923DE2E6A9
:101C8C00F0E0ED93FC93EAE5F4E00E949F3D0E94A6
:101C9C00593C0E94BA3DA0910205A33671F40E94F2
:101CAC00923DE3E6F0E0ED93FC93E2E6F4E00E9473
:101CBC009F3D0E94A43D0E94CD3DA0910205A436FB
:101CCC0071F40E94923DE4E6F0E0ED93FC93EAE6B9
:101CDC00F4E00E949F3D0E94593C0E94BA3DA091A5
:101CEC000205A53671F40E94923DE5E6F0E0ED9315
:101CFC00FC93E2E7F4E00E949F3D0E94A43D0E9409
:101D0C00CD3DA0910205A63671F40E94923DE6E607
:101D1C00F0E0ED93FC93EAE7F4E00E949F3D0E9413
:101D2C00A43D0E94AA3DA0910205A73671F40E9421
:101D3C00923DE7E6F0E0ED93FC93E2E8F4E00E94DC
:101D4C009F3D0E94593C0E94C43DA0910205A836BB
:101D5C0071F40E94923DE8E6F0E0ED93FC93EAE822
:101D6C00F4E00E949F3D0E94A43D0E94AA3DA091D8
:101D7C000205A93671F40E94923DE9E6F0E0ED937C
:101D8C00FC93E2E9F4E00E949F3D0E94593C0E94C2
:101D9C00B13DA0910205AA3671F40E94923DEAE68B
:101DAC00F0E0ED93FC93EAE9F4E00E949F3D0E9481
:101DBC00A43D0E94BD3DA0910205AB3681F40E946A
:101DCC00923DEBE6F0E00E94DE3D0E94E13DE2EA4E
:101DDC00F4E00E949F3D0E94593C0E94DB3DA09183
:101DEC000205AC3671F40E94923DECE6F0E0ED9306
:101DFC00FC93EAEAF4E00E949F3D0E94593C0E9449
:101E0C00BA3DA0910205AD3671F40E94923DEDE60B
:101E1C00F0E0ED93FC93E2EBF4E00E949F3D0E9416
:101E2C00A43D0E94BD3DA0910205AE3671F40E9406
:101E3C00923DEEE6F0E0ED93FC93EAEBF4E00E94C9
:101E4C009F3D0E94593C0E94B13DA0910205AF36C6
:101E5C0081F40E94923DEFE6F0E00E94DE3D0E948C
:101E6C00E13DE2ECF4E00E949F3D0E94593C0E944F
:101E7C00DB3DA0910205A03771F40E94923DE0E792
:101E8C00F0E0ED93FC93EAECF4E00E949F3D0E949D
:101E9C00A43D0E94AA3DA0910205A13771F40E94B5
:101EAC00923DE1E7F0E0ED93FC93E2EDF4E00E946B
:101EBC009F3D0E94593C0E94BA3DA0910205A23759
:101ECC0071F40E94923DE2E7F0E0ED93FC93EAEDB1
:101EDC00F4E00E949F3D0E94593C0E94BA3DA091A3
:101EEC000205A33771F40E94923DE3E7F0E0ED9315
:101EFC00FC93E2EEF4E00E949F3D0E94593C0E944C
:101F0C00DB3DA0910205A43771F40E94923DE4E7F9
:101F1C00F0E0ED93FC93EAEEF4E00E949F3D0E940A
:101F2C00A43D0E94AA3DA0910205A53771F40E9420
:101F3C00923DE5E7F0E0ED93FC93E2EFF4E00E94D4
:101F4C009F3D0E94A43D0E94AA3DA0910205A63788
:101F5C0071F40E94923DE6E7F0E0ED93FC93EAEF1A
:101F6C00F4E00E949F3D0E94A43D0E94AA3DA091D6
:101F7C000205A73771F40E94923DE7E7F0E0ED937C
:101F8C00FC93E2E0F5E00E949F3D0E94A43D0E947C
:101F9C00D43DA0910205A83771F40E94923DE8E768
:101FAC00F0E0ED93FC93EAE0F5E00E949F3D0E9487
:101FBC00593C0E94BA3DA0910205A93771F40E94C8
:101FCC00923DE9E7F0E0ED93FC93E2E1F5E00E944D
:101FDC009F3D0E94593C0E94BA3DA0910205AA3730
:101FEC0071F40E94923DEAE7F0E0ED93FC93EAE194
:101FFC00F5E00E949F3D0E94593C0E94BA3DA09181
:10200C000205AB3771F40E94923DEBE7F0E0ED93E3
:10201C00FC93E2E2F5E00E949F3D0E94593C0E9435
:10202C00E63DA0910205AC3771F40E94923DECE7BD
:10203C00F0E0ED93FC93EAE2F5E00E949F3D0E94F4
:10204C00593C0E94BA3DA0910205AD3771F40E9433
:10205C00923DEDE7F0E0ED93FC93E2E3F5E00E94B6
:10206C009F3D0E94A43D0E94AA3DA0910205AE375F
:10207C0071F40E94923DEEE7F0E0ED93FC93EAE3FD
:10208C00F5E00E949F3D0E94A43D0E94AA3DA091B4
:10209C000205AF3771F40E94923DEFE7F0E0ED934B
:1020AC00FC93E2E4F5E00E949F3D0E94A43D0E9457
:1020BC00EF3DA0910205A03871F40E94923DE0E83A
:1020CC00F0E0ED93FC93EAE4F5E00E949F3D0E9462
:1020DC00A43D0E94AA3DA0910205A13871F40E9472
:1020EC00923DE1E8F0E0ED93FC93E2E5F5E00E942F
:1020FC009F3D0E94593C0E94C43DA0910205A2380C
:10210C0071F40E94923DE2E8F0E0ED93FC93EAE575
:10211C00F5E00E949F3D0E94593C0E94BA3DA0915F
:10212C000205A33871F40E94923DE3E8F0E0ED93D0
:10213C00FC93E2E6F5E00E949F3D0E94A43D0E94C4
:10214C00D43DA0910205A43871F40E94923DE4E8BC
:10215C00F0E0ED93FC93EAE6F5E00E949F3D0E94CF
:10216C00593C0E94DB3DA0910205A53871F40E94F8
:10217C00923DE5E8F0E0ED93FC93E2E7F5E00E9498
:10218C009F3D0E94A43D0E94CD3DA0910205A63822
:10219C0071F40E94923DE6E8F0E0ED93FC93EAE7DF
:1021AC00F5E00E949F3D0E94A43D0E94AA3DA09193
:1021BC000205A73871F40E94923DE7E8F0E0ED9338
:1021CC00FC93E2E8F5E00E949F3D0E94593C0E947E
:1021DC00DB3DA0910205A83871F40E94923DE8E81D
:1021EC00F0E0ED93FC93EAE8F5E00E949F3D0E943D
:1021FC00A43D0E94BD3DA0910205A93871F40E9436
:10220C00923DE9E8F0E0ED93FC93E2E9F5E00E9401
:10221C009F3D0E94593C0E94B13DA0910205AA38F5
:10222C0071F40E94923DEAE8F0E0ED93FC93EAE948
:10223C00F5E00E949F3D0E94A43D0E94AA3DA09102
:10224C000205AB3871F40E94923DEBE8F0E0ED939F
:10225C00FC93E2EAF5E00E949F3D0E94A43D0E949F
:10226C00AA3DA0910205AC3871F40E94923DECE8B5
:10227C00F0E0ED93FC93EAEAF5E00E949F3D0E94AA
:10228C00593C0E94B13DA0910205AD3871F40E94F9
:10229C00923DEDE8F0E0ED93FC93E2EBF5E00E946B
:1022AC009F3D0E94A43D0E94BD3DA0910205AE3809
:1022BC0071F40E94923DEEE8F0E0ED93FC93EAEBB2
:1022CC00F5E00E949F3D0E94593C0E94BA3DA091AE
:1022DC000205AF3871F40E94923DEFE8F0E0ED9307
:1022EC00FC93E2ECF5E00E949F3D0E94593C0E9459
:1022FC00BA3DA0910205A03971F40E94923DE0E92B
:10230C00F0E0ED93FC93EAECF5E00E949F3D0E9417
:10231C00A43D0E94D43DF801099119910895E881DA
:10232C00F981AFE1B5E00E94F63D0E941D4930975E
:10233C0041F40E945D3DE2EDF5E00E946F3D0C948E
:10234C00FD19E130A0E0FA0751F4E8ECF0E00E944E
:10235C00FB3D0E94023E0E94093E0C94E419E230BF
:10236C00A0E0FA0771F4E0E1F1E00E94FB3D0E946D
:10237C00183E0E941D3E0E94183E0E942C3E0C945A
:10238C00EA19E330A0E0FA0761F4EAE7F0E00E9412
:10239C00FB3D0E94023E0E94313E0E943A3E0C944C
:1023AC00EA19E430A0E0FA0761F4E2E0F1E00E94FF
:1023BC00FB3D0E94023E0E94433E0E943A3E0C941A
:1023CC00EA19E530A0E0FA0759F4E0EBF0E00E94DE
:1023DC00FB3D0E94023E0E94093E0E944C3EF4C707
:1023EC00E630A0E0FA0759F4EEEFF0E00E94FB3D76
:1023FC000E94183E0E941D3EA0E1B0E0DFC7E7300E
:10240C00A0E0FA0749F4E8E7F0E00E94FB3D0E94E7
:10241C00023E0E94313ECCC7E830A0E0FA0749F4F6
:10242C00E0ECF0E00E94FB3D0E94023E0E94433E25
:10243C00BFC7E930A0E0FA0769F4E8E1F0E00E94D8
:10244C00FB3D0E94023E0E94433E0E944F3E0E9472
:10245C004C3EBAC7EA30A0E0FA0759F4E6E1F0E0E6
:10246C000E94FB3D0E94023E0E94563E0E943A3E54
:10247C00ABC7EB30A0E0FA0759F4E4E7F0E00E94B8
:10248C00FB3D0E94023E0E945F3E0E943A3E9CC76A
:10249C00EC30A0E0FA0749F4E6E9F0E00E94FB3DDD
:1024AC000E94023E0E94683E83C7ED30A0E0FA070E
:1024BC0059F4EAE1F0E00E94FB3D0E94023E0E94CA
:1024CC00433E0E944F3E7AC7EE30A0E0FA0749F433
:1024DC00EEE5F0E00E94FB3D0E94023E0E94563E5B
:1024EC0067C7EF30A0E0FA0749F4E4E8F0E00E9497
:1024FC00FB3D0E94023E0E945F3E5AC7E031A0E0C5
:10250C00FA0749F4E8EBF0E00E94FB3D0E94023E22
:10251C000E94713E59C7E131A0E0FA0759F4E0E29C
:10252C00F0E00E94FB3D0E94023E0E94093E0E9488
:10253C004C3E4AC7E231A0E0FA0769F4E8E9F0E062
:10254C000E94FB3D0E94183E0E947A3E0E94183E5B
:10255C000E942C3E39C7E331A0E0FA0759F4EAEAAD
:10256C00F0E00E94FB3D0E94023E0E94893E0E94C8
:10257C00903E2AC7E431A0E0FA0769F4E2E4F0E007
:10258C000E94FB3D0E94023E0E94893E0E94933EA7
:10259C000E944C3E19C7E531A0E0FA0749F4EEE47D
:1025AC00F0E00E94FB3D0E94023E0E94093E06C7DD
:1025BC00E631A0E0FA0759F4E2ECF0E00E94FB3DB2
:1025CC000E94183E0E947A3EA0E1B0E0F7C6E731C7
:1025DC00A0E0FA0759F4EEECF0E00E94FB3D0E94FB
:1025EC00023E0E94893EA9E9B1E0E2C6E831A0E0D2
:1025FC00FA0759F4E0E4F0E00E94FB3D0E94023E31
:10260C000E94893E0E94933ED9C6E931A0E0FA07A8
:10261C0059F4EEE2F0E00E94FB3D0E94023E0E9463
:10262C00563E0E943A3ED0C6EA31A0E0FA0759F471
:10263C00EAEFF0E00E94FB3D0E94023E0E949C3EAD
:10264C000E944C3EC1C6EB31A0E0FA0749F4ECE61F
:10265C00F0E00E94FB3D0E94023E0E94713EB4C617
:10266C00EC31A0E0FA0749F4E4EAF0E00E94FB3D0B
:10267C000E94023E0E94683E9BC6ED31A0E0FA0724
:10268C0049F4EAE2F0E00E94FB3D0E94023E0E9407
:10269C00563E8EC6EE31A0E0FA0749F4E4E9F0E0CC
:1026AC000E94FB3D0E94023E0E949C3E87C6EF3179
:1026BC00A0E0FA0759F4EEE6F0E00E94FB3D0E9420
:1026CC00023E0E94A53EA9E9B1E072C6E032A0E04C
:1026DC00FA0759F4E6E8F0E00E94FB3D0E94023E46
:1026EC000E94683E0E943A3E6FC6E132A0E0FA07B3
:1026FC0049F4EEE8F0E00E94FB3D0E94023EA0E2AD
:10270C00B0E050C6E232A0E0FA0759F4EAE5F0E096
:10271C000E94FB3D0E94183E0E94AC3E0E943A3E35
:10272C0053C6E332A0E0FA0759F4EAEDF0E00E9458
:10273C00FB3D0E94023E0E94B73E0E944C3E44C6A6
:10274C00E432A0E0FA0759F4E2EAF0E00E94FB3D23
:10275C000E94BE3E0E94183E0E942C3E35C6E532B9
:10276C00A0E0FA0759F4E4E0F1E00E94FB3D0E947E
:10277C00023E0E94D13E0E94D83E26C6E632A0E020
:10278C00FA0749F4E6E3F0E00E94FB3D0E94183E94
:10279C000E94AC3E0DC6E732A0E0FA0749F4E8E12E
:1027AC00F1E00E94FB3D0E94023E0E94B73E06C62D
:1027BC00E832A0E0FA0749F4E6EAF0E00E94FB3DBB
:1027CC000E94BE3EA0E1B0E0F9C5E932A0E0FA07F4
:1027DC0059F4EEE1F0E00E94FB3D0E94023E0E94A3
:1027EC00433E0E944F3EEAC5EA32A0E0FA0759F494
:1027FC00ECE5F0E00E94FB3D0E94183E0E94DB3E9F
:10280C000E944C3EE1C5EB32A0E0FA0759F4E2E637
:10281C00F0E00E94FB3D0E94023E0E94A53E0E94F9
:10282C00E63ED2C5EC32A0E0FA0719F40E94E93E6C
:10283C00CBC5ED32A0E0FA0769F4E0E1F0E00E94CC
:10284C00FB3D0E94023E0E94433E0E944F3E0E946E
:10285C004C3EBAC5EE32A0E0FA0749F4E0E5F0E0F0
:10286C000E94FB3D0E94183E0E94DB3EA7C5EF3242
:10287C00A0E0FA0759F4E8E6F0E00E94FB3D0E9464
:10288C00023E0E94A53EA6E9B1E092C5E033A0E06D
:10289C00FA0719F40E94E93E97C5E133A0E0FA0764
:1028AC0059F4E4E2F0E00E94FB3D0E94023E0E94DB
:1028BC00433E0E943A3E88C5E233A0E0FA0759F441
:1028CC00E4E1F0E00E94FB3D0E94023E0E94B73E14
:1028DC000E944C3E79C5E333A0E0FA0759F4E2E8D4
:1028EC00F0E00E94FB3D0E94023E0E94FF3E0E94CF
:1028FC00D83E6AC5E433A0E0FA0749F4E6E0F1E01B
:10290C000E94FB3D0E94023E0E94063F57C5E533E4
:10291C00A0E0FA0749F4ECE4F0E00E94FB3D0E94D1
:10292C00023E0E94433E44C5E633A0E0FA0749F458
:10293C00ECE1F0E00E94FB3D0E94023E0E94B73E9B
:10294C003DC5E733A0E0FA0749F4E4E1F1E00E9469
:10295C00FB3D0E94023EAAE1B0E024C5E833A0E0B2
:10296C00FA0759F4EEEEF0E00E94FB3D0E94023EA5
:10297C000E94063F0E944C3E27C5E933A0E0FA07AF
:10298C0059F4E8EFF0E00E94FB3D0E94023E0E94E9
:10299C00153F0E944C3E18C5EA33A0E0FA0759F4E3
:1029AC00E4EEF0E00E94FB3D0E94023E0E94A53E38
:1029BC000E94E63E09C5EB33A0E0FA0759F4E2E5C4
:1029CC00F0E00E94FB3D0E94023E0E941E3F0E94CE
:1029DC00903EFAC4EC33A0E0FA0779F4E0E9F0E0B9
:1029EC000E94FB3D0E94023E0E94253FA0E9B1E0FF
:1029FC000E944F3E0E944C3EE7C4ED33A0E0FA0724
:102A0C0049F4ECEFF0E00E94FB3D0E94023E0E9474
:102A1C009C3ED4C4EE33A0E0FA0759F4E8E2F0E0AF
:102A2C000E94FB3D0E94023E0E94A53EA6E9B1E039
:102A3C00BFC4EF33A0E0FA0759F4E4E3F0E00E94DE
:102A4C00FB3D0E94023E0E941E3FA9E9B1E0B0C4CA
:102A5C00E034A0E0FA0749F4ECEEF0E00E94FB3D14
:102A6C000E94023E0E94153FA9C4E134A0E0FA077F
:102A7C0059F4ECECF0E00E94FB3D0E94023E0E94F7
:102A8C002C3F0E943A3EA0C4E234A0E0FA0759F46D
:102A9C00ECEBF0E00E94FB3D0E94023E0E941E3FC8
:102AAC000E94353F8BC4E334A0E0FA0759F4ECE9FB
:102ABC00F0E00E94FB3D0E94023E0E941E3FA6E9F0
:102ACC00B1E076C4E434A0E0FA0749F4ECE7F0E0B6
:102ADC000E94FB3D0E94023E0E94683E69C4E534A0
:102AEC00A0E0FA0749F4E2EDF0E00E94FB3D0E9401
:102AFC00023E0E942C3F5CC4E634A0E0FA0769F465
:102B0C00E6EEF0E00E94FB3D0E94023E0E941E3F5A
:102B1C000E94353F0E944C3E57C4E734A0E0FA07B0
:102B2C0059F4E4EBF0E00E94FB3D0E94023E0E944F
:102B3C001E3F0E94E63E48C4E834A0E0FA0759F470
:102B4C00ECEAF0E00E94FB3D0E94023E0E94683ECF
:102B5C000E943A3E39C4E934A0E0FA0769F4E2E194
:102B6C00F0E00E94FB3D0E94183EE9E8F5E00E946F
:102B7C00FF3E0E94E63E28C4EA34A0E0FA0759F46E
:102B8C00E2EBF0E00E94FB3D0E94023E0E94433EBD
:102B9C000E943A3E19C4EB34A0E0FA0759F4ECE079
:102BAC00F1E00E94FB3D0E94023E0E94D13E0E9439
:102BBC00E63E0AC4EC34A0E0FA0719F40E94E93EA0
:102BCC0003C4ED34A0E0FA0769F4E6E2F0E00E94F9
:102BDC00FB3D0E94183EE9E8F5E00E94FF3EA6E9A5
:102BEC00B1E0E6C3EE34A0E0FA0759F4ECE1F1E011
:102BFC000E94FB3D0E94023E0E94383FA6E9B1E0D4
:102C0C00D7C3EF34A0E0FA0759F4E2E1F1E00E94F7
:102C1C00FB3D0E94023E0E94D13EA6E9B1E0C8C332
:102C2C00E035A0E0FA0719F40E94E93ECDC3E13586
:102C3C00A0E0FA0759F4EAEEF0E00E94FB3D0E9496
:102C4C00023E0E943F3F0E943A3EBEC3E235A0E0E6
:102C5C00FA0759F4E8EDF0E00E94FB3D0E94023EB9
:102C6C000E94483F0E943A3EAFC3E335A0E0FA070A
:102C7C0069F4ECE8F0E00E94FB3D0E94023EA2E207
:102C8C00B0E00E94513FA9E9B1E092C3E435A0E065
:102C9C00FA0759F4E0EAF0E00E94FB3D0E94563F2F
:102CAC000E945F3FA0E1B0E089C3E535A0E0FA07E0
:102CBC0049F4EEEAF0E00E94FB3D0E94023E0E94C5
:102CCC003F3F76C3E635A0E0FA0749F4E6EFF0E0C3
:102CDC000E94FB3D0E94023E0E94483F69C3E735BB
:102CEC00A0E0FA0759F4E4ECF0E00E94FB3D0E94EE
:102CFC00023E0E94663F0E94903E66C3E835A0E00B
:102D0C00FA0769F4EEE7F0E00E94FB3D0E94563FA3
:102D1C000E945F3F0E94183E0E942C3E55C3E9352D
:102D2C00A0E0FA0759F4ECE2F0E00E94FB3D0E94AF
:102D3C00023E0E94253F0E94E63E46C3EA35A0E0D3
:102D4C00FA0749F4E0EFF0E00E94FB3D0E94023EDE
:102D5C000E94093E33C3EB35A0E0FA0759F4E8EAC8
:102D6C00F0E00E94FB3D0E94023E0E94A53EA9E9B4
:102D7C00B1E01EC3EC35A0E0FA0719F40E94E93E5D
:102D8C0023C3ED35A0E0FA0759F4E0E3F0E00E942C
:102D9C00FB3D0E94023E0E94253FA6E9B1E008C31C
:102DAC00EE35A0E0FA0759F4E4EFF0E00E94FB3DA9
:102DBC000E94023E0E94093E0E944C3E05C3EF3524
:102DCC00A0E0FA0749F4EEE9F0E00E94FB3D0E9416
:102DDC00023E0E94713EF8C2E036A0E0FA0719F4F8
:102DEC000E94E93EF1C2E136A0E0FA0759F4EAE6A6
:102DFC00F0E00E94FB3D0E94023E0E94683E0E9451
:102E0C003A3EE2C2E236A0E0FA0769F4EEEBF0E0FB
:102E1C000E94FB3D0E94023E0E94313E0E94693F8F
:102E2C000E944C3ED1C2E336A0E0FA0759F4EAEB1B
:102E3C00F0E00E94FB3D0E94023E0E94383FA9E94F
:102E4C00B1E0B6C2E436A0E0FA0759F4E0E6F0E0EF
:102E5C000E94FB3D0E94023E0E94433E0E943A3E6D
:102E6C00B3C2E536A0E0FA0749F4E0E7F0E00E94CF
:102E7C00FB3D0E94023E0E94683E9AC2E636A0E0EC
:102E8C00FA0759F4EAE8F0E00E94FB3D0E94023E8A
:102E9C000E94313E0E94693F91C2E736A0E0FA07DA
:102EAC0059F4E0E8F0E00E94FB3D0E94023E0E94D3
:102EBC00383F0E94903E88C2E836A0E0FA0749F4F9
:102ECC00E6EBF0E00E94FB3D0E94023E0E94433E76
:102EDC006FC2E936A0E0FA0769F4E4E4F0E00E947E
:102EEC00FB3D0E94023E0E94703F0E94933E0E9456
:102EFC004C3E6AC2EA36A0E0FA0749F4EAE3F0E095
:102F0C000E94FB3D0E94023E0E94B73E57C2EB3628
:102F1C00A0E0FA0719F40E94E93E56C2EC36A0E094
:102F2C00FA0769F4E6ECF0E00E94FB3D0E94023ED9
:102F3C000E941E3F0E94353F0E944C3E45C2ED361A
:102F4C00A0E0FA0759F4EAE0F0E00E94FB3D0E9491
:102F5C00183E0E941D3EA0E1B0E030C2EE36A0E06B
:102F6C00FA0759F4E2E3F0E00E94FB3D0E94023EB6
:102F7C000E94B73E0E944C3E27C2EF36A0E0FA07F3
:102F8C0019F40E94E93E20C2E037A0E0FA0759F498
:102F9C00E2EEF0E00E94FB3D0E94023E0E941E3FCA
:102FAC000E94353F0BC2E137A0E0FA0769F4E4ED6B
:102FBC00F0E00E94FB3D0E94023E0E94733F0E9483
:102FCC00353F0E944C3E00C2E237A0E0FA0779F48C
:102FDC00EAE4F0E00E94FB3D0E94183E0E94763F1E
:102FEC000E945F3FAFE0B0E00E944C3EEDC1E33782
:102FFC00A0E0FA0769F4E6E7F0E00E94FB3D0E94CE
:10300C00793FACE9B1E00E944F3E0E944C3EDCC1DE
:10301C00E437A0E0FA0759F4E2E9F0E00E94FB3D46
:10302C000E94023E0E94D13EA6E9B1E0C1C1E53743
:10303C00A0E0FA0759F4EAE1F1E00E94FB3D0E949E
:10304C00023E0E94733F0E94353FB8C1E637A0E0B4
:10305C00FA0759F4E6E5F0E00E94FB3D0E94183EA9
:10306C000E94763F0E94353FA9C1E737A0E0FA07DE
:10307C0059F4E2E7F0E00E94FB3D0E94793FACE995
:10308C00B1E00E944F3E9AC1E837A0E0FA0759F42C
:10309C00E0EDF0E00E94FB3D0E94023E0E94D13E1A
:1030AC000E94E63E91C1E937A0E0FA0769F4E8E432
:1030BC00F0E00E94FB3D0E94183E0E94763F0E9469
:1030CC00353F0E944C3E80C1EA37A0E0FA0759F424
:1030DC00EAE9F0E00E94FB3D0E94023E0E94383F6C
:1030EC000E94E63E71C1EB37A0E0FA0769F4E6E412
:1030FC00F0E00E94FB3D0E94183E0E94803F0E941F
:10310C00853F0E944C3E60C1EC37A0E0FA0789F481
:10311C00E0EEF0E00E94FB3D0E948E3FA5E1B0E0A6
:10312C000E94513F0E945F3FA3E1B0E00E944C3EE1
:10313C004BC1ED37A0E0FA0759F4E8E3F0E00E9448
:10314C00FB3D0E94023E0E94383F0E94353F36C133
:10315C00EE37A0E0FA0759F4EAECF0E00E94FB3DF0
:10316C000E94023E0E94383FA6E9B1E021C1EF3730
:10317C00A0E0FA0759F4EEEDF0E00E94FB3D0E944E
:10318C00183E0E94803F0E94853F18C1E038A0E0A5
:10319C00FA0769F4E6E1F1E00E94FB3D0E94183E5B
:1031AC00E9E8F5E00E94313E0E94953F07C1E13805
:1031BC00A0E0FA0779F4E8EEF0E00E94FB3D0E94F3
:1031CC008E3F0E949C3FA9E9B1E00E94953F0E946E
:1031DC004C3EFAC0E238A0E0FA0769F4E2EFF0E006
:1031EC000E94FB3D0E949F3F0E945F3F0E94183E41
:1031FC000E942C3EE9C0E338A0E0FA0749F4E8E06D
:10320C00F1E00E94FB3D0E94023EAFE1B0E0CAC07B
:10321C00E438A0E0FA0759F4E4E6F0E00E94FB3D44
:10322C000E94023E0E941E3F0E94D83ECDC0E5384F
:10323C00A0E0FA0769F4E8E8F0E00E94FB3D0E9488
:10324C008E3F0E949C3FA9E9B1E00E94953FB6C019
:10325C00E638A0E0FA0759F4EEE0F1E00E94FB3DFD
:10326C000E949F3F0E945F3FA0E1B0E0A7C0E738FB
:10327C00A0E0FA0759F4E4E5F0E00E94FB3D0E945F
:10328C00023E0E94703F0E94D83E9EC0E838A0E0EB
:10329C00FA0779F4EEE3F0E00E94FB3D0E94183E41
:1032AC00E9E8F5E00E949C3F0E94A63FA0E1B0E057
:1032BC0085C0E938A0E0FA0759F4ECE0F0E00E9490
:1032CC00FB3D0E94023E0E94B73E0E944C3E7CC0D9
:1032DC00EA38A0E0FA0759F4ECEDF0E00E94FB3D6F
:1032EC000E94183EE9E8F5E00E94093E67C0EB3801
:1032FC00A0E0FA0759F4E8E5F0E00E94FB3D0E94DB
:10330C00023E0E94733FA6E9B1E052C0EC38A0E047
:10331C00FA0779F4ECE3F0E00E94FB3D0E94183EC2
:10332C000E94803F0E94A63F0E94183E0E942C3EA5
:10333C004BC0ED38A0E0FA0749F4EEE0F0E00E9453
:10334C00FB3D0E94023E0E94B73E38C0EE38A0E022
:10335C00FA0769F4EAE0F1E00E94FB3D0E94183E96
:10336C00E9E8F5E00E94093E0E944C3E2DC0EF3882
:10337C00A0E0FA0759F4E2E2F0E00E94FB3D0E9463
:10338C00023E0E94733F0E94E63E1EC0E039A0E060
:10339C00FA0769F5E6E6F0E00E94FB3D0E94023E6A
:1033AC00ACE1B0E0A083B183EBE8F5E0ACE9B1E0CF
:1033BC00A083B183EFE8F5E0A2E1B0E0A083B18394
:1033CC00E3E9F5E0A1E0B0E0A083B1830E94AD3F5A
:1033DC003196E0938305F09384050E94B23FE0930D
:1033EC008505F09386050E94B73F0E94BC3F0E9462
:1033FC00CB3F21F40E94D03F0E94D53F0E94DA3F80
:10340C0029F00E94D03F35970E94D53F0E94D03FB3
:10341C0036970E94D53F0E94E63F3697E09385058C
:10342C00F0938605D4010E94EB3F0E94F13F0E946D
:10343C00F63FE02939F00E94FB3F3597E0938F056A
:10344C00F09390050E940040989739F40E94B23F87
:10345C007396E0938905F0938A050E9405400E94BB
:10346C00F63F0E940A400E9412400E940A4039F026
:10347C000E94B73F70960E9418400E94BC3F0E9469
:10348C001D400E940A4039F00E94B73FB0960E943E
:10349C0018400E94BC3F0E9423400E940A4039F011
:1034AC000E94B73FF0960E9418400E94BC3F0E94B9
:1034BC0005400E94F63F0E94294039F00E94B73F18
:1034CC00F9960E9418400E94BC3F0E9412400E9434
:1034DC00294041F00E94B73FEE5BFF4F0E9418401D
:1034EC000E94BC3F0E941D400E94294041F00E9456
:1034FC00B73FE55BFF4F0E9418400E94BC3F0E9403
:10350C0023400E94294041F00E94B73FEC5AFF4FE4
:10351C000E9418400E94BC3F229608950E941F3CB6
:10352C00A0914105B09142058091430590914405CD
:10353C000E94314014F40C94F61AE0E0E09341053B
:10354C00E0934205E0934305E09344050E94C73C99
:10355C000E942705E03001F50E94593C0E94593C1D
:10356C000E9439401A9B02C00E9441401B9B02C022
:10357C000E9449400E94514011F40E9456400E9402
:10358C005D3DE7EEF5E00E946F3D0E946C40E7EE7A
:10359C00F5E00E947E40DACF979B22C0002E012AD4
:1035AC0061F40E94C73C0E942705E13029F40E9477
:1035BC00593C0E94DD3C8F01F1CF0E945D3D0E9481
:1035CC006C400E948E4011F40E9495400E949C40D9
:1035DC0011F40E94A2400E94A94011F40E94AF4035
:1035EC00B4C00E941F3C0E94CA400E94F63F0E9439
:1035FC00CF40E02111F40C94531B0E94C73C0E9455
:10360C002005E13001F50E94593C0E94593C0E9472
:10361C0039401A9B02C00E9441401B9B02C00E9471
:10362C0049400E94514011F40E9456400E945D3D59
:10363C00EFE0F6E00E946F3D0E946C40EFE0F6E098
:10364C000E947E40DACF979B28C0002E012A91F46D
:10365C000E94C73C0E94D13CEF930E94C73C0E9441
:10366C00D73CAF91EA2329F00E94593C0E94DD3CE3
:10367C008F01EBCF0E945D3D0E946C400E948E40FA
:10368C0011F40E9495400E949C4011F40E94A240AB
:10369C000E94A94011F40E94AF400E94D5400E94A4
:1036AC00CF40E02111F40C94AB1B0E94C73C0E944C
:1036BC002305E13001F50E94593C0E94593C0E94BF
:1036CC0039401A9B02C00E9441401B9B02C00E94C1
:1036DC0049400E94514011F40E9456400E945D3DA9
:1036EC00EFE0F6E00E946F3D0E946C40EFE0F6E0E8
:1036FC000E947E40DACF979B28C0002E012A91F4BD
:10370C000E94C73C0E94D13CEF930E94C73C0E9490
:10371C00D73CAF91EA2329F00E94593C0E94DD3C32
:10372C008F01EBCF0E945D3D0E946C400E948E4049
:10373C0011F40E9495400E949C4011F40E94A240FA
:10374C000E94A94011F40E94AF400991199108956B
:10375C000E94243C0E94DB40E0EA05C00E94243C0D
:10376C000E94DB40E0E5EA930E94EB400E94EB40B4
:10377C000E94A43AEE810E942C3C0E94513CEAE04B
:10378C00EA930E94A43A28960895E881F98130972B
:10379C0089F5E2E0F0E02F01E6E0F0E03F01E1E046
:1037AC00F0E05F0188249924E6E9F0E06F01E4E69B
:1037BC00F0E0E0930B05F0930C05E0E0E0931705C7
:1037CC00E0931805E0931905E0931A05E0930D05B5
:1037DC00E0930E05E0930F05E0931005E0931105BF
:1037EC00E0931205E0931305E0931405E09315059F
:1037FC00E09316055A924A920E94EE3C0E94F040C9
:10380C000E94B4050E94F5400E94593C0E94EE3C77
:10381C000E94F0400E94FC400E94593C0E94EE3CE9
:10382C000E94F0400E94FF407A926A920E948D3D65
:10383C000E9407410E940C410E945E3C0E948D3DFB
:10384C000E9407410E94FC400E945E3C0E948D3DFC
:10385C000E9407410E94FF409A928A920E94EE3C7D
:10386C000E94593C0E940C410E948D3D0E94EE3CEE
:10387C000E94593C0E94FC400E948D3D0E94EE3CEF
:10388C000E94593C0E94FF40BA92AA920E94593C55
:10389C000E940F410E940C410E94EE3C0E94593C38
:1038AC000E940F410E94FC400E94EE3C0E94593C39
:1038BC000E940F410E94FF40DA92CA920E945E3C25
:1038CC000E940F410E940C410E94F0400E945E3CFD
:1038DC000E940F410E94FC400E94F0400E945E3CFE
:1038EC000E940F410E94FF400E9414410E94194106
:1038FC000E945E3C0E940C410E941C410E945E3C56
:10390C000E94FC400E941C410E945E3C0E94FF40B1
:10391C000E941F410E94EB3F0E9424410E2A0E94EC
:10392C002A410E943041B1F00E9438410E94074167
:10393C000E940C410E942A3D0E94593C0E94074162
:10394C000E94FC400E942A3D0E94593C0E94074163
:10395C000E94FF400E943F410E9441410E2A0E945A
:10396C004741B1F00E944E410E9455410E945A417C
:10397C000E948D3D0E945E3C0E9455410E945D411B
:10398C000E948D3D0E945E3C0E9455410E94FF406A
:10399C000E943F410E944141E029B1F00E946641E2
:1039AC000E94EE3C0E940C410E940F410E942A3D55
:1039BC000E94EE3C0E94FC400E940F410E942A3D56
:1039CC000E94EE3C0E94FF400E943F410E944741F2
:1039DC00B1F00E946D410E94F0400E940C410E9487
:1039EC0055410E942A3D0E94F0400E94FC400E94DA
:1039FC0055410E942A3D0E94F0400E94FF400E94C7
:103A0C003F410E942441E029B1F00E9474410E9480
:103A1C007B410E940C410E9407410E942A3D0E945A
:103A2C007B410E94FC400E9407410E942A3D0E945B
:103A3C007B410E94FF400E943F410E942A41E029A5
:103A4C00B1F00E9480410E942A3D0E945A410E947E
:103A5C00593C0E942A3D0E942A3D0E945D410E94D1
:103A6C00593C0E942A3D0E942A3D0E94FF400E9420
:103A7C003F410E941F41EBE2F0E00E94F748E02931
:103A8C00B1F00E9487410E940F410E945A410E944E
:103A9C005E3C0E942A3D0E940F410E945D410E94A3
:103AAC005E3C0E942A3D0E940F410E94FF402296DC
:103ABC0008950E94F5400E94593C0E94EE3C0E94E1
:103ACC00F0400E948E410E945E3C0E948D3D0E94FF
:103ADC0007410E948E410E948D3D0E94EE3C0E9447
:103AEC00593C0E94FF40E8ECF0E00E9491410E949A
:103AFC00593C0E94F0400E945E3C0E940F410E9483
:103B0C008E410E941C410E945E3C0E948E410E948C
:103B1C002A3D0E94593C0E9407410E94FF400E948E
:103B2C005E3C0E948D3D0E945E3C0E9455410E946D
:103B3C008E410E940F410E942A3D0E94EE3C0E9441
:103B4C008E410E9455410E942A3D0E94F0400E94E5
:103B5C008E410E9407410E942A3D0E947B410E9497
:103B6C00FF400E945E3C0E94593C0E942A3D0E94EC
:103B7C002A3D0E94FF400E945E3C0E945E3C0E94D7
:103B8C002A3D0E940F410E948E410E94EE3C0E94F1
:103B9C00593C0E940F410E94FF40E0919505F09125
:103BAC0096050E9419410E947B410E94B405E09148
:103BBC009705F09198050E9419410E942A3D0E9498
:103BCC00B405E0919905F0919A050E9495410E94E7
:103BDC005E3C0E94B405E0919B05F0919C050E940F
:103BEC0019410E940F410E94B405E8E2F0E00E94E6
:103BFC0095410E940F410E94B405E1E9F0E00E945A
:103C0C0095410E9455410E94B4050E9498410E9422
:103C1C0055410E94F0400E94B40508952E970E94D1
:103C2C004049E0E0EE83EF830E947B410E941A3D05
:103C3C008F010E947B410E949D410E94A5410E94E0
:103C4C00AD410E94B6410E94BF410E94C8410E94F2
:103C5C00D1410E94DA41D8010E94F63F0E2ED901C3
:103C6C000E94F63F0E2ADA010E94F63F0E2A0E94AD
:103C7C00E3410E2A0E94E6410E2A0E94E9410E2AD7
:103C8C000E94EC410E2A0E94EF410E2AA885B985AC
:103C9C000E94F63FE02911F40C94351FEE81FF8150
:103CAC00309759F4E0E0E0934505E0934605E09346
:103CBC004705E09348050E94F2410E947B410E9417
:103CCC001A3D8F010E947B410E949D410E94A5419B
:103CDC000E94AD410E94B6410E94BF410E94C84162
:103CEC000E94D1410E94DA41E889F989E40FF51F5D
:103CFC00AC85BD85EA0FFB1FA885B985AE0FBF1F2C
:103D0C000E94F7411E2EDA010E94F63F0E2E0E94F1
:103D1C00E6410E220E94EC410E22A885B9850E9434
:103D2C00F63FE021E12111F40C94EC1E0E94243C9E
:103D3C00E4E00E94FC41E3E0EA930E94EB400E9425
:103D4C00A43AE1E40E9403420E94243CE3E00E9476
:103D5C00FC410E9409420E94243CE3E00E94FC4189
:103D6C000E9409420E94243CE3E00E94FC410E9414
:103D7C0009420E94243CE3E00E94FC410E940F4255
:103D8C000E947B410E9407410E940C410E947B4192
:103D9C000E9418420E947B410E941D420E947B415E
:103DAC000E9422420E947B410E9427420E947B413A
:103DBC000E942C420E947B410E9431420E947B4116
:103DCC000E9436420E947B410E943B42A0914505D5
:103DDC00B09146058091470590914805A134E1E0EA
:103DEC00BE07E0E08E07E0E09E07C4F1E4EFF1E0EF
:103DFC000E9491410E94243CE3E00E94FC410E94FD
:103E0C0009420E94243CE3E00E94FC410E940F42C4
:103E1C000E947B410E9407410E940C410E947B4101
:103E2C000E9418420E947B410E941D420E947B41CD
:103E3C000E9422420E947B410E9427420E947B41A9
:103E4C000E942C420E947B410E9431420E947B4185
:103E5C000E9436420E947B410E943B42FCCE0E9453
:103E6C00474964960895E0914B05F0914C053097C5
:103E7C00B9F40E945D3DE5E3F6E00E946F3D0E94BF
:103E8C006C40E5E3F6E00E947E400E9457420E949F
:103E9C00593C0E94DD3CE0934B05F0934C05E3CF7D
:103EAC000E94C73C0E945A42EF930E94C73C0E945A
:103EBC006042AF91EA2B69F00E945D3DEEE5F6E0C1
:103ECC000E946F3D0E946C40EEE5F6E00E947E4041
:103EDC00E7CFC49A0E945742C69A0E9466420E943B
:103EEC007042EF930E9466420E947642AF91EA2B99
:103EFC0011F40C940D200E94C73C0E945A42EF937F
:103F0C000E94C73C0E946042AF91EA2B99F00E943C
:103F1C007C42E3E7F6E00E946F3D0E946C400E94F9
:103F2C0081420E94593C0E94593C0E94F0400E94E0
:103F3C00B405EDCF0E94C73C0E942705E03099F4F0
:103F4C000E947C42E2EBF6E00E946F3D0E946C40C6
:103F5C000E9481420E94593C0E94593C0E94F040B0
:103F6C000E94B405EDCF0E945D3DE7EDF6E00E94A6
:103F7C006F3D0E946C40E7EDF6E00E947E400E948F
:103F8C0057420E9466420E942C05E03041F40E9488
:103F9C005D3DE6EFF6E00E946F3D0E9457420E94A5
:103FAC0066420E944105E03041F40E946C40E5E11C
:103FBC00F7E00E946F3D0E9457420E94C73C0E944E
:103FCC008442EF930E94C73C0E947642AF91EA2B49
:103FDC00E9F0979A0E94C73C0E943C05E13041F4FD
:103FEC000E945D3DE4E3F7E00E946F3D0E94574262
:103FFC000E94C73C0E944105E13041F40E945D3DA6
:10400C00E6E4F7E00E946F3D0E94574266CFC498E9
:10401C00929A0E9457420E94533D0E947042EF9325
:10402C000E948A420E947042AF91EA2B11F40C94C8
:10403C00AF200E94C73C0E945A42EF930E94C73C9B
:10404C000E946042AF91EA2BB9F0979AC6980E94F1
:10405C005D3DE3E7F6E00E946F3D0E946C400E94DC
:10406C008142C49892980E94593C0E94593C0E94EB
:10407C00F0400E94B405E9CF0E94C73C0E9427057E
:10408C00E03099F40E947C42E2EBF6E00E946F3D36
:10409C000E946C400E9481420E94593C0E94593CF3
:1040AC000E94F0400E94B405EDCF0E945D3DE7ED0B
:1040BC00F6E00E946F3D0E946C40E7EDF6E00E9436
:1040CC007E400E9457420E94533D0E942C05E030D6
:1040DC0041F40E945D3DE8E5F7E00E946F3D0E94CF
:1040EC0057420E948A420E942C05E03041F40E9403
:1040FC006C40E7E7F7E00E947E400E9457420E9426
:10410C00533D0E949442EF930E948A420E94944233
:10411C00AF91EA2BE9F0979A0E94533D0E94360525
:10412C00E13041F40E945D3DE6E9F7E00E946F3D0D
:10413C000E9457420E948A420E943605E13041F4A7
:10414C000E945D3DE8EAF7E00E946F3D0E945742F5
:10415C0062CF0E945D3DEAEBF7E00E946F3D0E944A
:10416C006C40EAEBF7E00E947E409298C6980E9461
:10417C0057420E94593C0E94593C0E94F0400E94B8
:10418C009A4208950E94C73C0E94D13CEF930E9432
:10419C00C73C0E94D73CAF91EA2311F40C941B212D
:1041AC000E948A420E943C05A0E00E94F248EF93D4
:1041BC000E948A420E944105A0E00E94F248AF9101
:1041CC000E94A2420E94A94231F0E1E0F0E0E093AB
:1041DC007D05F0937E050E948A420E948442EF93F3
:1041EC000E948A420E947642AF910E94A2420E9493
:1041FC00F63FE02131F0E2E0F0E0E0937D05F09352
:10420C007E050E94AF42E1E00E94F248E02119F0E5
:10421C001E980E94BC420E94AF42E0E00E94F2480D
:10422C00E02119F01E9A0E94BC4208951A930A9339
:10423C00A0913505B09136058091370590913805E0
:10424C000E94314014F40C9472210E94C4420E94CA
:10425C00CE420E940949EF930E947F3D0E945A4230
:10426C00EF930E947F3D0E946042AF91EA2BEF9347
:10427C000E947F3D0E942705A1E00E94F248AF9169
:10428C00EA2BEF930E947F3D0E947042AF91EA2B84
:10429C00EF930E947F3D0E943205A1E00E94F248FC
:1042AC00AF91EA2BEF930E947F3D0E949442AF9115
:1042BC00EA2BEF930E947F3D0E948442AF91EA2B40
:1042CC00EF930E947F3D0E947642AF91EA2BAF9113
:1042DC00EA2311F00E94D7420E94CE42EA17FB0754
:1042EC0039F40E9407078F010E94C4420E94D742F2
:1042FC00E0911D05F0911E053196A0911B05B09122
:10430C001C05EA17FB07D1F5E1E0F0E0E017F10737
:10431C0041F40E94593C0E94593C0E942A3D0E9443
:10432C00B405D8010E94DF420E2E0E94E4420E9486
:10433C00A94241F00E94593C0E94593C0E945E3CAB
:10434C000E94B405D8010E94DF420E94CF40E021B8
:10435C0031F0E1E0F0E0E093B905F093BA05E0E06C
:10436C00E0931B05E0931C050E94E442119731F485
:10437C00E1E0F0E0E093B705F093B80509911991ED
:10438C0008950E94533D0E943605E13079F40E9455
:10439C00E9420E945D3DEDEDF7E00E946F3D0E9409
:1043AC006C40EDEDF7E00E947E40F3CF0E94E442BA
:1043BC00119711F40E94F442E0915105F0915205CD
:1043CC00309711F00C942F220E94F842E881E09370
:1043DC000905E17011F4D89801C0D89AE09109054B
:1043EC00E27011F4D99801C0D99AE0910905E470F2
:1043FC0011F4DA9801C0DA9AE0910905E87011F429
:10440C00DB9801C0DB9AE0910905E07111F4DC98AE
:10441C0001C0DC9AE0910905E07211F4DD9801C04D
:10442C00DD9AE0910905E07411F4DE9801C0DE9A82
:10443C00E0910905E07811F4DF9801C0DF9AA881BA
:10444C00B981A030E1E0BE070CF0949AE1E0F0E015
:10445C0047C0E130A0E0FA0789F4A0912505B0919E
:10446C00260580912705909128050E9402432CF087
:10447C00939AE2E0F0E00E940A4336C0E230A0E0FA
:10448C00FA0789F40E94533D0E942005E03051F454
:10449C009398E0E0EBBB94980E94F842E3E0F0E0E4
:1044AC000E940A4321C0E330A0E0FA0769F40E949D
:1044BC00533D0E942C05E03031F40E94F842E4E0B8
:1044CC00F0E00E940A4310C0E430A0E0FA0761F467
:1044DC000E94533D0E942005E13031F4E5E0F0E00C
:1044EC00E0935105F0935205E0915105F09152057E
:1044FC009AC10E948A420E943605E13079F40E94EA
:10450C00E9420E945D3DE6EFF7E00E946F3D0E949C
:10451C006C40E6EFF7E00E947E40F3CF0E94E4424D
:10452C00119711F40E94F442E0915505F091560553
:10453C00309711F00C94E7220E940F43E881E0932E
:10454C000A05E17011F4A89801C0A89AE0910A0537
:10455C00E27011F4A99801C0A99AE0910A05E470DF
:10456C0011F4AA9801C0AA9AE0910A05E87011F416
:10457C00AB9801C0AB9AE0910A05E07111F4AC98CC
:10458C0001C0AC9AE0910A05E07211F4AD9801C03B
:10459C00AD9AE0910A05E07411F4AE9801C0AE9AA0
:1045AC00E0910A05E07811F4AF9801C0AF9AA881A8
:1045BC00B981A030E1E0BE070CF0959AE1E0F0E0A3
:1045CC0047C0E130A0E0FA0789F4A0912D05B09125
:1045DC002E0580912F05909130050E9402432CF0FE
:1045EC00969AE2E0F0E00E94194336C0E230A0E077
:1045FC00FA0789F40E948A420E942005E03051F4A7
:10460C009698E0E0E5BB95980E940F43E3E0F0E05C
:10461C000E94194321C0E330A0E0FA0769F40E941C
:10462C008A420E942C05E03031F40E940F43E4E0F2
:10463C00F0E00E94194310C0E430A0E0FA0761F4E6
:10464C000E948A420E942005E13031F4E5E0F0E05E
:10465C00E0935505F0935605E0915505F0915605FC
:10466C00E2C00E94C73C0E944105E13079F40E94EF
:10467C00E9420E945D3DE1E1F8E00E946F3D0E943D
:10468C006C40E1E1F8E00E947E40F3CF0E94E442EE
:10469C00119711F40E94F442E0915305F0915405E6
:1046AC00309711F00C949F23E881E0930705E1709B
:1046BC000E2EE0910005EE7F0E941E43E695E17000
:1046CC00EE0F0E2EE0910005ED7F0E941E43E69545
:1046DC00E695E170EE0FEE0F0E2EE0910005EB7FEC
:1046EC000E941E43E695E695E695E170EE0FEE0FFF
:1046FC00EE0F0E2EE0910005E77F0E941E43E2951F
:10470C00E170E795E0E0E7950E2EE0910005EF777C
:10471C00E0290E942443E0910705E07211F4C79848
:10472C0001C0C79A0E942943E1E0F0E00E943343A4
:10473C0076C0E130A0E0FA07A9F4A0912905B09168
:10474C002A0580912B0590912C050E9402434CF078
:10475C00E0910005E0620E942443E2E0F0E00E9458
:10476C0033435DC0E230A0E0FA0721F50E946642B7
:10477C000E942005E030E9F4E0910005EF7D0E94F5
:10478C002443E0910005EE7F0E943843ED7F0E94A8
:10479C003843EB7F0E943843E77F0E943843EF7722
:1047AC000E942443C7980E942943E3E0F0E00E9452
:1047BC00334335C0E330A0E0FA0769F40E94664247
:1047CC000E942C05E03031F40E942943E4E0F0E033
:1047DC000E94334324C0E430A0E0FA0701F50E94A4
:1047EC0066420E942005E130D1F4E5E0F0E00E9441
:1047FC003343E0916105F0916205309739F4E1E0C3
:10480C00F0E0E0936105F093620509C0E130A0E0AF
:10481C00FA0729F4E0E0E0936105E0936205E0918A
:10482C005305F0915405229608950E94C73C0E94AE
:10483C003C05E13079F40E94E9420E945D3DE9E3D8
:10484C00F8E00E946F3D0E946C40E9E3F8E00E94A2
:10485C007E40F3CF0E94E442119711F40E94F4427F
:10486C00E0915705F0915805309749F5EA81E093AE
:10487C000805E17011F4C09801C0C09AE0910805D8
:10488C00E27011F4C19801C0C19AE0910805E4707E
:10489C0011F4C29801C0C29AE0910805E87011F4B5
:1048AC00C39801C0C39AE0910805E07111F41C98FB
:1048BC0001C01C9A0E943B43E1E0F0E049C0E130AA
:1048CC00A0E0FA0789F4A0913105B09132058091EE
:1048DC003305909134050E9402432CF0C59AE2E016
:1048EC00F0E00E94454338C0E230A0E0FA0799F4AA
:1048FC000E9466420E943205E03061F4C598C0986F
:10490C00C198C298C3981C980E943B43E3E0F0E026
:10491C000E94454321C0E330A0E0FA0769F40E94ED
:10492C0066420E944105E03031F40E943B43E4E0D2
:10493C00F0E00E94454310C0E430A0E0FA0761F4B7
:10494C000E9466420E943205E13031F4E5E0F0E06D
:10495C00E0935705F0935805E0915705F0915805F1
:10496C002496089568970E94404920E030E000E0CA
:10497C0010E040E050E04B30E0E05E0744F4FA0118
:10498C000E944A430E94E13D4F5F5F4FF4CFE1E943
:10499C00F0E0E093A905F093AA050E94EE3C0E947A
:1049AC00E33CE093A905F093AA05A091A905B09169
:1049BC00AA05A139E0E0BE0761F0E091A905F091EC
:1049CC00AA05E0932105F0932205E0932305F093CB
:1049DC0024050E944D430E94F63F0E2E0E94524326
:1049EC000E9457430E945D430E946D430E9477438F
:1049FC00EF930E94C73C0E94D13CAF91EA23EF9306
:104A0C000E94C73C0E94D73CAF91EA2311F40C944E
:104A1C0058260E944D43119711F00C945826F8011A
:104A2C00309759F40E9498410E9481430E9498410A
:104A3C000E94951101E010E034C1E130A0E0FA07CA
:104A4C00D1F40E949643159724F40E94593C0E947D
:104A5C009B430E949E43159734F40E94593C0E943C
:104A6C00593C0E94A3430E94A64321F00E94B343E9
:104A7C0002E010E016C1E230A0E0FA07C1F40E9497
:104A8C00BD43159724F40E94593C0E94C2430E94D6
:104A9C00C543159724F40E94CA430E94CF430E9439
:104AAC00D24321F00E94DF4303E010E0FAC0E33070
:104ABC00A0E0FA0789F40E94BD43159724F40E94E4
:104ACC00E9430E94C2430E94BD43159721F40E9402
:104ADC00DF4304E010E0E5C0E430A0E0FA0789F41D
:104AEC000E949643159724F40E94B23F0E94ED4316
:104AFC000E949643159721F40E94DF4305E010E0D5
:104B0C00D0C0E530A0E0FA0711F00C9415260E94F5
:104B1C00C73C0E94D13CEF930E94C73C0E94D73CFB
:104B2C00AF91EA2311F40C9414260E94EE3C0E94DF
:104B3C00393D9F01022E032A11F40AE912E0D90132
:104B4C000E94DF420E2E0E949D3C21F00E94F043F9
:104B5C000E949A3D0E94F4430E22AC85BD850E94B2
:104B6C00A94221F00E94F0430E949A3DD9010E9473
:104B7C00F7410E2E0E94EC410E22AE85BF850E949D
:104B8C00A94221F00E94F0430E949A3D0E94FB43EF
:104B9C000E22A889B9890E94A94221F00E94F043F3
:104BAC000E949A3D0E9402440E22AA89BB890E944F
:104BBC00A94221F00E94F0430E949A3D0E940944B0
:104BCC000E22AC89BD890E94A94221F00E94F043BB
:104BDC000E949A3D0E9410440E22AE89BF890E9409
:104BEC00A94221F00E94F0430E949A3D0E94194470
:104BFC000E22A88DB98D0E94A94221F00E94F0438B
:104C0C000E949A3D0E9422440E22AA8DBB8D0E94C6
:104C1C00A94221F00E94F0430E949A3D42C0E63026
:104C2C00A0E0FA0789F40E949643159724F40E9499
:104C3C00593C0E949B430E949643159721F40E9475
:104C4C00DF4307E010E02DC0E730A0E0FA0779F46D
:104C5C000E94BD43159714F40E942B440E94BD433F
:104C6C00159721F40E94DF4304E010E01AC0EA39E2
:104C7C00A2E0FA07B1F40E949643159724F40E941F
:104C8C00593C0E949B430E949643159751F40E94F5
:104C9C00B34304E610E0E0E0E0939D05E0939E054D
:104CAC00C698B7CE0E944D430E94EB3F0E945243E0
:104CBC000E94F63F0E220E945D430E9430440E94E7
:104CCC0035440E943B44E021EF930E94C73C0E9474
:104CDC00D13CAF91EA23EF930E94C73C0E94D73C92
:104CEC00AF91EA2311F40C94C6270E9452431197FA
:104CFC0011F00C94C627F801309759F40E944444E3
:104D0C000E9481430E9444440E94951101E010E0EE
:104D1C0036C1E130A0E0FA07D1F40E949643159712
:104D2C0024F40E94593C0E949B430E949E43159779
:104D3C0034F40E94593C0E94593C0E94A3430E94A7
:104D4C00A64321F00E94B34302E010E018C1E23008
:104D5C00A0E0FA07C1F40E94BD43159724F40E9409
:104D6C0098410E94C2430E94C543159724F40E94A7
:104D7C0049440E94CF430E94D24321F00E94DF435A
:104D8C0003E010E0FCC0E330A0E0FA0789F40E94D5
:104D9C00BD43159724F40E944E440E94C2430E94C6
:104DAC00BD43159721F40E94DF4304E010E0E7C0F7
:104DBC00E430A0E0FA0789F40E949643159724F496
:104DCC000E94B23F0E94ED430E949643159721F436
:104DDC000E94DF4305E010E0D2C0E530A0E0FA0706
:104DEC0011F00C9483270E94C73C0E94D13CEF9396
:104DFC000E94C73C0E94D73CAF91EA2311F40C945B
:104E0C0082270E94EE3C0E942A3D0E9449059F0188
:104E1C00022E032A11F40AE912E0D9010E94DF42A2
:104E2C000E2E0E949D3C21F00E94F0430E949A3D60
:104E3C000E94F4430E22AC85BD850E94A94221F04C
:104E4C000E94F0430E949A3DD9010E94F7410E2E18
:104E5C000E94EC410E22AE85BF850E94A94221F032
:104E6C000E94F0430E949A3D0E94FB430E22A889A7
:104E7C00B9890E94A94221F00E94F0430E949A3DF8
:104E8C000E9402440E22AA89BB890E94A94221F0E9
:104E9C000E94F0430E949A3D0E9409440E22AC8964
:104EAC00BD890E94A94221F00E94F0430E949A3DC4
:104EBC000E9410440E22AE89BF890E94A94221F0A3
:104ECC000E94F0430E949A3D0E9419440E22A88D24
:104EDC00B98D0E94A94221F00E94F0430E949A3D94
:104EEC000E9422440E22AA8DBB8D0E94A94221F061
:104EFC000E94F0430E949A3D42C0E630A0E0FA07BF
:104F0C0089F40E949643159724F40E94593C0E9400
:104F1C009B430E949643159721F40E94DF4307E0C0
:104F2C0010E02DC0E730A0E0FA0779F40E94BD43F1
:104F3C00159714F40E942B440E94BD43159721F43D
:104F4C000E94DF4304E010E01AC0EA39A2E0FA073D
:104F5C00B1F40E949643159724F40E94593C0E9488
:104F6C009B430E949643159751F40E94B34304E669
:104F7C0010E0C698E0E0E0939F05E093A005B5CE65
:104F8C000E9447496E9608950E945544AC15BD0584
:104F9C0094F00E945A440E945E440E94593C0E9424
:104FAC009905EAE6F8E0FA93EA930E947B410E94A5
:104FBC00593C0E9499050E946344AC15BD0594F0C0
:104FCC000E945A440E945E440E94593C0E949905DA
:104FDC00EBE8F8E0FA93EA930E945E3C0E9455419C
:104FEC000E9499050E9414410E946844AE17BF07A5
:104FFC0084F00E945A440E946D440E94593C0E94C5
:10500C009905ECEAF8E00E9472440E94593C0E9417
:10501C0099050E9414410E947544AE17BF0784F095
:10502C000E945A440E946D440E94593C0E9499056A
:10503C00EBEDF8E00E9472440E94593C0E949905E5
:10504C000E9414410E947A44AE17BF0784F00E945C
:10505C005A440E946D440E94593C0E949905EAE012
:10506C00F9E00E9472440E94593C0E9499050E94EA
:10507C0014410E947F44AE17BF0784F00E945A442B
:10508C000E946D440E94593C0E949905E9E3F9E0A5
:10509C000E9472440E94593C0E9499050E9414413E
:1050AC000E948444AE17BF0784F00E945A440E94A9
:1050BC006D440E94593C0E949905E8E6F9E00E9473
:1050CC0072440E94593C0E949905089524970E94AD
:1050DC004049E0E0EE83EF830E94C73C0E94D13C44
:1050EC00EF930E94C73C0E94D73CAF91EA2371F02A
:1050FC000E94EE3C0E948D3D0E9449058F010E944A
:10510C00EE3C0E94EE3C0E944905AF01E1E0F0E06C
:10511C00E017F10711F00C94BF29EE81FF81309755
:10512C0031F40E94DF43C69A0E94F24121C1E13062
:10513C00A0E0FA07E1F40E949643159724F40E942C
:10514C00593C0E949B430E949E43159734F40E9445
:10515C00593C0E94593C0E94A3430E94A64331F043
:10516C000E94B343E2E0F0E0EE83FF8301C1E23042
:10517C00A0E0FA07C1F40E94BD43159724F40E94E5
:10518C0089440E94C2430E94C543159724F40E948F
:10519C0089440E94CF430E94D24321F00E94DF43F6
:1051AC000E948E44E5C0E330A0E0FA0711F00C94A5
:1051BC0094290E949643159724F4E2E0F0E00E94B3
:1051CC00ED430E949E43159734F40E9444440E9480
:1051DC00593C0E94A3430E94A64311F40C949329BA
:1051EC000E94B3430E94EE3C0E948D3D0E944905F3
:1051FC00E887F987309779F40E94C73C0E94D13C2C
:10520C00EF930E94C73C0E94D73CAF91EA2311F068
:10521C000E94934482C0E130A0E0FA0721F40E947E
:10522C008E44C6987AC0E230A0E0FA0711F00C94D4
:10523C009329E0910005EF7B0E9424430E9499443E
:10524C00E2E2F0E00E94F7480E2E0E949944E4E25C
:10525C00F0E00E94F748E029D9F0E0E0E09319056E
:10526C00E0931A050E944E410E9455410E945A41FA
:10527C000E948D3D0E945E3C0E9455410E945D4102
:10528C000E948D3D0E945E3C0E9455410E94FF4051
:10529C000E949944E6E2F0E00E94F7480E2E0E942C
:1052AC009944E9E2F0E00E94F7480E2A0E949944E2
:1052BC00EBE2F0E00E94F748E029D9F0E0E0E0935F
:1052CC001705E09318050E9438410E9407410E947F
:1052DC000C410E942A3D0E94593C0E9407410E94A9
:1052EC00FC400E942A3D0E94593C0E9407410E94AA
:1052FC00FF400E945E440E94593C0E9499050E9406
:10530C00C73C0E94D13CEF930E94C73C0E94D73C03
:10531C00AF91EA2311F00E9493442AC0E430A0E03C
:10532C00FA0731F50E949643159724F40E94593CD4
:10533C000E949B430E949E43159734F40E94593C53
:10534C000E94593C0E94A3430E94A64389F00E94EC
:10535C00DF430E94593C0E94EE3C0E948D3D0E940E
:10536C00B405C698E5E0F0E0EE83FF8300E010E0C2
:10537C00CDCEE1E0F0E0E417F50711F00C94352BFD
:10538C00EE81FF81309731F40E94DF43C69A0E9470
:10539C00F24164C1E130A0E0FA07E1F40E949643C7
:1053AC00159724F40E94593C0E949B430E949E43F3
:1053BC00159734F40E94593C0E94593C0E94A34317
:1053CC000E94A64331F00E94B343E2E0F0E0EE838A
:1053DC00FF8344C1E230A0E0FA07C1F40E94BD4350
:1053EC00159724F40E9489440E94C2430E94C5432D
:1053FC00159724F40E9489440E94CF430E94D24303
:10540C0021F00E94DF430E948E4428C1E330A0E0CB
:10541C00FA0711F00C940A2B0E949643159724F46A
:10542C00E2E0F0E00E94ED430E949E43159734F4B5
:10543C000E9444440E94593C0E94A3430E94A643EC
:10544C0011F40C94092B0E94B3430E94EE3C0E9471
:10545C00EE3C0E9449059F01F901309779F40E94B6
:10546C00C73C0E94D13CEF930E94C73C0E94D73CA2
:10547C00AF91EA2311F00E949344C5C0E130A0E043
:10548C00FA0721F4C698E3E0F0E0BBC0E230A0E0FC
:10549C00FA0711F00C94092BE0910005EF7B0E94A8
:1054AC0024430E9499449297D9F4E0E0E0930D05CF
:1054BC00E0930E050E9466410E94EE3C0E940C4156
:1054CC000E940F410E942A3D0E94EE3C0E94FC402B
:1054DC000E940F410E942A3D0E94EE3C0E94FF4018
:1054EC000E9499449497D9F4E0E0E0930F05E0937F
:1054FC0010050E946D410E94F0400E940C410E94D8
:10550C0055410E942A3D0E94F0400E94FC400E949E
:10551C0055410E942A3D0E94F0400E94FF400E948B
:10552C0099449697D9F4E0E0E0931105E0931205C5
:10553C000E9474410E947B410E940C410E940741D1
:10554C000E942A3D0E947B410E94FC400E94074120
:10555C000E942A3D0E947B410E94FF400E94994478
:10556C009997D9F4E0E0E0931305E09314050E94B9
:10557C0080410E942A3D0E945A410E94593C0E943F
:10558C002A3D0E942A3D0E945D410E94593C0E9486
:10559C002A3D0E942A3D0E94FF400E9499449B97FD
:1055AC00D9F4E0E0E0931505E09316050E948741DD
:1055BC000E940F410E945A410E945E3C0E942A3D6B
:1055CC000E940F410E945D410E945E3C0E942A3D58
:1055DC000E940F410E94FF400E946D440E94593C62
:1055EC000E9499050E94C73C0E94D13CEF930E94F7
:1055FC00C73C0E94D73CAF91EA2329F0C69AE4E05D
:10560C00F0E0EE83FF832AC0E430A0E0FA0731F526
:10561C000E949643159724F40E94593C0E949B4388
:10562C000E949E43159734F40E94593C0E94593CA9
:10563C000E94A3430E94A64389F00E94DF43E5E049
:10564C00F0E0EE83FF830E94593C0E94EE3C0E94E6
:10565C00EE3C0E94B405C69840E050E08ACE0E9411
:10566C0047492A9608950E949E4414F40E94AF4420
:10567C000E94CA40129711F40E941C210E94B3444C
:10568C0011F40E94B9440E94BC440E94C0440E9480
:10569C00C54421F00E94B73F0E94CA440E94BC44FA
:1056AC000E94CD4421F00E94D1440E94D7440E9414
:1056BC00BC440E94DE44E02111F00E94EE440E94A2
:1056CC00BC440E94F344E02121F00E94D1440E948A
:1056DC0003450E940B45E02121F00E94D1440E9419
:1056EC0018450E94BC440E941F45E02111F00E9405
:1056FC0027450E94BC440E942C45E02121F00E94C9
:10570C00D1440E9434450E943B450E943F450E9473
:10571C0057430E9447450E9457430E944C4531F025
:10572C000E94D03F0E945E450E94A3430E943B45CD
:10573C000E9462450E946B4569F00E94704511F40D
:10574C000E9476450E947C4519F40E94824502C055
:10575C000E9490450E949E450E94A2450E9457437C
:10576C000E94AA4521F00E94FB3F0E94ED430E943B
:10577C009E450E94AF450E94B84551F00E94BC4521
:10578C000E94C24519F40E94C84502C00E94D64529
:10579C000E949E450E94A2450E94F63FE02121F006
:1057AC000E94B23F0E94ED430E943B450E943F4540
:1057BC000E94F63F0E94DC4521F00E94DF450E94CA
:1057CC00A3430E949E450E94AF450E94E44521F0F0
:1057DC000E94BC450E94F9450E9400460E2E0E9474
:1057EC009E450E940949E02121F00E9498410E94A7
:1057FC009B430E949E450E940546E02119F00E94A1
:10580C0009461B980E943B450E9462450E940F4628
:10581C0029F01A980E9476450E941B460E94224647
:10582C000E2E0E943B450E940949E02131F00E9456
:10583C0098410E94593C0E94A3430E943B450E9400
:10584C002446E02119F00E9428461A980E942E4600
:10585C000E9434460E9438460E943C460E944446B0
:10586C000E94464641F00E9409460E9428460E942A
:10587C00DF430E94504608950E949E4414F40E94F7
:10588C00AF440E94CA40129711F40E941C210E943E
:10589C00B34411F40E94B9440E94BC440E94C04419
:1058AC000E94C54421F00E94B73F0E94CA440E9446
:1058BC00BC440E94CD4421F00E94D1440E94D744A4
:1058CC000E94BC440E94DE44E02111F00E94EE4490
:1058DC000E94BC440E94F344E02121F00E94D14478
:1058EC000E9403450E940B45E02121F00E94D14407
:1058FC000E9418450E94BC440E941F45E02111F0F3
:10590C000E9427450E94BC440E942C45E02121F0B6
:10591C000E94D1440E9434450E943B450E943F4561
:10592C000E9457430E9444460E944C4531F00E940D
:10593C00D03F0E945E450E94A3430E943B450E94BB
:10594C0062450E946B45C9F00E94704511F40E949B
:10595C0076450E947C4571F40E94694609F41A98B8
:10596C000E9482450E946E464A165B0611F40E9404
:10597C00B94403C01A9A0E9490450E949E450E9409
:10598C00A2450E9457430E94AA4521F00E94FB3F6A
:10599C000E94ED430E949E450E94AF450E94B8456F
:1059AC0051F00E94BC450E94C24519F40E94C845A2
:1059BC0002C00E94D6450E949E450E94A2450E94AC
:1059CC00F63FE02121F00E94B23F0E94ED430E947D
:1059DC003B450E943F450E94F63F0E94DC4531F05A
:1059EC000E94E63F0E9473460E94A3430E949E457C
:1059FC000E94AF450E94E44521F00E94BC450E94E4
:105A0C00F9450E9400460E2E0E949E450E940949AF
:105A1C00E02121F00E9498410E949B430E949E45E8
:105A2C000E940546E02119F00E9409461B980E942D
:105A3C003B450E9462450E940F4629F01A980E942D
:105A4C0076450E941B460E9422460E2E0E943B4524
:105A5C000E940949E02131F00E9498410E94593C72
:105A6C000E94A3430E943B450E942446E02119F06A
:105A7C000E9428461A980E942E460E9434460E9484
:105A8C0038460E943C460E9444460E94464641F0DD
:105A9C000E9409460E9428460E94DF430E945046FD
:105AAC0008950E949E4414F40E94AF440E94CA4080
:105ABC00129711F40E941C210E94B34411F40E940D
:105ACC00B9440E943B450E943F450E9457430E94A7
