:0E0000000C94AD030C9400000C9400000C94C2
:10000E0000000C9400000C9400000C9400000C9462
:10001E0000000C9400000C9400000C9400000C9452
:10002E0000000C9400000C9400000C9400000C9442
:10003E0000000C9428040C9400000C9400000C9406
:10004E0000000C9400000C9400000C9400000C9422
:10005E0000000C9400000C9400000C9400000C9412
:10006E0000000C9400000C9400000C9400000C9402
:10007E0000000C9400000C9400000C94000010275B
:10008E00E80364000A0001000010000110000100E6
:10009E000000202020202020202020202020202092
:1000AE002020202020202020202020202020202042
:1000BE002020202020202020202020202020202032
:1000CE002020005A616369736B206E6965207A6D1A
:1000DE006965727A6F6E7920752057796B6F6E61D4
:1000EE00776379004F73207A616369736B75206251
:1000FE006C697A656A20737A616679004F73207A2B
:10010E00616369736B752064616C656A206F64202E
:10011E00737A616679004369736E69656E696520ED
:10012E007A61206D616C65202D206D6E69656A7334
:10013E007A65206E697A2036206261720038362D1B
:10014E00303137300038362D313034330038362DDB
:10015E00313637350038362D323039380038372DB4
:10016E00303137300038372D313034330038372DB9
:10017E00313637350038372D323039380038362D94
:10018E00303139320038362D313035340038362D95
:10019E00313637360038362D323133320038372D7E
:1001AE00303139320038372D313035340038372D73
:1001BE00313637360038372D323133320038362D5E
:1001CE00303139330038362D313231360038362D54
:1001DE00313833320038362D323137340038372D3E
:1001EE00303139330038372D313231360038372D32
:1001FE00313833320038372D323137340038362D1E
:10020E00303139340038362D313334310038362D13
:10021E00313833330038362D323138300038372DFF
:10022E00303139340038372D313334310038372DF1
:10023E00313833330038372D323138300038362DDF
:10024E00303636330038362D313334390038362DCA
:10025E00313833340038362D323230340038372DC1
:10026E00303636330038372D313334390038372DA8
:10027E00313833340038372D323230340038362DA1
:10028E00303736380038362D313335370038362D85
:10029E00313834380038362D323231320038372D7D
:1002AE00303736380038372D313335370038372D63
:1002BE00313834380038372D323231320038362D5D
:1002CE00303830300038362D313336330038362D55
:1002DE00313930340038362D323234310038372D42
:1002EE00303830300038372D313336330038372D33
:1002FE00313930340038372D323234310038362D22
:10030E00303831310038362D313532330038362D14
:10031E00313932390038362D323236310038372DF8
:10032E00303831310038372D313532330038372DF2
:10033E00313932390038372D323236310038362DD8
:10034E00303831340038362D313533300038362DD3
:10035E00313933360038362D323238350038372DB4
:10036E00303831340038372D313533300038372DB1
:10037E00313933360038372D323238350038362D94
:10038E00303831350038362D313535310038362D8F
:10039E00313934310038362D323238360038372D77
:1003AE00303831350038372D313535310038372D6D
:1003BE00313934310038372D323238360038362D57
:1003CE00303831360038362D313535320038362D4D
:1003DE00323030370038362D323239320038372D40
:1003EE00303831360038372D313535320038372D2B
:1003FE00323030370038372D323239320038362D20
:10040E00303831370038362D313630320038362D0F
:10041E00323031370038362D323338340038372DFC
:10042E00303831370038372D313630320038372DED
:10043E00323031370038372D323338340038362DDC
:10044E00303834370038362D313632300038362DCC
:10045E00323031390038362D323338350038372DB9
:10046E00303834370038372D313632300038372DAA
:10047E00323031390038372D323338350038362D99
:10048E00303835340038362D313632320038362D8C
:10049E00323032380038362D323433370038372D7B
:1004AE00303835340038372D313632320038372D6A
:1004BE00323032380038372D323433370038362D5B
:1004CE00303836320038362D313632350038362D4A
:1004DE00323035320038362D323439320038372D3D
:1004EE00303836320038372D313632350038372D28
:1004FE00323035320038372D323439320038362D1D
:10050E00303933350038362D313634380038362D03
:10051E00323038320038362D323530300038372D03
:10052E00303933350038372D313634380038372DE1
:10053E00323038320038372D323530300038362DE3
:10054E00313031390038362D313634390038362DC8
:10055E00323038330038362D323538350038372DB5
:10056E00313031390038372D313634390038372DA6
:10057E00323038330038372D323632340038362D9B
:10058E00313032370038362D313636390038362D87
:10059E00323038370038362D323632340038372D77
:1005AE00313032370038372D313636390038372D65
:1005BE00323038370038372D32353835004E6965D0
:1005CE002077637A7974616E6F207A616369736BD9
:1005DE007500506F7A79636A6F6E756A6520756BF8
:1005EE006C616479206C696E696F77652058595A11
:1005FE0000537465726F776E696B2031202D2077F2
:10060E0079706F7A79636A6F6E6F77616C656D0062
:10061E00537465726F776E696B2032202D20777957
:10062E00706F7A79636A6F6E6F77616C656D005368
:10063E007465726F776E696B2033202D2077797019
:10064E006F7A79636A6F6E6F77616C656D00537444
:10065E0065726F776E696B2034202D207779706FFD
:10066E007A79636A6F6E6F77616C656D00416C614C
:10067E00726D20537465726F776E696B2034004112
:10068E006C61726D20537465726F776E696B203377
:10069E0000416C61726D20537465726F776E696B79
:1006AE00203100416C61726D20537465726F776EEC
:1006BE00696B2032005779706F7A79636A6F6E6F4B
:1006CE0077616E6F20756B6C616479206C696E69F1
:1006DE006F77652058595A0050727A656369617A4E
:1006EE00656E6961204C45465333325F310050725E
:1006FE007A656369617A656E6961204C454653334C
:10070E00325F320050727A656369617A656E696133
:10071E00204C4546535F58595F320050727A6563DC
:10072E0069617A656E6961204C4546535F58595F21
:10073E00310001002D4E414E00494E460000010091
:10074E0002009E0001008D0540070000F894EE2780
:10075E00ECBBF1E0F5BFE5BFE0936C00F8E1F1BD55
:10076E00E1BD8DE0A2E0BB27ED938A95E9F780E02D
:10077E0090E1A0E0B1E0ED930197E9F7ECE4F7E04A
:10078E0085919591009761F0A591B5910590159081
:10079E00BF01F00105900D920197E1F7FB01F0CF3B
:1007AE008BBFEFEFEDBFE0E1EEBFC0E0D5E00C9404
:1007BE00EA1D0E94BF2625C00E94BF26E69521C0D5
:1007CE000E94BF26E695E6951CC00E94BF26E695C0
:1007DE00E695E69516C00E94BF26E29512C00E94CD
:1007EE00BF26E295EF70E6950CC00E94BF26E295FB
:1007FE00EF70E695E69505C00E94BF26EE1FE0E07D
:10080E00EE1FE170239608951A930A9300E010E00C
:10081E000E94CE26E4E0EA930E945825E3E80E9467
:10082E00D626E1E0EA930E9458250E94E1260E9416
:10083E00E1260E94E1260E2F1127F8011981088169
:10084E005CC06A937A93AA93BA93EA93FA93EFB73A
:10085E00EA93A1E1B5E00E94E726A5E1B5E00E948A
:10086E00E726A9E1B5E00E94E726ADE1B5E00E94DA
:10087E00E726A1E2B5E00E94E726A5E2B5E00E94D8
:10088E00E726E991EFBFF991E991B991A991799193
:10089E00699118951A930A9300E010E00E94F026D1
:1008AE000E9449258F010D5F1F4F0E94CE260A938D
:1008BE000E945825E2E80E94D6260E94F02680E08B
:1008CE000E949A26229619810881289608950E94E0
:1008DE00CE26E5E0EA930E94F526EA81EA930E948D
:1008EE005825E881EA930E945825E0E0EA930E9499
:1008FE005825EC81EA930E94582526960895249750
:10090E000E94A12D00E010E0EE85FF85FA93EA9398
:10091E000E9449258F010D5F1F4FAC85BD85119734
:10092E0059F420E030E040E550E0E0E5F0E0E88703
:10093E00F987E0E0EE83EF83AC85BD85129759F41D
:10094E0020E030E040E250E0E0E4F0E0E887F987B4
:10095E00E0E0EE83EF830E94CE260A930E94F526F6
:10096E002A930E9458254A930E945825EE85FF85AA
:10097E00FA93EA9380E00E949A2622960E94FB2622
:10098E00EC85FD850E9403270E947E2DA0E0B0E03D
:10099E000E94602DE02151F00E940A27E1EDF0E067
:1009AE000E9418270E9418270E941D270E94FB26CE
:1009BE000E94212751F00E940A27E2EFF0E00E94E8
:1009CE0018270E9418270E941D270E94FB260E94AE
:1009DE00292751F00E940A27EAE0F1E00E94182729
:1009EE000E9418270E941D270E9431270E9421274E
:1009FE0051F00E940A27EAE0F1E00E9418270E94B7
:100A0E0018270E941D270E9431270E94292751F086
:100A1E000E940A27E2EFF0E00E9418270E94182792
:100A2E000E941D270E94A82D609608951A930A937E
:100A3E0001E010E0002E012AA9F40E943927D5DE2C
:100A4E00E03029F401E010E0E0EAF0E006C000E05A
:100A5E0010E00E944327E4E2F1E0FA93EA930E9449
:100A6E005227E8CF0991199108951A930A930E947B
:100A7E005D279FDEE1700E2EE0910205EE7F0E9453
:100A8E0067279ADEE170EE0F0E2EE0910205ED7FE4
:100A9E000E94672795DEE170EE0FEE0F0E2EE091AD
:100AAE000205EB7F0E94672790DEE170EE0FEE0FDE
:100ABE00EE0F0E2EE0910205E77F0E9467278BDE78
:100ACE00E170E295E07F0E2EE0910205EF7E0E942E
:100ADE00672785DEE170E295E07FEE0F0E2EE09146
:100AEE000205EF7D0E94672780DEE170E295E07FD0
:100AFE00EE0FEE0F0E2EE0910205EF7B0E946727A0
:100B0E007BDEE170E795E0E0E7950E2EE0910205C1
:100B1E00EF77E029E09302050E946B270E94702771
:100B2E0073DE8F01A0910205A13069F4F8010E94D5
:100B3E000327E1E0F0E0ED93FC93EBE4F1E00E949B
:100B4E0075270E947A27A0910205A23069F4F80158
:100B5E000E940327E2E0F0E0ED93FC93E3E5F1E081
:100B6E000E9475270E948027A0910205A33069F488
:100B7E00F8010E940327E3E0F0E0ED93FC93EBE530
:100B8E00F1E00E9475270E948027A0910205A430F3
:100B9E0069F4F8010E940327E4E0F0E0ED93FC9382
:100BAE00E3E6F1E00E9475270E948027A0910205DE
:100BBE00A53069F4F8010E940327E5E0F0E0ED931B
:100BCE00FC93EBE6F1E00E9475270E948027A0912E
:100BDE000205A63069F4F8010E940327E6E0F0E072
:100BEE00ED93FC93E3E7F1E00E9475270E947A27CC
:100BFE00A0910205A73069F4F8010E940327E7E0EF
:100C0E00F0E0ED93FC93EBE7F1E00E9475270E9474
:100C1E007A27A0910205A83069F4F8010E940327F3
:100C2E00E8E0F0E0ED93FC93E3E8F1E00E94752735
:100C3E000E947A27A0910205A93069F4F8010E945A
:100C4E000327E9E0F0E0ED93FC93EBE8F1E00E947E
:100C5E0075270E948027A0910205AA3069F4F80139
:100C6E000E940327EAE0F0E0ED93FC93E3E9F1E064
:100C7E000E9475270E948027A0910205AB3069F46F
:100C8E00F8010E940327EBE0F0E0ED93FC93EBE913
:100C9E00F1E00E9475270E948027A0910205AC30DA
:100CAE0069F4F8010E940327ECE0F0E0ED93FC9369
:100CBE00E3EAF1E00E9475270E947A27A0910205CF
:100CCE00AD3069F4F8010E940327EDE0F0E0ED93FA
:100CDE00FC93EBEAF1E00E9475270E947A27A0911F
:100CEE000205AE3069F4F8010E940327EEE0F0E051
:100CFE00ED93FC93E3EBF1E00E9475270E947A27B7
:100D0E00A0910205AF3069F4F8010E940327EFE0CD
:100D1E00F0E0ED93FC93EBEBF1E00E9475270E945F
:100D2E007A27A0910205A03169F4F8010E940327E9
:100D3E00E0E1F0E0ED93FC93E3ECF1E00E94752727
:100D4E000E948027A0910205A13169F4F8010E944A
:100D5E000327E1E1F0E0ED93FC93EBECF1E00E9470
:100D6E0075270E948027A0910205A23169F4F8012F
:100D7E000E940327E2E1F0E0ED93FC93E3EDF1E056
:100D8E000E9475270E948027A0910205A33169F465
:100D9E00F8010E940327E3E1F0E0ED93FC93EBED05
:100DAE00F1E00E9475270E948027A0910205A431D0
:100DBE0069F4F8010E940327E4E1F0E0ED93FC935F
:100DCE00E3EEF1E00E9475270E948027A0910205B4
:100DDE00A53169F4F8010E940327E5E1F0E0ED93F7
:100DEE00FC93EBEEF1E00E9475270E947A27A0910A
:100DFE000205A63169F4F8010E940327E6E1F0E04E
:100E0E00ED93FC93E3EFF1E00E9475270E947A27A1
:100E1E00A0910205A73169F4F8010E940327E7E1CA
:100E2E00F0E0ED93FC93EBEFF1E00E9475270E944A
:100E3E007A27A0910205A83169F4F8010E940327D0
:100E4E00E8E1F0E0ED93FC93E3E0F2E00E94752719
:100E5E000E947A27A0910205A93169F4F8010E9437
:100E6E000327E9E1F0E0ED93FC93EBE0F2E00E9462
:100E7E0075270E948027A0910205AA3169F4F80116
:100E8E000E940327EAE1F0E0ED93FC93E3E1F2E048
:100E9E000E9475270E948027A0910205AB3169F44C
:100EAE00F8010E940327EBE1F0E0ED93FC93EBE1F8
:100EBE00F2E00E9475270E948027A0910205AC31B6
:100ECE0069F4F8010E940327ECE1F0E0ED93FC9346
:100EDE00E3E2F2E00E9475270E947A27A0910205B4
:100EEE00AD3169F4F8010E940327EDE1F0E0ED93D6
:100EFE00FC93EBE2F2E00E9475270E947A27A09104
:100F0E000205AE3169F4F8010E940327EEE1F0E02C
:100F1E00ED93FC93E3E3F2E00E9475270E947A279B
:100F2E00A0910205AF3169F4F8010E940327EFE1A9
:100F3E00F0E0ED93FC93EBE3F2E00E9475270E9444
:100F4E007A27A0910205A03269F4F8010E940327C6
:100F5E00E0E2F0E0ED93FC93E3E4F2E00E9475270B
:100F6E000E948027A0910205A13269F4F8010E9427
:100F7E000327E1E2F0E0ED93FC93EBE4F2E00E9454
:100F8E0075270E947A27A0910205A23269F4F80112
:100F9E000E940327E2E2F0E0ED93FC93E3E5F2E03A
:100FAE000E9475270E948027A0910205A33269F442
:100FBE00F8010E940327E3E2F0E0ED93FC93EBE5EA
:100FCE00F2E00E9475270E948027A0910205A432AC
:100FDE0069F4F8010E940327E4E2F0E0ED93FC933C
:100FEE00E3E6F2E00E9475270E948027A091020599
:100FFE00A53269F4F8010E940327E5E2F0E0ED93D3
:10100E00FC93EBE6F2E00E9475270E948027A091E8
:10101E000205A63269F4F8010E940327E6E2F0E029
:10102E00ED93FC93E3E7F2E00E9475270E947A2786
:10103E00A0910205A73269F4F8010E940327E7E2A6
:10104E00F0E0ED93FC93EBE7F2E00E9475270E942F
:10105E007A27A0910205A83269F4F8010E940327AD
:10106E00E8E2F0E0ED93FC93E3E8F2E00E947527EE
:10107E000E947A27A0910205A93269F4F8010E9414
:10108E000327E9E2F0E0ED93FC93EBE8F2E00E9437
:10109E0075270E947A27A0910205AA3269F4F801F9
:1010AE000E940327EAE2F0E0ED93FC93E3E9F2E01D
:1010BE000E9475270E948027A0910205AB3269F429
:1010CE00F8010E940327EBE2F0E0ED93FC93EBE9CD
:1010DE00F2E00E9475270E948027A0910205AC3293
:1010EE0079F4F8010E940327ECE2F0E00E948627D3
:1010FE000E948A27E3EAF2E00E9475270E94802769
:10110E00A0910205AD3269F4F8010E940327EDE2C9
:10111E00F0E0ED93FC93EBEAF2E00E9475270E945B
:10112E008027A0910205AE3269F4F8010E940327D0
:10113E00EEE2F0E0ED93FC93E3EBF2E00E94752714
:10114E000E947A27A0910205AF3269F4F8010E943D
:10115E000327EFE2F0E0ED93FC93EBEBF2E00E945D
:10116E0075270E947A27A0910205A03379F4F80121
:10117E000E940327E0E3F0E00E9486270E948A2760
:10118E00E3ECF2E00E9475270E947A27A0910205F7
:10119E00A13369F4F8010E940327E1E3F0E0ED9337
:1011AE00FC93EBECF2E00E9475270E948027A09141
:1011BE000205A23369F4F8010E940327E2E3F0E08E
:1011CE00ED93FC93E3EDF2E00E9475270E948027D9
:1011DE00A0910205A33369F4F8010E940327E3E30B
:1011EE00F0E0ED93FC93EBEDF2E00E9475270E9488
:1011FE008027A0910205A43369F4F8010E94032709
:10120E00E4E3F0E0ED93FC93E3EEF2E00E94752749
:10121E000E947A27A0910205A53369F4F8010E9475
:10122E000327E5E3F0E0ED93FC93EBEEF2E00E9492
:10123E0075270E947A27A0910205A63369F4F8015A
:10124E000E940327E6E3F0E0ED93FC93E3EFF2E078
:10125E000E9475270E947A27A0910205A73369F490
:10126E00F8010E940327E7E3F0E0ED93FC93EBEF28
:10127E00F2E00E9475270E947A27A0910205A833FA
:10128E0069F4F8010E940327E8E3F0E0ED93FC9384
:10129E00E3E0F3E00E9475270E948027A0910205EB
:1012AE00A93369F4F8010E940327E9E3F0E0ED9316
:1012BE00FC93EBE0F3E00E9475270E948027A0913B
:1012CE000205AA3369F4F8010E940327EAE3F0E06D
:1012DE00ED93FC93E3E1F3E00E9475270E948027D3
:1012EE00A0910205AB3369F4F8010E940327EBE3EA
:1012FE00F0E0ED93FC93EBE1F3E00E9475270E9482
:10130E008027A0910205AC3369F4F8010E940327EF
:10131E00ECE3F0E0ED93FC93E3E2F3E00E9475273B
:10132E000E948027A0910205AD3369F4F8010E9456
:10133E000327EDE3F0E0ED93FC93EBE2F3E00E9484
:10134E0075270E947A27A0910205AE3369F4F80141
:10135E000E940327EEE3F0E0ED93FC93E3E3F3E06A
:10136E000E9475270E947A27A0910205AF3369F477
:10137E00F8010E940327EFE3F0E0ED93FC93EBE31B
:10138E00F3E00E9475270E947A27A0910205A034EF
:10139E0069F4F8010E940327E0E4F0E0ED93FC937A
:1013AE00E3E4F3E00E9475270E947A27A0910205DC
:1013BE00A13469F4F8010E940327E1E4F0E0ED9313
:1013CE00FC93EBE4F3E00E9475270E948027A09126
:1013DE000205A23469F4F8010E940327E2E4F0E06A
:1013EE00ED93FC93E3E5F3E00E9475270E947A27C4
:1013FE00A0910205A33469F4F8010E940327E3E4E7
:10140E00F0E0ED93FC93EBE5F3E00E9475270E946C
:10141E007A27A0910205A43469F4F8010E940327EB
:10142E00E4E4F0E0ED93FC93E3E6F3E00E9475272D
:10143E000E947A27A0910205A53469F4F8010E9452
:10144E000327E5E4F0E0ED93FC93EBE6F3E00E9476
:10145E0075270E947A27A0910205A63469F4F80137
:10146E000E940327E6E4F0E0ED93FC93E3E7F3E05C
:10147E000E9475270E948027A0910205A73469F467
:10148E00F8010E940327E7E4F0E0ED93FC93EBE70D
:10149E00F3E00E9475270E948027A0910205A834D0
:1014AE0069F4F8010E940327E8E4F0E0ED93FC9361
:1014BE00E3E8F3E00E9475270E948027A0910205C1
:1014CE00A93469F4F8010E940327E9E4F0E0ED93F2
:1014DE00FC93EBE8F3E00E9475270E948027A09111
:1014EE000205AA3469F4F8010E940327EAE4F0E049
:1014FE00ED93FC93E3E9F3E00E9475270E948027A9
:10150E00A0910205AB3469F4F8010E940327EBE4C5
:10151E00F0E0ED93FC93EBE9F3E00E9475270E9457
:10152E008027A0910205AC3479F4F8010E940327BC
:10153E00ECE4F0E00E9486270E948A27E3EAF3E0BB
:10154E000E9475270E948027A0910205AD3469F490
:10155E00F8010E940327EDE4F0E0ED93FC93EBEA33
:10156E00F3E00E9475270E947A27A0910205AE34FF
:10157E0069F4F8010E940327EEE4F0E0ED93FC938A
:10158E00E3EBF3E00E9475270E947A27A0910205F3
:10159E00AF3469F4F8010E940327EFE4F0E0ED9315
:1015AE00FC93EBEBF3E00E9475270E947A27A09143
:1015BE000205A03579F4F8010E940327E0E5F0E07A
:1015CE000E9486270E948A27E3ECF3E00E9475278B
:1015DE000E948027A0910205A13569F4F8010E94AE
:1015EE000327E1E5F0E0ED93FC93EBECF3E00E94D2
:1015FE0075270E948027A0910205A23569F4F80193
:10160E000E940327E2E5F0E0ED93FC93E3EDF3E0B7
:10161E000E9475270E948027A0910205A33569F4C8
:10162E00F8010E940327E3E5F0E0ED93FC93EBED68
:10163E00F3E00E9475270E947A27A0910205A43537
:10164E0069F4F8010E940327E4E5F0E0ED93FC93C2
:10165E00E3EEF3E00E9475270E947A27A09102051F
:10166E00A53569F4F8010E940327E5E5F0E0ED9356
:10167E00FC93EBEEF3E00E9475270E947A27A0916F
:10168E000205A63569F4F8010E940327E6E5F0E0AD
:10169E00ED93FC93E3EFF3E00E9475270E947A2707
:1016AE00A0910205A73569F4F8010E940327E7E52A
:1016BE00F0E0ED93FC93EBEFF3E00E9475270E94B0
:1016CE008027A0910205A83569F4F8010E9403272E
:1016DE00E8E5F0E0ED93FC93E3E0F4E00E9475277B
:1016EE000E948027A0910205A93569F4F8010E9495
:1016FE000327E9E5F0E0ED93FC93EBE0F4E00E94C4
:10170E0075270E948027A0910205AA3569F4F80179
:10171E000E940327EAE5F0E0ED93FC93E3E1F4E0A9
:10172E000E9475270E947A27A0910205AB3569F4B5
:10173E00F8010E940327EBE5F0E0ED93FC93EBE15B
:10174E00F4E00E9475270E947A27A0910205AC351D
:10175E0079F4F8010E940327ECE5F0E00E94862759
:10176E000E948A27E3E2F4E00E9475270E948027F8
:10177E00A0910205AD3569F4F8010E940327EDE54D
:10178E00F0E0ED93FC93EBE2F4E00E9475270E94EB
:10179E007A27A0910205AE3569F4F8010E9403275D
:1017AE00EEE5F0E0ED93FC93E3E3F4E00E947527A1
:1017BE000E948027A0910205AF3569F4F8010E94BE
:1017CE000327EFE5F0E0ED93FC93EBE3F4E00E94EA
:1017DE0075270E948027A0910205A03679F4F801A2
:1017EE000E940327E0E6F0E00E9486270E948A27E7
:1017FE00E3E4F4E00E9475270E948027A091020581
:10180E00A13669F4F8010E940327E1E6F0E0ED93BA
:10181E00FC93EBE4F4E00E9475270E948027A091D0
:10182E000205A23669F4F8010E940327E2E6F0E011
:10183E00ED93FC93E3E5F4E00E9475270E94802768
:10184E00A0910205A33669F4F8010E940327E3E68E
:10185E00F0E0ED93FC93EBE5F4E00E9475270E9417
:10186E007A27A0910205A43669F4F8010E94032795
:10187E00E4E6F0E0ED93FC93E3E6F4E00E947527D6
:10188E000E948027A0910205A53669F4F8010E94F6
:10189E000327E5E6F0E0ED93FC93EBE6F4E00E941F
:1018AE0075270E947A27A0910205A63669F4F801E1
:1018BE000E940327E6E6F0E0ED93FC93E3E7F4E005
:1018CE000E9475270E947A27A0910205A73669F417
:1018DE00F8010E940327E7E6F0E0ED93FC93EBE7B7
:1018EE00F4E00E9475270E948027A0910205A83679
:1018FE0069F4F8010E940327E8E6F0E0ED93FC930B
:10190E00E3E8F4E00E9475270E947A27A091020571
:10191E00A93669F4F8010E940327E9E6F0E0ED9399
:10192E00FC93EBE8F4E00E9475270E948027A091BB
:10193E000205AA3669F4F8010E940327EAE6F0E0F0
:10194E00ED93FC93E3E9F4E00E9475270E947A2759
:10195E00A0910205AB3679F4F8010E940327EBE65D
:10196E00F0E00E9486270E948A27EBE9F4E00E94AD
:10197E0075270E948027A0910205AC3669F4F80104
:10198E000E940327ECE6F0E0ED93FC93E3EAF4E02B
:10199E000E9475270E948027A0910205AD3669F43A
:1019AE00F8010E940327EDE6F0E0ED93FC93EBEADD
:1019BE00F4E00E9475270E947A27A0910205AE36A8
:1019CE0069F4F8010E940327EEE6F0E0ED93FC9334
:1019DE00E3EBF4E00E9475270E948027A091020598
:1019EE00AF3679F4F8010E940327EFE6F0E00E948B
:1019FE0086270E948A27EBEBF4E00E9475270E944F
:101A0E008027A0910205A03769F4F8010E940327F0
:101A1E00E0E7F0E0ED93FC93E3ECF4E00E94752731
:101A2E000E947A27A0910205A13769F4F8010E945D
:101A3E000327E1E7F0E0ED93FC93EBECF4E00E947A
:101A4E0075270E948027A0910205A23769F4F8013C
:101A5E000E940327E2E7F0E0ED93FC93E3EDF4E060
:101A6E000E9475270E948027A0910205A33769F472
:101A7E00F8010E940327E3E7F0E0ED93FC93EBED12
:101A8E00F4E00E9475270E948027A0910205A437DA
:101A9E0069F4F8010E940327E4E7F0E0ED93FC936C
:101AAE00E3EEF4E00E9475270E947A27A0910205CA
:101ABE00A53769F4F8010E940327E5E7F0E0ED93FE
:101ACE00FC93EBEEF4E00E9475270E947A27A0911A
:101ADE000205A63769F4F8010E940327E6E7F0E055
:101AEE00ED93FC93E3EFF4E00E9475270E947A27B2
:101AFE00A0910205A73769F4F8010E940327E7E7D2
:101B0E00F0E0ED93FC93EBEFF4E00E9475270E945A
:101B1E007A27A0910205A83769F4F8010E940327DD
:101B2E00E8E7F0E0ED93FC93E3E0F5E00E94752723
:101B3E000E948027A0910205A93769F4F8010E943E
:101B4E000327E9E7F0E0ED93FC93EBE0F5E00E946C
:101B5E0075270E948027A0910205AA3769F4F80123
:101B6E000E940327EAE7F0E0ED93FC93E3E1F5E052
:101B7E000E9475270E948027A0910205AB3769F459
:101B8E00F8010E940327EBE7F0E0ED93FC93EBE105
:101B9E00F5E00E9475270E948027A0910205AC37C0
:101BAE0069F4F8010E940327ECE7F0E0ED93FC9353
:101BBE00E3E2F5E00E9475270E948027A0910205BE
:101BCE00AD3769F4F8010E940327EDE7F0E0ED93DD
:101BDE00FC93EBE2F5E00E9475270E947A27A09114
:101BEE000205AE3769F4F8010E940327EEE7F0E034
:101BFE00ED93FC93E3E3F5E00E9475270E947A27AC
:101C0E00A0910205AF3769F4F8010E940327EFE7B0
:101C1E00F0E0ED93FC93EBE3F5E00E9475270E9454
:101C2E007A27A0910205A03869F4F8010E940327D3
:101C3E00E0E8F0E0ED93FC93E3E4F5E00E94752715
:101C4E000E947A27A0910205A13869F4F8010E943A
:101C5E000327E1E8F0E0ED93FC93EBE4F5E00E945E
:101C6E0075270E948027A0910205A23869F4F80119
:101C7E000E940327E2E8F0E0ED93FC93E3E5F5E044
:101C8E000E9475270E948027A0910205A33869F44F
:101C9E00F8010E940327E3E8F0E0ED93FC93EBE5F7
:101CAE00F5E00E9475270E947A27A0910205A438BC
:101CBE0069F4F8010E940327E4E8F0E0ED93FC9349
:101CCE00E3E6F5E00E9475270E948027A0910205A9
:101CDE00A53869F4F8010E940327E5E8F0E0ED93DA
:101CEE00FC93EBE6F5E00E9475270E947A27A091FF
:101CFE000205A63869F4F8010E940327E6E8F0E031
:101D0E00ED93FC93E3E7F5E00E9475270E947A2796
:101D1E00A0910205A73869F4F8010E940327E7E8AD
:101D2E00F0E0ED93FC93EBE7F5E00E9475270E943F
:101D3E008027A0910205A83869F4F8010E940327B4
:101D4E00E8E8F0E0ED93FC93E3E8F5E00E947527F8
:101D5E000E947A27A0910205A93869F4F8010E9421
:101D6E000327E9E8F0E0ED93FC93EBE8F5E00E9441
:101D7E0075270E948027A0910205AA3869F4F80100
:101D8E000E940327EAE8F0E0ED93FC93E3E9F5E027
:101D9E000E9475270E947A27A0910205AB3869F43C
:101DAE00F8010E940327EBE8F0E0ED93FC93EBE9DA
:101DBE00F5E00E9475270E947A27A0910205AC38A3
:101DCE0069F4F8010E940327ECE8F0E0ED93FC9330
:101DDE00E3EAF5E00E9475270E948027A091020594
:101DEE00AD3869F4F8010E940327EDE8F0E0ED93B9
:101DFE00FC93EBEAF5E00E9475270E947A27A091EA
:101E0E000205AE3869F4F8010E940327EEE8F0E00F
:101E1E00ED93FC93E3EBF5E00E9475270E9480277B
:101E2E00A0910205AF3869F4F8010E940327EFE88C
:101E3E00F0E0ED93FC93EBEBF5E00E9475270E942A
:101E4E008027A0910205A03969F4F8010E940327AA
:101E5E00E0E9F0E0ED93FC93E3ECF5E00E947527EA
:101E6E000E947A27F801099119910895E881F98164
:101E7E000E9403270E947E2D309741F40E94432733
:101E8E00EBECF5E00E948F270C94A517E130A0E053
:101E9E00FA0751F4E8ECF0E00E9492270E9499278D
:101EAE000E94A0270C948C17E230A0E0FA0771F480
:101EBE00E0E1F1E00E9492270E94AF270E94B42732
:101ECE000E94AF270E94C3270C949217E330A0E024
:101EDE00FA0761F4EAE7F0E00E9492270E94992740
:101EEE000E94C8270E94D1270C949217E430A0E0DC
:101EFE00FA0761F4E2E0F1E00E9492270E9499272E
:101F0E000E94DA270E94D1270C949217E530A0E0A8
:101F1E00FA0759F4E0EBF0E00E9492270E9499270D
:101F2E000E94A0270E94E327F6C7E630A0E0FA073A
:101F3E0059F4EEEFF0E00E9492270E94AF270E9424
:101F4E00B427A0E1B0E0E1C7E730A0E0FA0749F41A
:101F5E00E8E7F0E00E9492270E9499270E94C82786
:101F6E00CEC7E830A0E0FA0749F4E0ECF0E00E94BA
:101F7E0092270E9499270E94DA27C1C7E930A0E074
:101F8E00FA0769F4E8E1F0E00E9492270E9499278F
:101F9E000E94DA270E94E6270E94E327BCC7EA3098
:101FAE00A0E0FA0759F4E6E1F0E00E9492270E94C1
:101FBE0099270E94ED270E94D127ADC7EB30A0E0F4
:101FCE00FA0759F4E4E7F0E00E9492270E9499275D
:101FDE000E94F6270E94D1279EC7EC30A0E0FA0798
:101FEE0049F4E6E9F0E00E9492270E9499270E94A8
:101FFE00FF2785C7ED30A0E0FA0759F4EAE1F0E0DB
:10200E000E9492270E9499270E94DA270E94E627B3
:10201E007CC7EE30A0E0FA0749F4EEE5F0E00E944E
:10202E0092270E9499270E94ED2769C7EF30A0E002
:10203E00FA0749F4E4E8F0E00E9492270E949927FB
:10204E000E94F6275CC7E031A0E0FA0749F4E8EBFE
:10205E00F0E00E9492270E9499270E9408285BC7F1
:10206E00E131A0E0FA0759F4E0E2F0E00E94922795
:10207E000E9499270E94A0270E94E3274CC7E231B5
:10208E00A0E0FA0769F4E8E9F0E00E9492270E94C6
:10209E00AF270E9411280E94AF270E94C3273BC77B
:1020AE00E331A0E0FA0759F4EAEAF0E00E94922741
:1020BE000E9499270E9420280E9427282CC7E431CD
:1020CE00A0E0FA0769F4E2E4F0E00E9492270E9491
:1020DE0099270E9420280E942A280E94E3271BC7C6
:1020EE00E531A0E0FA0749F4EEE4F0E00E94922711
:1020FE000E9499270E94A02708C7E631A0E0FA07A0
:10210E0059F4E2ECF0E00E9492270E94AF270E9461
:10211E001128A0E1B0E0F9C6E731A0E0FA0759F4C2
:10212E00EEECF0E00E9492270E9499270E94202850
:10213E00A9E9B1E0E4C6E831A0E0FA0759F4E0E419
:10214E00F0E00E9492270E9499270E9420280E9468
:10215E002A28DBC6E931A0E0FA0759F4EEE2F0E0F6
:10216E000E9492270E9499270E94ED270E94D12754
:10217E00D2C6EA31A0E0FA0759F4EAEFF0E00E9485
:10218E0092270E9499270E9433280E94E327C3C6F4
:10219E00EB31A0E0FA0749F4ECE6F0E00E9492275A
:1021AE000E9499270E940828B6C6EC31A0E0FA07D3
:1021BE0049F4E4EAF0E00E9492270E9499270E94D7
:1021CE00FF279DC6ED31A0E0FA0749F4EAE2F0E000
:1021DE000E9492270E9499270E94ED2790C6EE3109
:1021EE00A0E0FA0749F4E4E9F0E00E9492270E9489
:1021FE0099270E94332889C6EF31A0E0FA0759F4D7
:10220E00EEE6F0E00E9492270E9499270E943C2859
:10221E00A9E9B1E074C6E032A0E0FA0759F4E6E8A5
:10222E00F0E00E9492270E9499270E94FF270E94A9
:10223E00D12771C6E132A0E0FA0749F4EEE8F0E0EA
:10224E000E9492270E949927A0E2B0E052C6E23285
:10225E00A0E0FA0759F4EAE5F0E00E9492270E9406
:10226E0099270E9443280E944A2855C6E332A0E0CF
:10227E00FA0759F4EAEDF0E00E9492270E9499279E
:10228E000E944D280E94E32746C6E432A0E0FA07DA
:10229E0059F4E2EAF0E00E9492270E9454280E942C
:1022AE00AF270E94C32737C6E532A0E0FA0759F4DC
:1022BE00E4E0F1E00E9492270E9499270E944328B1
:1022CE000E94672828C6E632A0E0FA0759F4E6E332
:1022DE00F0E00E9492270E9499270E944328A6E9C7
:1022EE00B1E00DC6E732A0E0FA0749F4E8E1F1E00B
:1022FE000E9492270E9499270E944D2806C6E83216
:10230E00A0E0FA0749F4E6EAF0E00E9492270E9464
:10231E005428A0E1B0E0F9C5E932A0E0FA0759F47B
:10232E00EEE1F0E00E9492270E9499270E94DA27A0
:10233E000E94E627EAC5EA32A0E0FA0759F4ECE576
:10234E00F0E00E9492270E94AF270E946A280E9406
:10235E00E327E1C5EB32A0E0FA0759F4E2E6F0E03C
:10236E000E9492270E9499270E943C280E944A2888
:10237E00D2C5EC32A0E0FA0719F40E947528CBC53D
:10238E00ED32A0E0FA0769F4E0E1F0E00E94922756
:10239E000E9499270E94DA270E94E6270E94E327CF
:1023AE00BAC5EE32A0E0FA0749F4E0E5F0E00E948B
:1023BE0092270E94AF270E946A28A7C5EF32A0E09D
:1023CE00FA0759F4E8E6F0E00E9492270E94992756
:1023DE000E943C28A6E9B1E092C5E033A0E0FA07DE
:1023EE0019F40E94752897C5E133A0E0FA0759F455
:1023FE00E4E2F0E00E9492270E9499270E94DA27D9
:10240E000E94D12788C5E233A0E0FA0759F4E4E12F
:10241E00F0E00E9492270E9499270E944D280E9468
:10242E00E32779C5E333A0E0FA0759F4E2E8F0E0D8
:10243E000E9492270E9499270E948B280E9467284B
:10244E006AC5E433A0E0FA0749F4E6E0F1E00E9441
:10245E0092270E9499270E94922857C5E533A0E043
:10246E00FA0749F4ECE4F0E00E9492270E949927C3
:10247E000E94DA2744C5E633A0E0FA0749F4ECE1FE
:10248E00F0E00E9492270E9499270E944D283DC598
:10249E00E733A0E0FA0749F4E4E1F1E00E94922765
:1024AE000E949927AAE1B0E024C5E833A0E0FA071C
:1024BE0059F4EEEEF0E00E9492270E9499270E94B6
:1024CE0092280E94E32727C5E933A0E0FA0759F4C2
:1024DE00E8EFF0E00E9492270E9499270E94A1281F
:1024EE000E94E32718C5EA33A0E0FA0759F4E4EE98
:1024FE00F0E00E9492270E9499270E943C280E9499
:10250E004A2809C5EB33A0E0FA0759F4E2E5F0E0FA
:10251E000E9492270E9499270E94AA280E9427288B
:10252E00FAC4EC33A0E0FA0779F4E0E9F0E00E9497
:10253E0092270E9499270E94B128A0E9B1E00E943B
:10254E00E6270E94E327E7C4ED33A0E0FA0749F43B
:10255E00ECEFF0E00E9492270E9499270E94332808
:10256E00D4C4EE33A0E0FA0759F4E8E2F0E00E949A
:10257E0092270E9499270E943C28A6E9B1E0BFC489
:10258E00EF33A0E0FA0759F4E4E3F0E00E9492275B
:10259E000E9499270E94AA28A9E9B1E0B0C4E034AC
:1025AE00A0E0FA0749F4ECEEF0E00E9492270E94B8
:1025BE0099270E94A128A9C4E134A0E0FA0759F492
:1025CE00ECECF0E00E9492270E9499270E94B82816
:1025DE000E94D127A0C4E234A0E0FA0759F4ECEB34
:1025EE00F0E00E9492270E9499270E94AA280E943A
:1025FE00C1288BC4E334A0E0FA0759F4ECE9F0E00B
:10260E000E9492270E9499270E94AA28A6E9B1E06B
:10261E0076C4E434A0E0FA0749F4ECE7F0E00E9457
:10262E0092270E9499270E94FF2769C4E534A0E0F3
:10263E00FA0749F4E2EDF0E00E9492270E949927F2
:10264E000E94B8285CC4E634A0E0FA0769F4E6EE0E
:10265E00F0E00E9492270E9499270E94AA280E94C9
:10266E00C1280E94E32757C4E734A0E0FA0759F4C3
:10267E00E4EBF0E00E9492270E9499270E94AA287C
:10268E000E944A2848C4E834A0E0FA0759F4ECEA5C
:10269E00F0E00E9492270E9499270E94FF270E9435
:1026AE00D12739C4E934A0E0FA0769F4E2E1F0E099
:1026BE000E9492270E94AF27E5E7F5E00E948B2843
:1026CE000E944A2828C4EA34A0E0FA0759F4E2EB43
:1026DE00F0E00E9492270E9499270E94DA270E941A
:1026EE00D12719C4EB34A0E0FA0759F4ECE0F1E07D
:1026FE000E9492270E9499270E9443280E944A28EE
:10270E000AC4EC34A0E0FA0719F40E94752803C439
:10271E00ED34A0E0FA0769F4E6E2F0E00E949227B9
:10272E000E94AF27E5E7F5E00E948B28A6E9B1E00D
:10273E00E6C3EE34A0E0FA0759F4ECE1F1E00E94B2
:10274E0092270E9499270E94C428A6E9B1E0D7C318
:10275E00EF34A0E0FA0759F4E2E1F1E00E9492278B
:10276E000E9499270E944328A6E9B1E0C8C3E0352C
:10277E00A0E0FA0719F40E947528CDC3E135A0E058
:10278E00FA0759F4EAEEF0E00E9492270E94992788
:10279E000E94CB280E94D127BEC3E235A0E0FA07E3
:1027AE0059F4E8EDF0E00E9492270E9499270E94CA
:1027BE00D4280E94D127AFC3E335A0E0FA0769F40D
:1027CE00ECE8F0E00E9492270E949927A2E2B0E086
:1027DE000E94DD28A9E9B1E092C3E435A0E0FA0732
:1027EE0059F4E0EAF0E00E9492270E94E2280E944B
:1027FE00EB28A0E1B0E089C3E535A0E0FA0749F483
:10280E00EEEAF0E00E9492270E9499270E94CB28C0
:10281E0076C3E635A0E0FA0749F4E6EFF0E00E9451
:10282E0092270E9499270E94D42869C3E735A0E019
:10283E00FA0759F4E4ECF0E00E9492270E949927DF
:10284E000E94F2280E94272866C3E835A0E0FA0706
:10285E0069F4EEE7F0E00E9492270E94E2280E94BF
:10286E00EB280E94AF270E94C32755C3E935A0E08D
:10287E00FA0759F4ECE2F0E00E9492270E949927A1
:10288E000E94B1280E944A2846C3EA35A0E0FA0702
:10289E0049F4E0EFF0E00E9492270E9499270E94EF
:1028AE00A02733C3EB35A0E0FA0759F4E8EAF0E0CD
:1028BE000E9492270E9499270E943C28A9E9B1E024
:1028CE001EC3EC35A0E0FA0719F40E94752823C345
:1028DE00ED35A0E0FA0759F4E0E3F0E00E9492270C
:1028EE000E9499270E94B128A6E9B1E008C3EE35EF
:1028FE00A0E0FA0759F4E4EFF0E00E9492270E945C
:10290E0099270E94A0270E94E32705C3EF35A0E078
:10291E00FA0749F4EEE9F0E00E9492270E94992707
:10292E000E940828F8C2E036A0E0FA0719F40E94C7
:10293E007528F1C2E136A0E0FA0759F4EAE6F0E0B4
:10294E000E9492270E9499270E94FF270E94D1275A
:10295E00E2C2E236A0E0FA0769F4EEEBF0E00E9484
:10296E0092270E9499270E94C8270E94F5280E944C
:10297E00E327D1C2E336A0E0FA0759F4EAEBF0E020
:10298E000E9492270E9499270E94C428A9E9B1E0CB
:10299E00B6C2E436A0E0FA0759F4E0E6F0E00E9491
:1029AE0092270E9499270E94DA270E94D127B3C24C
:1029BE00E536A0E0FA0749F4E0E7F0E00E9492273E
:1029CE000E9499270E94FF279AC2E636A0E0FA07D6
:1029DE0059F4EAE8F0E00E9492270E9499270E949B
:1029EE00C8270E94F52891C2E736A0E0FA0759F4ED
:1029FE00E0E8F0E00E9492270E9499270E94C428E6
:102A0E000E94272888C2E836A0E0FA0749F4E6EBD0
:102A1E00F0E00E9492270E9499270E94DA276FC247
:102A2E00E936A0E0FA0769F4E4E4F0E00E949227A8
:102A3E000E9499270E94FC280E942A280E94E327C0
:102A4E006AC2EA36A0E0FA0749F4EAE3F0E00E942F
:102A5E0092270E9499270E944D2857C2EB36A0E07C
:102A6E00FA0719F40E94752856C2EC36A0E0FA0750
:102A7E0069F4E6ECF0E00E9492270E9499270E94EA
:102A8E00AA280E94C1280E94E32745C2ED36A0E085
:102A9E00FA0759F4EAE0F0E00E9492270E94AF276D
:102AAE000E94B427A0E1B0E030C2EE36A0E0FA07F3
:102ABE0059F4E2E3F0E00E9492270E9499270E94C7
:102ACE004D280E94E32727C2EF36A0E0FA0719F43B
:102ADE000E94752820C2E037A0E0FA0759F4E2EE12
:102AEE00F0E00E9492270E9499270E94AA280E9435
:102AFE00C1280BC2E137A0E0FA0769F4E4EDF0E07B
:102B0E000E9492270E9499270E94FF280E94C128A6
:102B1E000E94E32700C2E237A0E0FA0779F4EAE464
:102B2E00F0E00E9492270E94AF270E9402290E9485
:102B3E00EB28AFE0B0E00E94E327EDC1E337A0E061
:102B4E00FA0769F4E6E7F0E00E9492270E94052951
:102B5E00ACE9B1E00E94E6270E94E327DCC1E4372E
:102B6E00A0E0FA0759F4E2E9F0E00E9492270E94F1
:102B7E0099270E944328A6E9B1E0C1C1E537A0E03C
:102B8E00FA0759F4EAE1F1E00E9492270E94992790
:102B9E000E94FF280E94C128B8C1E637A0E0FA07BC
:102BAE0059F4E6E5F0E00E9492270E94AF270E94BA
:102BBE0002290E94C128A9C1E737A0E0FA0759F4FB
:102BCE00E2E7F0E00E9492270E940529ACE9B1E00D
:102BDE000E94E6279AC1E837A0E0FA0759F4E0ED23
:102BEE00F0E00E9492270E9499270E9443280E949B
:102BFE004A2891C1E937A0E0FA0769F4E8E4F0E069
:102C0E000E9492270E94AF270E9402290E94C1288B
:102C1E000E94E32780C1EA37A0E0FA0759F4EAE9F7
:102C2E00F0E00E9492270E9499270E94C4280E94D9
:102C3E004A2871C1EB37A0E0FA0769F4E6E4F0E048
:102C4E000E9492270E94AF270E940C290E941129F0
:102C5E000E94E32760C1EC37A0E0FA0789F4E0EEAA
:102C6E00F0E00E9492270E941A29A5E1B0E00E948E
:102C7E00DD280E94EB28A3E1B0E00E94E3274BC1C0
:102C8E00ED37A0E0FA0759F4E8E3F0E00E9492274E
:102C9E000E9499270E94C4280E94C12836C1EE378F
:102CAE00A0E0FA0759F4EAECF0E00E9492270E94A5
:102CBE0099270E94C428A6E9B1E021C1EF37A0E010
:102CCE00FA0759F4EEEDF0E00E9492270E94AF272A
:102CDE000E940C290E94112918C1E038A0E0FA07C1
:102CEE0069F4E6E1F1E00E9492270E94AF27E5E742
:102CFE00F5E00E94C8270E94212907C1E138A0E013
:102D0E00FA0779F4E8EEF0E00E9492270E941A2961
:102D1E000E942829A9E9B1E00E9421290E94E327F7
:102D2E00FAC0E238A0E0FA0769F4E2EFF0E00E94A0
:102D3E0092270E942B290E94EB280E94AF270E9407
:102D4E00C327E9C0E338A0E0FA0749F4E8E0F1E070
:102D5E000E9492270E949927AFE1B0E0CAC0E438E2
:102D6E00A0E0FA0759F4E4E6F0E00E9492270E94F0
:102D7E0099270E94AA280E946728CDC0E538A0E0B6
:102D8E00FA0769F4E8E8F0E00E9492270E941A29F7
:102D9E000E942829A9E9B1E00E942129B6C0E6388F
:102DAE00A0E0FA0759F4EEE0F1E00E9492270E94AB
:102DBE002B290E94EB28A0E1B0E0A7C0E738A0E0E5
:102DCE00FA0759F4E4E5F0E00E9492270E94992751
:102DDE000E94FC280E9467289EC0E838A0E0FA07EF
:102DEE0079F4EEE3F0E00E9492270E94AF27E5E728
:102DFE00F5E00E9428290E943229A0E1B0E085C0AA
:102E0E00E938A0E0FA0759F4ECE0F0E00E949227CE
:102E1E000E9499270E944D280E94E3277CC0EA3821
:102E2E00A0E0FA0759F4ECEDF0E00E9492270E9420
:102E3E00AF27E5E7F5E00E94A02767C0EB38A0E0DA
:102E4E00FA0759F4E8E5F0E00E9492270E949927CC
:102E5E000E94FF28A6E9B1E052C0EC38A0E0FA07C4
:102E6E0079F4ECE3F0E00E9492270E94AF270E94D3
:102E7E000C290E9432290E94AF270E94C3274BC003
:102E8E00ED38A0E0FA0749F4EEE0F0E00E94922758
:102E9E000E9499270E944D2838C0EE38A0E0FA070C
:102EAE0069F4EAE0F1E00E9492270E94AF27E5E77D
:102EBE00F5E00E94A0270E94E3272DC0EF38A0E086
:102ECE00FA0759F4E2E2F0E00E9492270E94992755
:102EDE000E94FF280E944A281EC0E039A0E0FA078F
:102EEE0069F5E6E6F0E00E9492270E949927ACE190
:102EFE00B0E0A083B183E7E7F5E0ACE9B1E0A083F1
:102F0E00B183EBE7F5E0A2E1B0E0A083B183EFE798
:102F1E00F5E0A1E0B0E0A083B1830E94392931969B
:102F2E00E0936F05F09370050E943E29E0937105C2
:102F3E00F09372050E9443290E944829A0918505AD
:102F4E00B0918605D29739F40E9457293597E093B0
:102F5E007305F0937405A0918705B0918805D297FB
:102F6E0049F4E0917B05F0917C053597E0937B0564
:102F7E00F0937C050E945C290E946129E2E3F0E057
:102F8E000E94602DE02139F00E94432970960E9424
:102F9E006B290E9448290E945C290E9470290E2EDE
:102FAE00A0918B05B0918C050E94752939F00E9475
:102FBE004329B0960E946B290E9448290E945C29E1
:102FCE000E9461290E94752939F00E944329F096CA
:102FDE000E946B290E944829229608950E947B29FF
:102FEE000E9480290E9487290E946E040E948C29CB
:102FFE000E949129E0E9F0E00E9494290E9498290C
:10300E000E948029E0E0F0E00E949429E09185057D
:10301E00F09186050E949129E0E5F0E00E94942946
:10302E00E0918705F09188050E9491290E949D29C3
:10303E00E0918905F0918A050E9480290E94A029BD
:10304E00E0918B05F0918C050E949129E0E7F0E06C
:10305E000E9494290895929A0E94A3290E943927CA
:10306E000E94A929EF930E94AF290E94A929AF912E
:10307E00EA2BEF930E94B9290E94A929AF91EA2B5E
:10308E00EF930E94B9290E94C329AF91EA2B11F444
:10309E000C94F2180E944327E0EEF5E00E948F2771
:1030AE000E94C929E0EEF5E00E94D8290E94A329CA
:1030BE000E9439270E94EC03E03041F40E9443271E
:1030CE00EFEFF5E00E948F270E94A3290E94AF29FF
:1030DE000E94EC03E03041F40E94C929EEE1F6E0D3
:1030EE000E94D8290E94A3290E94B9290E94EC03AC
:1030FE00E03041F40E944327EDE3F6E00E948F2773
:10310E000E94A3290E94B9290E940304E03041F4D1
:10311E000E94C929ECE5F6E00E948F270E94A329A0
:10312E000E94E5290E940304E13009F4979A0E9457
:10313E00E5290E94EF29EF930E94E5290E94C329F9
:10314E00AF91EA2BEF930E9439270E94F529AF9198
:10315E00EA2BEF930E94AF290E94F529AF91EA2B3B
:10316E00C9F1979A0E94E5290E94FC03E13041F4CF
:10317E000E944327EBE7F6E00E948F270E94A329C7
:10318E000E94E5290E940304E13041F40E94432786
:10319E00EDE8F6E00E948F270E94A3290E943927AE
:1031AE000E94F603E13041F40E944327EFE9F6E076
:1031BE000E948F270E94A3290E94AF290E94F60326
:1031CE00E13041F40E944327E1EBF6E00E948F27A5
:1031DE000E94A32943CF0E944327E3ECF6E00E940E
:1031EE008F270E94C929E3ECF6E00E94D829929815
:1031FE000E94A32908950E94AF290E94FC03A0E01B
:10320E000E945B2DEF930E94AF290E940304A0E061
:10321E000E945B2DAF910E94FB290E94022AE021A1
:10322E0031F0E1E0F0E0E0936905F0936A050E9469
:10323E00AF290E94EF29EF930E94AF290E94C32964
:10324E00AF910E94FB290E947029E02131F0E2E04B
:10325E00F0E0E0936905F0936A050E94072AE1E029
:10326E000E945B2DE02119F01E980E94142A0E94E4
:10327E00072AE0E00E945B2DE02119F01E9A0E94C1
:10328E00142A08951A930A93A0912105B09122054C
:10329E008091230590912405AD33E0E0BE07E0E078
:1032AE008E07E0E09E0714F40C94AB190E941F2ABF
:1032BE00F501D4010E94722DEF930E945D270E94AA
:1032CE00E003A1E00E945B2DEF930E945D270E9418
:1032DE00E303A1E00E945B2DAF91EA2BEF930E94D6
:1032EE005D270E94E703A1E00E945B2DAF91EA2BC0
:1032FE00EF930E945D270E94A929AF91EA2BEF93CD
:10330E000E945D270E94F203A1E00E945B2DAF9107
:10331E00EA2BEF930E945D270E94F529AF91EA2BCD
:10332E00EF930E945D270E94EF29AF91EA2BEF9356
:10333E000E945D270E94C329AF91EA2BAF91EA2329
:10334E0019F0F40131964F01A814B90411F50E9439
:10335E003C058F010E941F2AF40131964F01E1E0D6
:10336E00F0E0E017F10741F4E2E0F0E00E9491296D
:10337E000E9470270E946E04E2E0F0E0E017F10771
:10338E0041F4E1E0F0E00E9491290E9470270E9432
:10339E006E04F5013196E815F90511F48824992487
:1033AE000991199108950E9439270E94F603E13080
:1033BE0009F4979AE0913505F0913605309711F0A2
:1033CE000C942E1A0E94292AE881E0930905E170D7
:1033DE0011F4D89801C0D89AE0910905E27011F461
:1033EE00D99801C0D99AE0910905E47011F4DA98E0
:1033FE0001C0DA9AE0910905E87011F4DB9801C07A
:10340E00DB9AE0910905E07111F4DC9801C0DC9AB9
:10341E00E0910905E07211F4DD9801C0DD9AE091AA
:10342E000905E07411F4DE9801C0DE9AE0910905F9
:10343E00E07811F4DF9801C0DF9AA881B981A0303D
:10344E00E1E0BE070CF0949AE1E0F0E047C0E13015
:10345E00A0E0FA0789F4A0911105B09112058091B0
:10346E001305909114050E94332A2CF0939AE2E0F2
:10347E00F0E00E943B2A36C0E230A0E0FA0789F461
:10348E000E9439270E94E003E03051F49398E0E067
:10349E00EBBB94980E94292AE3E0F0E00E943B2ABD
:1034AE0021C0E330A0E0FA0769F40E9439270E9498
:1034BE00EC03E03031F40E94292AE4E0F0E00E94AF
:1034CE003B2A10C0E430A0E0FA0761F40E943927CD
:1034DE000E94E003E13031F4E5E0F0E0E0933505E1
:1034EE00F0933605E0913505F091360502C20E9443
:1034FE00AF290E94F603E13009F4979AE09139055D
:10350E00F0913A05309711F00C94D21A0E94402A8D
:10351E00E881E0930A05E17011F4A89801C0A89A19
:10352E00E0910A05E27011F4A99801C0A99AE09100
:10353E000A05E47011F4AA9801C0AA9AE0910A054E
:10354E00E87011F4AB9801C0AB9AE0910A05E071F6
:10355E0011F4AC9801C0AC9AE0910A05E07211F436
:10356E00AD9801C0AD9AE0910A05E07411F4AE98E1
:10357E0001C0AE9AE0910A05E07811F4AF9801C04F
:10358E00AF9AA881B981A030E1E0BE070CF0959A00
:10359E00E1E0F0E047C0E130A0E0FA0789F4A09145
:1035AE001905B0911A0580911B0590911C050E947A
:1035BE00332A2CF0969AE2E0F0E00E944A2A36C0B6
:1035CE00E230A0E0FA0789F40E94AF290E94E003DE
:1035DE00E03051F49698E0E0E5BB95980E94402AC1
:1035EE00E3E0F0E00E944A2A21C0E330A0E0FA07AF
:1035FE0069F40E94AF290E94EC03E03031F40E947E
:10360E00402AE4E0F0E00E944A2A10C0E430A0E034
:10361E00FA0761F40E94AF290E94E003E13031F411
:10362E00E5E0F0E0E0933905F0933A05E0913905D5
:10363E00F0913A055EC10E94E5290E940304E13033
:10364E0009F4979AE0913705F0913805309711F00B
:10365E000C94761BE881E0930705E1700E2EE09145
:10366E000005EE7F0E944F2AE695E170EE0F0E2EBA
:10367E00E0910005ED7F0E944F2AE695E695E170F8
:10368E00EE0FEE0F0E2EE0910005EB7F0E944F2AFB
:10369E00E695E695E695E170EE0FEE0FEE0F0E2E27
:1036AE00E0910005E77F0E944F2AE295E170E795D1
:1036BE00E0E0E7950E2EE0910005EF77E0290E94FD
:1036CE00552AE0910705E07211F4C79801C0C79A18
:1036DE000E945A2AE1E0F0E00E94642A76C0E130AE
:1036EE00A0E0FA07A9F4A0911505B09116058091F6
:1036FE001705909118050E94332A4CF0E0910005B1
:10370E00E0620E94552AE2E0F0E00E94642A5DC069
:10371E00E230A0E0FA0721F50E94B9290E94E003E9
:10372E00E030E9F4E0910005EF7D0E94552AE0912A
:10373E000005EE7F0E94692AED7F0E94692AEB7FC9
:10374E000E94692AE77F0E94692AEF770E94552A14
:10375E00C7980E945A2AE3E0F0E00E94642A35C01E
:10376E00E330A0E0FA0769F40E94B9290E94EC0345
:10377E00E03031F40E945A2AE4E0F0E00E94642A1C
:10378E0024C0E430A0E0FA0701F50E94B9290E9496
:10379E00E003E130D1F4E5E0F0E00E94642AE0912C
:1037AE004505F0914605309739F4E1E0F0E0E093FD
:1037BE004505F093460509C0E130A0E0FA0729F46B
:1037CE00E0E0E0934505E0934605E0913705F09182
:1037DE0038058FC00E94E5290E94FC03E13009F4F0
:1037EE00979AE0913B05F0913C05309781F5E88181
:1037FE00E0930805E17011F4C09801C0C09AE09101
:10380E000805E27011F4C19801C0C19AE091080553
:10381E00E47011F4C29801C0C29AE0910805E870F4
:10382E0011F4C39801C0C39AE0910805E07111F438
:10383E001C9801C01C9AE0910805E07211F41D98C5
:10384E0001C01D9A0E946C2AE1E0F0E04AC0E1300E
:10385E00A0E0FA0789F4A0911D05B0911E05809194
:10386E001F05909120050E94332A2CF0C59AE2E0A4
:10387E00F0E00E94762A39C0E230A0E0FA07A1F407
:10388E000E94B9290E94F203E03069F4C598C098ED
:10389E00C198C298C3981C981D980E946C2AE3E0A8
:1038AE00F0E00E94762A21C0E330A0E0FA0769F426
:1038BE000E94B9290E940304E03031F40E946C2A60
:1038CE00E4E0F0E00E94762A10C0E430A0E0FA07AF
:1038DE0061F40E94B9290E94F203E13031F4E5E06F
:1038EE00F0E0E0933B05F0933C05E0913B05F09151
:1038FE003C052296089524970E94A12DE0E0EE83C8
:10390E00EF83E0E3F0E00E9491290E940B048F0107
:10391E000E947B2A0E940B04AF01E1E0F0E0E01769
:10392E00F10711F00C943A1DEE81FF81309739F4B6
:10393E000E947E2AE1E0F0E0EE83FF8393C0E13047
:10394E00A0E0FA07D1F40E94902A159724F40E9461
:10395E00952A0E949A2A0E949D2A159724F40E9465
:10396E00952A0E94A22A0E94A52A31F00E94B22A0C
:10397E00E2E0F0E0EE83FF8375C0E230A0E0FA07EC
:10398E00C1F40E94BC2A159724F40E94C12A0E94F9
:10399E00C62A0E94C92A159724F40E94C12A0E94A1
:1039AE00CE2A0E94D12A21F00E947E2A0E94DE2A6F
:1039BE0059C0E330A0E0FA07B1F50E94902A15979E
:1039CE0024F40E94E32A0E949A2A0E949D2A1597A7
:1039DE0024F40E94E32A0E94A22A0E94A52A11F131
:1039EE000E94B22AE0E3F0E00E9491290E940B04AB
:1039FE00E887F987309719F40E94E82A13C0E1305E
:103A0E00A0E0FA0719F40E94DE2A0CC0E230A0E012
:103A1E00FA0741F40E94E82AE1E0F0E0E093810524
:103A2E00F09382051FC0E430A0E0FA07D9F40E949B
:103A3E00902A159724F40E94952A0E949A2A0E9491
:103A4E009D2A159724F40E94952A0E94A22A0E946C
:103A5E00A52A41F00E947E2AE5E0F0E0EE83FF8386
:103A6E0000E010E05ACF0E947B2A0E940B04AF01A7
:103A7E00E0E0EE83EF83E1E0F0E0E417F50711F00C
:103A8E000C94E61DEE81FF81309739F40E947E2A58
:103A9E00E1E0F0E0EE83FF8391C0E130A0E0FA07B1
:103AAE00D1F40E94902A159724F40E94952A0E9420
:103ABE009A2A0E949D2A159724F40E94952A0E9404
:103ACE00A22A0E94A52A31F00E94B22AE2E0F0E07A
:103ADE00EE83FF8373C0E230A0E0FA07C1F40E94C8
:103AEE00BC2A159724F40E94C12A0E94C62A0E945D
:103AFE00C92A159724F40E94C12A0E94CE2A0E9438
:103B0E00D12A21F00E947E2A0E94DE2A57C0E3307D
:103B1E00A0E0FA07A1F50E94902A159724F40E94BE
:103B2E00E32A0E949A2A0E949D2A159724F40E9445
:103B3E00E32A0E94A22A0E94A52A01F10E94B22A1B
:103B4E000E947B2A0E940B049F01F901309719F401
:103B5E000E94E82A13C0E130A0E0FA0719F40E948F
:103B6E00DE2A0CC0E230A0E0FA0741F40E94E82AF7
:103B7E00E1E0F0E0E0938305F09384051FC0E430AC
:103B8E00A0E0FA07D9F40E94902A159724F40E9417
:103B9E00952A0E949A2A0E949D2A159724F40E9423
:103BAE00952A0E94A22A0E94A52A41F00E947E2AEE
:103BBE00E5E0F0E0EE83FF8340E050E05CCF0E9452
:103BCE00A82D2A960895E0E0EBBBEFEFEABBE0E00C
:103BDE00E8BBEFEFE7BBE0E0E5BBEFEFE4BBE0E017
:103BEE00E2BBEFEFE1BBE0E0E3B9EFEFE2B9E0E01B
:103BFE00E0936200EFEFE0936100E0E0E093650098
:103C0E00EFE1E0936400E0E0E0BFE7E0E3BFE0E077
:103C1E00E2BFE1BFEFBDEEBDEDBDECBDE7BDE6BD64
:103C2E00EBBDEABDE9BDE8BDE0937900E093780015
:103C3E00E5BDE4BDE3BDE0938B00E0938A00E09325
:103C4E008900E0938800E0938100E0938000E09388
:103C5E008700E0938600E0938500E0938400E09374
:103C6E008300E0938200E0936A00EABFE9BFE1E0DF
:103C7E00E7BFE0E0E0937D00EBB9E8E1EAB9E6E00A
:103C8E00E0939500E0E0E0939000E8E0E9B9E0E031
:103C9E00E0939A00E0E8E8B9E0E0E0BDE6B9EDB9FE
:103CAE00E09374000E94F02C78940E94ED2A0E94FA
:103CBE00ED2A0E94ED2A0E94ED2A0E94CE26E3E014
:103CCE00EA930E945825E0E8EA930E945825E2E024
:103CDE00EA930E945825E0E1EA930E945825E1E01C
:103CEE00F0E05F01CC24DD24E4E0F0E0E093470552
:103CFE00F0934805E0935305F0935405E093570570
:103D0E00F09358050E94F32AE0E0E0936505E093F6
:103D1E0066050E94FA2A0E94002B689420F821F86A
:103D2E001E9A22F8E7EBF0E0E0936B05F0936C053A
:103D3E00E4E6F0E0E0938505F0938605E0938705D1
:103D4E00F0938805E1E0F0E0E0938905F0938A05B1
:103D5E00E2E3F0E0E0938B05F0938C05E0E5F0E014
:103D6E00E0933D05F0933E05E0E0E0933F05E093E0
:103D7E004005E0E4F0E0E0934105F0934205E0E019
:103D8E00E0934305E093440529D965D90E941D05AA
:103D9E0079DA0E94952A0E9487290E940B046F01EE
:103DAE000E94952A0E9470270E94062B0E940F2BBC
:103DBE0022DAA1DDD6010E9470290E94162BE1E0C5
:103DCE00F0E00E94782D0E220E941C2BE1E0F0E024
:103DDE000E94662D0E22E0910D05F0910E050E94B7
:103DEE00212BE0211E2E0E94262B0E2E0E941C2B14
:103DFE000E94022AE029E1210E2EA0916505B091C4
:103E0E0066050E947029E02911F40C943D25E0917D
:103E1E004B05F0914C05309711F00C94E31FC69AA8
:103E2E00E0916505F0916605309711F00C94901FA6
:103E3E000E94952A0E94952A0E94A0290E94952AE6
:103E4E000E94952A0E949D290E94952A0E94702701
:103E5E000E94062B0E940F2B0E942B2B0E9487295B
:103E6E000E940B04E0934705F09348050E946B27D0
:103E7E00E0E9F0E00E94302BE0935705F0935805EF
:103E8E000E942B2B0E94952A0E940B04E09353054F
:103E9E00F09354050E946B27E0E5F0E00E94302B72
:103EAE00E0938505F09386050E946B27E0E6F0E02F
:103EBE000E94302BE0938705F09388050E942B2BF0
:103ECE00E0E1F0E00E94302BE0938905F0938A0543
:103EDE000E946B27E0E7F0E00E94302BE0938B0509
:103EEE00F0938C050E94342B0E2E0E94262BE0217F
:103EFE0039F00E943A2BE0933305F093340505C058
:103F0E00E0E0E0933305E09334050E943F2B0E94DE
:103F1E003D0FE1E0F0E0E0936505F09366050E9449
:103F2E00442B119789F41E980E94BC2A159724F4ED
:103F3E000E94492B0E94C62A0E94C92A159724F472
:103F4E000E94952A0E94CE2A0E94442B129789F431
:103F5E0099D90E94BC2A159724F4E8E0F0E00E945B
:103F6E004E2B0E94C92A159724F40E943F2B0E94C3
:103F7E00CE2A0E94D12AF9F00E94442B129751F4B6
:103F8E001E9902C038D9FCCFE8EBFBE0FA93EA9316
:103F9E000E94422D0E947E2A0E94002B0E94512BCD
:103FAE000E94952A0E9487290E94572B21F4E1E056
:103FBE00F0E00E94632B59C5E130A0E0FA0711F042
:103FCE000C942A200E94682B0E947029E02129F06F
:103FDE001F9A0E9439290E946F2B0E94682B0E9403
:103FEE00722B41F01F9A4ED9E0916F05F09170053A
:103FFE000E946F2B0E94782B0E94722D0E947C2BA8
:10400E00E02121F00E943F2B0E94A22A0E94832BC6
:10401E000E94602D0E2E0E94782B0E94602DE021B2
:10402E0089F00E94872B0E948D2B0E94972B0E9455
:10403E00952A0E9487290E94572B21F4E2E0F0E096
:10404E000E94632B12C5E230A0E0FA07F1F40E9441
:10405E00442B129709F416D90E949D2A159714F431
:10406E000E949C2B0E949D2A159771F41A9A0E9409
:10407E00A32B0E94952A0E9487290E94572B21F478
:10408E00E3E0F0E00E94632BF0C4E330A0E0FA0717
:10409E00A9F50E94442B129709F4F4D80E949D2A88
:1040AE00159734F40E945729FA93EA930E94A22A94
:1040BE000E94782B0E94A92B01F10E94B52B0E9421
:1040CE00A32B0E94BD2BEA17FB0761F40E94952AD1
:1040DE000E9487290E94572B21F4E4E0F0E00E9411
:1040EE00632B0BC00E94952A0E9487290E94572B92
:1040FE0021F4E2E0F0E00E94632BB7C4E430A0E0CC
:10410E00FA0719F50E94442B129709F4BBD80E94A6
:10411E009D2A159724F40E943F2B0E94A22A0E94EA
:10412E009D2A159789F41A980E94A32B0E94952A0E
:10413E000E9487290E94572B39F4E0E0E0934F0547
:10414E00E09350050E94C32B90C4E530A0E0FA071F
:10415E0011F00C945C210E94C62B0E94D12BE02101
:10416E0021F00E94952A0E94C62A0E94C62B0E9408
:10417E00D42B21F00E943F2B0E94C62A0E94442B72
:10418E00129711F40E9449190E94D72B0E94602D9C
:10419E000E94DB2B0E94022AE02141F00E94872B15
:1041AE00E1E0F0E0E0934F05F09350050E94D72B2D
:1041BE000E94E12B0E9470290E94D12BE02121F058
:1041CE000E9439290E944E2B0E94D72B0E94E12B70
:1041DE000E9470290E94D42B31F0E0916F05F0916E
:1041EE0070050E944E2B0E94D72B0E94E12B0E943D
:1041FE00722B21F0E3E0F0E00E944E2B0E94832B05
:10420E000E94E42B0E94022AE02121F0E3E0F0E07C
:10421E000E946F2B0E94832B0E94E42B0E94702918
:10422E000E94D12BE02121F0E8E0F0E00E946F2BFC
:10423E000E94832B0E94E42B0E9470290E94D42B93
:10424E0021F00E94492B0E94CE2A0E94D72B0E9459
:10425E00602D0E947C2B0E22A0914F05B09150052F
:10426E000E947029E0211E2E0E94D72B0E94602DE5
:10427E000E947C2B0E22A0914F05B09150050E94FA
:10428E00722BE12989F00E94872B0E948D2B0E94B0
:10429E00EC2B0E94952A0E9487290E94572B21F40D
:1042AE00E6E0F0E00E94632BE0C3E630A0E0FA0700
:1042BE0011F00C94B6210E94902A159724F40E94B6
:1042CE003E290E94F12BA0916105B09162051197D4
:1042DE0021F4E5E0F0E00E94762A0E949D2A1597CF
:1042EE0014F40E949C2B0E94442B129711F40E94EE
:1042FE0049190E94782B0E94602D0E2E0E94F42BDD
:10430E000E94602DE02151F10E94F82B0E2E0E948A
:10431E00442B0E947029E0211E2E0E94042C0E2E8A
:10432E000E94442B0E94722BE12909F01A9A1B9AC3
:10433E000E94B22A0E940D2C0E94982D24F40E94F5
:10434E00122C0E941C2C0E94952A0E9487290E94E2
:10435E00572B21F4E7E0F0E00E94632B86C3E73091
:10436E00A0E0FA0769F50E94BC2A159724F40E9472
:10437E0043290E944E2B0E94442B129711F40E9447
:10438E0049190E94BC2A1597D1F40E94872BE8E0A8
:10439E00F0E00E94632BE0E00E94972BE0E0E093B8
:1043AE005105E0935205E0935B05E0935C05E093C5
:1043BE005D05E0935E05E0935F05E093600555C3F0
:1043CE00E830A0E0FA0711F00C94ED220E94202CA8
:1043DE0014F40E94312C0E94442B129711F40E9467
:1043EE0049190E94D72B0E94722D0E94352CE02174
:1043FE0031F0E0917905F0917A050E944E2B0E94E2
:10440E00D72B0E94602D0E94352CE02131F00E94A6
:10441E00872BA1E5B5E00E94432C0E949829A0911C
:10442E005105B09152050E94492C0E94022AE021AA
:10443E0041F00E94872BE1E0F0E0E0935B05F09302
:10444E005C05A0916105B0916205119721F4E5E03C
:10445E00F0E00E94762A0E94782B0E94512C0E9436
:10446E00022AE02131F00E945729FA93EA930E9422
:10447E00A22A0E94782B0E94A92BE1F0E0916105FF
:10448E00F0916205309711F40E94A32BE0915F0525
:10449E00F0916005309749F40E94B52BE1E0F0E011
:1044AE00E0935F05F093600505C0E0E0E0935F05E3
:1044BE00E09360050E94F42B0E94592C0E94022A60
:1044CE00E02131F0E0917B05F0917C050E94F12B0B
:1044DE000E94F42B0E94602D0E2E0E94612C0E94D1
:1044EE00722DE021C9F0E0E00E94EC2BE0915D0519
:1044FE00F0915E05309759F4A5E5B5E00E94432C86
:10450E00E1E0F0E0E0935D05F0935E0505C0E0E0CC
:10451E00E0935D05E0935E050E94F42B0E94592CFA
:10452E000E947029E02121F00E943E290E94F12B69
:10453E000E94782B0E94512C0E947029E02111F0CC
:10454E000E949C2B0E94D72B0E94722D0E2EA091A2
:10455E005B05B0915C050E947029E02131F0E0917D
:10456E007D05F0917E050E944E2B0E94D72B0E9456
:10457E00492C0E9470290E220E94BD2B0E94602D94
:10458E000E220E94612C0E94602D0E220E94F42B9E
:10459E000E94602D0E220E94782B0E94602DE02139
:1045AE00A1F00E947E2AE0E00E94972BE0E0E093CB
:1045BE005505E0935605E0935105E09352050E9490
:1045CE00312CE9E0F0E00E94632B4FC2E930A0E00D
:1045DE00FA0711F00C9476230E94442B119771F573
:1045EE000E94F42B0E94722D0E2E0E94F82BE021B9
:1045FE0021F00E943F2B0E949A2A0E94782B0E9443
:10460E00672C0E946F2C21F00E943F2B0E94A22A41
:10461E000E94F42B0E94672C0E94752C21F00E94A0
:10462E00952A0E949A2A0E94782B0E94672C0E943B
:10463E007B2C21F00E94952A0E94A22A0E94442BD4
:10464E001297A1F50E94F42B0E94722D0E2E0E943D
:10465E00042CE02121F00E943F2B0E949A2A0E94F6
:10466E00782B0E94812C0E946F2C21F00E943F2BF0
:10467E000E94A22A0E94F42B0E94812C0E94752C6B
:10468E0021F00E94952A0E949A2A0E94782B0E945D
:10469E00812C0E947B2C21F00E94952A0E94A22A36
:1046AE000E94442B129711F40E9449190E94A52AC8
:1046BE00A9F01A981B980E94A32BE0E00E94EC2B05
:1046CE00A9E5B5E00E94432CE2E0F0E0E0934F054F
:1046DE00F0935005EAE0F0E00E94632BC6C1EA3089
:1046EE00A0E0FA0711F00C94EF230E94442B0E94D5
:1046FE0070290E94852C59F10E94902C0E94A029AD
:10470E000E94972CAE17BF0724F40E94C32B0E9461
:10471E00512B0E94972CEA17FB0721F40E94C32B02
:10472E000E949D2C0E94A42C0E94752921F0EBE082
:10473E00F0E00E94632B0E94A42CEAE0F0E00E94BD
:10474E00662DE02121F0EEE0F0E00E94632B0E9446
:10475E00442B129711F40E9449190E94442BE2E057
:10476E00F0E00E94602D0E94852C89F10E94902C11
:10477E000E949D290E943A2B31970E940D2CAE1754
:10478E00BF0724F40E94C32B0E94512B0E943A2B88
:10479E0031970E940D2CEA17FB0721F40E94C32BC0
:1047AE000E949D2C0E94AC2C0E94752921F0ECE0F9
:1047BE00F0E00E94632B0E94AC2CEAE0F0E00E9435
:1047CE00662DE02121F0EEE0F0E00E94632B4DC15A
:1047DE00EB30A0E0FA0701F50E94442B129711F47A
:1047EE000E9449190E94BC2A159724F4E7E0F0E0D4
:1047FE000E944E2B0E94C92A159724F4E0E9F1E09D
:10480E000E946F2B0E94D12A31F00E941C2C0E9414
:10481E00872B0E94B22C29C1EC30A0E0FA0701F5DB
:10482E000E94442B129711F40E9449190E94BC2A2F
:10483E00159724F4E7E0F0E00E944E2B0E94C92A5F
:10484E00159724F4E1E9F1E00E946F2B0E94D12A22
:10485E0031F00E941C2C0E94872B0E94B22C05C1A5
:10486E00ED30A0E0FA07F1F40E94442B129711F4F8
:10487E000E9449190E94C92A159724F4E2E9F1E031
:10488E000E946F2B0E94C92A159759F40E94312C51
:10489E00E0E0E0933905E0933A05E0E1F0E00E94B4
:1048AE00632BE3C0EE30A0E0FA07D9F40E94442B4C
:1048BE00129711F40E9449190E94BC2A159724F4EC
:1048CE00E3E0F0E00E944E2B0E94BC2A159741F4C3
:1048DE000E94872B0E94122CEFE0F0E00E94632BC7
:1048EE00C4C0EF30A0E0FA0791F40E94442B129757
:1048FE0011F40E9449190E941C2C0E94202C34F4A1
:10490E000E94312CE0E1F0E00E94632BAEC0E0315A
:10491E00A0E0FA0711F00C941825E0913105F09102
:10492E0032050E940D2C0E94602D0E2E0E94BA2C74
:10493E000E94022AE02111F10E94002B1F980E9472
:10494E001C2B0E94982D84F4E2E0F0E0E0936305C6
:10495E00F09364050E94E32A0E943D0FE0E0E0938D
:10496E004B05E0934C0504C0E1E1F0E00E94632B9F
:10497E00E1E0F0E0E0936705F09368050E943A2BC2
:10498E000E940D2C0E94602D0E2E0E94342B0E22A2
:10499E000E94BA2C0E947029E02179F01F980E9483
:1049AE00002BE1E1F0E00E94632B0E94F32AE2E08B
:1049BE00F0E0E0936705F09368050E94BF2C0E941B
:1049CE00342B0E220E94BA2C0E94722B71F00E9480
:1049DE00F32A0E94FA2A1F98C6980E94952A0E94CE
:1049EE00952A0E9487290E946E040E94BF2C0E9465
:1049FE001C2B0E94022A0E220E94BA2C0E947029A1
:104A0E00E02171F00E94F32A0E94FA2A1E9AC6989B
:104A1E000E94952A0E94952A0E9487290E946E0460
:104A2E0024C0E131A0E0FA0701F50E94BC2A1597D7
:104A3E0024F40E94492B0E94C62A0E94C92A159767
:104A4E0024F40E94952A0E94CE2A0E94D12A69F04F
:104A5E000E947E2AE0E0E0936505E0936605CC2493
:104A6E00DD24E0934B05E0934C05A4C991C9FFCF1B
:104A7E00A991B991EE27FF276D91662311F031961A
:104A8E00FBCF0895AA27BB27E991F9910590002045
:104A9E0011F01196FBCFFD0108955F9BFECFECB197
:104AAE0008955D9BFECFE881ECB921960895EA81C9
:104ABE00EA93F7DFA881B9810E94432C23960895CB
:104ACE0026970E94A12D10E0AC85BD850E948A27F5
:104ADE00EA89FB893196EA8BFB8B3197E4912E2F75
:104AEE00E03011F40C949226E12FE03039F42532A7
:104AFE0011F411E002C00E94C92C0CC1E130A9F4DE
:104B0E00253219F40E94C92C04C112E040E000E0E5
:104B1E002D3211F401E0FEC02B3211F44BE2FAC03B
:104B2E00203211F440E2F6C002C0E23039F450E017
:104B3E0013E0203311F40068EDC004C0E33011F02F
:104B4E000C949126203310F02A3308F007C0AAE007
:104B5E005A9F502DE22FE0535E0FDCC0E22FE3365A
:104B6E0049F40E94D22CE889F989A481AA930E9463
:104B7E00D82CCFC0E33741F40E94D22C0E94E02CF7
:104B8E000E943F251E2F0AC0E03761F40E94D22CEE
:104B9E000E94E02C0E9449251E2F086002600F77AC
:104BAE0030E035C0E43611F0E93611F4046002C08D
:104BBE00E53731F4ECE8F0E0EE83FF8315E00DC04D
:104BCE00E83511F4086004C0E83711F00C94902613
:104BDE00E6E9F0E0EE83FF8314E002FF14C00E94CA
:104BEE00D22C0E94E82CAB85AA233AF4EA85FB85E9
:104BFE000E94522DEA87FB874DE2403011F01F5F75
:104C0E0001C00B7F04C00E94D22C0E94E82C00FD34
:104C1E0011C0151778F407FF08C002FF04C00B7F00
:104C2E00242F115001C020E301C020E20E94C92CA4
:104C3E005150EFCF312F01FF17C03030A1F003FFDD
:104C4E0006C0EE81FF812591EE83FF8305C0AE8104
:104C5E00BF812D91AE83BF830E94C92C503009F0C5
:104C6E0051503150EACF4BC020E3EE81FF810E94BC
:104C7E008C2DE887F987EE81FF813296EE83FF83D4
:104C8E00E885F985AA85BB85AE17BF0750F02F5F63
:104C9E00A885B985EA85FB85EA1BFB0BEA87FB87AE
:104CAE00EFCF2A3328F003FF02C0295F01C0295D30
:104CBE0004FD1AC0213320F4A885B985119709F493
:104CCE0009C0531710F000FF01C013C020E207FF08
:104CDE000BC020E3006102FF07C00B7F4A930E94C6
:104CEE00D82C503009F051500E94C92C503009F088
:104CFE0051503150A885B985129708F0B5CF00FFF5
:104D0E0008C0503031F05150E0E2EA930E94D82CA6
:104D1E00F8CF10E0DDCEAC85BD850E947E2D0E94C1
:104D2E00A82D64960895FF92F82E26971A930A934B
:104D3E00DE0114960E944E2D8D01E0E0EC83ED8392
:104D4E00EE83EF83DE0118960E944E2D0E947E2D7B
:104D5E000E947527EEE5F5E2FA93EA93FE01389686
:104D6E00FA93EA93ADDE198108812896FF90089593
:104D7E000E94F52CE881EA930E94292DE0E0EA9347
:104D8E000E940E2DEA830E94042DEA810895EAE521
:104D9E00EA930E945825E5EAEA930C945825EA9383
:104DAE000E945825EC81EA930E945825EA81EA93E5
:104DBE000C9458250E9454250E9454250C94542579
:104DCE000E94822DEF5FFF4F6F4F7F4F0E94872D06
:104DDE000895EE81FF81FA93EA9308950E94582573
:104DEE00E2E8EA930C945825AC85BD85E1E0F0E04D
:104DFE000E94602D0E2E0895ABE0B5E0EE0FFF1F62
:104E0E00AE0FBF1F0895E0EAF0E0FA93EA93EA8549
:104E1E00FB85FA93EA93EA85FB85FA93EA930C9461
:104E2E005104FA93EA93EA85FB850895FA93EA937F
:104E3E000C945104AA85BB85E1E0F0E00E94602D40
:104E4E00E0210895AA85BB85E0E0F0E00E94602D88
:104E5E00E0210895AC85BD85E2E0F0E00E94602D72
:104E6E000E2E0895E3E0F5E0A1E00E94902DE9E713
:104E7E00F0E0FA93EA930895E0EAF0E0FA93EA9309
:104E8E00E0913D05F0913E05FA93EA93E0913F05DE
:104E9E00F0914005CBCFE0913D05F0913E05FA93A0
:104EAE00EA93E0913F05F0914005C0CFE1E0F5E0D7
:104EBE00A1E00E94902DE3E7F0E0FA93EA930895C3
:104ECE00E029E0930205F2CFE0E2F0E0FA93EA93F4
:104EDE000895E0E8F0E0FA93EA930895FA93EA93DE
:104EEE001A930A930895E1E0F0E0FA93EA930C9492
:104EFE008604E0E0F0E0FA93EA930C948604ED93D6
:104F0E00FC93F80179CFE0E0F0E0ED93FC93089587
:104F1E00FA93EA93C0CFE0936D05F0936E05E3E745
:104F2E00F5E00895A1E1B0E0A083B183E5E7F5E0F7
:104F3E000895ABE1B0E0A083B183E7E7F5E0A6E921
:104F4E00B1E0A083B183EBE7F5E0A1E1B0E0089515
:104F5E00A0E1B0E0A083B1830895E5E7F5E0ACE110
:104F6E00B0E0A083B183E7E7F5E0A0E9B1E0A0836C
:104F7E00B183EBE7F5E00895EFE7F5E0A0E0B0E0F0
:104F8E000895A8E1B0E0A083B183E7E7F5E0A6E9D4
:104F9E00B1E00895A083B183EBE7F5E0A2E1B0E0C4
:104FAE00A083B183E9CFAFE1B0E0A083B183E7E79F
:104FBE00F5E0A6E9B1E00895A083B183DDCFA0832B
:104FCE00B183EBE7F5E0A1E1B0E00895AFE1B0E029
:104FDE00A083B183E7E7F5E0A9E9B1E00895A9E17F
:104FEE00B0E0A083B183E7E7F5E0A9E9B1E0089569
:104FFE00A1E2B0E0A083B183E7E7F5E0A9E9B1E073
:10500E000895A0E2B0E0A083B183E7E7F5E0A9E957
:10501E00B1E0C0CFE5E7F5E0A6E1B0E0A083B18353
:10502E00E7E7F5E0A0E9B1E0A083B183EBE7F5E0B7
:10503E000895ADE1B0E0A083B183E7E7F5E0089510
:10504E00A9E9B1E0A7CFA0E9B1E0A083B183EBE776
:10505E00F5E0AFE0B0E00895A8E1B0E0A083B18341
:10506E00E7E7F5E0A0E9B1E0AACFA0E2B0E0A083C7
:10507E00B183E7E7F5E00895A1E2B0E0A083B18344
:10508E00E7E7F5E00895A6E9B1E084CFAEE1B0E040
:10509E00A083B183E7E7F5E0D6CFA2E1B0E0A0832D
:1050AE00B183E5E7F5E0A2E2B0E0A083B183E7E7E4
:1050BE00F5E0A6E9B1E0A083B183EBE7F5E0089552
:1050CE00ACE9B1E067CFE5E7F5E0AEE1B0E0A08393
:1050DE00B183E7E7F5E0A6E9B1E071CFE0E0E09358
:1050EE006D05E0936E05E3E7F5E0A0E0B0E0A08388
:1050FE00B183E5E7F5E0A083B183E7E7F5E0A083B0
:10510E00B183EBE7F5E058CFABE1B0E0A083B1831C
:10511E00E7E7F5E00895A9E1B0E0A083B183E7E702
:10512E00F5E0A0E9B1E0A083B183EBE7F5E0A3E100
:10513E00B0E00895A9E1B0E0A083B183E7E7F5E020
:10514E00A0E9B1E03CCFACE1B0E0A083B183E7E7EA
:10515E00F5E00895AAE1B0E0A083B183E7E7F5E0BA
:10516E000895A6E1B0E0A083B183E7E7F5E0A3E9F7
:10517E00B1E00895A6E9B1E022CFAEE1B0E0A083A0
:10518E00B183E7E7F5E00895A9E1B0E0A083B1832C
:10519E00E7E7F5E0A3E9B1E00895A4E1B0E0A0836C
:1051AE00B183E7E7F5E0A0E9B1E00895A083B1830C
:1051BE00E7E7F5E00895A2E1B0E0A083B183E5E76B
:1051CE00F5E0A4E2B0E0F2CFA6E9B1E0A083B183AE
:1051DE00EBE7F5E00895A3E2B0E0E8CFA083B1835A
:1051EE00EBE7F5E0AFE0B0E00895AFE1B0E0DECF81
:1051FE00A9E1B0E0DBCFE5E7F5E01BCFA2E1B0E03F
:10520E00A083B183E5E7F5E0F0CFE5E7F5E0A7E1B0
:10521E00B0E0CCCFA3E9B1E0A083B183EBE7F5E03A
:10522E00A3E1B0E00895AFE0B0E0A083B183E5E77D
:10523E00F5E00895A083B183EBE7F5E0A3E1B0E0DC
:10524E000895A8E1B0E0B2CFA2E1B0E0A083B183AF
:10525E00E5E7F5E0C0CFA0E9B1E0A083B183EBE7CD
:10526E00F5E00895E0916D05F0916E050895E091D9
:10527E007505F09176050895E0917705F091780522
:10528E0008953196E0937905F0937A05E0917905CA
:10529E00F0917A053196E0937D05F0937E050895A1
:1052AE00E0917305F09174050895A0918905B09170
:1052BE008A050895E2E0F0E00E94602D0E2EA09186
:1052CE008B05B0918C050895E0937705F0937805E2
:1052DE00D3CFE1E0F0E00E94602D0895EAE0F0E027
:1052EE000E94602DE0210895E0914705F091480558
:1052FE000895FA93EA93E0E3F0E0FA93EA930895BF
:10530E00E0E4F0E0FA93EA930895E0915705F09106
:10531E0058050895FA93EA93D7CDFA93EA930C942D
:10532E006E04E0915305F09154050895E0E6F0E027
:10533E00F4CFE0E1F0E0F1CFE8EEF3E0FA93EA9398
:10534E000C94422D0E94EC03A1E00E945B2D089567
:10535E00E5E0F5E0A1E00E94902DE1E7F0E0FA93A0
:10536E00EA930895E4E0F5E0A1E00E94902DE5E7D0
:10537E00F0E0FA93EA9308950E940304A1E00E94DC
:10538E005B2D0895E0EAF0E0FA93EA93E09141058F
:10539E00F0914205FA93EA93E0914305F0914405AA
:1053AE0045CDFA93EA93E0914105F0914205FA93C7
:1053BE00EA93E0914305F091440538CDE6E0F5E03F
:1053CE00A1E00E94902DE7E7F0E0FA93EA930895AA
:1053DE000E94FC03A1E00E945B2D08950E94F6033B
:1053EE00A1E00E945B2D0895EA230E2EA09169057F
:1053FE00B0916A050895E0E0F0E00E94602D0895F6
:10540E00A0916905B0916A05E2E0F0E00E94602D7E
:10541E000E2EA0E01E99A1E00895E0E0E09369054C
:10542E00E0936A05E4E6F0E0FA93EA930C94422DD9
:10543E00E0E0E0932105E0932205E0932305E0935D
:10544E0024050895E0E0E0931105E0931205E09342
:10545E001305E09314050895A230E0E0BE07E0E0E6
:10546E008E07E0E09E070895E0933505F09336052C
:10547E000895E0E0E0931905E0931A05E0931B050B
:10548E00E0931C050895E0933905F0933A050895CD
:10549E00E029E0930005E09107050895E0930005EB
:1054AE00E09362000895E0E0E0931505E0931605A1
:1054BE00E0931705E09318050895E0933705F093F0
:1054CE0038050895E09300050895E0E0E0931D058A
:1054DE00E0931E05E0931F05E09320050895E093E9
:1054EE003B05F0933C050895E0E3F0E002CFE0E0E9
:1054FE00E0933505E0933605E0933905E0933A05E0
:10550E00E0933705E0933805E0933B05E0933C05C7
:10551E000895A0913705B09138050895E0E0F0E0C8
:10552E00FA93EA9308950E94221BC7CFA0913B05E0
:10553E00B0913C0508950E94F11BD1CFEADFE5E062
:10554E00F0E00E94602D0E2EF1DFE5E0F0E00E940B
:10555E00602DE0210895E0E0E0933705E0933805F3
:10556E00E0933B05E0933C050895A0913505B0917D
:10557E0036050895E9EFF1E0FA93EA9308950E9453
:10558E00DA1972CFA0913905B0913A0508950E94AB
:10559E007E1A79CFEADFE5E0F0E00E94602D0E2E54
:1055AE00F1DFE5E0F0E00E94602DE0210895E3E0F8
:1055BE00F0E0EE83FF830895E2E0F0E0FA93EA93E1
:1055CE000895E4E0F0E0EE83FF830895E0EDF7E068
:1055DE00FA93EA930C94422DE1E0F0E0E093630538
:1055EE00F09364050895E0E0E0936705E0936805A5
:1055FE000895E0E0E0935905E0935A0508950E945E
:10560E000B04E0933105F0933205E0E0F0E071CE4B
:10561E000E940B04E0933305F093340508950E2E8B
:10562E00A0913105B09132050895A0913305B09146
:10563E0034050895A0E0B0E00E94662D0895E09133
:10564E000F05F0911005F6CFE0E3F0E0FA93EA9340
:10565E000895FA93EA930C940B04E7DFE0E0F0E090
:10566E000E94782D0895E0913305F0913405089548
:10567E00E1E0F0E0FA93EA930895A0916305B0910A
:10568E0064050895E9E0F0E0FA93EA930895FA9339
:10569E00EA9375CFE0E0E0936105E093620508952B
:1056AE000E940B04E0934D05F0934E05A0914D051D
:1056BE00B0914E0511970895E0934B05F0934C056C
:1056CE00089560DFE5E0F0E00E94722D0E2ED5CF3A
:1056DE00FA93EA935CCFE2E0F0E00E94602DE021C5
:1056EE00089524DFE5E0F0E008950E2E4BDFE5E0AF
:1056FE00F0E00E94602D089545DFE5E0F0E00895AA
:10570E00E0E0E0933505E09336050895E0E0E093A0
:10571E003905E0933A05E0933B05E0933C05089587
:10572E00E0934905E0934A050895E0917105F091E3
:10573E007205FA93EA93FFCEE0E0E0933B05E09327
:10574E003C0508950E94602D0E2ECEDDA0914905D8
:10575E00B0914A050E94722DE0210895A9E4B5E0AA
:10576E00ED91FD913196FE93EE930895BDDDA091DE
:10577E004905B0914A050895E5E0F0E09DCFF5DECC
:10578E00E5E0F0E00E94722D0E2EA0914F05B09133
:10579E00500531CE0E2271DF9CCD0E226EDF9BCFD7
:1057AE00E4DEE5E0F0E008950E2EA0914F05B091F5
:1057BE00500508950E94722DF7CF0E94722D0E2E65
:1057CE00A0916105B09162050895E0933705E093CD
:1057DE0038050895FA93EA93A6CE9BDEE5E0F0E055
:1057EE000895E0913105F09132053197A091590558
:1057FE00B0915A050E94662D089535DF3197A0911C
:10580E005905B0915A050E94662D0895A09159052B
:10581E00B0915A050895E0E0E0932505E093260542
:10582E00E0932705E09328050895E0910005E061D7
:10583E0035CEE0916B05F0916C05A0912505B091E8
:10584E00260580912705909128050E94562D0E94CD
:10585E009C2D0895E0910005EF7E20CE0E2E61DD89
:10586E00A0915105B09152050E94722D0E22A09169
:10587E005B05B0915C05BFCDED91FD913196FE9328
:10588E00EE9308950E94602D0E2EA0915B05B091AF
:10589E005C0508950E94722D0E2EA0915F05B091A9
:1058AE00600508950E94722D0E2EA0915D05B09197
:1058BE005E0508952ADDA0915505B091560508950F
:1058CE000E94722D0E2EE0913105F0913205089551
:1058DE0032979CDF0E94722DE0210895319796DF5A
:1058EE000E94602DE0210895329790DF0E946C2D6A
:1058FE00E02108950E94722D0E2EB5CE0E2EA0918F
:10590E004B05B0914C05E0E0F0E00E94662DE021E1
:10591E000895E0915905F0915A05FA93EA93FECD58
:10592E00E0913105F0913205319770CFE1E0F0E072
:10593E00E0936105F09362050895E0913105F091D1
:10594E00320564DF0E94602D6ACE8DDE5FDF0E941D
:10595E00602D0E2E6ACEE0E0E0933905E0933A0515
:10596E00EDE0F0E0A9CEA0916705B091680508952D
:10597E00A0913105B0913205E0E0F0E00E94782D63
:10598E000E2E08952A93ED85FE85FA93EA93E98902
:10599E00FA8909950895E889F9893497E88BF98B86
:1059AE000895ED85FE85FA93EA93E989FA890995BA
:1059BE000895A889B98914960E947E2DEE83FF83DF
:1059CE0008CAA889B98914960E947E2DEA87FB879A
:1059DE00089590989198889A899815C08998889872
:1059EE00EE270000819B0895809B089504D0899A2C
:1059FE0002D0889AE1E06BE107C0899A889A03D0B9
:105A0E008898F9DF899865E36A95F1F7089578E04B
:105A1E008898F1DF809BFECFEEDF88948199089401
:105A2E00889AF1DFEE1F7A9599F77991772311F421
:105A3E00899801C0899ADFDF8898E5DF889ADBDFD5
:105A4E008998D9CFE99178E0EE0F10F4899801C0CA
:105A5E00899AD9DF8898CFDF809BFECFCCDF889ADA
:105A6E007A9591F78998C7DF8898CDDFE1E0819923
:105A7E00EE27889AC0CFE991F991309639F080EAF5
:105A8E009FE00197F1F7A8953197C9F70895002483
:105A9E00AF0DB01D0895F195E195F04008956F2F6B
:105AAE00660F660B762F0895EA17E1E009F0EE27F0
:105ABE000895EA17FB07E1E009F0EE270895EA17CB
:105ACE00FB07E1E009F4EE270895AE17BF07E1E00A
