:040000000C94210437
:100004000C9400000C9400000C9400000C9400006C
:100014000C9400000C9400000C9400000C9400005C
:100024000C9400000C9400000C9400000C9400004C
:100034000C9400000C9400000C9400000C949804A0
:100044000C9400000C9400000C9400000C9400002C
:100054000C9400000C9400000C9400000C9400001C
:100064000C9400000C9400000C9400000C9400000C
:100074000C9400000C9400000C9400000C940000FC
:100084000C9400000C9400001027E80364000A009C
:1000940001000010000110000100000020202020B9
:1000A400202020202020202020202020202020204C
:1000B400202020202020202020202020202020203C
:1000C400202020202020202020202020005A61638E
:1000D40069736B206E6965207A6D6965727A6F6EDB
:1000E4007920752057796B6F6E61776379004F7350
:1000F400207A616369736B7520626C697A656A2022
:10010400737A616679004F73207A616369736B75E2
:100114002064616C656A206F6420737A616679007B
:100124004369736E69656E6965207A61206D616CDF
:1001340065202D206D6E69656A737A65206E697A13
:100144002036206261720038362D30313730003865
:10015400362D313034330038362D313637350038CA
:10016400362D323039380038372D303137300038B9
:10017400372D313034330038372D313637350038A8
:10018400372D323039380038362D30313932003895
:10019400362D313035340038362D31363736003887
:1001A400362D323133320038372D30313932003880
:1001B400372D313035340038372D31363736003865
:1001C400372D323133320038362D3031393300385F
:1001D400362D313231360038362D3138333200384D
:1001E400362D323137340038372D30313933003839
:1001F400372D313231360038372D3138333200382B
:10020400372D323137340038362D30313934003817
:10021400362D313334310038362D3138333300380C
:10022400362D323138300038372D303139340038FA
:10023400372D313334310038372D313833330038EA
:10024400372D323138300038362D303636330038D9
:10025400362D313334390038362D313833340038C3
:10026400362D323230340038372D303636330038BC
:10027400372D313334390038372D313833340038A1
:10028400372D323230340038362D30373638003896
:10029400362D313335370038362D3138343800387F
:1002A400362D323231320038372D30373638003877
:1002B400372D313335370038372D3138343800385D
:1002C400372D323231320038362D30383030003864
:1002D400362D313336330038362D31393034003849
:1002E400362D323234310038372D30383030003842
:1002F400372D313336330038372D31393034003827
:10030400372D323234310038362D3038313100381F
:10031400362D313532330038362D31393239003803
:10032400362D323236310038372D303831310038FD
:10033400372D313532330038372D313932390038E1
:10034400372D323236310038362D303831340038DA
:10035400362D313533300038362D313933360038C7
:10036400362D323238350038372D303831340038B4
:10037400372D313533300038372D313933360038A5
:10038400372D323238350038362D30383135003893
:10039400362D313535310038362D31393431003888
:1003A400362D323238360038372D30383135003872
:1003B400372D313535310038372D31393431003866
:1003C400372D323238360038362D30383136003851
:1003D400362D313535320038362D3230303700384D
:1003E400362D323239320038372D30383136003834
:1003F400372D313535320038372D3230303700382B
:10040400372D323239320038362D30383137003812
:10041400362D313630320038362D3230313700380F
:10042400362D323338340038372D303831370038F0
:10043400372D313630320038372D323031370038ED
:10044400372D323338340038362D303834370038CD
:10045400362D313632300038362D323031390038CD
:10046400362D323338350038372D303834370038AC
:10047400372D313632300038372D323031390038AB
:10048400372D323338350038362D3038353400388E
:10049400362D313632320038362D3230323800388B
:1004A400362D323433370038372D30383534003870
:1004B400372D313632320038372D32303238003869
:1004C400372D323433370038362D30383632003851
:1004D400362D313632350038362D3230353200384B
:1004E400362D323439320038372D30383632003830
:1004F400372D313632350038372D32303532003829
:10050400372D323439320038362D3039333500380E
:10051400362D313634380038362D32303832003802
:10052400362D323530300038372D303933350038F8
:10053400372D313634380038372D323038320038E0
:10054400372D323530300038362D313031390038DE
:10055400362D313634390038362D323038330038C0
:10056400362D323538350038372D313031390038B1
:10057400372D313634390038372D3230383300389E
:10058400372D323632340038362D31303237003898
:10059400362D313636390038362D3230383700387A
:1005A400362D323632340038372D31303237003878
:1005B400372D313636390038372D32303837003858
:1005C400372D32353835004E69652077637A797472
:1005D400616E6F207A616369736B75005A6174721E
:1005E4007A796D616E6F202D206E616369736E6917
:1005F4006A2053544152542061627920777A6E6F95
:10060400776963005A616D6B6E696A206F736C6FF2
:100614006E7920676F726E652069206E61636973FD
:100624006E696A205354415254004E616369736E7B
:10063400696A205354415254206162792077797059
:100644006F7A79636A6F6E6F776163206E6170652C
:100654006479005A616D6B6E696A206F736C6F6E9A
:100664007920676F726E65004F7477617263696594
:10067400206F736C6F6E2077207472616B63696591
:1006840020706F7A79636A6F6E6F77616E6961004B
:1006940057796C61637A206920776C61637A206D85
:1006A40061737A796E65005A6174727A796D616EDC
:1006B40069652077207472616B63696520706F7A55
:1006C40079636A6F6E6F77616E696100506F7A79D2
:1006D400636A6F6E756A6520756B6C616479206CF2
:1006E400696E696F77652058595A00537465726F43
:1006F400776E696B2033202D207779706F7A796358
:100704006A6F6E6F77616C656D00537465726F7795
:100714006E696B2034202D207779706F7A79636A43
:100724006F6E6F77616C656D00416C61726D205303
:100734007465726F776E696B203400416C61726D01
:1007440020537465726F776E696B20330053746540
:10075400726F776E696B2031202D207779706F7AF4
:1007640079636A6F6E6F77616C656D00537465723F
:100774006F776E696B2032202D207779706F7A79CC
:10078400636A6F6E6F77616C656D00416C61726D49
:1007940020537465726F776E696B203100416C6110
:1007A400726D20537465726F776E696B20320057D7
:1007B40079706F7A79636A6F6E6F77616E6F207587
:1007C4006B6C616479206C696E696F776520585928
:1007D4005A0057796D69656E20737A637A6F746B0A
:1007E40065207065647A656C6B6F77610057796D0D
:1007F40069656E206B72617A656B207363696572DB
:100804006E790057637A7974616A207A61636973D7
:100814006B2074656E2073616D206C7562206E6F41
:100824007779000001002D4E414E00494E460000EC
:10083400010002009E0001009F0528080000F894B2
:10084400EE27ECBBF1E0F5BFE5BFE0936C00F8E107
:10085400F1BDE1BD8DE0A2E0BB27ED938A95E9F7F8
:1008640080E090E1A0E0B1E0ED930197E9F7E4E3E3
:10087400F8E085919591009761F0A591B591059067
:100884001590BF01F00105900D920197E1F7FB016E
:10089400F0CF8BBFEFEFEDBFE0E1EEBFC0E0D5E0FE
:1008A4000C9431250E94933023C00E949330E69526
:1008B4001FC00E949330E695E6951AC00E949330BB
:1008C400E695E695E69514C00E949330E29510C033
:1008D4000E949330E295EF70E6950AC00E9493302F
:1008E4000E94A23005C00E949330EE1FE0E0EE1F8C
:1008F400E170239608950E94A7300E94AC30E4E092
:10090400EA930E942C2FE3E80E94B430E1E0EA93DA
:100914000E942C2F0E94BF300E94BF300E94BF3023
:100924000E2F1127F801198108815EC06A937A930A
:10093400AA93BA93EA93FA93EFB7EA93A1E1B5E0E5
:100944000E94C530A5E1B5E00E94C530A9E1B5E03B
:100954000E94C530ADE1B5E00E94C530A1E2B5E02A
:100964000E94C530A5E2B5E00E94C530A9E2B5E019
:100974000E94C530E991EFBFF991E991B991A9912C
:100984007991699118950E94A7300E94CE300E94F7
:100994001D2F8F010D5F1F4F0E94AC300A930E94E0
:1009A4002C2FE2E80E94B4300E94CE3080E00E94F6
:1009B4006E30229619810881289608950E94AC30E1
:1009C400E5E0EA930E94D330EA81EA930E942C2F57
:1009D400E881EA930E942C2FE0E0EA930E942C2FF6
:1009E400EC81EA930E942C2F269608950E94D93018
:1009F4000E94DE300E94E5300E94EA300895249778
:100A04000E94AC3A00E010E0EE85FF85FA93EA9389
:100A14000E941D2F8F010D5F1F4FAC85BD8511975F
:100A240059F420E030E040E550E0E0E5F0E0E8870C
:100A3400F987E0E0EE83EF83AC85BD85129759F426
:100A440020E030E040E250E0E0E4F0E0E887F987BD
:100A5400E0E0EE83EF830E94AC300A930E94D3302F
:100A64002A930E942C2F4A930E942C2FEE85FF85F7
:100A7400FA93EA9380E00E946E3022960E94FC3042
:100A8400EC85FD850E9404310E94603AA0E0B0E04C
:100A94000E943A3AE02151F00E940B31E1EDF0E07E
:100AA4000E9419310E9419310E941E310E94FC30AB
:100AB4000E94223151F00E940B31E2EFF0E00E94DB
:100AC40019310E9419310E941E310E94FC300E948B
:100AD4002A3151F00E940B31EAE0F1E00E94193111
:100AE4000E9419310E941E310E9432310E9422312B
:100AF40051F00E940B31EAE0F1E00E9419310E94AA
:100B040019310E941E310E9432310E942A3151F063
:100B14000E940B31E2EFF0E00E9419310E9419317A
:100B24000E941E310E94B33A609608950E94D93003
:100B34000E943A310E2EA6E0B0E00E9440310E2A07
:100B4400AAE0B0E00E9440310E2AACE0B0E00E947E
:100B540040310E2AA0E0B0E00E9440310E2AA2E00B
:100B6400B0E00E9440310E2AA4E0B0E00E9440317F
:100B7400E02921F10E944331E0E0E0938905E0930C
:100B84008A050E944A31E0E0E0938705E0938805F6
:100B9400AAE0B0E0E5E0F0E00E948A3AACE0B0E020
:100BA4000E948A3AA0E0B0E00E945131A2E0B0E095
:100BB4000E945131A4E0B0E00E94513108950E9496
:100BC40056310E946031EF930E9456310E94663183
:100BD400AF91EA2341F00E946C310E947131E0939D
:100BE4002D05F0932E050E946C310E9477310E94EE
:100BF4007D310E9482310E9487310E947131A0E0D0
:100C0400B0E00E948E310E94E5300E9495310E942E
:100C14009E310E94A5310E94AA31ACE0B0E00E944E
:100C24008E310E94A53167DEAAE0B0E00E948A3AC4
:100C34000E946C310E94E5305EDEA8E0B0E00E94C4
:100C44008A3A0E94A5310E94823155DEA6E0B0E0C6
:100C54000E948A3A0E9482310E94B0314CDEE093B5
:100C64008305F09384050E9482310E94B53143DEEE
:100C7400E0938505F09386050E9482310E94AA3193
:100C84000E94BA310E94E5300E94BF314FDF0895BF
:100C94001A930A9301E010E0002E012AA9F40E949D
:100CA400C6311CDEE03029F401E010E0E0EAF0E0B7
:100CB40006C000E010E00E94D031E4E2F1E0FA93D3
:100CC400EA930E94DF31E8CF0991199108951A93AC
:100CD4000A930E94EA31E6DDE1700E2EE0910205EE
:100CE400EE7F0E94F431E1DDE170EE0F0E2EE09113
:100CF4000205ED7F0E94F431DCDDE170EE0FEE0FB2
:100D04000E2EE0910205EB7F0E94F431D7DDE170F5
:100D1400EE0FEE0FEE0F0E2EE0910205E77F0E941C
:100D2400F431D2DDE170E295E07F0E2EE091020510
:100D3400EF7E0E94F431CCDDE170E295E07FEE0FAE
:100D44000E2EE0910205EF7D0E94F431C7DDE170C3
:100D5400E295E07FEE0FEE0F0E2EE0910205EF7BA1
:100D64000E94F431C0DDE170E795E0E0E7950E2ED6
:100D7400E0910205EF77E029E09302050E94F83143
:100D84000E9477318F01A0910205A13059F4F80136
:100D94000E9404310E94FD31EBE4F1E00E94023232
:100DA4000E940732A0910205A23071F4F8010E945A
:100DB4000431E2E0F0E0ED93FC93E3E5F1E00E941E
:100DC40002320E946C311BDEA0910205A33071F443
:100DD400F8010E940431E3E0F0E0ED93FC93EBE5CD
:100DE400F1E00E9402320E946C3109DEA0910205FA
:100DF400A43071F4F8010E940431E4E0F0E0ED93D2
:100E0400FC93E3E6F1E00E9402320E946C31F7DDCC
:100E1400A0910205A53071F4F8010E940431E5E0C7
:100E2400F0E0ED93FC93EBE6F1E00E9402320E94C5
:100E34006C31E5DDA0910205A63069F4F8010E9449
:100E44000431E6E0F0E0ED93FC93E3E7F1E00E9487
:100E540002320E940732A0910205A73069F4F8011A
:100E64000E940431E7E0F0E0ED93FC93EBE7F1E05E
:100E74000E9402320E940732A0910205A83069F450
:100E8400F8010E940431E8E0F0E0ED93FC93E3E81C
:100E9400F1E00E9402320E940732A0910205A930BB
:100EA40071F4F8010E940431E9E0F0E0ED93FC9361
:100EB400EBE8F1E00E9402320E946C31A0DDA091C7
:100EC4000205AA3071F4F8010E940431EAE0F0E06E
:100ED400ED93FC93E3E9F1E00E9402320E946C314D
:100EE4008EDDA0910205AB3071F4F8010E9404314B
:100EF400EBE0F0E0ED93FC93EBE9F1E00E940232C9
:100F04000E946C317CDDA0910205AC3069F4F801DB
:100F14000E940431ECE0F0E0ED93FC93E3EAF1E0AD
:100F24000E9402320E940732A0910205AD3069F49A
:100F3400F8010E940431EDE0F0E0ED93FC93EBEA5C
:100F4400F1E00E9402320E940732A0910205AE3005
:100F540069F4F8010E940431EEE0F0E0ED93FC93B3
:100F6400E3EBF1E00E9402320E940732A0910205F5
:100F7400AF3069F4F8010E940431EFE0F0E0ED9342
:100F8400FC93EBEBF1E00E9402320E940732A09145
:100F94000205A03171F4F8010E940431E0E1F0E0AF
:100FA400ED93FC93E3ECF1E00E9402320E946C3179
:100FB40026DDA0910205A13171F4F8010E940431EB
:100FC400E1E1F0E0ED93FC93EBECF1E00E940232FE
:100FD4000E946C3114DDA0910205A23171F4F80174
:100FE4000E940431E2E1F0E0ED93FC93E3EDF1E0E3
:100FF4000E9402320E946C3102DDA0910205A331ED
:1010040071F4F8010E940431E3E1F0E0ED93FC9304
:10101400EBEDF1E00E9402320E946C31F0DCA09111
:101024000205A43171F4F8010E940431E4E1F0E016
:10103400ED93FC93E3EEF1E00E9402320E946C31E6
:10104400DEDCA0910205A53169F4F8010E940431A7
:10105400E5E1F0E0ED93FC93EBEEF1E00E94023267
:101064000E940732A0910205A63169F4F8010E949A
:101074000431E6E1F0E0ED93FC93E3EFF1E00E944C
:1010840002320E940732A0910205A73169F4F801E7
:101094000E940431E7E1F0E0ED93FC93EBEFF1E023
:1010A4000E9402320E940732A0910205A83169F41D
:1010B400F8010E940431E8E1F0E0ED93FC93E3E0F1
:1010C400F2E00E9402320E940732A0910205A93187
:1010D40071F4F8010E940431E9E1F0E0ED93FC932E
:1010E400EBE0F2E00E9402320E946C3188DCA091B5
:1010F4000205AA3171F4F8010E940431EAE1F0E03A
:10110400ED93FC93E3E1F2E00E9402320E946C3121
:1011140076DCA0910205AB3171F4F8010E94043130
:10112400EBE1F0E0ED93FC93EBE1F2E00E9402329C
:101134000E946C3164DCA0910205AC3169F4F801C1
:101144000E940431ECE1F0E0ED93FC93E3E2F2E081
:101154000E9402320E940732A0910205AD3169F467
:10116400F8010E940431EDE1F0E0ED93FC93EBE231
:10117400F2E00E9402320E940732A0910205AE31D1
:1011840069F4F8010E940431EEE1F0E0ED93FC9380
:10119400E3E3F2E00E9402320E940732A0910205CA
:1011A400AF3169F4F8010E940431EFE1F0E0ED930E
:1011B400FC93EBE3F2E00E9402320E940732A0911A
:1011C4000205A03271F4F8010E940431E0E2F0E07B
:1011D400ED93FC93E3E4F2E00E9402320E946C314E
:1011E4000EDCA0910205A13269F4F8010E940431D9
:1011F400E1E2F0E0ED93FC93EBE4F2E00E940232D2
:101204000E940732A0910205A23271F4F8010E94F3
:101214000431E2E2F0E0ED93FC93E3E5F2E00E94B6
:1012240002320E946C31EBDBA0910205A33271F40F
:10123400F8010E940431E3E2F0E0ED93FC93EBE566
:10124400F2E00E9402320E946C31D9DBA0910205C7
:10125400A43271F4F8010E940431E4E2F0E0ED9369
:10126400FC93E3E6F2E00E9402320E946C31C7DB99
:10127400A0910205A53271F4F8010E940431E5E25F
:10128400F0E0ED93FC93EBE6F2E00E9402320E9460
:101294006C31B5DBA0910205A63269F4F8010E9415
:1012A4000431E6E2F0E0ED93FC93E3E7F2E00E9420
:1012B40002320E940732A0910205A73269F4F801B4
:1012C4000E940431E7E2F0E0ED93FC93EBE7F2E0F7
:1012D4000E9402320E940732A0910205A83269F4EA
:1012E400F8010E940431E8E2F0E0ED93FC93E3E8B6
:1012F400F2E00E9402320E940732A0910205A93254
:1013040069F4F8010E940431E9E2F0E0ED93FC9302
:10131400EBE8F2E00E9402320E940732A09102053B
:10132400AA3271F4F8010E940431EAE2F0E0ED938C
:10133400FC93E3E9F2E00E9402320E946C315FDB2D
:10134400A0910205AB3271F4F8010E940431EBE282
:10135400F0E0ED93FC93EBE9F2E00E9402320E948C
:101364006C314DDBA0910205AC3281F4F8010E948E
:101374000431ECE2F0E00E940D320E941132E3EA03
:10138400F2E00E9402320E946C3139DBA091020526
:10139400AD3271F4F8010E940431EDE2F0E0ED9316
:1013A400FC93EBEAF2E00E9402320E946C3127DBEC
:1013B400A0910205AE3269F4F8010E940431EEE214
:1013C400F0E0ED93FC93E3EBF2E00E9402320E9422
:1013D4000732A0910205AF3269F4F8010E9404318A
:1013E400EFE2F0E0ED93FC93EBEBF2E00E940232CB
:1013F4000E940732A0910205A03379F4F8010E94FB
:101404000431E0E3F0E00E940D320E941132E3EC7B
:10141400F2E00E9402320E940732A0910205A13339
:1014240071F4F8010E940431E1E3F0E0ED93FC93E0
:10143400EBECF2E00E9402320E946C31E0DAA091FF
:101444000205A23371F4F8010E940431E2E3F0E0F2
:10145400ED93FC93E3EDF2E00E9402320E946C31C2
:10146400CEDAA0910205A33371F4F8010E9404318D
:10147400E3E3F0E0ED93FC93EBEDF2E00E94023243
:101484000E946C31BCDAA0910205A43369F4F8011E
:101494000E940431E4E3F0E0ED93FC93E3EEF2E028
:1014A4000E9402320E940732A0910205A53369F41A
:1014B400F8010E940431E5E3F0E0ED93FC93EBEED8
:1014C400F2E00E9402320E940732A0910205A63384
:1014D40069F4F8010E940431E6E3F0E0ED93FC9333
:1014E400E3EFF2E00E9402320E940732A09102056B
:1014F400A73369F4F8010E940431E7E3F0E0ED93C7
:10150400FC93EBEFF2E00E9402320E940732A091BA
:101514000205A83371F4F8010E940431E8E3F0E015
:10152400ED93FC93E3E0F3E00E9402320E946C31FD
:1015340066DAA0910205A93371F4F8010E9404311E
:10154400E9E3F0E0ED93FC93EBE0F3E00E94023278
:101554000E946C3154DAA0910205AA3371F4F801A7
:101564000E940431EAE3F0E0ED93FC93E3E1F3E05D
:101574000E9402320E946C3142DAA0910205AB3320
:1015840071F4F8010E940431EBE3F0E0ED93FC9375
:10159400EBE1F3E00E9402320E946C3130DAA09158
:1015A4000205AC3371F4F8010E940431ECE3F0E07D
:1015B400ED93FC93E3E2F3E00E9402320E946C316B
:1015C4001EDAA0910205AD3369F4F8010E940431DA
:1015D400EDE3F0E0ED93FC93EBE2F3E00E940232E2
:1015E4000E940732A0910205AE3369F4F8010E940B
:1015F4000431EEE3F0E0ED93FC93E3E3F3E00E94C7
:1016040002320E940732A0910205AF3369F4F80157
:101614000E940431EFE3F0E0ED93FC93EBE3F3E09D
:101624000E9402320E940732A0910205A03469F49C
:10163400F8010E940431E0E4F0E0ED93FC93E3E46C
:10164400F3E00E9402320E940732A0910205A13405
:1016540071F4F8010E940431E1E4F0E0ED93FC93AD
:10166400EBE4F3E00E9402320E946C31C8D9A091ED
:101674000205A23469F4F8010E940431E2E4F0E0C6
:10168400ED93FC93E3E5F3E00E9402320E940732FB
:10169400A0910205A33469F4F8010E940431E3E443
:1016A400F0E0ED93FC93EBE5F3E00E9402320E943C
:1016B4000732A0910205A43469F4F8010E940431B0
:1016C400E4E4F0E0ED93FC93E3E6F3E00E940232FD
:1016D4000E940732A0910205A53469F4F8010E9422
:1016E4000431E5E4F0E0ED93FC93EBE6F3E00E94D3
:1016F40002320E940732A0910205A63471F4F80167
:101704000E940431E6E4F0E0ED93FC93E3E7F3E0B8
:101714000E9402320E946C3172D9A0910205A73452
:1017240071F4F8010E940431E7E4F0E0ED93FC93D6
:10173400EBE7F3E00E9402320E946C3160D9A09181
:101744000205A83471F4F8010E940431E8E4F0E0E1
:10175400ED93FC93E3E8F3E00E9402320E946C31C3
:101764004ED9A0910205A93471F4F8010E94043104
:10177400E9E4F0E0ED93FC93EBE8F3E00E9402323D
:101784000E946C313CD9A0910205AA3471F4F8018D
:101794000E940431EAE4F0E0ED93FC93E3E9F3E022
:1017A4000E9402320E946C312AD9A0910205AB3406
:1017B40071F4F8010E940431EBE4F0E0ED93FC9342
:1017C400EBE9F3E00E9402320E946C3118D9A09137
:1017D4000205AC3481F4F8010E940431ECE4F0E039
:1017E4000E940D320E941132E3EAF3E00E940232B9
:1017F4000E946C3104D9A0910205AD3469F4F8015A
:101804000E940431EDE4F0E0ED93FC93EBEAF3E0A5
:101814000E9402320E940732A0910205AE3469F49C
:10182400F8010E940431EEE4F0E0ED93FC93E3EB65
:10183400F3E00E9402320E940732A0910205AF3405
:1018440069F4F8010E940431EFE4F0E0ED93FC93B5
:10185400EBEBF3E00E9402320E940732A0910205F2
:10186400A03581F4F8010E940431E0E5F0E00E9423
:101874000D320E941132E3ECF3E00E9402320E9426
:101884006C31BDD8A0910205A13571F4F8010E9414
:101894000431E1E5F0E0ED93FC93EBECF3E00E941E
:1018A40002320E946C31ABD8A0910205A23571F4CA
:1018B400F8010E940431E2E5F0E0ED93FC93E3EDDE
:1018C400F3E00E9402320E946C3199D8A091020583
:1018D400A33569F4F8010E940431E3E5F0E0ED93E7
:1018E400FC93EBEDF3E00E9402320E940732A091D8
:1018F4000205A43569F4F8010E940431E4E5F0E03E
:10190400ED93FC93E3EEF3E00E9402320E9407326F
:10191400A0910205A53569F4F8010E940431E5E5BA
:10192400F0E0ED93FC93EBEEF3E00E9402320E94B0
:101934000732A0910205A63569F4F8010E9404312A
:10194400E6E5F0E0ED93FC93E3EFF3E00E9402326E
:101954000E940732A0910205A73571F4F8010E9494
:101964000431E7E5F0E0ED93FC93EBEFF3E00E9444
:1019740002320E946C3143D8A0910205A83571F45B
:10198400F8010E940431E8E5F0E0ED93FC93E3E014
:10199400F4E00E9402320E946C3131D8A091020519
:1019A400A93571F4F8010E940431E9E5F0E0ED9302
:1019B400FC93EBE0F4E00E9402320E946C311FD8E9
:1019C400A0910205AA3569F4F8010E940431EAE500
:1019D400F0E0ED93FC93E3E1F4E00E9402320E9414
:1019E4000732A0910205AB3569F4F8010E94043175
:1019F400EBE5F0E0ED93FC93EBE1F4E00E940232BE
:101A04000E940732A0910205AC3589F4F8010E94C6
:101A14000431ECE5F0E00E940D320E941132E3E261
:101A2400F4E00E9402320E946C310E940105A091F0
:101A34000205AD3569F4F8010E940431EDE5F0E0EA
:101A4400ED93FC93EBE2F4E00E9402320E94073231
:101A5400A0910205AE3579F4F8010E940431EEE557
:101A6400F0E0ED93FC93E3E3F4E00E9402320E9481
:101A74006C310E940105A0910205AF3579F4F8019B
:101A84000E940431EFE5F0E0ED93FC93EBE3F4E026
:101A94000E9402320E946C310E940105A09102054D
:101AA400A03689F4F8010E940431E0E6F0E00E94D7
:101AB4000D320E941132E3E4F4E00E9402320E94EB
:101AC4006C310E940105A0910205A13679F4F80158
:101AD4000E940431E1E6F0E0ED93FC93EBE4F4E0E2
:101AE4000E9402320E946C310E940105A0910205FD
:101AF400A23679F4F8010E940431E2E6F0E0ED93B5
:101B0400FC93E3E5F4E00E9402320E946C310E94EF
:101B14000105A0910205A33669F4F8010E9404317D
:101B2400E3E6F0E0ED93FC93EBE5F4E00E9402328F
:101B34000E940732A0910205A43679F4F8010E94AC
:101B44000431E4E6F0E0ED93FC93E3E6F4E00E9474
:101B540002320E946C310E940105A0910205A53653
:101B640069F4F8010E940431E5E6F0E0ED93FC939A
:101B7400EBE6F4E00E9402320E940732A0910205D3
:101B8400A63669F4F8010E940431E6E6F0E0ED932C
:101B9400FC93E3E7F4E00E9402320E940732A09132
:101BA4000205A73679F4F8010E940431E7E6F0E073
:101BB400ED93FC93EBE7F4E00E9402320E946C3157
:101BC4000E940105A0910205A83669F4F8010E945B
:101BD4000431E8E6F0E0ED93FC93E3E8F4E00E94DE
:101BE40002320E940732A0910205A93679F4F80165
:101BF4000E940431E9E6F0E0ED93FC93EBE8F4E0B5
:101C04000E9402320E946C310E940105A0910205DB
:101C1400AA3669F4F8010E940431EAE6F0E0ED9393
:101C2400FC93E3E9F4E00E9402320E940732A0919F
:101C34000205AB3689F4F8010E940431EBE6F0E0CA
:101C44000E940D320E941132EBE9F4E00E9402324C
:101C54000E946C310E940105A0910205AC3679F412
:101C6400F8010E940431ECE6F0E0ED93FC93E3EA22
:101C7400F4E00E9402320E946C310E940105A0919E
:101C84000205AD3669F4F8010E940431EDE6F0E096
:101C9400ED93FC93EBEAF4E00E9402320E940732D7
:101CA400A0910205AE3679F4F8010E940431EEE603
:101CB400F0E0ED93FC93E3EBF4E00E9402320E9427
:101CC4006C310E940105A0910205AF3689F4F80138
:101CD4000E940431EFE6F0E00E940D320E941132BE
:101CE400EBEBF4E00E9402320E946C310E94010589
:101CF400A0910205A03769F4F8010E940431E0E7DD
:101D0400F0E0ED93FC93E3ECF4E00E9402320E94D5
:101D14000732A0910205A13779F4F8010E94043139
:101D2400E1E7F0E0ED93FC93EBECF4E00E94023287
:101D34000E946C310E940105A0910205A23779F43A
:101D4400F8010E940431E2E7F0E0ED93FC93E3ED47
:101D5400F4E00E9402320E946C310E940105A091BD
:101D64000205A33779F4F8010E940431E3E7F0E0B7
:101D7400ED93FC93EBEDF4E00E9402320E946C318F
:101D84000E940105A0910205A43769F4F8010E949C
:101D94000431E4E7F0E0ED93FC93E3EEF4E00E9419
:101DA40002320E940732A0910205A53769F4F801B6
:101DB4000E940431E5E7F0E0ED93FC93EBEEF4E0F0
:101DC4000E9402320E940732A0910205A63769F4EC
:101DD400F8010E940431E6E7F0E0ED93FC93E3EFB1
:101DE400F4E00E9402320E940732A0910205A73754
:101DF40069F4F8010E940431E7E7F0E0ED93FC9305
:101E0400EBEFF4E00E9402320E940732A091020537
:101E1400A83779F4F8010E940431E8E7F0E0ED9383
:101E2400FC93E3E0F5E00E9402320E946C310E94D0
:101E34000105A0910205A93779F4F8010E94043143
:101E4400E9E7F0E0ED93FC93EBE0F5E00E94023269
:101E54000E946C310E940105A0910205AA3779F411
:101E6400F8010E940431EAE7F0E0ED93FC93E3E12A
:101E7400F5E00E9402320E946C310E940105A0919B
:101E84000205AB3779F4F8010E940431EBE7F0E086
:101E9400ED93FC93EBE1F5E00E9402320E946C3179
:101EA4000E940105A0910205AC3779F4F8010E9463
:101EB4000431ECE7F0E0ED93FC93E3E2F5E00E94FB
:101EC40002320E946C310E940105A0910205AD37D7
:101ED40069F4F8010E940431EDE7F0E0ED93FC931E
:101EE400EBE2F5E00E9402320E940732A091020563
:101EF400AE3769F4F8010E940431EEE7F0E0ED93A7
:101F0400FC93E3E3F5E00E9402320E940732A091C1
:101F14000205AF3769F4F8010E940431EFE7F0E0FD
:101F2400ED93FC93EBE3F5E00E9402320E9407324A
:101F3400A0910205A03869F4F8010E940431E0E898
:101F4400F0E0ED93FC93E3E4F5E00E9402320E949A
:101F54000732A0910205A13879F4F8010E940431F6
:101F6400E1E8F0E0ED93FC93EBE4F5E00E9402324B
:101F74000E946C310E940105A0910205A23879F4F7
:101F8400F8010E940431E2E8F0E0ED93FC93E3E50C
:101F9400F5E00E9402320E946C310E940105A0917A
:101FA4000205A33869F4F8010E940431E3E8F0E083
:101FB400ED93FC93EBE5F5E00E9402320E940732B8
:101FC400A0910205A43879F4F8010E940431E4E8F0
:101FD400F0E0ED93FC93E3E6F5E00E9402320E9408
:101FE4006C310E940105A0910205A53869F4F8013D
:101FF4000E940431E5E8F0E0ED93FC93EBE6F5E0B4
:102004000E9402320E940732A0910205A63869F4A8
:10201400F8010E940431E6E8F0E0ED93FC93E3E775
:10202400F5E00E9402320E940732A0910205A7380F
:1020340079F4F8010E940431E7E8F0E0ED93FC93B1
:10204400EBE7F5E00E9402320E946C310E94010528
:10205400A0910205A83869F4F8010E940431E8E867
:10206400F0E0ED93FC93E3E8F5E00E9402320E9475
:102074000732A0910205A93879F4F8010E940431CD
:10208400E9E8F0E0ED93FC93EBE8F5E00E9402321E
:102094000E946C310E940105A0910205AA3869F4DE
:1020A400F8010E940431EAE8F0E0ED93FC93E3E9DF
:1020B400F5E00E9402320E940732A0910205AB387B
:1020C40069F4F8010E940431EBE8F0E0ED93FC932D
:1020D400EBE9F5E00E9402320E940732A09102056A
:1020E400AC3879F4F8010E940431ECE8F0E0ED93A7
:1020F400FC93E3EAF5E00E9402320E946C310E94F4
:102104000105A0910205AD3869F4F8010E9404317B
:10211400EDE8F0E0ED93FC93EBEAF5E00E94023287
:102124000E940732A0910205AE3879F4F8010E94AA
:102134000431EEE8F0E0ED93FC93E3EBF5E00E946C
:1021440002320E946C310E940105A0910205AF3851
:1021540079F4F8010E940431EFE8F0E0ED93FC9388
:10216400EBEBF5E00E9402320E946C310E94010503
:10217400A0910205A03969F4F8010E940431E0E954
:10218400F0E0ED93FC93E3ECF5E00E9402320E9450
:102194000732F801099119910895E881F9810E94A3
:1021A40004310E94603A309741F40E94D031EBEC44
:1021B400F5E00E9416320C943719E130A0E0FA07DA
:1021C40051F4E8ECF0E00E9419320E9420320E949F
:1021D40027320C941E19E230A0E0FA0771F4E0E112
:1021E400F1E00E9419320E9436320E943B320E9472
:1021F40036320E944A320C942419E330A0E0FA07E4
:1022040061F4EAE7F0E00E9419320E9420320E9451
:102214004F320E9458320C942419E430A0E0FA079B
:1022240061F4E2E0F1E00E9419320E9420320E943F
:1022340061320E9458320C942419E530A0E0FA0768
:1022440059F4E0EBF0E00E9419320E9420320E941F
:1022540027320E946A32F6C7E630A0E0FA0759F442
:10226400EEEFF0E00E9419320E9436320E943B32B7
:10227400A0E1B0E0E1C7E730A0E0FA0749F4E8E7FD
:10228400F0E00E9419320E9420320E944F32CEC7E1
:10229400E830A0E0FA0749F4E0ECF0E00E941932DB
:1022A4000E9420320E946132C1C7E930A0E0FA07DF
:1022B40069F4E8E1F0E00E9419320E9420320E94A1
:1022C40061320E946D320E946A32BCC7EA30A0E0DB
:1022D400FA0759F4E6E1F0E00E9419320E94203234
:1022E4000E9474320E945832ADC7EB30A0E0FA0766
:1022F40059F4E4E7F0E00E9419320E9420320E946F
:102304007D320E9458329EC7EC30A0E0FA0749F4AF
:10231400E6E9F0E00E9419320E9420320E948632DF
:1023240085C7ED30A0E0FA0759F4EAE1F0E00E9435
:1023340019320E9420320E9461320E946D327CC7A1
:10234400EE30A0E0FA0749F4EEE5F0E00E9419321D
:102354000E9420320E94743269C7EF30A0E0FA076D
:1023640049F4E4E8F0E00E9419320E9420320E940D
:102374007D325CC7E031A0E0FA0749F4E8EBF0E015
:102384000E9419320E9420320E948F325BC7E131D1
:10239400A0E0FA0759F4E0E2F0E00E9419320E944A
:1023A40020320E9427320E946A324CC7E231A0E0F8
:1023B400FA0769F4E8E9F0E00E9419320E94363223
:1023C4000E9498320E9436320E944A323BC7E3315F
:1023D400A0E0FA0759F4EAEAF0E00E9419320E94F8
:1023E40020320E94A7320E94AE322CC7E431A0E012
:1023F400FA0769F4E2E4F0E00E9419320E94203204
:102404000E94A7320E94B1320E946A321BC7E53192
:10241400A0E0FA0749F4EEE4F0E00E9419320E94C9
:1024240020320E94273208C7E631A0E0FA0759F4A7
:10243400E2ECF0E00E9419320E9436320E94983297
:10244400A0E1B0E0F9C6E731A0E0FA0759F4EEECF8
:10245400F0E00E9419320E9420320E94A732A9E9BA
:10246400B1E0E4C6E831A0E0FA0759F4E0E4F0E0B2
:102474000E9419320E9420320E94A7320E94B13277
:10248400DBC6E931A0E0FA0759F4EEE2F0E00E947D
:1024940019320E9420320E9474320E945832D2C6ED
:1024A400EA31A0E0FA0759F4EAEFF0E00E941932A9
:1024B4000E9420320E94BA320E946A32C3C6EB31B3
:1024C400A0E0FA0749F4ECE6F0E00E9419320E9419
:1024D40020320E948F32B6C6EC31A0E0FA0749F4EC
:1024E400E4EAF0E00E9419320E9420320E9486320F
:1024F4009DC6ED31A0E0FA0749F4EAE2F0E00E945B
:1025040019320E9420320E94743290C6EE31A0E04B
:10251400FA0749F4E4E9F0E00E9419320E942032FB
:102524000E94BA3289C6EF31A0E0FA0759F4EEE608
:10253400F0E00E9419320E9420320E94C332A9E9BD
:10254400B1E074C6E032A0E0FA0759F4E6E8F0E03E
:102554000E9419320E9420320E9486320E94583210
:1025640071C6E132A0E0FA0749F4EEE8F0E00E9417
:1025740019320E942032A0E2B0E052C6E232A0E05A
:10258400FA0759F4EAE5F0E00E9419320E94203279
:102594000E94CA320E94D13255C6E332A0E0FA0743
:1025A40059F4EAEDF0E00E9419320E9420320E94B0
:1025B400D4320E946A3246C6E432A0E0FA0759F4E3
:1025C400E2EAF0E00E9419320E94DB320E943632C5
:1025D4000E944A3237C6E532A0E0FA0759F4E4E033
:1025E400F1E00E9419320E9420320E94CA320E94F5
:1025F400EE3228C6E632A0E0FA0759F4E6E3F0E04A
:102604000E9419320E9420320E94CA32A6E9B1E027
:102614000DC6E732A0E0FA0749F4E8E1F1E00E94D0
:1026240019320E9420320E94D43206C6E832A0E059
:10263400FA0749F4E6EAF0E00E9419320E94DB321C
:10264400A0E1B0E0F9C5E932A0E0FA0759F4EEE1FF
:10265400F0E00E9419320E9420320E9461320E94EE
:102664006D32EAC5EA32A0E0FA0759F4ECE5F0E08D
:102674000E9419320E9436320E94F1320E946A325C
:10268400E1C5EB32A0E0FA0759F4E2E6F0E00E947B
:1026940019320E9420320E94C3320E94D132D2C524
:1026A400EC32A0E0FA0719F40E94FC32CBC5ED32FB
:1026B400A0E0FA0769F4E0E1F0E00E9419320E9418
:1026C40020320E9461320E946D320E946A32BAC581
:1026D400EE32A0E0FA0749F4E0E5F0E00E94193296
:1026E4000E9436320E94F132A7C5EF32A0E0FA0709
:1026F40059F4E8E6F0E00E9419320E9420320E9468
:10270400C332A6E9B1E092C5E033A0E0FA0719F4B8
:102714000E94FC3297C5E133A0E0FA0759F4E4E2E1
:10272400F0E00E9419320E9420320E9461320E941D
:10273400583288C5E233A0E0FA0759F4E4E1F0E046
:102744000E9419320E9420320E94D4320E946A32BE
:1027540079C5E333A0E0FA0759F4E2E8F0E00E9417
:1027640019320E9420320E9412330E94EE326AC54E
:10277400E433A0E0FA0749F4E6E0F1E00E941932FC
:102784000E9420320E94193357C5E533A0E0FA07AE
:1027940049F4ECE4F0E00E9419320E9420320E94D5
:1027A400613244C5E633A0E0FA0749F4ECE1F0E015
:1027B4000E9419320E9420320E94D4323DC5E73370
:1027C400A0E0FA0749F4E4E1F1E00E9419320E9422
:1027D4002032AAE1B0E024C5E833A0E0FA0759F4B6
:1027E400EEEEF0E00E9419320E9420320E9419336A
:1027F4000E946A3227C5E933A0E0FA0759F4E8EFEA
:10280400F0E00E9419320E9420320E9428330E9474
:102814006A3218C5EA33A0E0FA0759F4E4EEF0E0AE
:102824000E9419320E9420320E94C3320E94D13287
:1028340009C5EB33A0E0FA0759F4E2E5F0E00E94A1
:1028440019320E9420320E9431330E94AE32FAC4FF
:10285400EC33A0E0FA0779F4E0E9F0E00E941932E1
:102864000E9420320E943833A0E9B1E00E946D3208
:102874000E946A32E7C4ED33A0E0FA0749F4ECEFB2
:10288400F0E00E9419320E9420320E94BA32D4C46D
:10289400EE33A0E0FA0759F4E8E2F0E00E941932BE
:1028A4000E9420320E94C332A6E9B1E0BFC4EF33D4
:1028B400A0E0FA0759F4E4E3F0E00E9419320E9420
:1028C40020320E943133A9E9B1E0B0C4E034A0E081
:1028D400FA0749F4ECEEF0E00E9419320E9420322B
:1028E4000E942833A9C4E134A0E0FA0759F4ECECBF
:1028F400F0E00E9419320E9420320E943F330E946D
:102904005832A0C4E234A0E0FA0759F4ECEBF0E04A
:102914000E9419320E9420320E9431330E944833AF
:102924008BC4E334A0E0FA0759F4ECE9F0E00E9428
:1029340019320E9420320E943133A6E9B1E076C4F4
:10294400E434A0E0FA0749F4ECE7F0E00E9419321D
:102954000E9420320E94863269C4E534A0E0FA075E
:1029640049F4E2EDF0E00E9419320E9420320E9404
:102974003F335CC4E634A0E0FA0769F4E6EEF0E025
:102984000E9419320E9420320E9431330E9448333F
:102994000E946A3257C4E734A0E0FA0759F4E4EB22
:1029A400F0E00E9419320E9420320E9431330E94CA
:1029B400D13248C4E834A0E0FA0759F4ECEAF0E074
:1029C4000E9419320E9420320E9486320E9458329C
:1029D40039C4E934A0E0FA0769F4E2E1F0E00E94C6
:1029E40019320E943632EBE6F5E00E9412330E945F
:1029F400D13228C4EA34A0E0FA0759F4E2EBF0E05B
:102A04000E9419320E9420320E9461320E94583280
:102A140019C4EB34A0E0FA0759F4ECE0F1E00E94A9
:102A240019320E9420320E94CA320E94D1320AC452
:102A3400EC34A0E0FA0719F40E94FC3203C4ED342C
:102A4400A0E0FA0769F4E6E2F0E00E9419320E947D
:102A54003632EBE6F5E00E941233A6E9B1E0E6C3B4
:102A6400EE34A0E0FA0759F4ECE1F1E00E941932E7
:102A74000E9420320E944B33A6E9B1E0D7C3EF3461
:102A8400A0E0FA0759F4E2E1F1E00E9419320E9451
:102A940020320E94CA32A6E9B1E0C8C3E035A0E002
:102AA400FA0719F40E94FC32CDC3E135A0E0FA071D
:102AB40059F4EAEEF0E00E9419320E9420320E949A
:102AC40052330E945832BEC3E235A0E0FA0759F4EB
:102AD400E8EDF0E00E9419320E9420320E945B333C
:102AE4000E945832AFC3E335A0E0FA0769F4ECE87A
:102AF400F0E00E9419320E942032A2E2B0E00E946B
:102B04006433A9E9B1E092C3E435A0E0FA0759F4CB
:102B1400E0EAF0E00E9419320E9469330E947233A5
:102B2400A0E1B0E089C3E535A0E0FA0749F4EEEA94
:102B3400F0E00E9419320E9420320E94523376C380
:102B4400E635A0E0FA0749F4E6EFF0E00E94193216
:102B54000E9420320E945B3369C3E735A0E0FA0784
:102B640059F4E4ECF0E00E9419320E9420320E94F1
:102B740079330E94AE3266C3E835A0E0FA0769F4FF
:102B8400EEE7F0E00E9419320E9469330E9472332A
:102B94000E9436320E944A3255C3E935A0E0FA0752
:102BA40059F4ECE2F0E00E9419320E9420320E94B3
:102BB40038330E94D13246C3EA35A0E0FA0749F41B
:102BC400E0EFF0E00E9419320E9420320E94273286
:102BD40033C3EB35A0E0FA0759F4E8EAF0E00E94C9
:102BE40019320E9420320E94C332A9E9B1E01EC307
:102BF400EC35A0E0FA0719F40E94FC3223C3ED354A
:102C0400A0E0FA0759F4E0E3F0E00E9419320E94D0
:102C140020320E943833A6E9B1E008C3EE35A0E0C3
:102C2400FA0759F4E4EFF0E00E9419320E942032CE
:102C34000E9427320E946A3205C3EF35A0E0FA07EA
:102C440049F4EEE9F0E00E9419320E9420320E9419
:102C54008F32F8C2E036A0E0FA0719F40E94FC3281
:102C6400F1C2E136A0E0FA0759F4EAE6F0E00E9486
:102C740019320E9420320E9486320E945832E2C2E7
:102C8400E236A0E0FA0769F4EEEBF0E00E941932B4
:102C94000E9420320E944F320E947C330E946A328A
:102CA400D1C2E336A0E0FA0759F4EAEBF0E00E945F
:102CB40019320E9420320E944B33A9E9B1E0B6C216
:102CC400E436A0E0FA0759F4E0E6F0E00E94193295
:102CD4000E9420320E9461320E945832B3C2E5360B
:102CE400A0E0FA0749F4E0E7F0E00E9419320E94FC
:102CF40020320E9486329AC2E636A0E0FA0759F4DE
:102D0400EAE8F0E00E9419320E9420320E944F3219
:102D14000E947C3391C2E736A0E0FA0759F4E0E858
:102D2400F0E00E9419320E9420320E944B330E942C
:102D3400AE3288C2E836A0E0FA0749F4E6EBF0E0E8
:102D44000E9419320E9420320E9461326FC2E93619
:102D5400A0E0FA0769F4E4E4F0E00E9419320E946A
:102D640020320E9483330E94B1320E946A326AC2C6
:102D7400EA36A0E0FA0749F4EAE3F0E00E941932E7
:102D84000E9420320E94D43257C2EB36A0E0FA07E8
:102D940019F40E94FC3256C2EC36A0E0FA0769F43A
:102DA400E6ECF0E00E9419320E9420320E94313396
:102DB4000E9448330E946A3245C2ED36A0E0FA0709
:102DC40059F4EAE0F0E00E9419320E9436320E947F
:102DD4003B32A0E1B0E030C2EE36A0E0FA0759F48D
:102DE400E2E3F0E00E9419320E9420320E94D432C1
:102DF4000E946A3227C2EF36A0E0FA0719F40E9453
:102E0400FC3220C2E037A0E0FA0759F4E2EEF0E029
:102E14000E9419320E9420320E9431330E944833AA
:102E24000BC2E137A0E0FA0769F4E4EDF0E00E9498
:102E340019320E9420320E9486330E9448330E9435
:102E44006A3200C2E237A0E0FA0779F4EAE4F0E07B
:102E54000E9419320E9436320E9489330E947233D2
:102E6400AFE0B0E00E946A32EDC1E337A0E0FA07B8
:102E740069F4E6E7F0E00E9419320E948C33ACE971
:102E8400B1E00E946D320E946A32DCC1E437A0E0F6
:102E9400FA0759F4E2E9F0E00E9419320E94203264
:102EA4000E94CA32A6E9B1E0C1C1E537A0E0FA0741
:102EB40059F4EAE1F1E00E9419320E9420320E94A2
:102EC40086330E944833B8C1E637A0E0FA0759F4C4
:102ED400E6E5F0E00E9419320E9436320E948933FE
:102EE4000E944833A9C1E737A0E0FA0759F4E2E7A2
:102EF400F0E00E9419320E948C33ACE9B1E00E94E8
:102F04006D329AC1E837A0E0FA0759F4E0EDF0E039
:102F14000E9419320E9420320E94CA320E94D13289
:102F240091C1E937A0E0FA0769F4E8E4F0E00E940F
:102F340019320E9436320E9489330E9448330E941B
:102F44006A3280C1EA37A0E0FA0759F4EAE9F0E00E
:102F54000E9419320E9420320E944B330E94D132C7
:102F640071C1EB37A0E0FA0769F4E6E4F0E00E94EF
:102F740019320E9436320E9493330E9498330E9481
:102F84006A3260C1EC37A0E0FA0789F4E0EEF0E0C1
:102F94000E9419320E94A133A5E1B0E00E9464337B
:102FA4000E947233A3E1B0E00E946A324BC1ED3754
:102FB400A0E0FA0759F4E8E3F0E00E9419320E9415
:102FC40020320E944B330E94483336C1EE37A0E0D2
:102FD400FA0759F4EAECF0E00E9419320E94203218
:102FE4000E944B33A6E9B1E021C1EF37A0E0FA0714
:102FF40059F4EEEDF0E00E9419320E9436320E943C
:1030040093330E94983318C1E038A0E0FA0769F4BA
:10301400E6E1F1E00E9419320E943632EBE6F5E077
:103024000E944F320E94A83307C1E138A0E0FA079A
:1030340079F4E8EEF0E00E9419320E94A1330E9474
:10304400AF33A9E9B1E00E94A8330E946A32FAC002
:10305400E238A0E0FA0769F4E2EFF0E00E941932E6
:103064000E94B2330E9472330E9436320E944A3266
:10307400E9C0E338A0E0FA0749F4E8E0F1E00E948F
:1030840019320E942032AFE1B0E0CAC0E438A0E0B7
:10309400FA0759F4E4E6F0E00E9419320E94203263
:1030A4000E9431330E94EE32CDC0E538A0E0FA0729
:1030B40069F4E8E8F0E00E9419320E94A1330E940A
:1030C400AF33A9E9B1E00E94A833B6C0E638A0E066
:1030D400FA0759F4EEE0F1E00E9419320E94B2338B
:1030E4000E947233A0E1B0E0A7C0E738A0E0FA077D
:1030F40059F4E4E5F0E00E9419320E9420320E9463
:1031040083330E94EE329EC0E838A0E0FA0779F4D7
:10311400EEE3F0E00E9419320E943632EBE6F5E06D
:103124000E94AF330E94B933A0E1B0E085C0E93812
:10313400A0E0FA0759F4ECE0F0E00E9419320E9492
:1031440020320E94D4320E946A327CC0EA38A0E065
:10315400FA0759F4ECEDF0E00E9419320E9436327D
:10316400EBE6F5E00E94273267C0EB38A0E0FA07EF
:1031740059F4E8E5F0E00E9419320E9420320E94DE
:103184008633A6E9B1E052C0EC38A0E0FA0779F43E
:10319400ECE3F0E00E9419320E9436320E9493332D
:1031A4000E94B9330E9436320E944A324BC0ED3835
:1031B400A0E0FA0749F4EEE0F0E00E9419320E9420
:1031C40020320E94D43238C0EE38A0E0FA0769F405
:1031D400EAE0F1E00E9419320E943632EBE6F5E0B3
:1031E4000E9427320E946A322DC0EF38A0E0FA070D
:1031F40059F4E2E2F0E00E9419320E9420320E9467
:1032040086330E94D1321EC0E039A0E0FA0769F586
:10321400E6E6F0E00E9419320E942032ACE1B0E010
:10322400A083B183EDE6F5E0ACE9B1E0A083B1831E
:10323400E1E7F5E0A2E1B0E0A083B183E5E7F5E0E2
:10324400A1E0B0E0A083B1830E94C0333196E09343
:103254006505F09366050E94C533E0936705F09316
:1032640068050E94CA330E94CF33A0917B05B091B8
:103274007C05D29739F40E94DE333597E0936905D3
:10328400F0936A050E94E333A0E0B0E00E943A3A6A
:103294000E2EA0919505B09196050E94E833E02981
:1032A40039F00E94ED333597E0937105F093720580
:1032B4000E94F233989739F40E94C5337396E093D1
:1032C4006B05F0936C050E94DE333697E093690535
:1032D400F0936A050E94F7333697E0936705F093FD
:1032E40068050E94FC330E94E8330E9401340E9466
:1032F40009340E94013439F00E94CA3370960E9446
:103304000F340E94CF330E9414340E94013439F0E8
:103314000E94CA33B0960E940F340E94CF330E9499
:103324001A340E94013439F00E94CA33F0960E9484
:103334000F340E94CF330E94FC330E94E8330E9472
:10334400203439F00E94CA33F9960E940F340E9447
:10335400CF330E9409340E94203441F00E94CA33C2
:10336400EE5BFF4F0E940F340E94CF330E9414344F
:103374000E94203441F00E94CA33E55BFF4F0E9453
:103384000F340E94CF330E941A340E94203441F03B
:103394000E94CA33EC5AFF4F0E940F340E94CF336D
:1033A400229608950E94A7300E9456310E945B0421
:1033B400E030F1F40E9428340E942B341A9B02C09E
:1033C4000E9433341B9B02C00E943B340E9443344E
:1033D40011F40E9448340E94D031E0EEF5E00E94DE
:1033E40016320E945E34E0EEF5E00E946D34DCCFCC
:1033F400979B22C0002E012A61F40E9456310E943C
:103404005B04E13029F40E946C310E9471318F0118
:10341400F1CF0E94D0310E945E340E947A3411F4BC
:103424000E9481340E94883411F40E948E340E94D8
:10343400953411F40E949B34B0C00E94A7300E94BE
:10344400B6340E94E8330E94BB34E02111F40C949A
:10345400791A0E9456310E945404E130F1F40E941A
:1034640028340E942B341A9B02C00E9433341B9BC5
:1034740002C00E943B340E94433411F40E94483439
:103484000E94D031E8E0F6E00E9416320E945E34D9
:10349400E8E0F6E00E946D34DCCF979B28C0002E54
:1034A400012A91F40E9456310E946031EF930E94E8
:1034B40056310E946631AF91EA2329F00E946C31A3
:1034C4000E9471318F01EBCF0E94D0310E945E3493
:1034D4000E947A3411F40E9481340E94883411F4D9
:1034E4000E948E340E94953411F40E949B340E94F1
:1034F400C1340E94BB34E02111F40C94CF1A0E9411
:1035040056310E945704E130F1F40E9428340E949D
:103514002B341A9B02C00E9433341B9B02C00E94AE
:103524003B340E94433411F40E9448340E94D03149
:10353400E8E0F6E00E9416320E945E34E8E0F6E02D
:103544000E946D34DCCF979B28C0002E012A91F491
:103554000E9456310E946031EF930E9456310E94BE
:103564006631AF91EA2329F00E946C310E947131D7
:103574008F01EBCF0E94D0310E945E340E947A34D6
:1035840011F40E9481340E94883411F40E948E3414
:103594000E94953411F40E949B3409911991089565
:1035A4000E94C7340E94CC340E94CF340E94D53488
:1035B4000E94DA340E94E5300E94E0040E94E33362
:1035C400FA93EA93E0E3F0E00E94DE300E94E00424
:1035D400E0917B05F0917C050E94DA340E94B031C1
:1035E4000E94E004E0917D05F0917E050E94DA34AA
:1035F4000E94B5310E94E004E0917F05F0918005BE
:103604000E94CC340E94A5310E94E004E09181051F
:10361400F09182050E94DA340E94DD34ACE0B0E01F
:103624000E947A3AFA93EA930E94A5310E94DD340B
:10363400AAE0B0E00E947A3A0E94DA340E94A531EE
:103644000E94E0040E94D9300E94DE300E94E530DE
:103654000E94EA30E8E2F0E00E94CC340E94DD34BB
:103664000895E0912D05F0912E053097B9F40E944C
:10367400D031EEE2F6E00E9416320E945E34EEE2B1
:10368400F6E00E946D340E94E3340E946C310E9483
:103694007131E0932D05F0932E05E3CF0E9456314E
:1036A4000E94E934EF930E9456310E94EF34AF91A7
:1036B400EA2B69F00E94D031E7E5F6E00E94163269
:1036C4000E945E34E7E5F6E00E946D34E7CFC49AC9
:1036D4000E94E334C69A0E94F5340E94FF34EF93AB
:1036E4000E94F5340E940535AF91EA2B11F40C9435
:1036F400FF1B0E9456310E94E934EF930E94563119
:103704000E94EF34AF91EA2B79F00E940B35ECE67E
:10371400F6E00E9416320E945E340E9410350E9428
:1037240028340E94CF34F1CF0E9456310E945B04AA
:10373400E03079F40E940B35EBEAF6E00E94163291
:103744000E945E340E9410350E9428340E94CF34B7
:10375400F1CF0E94D031E0EDF6E00E9416320E94D3
:103764005E34E0EDF6E00E946D340E94E3340E9482
:10377400F5340E946004E03041F40E94D031EFEE51
:10378400F6E00E9416320E94E3340E94F5340E944F
:103794007504E03041F40E945E34EEE0F7E00E94EC
:1037A40016320E94E3340E9456310E941335EF937F
:1037B4000E9456310E940535AF91EA2BE9F0979AA1
:1037C4000E9456310E947004E13041F40E94D031CD
:1037D400EDE2F7E00E9416320E94E3340E94563173
:1037E4000E947504E13041F40E94D031EFE3F7E028
:1037F4000E9416320E94E3346ECFC498929A0E94BB
:10380400E3340E94C6310E94FF34EF930E941935BD
:103814000E94FF34AF91EA2B11F40C94991C0E947E
:1038240056310E94E934EF930E9456310E94EF34DE
:10383400AF91EA2B99F0979AC6980E94D031ECE6A2
:10384400F6E00E9416320E945E340E941035C4983D
:1038540092980E9428340E94CF34EDCF0E945631B2
:103864000E945B04E03079F40E940B35EBEAF6E049
:103874000E9416320E945E340E9410350E94283441
:103884000E94CF34F1CF0E94D031E0EDF6E00E94E7
:1038940016320E945E34E0EDF6E00E946D340E9420
:1038A400E3340E94C6310E946004E03041F40E9477
:1038B400D031E1E5F7E00E9416320E94E3340E9421
:1038C40019350E946004E03041F40E945E34E0E760
:1038D400F7E00E946D340E94E3340E94C6310E94D6
:1038E4002335EF930E9419350E942335AF91EA2BBB
:1038F400E9F0979A0E94C6310E946A04E13041F4CB
:103904000E94D031EFE8F7E00E9416320E94E334BF
:103914000E9419350E946A04E13041F40E94D031BA
:10392400E1EAF7E00E9416320E94E3346ACF0E9473
:10393400D031E3EBF7E00E9416320E945E34E3EBF1
:10394400F7E00E946D349298C6980E94E3340E9476
:1039540028340E94CF340E94293508950E9456319C
:103964000E946031EF930E9456310E946631AF91FC
:10397400EA2311F40C94041D0E9419350E9470046A
:10398400A0E00E94353AEF930E9419350E94750415
:10399400A0E00E94353AAF910E942F350E9436353F
:1039A400E02131F0E1E0F0E0E0935F05F0936005A1
:1039B4000E9419350E941335EF930E9419350E9415
:1039C4000535AF910E942F350E94E833E02131F094
:1039D400E2E0F0E0E0935F05F09360050E943B3580
:1039E400E1E00E94353AE02119F01E980E94483522
:1039F4000E943B35E0E00E94353AE02119F01E9A1E
:103A04000E94483508951A930A93A0912105B09114
:103A140022058091230590912405AD33E0E0BE0793
:103A2400E0E08E07E0E09E0714F40C94611D0E9410
:103A34005335F501D4010E944C3AEF930E94EA31C8
:103A44000E94E934EF930E94EA310E94EF34AF916F
:103A5400EA2BEF930E94EA310E945B04A1E00E94EA
:103A6400353AAF91EA2BEF930E94EA310E94FF347A
:103A7400AF91EA2BEF930E94EA310E946604A1E021
:103A84000E94353AAF91EA2BEF930E94EA310E94EB
:103A94002335AF91EA2BEF930E94EA310E9413354C
:103AA400AF91EA2BEF930E94EA310E940535AF9162
:103AB400EA2BAF91EA2319F0F40131964F01A814CF
:103AC400B90441F40E9469068F010E945335F40140
:103AD40031964F01F5013196E815F90511F4882462
:103AE40099240991199108950E94C6310E946A048B
:103AF400E13019F4979A1A981B980E945D3511F4D5
:103B04000E946335E0913305F0913405309711F04C
:103B14000C94D11D0E946735E881E0930905E1709A
:103B240011F4D89801C0D89AE0910905E27011F413
:103B3400D99801C0D99AE0910905E47011F4DA9892
:103B440001C0DA9AE0910905E87011F4DB9801C02C
:103B5400DB9AE0910905E07111F4DC9801C0DC9A6C
:103B6400E0910905E07211F4DD9801C0DD9AE0915D
:103B74000905E07411F4DE9801C0DE9AE0910905AC
:103B8400E07811F4DF9801C0DF9AA881B981A030F0
:103B9400E1E0BE070CF0949AE1E0F0E047C0E130C8
:103BA400A0E0FA0789F4A0911105B0911205809163
:103BB4001305909114050E9471352CF0939AE2E05C
:103BC400F0E00E94793536C0E230A0E0FA0789F4CB
:103BD4000E94C6310E945404E03051F49398E0E00E
:103BE400EBBB94980E946735E3E0F0E00E947935DE
:103BF40021C0E330A0E0FA0769F40E94C6310E94B4
:103C04006004E03031F40E946735E4E0F0E00E94A3
:103C1400793510C0E430A0E0FA0761F40E94C6319F
:103C24000E945404E13031F4E5E0F0E0E093330520
:103C3400F0933405E0913305F091340580C10E947E
:103C440019350E946A04E13019F4979A1A981B985E
:103C54000E945D3511F40E946335E0913705F091BF
:103C64003805309711F00C947C1E0E947E35E88153
:103C7400E0930A05E17011F4A89801C0A89AE091B4
:103C84000A05E27011F4A99801C0A99AE0910A0505
:103C9400E47011F4AA9801C0AA9AE0910A05E870A8
:103CA40011F4AB9801C0AB9AE0910A05E07111F4EC
:103CB400AC9801C0AC9AE0910A05E07211F4AD9899
:103CC40001C0AD9AE0910A05E07411F4AE9801C008
:103CD400AE9AE0910A05E07811F4AF9801C0AF9A6A
:103CE400A881B981A030E1E0BE070CF0959AE1E02B
:103CF400F0E047C0E130A0E0FA0789F4A09119058B
:103D0400B0911A0580911B0590911C050E94713594
:103D14002CF0969AE2E0F0E00E94883536C0E2305A
:103D2400A0E0FA0789F40E9419350E945404E03097
:103D340051F49698E0E0E5BB95980E947E35E3E067
:103D4400F0E00E94883521C0E330A0E0FA0769F46E
:103D54000E9419350E946004E03031F40E947E35DF
:103D6400E4E0F0E00E94883510C0E430A0E0FA07F7
:103D740061F40E9419350E945404E13031F4E5E005
:103D8400F0E0E0933705F0933805E0913705F091C2
:103D94003805D5C00E9456310E947504E13019F4EB
:103DA400979A1A981B980E945D3511F40E94633506
:103DB400E0913505F0913605309711F00C94271FEA
:103DC400E881E0930705E1700E2EE0910005EE7F97
:103DD4000E948D35E695E170EE0F0E2EE091000500
:103DE400ED7F0E948D35E695E695E170EE0FEE0FBE
:103DF4000E2EE0910005EB7F0E948D35E695E69549
:103E0400E695E170EE0FEE0FEE0F0E2EE091000539
:103E1400E77F0E948D35E295E170E795E0E0E79554
:103E24000E2EE0910005EF77E0290E949335E09192
:103E34000705E07211F4C79801C0C79A0E9498352B
:103E4400E1E0F0E00E94A23576C0E130A0E0FA079C
:103E5400A9F4A0911505B0911605809117059091CC
:103E640018050E9471354CF0E0910005E0620E9453
:103E74009335E2E0F0E00E94A2355DC0E230A0E0BC
:103E8400FA0721F50E94F5340E945404E030E9F465
:103E9400E0910005EF7D0E949335E0910005EE7FEF
:103EA4000E94A735ED7F0E94A735EB7F0E94A735BE
:103EB400E77F0E94A735EF770E949335C7980E9449
:103EC4009835E3E0F0E00E94A23535C0E330A0E08D
:103ED400FA0769F40E94F5340E946004E03031F47A
:103EE4000E949835E4E0F0E00E94A23524C0E4305A
:103EF400A0E0FA0701F50E94F5340E945404E13071
:103F0400D1F4E5E0F0E00E94A235E0914305F091A0
:103F14004405309739F4E1E0F0E0E0934305F09391
:103F2400440509C0E130A0E0FA0729F4E0E0E09399
:103F34004305E0934405E0913505F091360522965A
:103F440008950E9456310E947004E13019F4979A42
:103F54001A981B980E945D3511F40E946335E09114
:103F64003905F0913A05309749F5EA81E09308055F
:103F7400E17011F4C09801C0C09AE0910805E270A4
:103F840011F4C19801C0C19AE0910805E47011F4DC
:103F9400C29801C0C29AE0910805E87011F4C39870
:103FA40001C0C39AE0910805E07111F41C9801C0A6
:103FB4001C9A0E94AA35E1E0F0E049C0E130A0E09B
:103FC400FA0789F4A0911D05B0911E0580911F0583
:103FD400909120050E9471352CF0C59AE2E0F0E042
:103FE4000E94B43538C0E230A0E0FA0799F40E9488
:103FF400F5340E946604E03061F4C598C098C19815
:10400400C298C3981C980E94AA35E3E0F0E00E948D
:10401400B43521C0E330A0E0FA0769F40E94F53416
:104024000E947504E03031F40E94AA35E4E0F0E027
:104034000E94B43510C0E430A0E0FA0761F40E9495
:10404400F5340E946604E13031F4E5E0F0E0E093F9
:104054003905F0933A05E0913905F0913A05249633
:10406400089568970E94AC3A20E030E000E010E048
:1040740040E050E04B30E0E05E0744F4FA010E9477
:10408400B9350E9411324F5F5F4FF4CFE1E9F0E0A0
:10409400E0939305F09394050E9482310E94773156
:1040A400E0939305F0939405A0919305B091940542
:1040B400A139E0E0BE0761F0E0919305F091940529
:1040C400E0930D05F0930E05E0930F05F0931005B2
:1040D4000E94C0350E94E8330E2E0E94C5350E940E
:1040E40036350E94CA350E94DB350E94E535EF93D0
:1040F4000E9456310E946031AF91EA23EF930E94EF
:1041040056310E946631AF91EA2311F40C94C32115
:104114000E94C035119711F00C94C321F801309717
:1041240049F40E94EF350E94F5350E94EF3501E015
:1041340010E026C1E130A0E0FA07C1F40E9408367D
:10414400159724F40E946C310E940D360E9410369B
:10415400159724F40E9428340E9415360E941836BC
:1041640021F00E94253602E010E00AC1E230A0E00E
:10417400FA07C1F40E942F36159724F40E946C317B
:104184000E9434360E943736159724F40E943C3638
:104194000E9441360E94443621F00E94513603E0C9
:1041A40010E0EEC0E330A0E0FA0789F40E942F3655
:1041B400159724F40E945B360E9434360E942F36F1
:1041C400159721F40E94513604E010E0D9C0E43080
:1041D400A0E0FA0789F40E940836159724F40E9497
:1041E400C5330E945F360E940836159721F40E9459
:1041F400513605E010E0C4C0E530A0E0FA0711F044
:104204000C9480210E9482310E94B0310E947D046E
:104214009F01022E032A11F40AE912E00E94623679
:1042240021F00E9469360E94FD310E946D360E22F3
:10423400AC85BD850E943635E02121F00E946936A7
:104244000E94FD310E9476360E22AE85BF850E9403
:104254003635E02121F00E9469360E94FD310E942A
:104264007F360E22A889B9890E943635E02121F0D3
:104274000E9469360E94FD310E9488360E22AA8966
:10428400BB890E943635E02121F00E9469360E94E4
:10429400FD310E9491360E22AC89BD890E943635CB
:1042A400E02121F00E9469360E94FD310E949A3675
:1042B4000E22AE89BF890E943635E02121F00E948A
:1042C40069360E94FD310E94A3360E22A88DB98D55
:1042D4000E943635E02121F00E9469360E94FD31AA
:1042E4000E94AC360E22AA8DBB8D0E943635E02189
:1042F40021F00E9469360E94FD3142C0E630A0E000
:10430400FA0789F40E940836159724F40E946C3148
:104314000E940D360E940836159721F40E945136EA
:1043240007E010E02DC0E730A0E0FA0779F40E941E
:104334002F36159714F40E94B5360E942F36159720
:1043440021F40E94513604E010E01AC0EA39A2E0D8
:10435400FA07B1F40E940836159724F40E946C31D0
:104364000E940D360E940836159751F40E94253696
:1043740004E610E0E0E0E0938305E0938405C6984A
:10438400C7CE0E94C0350E9436350E2E0E94C53518
:104394000E94E8330E94CA350E94BA360E94BF3692
:1043A4000E220E94C436E02111F40C9412230E94C0
:1043B400C535119711F00C941223F801309749F484
:1043C4000E94CD360E94F5350E94CD3601E010E002
:1043D40026C1E130A0E0FA07C1F40E94083615971F
:1043E40024F40E946C310E940D360E9410361597F9
:1043F40024F40E9428340E9415360E94183621F0B5
:104404000E94253602E010E00AC1E230A0E0FA077B
:10441400C1F40E942F36159724F40E94D3360E94CB
:1044240034360E943736159724F40E94D8360E94F9
:1044340041360E94443621F00E94513603E010E0D8
:10444400EEC0E330A0E0FA0789F40E942F361597F6
:1044540024F40E94DD360E9434360E942F361597CC
:1044640021F40E94513604E010E0D9C0E430A0E009
:10447400FA0789F40E940836159724F40E94C5337C
:104484000E945F360E940836159721F40E94513627
:1044940005E010E0C4C0E530A0E0FA0711F00C9488
:1044A400CF220E9482310E94B5310E947D049F0177
:1044B400022E032A11F40AE912E00E94623621F066
:1044C4000E9469360E94FD310E946D360E22AC8531
:1044D400BD850E943635E02121F00E9469360E9494
:1044E400FD310E9476360E22AE85BF850E94363598
:1044F400E02121F00E9469360E94FD310E947F363E
:104504000E22A889B9890E943635E02121F00E9443
:1045140069360E94FD310E9488360E22AA89BB8921
:104524000E943635E02121F00E9469360E94FD3157
:104534000E9491360E22AC89BD890E943635E02155
:1045440021F00E9469360E94FD310E949A360E22A3
:10455400AE89BF890E943635E02121F00E94693678
:104564000E94FD310E94A3360E22A88DB98D0E94AF
:104574003635E02121F00E9469360E94FD310E9407
:10458400AC360E22AA8DBB8D0E943635E02121F077
:104594000E9469360E94FD3142C0E630A0E0FA076D
:1045A40089F40E940836159724F40E946C310E9405
:1045B4000D360E940836159721F40E94513607E003
:1045C40010E02DC0E730A0E0FA0779F40E942F36FE
:1045D400159714F40E94B5360E942F36159721F4CE
:1045E4000E94513604E010E01AC0EA39A2E0FA074A
:1045F400B1F40E940836159724F40E946C310E948D
:104604000D360E940836159751F40E94253604E6AB
:1046140010E0C698E0E0E0938505E0938605C7CEF8
:104624000E94B33A6E9608950E94D9300F01ACE00F
:10463400B0E00E947A3A0E161F069CF0E091000545
:10464400E0640E9493350E94E4360E94E9360E9499
:10465400C504E6EDF7E0FA93EA930E94E9360E9476
:10466400C504A6E0B0E00E947A3A0F01AAE0B0E0E7
:104674000E947A3A0E161F069CF0E0910005E06451
:104684000E9493350E94E4360E94EC360E94C504D1
:10469400E1EFF7E0FA93EA930E94EC360E94C50436
:1046A400089524970E94AC3AE0E0EE83EF830E94E1
:1046B40056310E946031EF930E9456310E94663158
:1046C400AF91EA2371F00E9482310E94F8310E9476
:1046D4007D048F010E9482310E9482310E947D04F8
:1046E400AF01E1E0F0E0E017F10711F00C94582479
:1046F400EE81FF81309741F40E945136C69AE1E081
:10470400F0E0EE83FF83D1C0E130A0E0FA07D1F4FA
:104714000E940836159724F40E946C310E940D36CD
:104724000E941036159724F40E9428340E941536EE
:104734000E94183631F00E942536E2E0F0E0EE8364
:10474400FF83B3C0E230A0E0FA07C1F40E942F3621
:10475400159724F40E94EF360E9434360E943736AF
:10476400159724F40E94EF360E9441360E94443685
:1047740021F00E9451360E94F43697C0E330A0E045
:10478400FA0711F00C942F240E940836159724F48C
:10479400E2E0F0E00E945F360E941036159734F490
:1047A400E2E0F0E00E94DE300E9415360E941836E6
:1047B40011F40C942E240E9425360E9482310E940A
:1047C400F8310E947D04E887F987309781F4C69A0E
:1047D4000E9456310E946031EF930E9456310E942C
:1047E4006631AF91EA2311F00E94F93635C0E13009
:1047F400A0E0FA0721F40E94F436C6982DC0E230F6
:10480400A0E0FA0749F5C69AE1E0F0E0E093770505
:10481400F0937805E0910005EF7B0E949335E0E08A
:10482400E0938905E0938A050E9443310E94F804CD
:104834000E94E4360E94E9360E94C5040E94563163
:104844000E946031EF930E9456310E946631AF910D
:10485400EA2311F00E94F93628C0E430A0E0FA07F8
:1048640021F50E940836159724F40E946C310E94A9
:104874000D360E941036159724F40E9428340E94A5
:1048840015360E94183689F00E9451360E946C3108
:104894000E9482310E94F8310E94E004C698E5E04B
:1048A400F0E0EE83FF8300E010E01BCF0E94823132
:1048B4000E9482310E947D04AF01E0E0EE83EF8329
:1048C400E1E0F0E0E417F50711F00C942D25EE81FA
:1048D400FF81309741F40E945136C69AE1E0F0E03E
:1048E400EE83FF83B7C0E130A0E0FA07D1F40E9461
:1048F4000836159724F40E946C310E940D360E94EC
:104904001036159724F40E9428340E9415360E940C
:10491400183631F00E942536E2E0F0E0EE83FF83A2
:1049240099C0E230A0E0FA07C1F40E942F3615972F
:1049340024F40E94EF360E9434360E9437361597CD
:1049440024F40E94EF360E9441360E94443621F03E
:104954000E9451360E94F4367DC0E330A0E0FA078D
:1049640011F00C9404250E940836159724F4E2E013
:10497400F0E00E945F360E941036159734F4E2E0AE
:10498400F0E00E94DE300E9415360E941836C9F10C
:104994000E9425360E9482310E9482310E947D0449
:1049A4009F01F901309721F40E94F936C69A29C073
:1049B400E130A0E0FA0721F4C6980E94F43621C041
:1049C400E230A0E0FA07E9F40E94F936E1E0F0E011
:1049D400E0937905F0937A05C69AE0910005EF7BA0
:1049E4000E949335E0E0E0938705E09388050E94F8
:1049F4004A310E94F8040E94E4360E94EC360E9478
:104A0400C50428C0E430A0E0FA0721F50E94083666
:104A1400159724F40E946C310E940D360E941036C2
:104A2400159724F40E9428340E9415360E941836E3
:104A340089F00E945136E5E0F0E0EE83FF830E94A6
:104A44006C310E9482310E9482310E94E004C69837
:104A540040E050E035CF0E94B33A2A960895E0E052
:104A6400EBBBEFEFEABBE0E0E8BBEFEFE7BBE0E076
:104A7400E5BBEFEFE4BBE0E0E2BBEFEFE1BBE0E07E
:104A8400E3B9EFEFE2B9E0E0E0936200EFEFE09327
:104A94006100E0E0E0936500EFE1E0936400E0E0B2
:104AA400E0BFE7E0E3BFE0E0E2BFE1BFEFBDEEBDA2
:104AB400EDBDECBDE7BDE6BDEBBDEABDE9BDE8BDBE
:104AC400E0937900E0937800E5BDE4BDE3BDE093B5
:104AD4008B00E0938A00E0938900E0938800E093E0
:104AE4008100E0938000E0938700E0938600E093E8
:104AF4008500E0938400E0938300E0938200E093D8
:104B04006A00EABFE9BFE1E0E7BFE0E0E0937D00CF
:104B1400EBB9E8E1EAB9E6E0E0939500E0E0E09380
:104B24009000E8E0E9B9E0E0E0939A00E0E8E8B951
:104B3400E0E0E0BDE6B9EDB9E09374000E94CA3943
:104B440078940E94FE360E94FE360E94FE360E9431
:104B5400FE360E94AC30E3E0EA930E942C2FE0E89A
:104B6400EA930E942C2FE2E0EA930E942C2FE0E1CA
:104B7400EA930E942C2FE1E0F0E05F010E942935C6
:104B84000E940437E0E0E0935B05E0935C050E943B
:104B94000B370E941137689420F821F822F8E7EBCC
:104BA400F0E0E0936105F0936205E4E6F0E0E09361
:104BB4007B05F0937C05E0937D05F0937E05E1E0B1
:104BC400F0E0E0937F05F0938005E2E3F0E0E0930A
:104BD4008105F0938205E4E6F0E0E0938F05F0931D
:104BE4009005E8E7F0E06F01E0E5F0E0E0933B05D5
:104BF400F0933C05E0E0E0933D05E0933E05E0E4FE
:104C0400F0E0E0933F05F0934005E0E0E0934105D8
:104C1400E09342050E94D21A0E94331B0E944A0666
:104C24000E94051D0E94B01CFFDC3BDD0E94F804BD
:104C34000E94E10516DA0E944A06A0912D05B09162
:104C44002E050E94E8330E2E0E94DB350E94BA36F0
:104C5400E1E0F0E00E94403A0E220E94E5351E2E6B
:104C64000E94C4360E2E0E94BA360E943635E029C0
:104C7400E1210E2EA0915B05B0915C050E94E83302
:104C8400E02911F40C94102FE0914705F0914805A8
:104C9400309711F00C941F27C69AE0915B05F091B0
:104CA4005C05309711F00C94CF260E9428340E94A2
:104CB400A5310E94E0040E9428340E94B5310E946C
:104CC400E0040E946C310E9477310E947D310E9481
:104CD40082310E9487310E9471313197A0E0B0E0A7
:104CE4000E948A3AA0E0B0E0E1E0F0E00E948E3158
:104CF4000E94E5300E9495310E949E310E94E33368
:104D0400309731F40E94D53431970E948A3A319613
:104D14000E94F8310E94B0310E947D04E0937B052B
:104D2400F0937C050E94F8310E94B5310E947D0405
:104D3400E0937D05F0937E050E9482310E94A531A7
:104D44000E947D04E0937F05F09380050E94F83172
:104D54000E94AA31E0938105F09382050E9482317A
:104D64000E94AA310E94BA310E94E5300E94BF31EC
:104D74000E9417370E2E0E94C436E02139F00E949B
:104D84001937E0933105F093320505C0E0E0E09374
:104D94003105E09332050E94EF35E1E0F0E0E09365
:104DA4005B05F0935C050E94B634119789F41E9854
:104DB4000E942F36159724F40E94D8360E94343668
:104DC4000E943736159724F40E946C310E944136B4
:104DD4000E94B634129791F40E94051D0E942F364A
:104DE400159724F40E943C360E9434360E943736CC
:104DF400159724F40E94D3360E9441360E9444360B
:104E0400D9F00E94B634129759F41E9903C00E9437
:104E1400B01CFBCFE8EBFBE0FA93EA930E941C3A48
:104E24000E94FE360E9451360E9411370E941E379E
:104E3400E1E0F0E00E942437EFC7E130A0E0FA0798
:104E4400C9F50E9429370E943037E02129F01F9AC2
:104E54000E945B360E9441360E9429370E94C13469
:104E6400E02139F01F9A0E94051D0E94DD360E9440
:104E740041360E9432370E944C3A0E943637E02174
:104E840021F00E943D370E9415360E9437360E9459
:104E940040370E9432370E943A3AE02151F00E9492
:104EA40046370E944C370E945637E2E0F0E00E94F9
:104EB4002437B2C7E230A0E0FA07F1F40E94B63416
:104EC400129711F40E94051D0E941036159734F4B0
:104ED4000E94F7330E945B370E9415360E941036F9
:104EE400159749F41A9A0E945E370E946437E3E0EA
:104EF400F0E00E94243790C7E330A0E0FA0711F0F5
:104F04000C94C7270E94B634129711F40E94051D11
:104F14000E9432370E944C3A0E2E0E946E370E22A7
:104F24000E94C7340E947F3731F00E94DE330E9412
:104F3400DE300E9415360E9432370E9487370E9465
:104F44007F3721F00E948B370E945E370E943237F0
:104F54000E944C3A0E2E0E94C7340E94933731F0BF
:104F6400E3E0F0E00E94DE300E9415360E94323702
:104F74000E9487370E94933739F01A980E945E374F
:104F8400E4E0F0E00E94243747C7E430A0E0FA07E9
:104F9400C1F40E94B634129711F40E94051D0E94B8
:104FA4001036159724F40E943D370E9415360E944E
:104FB4001036159729F41A980E945E370E949B3781
:104FC4002BC7E530A0E0FA0711F00C947F280E946B
:104FD4009E370E220E943037E02121F00E946C316E
:104FE4000E9434360E949E370E220E94C134E02172
:104FF40021F00E94D3360E9434360E94B6341297B0
:1050040011F40E94051D0E94A9370E94AB370E942B
:105014003635E02141F00E944637E1E0F0E0E093CC
:105024004905F0934A050E94B0370E220E9430379A
:10503400E02121F00E945B360E9434360E94B03792
:105044000E220E94C134E02121F00E94DD360E942C
:1050540034360E94B8370E944C3A0E2E0E94BC3758
:1050640011F00E94B5360E9429370E94C3370E946E
:105074003635E02121F0E3E0F0E00E94C8370E94D9
:1050840029370E94CB370E220E943037E02121F0CD
:105094000E943C360E9441360E9429370E94CB3739
:1050A4000E220E94C134E02121F00E94D8360E94D1
:1050B40041360E94B8370E943A3A0E9436370E228F
:1050C4000E94AB370E94E833E0211E2E0E94B837BD
:1050D4000E943A3A0E9436370E220E94BC37E129D8
:1050E40059F00E9446370E944C370E94CD371B9AD4
:1050F400E6E0F0E00E9424378FC6E630A0E0FA072D
:1051040011F00C94D0280E940836159724F40E94BC
:10511400C5330E945F360E94C337119711F40E9471
:10512400D2370E941036159734F40E94F7330E9448
:105134005B370E9415360E94B634129711F40E9410
:10514400051D0E9432370E943A3A0E94D5370E94C8
:105154003A3AE02111F10E94DA370E2E0E943037DC
:10516400E0211E2E0E94E6370E2E0E94C134E0215B
:10517400E12909F01A9A1B9A0E9425360E94EF37FA
:105184000E94A33A24F40E94F4370E94FE370E943E
:105194006437E7E0F0E00E9424373EC6E730A0E041
:1051A400FA07B9F50E94B634129711F40E94051D4E
:1051B4000E9402380E9408380E940C38E0E00E94E5
:1051C40011380E9417380E941C380E9422380E940D
:1051D40028380E9446370E944C370E94CD370E94DF
:1051E400E333DF010E94A33A7CF4E8E0F0E00E949C
:1051F4002437A0919505B0919605119721F4E8E71D
:10520400F3E00E94243704C0E7EEF3E00E94243761
:1052140003C6E837A3E0FA0711F00C94532A0E945E
:105224002E3814F40E943F380E94B634129711F4B9
:105234000E94051D0E94C337119711F40E94D237B2
:105244000E94B8370E944338DF010E94BF360E9493
:1052540047380E943635E02121F00E94CA330E946B
:105264004D380E94A9370E9450380E943635E021FB
:1052740021F00E9446370E9455380E94B8370E9498
:1052840043380E945C380E94E833E02111F00E9408
:1052940063380E94A9370E94E3330E945C380E945D
:1052A400E833E02121F00E9446370E9468380E94CA
:1052B400E3330E947038E02121F00E9446370E94B7
:1052C40079380E94B8370E94803811F00E948A38D9
:1052D4000E94A9370E948F3821F00E9446370E940D
:1052E40096380E9432370E949D380E9436350E94BB
:1052F400A5380E220E946E37E02131F00E94DE3381
:105304000E94DE300E9415360E9432370E94873791
:105314000E94AB380E94B038E02189F00E94B33873
:1053240011F40E945E370E94B93829F40E948B3729
:105334000E94BF3804C00E9428380E9464370E942B
:10534400C6380E9436350E94D138E02121F00E94EF
:10535400ED330E945F360E94D7380E94D5340E94F4
:10536400D9380E944C3A0E94D138E02141F00E9481
:10537400DE3819F40E94E63802C00E9422380E94E6
:10538400C6380E94E833E02121F00E94C5330E9410
:105394005F360E9432370E949D380E94E8330E9493
:1053A400A538E02121F00E94F4380E9415360E94AD
:1053B400D7380E94D5340E94F7380E94C7340E941F
:1053C400FC380E9447380E94003911F00E940639C7
:1053D4000E940F390E94D5370E944C3AE02111F007
:1053E4000E9414390E94D7380E940F39E02111F02D
:1053F4000E9417390E9432370E9487370E941B3956
:105404000E220E94D5340E94D9380E94403AE021ED
:1054140029F01A980E945E370E941F390E9426398B
:105424000E2E0E9432370E944C3AE02121F00E9455
:105434003D370E9415360E9432370E943A3A0E2EAA
:105444000E942639E02119F00E941C381A980E9403
:10545400C7340E941B390E2E0E94D5340E94F7389F
:105464000E942B390E943A3A0E94D1380E94A538F2
:105474000E9447380E94003999F0E0E00E941738F2
:105484000E941C380E9451360E9408380E9411382C
:105494000E940C380E9402380E943F380E94323920
:1054A400BBC4E73EA3E0FA0711F00C94422B0E9420
:1054B4002E3814F40E943F380E94B634129711F427
:1054C4000E94051D0E94C337119711F40E94D23720
:1054D4000E9432370E949D380E9436350E94A538BA
:1054E4000E220E946E37E02131F00E94DE330E94CA
:1054F400DE300E9415360E9432370E9487370E94A0
:10550400AB380E94B038E02189F00E94B33811F41E
:105514000E945E370E94B93829F40E948B370E949A
:10552400BF3804C00E9428380E9464370E94C638DD
:105534000E9436350E94D138E02121F00E94ED33DB
:105544000E945F360E94D7380E94D5340E94D93811
:105554000E944C3A0E94D138E02141F00E94DE388A
:1055640019F40E94E63802C00E9422380E94C6380C
:105574000E94E833E02121F00E94C5330E945F3687
:105584000E9432370E949D380E94E8330E94A53859
:10559400E02121F00E94F4380E9415360E94D73889
:1055A4000E94D5340E94F7380E94C7340E94FC3808
:1055B400E02111F00E9406390E940F390E94D5376C
:1055C4000E944C3AE02111F00E9414390E94D7380D
:1055D4000E940F39E02111F00E9417390E943237DE
:1055E4000E9487370E941B390E220E94D5340E94E4
:1055F400D9380E94403AE02129F01A980E945E3777
:105604000E941F390E9426390E2E0E9432370E94B2
:105614004C3AE02121F00E943D370E9415360E9449
:1056240032370E943A3A0E2E0E942639E02119F0B0
:105634000E941C381A980E94C7340E941B390E2EEF
:105644000E94D5340E94F7380E942B390E943A3ABE
:105654000E94D1380E94A538E02189F0E0E00E9440
:1056640017380E941C380E9451360E9408380E9444
:1056740011380E940C380E943F380E943239CCC342
:10568400E830A0E0FA0711F00C94AB2C0E942E38FD
:1056940014F40E943F380E94B634129711F40E9409
:1056A400051D0E94B8370E944338DF010E94BF36AF
:1056B4000E9447380E943635E02121F00E94CA3307
:1056C4000E944D380E94A9370E9450380E943635F6
:1056D400E02121F00E9446370E9455380E94B837D5
:1056E4000E9443380E945C380E94E833E02111F0A4
:1056F4000E9463380E94A9370E94E3330E945C38F9
:105704000E94E833E02121F00E9446370E94683865
:105714000E94E3330E947038E02121F00E94463752
:105724000E9479380E94B8370E94803811F00E9494
:105734008A380E94A9370E948F3821F00E94463788
:105744000E9496380E9436390E9450380E940039CF
:1057540021F00E94ED330E945F360E94D7380E94E8
:1057640050380E940039E1F0E0E00E940C38ADE4CA
:10577400B5E00E943D390E94D5340E94D938EA1719
:10578400FB0739F4E4E0F0E0E0935105F0935205AF
:1057940002C00E9402380E944637E0E00E94CD37E2
:1057A4000E94C337119711F40E94D2370E943237F6
:1057B4000E949D380E9436350E94A5380E220E9410
:1057C4006E370E944339E02131F00E94DE330E949B
:1057D400DE300E9415360E9432370E9487370E94BD
:1057E400AB380E94B0380E944339E02189F00E940E
:1057F400B33811F40E945E370E94B93829F40E942C
:105804008B370E94BF3804C00E9428380E94643736
:105814000E9432370E949D380E94E8330E94A538C6
:105824000E944339E02121F00E94F4380E94153689
:105834000E94D7380E94D5340E94F7380E94C7349A
:105844000E94FC38E02111F00E9406390E940F39B1
:105854000E94D5370E944C3AE02111F00E9414397D
:105864000E94D7380E940F39E02111F00E941739A5
:105874000E9446390E2E0E9432370E943A3A0E2276
:105884000E94C7340E9493371E2E0E945038E1E0D4
:10589400F0E00E94403A0E2E0E94D5340E94D9387E
:1058A4000E94403AE029E12129F01A980E945E37CB
:1058B4000E941F390E9446390E2E0E9426390E225C
:1058C4000E9432370E944C3AE02121F00E943D3779
:1058D4000E9415360E9446390E2E0E9432370E94CD
:1058E4003A3A0E220E942639E02111F00E941C3817
:1058F4000E945038E4E0F0E00E943A3A6E2F0E2EF7
:105904000E94C7340E941B390E220E9432370E9423
:105914003A3A0E94A5380E94D138E0211E2E062E64
:105924000E94CB370E94D138E021E12989F00E94FE
:105934001C38E0E00E9417380E9451360E94083853
:105944000E9411380E940C380E943F380E9432395C
:1059540063C2E930A0E0FA0711F00C94302D0E94E4
:10596400B634119761F50E9436390E94DA37E02186
:1059740011F00E9414390E9432370E9448390E9463
:105984004C3AE02121F00E943D370E9415360E94D6
:1059940036390E9451390E943A3AE02121F00E949E
:1059A4006C310E940D360E9432370E9448390E94A1
:1059B400463AE02121F00E9428340E9415360E94C4
:1059C400B634129791F50E9436390E94E637E021E9
:1059D40011F00E9414390E9432370E9457390E94F4
:1059E4004C3AE02121F00E943D370E9415360E9476
:1059F40036390E945D390E943A3AE02121F00E9432
:105A04006C310E940D360E9432370E9457390E9431
:105A1400463AE02121F00E9428340E9415360E9463
:105A2400B634129711F40E94051D0E941836A9F08D
:105A34001A981B980E945E37E0E00E94CD37AFE4CD
:105A4400B5E00E943D39E2E0F0E0E0934905F093CF
:105A54004A05EAE0F0E00E942437DEC1EA30A0E023
:105A6400FA0711F00C949F2D0E9430370E94603980
:105A740061F10E946B390E94B5310E94E0040E94DA
:105A84005139AE17BF0724F40E949B370E941E377A
:105A94000E945139EA17FB0721F40E949B370E94A8
:105AA40071390E9478390E943A3AE02121F0EBE002
:105AB400F0E00E9424370E9478390E94403AE021A5
:105AC40021F0EEE0F0E00E9424370E94B6341297F1
:105AD40011F40E94051D0E94C1340E94603961F1D5
