:080000000C94D8040C940000DC
:100008000C9400000C9400000C9400000C94000068
:100018000C9400000C9400000C9400000C94000058
:100028000C9400000C9400000C9400000C94000048
:100038000C9400000C9400000C944F050C940000E4
:100048000C9400000C9400000C9400000C94000028
:100058000C9400000C9400000C9400000C94000018
:100068000C9400000C9400000C9400000C94000008
:100078000C9400000C9400000C9400000C940000F8
:100088000C9400001027E80364000A000100001027
:100098000001100001000000202020202020202046
:1000A8002020202020202020202020202020202048
:1000B8002020202020202020202020202020202038
:1000C8002020202020202020005A616369736B20A3
:1000D8006E6965207A6D6965727A6F6E7920752010
:1000E80057796B6F6E61776379004B6C7920772055
:1000F8006B696572756E6B752070726177656A20C1
:100108007374726F6E79004B6C792077206B696518
:1001180072756E6B75206C6577656A207374726F83
:100128006E79004369736E69656E6965207A61202E
:100138006D616C65202D206D6E69656A737A652026
:100148006E697A2036206261720038362D30313778
:10015800300038362D313034330038362D313637CB
:10016800350038362D323039380038372D303137B0
:10017800300038372D313034330038372D313637A9
:10018800350038372D323039380038362D3031398E
:10019800320038362D313035340038362D31363787
:1001A800360038362D323133320038372D30313978
:1001B800320038372D313035340038372D31363765
:1001C800360038372D323133320038362D30313958
:1001D800330038362D313231360038362D31383348
:1001E800320038362D323137340038372D30313936
:1001F800330038372D313231360038372D31383326
:10020800320038372D323137340038362D30313915
:10021800340038362D313334310038362D31383307
:10022800330038362D323138300038372D303139F7
:10023800340038372D313334310038372D313833E5
:10024800330038372D323138300038362D303636D5
:10025800330038362D313334390038362D313833C0
:10026800340038362D323230340038372D303636B7
:10027800330038372D313334390038372D3138339E
:10028800340038372D323230340038362D30373696
:10029800380038362D313335370038362D3138347B
:1002A800380038362D323231320038372D30373673
:1002B800380038372D313335370038372D31383459
:1002C800380038372D323231320038362D30383058
:1002D800300038362D313336330038362D31393049
:1002E800340038362D323234310038372D3038303A
:1002F800300038372D313336330038372D31393027
:10030800340038372D323234310038362D30383118
:10031800310038362D313532330038362D31393207
:10032800390038362D323236310038372D303831F1
:10033800310038372D313532330038372D313932E5
:10034800390038372D323236310038362D303831D1
:10035800340038362D313533300038362D313933C5
:10036800360038362D323238350038372D303831AE
:10037800340038372D313533300038372D313933A3
:10038800360038372D323238350038362D3038318E
:10039800350038362D313535310038362D31393480
:1003A800310038362D323238360038372D30383172
:1003B800350038372D313535310038372D3139345E
:1003C800310038372D323238360038362D30383152
:1003D800360038362D313535320038362D3230304A
:1003E800370038362D323239320038372D3038312F
:1003F800360038372D313535320038372D32303028
:10040800370038372D323239320038362D3038310E
:10041800370038362D313630320038362D3230310B
:10042800370038362D323338340038372D303831EC
:10043800370038372D313630320038372D323031E9
:10044800370038372D323338340038362D303834C9
:10045800370038362D313632300038362D323031CB
:10046800390038362D323338350038372D303834A6
:10047800370038372D313632300038372D323031A9
:10048800390038372D323338350038362D30383585
:10049800340038362D313632320038362D3230328B
:1004A800380038362D323433370038372D30383568
:1004B800340038372D313632320038372D32303269
:1004C800380038372D323433370038362D30383647
:1004D800320038362D313632350038362D32303547
:1004E800320038362D323439320038372D3038362C
:1004F800320038372D313632350038372D32303525
:10050800320038372D323439320038362D3039330D
:10051800350038362D313634380038362D323038FB
:10052800320038362D323530300038372D303933F7
:10053800350038372D313634380038372D323038D9
:10054800320038372D323530300038362D313031E1
:10055800390038362D313634390038362D323038B6
:10056800330038362D323538350038372D313031B3
:10057800390038372D313634390038372D32303894
:10058800330038372D323632340038362D31303298
:10059800370038362D313636390038362D32303876
:1005A800370038362D323632340038372D31303274
:1005B800370038372D313636390038372D32303854
:1005C800370038372D32353835004E696520776366
:1005D8007A7974616E6F207A616369736B75005AFA
:1005E8006174727A796D616E6F202D206E61636916
:1005F800736E696A2053544152542061627920779E
:100608007A6E6F776963005A616D6B6E696A206FE5
:10061800736C6F6E7920676F726E652069206E61EA
:100628006369736E696A205354415254004E616382
:1006380069736E696A20535441525420616279206B
:100648007779706F7A79636A6F6E6F776163206EFE
:100658006170656479005A616D6B6E696A206F73A9
:100668006C6F6E7920676F726E65004F7477617278
:10067800636965206F736C6F6E2077207472616B8D
:1006880063696520706F7A79636A6F6E6F77616EE0
:1006980069610057796C61637A206920776C6163BE
:1006A8007A206D61737A796E65005A6174727A790D
:1006B8006D616E69652077207472616B636965206E
:1006C800706F7A79636A6F6E6F77616E69610050D7
:1006D8006F7A79636A6F6E756A6520756B6C616491
:1006E80079206C696E696F77652058595A00537480
:1006F80065726F776E696B2033202D207779706F64
:100708007A79636A6F6E6F77616C656D0053746593
:10071800726F776E696B2034202D207779706F7A2D
:1007280079636A6F6E6F77616C656D00416C617299
:100738006D20537465726F776E696B203400416C5D
:1007480061726D20537465726F776E696B20330028
:10075800537465726F776E696B2031202D2077791D
:10076800706F7A79636A6F6E6F77616C656D00532D
:100778007465726F776E696B2032202D20777970DF
:100788006F7A79636A6F6E6F77616C656D00416C23
:1007980061726D20537465726F776E696B203100DA
:1007A800416C61726D20537465726F776E696B204E
:1007B80032005779706F7A79636A6F6E6F77616EFE
:1007C8006F20756B6C616479206C696E696F7765F1
:1007D8002058595A004B6F6C697A6A612058592021
:1007E800756B6C616475206B72617A6B61004B6F1D
:1007F8006C697A6A6120585920756B6C6164752040
:10080800737A637A6F746B69004B6F6C697A6A618B
:10081800206B72617A6B61202D2077796C61637A25
:10082800206920776C61637A206D61737A796E65CF
:10083800004B6F6C697A6A6120737A637A2E206440
:1008480072756369616E656A202D2077796C6163C2
:100858007A206920776C61637A206D61737A796E8A
:10086800650057796D69656E20737A637A6F746B6A
:1008780065206472756369616E610057796D696599
:100888006E206B72617A656B2073636965726E792D
:1008980020646F206B6F7270757375206F20737290
:1008A80065646E6963792033340057796D69656EC4
:1008B800206B72617A656B2073636965726E79204B
:1008C800646F206B6F7270757375206F207372651B
:1008D800646E6963792033360057796D69656E20D7
:1008E8006B72617A656B2073636965726E792064D7
:1008F8006F206B6F7270757375206F2073726564EB
:100908006E6963792033380057796D69656E206B9D
:1009180072617A656B2073636965726E7920646FA2
:10092800206B6F7270757375206F20737265646EBB
:100938006963792034310057796D69656E206B726F
:10094800617A656B2073636965726E7920646F20C4
:100958006B6F7270757375206F20737265646E6942
:100968006379203433002D2D2D2D2D2D2D00576327
:100978007A7974616A207A616369736B2074656E31
:100988002073616D206C7562206E6F7779000100AD
:100998002D4E414E00494E460000010002009E00C7
:1009A8000100B30596090000F894EE27ECBBF1E0CE
:1009B800F5BFE5BFE0936C00F8E1F1BDE1BD8DE066
:1009C800A2E0BB27ED938A95E9F780E090E1A0E0EB
:1009D800B1E0ED930197E9F7E2EAF9E085919591A5
:1009E800009761F0A591B59105901590BF01F001B0
:1009F80005900D920197E1F7FB01F0CF8BBFEFEF68
:100A0800EDBFE0E1EEBFC0E0D5E00C94B12E0E944E
:100A1800143823C00E941438E6951FC00E94143869
:100A2800E695E6951AC00E941438E695E695E6958F
:100A380014C00E941438E29510C00E941438E29540
:100A4800EF70E6950AC00E9414380E94233805C04A
:100A58000E941438EE1FE0E0EE1FE170239608951F
:100A68000E9428380E942D38E4E0EA930E94AA36B2
:100A7800E3E80E943538E1E0EA930E94AA360E9432
:100A880040380E9440380E9440380E2F1127F80144
:100A98001981088162C06A937A93AA93BA93EA93F8
:100AA800FA93EFB7EA93A1E1B5E00E944638A5E1D1
:100AB800B5E00E944638A9E1B5E00E944638ADE1AC
:100AC800B5E00E944638A1E2B5E00E944638A5E2AA
:100AD800B5E00E944638A9E2B5E00E944638ADE28A
:100AE800B5E00E944638E991EFBFF991E991B991D3
:100AF800A9917991699118950E9428380E944F38D8
:100B08000E949B368F010D5F1F4F0E942D380A935C
:100B18000E94AA36E2E80E9435380E944F3880E0E9
:100B28000E94EF37229619810881289608950E941D
:100B38002D38E5E0EA930E945438EA81EA930E944E
:100B4800AA36E881EA930E94AA36E0E0EA930E9476
:100B5800AA36EC81EA930E94AA36269608950E9446
:100B68005A38A091A705B091A805119761F40E9481
:100B7800B8380E94B8380E94BD38D9DFE0E0E09369
:100B8800A705E093A805089524970E940E4400E065
:100B980010E0EE85FF85FA93EA930E949B368F0159
:100BA8000D5F1F4FAC85BD85119759F420E030E0EB
:100BB80040E550E0E0E5F0E0E887F987E0E0EE8323
:100BC800EF83AC85BD85129759F420E030E040E210
:100BD80050E0E0E4F0E0E887F987E0E0EE83EF83B7
:100BE8000E942D380A930E9454382A930E94AA36EC
:100BF8004A930E94AA36EE85FF85FA93EA9380E02D
:100C08000E94EF3722960E94C238EC85FD850E942B
:100C1800CA380E94C243A0E0B0E00E949C43E02191
:100C280051F00E94D138E1EDF0E00E94DF380E94D7
:100C3800DF380E94E4380E94C2380E94E83851F038
:100C48000E94D138E2EFF0E00E94DF380E94DF38DE
:100C58000E94E4380E94C2380E94F03851F00E9485
:100C6800D138EFE0F1E00E94DF380E94DF380E94BF
:100C7800E4380E94F8380E94E83851F00E94D138D0
:100C8800EFE0F1E00E94DF380E94DF380E94E4388C
:100C98000E94F8380E94F03851F00E94D138E2EFF3
:100CA800F0E00E94DF380E94DF380E94E4380E949A
:100CB8001544609608950E9400390E940A39EF93FE
:100CC8000E9400390E941039AF91EA2341F00E9436
:100CD800B8380E941639E0933105F09332050E9426
:100CE800B8380E941C390E9422390E9427390E9474
:100CF8002C390E941639A0E0B0E00E9433390E94D6
:100D08003A390E9440390E94B8380E9445390E94F9
:100D1800BD380E944C39A4E1B0E00E9433390E94EA
:100D2800BD389EDEA2E1B0E00E94EC430E94273964
:100D38000E94523995DEE0938705F09388050E945A
:100D480027390E9457398CDEE0938905F0938A058C
:100D58000E9427390E944C390E945C390E943A3916
:100D6800E0939905F0939A050E94B8380E944C398F
:100D7800A6E1B0E00E94EC4308950E942838002EB6
:100D8800012A21F50E9461395EDEE03089F401E034
:100D980010E0E091A305F091A405309741F40E947A
:100DA8006B39E1E0F0E0E093A305F093A4050DC0F2
:100DB80000E010E0E0E0E093A305E093A4050E94C2
:100DC8006B39EBE2F1E00E947A39D9CF0991199198
:100DD80008951A930A930E94873919DEE1700E2E3E
:100DE800E0910205EE7F0E94913914DEE170EE0F6A
:100DF8000E2EE0910205ED7F0E9491390FDEE17021
:100E0800EE0FEE0F0E2EE0910205EB7F0E94913956
:100E18000ADEE170EE0FEE0FEE0F0E2EE0910205E6
:100E2800E77F0E94913905DEE170E295E07F0E2EA2
:100E3800E0910205EF7E0E949139FFDDE170E295B5
:100E4800E07FEE0F0E2EE0910205EF7D0E949139B2
:100E5800FADDE170E295E07FEE0FEE0F0E2EE091E5
:100E68000205EF7B0E949139F3DDE170E795E0E040
:100E7800E7950E2EE0910205EF77E029E093020551
:100E88000E9495390E941C398F01A0910205A1305A
:100E980069F4F8010E94CA380E949A39E2E5F1E043
:100EA8000E949F390E94A4390E94AA39A091020584
:100EB800A23079F4F8010E94CA38E2E0F0E0ED933C
:100EC800FC93EAE5F1E00E949F390E94B8380E943D
:100ED800B139A0910205A33079F4F8010E94CA380B
:100EE800E3E0F0E0ED93FC93E2E6F1E00E949F3945
:100EF8000E94B8380E94BA39A0910205A43079F44A
:100F0800F8010E94CA38E4E0F0E0ED93FC93EAE6C9
:100F1800F1E00E949F390E94B8380E94BA39A09126
:100F28000205A53079F4F8010E94CA38E5E0F0E03E
:100F3800ED93FC93E2E7F1E00E949F390E94B838F4
:100F48000E94BA39A0910205A63079F4F8010E94EE
:100F5800CA38E6E0F0E0ED93FC93EAE7F1E00E949E
:100F68009F390E94A4390E94BD39A0910205A7307B
:100F780079F4F8010E94CA38E7E0F0E0ED93FC93B9
:100F8800E2E8F1E00E949F390E94A4390E94AA3940
:100F9800A0910205A83079F4F8010E94CA38E8E067
:100FA800F0E0ED93FC93EAE8F1E00E949F390E949B
:100FB800A4390E94AA39A0910205A93079F4F80150
:100FC8000E94CA38E9E0F0E0ED93FC93E2E9F1E031
:100FD8000E949F390E94B8380E94BA39A091020530
:100FE800AA3079F4F8010E94CA38EAE0F0E0ED93FB
:100FF800FC93EAE9F1E00E949F390E94B8380E9408
:10100800C439A0910205AB3079F4F8010E94CA38BE
:10101800EBE0F0E0ED93FC93E2EAF1E00E949F3907
:101028000E94B8380E94C439A0910205AC3079F406
:10103800F8010E94CA38ECE0F0E0ED93FC93EAEA8C
:10104800F1E00E949F390E94A4390E94CD39A091F5
:101058000205AD3079F4F8010E94CA38EDE0F0E0FD
:10106800ED93FC93E2EBF1E00E949F390E94A439D2
:101078000E94AA39A0910205AE3079F4F8010E94C5
:10108800CA38EEE0F0E0ED93FC93EAEBF1E00E9461
:101098009F390E94A4390E94CD39A0910205AF3032
:1010A80079F4F8010E94CA38EFE0F0E0ED93FC9380
:1010B800E2ECF1E00E949F390E94A4390E94CD39E8
:1010C800A0910205A03179F4F8010E94CA38E0E144
:1010D800F0E0ED93FC93EAECF1E00E949F390E9466
:1010E800B8380E94C439A0910205A13179F4F801F9
:1010F8000E94CA38E1E1F0E0ED93FC93E2EDF1E003
:101108000E949F390E94B8380E94BA39A0910205FE
:10111800A23179F4F8010E94CA38E2E1F0E0ED93D7
:10112800FC93EAEDF1E00E949F390E94B8380E94D2
:10113800B139A0910205A33179F4F8010E94CA38A7
:10114800E3E1F0E0ED93FC93E2EEF1E00E949F39D9
:101158000E94B8380E94C439A0910205A43179F4DC
:10116800F8010E94CA38E4E1F0E0ED93FC93EAEE5E
:10117800F1E00E949F390E94B8380E94B139A091CD
:101188000205A53179F4F8010E94CA38E5E1F0E0DA
:10119800ED93FC93E2EFF1E00E949F390E94A4399D
:1011A8000E94AA39A0910205A63179F4F8010E949B
:1011B800CA38E6E1F0E0ED93FC93EAEFF1E00E9433
:1011C8009F390E94A4390E94BD39A0910205A73118
:1011D80079F4F8010E94CA38E7E1F0E0ED93FC9356
:1011E800E2E0F2E00E949F390E94A4390E94CD39C2
:1011F800A0910205A83179F4F8010E94CA38E8E103
:10120800F0E0ED93FC93EAE0F2E00E949F390E943F
:10121800A4390E94BD39A0910205A93179F4F801D9
:101228000E94CA38E9E1F0E0ED93FC93E2E1F2E0D4
:101238000E949F390E94B8380E94C439A0910205C3
:10124800AA3179F4F8010E94CA38EAE1F0E0ED9396
:10125800FC93EAE1F2E00E949F390E94B8380E94AC
:10126800B139A0910205AB3179F4F8010E94CA386E
:10127800EBE1F0E0ED93FC93E2E2F2E00E949F39AB
:101288000E94B8380E94C439A0910205AC3179F4A3
:10129800F8010E94CA38ECE1F0E0ED93FC93EAE231
:1012A800F2E00E949F390E94A4390E94CD39A09192
:1012B8000205AD3179F4F8010E94CA38EDE1F0E099
:1012C800ED93FC93E2E3F2E00E949F390E94A43977
:1012D8000E94CD39A0910205AE3179F4F8010E943F
:1012E800CA38EEE1F0E0ED93FC93EAE3F2E00E9405
:1012F8009F390E94A4390E94BD39A0910205AF31DF
:1013080079F4F8010E94CA38EFE1F0E0ED93FC931C
:10131800E2E4F2E00E949F390E94A4390E94CD398C
:10132800A0910205A03279F4F8010E94CA38E0E2DF
:10133800F0E0ED93FC93EAE4F2E00E949F390E940A
:10134800B8380E94C439A0910205A13279F4F80195
:101358000E94CA38E1E2F0E0ED93FC93E2E5F2E0A6
:101368000E949F390E94A4390E94D439A091020595
:10137800A23279F4F8010E94CA38E2E2F0E0ED9373
:10138800FC93EAE5F2E00E949F390E94B8380E9477
:10139800BA39A0910205A33279F4F8010E94CA383B
:1013A800E3E2F0E0ED93FC93E2E6F2E00E949F397D
:1013B8000E94B8380E94B139A0910205A43279F48C
:1013C800F8010E94CA38E4E2F0E0ED93FC93EAE603
:1013D800F2E00E949F390E94B8380E94BA39A09161
:1013E8000205A53279F4F8010E94CA38E5E2F0E076
:1013F800ED93FC93E2E7F2E00E949F390E94B8382F
:101408000E94DB39A0910205A63279F4F8010E9406
:10141800CA38E6E2F0E0ED93FC93EAE7F2E00E94D6
:101428009F390E94A4390E94AA39A0910205A732C7
:1014380079F4F8010E94CA38E7E2F0E0ED93FC93F2
:10144800E2E8F2E00E949F390E94A4390E94BD3967
:10145800A0910205A83279F4F8010E94CA38E8E29E
:10146800F0E0ED93FC93EAE8F2E00E949F390E94D5
:10147800A4390E94AA39A0910205A93279F4F80189
:101488000E94CA38E9E2F0E0ED93FC93E2E9F2E069
:101498000E949F390E94A4390E94AA39A09102058E
:1014A800AA3279F4F8010E94CA38EAE2F0E0ED9332
:1014B800FC93EAE9F2E00E949F390E94B8380E9442
:1014C800BA39A0910205AB3279F4F8010E94CA3802
:1014D800EBE2F0E0ED93FC93E2EAF2E00E949F3940
:1014E8000E94B8380E94BA39A0910205AC3289F43A
:1014F800F8010E94CA38ECE2F0E00E94DE390E944E
:10150800E239EAEAF2E00E949F390E94B8380E9464
:10151800BA39A0910205AD3279F4F8010E94CA38AF
:10152800EDE2F0E0ED93FC93E2EBF2E00E949F39EC
:101538000E94B8380E94BA39A0910205AE3279F4F7
:10154800F8010E94CA38EEE2F0E0ED93FC93EAEB72
:10155800F2E00E949F390E94A4390E94AA39A09102
:101568000205AF3279F4F8010E94CA38EFE2F0E0E0
:10157800ED93FC93E2ECF2E00E949F390E94A439BB
:101588000E94AA39A0910205A03389F4F8010E94AB
:10159800CA38E0E3F0E00E94DE390E94E239EAEC62
:1015A800F2E00E949F390E94A4390E94AA39A091B2
:1015B8000205A13379F4F8010E94CA38E1E3F0E0AA
:1015C800ED93FC93E2EDF2E00E949F390E94B83857
:1015D8000E94BA39A0910205A23379F4F8010E9459
:1015E800CA38E2E3F0E0ED93FC93EAEDF2E00E9402
:1015F8009F390E94B8380E94B139A0910205A333DF
:1016080079F4F8010E94CA38E3E3F0E0ED93FC9323
:10161800E2EEF2E00E949F390E94B8380E94DB395E
:10162800A0910205A43379F4F8010E94CA38E4E3D2
:10163800F0E0ED93FC93EAEEF2E00E949F390E94FD
:10164800A4390E94BD39A0910205A53379F4F801A7
:101658000E94CA38E5E3F0E0ED93FC93E2EFF2E094
:101668000E949F390E94A4390E94AA39A0910205BC
:10167800A63379F4F8010E94CA38E6E3F0E0ED9366
:10168800FC93EAEFF2E00E949F390E94A4390E947D
:10169800BD39A0910205A73379F4F8010E94CA3830
:1016A800E7E3F0E0ED93FC93E2E0F3E00E949F397A
:1016B8000E94A4390E94D439A0910205A83379F474
:1016C800F8010E94CA38E8E3F0E0ED93FC93EAE001
:1016D800F3E00E949F390E94B8380E94B139A09166
:1016E8000205A93379F4F8010E94CA38E9E3F0E069
:1016F800ED93FC93E2E1F3E00E949F390E94B83831
:101708000E94B139A0910205AA3379F4F8010E9428
:10171800CA38EAE3F0E0ED93FC93EAE1F3E00E94D3
:101728009F390E94B8380E94BA39A0910205AB339C
:1017380079F4F8010E94CA38EBE3F0E0ED93FC93EA
:10174800E2E2F3E00E949F390E94B8380E94C4394F
:10175800A0910205AC3379F4F8010E94CA38ECE391
:10176800F0E0ED93FC93EAE2F3E00E949F390E94D7
:10177800B8380E94B139A0910205AD3379F4F80167
:101788000E94CA38EDE3F0E0ED93FC93E2E3F3E066
:101798000E949F390E94A4390E94BD39A091020578
:1017A800AE3379F4F8010E94CA38EEE3F0E0ED9325
:1017B800FC93EAE3F3E00E949F390E94A4390E9457
:1017C800AA39A0910205AF3379F4F8010E94CA380A
:1017D800EFE3F0E0ED93FC93E2E4F3E00E949F393D
:1017E8000E94A4390E94CD39A0910205A03479F451
:1017F800F8010E94CA38E0E4F0E0ED93FC93EAE4D3
:10180800F3E00E949F390E94A4390E94BD39A0913B
:101818000205A13479F4F8010E94CA38E1E4F0E045
:10182800ED93FC93E2E5F3E00E949F390E94B838FB
:101838000E94E739A0910205A23479F4F8010E94C8
:10184800CA38E2E4F0E0ED93FC93EAE5F3E00E94A5
:101858009F390E94A4390E94AA39A0910205A33495
:1018680079F4F8010E94CA38E3E4F0E0ED93FC93C0
:10187800E2E6F3E00E949F390E94A4390E94AA3947
:10188800A0910205A43479F4F8010E94CA38E4E46E
:10189800F0E0ED93FC93EAE6F3E00E949F390E94A2
:1018A800A4390E94CD39A0910205A53479F4F80134
:1018B8000E94CA38E5E4F0E0ED93FC93E2E7F3E038
:1018C8000E949F390E94A4390E94F039A091020514
:1018D800A63479F4F8010E94CA38E6E4F0E0ED9302
:1018E800FC93EAE7F3E00E949F390E94B8380E940F
:1018F800BA39A0910205A73479F4F8010E94CA38D0
:10190800E7E4F0E0ED93FC93E2E8F3E00E949F390E
:101918000E94B8380E94BA39A0910205A83479F417
:10192800F8010E94CA38E8E4F0E0ED93FC93EAE895
:10193800F3E00E949F390E94B8380E94C439A091F0
:101948000205A93479F4F8010E94CA38E9E4F0E004
:10195800ED93FC93E2E9F3E00E949F390E94B838C6
:101968000E94BA39A0910205AA3479F4F8010E94BC
:10197800CA38EAE4F0E0ED93FC93EAE9F3E00E9468
:101988009F390E94B8380E94BA39A0910205AB3439
:1019980079F4F8010E94CA38EBE4F0E0ED93FC9387
:1019A800E2EAF3E00E949F390E94B8380E94BA39EF
:1019B800A0910205AC3489F4F8010E94CA38ECE41D
:1019C800F0E00E94DE390E94E239EAEAF3E00E9480
:1019D8009F390E94B8380E94C439A0910205AD34DD
:1019E80079F4F8010E94CA38EDE4F0E0ED93FC9335
:1019F800E2EBF3E00E949F390E94A4390E94AA39C1
:101A0800A0910205AE3479F4F8010E94CA38EEE4D8
:101A1800F0E0ED93FC93EAEBF3E00E949F390E941B
:101A2800A4390E94AA39A0910205AF3479F4F801CB
:101A38000E94CA38EFE4F0E0ED93FC93E2ECF3E0A7
:101A48000E949F390E94A4390E94AA39A0910205D8
:101A5800A03589F4F8010E94CA38E0E5F0E00E9458
:101A6800DE390E94E239EAECF3E00E949F390E94D5
:101A7800B8380E94C439A0910205A13579F4F8015B
:101A88000E94CA38E1E5F0E0ED93FC93E2EDF3E063
:101A98000E949F390E94B8380E94E739A091020538
:101AA800A23579F4F8010E94CA38E2E5F0E0ED9336
:101AB800FC93EAEDF3E00E949F390E94B8380E9437
:101AC800B139A0910205A33579F4F8010E94CA380A
:101AD800E3E5F0E0ED93FC93E2EEF3E00E949F393A
:101AE8000E94A4390E94CD39A0910205A43579F449
:101AF800F8010E94CA38E4E5F0E0ED93FC93EAEEC1
:101B0800F3E00E949F390E94A4390E94AA39A0914B
:101B18000205A53579F4F8010E94CA38E5E5F0E038
:101B2800ED93FC93E2EFF3E00E949F390E94A43901
:101B38000E94F039A0910205A63579F4F8010E94B7
:101B4800CA38E6E5F0E0ED93FC93EAEFF3E00E9493
:101B58009F390E94A4390E94BD39A0910205A7357A
:101B680079F4F8010E94CA38E7E5F0E0ED93FC93B8
:101B7800E2E0F4E00E949F390E94B8380E94C4391C
:101B8800A0910205A83579F4F8010E94CA38E8E561
:101B9800F0E0ED93FC93EAE0F4E00E949F390E94A4
:101BA800B8380E94BA39A0910205A93579F4F8012C
:101BB8000E94CA38E9E5F0E0ED93FC93E2E1F4E035
:101BC8000E949F390E94B8380E94BA39A091020534
:101BD800AA3579F4F8010E94CA38EAE5F0E0ED93F5
:101BE800FC93EAE1F4E00E949F390E94A4390E9424
:101BF800AA39A0910205AB3579F4F8010E94CA38D8
:101C0800EBE5F0E0ED93FC93E2E2F4E00E949F390B
:101C18000E94A4390E94CD39A0910205AC3589F4FF
:101C2800F8010E94CA38ECE5F0E00E94DE390E9413
:101C3800E239EAE2F4E00E949F390E94B8380E9433
:101C4800BA39A0910205AD3579F4F8010E94CA3875
:101C5800EDE5F0E0ED93FC93E2E3F4E00E949F39B8
:101C68000E94A4390E94AA39A0910205AE3579F4E0
:101C7800F8010E94CA38EEE5F0E0ED93FC93EAE340
:101C8800F4E00E949F390E94B8380E94BA39A091A6
:101C98000205AF3579F4F8010E94CA38EFE5F0E0A3
:101CA800ED93FC93E2E4F4E00E949F390E94B83877
:101CB8000E94C439A0910205A03689F4F8010E9457
:101CC800CA38E0E6F0E00E94DE390E94E239EAE430
:101CD800F4E00E949F390E94B8380E94BA39A09156
:101CE8000205A13679F4F8010E94CA38E1E6F0E06D
:101CF800ED93FC93E2E5F4E00E949F390E94B83826
:101D08000E94C439A0910205A23679F4F8010E9414
:101D1800CA38E2E6F0E0ED93FC93EAE5F4E00E94CD
:101D28009F390E94B8380E94BA39A0910205A3369B
:101D380079F4F8010E94CA38E3E6F0E0ED93FC93E9
:101D4800E2E6F4E00E949F390E94A4390E94CD394E
:101D5800A0910205A43679F4F8010E94CA38E4E695
:101D6800F0E0ED93FC93EAE6F4E00E949F390E94CC
:101D7800B8380E94BA39A0910205A53679F4F8015D
:101D88000E94CA38E5E6F0E0ED93FC93E2E7F4E060
:101D98000E949F390E94A4390E94CD39A091020562
:101DA800A63679F4F8010E94CA38E6E6F0E0ED9329
:101DB800FC93EAE7F4E00E949F390E94A4390E944C
:101DC800AA39A0910205A73679F4F8010E94CA3809
:101DD800E7E6F0E0ED93FC93E2E8F4E00E949F3937
:101DE8000E94B8380E94C439A0910205A83679F437
:101DF800F8010E94CA38E8E6F0E0ED93FC93EAE8BF
:101E0800F4E00E949F390E94A4390E94AA39A09147
:101E18000205A93679F4F8010E94CA38E9E6F0E02B
:101E2800ED93FC93E2E9F4E00E949F390E94B838F0
:101E38000E94B139A0910205AA3679F4F8010E94EE
:101E4800CA38EAE6F0E0ED93FC93EAE9F4E00E9490
:101E58009F390E94A4390E94BD39A0910205AB3672
:101E680089F4F8010E94CA38EBE6F0E00E94DE39F6
:101E78000E94E239E2EAF4E00E949F390E94B838F1
:101E88000E94DB39A0910205AC3679F4F8010E9472
:101E9800CA38ECE6F0E0ED93FC93EAEAF4E00E943D
:101EA8009F390E94B8380E94BA39A0910205AD3610
:101EB80079F4F8010E94CA38EDE6F0E0ED93FC935E
:101EC800E2EBF4E00E949F390E94A4390E94BD39D8
:101ED800A0910205AE3679F4F8010E94CA38EEE600
:101EE800F0E0ED93FC93EAEBF4E00E949F390E9446
:101EF800B8380E94B139A0910205AF3689F4F801CB
:101F08000E94CA38EFE6F0E00E94DE390E94E2390A
:101F1800E2ECF4E00E949F390E94B8380E94DB3955
:101F2800A0910205A03779F4F8010E94CA38E0E7C9
:101F3800F0E0ED93FC93EAECF4E00E949F390E94F4
:101F4800A4390E94AA39A0910205A13779F4F801B1
:101F58000E94CA38E1E7F0E0ED93FC93E2EDF4E08B
:101F68000E949F390E94B8380E94BA39A091020590
:101F7800A23779F4F8010E94CA38E2E7F0E0ED935D
:101F8800FC93EAEDF4E00E949F390E94B8380E9461
:101F9800BA39A0910205A33779F4F8010E94CA382A
:101FA800E3E7F0E0ED93FC93E2EEF4E00E949F3962
:101FB8000E94B8380E94DB39A0910205A43779F451
:101FC800F8010E94CA38E4E7F0E0ED93FC93EAEEEA
:101FD800F4E00E949F390E94A4390E94AA39A09176
:101FE8000205A53779F4F8010E94CA38E5E7F0E060
:101FF800ED93FC93E2EFF4E00E949F390E94A4392C
:102008000E94AA39A0910205A63779F4F8010E9426
:10201800CA38E6E7F0E0ED93FC93EAEFF4E00E94BB
:102028009F390E94A4390E94AA39A0910205A737B6
:1020380079F4F8010E94CA38E7E7F0E0ED93FC93E1
:10204800E2E0F5E00E949F390E94A4390E94D43949
:10205800A0910205A83779F4F8010E94CA38E8E788
:10206800F0E0ED93FC93EAE0F5E00E949F390E94CE
:10207800B8380E94BA39A0910205A93779F4F80155
:102088000E94CA38E9E7F0E0ED93FC93E2E1F5E05D
:102098000E949F390E94B8380E94BA39A09102055F
:1020A800AA3779F4F8010E94CA38EAE7F0E0ED931C
:1020B800FC93EAE1F5E00E949F390E94B8380E943B
:1020C800BA39A0910205AB3779F4F8010E94CA38F1
:1020D800EBE7F0E0ED93FC93E2E2F5E00E949F3934
:1020E8000E94B8380E94E739A0910205AC3779F40C
:1020F800F8010E94CA38ECE7F0E0ED93FC93EAE2BD
:10210800F5E00E949F390E94B8380E94BA39A09120
:102118000205AD3779F4F8010E94CA38EDE7F0E01E
:10212800ED93FC93E2E3F5E00E949F390E94A43905
:102138000E94AA39A0910205AE3779F4F8010E94ED
:10214800CA38EEE7F0E0ED93FC93EAE3F5E00E948D
:102158009F390E94A4390E94AA39A0910205AF377D
:1021680079F4F8010E94CA38EFE7F0E0ED93FC93A8
:10217800E2E4F5E00E949F390E94A4390E94F039F8
:10218800A0910205A03879F4F8010E94CA38E0E865
:10219800F0E0ED93FC93EAE4F5E00E949F390E9499
:1021A800A4390E94AA39A0910205A13879F4F8014E
:1021B8000E94CA38E1E8F0E0ED93FC93E2E5F5E02F
:1021C8000E949F390E94B8380E94C439A091020524
:1021D800A23879F4F8010E94CA38E2E8F0E0ED93F9
:1021E800FC93EAE5F5E00E949F390E94B8380E9406
:1021F800BA39A0910205A33879F4F8010E94CA38C7
:10220800E3E8F0E0ED93FC93E2E6F5E00E949F3905
:102218000E94A4390E94D439A0910205A43879F407
:10222800F8010E94CA38E4E8F0E0ED93FC93EAE68E
:10223800F5E00E949F390E94B8380E94DB39A091CE
:102248000205A53879F4F8010E94CA38E5E8F0E0FB
:10225800ED93FC93E2E7F5E00E949F390E94A439D0
:102268000E94CD39A0910205A63879F4F8010E94A0
:10227800CA38E6E8F0E0ED93FC93EAE7F5E00E945F
:102288009F390E94A4390E94AA39A0910205A73853
:1022980079F4F8010E94CA38E7E8F0E0ED93FC937E
:1022A800E2E8F5E00E949F390E94B8380E94DB39C5
:1022B800A0910205A83879F4F8010E94CA38E8E824
:1022C800F0E0ED93FC93EAE8F5E00E949F390E9464
:1022D800A4390E94BD39A0910205A93879F4F80102
:1022E8000E94CA38E9E8F0E0ED93FC93E2E9F5E0F2
:1022F8000E949F390E94B8380E94B139A091020506
:10230800AA3879F4F8010E94CA38EAE8F0E0ED93B7
:10231800FC93EAE9F5E00E949F390E94A4390E94E3
:10232800AA39A0910205AB3879F4F8010E94CA389D
:10233800EBE8F0E0ED93FC93E2EAF5E00E949F39C8
:102348000E94A4390E94AA39A0910205AC3879F4F8
:10235800F8010E94CA38ECE8F0E0ED93FC93EAEA51
:10236800F5E00E949F390E94B8380E94B139A091C7
:102378000205AD3879F4F8010E94CA38EDE8F0E0BA
:10238800ED93FC93E2EBF5E00E949F390E94A4399B
:102398000E94BD39A0910205AE3879F4F8010E9477
:1023A800CA38EEE8F0E0ED93FC93EAEBF5E00E9422
:1023B8009F390E94B8380E94BA39A0910205AF38F7
:1023C80079F4F8010E94CA38EFE8F0E0ED93FC9345
:1023D800E2ECF5E00E949F390E94B8380E94BA39B1
:1023E800A0910205A03979F4F8010E94CA38E0E901
:1023F800F0E0ED93FC93EAECF5E00E949F390E942F
:10240800A4390E94D439F801099119910895E881F5
:10241800F9810E94CA380E94C243309741F40E9451
:102428006B39E2EDF5E00E947A390C94751AE130C7
:10243800A0E0FA0751F4E8ECF0E00E94F7390E94B6
:10244800FE390E94053A0C945C1AE230A0E0FA07C3
:1024580071F4E0E1F1E00E94F7390E94143A0E9419
:10246800193A0E94143A0E94283A0C94621AE330EE
:10247800A0E0FA0761F4EAE7F0E00E94F7390E9469
:10248800FE390E942D3A0E94363A0C94621AE430C2
:10249800A0E0FA0761F4E2E0F1E00E94F7390E9457
:1024A800FE390E943F3A0E94363A0C94621AE5308F
:1024B800A0E0FA0759F4E0EBF0E00E94F7390E9437
:1024C800FE390E94053A0E94483AF8C7E630A0E073
:1024D800FA0759F4EEEFF0E00E94F7390E94143A37
:1024E8000E94193AA0E1B0E0E3C7E730A0E0FA079C
:1024F80049F4E8E7F0E00E94F7390E94FE390E94AB
:102508002D3AD0C7E830A0E0FA0749F4E0ECF0E053
:102518000E94F7390E94FE390E943F3AC3C7E9304A
:10252800A0E0FA0769F4E8E1F0E00E94F7390E94B8
:10253800FE390E943F3A0E944B3A0E94483ABEC771
:10254800EA30A0E0FA0759F4E6E1F0E00E94F73932
:102558000E94FE390E94523A0E94363AAFC7EB30C9
:10256800A0E0FA0759F4E4E7F0E00E94F7390E9486
:10257800FE390E945B3A0E94363AA0C7EC30A0E0D0
:10258800FA0749F4E6E9F0E00E94F7390E94FE39BB
:102598000E94643A87C7ED30A0E0FA0759F4EAE1EF
:1025A800F0E00E94F7390E94FE390E943F3A0E94EB
:1025B8004B3A7EC7EE30A0E0FA0749F4EEE5F0E0CA
:1025C8000E94F7390E94FE390E94523A6BC7EF30D9
:1025D800A0E0FA0749F4E4E8F0E00E94F7390E9425
:1025E800FE390E945B3A5EC7E031A0E0FA0749F481
:1025F800E8EBF0E00E94F7390E94FE390E946D3A3C
:102608005DC7E131A0E0FA0759F4E0E2F0E00E948A
:10261800F7390E94FE390E94053A0E94483A4EC78F
:10262800E231A0E0FA0769F4E8E9F0E00E94F7393E
:102638000E94143A0E94763A0E94143A0E94283A5C
:102648003DC7E331A0E0FA0759F4EAEAF0E00E9456
:10265800F7390E94FE390E94853A0E948C3A2EC7AB
:10266800E431A0E0FA0769F4E2E4F0E00E94F73907
:102678000E94FE390E94853A0E948F3A0E94483A89
:102688001DC7E531A0E0FA0749F4EEE4F0E00E9446
:10269800F7390E94FE390E94053A0AC7E631A0E0E0
:1026A800FA0759F4E2ECF0E00E94F7390E94143A74
:1026B8000E94763AA0E1B0E0FBC6E731A0E0FA0755
:1026C80059F4EEECF0E00E94F7390E94FE390E94BE
:1026D800853AA9E9B1E0E6C6E831A0E0FA0759F47D
:1026E800E0E4F0E00E94F7390E94FE390E94853A42
:1026F8000E948F3ADDC6E931A0E0FA0759F4EEE20C
:10270800F0E00E94F7390E94FE390E94523A0E9476
:10271800363AD4C6EA31A0E0FA0759F4EAEFF0E015
:102728000E94F7390E94FE390E94983A0E94483A5E
:10273800C5C6EB31A0E0FA0749F4ECE6F0E00E94E8
:10274800F7390E94FE390E946D3AB8C6EC31A0E014
:10275800FA0749F4E4EAF0E00E94F7390E94FE39EA
:102768000E94643A9FC6ED31A0E0FA0749F4EAE214
:10277800F0E00E94F7390E94FE390E94523A92C650
:10278800EE31A0E0FA0749F4E4E9F0E00E94F739F5
:102798000E94FE390E94983A8BC6EF31A0E0FA07F2
:1027A80059F4EEE6F0E00E94F7390E94FE390E94E3
:1027B800A13AA9E9B1E076C6E032A0E0FA0759F4F7
:1027C800E6E8F0E00E94F7390E94FE390E94643A78
:1027D8000E94363A73C6E132A0E0FA0749F4EEE8FF
:1027E800F0E00E94F7390E94FE39A0E2B0E054C63A
:1027F800E232A0E0FA0759F4EAE5F0E00E94F7397E
:102808000E94FE390E94A83A0E94AF3A57C6E332A6
:10281800A0E0FA0759F4EAEDF0E00E94F7390E94C7
:10282800FE390E94B23A0E94483A48C6E432A0E013
:10283800FA0759F4E2EAF0E00E94F7390E94B93A3F
:102848000E94143A0E94283A39C6E532A0E0FA07F5
:1028580059F4E4E0F1E00E94F7390E94FE390E9441
:10286800A83A0E94CC3A2AC6E632A0E0FA0769F4F0
:10287800E6E3F0E00E94F7390E94143AEFE6F5E04B
:102888000E94A83AA6E9B1E00DC6E732A0E0FA072F
:1028980049F4E8E1F1E00E94F7390E94FE390E940C
:1028A800B23A06C6E832A0E0FA0749F4E6EAF0E0F0
:1028B8000E94F7390E94B93AA0E1B0E0F9C5E932BF
:1028C800A0E0FA0759F4EEE1F0E00E94F7390E941F
:1028D800FE390E943F3A0E944B3AEAC5EA32A0E02C
:1028E800FA0759F4ECE5F0E00E94F7390E94143A2F
:1028F8000E94CF3A0E94483AE1C5EB32A0E0FA07BD
:1029080059F4E2E6F0E00E94F7390E94FE390E948D
:10291800A13A0E94AF3AD2C5EC32A0E0FA0719F406
:102928000E94DA3ACBC5ED32A0E0FA0769F4E0E19B
:10293800F0E00E94F7390E94FE390E943F3A0E9457
:102948004B3A0E94483ABAC5EE32A0E0FA0749F479
:10295800E0E5F0E00E94F7390E94143A0E94CF3A6D
:10296800A7C5EF32A0E0FA0759F4E8E6F0E00E94C4
:10297800F7390E94FE390E94A13AA6E9B1E092C552
:10298800E033A0E0FA0719F40E94DA3A97C5E13378
:10299800A0E0FA0759F4E4E2F0E00E94F7390E9457
:1029A800FE390E943F3A0E94363A88C5E233A0E0D9
:1029B800FA0759F4E4E1F0E00E94F7390E94FE3981
:1029C8000E94B23A0E94483A79C5E333A0E0FA0778
:1029D80059F4E2E8F0E00E94F7390E94FE390E94BB
:1029E800F03A0E94CC3A6AC5E433A0E0FA0749F409
:1029F800E6E0F1E00E94F7390E94FE390E94F73ABA
:102A080057C5E533A0E0FA0749F4ECE4F0E00E948A
:102A1800F7390E94FE390E943F3A44C5E633A0E0E8
:102A2800FA0749F4ECE1F0E00E94F7390E94FE3918
:102A38000E94B23A3DC5E733A0E0FA0749F4E4E161
:102A4800F1E00E94F7390E94FE39AAE1B0E024C5FE
:102A5800E833A0E0FA0759F4EEEEF0E00E94F73907
:102A68000E94FE390E94F73A0E94483A27C5E93386
:102A7800A0E0FA0759F4E8EFF0E00E94F7390E9465
:102A8800FE390E94063B0E94483A18C5EA33A0E086
:102A9800FA0759F4E4EEF0E00E94F7390E94FE3993
:102AA8000E94A13A0E94AF3A09C5EB33A0E0FA07A9
:102AB80059F4E2E5F0E00E94F7390E94FE390E94DD
:102AC8000F3B0E948C3AFAC4EC33A0E0FA0779F481
:102AD800E0E9F0E00E94F7390E94FE390E94163BB7
:102AE800A0E9B1E00E944B3A0E94483AE7C4ED33AE
:102AF800A0E0FA0749F4ECEFF0E00E94F7390E94F1
:102B0800FE390E94983AD4C4EE33A0E0FA0759F48B
:102B1800E8E2F0E00E94F7390E94FE390E94A13AEB
:102B2800A6E9B1E0BFC4EF33A0E0FA0759F4E4E343
:102B3800F0E00E94F7390E94FE390E940F3BA9E994
:102B4800B1E0B0C4E034A0E0FA0749F4ECEEF0E0FC
:102B58000E94F7390E94FE390E94063BA9C4E1345D
:102B6800A0E0FA0759F4ECECF0E00E94F7390E9473
:102B7800FE390E941D3B0E94363AA0C4E234A0E010
:102B8800FA0759F4ECEBF0E00E94F7390E94FE399D
:102B98000E940F3B0E94263B8BC4E334A0E0FA0757
:102BA80059F4ECE9F0E00E94F7390E94FE390E94DE
:102BB8000F3BA6E9B1E076C4E434A0E0FA0749F493
:102BC800ECE7F0E00E94F7390E94FE390E94643A6F
:102BD80069C4E534A0E0FA0749F4E2EDF0E00E94A8
:102BE800F7390E94FE390E941D3B5CC4E634A0E020
:102BF800FA0769F4E6EEF0E00E94F7390E94FE3920
:102C08000E940F3B0E94263B0E94483A57C4E73473
:102C1800A0E0FA0759F4E4EBF0E00E94F7390E94CB
:102C2800FE390E940F3B0E94AF3A48C4E834A0E046
:102C3800FA0759F4ECEAF0E00E94F7390E94FE39ED
:102C48000E94643A0E94363A39C4E934A0E0FA078F
:102C580069F4E2E1F0E00E94F7390E94143AEFE6E5
:102C6800F5E00E94F03A0E94AF3A28C4EA34A0E0A6
:102C7800FA0759F4E2EBF0E00E94F7390E94FE39B6
:102C88000E943F3A0E94363A19C4EB34A0E0FA0792
:102C980059F4ECE0F1E00E94F7390E94FE390E94F5
:102CA800A83A0E94AF3A0AC4EC34A0E0FA0719F433
:102CB8000E94DA3A03C4ED34A0E0FA0769F4E6E2C8
:102CC800F0E00E94F7390E94143AEFE6F5E00E941E
:102CD800F03AA6E9B1E0E6C3EE34A0E0FA0759F409
:102CE800ECE1F1E00E94F7390E94FE390E94293B8D
:102CF800A6E9B1E0D7C3EF34A0E0FA0759F4E2E15E
:102D0800F1E00E94F7390E94FE390E94A83AA6E92C
:102D1800B1E0C8C3E035A0E0FA0719F40E94DA3A36
:102D2800CDC3E135A0E0FA0759F4EAEEF0E00E94DD
:102D3800F7390E94FE390E94303B0E94363ABEC3E2
:102D4800E235A0E0FA0759F4E8EDF0E00E94F7391F
:102D58000E94FE390E94393B0E94363AAFC3E335E0
:102D6800A0E0FA0769F4ECE8F0E00E94F7390E9465
:102D7800FE39A2E2B0E00E94423BA9E9B1E092C369
:102D8800E435A0E0FA0759F4E0EAF0E00E94F739E8
:102D98000E94473B0E94503BA0E1B0E089C3E53563
:102DA800A0E0FA0749F4EEEAF0E00E94F7390E9441
:102DB800FE390E94303B76C3E635A0E0FA0749F4B5
:102DC800E6EFF0E00E94F7390E94FE390E94393B95
:102DD80069C3E735A0E0FA0759F4E4ECF0E00E9493
:102DE800F7390E94FE390E94573B0E948C3A66C30D
:102DF800E835A0E0FA0769F4EEE7F0E00E94F73959
:102E08000E94473B0E94503B0E94143A0E94283A75
:102E180055C3E935A0E0FA0759F4ECE2F0E00E9466
:102E2800F7390E94FE390E94163B0E94AF3A46C30A
:102E3800EA35A0E0FA0749F4E0EFF0E00E94F7393C
:102E48000E94FE390E94053A33C3EB35A0E0FA0729
:102E580059F4E8EAF0E00E94F7390E94FE390E942E
:102E6800A13AA9E9B1E01EC3EC35A0E0FA0719F4CC
:102E78000E94DA3A23C3ED35A0E0FA0759F4E0E3FB
:102E8800F0E00E94F7390E94FE390E94163BA6E93D
:102E9800B1E008C3EE35A0E0FA0759F4E4EFF0E03A
:102EA8000E94F7390E94FE390E94053A0E94483A6A
:102EB80005C3EF35A0E0FA0749F4EEE9F0E00E9417
:102EC800F7390E94FE390E946D3AF8C2E036A0E058
:102ED800FA0719F40E94DA3AF1C2E136A0E0FA07DB
:102EE80059F4EAE6F0E00E94F7390E94FE390E94A0
:102EF800643A0E94363AE2C2E236A0E0FA0769F480
:102F0800EEEBF0E00E94F7390E94FE390E942D3A5C
:102F18000E945A3B0E94483AD1C2E336A0E0FA0721
:102F280059F4EAEBF0E00E94F7390E94FE390E945A
:102F3800293BA9E9B1E0B6C2E436A0E0FA0759F4A2
:102F4800E0E6F0E00E94F7390E94FE390E943F3A1D
:102F58000E94363AB3C2E536A0E0FA0749F4E0E742
:102F6800F0E00E94F7390E94FE390E94643A9AC242
:102F7800E636A0E0FA0759F4EAE8F0E00E94F739EB
:102F88000E94FE390E942D3A0E945A3B91C2E736B0
:102F9800A0E0FA0759F4E0E8F0E00E94F7390E944F
:102FA800FE390E94293B0E948C3A88C2E836A0E08C
:102FB800FA0749F4E6EBF0E00E94F7390E94FE397F
:102FC8000E943F3A6FC2E936A0E0FA0769F4E4E4E8
:102FD800F0E00E94F7390E94FE390E94613B0E948E
:102FE8008F3A0E94483A6AC2EA36A0E0FA0749F4E2
:102FF800EAE3F0E00E94F7390E94FE390E94B23AF3
:1030080057C2EB36A0E0FA0719F40E94DA3A56C222
:10301800EC36A0E0FA0769F4E6ECF0E00E94F73934
:103028000E94FE390E940F3B0E94263B0E94483AAC
:1030380045C2ED36A0E0FA0759F4EAE0F0E00E9454
:10304800F7390E94143A0E94193AA0E1B0E030C260
:10305800EE36A0E0FA0759F4E2E3F0E00E94F7390F
:103068000E94FE390E94B23A0E94483A27C2EF36BF
:10307800A0E0FA0719F40E94DA3A20C2E037A0E08B
:10308800FA0759F4E2EEF0E00E94F7390E94FE399F
:103098000E940F3B0E94263B0BC2E137A0E0FA07D3
:1030A80069F4E4EDF0E00E94F7390E94FE390E94CD
:1030B800643B0E94263B0E94483A00C2E237A0E0E7
:1030C800FA0779F4EAE4F0E00E94F7390E94143A2A
:1030D8000E94673B0E94503BAFE0B0E00E94483A34
:1030E800EDC1E337A0E0FA0769F4E6E7F0E00E94F3
:1030F800F7390E946A3BACE9B1E00E944B3A0E9462
:10310800483ADCC1E437A0E0FA0759F4E2E9F0E014
:103118000E94F7390E94FE390E94A83AA6E9B1E058
:10312800C1C1E537A0E0FA0759F4EAE1F1E00E94ED
:10313800F7390E94FE390E94643B0E94263BB8C1C1
:10314800E637A0E0FA0759F4E6E5F0E00E94F7391F
:103158000E94143A0E94673B0E94263BA9C1E737A8
:10316800A0E0FA0759F4E2E7F0E00E94F7390E947C
:103178006A3BACE9B1E00E944B3A9AC1E837A0E05B
:10318800FA0759F4E0EDF0E00E94F7390E94FE39A1
:103198000E94A83A0E94AF3A91C1E937A0E0FA0725
:1031A80069F4E8E4F0E00E94F7390E94143A0E94BA
:1031B800673B0E94263B0E94483A80C1EA37A0E05C
:1031C800FA0759F4EAE9F0E00E94F7390E94FE395B
:1031D8000E94293B0E94AF3A71C1EB37A0E0FA0781
:1031E80069F4E6E4F0E00E94F7390E94143A0E947C
:1031F800713B0E94763B0E94483A60C1EC37A0E0E0
:10320800FA0789F4E0EEF0E00E94F7390E947F3B6C
:10321800A5E1B0E00E94423B0E94503BA3E1B0E030
:103228000E94483A4BC1ED37A0E0FA0759F4E8E3A9
:10323800F0E00E94F7390E94FE390E94293B0E9463
:10324800263B36C1EE37A0E0FA0759F4EAECF0E085
:103258000E94F7390E94FE390E94293BA6E9B1E095
:1032680021C1EF37A0E0FA0759F4EEEDF0E00E9433
:10327800F7390E94143A0E94713B0E94763B18C1AC
:10328800E038A0E0FA0769F4E6E1F1E00E94F739D6
:103298000E94143AEFE6F5E00E942D3A0E94863B20
:1032A80007C1E138A0E0FA0779F4E8EEF0E00E94FF
:1032B800F7390E947F3B0E948D3BA9E9B1E00E944B
:1032C800863B0E94483AFAC0E238A0E0FA0769F45F
:1032D800E2EFF0E00E94F7390E94903B0E94503BD9
:1032E8000E94143A0E94283AE9C0E338A0E0FA079D
:1032F80049F4E8E0F1E00E94F7390E94FE39AFE1B5
:10330800B0E0CAC0E438A0E0FA0759F4E4E6F0E017
:103318000E94F7390E94FE390E940F3B0E94CC3A66
:10332800CDC0E538A0E0FA0769F4E8E8F0E00E94CB
:10333800F7390E947F3B0E948D3BA9E9B1E00E94CA
:10334800863BB6C0E638A0E0FA0759F4EEE0F1E0B3
:103358000E94F7390E94903B0E94503BA0E1B0E0E8
:10336800A7C0E738A0E0FA0759F4E4E5F0E00E94C6
:10337800F7390E94FE390E94613B0E94CC3A9EC0F8
:10338800E838A0E0FA0779F4EEE3F0E00E94F739B4
:103398000E94143AEFE6F5E00E948D3B0E94973BAD
:1033A800A0E1B0E085C0E938A0E0FA0759F4ECE004
:1033B800F0E00E94F7390E94FE390E94B23A0E945A
:1033C800483A7CC0EA38A0E0FA0759F4ECEDF0E09E
:1033D8000E94F7390E94143AEFE6F5E00E94053A98
:1033E80067C0EB38A0E0FA0759F4E8E5F0E00E947E
:1033F800F7390E94FE390E94643BA6E9B1E052C049
:10340800EC38A0E0FA0779F4ECE3F0E00E94F73931
:103418000E94143A0E94713B0E94973B0E94143A02
:103428000E94283A4BC0ED38A0E0FA0749F4EEE0D4
:10343800F0E00E94F7390E94FE390E94B23A38C083
:10344800EE38A0E0FA0769F4EAE0F1E00E94F73903
:103458000E94143AEFE6F5E00E94053A0E94483AC5
:103468002DC0EF38A0E0FA0759F4E2E2F0E00E943C
:10347800F7390E94FE390E94643B0E94AF3A1EC091
:10348800E039A0E0FA0769F5E6E6F0E00E94F739CE
:103498000E94FE39ACE1B0E0A083B183E1E7F5E03A
:1034A800ACE9B1E0A083B183E5E7F5E0A2E1B0E0E3
:1034B800A083B183E9E7F5E0A1E0B0E0A083B183A0
:1034C8000E949E3B3196E0936905F0936A050E943D
:1034D800A33BE0936B05F0936C050E94A83B0E9408
:1034E800AD3B0E94BC3BE130A0E0FA0721F40E940A
:1034F800C13B0E94C63B0E94BC3B0E94CB3B29F0CB
:103508000E94C13B35970E94C63B0E94C13B36973B
:103518000E94C63B0E94D83B3697E0936B05F09318
:103528006C050E94DD3BA0E0B0E00E949C430E2E9B
:103538000E94E23B0E94E73BE02939F00E94EC3B05
:103548003597E0937505F09376050E94F13B9897BF
:1035580039F40E94A33B7396E0936F05F0937005CE
:103568000E94F63B0E94E73B0E94FB3B0E94033C03
:103578000E94FB3B39F00E94A83B70960E94093CD0
:103588000E94AD3B0E940E3C0E94FB3B39F00E941A
:10359800A83BB0960E94093C0E94AD3B0E94143C97
:1035A8000E94FB3B39F00E94A83BF0960E94093C20
:1035B8000E94AD3B0E94F63B0E94E73B0E941A3CEA
:1035C80039F00E94A83BF9960E94093C0E94AD3B45
:1035D8000E94033C0E941A3C41F00E94A83BEE5B0B
:1035E800FF4F0E94093C0E94AD3B0E940E3C0E9486
:1035F8001A3C41F00E94A83BE55BFF4F0E94093C42
:103608000E94AD3B0E94143C0E941A3C41F00E946B
:10361800A83BEC5AFF4F0E94093C0E94AD3B229602
:1036280008950E942838A0912D05B0912E0580910B
:103638002F05909130050E94223C14F40C94771BBE
:10364800E0E0E0932D05E0932E05E0932F05E0934D
:1036580030050E9400390E941205E03001F50E94F1
:10366800B8380E94B8380E942A3C1A9B02C00E94AF
:10367800323C1B9B02C00E943A3C0E94423C11F41F
:103688000E94473C0E946B39E7EEF5E00E947A39C8
:103698000E945D3CE7EEF5E00E946C3CDACF979B18
:1036A80022C0002E012A61F40E9400390E941205EE
:1036B800E13029F40E94B8380E9416398F01F1CF01
:1036C8000E946B390E945D3C0E94793C11F40E9473
:1036D800803C0E94873C11F40E948D3C0E94943CDF
:1036E80011F40E949A3CB4C00E9428380E94B53C4C
:1036F8000E94E73B0E94BA3CE02111F40C94D41BD1
:103708000E9400390E940B05E13001F50E94B8388B
:103718000E94B8380E942A3C1A9B02C00E94323C80
:103728001B9B02C00E943A3C0E94423C11F40E943A
:10373800473C0E946B39EFE0F6E00E947A390E941C
:103748005D3CEFE0F6E00E946C3CDACF979B28C026
:10375800002E012A91F40E9400390E940A39EF9341
:103768000E9400390E941039AF91EA2329F00E9483
:10377800B8380E9416398F01EBCF0E946B390E942E
:103788005D3C0E94793C11F40E94803C0E94873C79
:1037980011F40E948D3C0E94943C11F40E949A3CC2
:1037A8000E94C03C0E94BA3CE02111F40C942C1CED
:1037B8000E9400390E940E05E13001F50E94B838D8
:1037C8000E94B8380E942A3C1A9B02C00E94323CD0
:1037D8001B9B02C00E943A3C0E94423C11F40E948A
:1037E800473C0E946B39EFE0F6E00E947A390E946C
:1037F8005D3CEFE0F6E00E946C3CDACF979B28C076
:10380800002E012A91F40E9400390E940A39EF9390
:103818000E9400390E941039AF91EA2329F00E94D2
:10382800B8380E9416398F01EBCF0E946B390E947D
:103838005D3C0E94793C11F40E94803C0E94873CC8
:1038480011F40E948D3C0E94943C11F40E949A3C11
:103858000991199108950E94C63C0E94CB3C0E9490
:10386800CE3C0E94D43C0E94D93C0E94DC3C0E9481
:10387800DD3B0E94CB3C0E94B8380E949B05E0913A
:103888007F05F09180050E94D93C0E9452390E9420
:103898009B05E0918105F09182050E94D93C0E9428
:1038A80057390E949B05E0918305F09184050E9499
:1038B800CB3C0E94BD380E949B05E0918505F091A4
:1038C80086050E94D93C0E94E23CA4E1B0E00E9437
:1038D800DC43FA93EA930E94BD380E94E23C0E94BE
:1038E800E83C0E94D93C0E94BD380E949B050E947A
:1038F8005A38E8E2F0E00E94CB3C0E94E23CE1E961
:10390800F0E00E94CB3C0E94ED3C0E94F23C0E94F9
:10391800ED3C0E94CE3C0E94BC3B0E94F53C0E94BC
:10392800E23C0895E0913105F09132053097B9F401
:103938000E946B39E5E3F6E00E947A390E945D3C0B
:10394800E5E3F6E00E946C3C0E94F83C0E94B8381F
:103958000E941639E0933105F0933205E3CF0E94B7
:1039680000390E94FE3CEF930E9400390E94043DFA
:10397800AF91EA2B69F00E946B39EEE5F6E00E9400
:103988007A390E945D3CEEE5F6E00E946C3CE7CF98
:10399800C49A0E94F83CC69A0E940A3D0E94143DAF
:1039A800EF930E940A3D0E941A3DAF91EA2B11F451
:1039B8000C94661D0E9400390E94FE3CEF930E9401
:1039C80000390E94043DAF91EA2B89F00E94203D06
:1039D800E3E7F6E00E947A390E945D3C0E94253DAB
:1039E8000E94B8380E94B8380E94CE3CEFCF0E949F
:1039F80000390E941205E03089F40E94203DE2EB74
:103A0800F6E00E947A390E945D3C0E94253D0E94A2
:103A1800B8380E94B8380E94CE3CEFCF0E946B396C
:103A2800E7EDF6E00E947A390E945D3CE7EDF6E0AA
:103A38000E946C3C0E94F83C0E940A3D0E941705B7
:103A4800E03041F40E946B39E6EFF6E00E947A39E3
:103A58000E94F83C0E940A3D0E942C05E03041F487
:103A68000E945D3CE5E1F7E00E947A390E94F83C4B
:103A78000E9400390E94283DEF930E9400390E945D
:103A88001A3DAF91EA2BE9F0979A0E9400390E94FB
:103A98002705E13041F40E946B39E4E3F7E00E9426
:103AA8007A390E94F83C0E9400390E942C05E130C6
:103AB80041F40E946B39E6E4F7E00E947A390E94EB
:103AC800F83C6ACFC498929A0E94F83C0E946139E7
:103AD8000E94143DEF930E942E3D0E94143DAF9129
:103AE800EA2B11F40C94041E0E9400390E94FE3C3B
:103AF800EF930E9400390E94043DAF91EA2BA9F090
:103B0800979AC6980E946B39E3E7F6E00E947A39E3
:103B18000E945D3C0E94253DC49892980E94B83846
:103B28000E94B8380E94CE3CEBCF0E9400390E9418
:103B38001205E03089F40E94203DE2EBF6E00E9495
:103B48007A390E945D3C0E94253D0E94B8380E9447
:103B5800B8380E94CE3CEFCF0E946B39E7EDF6E013
:103B68000E947A390E945D3CE7EDF6E00E946C3CC9
:103B78000E94F83C0E9461390E941705E03041F428
:103B88000E946B39E8E5F7E00E947A390E94F83C18
:103B98000E942E3D0E941705E03041F40E945D3CD2
:103BA800E7E7F7E00E946C3C0E94F83C0E9461390C
:103BB8000E94383DEF930E942E3D0E94383DAF9100
:103BC800EA2BE9F0979A0E9461390E942105E130B9
:103BD80041F40E946B39E6E9F7E00E947A390E94C5
:103BE800F83C0E942E3D0E942105E13041F40E94DC
:103BF8006B39E8EAF7E00E947A390E94F83C66CF10
:103C08000E946B39EAEBF7E00E947A390E945D3C2A
:103C1800EAEBF7E00E946C3C9298C6980E94F83C48
:103C28000E94B8380E94B8380E94CE3C0E943E3D9F
:103C380008950E9400390E940A39EF930E940039C2
:103C48000E941039AF91EA2311F40C94701E0E945F
:103C58002E3D0E942705A0E00E949743EF930E9403
:103C68002E3D0E942C05A0E00E949743AF910E9430
:103C7800443D0E944B3D31F0E1E0F0E0E093630504
:103C8800F09364050E942E3D0E94283DEF930E9408
:103C98002E3D0E941A3DAF910E94443D0E94E73B91
:103CA800E02131F0E2E0F0E0E0936305F093640591
:103CB8000E94513DE1E00E949743E02119F01E98CF
:103CC8000E945E3D0E94513DE0E00E949743E02142
:103CD80019F01E9A0E945E3D08951A930A93A091C6
:103CE8002105B091220580912305909124050E9419
:103CF800223C14F40C94C81E0E94693DF501D401BD
:103D08000E94AE43EF930E9487390E94FE3CEF93D6
:103D18000E9487390E94043DAF91EA2BEF930E94DD
:103D280087390E941205A1E00E949743AF91EA2BC0
:103D3800EF930E9487390E94143DAF91EA2BEF93CD
:103D48000E9487390E941D05A1E00E949743AF9108
:103D5800EA2BEF930E9487390E94383DAF91EA2BF6
:103D6800EF930E9487390E94283DAF91EA2BEF9389
:103D78000E9487390E941A3DAF91EA2BAF91EA233E
:103D880019F0F40131964F01A814B90441F40E94C6
:103D9800ED068F010E94693DF40131964F01F5014E
:103DA8003196E815F905B9F5E1E0F0E0E017F1071B
:103DB80041F40E94B8380E94B8380E9457390E94CE
:103DC8009B05D8010E94733D0E2E0E94783D0E94EB
:103DD8004B3D41F00E94B8380E94B8380E94BD3867
:103DE8000E949B05D8010E94733D0E94BA3CE021C5
:103DF80031F0E1E0F0E0E093A705F093A80588240E
:103E080099240E94783D119731F4E1E0F0E0E093C5
:103E1800A505F093A6050991199108950E946139A5
:103E28000E942105E13079F40E947D3D0E946B39A2
:103E3800EDEDF7E00E947A390E945D3CEDEDF7E088
:103E48000E946C3CF3CF0E94783D119711F40E94B8
:103E5800883DE0913705F0913805309711F00C94C2
:103E68007A1F0E948C3DE881E0930905E17011F406
:103E7800D89801C0D89AE0910905E27011F4D99850
:103E880001C0D99AE0910905E47011F4DA9801C0EB
:103E9800DA9AE0910905E87011F4DB9801C0DB9A21
:103EA800E0910905E07111F4DC9801C0DC9AE09119
:103EB8000905E07211F4DD9801C0DD9AE091090569
:103EC800E07411F4DE9801C0DE9AE0910905E0780B
:103ED80011F4DF9801C0DF9AA881B981A030E1E030
:103EE800BE070CF0949AE1E0F0E047C0E130A0E0B2
:103EF800FA0789F4A0911105B09112058091130574
:103F0800909114050E94963D2CF0939AE2E0F0E01F
:103F18000E949E3D36C0E230A0E0FA0789F40E9474
:103F280061390E940B05E03051F49398E0E0EBBB57
:103F380094980E948C3DE3E0F0E00E949E3D21C0F1
:103F4800E330A0E0FA0769F40E9461390E9417057E
:103F5800E03031F40E948C3DE4E0F0E00E949E3DA8
:103F680010C0E430A0E0FA0761F40E9461390E94B1
:103F78000B05E13031F4E5E0F0E0E0933705F0932C
:103F88003805E0913705F09138059AC10E942E3D19
:103F98000E942105E13079F40E947D3D0E946B3931
:103FA800E6EFF7E00E947A390E945D3CE6EFF7E021
:103FB8000E946C3CF3CF0E94783D119711F40E9447
:103FC800883DE0913B05F0913C05309711F00C9449
:103FD80032200E94A33DE881E0930A05E17011F4C4
:103FE800A89801C0A89AE0910A05E27011F4A9986E
:103FF80001C0A99AE0910A05E47011F4AA9801C0D9
:10400800AA9AE0910A05E87011F4AB9801C0AB9A3E
:10401800E0910A05E07111F4AC9801C0AC9AE09106
:104028000A05E07211F4AD9801C0AD9AE0910A0555
:10403800E07411F4AE9801C0AE9AE0910A05E078F8
:1040480011F4AF9801C0AF9AA881B981A030E1E01E
:10405800BE070CF0959AE1E0F0E047C0E130A0E03F
:10406800FA0789F4A0911905B0911A0580911B05EA
:1040780090911C050E94963D2CF0969AE2E0F0E0A3
:104088000E94AD3D36C0E230A0E0FA0789F40E94F4
:104098002E3D0E940B05E03051F49698E0E0E5BB18
:1040A80095980E94A33DE3E0F0E00E94AD3D21C059
:1040B800E330A0E0FA0769F40E942E3D0E9417053C
:1040C800E03031F40E94A33DE4E0F0E00E94AD3D11
:1040D80010C0E430A0E0FA0761F40E942E3D0E946F
:1040E8000B05E13031F4E5E0F0E0E0933B05F093B7
:1040F8003C05E0913B05F0913C05E2C00E94003987
:104108000E942C05E13079F40E947D3D0E946B39B4
:10411800E1E1F8E00E947A390E945D3CE1E1F8E0D3
:104128000E946C3CF3CF0E94783D119711F40E94D5
:10413800883DE0913905F0913A05309711F00C94DB
:10414800EA20E881E0930705E1700E2EE091000572
:10415800EE7F0E94B23DE695E170EE0F0E2EE091E3
:104168000005ED7F0E94B23DE695E695E170EE0F01
:10417800EE0F0E2EE0910005EB7F0E94B23DE69512
:10418800E695E695E170EE0FEE0FEE0F0E2EE0913C
:104198000005E77F0E94B23DE295E170E795E0E017
:1041A800E7950E2EE0910005EF77E0290E94B83DD3
:1041B800E0910705E07211F4C79801C0C79A0E9400
:1041C800BD3DE1E0F0E00E94C73D76C0E130A0E0EF
:1041D800FA07A9F4A0911505B09116058091170565
:1041E800909118050E94963D4CF0E0910005E06220
:1041F8000E94B83DE2E0F0E00E94C73D5DC0E230B9
:10420800A0E0FA0721F50E940A3D0E940B05E03064
:10421800E9F4E0910005EF7D0E94B83DE0910005CA
:10422800EE7F0E94CC3DED7F0E94CC3DEB7F0E944B
:10423800CC3DE77F0E94CC3DEF770E94B83DC79800
:104248000E94BD3DE3E0F0E00E94C73D35C0E33089
:10425800A0E0FA0769F40E940A3D0E941705E030C1
:1042680031F40E94BD3DE4E0F0E00E94C73D24C067
:10427800E430A0E0FA0701F50E940A3D0E940B0510
:10428800E130D1F4E5E0F0E00E94C73DE091470558
:10429800F0914805309739F4E1E0F0E0E093470504
:1042A800F093480509C0E130A0E0FA0729F4E0E0FE
:1042B800E0934705E0934805E0913905F0913A0508
:1042C800229608950E9400390E942705E13079F46A
:1042D8000E947D3D0E946B39E9E3F8E00E947A393B
:1042E8000E945D3CE9E3F8E00E946C3CF3CF0E9439
:1042F800783D119711F40E94883DE0913D05F091B9
:104308003E05309749F5EA81E0930805E17011F41C
:10431800C09801C0C09AE0910805E27011F4C198F4
:1043280001C0C19AE0910805E47011F4C29801C077
:10433800C29AE0910805E87011F4C39801C0C39AC5
:10434800E0910805E07111F41C9801C01C9A0E94C4
:10435800CF3DE1E0F0E049C0E130A0E0FA0789F4A0
:10436800A0911D05B0911E0580911F059091200513
:104378000E94963D2CF0C59AE2E0F0E00E94D93DFB
:1043880038C0E230A0E0FA0799F40E940A3D0E9482
:104398001D05E03061F4C598C098C198C298C398CB
:1043A8001C980E94CF3DE3E0F0E00E94D93D21C077
:1043B800E330A0E0FA0769F40E940A3D0E942C0548
:1043C800E03031F40E94CF3DE4E0F0E00E94D93DB6
:1043D80010C0E430A0E0FA0761F40E940A3D0E9490
:1043E8001D05E13031F4E5E0F0E0E0933D05F093A0
:1043F8003E05E0913D05F0913E05249608956897A5
:104408000E940E4420E030E000E010E040E050E080
:104418004B30E0E05E0744F4FA010E94DE3D0E9462
:10442800E2394F5F5F4FF4CFE1E9F0E0E0939705A1
:10443800F09398050E9427390E941C39E09397054C
:10444800F0939805A0919705B0919805A139E0E0FF
:10445800BE0761F0E0919705F0919805E0930D058E
:10446800F0930E05E0930F05F09310050E94E53DCB
:104478000E94E73B0E2E0E94EA3D0E94EF3D0E94FB
:10448800F43D0E94053E0E940F3EEF930E940039C2
:104498000E940A39AF91EA23EF930E9400390E94E3
:1044A8001039AF91EA2311F40C949F230E94E53D43
:1044B800119711F00C949F23F801309749F40E944A
:1044C800193E0E941F3E0E94193E01E010E032C1D1
:1044D800E130A0E0FA07D1F40E94323E159724F4A7
:1044E8000E94B8380E94373E0E943A3E159734F42D
:1044F8000E94B8380E94B8380E943F3E0E94423E4F
:1045080021F00E944F3E02E010E014C1E230A0E02A
:10451800FA07C1F40E94593E159724F40E94B8384E
:104528000E945E3E0E94613E159724F40E94663EFA
:104538000E946B3E0E946E3E21F00E947B3E03E08B
:1045480010E0F8C0E330A0E0FA0789F40E94593E71
:10455800159724F40E94853E0E945E3E0E94593EB3
:10456800159721F40E947B3E04E010E0E3C0E4309C
:10457800A0E0FA0789F40E94323E159724F40E94BD
:10458800A33B0E94893E0E94323E159721F40E9467
:104598007B3E05E010E0CEC0E530A0E0FA0711F060
:1045A8000C945C230E9400390E940A39EF930E9400
:1045B80000390E941039AF91EA2311F40C945B235F
:1045C8000E9427390E9452390E9434059F01022E09
:1045D800032A11F40AE912E0D9010E94733D0E2E54
:1045E8000E94F03821F00E948C3E0E949A390E9465
:1045F800903E0E22AC85BD850E944B3D21F00E9465
:104608008C3E0E949A390E94993E0E22AE85BF8543
:104618000E944B3D21F00E948C3E0E949A390E94D4
:10462800A23E0E22A889B9890E944B3D21F00E9422
:104638008C3E0E949A390E94AB3E0E22AA89BB8901
:104648000E944B3D21F00E948C3E0E949A390E94A4
:10465800B43E0E22AC89BD890E944B3D21F00E94D8
:104668008C3E0E949A390E94BD3E0E22AE89BF89B7
:104678000E944B3D21F00E948C3E0E949A390E9474
:10468800C63E0E22A88DB98D0E944B3D21F00E9496
:104698008C3E0E949A390E94CF3E0E22AA8DBB8D75
:1046A8000E944B3D21F00E948C3E0E949A3942C0E4
:1046B800E630A0E0FA0789F40E94323E159724F408
:1046C8000E94B8380E94373E0E94323E159721F466
:1046D8000E947B3E07E010E02DC0E730A0E0FA071B
:1046E80079F40E94593E159714F40E94D83E0E940E
:1046F800593E159721F40E947B3E04E010E01AC051
:10470800EA39A2E0FA07B1F40E94323E159724F480
:104718000E94B8380E94373E0E94323E159751F4E5
:104728000E944F3E04E610E0E0E0E0938705E09346
:104738008805C698BBCE0E94E53D0E94EF3D0E2E2F
:104748000E94EA3D0E94E73B0E94F43D0E94DD3E44
:104758000E94E23E0E94E83EE021EF930E94003969
:104768000E940A39AF91EA23EF930E9400390E9410
:104778001039AF91EA2311F40C9407250E94EA3D01
:10478800119711F00C940725F801309749F40E940D
:10479800F13E0E941F3E0E94F13E01E010E032C14E
:1047A800E130A0E0FA07D1F40E94323E159724F4D4
:1047B8000E94B8380E94373E0E943A3E159734F45A
:1047C8000E94B8380E94B8380E943F3E0E94423E7C
:1047D80021F00E944F3E02E010E014C1E230A0E058
:1047E800FA07C1F40E94593E159724F40E94F73E37
:1047F8000E945E3E0E94613E159724F40E94FC3E92
:104808000E946B3E0E946E3E21F00E947B3E03E0B8
:1048180010E0F8C0E330A0E0FA0789F40E94593E9E
:10482800159724F40E94013F0E945E3E0E94593E63
:10483800159721F40E947B3E04E010E0E3C0E430C9
:10484800A0E0FA0789F40E94323E159724F40E94EA
:10485800A33B0E94893E0E94323E159721F40E9494
:104868007B3E05E010E0CEC0E530A0E0FA0711F08D
:104878000C94C4240E9400390E940A39EF930E94C4
:1048880000390E941039AF91EA2311F40C94C32423
:104898000E9427390E9457390E9434059F01022E31
:1048A800032A11F40AE912E0D9010E94733D0E2E81
:1048B8000E94F03821F00E948C3E0E949A390E9492
:1048C800903E0E22AC85BD850E944B3D21F00E9492
:1048D8008C3E0E949A390E94993E0E22AE85BF8571
:1048E8000E944B3D21F00E948C3E0E949A390E9402
:1048F800A23E0E22A889B9890E944B3D21F00E9450
:104908008C3E0E949A390E94AB3E0E22AA89BB892E
:104918000E944B3D21F00E948C3E0E949A390E94D1
:10492800B43E0E22AC89BD890E944B3D21F00E9405
:104938008C3E0E949A390E94BD3E0E22AE89BF89E4
:104948000E944B3D21F00E948C3E0E949A390E94A1
:10495800C63E0E22A88DB98D0E944B3D21F00E94C3
:104968008C3E0E949A390E94CF3E0E22AA8DBB8DA2
:104978000E944B3D21F00E948C3E0E949A3942C011
:10498800E630A0E0FA0789F40E94323E159724F435
:104998000E94B8380E94373E0E94323E159721F493
:1049A8000E947B3E07E010E02DC0E730A0E0FA0748
:1049B80079F40E94593E159714F40E94D83E0E943B
:1049C800593E159721F40E947B3E04E010E01AC07E
:1049D800EA39A2E0FA07B1F40E94323E159724F4AE
:1049E8000E94B8380E94373E0E94323E159751F413
:1049F8000E944F3E04E610E0C698E0E0E093890587
:104A0800E0938A05BBCE0E9415446E9608950E94D5
:104A1800083F0F01A4E1B0E00E94DC430E161F0618
:104A2800A4F00E940D3F0E94113F0E9452390E943B
:104A3800B8380E948005EAE6F8E0FA93EA930E9403
:104A480052390E94B8380E9480050E94163F0F0113
:104A58000E94E83C0E161F0674F00E940D3F0E944B
:104A6800113F0E941B3F0E948005E3E8F8E00E9486
:104A78001E3F0E9480050E94213F0F010E94E83CD2
:104A88000E161F0674F00E940D3F0E94113F0E94EF
:104A98001B3F0E948005E2EBF8E00E941E3F0E9447
:104AA80080050E94263F0F010E94E83C0E161F0653
:104AB80074F00E940D3F0E94113F0E941B3F0E940C
:104AC8008005E1EEF8E00E941E3F0E9480050E94EA
:104AD8002B3F0F010E94E83C0E161F0674F00E943F
:104AE8000D3F0E94113F0E941B3F0E948005E0E19C
:104AF800F9E00E941E3F0E9480050E94303F0F018E
:104B08000E94E83C0E161F0674F00E940D3F0E949A
:104B1800113F0E941B3F0E948005EFE3F9E00E94CD
:104B28001E3F0E948005089524970E940E44E0E0ED
:104B3800EE83EF830E9400390E940A39EF930E94A6
:104B480000390E941039AF91EA2371F00E94273989
:104B58000E9495390E9434058F010E9427390E94CE
:104B680027390E943405AF01E1E0F0E0E017F107D2
:104B780011F00C94A326EE81FF81309741F40E9436
:104B88007B3EC69AE1E0F0E0EE83FF83D7C0E130D8
:104B9800A0E0FA07E1F40E94323E159724F40E943F
:104BA800B8380E94373E0E943A3E159734F40E9466
:104BB800B8380E94B8380E943F3E0E94423E31F009
:104BC8000E944F3EE2E0F0E0EE83FF83B7C0E230A0
:104BD800A0E0FA07C1F40E94593E159724F40E94F8
:104BE800353F0E945E3E0E94613E159724F40E9464
:104BF800353F0E946B3E0E946E3E21F00E947B3E34
:104C08000E943A3F9BC0E330A0E0FA0711F00C94F1
:104C180078260E94323E159724F4E2E0F0E00E94E4
:104C2800893E0E943A3E159734F4E2E0F0E00E9493
:104C3800F53C0E943F3E0E94423E11F40C947726B8
:104C48000E944F3E0E9427390E9495390E943405E0
:104C5800E887F987309779F40E9400390E940A3969
:104C6800EF930E9400390E941039AF91EA2311F0A6
:104C78000E943F3F38C0E130A0E0FA0721F40E94CB
:104C88003A3FC69830C0E230A0E0FA0761F5E1E0AB
:104C9800F0E0E0937B05F0937C05E0910005EF7B65
:104CA8000E94B83DE0E0E0938D05E0938E05A0E119
:104CB800B0E00E94453F0E94B3050E94113F0E9448
:104CC80052390E94B8380E9480050E9400390E941B
:104CD8000A39EF930E9400390E941039AF91EA23F4
:104CE80011F00E943F3F2AC0E430A0E0FA0731F5F6
:104CF8000E94323E159724F40E94B8380E94373E2D
:104D08000E943A3E159734F40E94B8380E94B83889
:104D18000E943F3E0E94423E89F00E947B3E0E94D4
:104D2800B8380E9427390E9495390E949B05C69879
:104D3800E5E0F0E0EE83FF8300E010E015CFE1E06E
:104D4800F0E0E417F50711F00C94B527EE81FF8128
:104D5800309741F40E947B3EC69AE1E0F0E0EE8392
:104D6800FF83FEC0E130A0E0FA07E1F40E94323E82
:104D7800159724F40E94B8380E94373E0E943A3EA4
:104D8800159734F40E94B8380E94B8380E943F3E04
:104D98000E94423E31F00E944F3EE2E0F0E0EE8396
:104DA800FF83DEC0E230A0E0FA07C1F40E94593E5A
:104DB800159724F40E94353F0E945E3E0E94613E92
:104DC800159724F40E94353F0E946B3E0E946E3E68
:104DD80021F00E947B3E0E943A3FC2C0E330A0E02F
:104DE800FA0711F00C948A270E94323E159724F492
:104DF800E2E0F0E00E94893E0E943A3E159734F4C2
:104E0800E2E0F0E00E94F53C0E943F3E0E94423EF4
:104E180011F40C9489270E944F3E0E9427390E9462
:104E280027390E9434059F01F901309779F40E94CF
:104E380000390E940A39EF930E9400390E94103904
:104E4800AF91EA2311F00E943F3F5FC0E130A0E03C
:104E5800FA0721F4C698E3E0F0E055C0E230A0E09C
:104E6800FA0711F00C948927E1E0F0E0E0937D0562
:104E7800F0937E05E0910005EF7B0E94B83DE0E0ED
:104E8800E0938B05E0938C050E944A3F929721F4AA
:104E9800A6E0B0E00E94453F0E944A3F949721F463
:104EA800A8E0B0E00E94453F0E944A3F969721F44F
:104EB800AAE0B0E00E94453F0E944A3F999721F43A
:104EC800ACE0B0E00E94453F0E944A3F9B9721F426
:104ED800AEE0B0E00E94453F0E94B3050E94113F3A
:104EE8000E941B3F0E9480050E9400390E940A39D7
:104EF800EF930E9400390E941039AF91EA2329F0FC
:104F0800C69AE4E0F0E0EE83FF832AC0E430A0E034
:104F1800FA0731F50E94323E159724F40E94B838FA
:104F28000E94373E0E943A3E159734F40E94B838E2
:104F38000E94B8380E943F3E0E94423E89F00E947B
:104F48007B3EE5E0F0E0EE83FF830E94B8380E94E4
:104F580027390E9427390E949B05C69840E050E0F7
:104F6800EECE0E9415442A9608950E944F3F14F4ED
:104F78000E94603F0E94B53C129711F40E94711E76
:104F88000E94643F11F40E946A3F0E946D3F0E9494
:104F9800713FDF010E94E23E0E94753F21F00E94AE
:104FA800A83B0E947A3F0E946D3F0E947D3F21F0FE
:104FB8000E94813F0E94873F0E946D3F0E94713F7F
:104FC8000E948E3FE02111F00E949A3F0E946D3F9F
:104FD8000E949F3F0E948E3FE02121F00E94813F66
:104FE8000E94A33F0E94DD3B0E94AB3FE02121F0DD
:104FF8000E94813F0E94B73F0E946D3F0E94BE3FC2
:10500800E02111F00E94C63F0E946D3F0E94CB3FF5
:10501800E02121F00E94813F0E94D33F0E94DA3FA5
:105028000E94DE3F0E94EF3D0E94E63F0E94EF3D56
:105038000E94EC3F31F00E94C13B0E94F53C0E9467
:105048003F3E0E94DA3F0E94FF3F0E9403400E94B9
:1050580008400E944B3D69F00E940B4011F40E94E9
:1050680011400E94174019F40E941D4002C00E947E
:105078002B400E9439400E943D400E94EF3D0E9413
:10508800454021F00E94EC3B0E94893E0E94394035
:105098000E944B400E944F400E94544051F00E9491
:1050A80057400E945D4019F40E94634002C00E946C
:1050B80071400E9439400E943D400E94E73BE02138
:1050C80021F00E94A33B0E94893E0E94DA3F0E9481
:1050D800DE3F0E94E73B0E94E63F0E944B3D21F0E5
:1050E8000E9477400E943F3E0E9439400E944B40F8
:1050F8000E947C400E94C63C0E94814021F00E9490
:1051080057400E948F400E9496400E2E0E943940C0
:105118000E94AE43E02111F00E949B400E9439405A
:105128000E949E40E02119F00E94A2401B980E9414
:10513800DA3F0E94FF3F0E94A8400E94AD4029F03C
:105148001A980E9411400E94B2400E94B9400E2E47
:105158000E94DA3F0E94AE43E02121F00E94BE4047
:105168000E943F3E0E94DA3F0E94C140E02119F0B0
:105178000E94C5401A980E94C63C0E94CB400E94DB
:105188007C400E9439400E94CD400E94D1400E943C
:10519800E63F0E94EF3D0E94D94041F00E94A240A4
:1051A8000E94C5400E947B3E0E94E44008950E94F0
:1051B8004F3F14F40E94603F0E94B53C129711F4CF
:1051C8000E94711E0E94643F11F40E946A3F0E946F
:1051D8006D3F0E94713FDF010E94E23E0E94753FD1
:1051E80021F00E94A83B0E947A3F0E946D3F0E94D6
:1051F8007D3F21F00E94813F0E94873F0E946D3FC2
:105208000E94713F0E948E3FE02111F00E949A3F58
:105218000E946D3F0E949F3F0E948E3FE02121F037
:105228000E94813F0E94A33F0E94DD3B0E94AB3F4A
:10523800E02121F00E94813F0E94B73F0E946D3F0C
:105248000E94BE3FE02111F00E94C63F0E946D3FC0
:105258000E94CB3FE02121F00E94813F0E94D33F72
:105268000E94DA3F0E94DE3F0E94EF3D0E94E63F27
:105278000E94EF3D0E94EC3F31F00E94C13B0E942A
:10528800F53C0E943F3E0E94DA3F0E94FF3F0E9489
:10529800FD400E944B3DE1F00E940B4011F40E943A
:1052A80011400E94174089F40E94BC3BE230A0E004
:1052B800FA0709F41A980E941D400E94C63C0E94F1
:1052C800FF4011F40E946A3F03C01A9A0E942B40C3
:1052D8000E9439400E943D400E94EF3D0E94454097
:1052E80021F00E94EC3B0E94893E0E9439400E94B6
:1052F8004B400E94034151F00E9457400E945D407C
:1053080019F40E94634002C00E9471400E94394013
:105318000E943D400E94E73BE02121F00E94A33B10
:105328000E94893E0E94DA3F0E94DE3F0E94E73BCE
:105338000E94E63F0E944B3D31F00E94D83B0E94FC
:1053480005410E943F3E0E9439400E944B400E9406
:105358007C400E94C63C0E94814021F00E94574038
:105368000E948F400E9496400E2E0E9439400E9453
:10537800AE43E02111F00E949B400E9439400E94F8
:105388009E40E02119F00E94A2401B980E94DA3F3B
:105398000E94FF3F0E94A8400E94AD4029F01A9841
:1053A8000E9411400E94B2400E94B9400E2E0E94F5
:1053B800DA3F0E94AE43E02121F00E94BE400E94E5
:1053C8003F3E0E94DA3F0E94C140E02119F00E944E
:1053D800C5401A980E94C63C0E94CB400E947C405F
:1053E8000E9439400E94CD400E94D1400E94E63F71
:1053F8000E94EF3D0E94D94041F00E94A2400E94C5
:10540800C5400E947B3E0E94E44008950E944F3FA1
:1054180014F40E94603F0E94B53C129711F40E9458
:10542800711E0E94643F11F40E946A3F0E94DA3F95
:105438000E94DE3F0E94EF3D0E94E63F0E94EF3D42
:105448000E94EC3F31F00E94C13B0E94F53C0E9453
:105458003F3E0E94DA3F0E94FF3F0E94FD400E94AB
:105468004B3D21F10E940B4011F40E9411400E9413
:105478001740D1F40E9408410E94104171F40E9423
:1054880016410E94ED3C0E949B050E941D410E940E
:1054980022410E9452390E949B05E1E0F0E0E0932E
:1054A8005905F0935A0502C00E942B400E943940CA
:1054B8000E943D400E94EF3D0E94454021F00E941D
:1054C800EC3B0E94893E0E9439400E944B400E945A
:1054D8000341C9F00E9457400E945D4091F40E9428
:1054E80025410E94104131F40E942D410E945739F4
:1054F8000E949B05E1E0F0E0E0935705F093580522
:1055080002C00E9471400E9439400E943D400E94A2
:10551800E73BE02121F00E94A33B0E94893E0E94C4
:10552800DA3F0E94DE3F0E94E73B0E94E63F0E946E
:105538004B3D21F00E9477400E943F3E0E94394037
:105548000E944B400E947C400E94C63C0E9432410F
:105558000E22A091AD05B091AE050E944B3D59F0C9
:105568000E9457400E948F400E94104121F40E94DF
:1055780036410E94E23C0E9496400E2E0E9439401D
:105588000E94AE43E02111F00E949B400E943940E6
:105598000E949E40E02191F00E94A240E1E0F0E0EC
:1055A800E093AD05F093AE050E94104131F40E94DE
:1055B8003B410E94ED3C0E949B051B980E94DA3FEC
:1055C8000E94FF3F0E94A8400E9440410E22A091E5
:1055D800AF05B091B0050E944B3D61F01A980E944A
:1055E80011400E94B2400E94104121F40E9444419F
:1055F8000E94DC3C0E94B9400E2E0E94DA3F0E94B5
:10560800AE43E02121F00E94BE400E943F3E0E942E
:10561800DA3F0E94C140E02181F00E94C540E1E0EC
:10562800F0E0E093AF05F093B0050E94104121F43B
:105638000E944C410E949B051A980E94C63C0E94F9
:10564800CB400E947C400E9439400E94CD400E947D
:10565800D1400E94E63F0E944B3DA1F10E94A2402A
:105668000E94C540E0E0E093AD05E093AE05E0930D
:10567800AF05E093B0050E947B3E0E9455410E9411
:105688001041F1F40E9416410E94ED3C0E949B05D6
:105698000E942D410E9457390E949B050E94444157
:1056A8000E94DC3C0E9436410E94E23C0E944C4130
:1056B8000E949B050E943B410E94ED3C0E949B0575
:1056C8000E94644108950E944F3F14F40E94603F75
:1056D8000E94B53C129711F40E94711E0E94643F0B
:1056E80011F40E946A3F0E94DA3F0E94DE3F0E9446
:1056F800EF3D0E94E63F0E94EF3D0E94EC3F31F0F3
:105708000E94C13B0E94F53C0E943F3E0E94DA3F46
:105718000E94FF3F0E94FD400E944B3DE1F00E9425
:105728000B4011F40E9411400E94174089F40E9416
:10573800BC3BE230A0E0FA0709F41A980E941D4029
:105748000E94C63C0E94FF4011F40E946A3F03C0B9
:105758001A9A0E942B400E9439400E943D400E94A4
:10576800EF3D0E94454021F00E94EC3B0E94893E9B
:105778000E9439400E944B400E94034151F00E9410
:1057880057400E945D4019F40E94634002C00E9485
:1057980071400E9439400E943D400E94E73BE02151
:1057A80021F00E94A33B0E94893E0E94DA3F0E949A
:1057B800DE3F0E94E73B0E94E63F0E944B3D31F0EE
:1057C8000E94D83B0E9405410E943F3E0E943940FA
:1057D8000E944B400E947C400E94C63C0E9432417D
:1057E800E02121F00E9457400E948F400E9496407D
:1057F8000E2E0E9439400E94AE43E02111F00E9413
:105808009B400E9439400E949E40E02119F00E946E
:10581800A2401B980E94DA3F0E94FF3F0E94A840C6
:105828000E94AD4029F01A980E9411400E94B2408F
:105838000E94B9400E2E0E94DA3F0E94AE43E0213A
:1058480021F00E94BE400E943F3E0E94DA3F0E9423
:10585800C140E02119F00E94C5401A980E94C63C38
:105868000E94CB400E947C400E9439400E94CD405B
:105878000E94D1400E94E63F0E944B3D51F00E9499
:10588800A2400E94C5400E947B3E0E9455410E9452
:10589800644108950E944F3F14F40E94603F0E94A3
:1058A800B53C129711F40E94711E0E946D3F0E9430
:1058B800713FDF010E94E23E0E94753F21F00E9485
:1058C800A83B0E947A3F0E946D3F0E947D3F21F0D5
:1058D8000E94813F0E94873F0E946D3F0E94713F56
:1058E8000E948E3FE02111F00E949A3F0E946D3F76
:1058F8000E949F3F0E948E3FE02121F00E94813F3D
:105908000E94A33F0E94DD3B0E94AB3FE02121F0B3
:105918000E94813F0E94B73F0E946D3F0E94BE3F98
:10592800E02111F00E94C63F0E946D3F0E94CB3FCC
:10593800E02121F00E94813F0E94D33F0E9439401C
:105948000E946B4121F00E94EC3B0E94893E0E941C
:1059580039400E94784191F00E9485410E94D43CD0
:105968000E944F40EA17FB0719F40E948B4102C0BE
:105978000E9492410E94813F0E9457400E94643FCA
:1059880011F40E946A3F0E94DA3F0E94DE3F0E94A3
:10599800EF3D0E94E63F0E94EF3D0E94984131F0A2
:1059A8000E94C13B0E94F53C0E943F3E0E94DA3FA4
:1059B8000E94FF3F0E94FD400E94EF3D0E94AF41C0
:1059C80069F00E940B4011F40E9411400E94174098
:1059D80019F40E941D4002C00E942B400E94DA3F29
:1059E8000E94DE3F0E94E73B0E94E63F0E94EF3D97
:1059F8000E94AF4121F00E9477400E943F3E0E94E2
:105A080039400E944B400E947C400E94C63C0E9444
:105A18003241E02121F00E9457400E948F400E94AD
:105A280096400E2E0E9439400E94AE43E02111F0AC
:105A38000E949B400E9439400E949E40E02119F03C
:105A48000E94A2401B980E94B5410E2E0E94DA3F88
:105A58000E949C430E220E94C63C0E94BA410E94AA
:105A68004041E029E12129F01A980E9411400E9442
:105A7800B2400E94B5410E2E0E94B9400E220E94EB
:105A8800DA3F0E94AE43E02121F00E94BE400E940E
:105A98003F3E0E94B5410E2E0E94DA3F0E94C94146
:105AA8000E94E73BE02111F00E94C5400E94CC41D2
:105AB8000E9403400E94CD400E94C9410E94EF3DD0
:105AC8000E9445400E94D7410E944540E12951F07B
