:040000000C94DA037F
:100004000C9400000C9400000C9400000C9400006C
:100014000C9400000C9400000C9400000C9400005C
:100024000C9400000C9400000C9400000C9400004C
:100034000C9400000C9400000C9400000C945304E5
:100044000C9400000C9400000C9400000C9400002C
:100054000C9400000C9400000C9400000C9400001C
:100064000C9400000C9400000C9400000C9400000C
:100074000C9400000C9400000C9400000C940000FC
:100084000C9400000C9400001027E80364000A009C
:1000940001000010000110000100000020202020B9
:1000A400202020202020202020202020202020204C
:1000B400202020202020202020202020202020203C
:1000C400202020202020202020202020005A61638E
:1000D40069736B206E6965207A6D6965727A6F6EDB
:1000E4007920752057796B6F6E61776379004F7350
:1000F400207A616369736B7520626C697A656A2022
:10010400737A616679004F73207A616369736B75E2
:100114002064616C656A206F6420737A616679007B
:100124004369736E69656E6965207A61206D616CDF
:1001340065202D206D6E69656A737A65206E697A13
:100144002036206261720038362D30313730003865
:10015400362D313034330038362D313637350038CA
:10016400362D323039380038372D303137300038B9
:10017400372D313034330038372D313637350038A8
:10018400372D323039380038362D30313932003895
:10019400362D313035340038362D31363736003887
:1001A400362D323133320038372D30313932003880
:1001B400372D313035340038372D31363736003865
:1001C400372D323133320038362D3031393300385F
:1001D400362D313231360038362D3138333200384D
:1001E400362D323137340038372D30313933003839
:1001F400372D313231360038372D3138333200382B
:10020400372D323137340038362D30313934003817
:10021400362D313334310038362D3138333300380C
:10022400362D323138300038372D303139340038FA
:10023400372D313334310038372D313833330038EA
:10024400372D323138300038362D303636330038D9
:10025400362D313334390038362D313833340038C3
:10026400362D323230340038372D303636330038BC
:10027400372D313334390038372D313833340038A1
:10028400372D323230340038362D30373638003896
:10029400362D313335370038362D3138343800387F
:1002A400362D323231320038372D30373638003877
:1002B400372D313335370038372D3138343800385D
:1002C400372D323231320038362D30383030003864
:1002D400362D313336330038362D31393034003849
:1002E400362D323234310038372D30383030003842
:1002F400372D313336330038372D31393034003827
:10030400372D323234310038362D3038313100381F
:10031400362D313532330038362D31393239003803
:10032400362D323236310038372D303831310038FD
:10033400372D313532330038372D313932390038E1
:10034400372D323236310038362D303831340038DA
:10035400362D313533300038362D313933360038C7
:10036400362D323238350038372D303831340038B4
:10037400372D313533300038372D313933360038A5
:10038400372D323238350038362D30383135003893
:10039400362D313535310038362D31393431003888
:1003A400362D323238360038372D30383135003872
:1003B400372D313535310038372D31393431003866
:1003C400372D323238360038362D30383136003851
:1003D400362D313535320038362D3230303700384D
:1003E400362D323239320038372D30383136003834
:1003F400372D313535320038372D3230303700382B
:10040400372D323239320038362D30383137003812
:10041400362D313630320038362D3230313700380F
:10042400362D323338340038372D303831370038F0
:10043400372D313630320038372D323031370038ED
:10044400372D323338340038362D303834370038CD
:10045400362D313632300038362D323031390038CD
:10046400362D323338350038372D303834370038AC
:10047400372D313632300038372D323031390038AB
:10048400372D323338350038362D3038353400388E
:10049400362D313632320038362D3230323800388B
:1004A400362D323433370038372D30383534003870
:1004B400372D313632320038372D32303238003869
:1004C400372D323433370038362D30383632003851
:1004D400362D313632350038362D3230353200384B
:1004E400362D323439320038372D30383632003830
:1004F400372D313632350038372D32303532003829
:10050400372D323439320038362D3039333500380E
:10051400362D313634380038362D32303832003802
:10052400362D323530300038372D303933350038F8
:10053400372D313634380038372D323038320038E0
:10054400372D323530300038362D313031390038DE
:10055400362D313634390038362D323038330038C0
:10056400362D323538350038372D313031390038B1
:10057400372D313634390038372D3230383300389E
:10058400372D323632340038362D31303237003898
:10059400362D313636390038362D3230383700387A
:1005A400362D323632340038372D31303237003878
:1005B400372D313636390038372D32303837003858
:1005C400372D32353835004E69652077637A797472
:1005D400616E6F207A616369736B75004E61636944
:1005E400736E696A205354415254206162792077B2
:1005F40079706F7A79636A6F6E6F776163206E6169
:100604007065647900506F7A79636A6F6E756A6594
:1006140020756B6C616479206C696E696F776520F5
:1006240058595A00537465726F776E696B20312084
:100634002D207779706F7A79636A6F6E6F77616C4A
:10064400656D00537465726F776E696B2032202D6F
:10065400207779706F7A79636A6F6E6F77616C65F2
:100664006D00537465726F776E696B2033202D2093
:100674007779706F7A79636A6F6E6F77616C656D85
:1006840000537465726F776E696B2034202D207768
:1006940079706F7A79636A6F6E6F77616C656D00DC
:1006A400416C61726D20537465726F776E696B2053
:1006B4003400416C61726D20537465726F776E699A
:1006C4006B203300416C61726D20537465726F77D7
:1006D4006E696B203100416C61726D2053746572D8
:1006E4006F776E696B2032005779706F7A79636A1D
:1006F4006F6E6F77616E6F20756B6C616479206CBF
:10070400696E696F77652058595A0050727A65632B
:1007140069617A656E6961204C45465333325F31B5
:100724000050727A656369617A656E6961204C452F
:10073400465333325F320050727A656369617A6579
:100744006E6961204C4546535F58595F32005072C0
:100754007A656369617A656E6961204C4546535FC9
:1007640058595F310057796D69656E20737A637AE1
:100774006F746B65207065647A656C6B6F7761006C
:1007840057796D69656E206B72617A656B2073634E
:100794006965726E790001002D4E414E00494E4646
:1007A4000000010002009E0001008F059A0700006E
:1007B400F894EE27ECBBF1E0F5BFE5BFE0936C00E5
:1007C400F8E1F1BDE1BD8DE0A2E0BB27ED938A9590
:1007D400E9F780E090E1A0E0B1E0ED930197E9F75B
:1007E400E6EAF7E085919591009761F0A591B591BE
:1007F40005901590BF01F00105900D920197E1F766
:10080400FB01F0CF8BBFEFEFEDBFE0E1EEBFC0E047
:10081400D5E00C94DD220E94092D23C00E94092DED
:10082400E6951FC00E94092DE695E6951AC00E9420
:10083400092DE695E695E69514C00E94092DE295EA
:1008440010C00E94092DE295EF70E6950AC00E943F
:10085400092D0E94182D05C00E94092DEE1FE0E00D
:10086400EE1FE170239608951A930A9300E010E0B6
:100874000E941D2DE4E0EA930E94A22BE3E80E946B
:10088400252DE1E0EA930E94A22B0E94302D0E94C4
:10089400302D0E94302D0E2F1127F8011981088167
:1008A40088C06A937A938A939A93AA93BA93EA93A1
:1008B400FA93EFB7EA93A1E1B5E00E94362DA5E1E2
:1008C400B5E00E94362DA9E1B5E00E94362DADE1D8
:1008D400B5E00E94362DA1E2B5E00E94362DA5E2D6
:1008E400B5E00E94362D1B9B26C0ABE8B5E00E9404
:1008F4003F2DA9E8B5E00E943F2DA0918B05B09152
:100904008C050E94462D41F40E94502D0E94562DC4
:1009140031960E9472353197A0918905B0918A056C
:100924000E94462D41F40E945B2D0E94612D319658
:100934000E9472353197E991EFBFF991E991B9912C
:10094400A991999189917991699118951A930A932A
:1009540000E010E00E94662D0E94932B8F010D5F32
:100964001F4F0E941D2D0A930E94A22BE2E80E94B1
:10097400252D0E94662D80E00E94E42C2296198188
:100984000881289608950E941D2DE5E0EA930E94AF
:100994006B2DEA81EA930E94A22BE881EA930E94DC
:1009A400A22BE0E0EA930E94A22BEC81EA930E943E
:1009B400A22B269608950E94562D0E94712D0E9406
:1009C400782DE1DF0E94612D0E947D2D0E94842DEF
:1009D400DADF089524970E94943500E010E0EE8554
:1009E400FF85FA93EA930E94932B8F010D5F1F4FAB
:1009F400AC85BD85119759F420E030E040E550E026
:100A0400E0E5F0E0E887F987E0E0EE83EF83AC858A
:100A1400BD85129759F420E030E040E250E0E0E474
:100A2400F0E0E887F987E0E0EE83EF830E941D2D74
:100A34000A930E946B2D2A930E94A22B4A930E9430
:100A4400A22BEE85FF85FA93EA9380E00E94E42CC2
:100A540022960E94892DEC85FD850E94912D0E948D
:100A64004835A0E0B0E00E942A35E02151F00E9410
:100A7400982DE1EDF0E00E94A62D0E94A62D0E9483
:100A8400AB2D0E94892D0E94AF2D51F00E94982D0C
:100A9400E2EFF0E00E94A62D0E94A62D0E94AB2D4D
:100AA4000E94892D0E94B72D51F00E94982DEAE0F2
:100AB400F1E00E94A62D0E94A62D0E94AB2D0E945B
:100AC400BF2D0E94AF2D51F00E94982DEAE0F1E075
:100AD4000E94A62D0E94A62D0E94AB2D0E94BF2D20
:100AE4000E94B72D51F00E94982DE2EFF0E00E9491
:100AF400A62D0E94A62D0E94AB2D0E949B356096C8
:100B040008950E94562D0E94C72D0E2E0E94612D1D
:100B14000E94C72D0E2A0E94CD2D0E94C72D0E2A99
:100B24000E94D22D0E94C72D0E2A0E94D72D0E940A
:100B3400C72D0E2A0E94DC2D0E94C72D0E2A0E946A
:100B4400E12D0E94C72DE029F1F00E94E62D0E94BC
:100B5400502D0E94ED2D0E945B2DAAE0B0E0E5E04F
:100B6400F0E00E947235ACE0B0E00E947235A0E083
:100B7400B0E00E94F42DA2E0B0E00E94F42DA4E0C5
:100B8400B0E00E94F42D08950E94F92D44DEA0E007
:100B94000E942535EF930E94F92D40DEA0E00E94CB
:100BA4002535AF91EA2329F00E94032E0E94082ED6
:100BB4006F010E94032E0E940E2E0E94142E0E948A
:100BC400842D0E94192E0E94082E0E94202E0E941D
:100BD400292E0E94322E0E94392E0E943E2E44DE7F
:100BE400ACE0B0E00E947235E0E2F0E00E947D2DBE
:100BF4003BDEAAE0B0E00E9472350E94032E0E9400
:100C0400782D32DEA8E0B0E00E9472350E94392EC1
:100C14000E94842D29DEA6E0B0E00E9472350E9475
:100C2400842D0E94432E20DEE0938505F0938605F3
:100C34000E94842D0E94482E17DEE0938705F093CE
:100C440088055FDF08951A930A9301E010E0002EEF
:100C5400012AA9F40E944D2EFADDE03029F401E0C6
:100C640010E0E0EAF0E006C000E010E00E94572E39
:100C7400E4E2F1E0FA93EA930E94662EE8CF099148
:100C8400199108951A930A930E94712EC4DDE1709C
:100C94000E2EE0910205EE7F0E947B2EBFDDE170F7
:100CA400EE0F0E2EE0910205ED7F0E947B2EBADD41
:100CB400E170EE0FEE0F0E2EE0910205EB7F0E9425
:100CC4007B2EB5DDE170EE0FEE0FEE0F0E2EE091F0
:100CD4000205E77F0E947B2EB0DDE170E295E07FA4
:100CE4000E2EE0910205EF7E0E947B2EAADDE170BC
:100CF400E295E07FEE0F0E2EE0910205EF7D0E945B
:100D04007B2EA5DDE170E295E07FEE0FEE0F0E2E57
:100D1400E0910205EF7B0E947B2E9EDDE170E7955A
:100D2400E0E0E7950E2EE0910205EF77E029E093ED
:100D340002050E947F2E0E940E2E8F01A0910205B3
:100D4400A13059F4F8010E94912D0E94842EEBE405
:100D5400F1E00E94892E0E948E2EA0910205A230FD
:100D640071F4F8010E94912DE2E0F0E0ED93FC9320
:100D7400E3E5F1E00E94892E0E94032E2BDEA09170
:100D84000205A33071F4F8010E94912DE3E0F0E034
:100D9400ED93FC93EBE5F1E00E94892E0E94032E73
:100DA40019DEA0910205A43071F4F8010E94912D7E
:100DB400E4E0F0E0ED93FC93E3E6F1E00E94892E99
:100DC4000E94032E07DEA0910205A53071F4F801FC
:100DD4000E94912DE5E0F0E0ED93FC93EBE6F1E069
:100DE4000E94892E0E94032EF5DDA0910205A630F3
:100DF40069F4F8010E94912DE6E0F0E0ED93FC9394
:100E0400E3E7F1E00E94892E0E948E2EA091020554
:100E1400A73069F4F8010E94912DE7E0F0E0ED932A
:100E2400FC93EBE7F1E00E94892E0E948E2EA091A4
:100E34000205A83069F4F8010E94912DE8E0F0E081
:100E4400ED93FC93E3E8F1E00E94892E0E948E2E3C
:100E5400A0910205A93071F4F8010E94912DE9E0F6
:100E6400F0E0ED93FC93EBE8F1E00E94892E0E9400
:100E7400032EB0DDA0910205AA3071F4F8010E949E
:100E8400912DEAE0F0E0ED93FC93E3E9F1E00E94B8
:100E9400892E0E94032E9EDDA0910205AB3071F4D1
:100EA400F8010E94912DEBE0F0E0ED93FC93EBE967
:100EB400F1E00E94892E0E94032E8CDDA091020590
:100EC400AC3069F4F8010E94912DECE0F0E0ED9370
:100ED400FC93E3EAF1E00E94892E0E948E2EA091F9
:100EE4000205AD3069F4F8010E94912DEDE0F0E0C7
:100EF400ED93FC93EBEAF1E00E94892E0E948E2E82
:100F0400A0910205AE3069F4F8010E94912DEEE043
:100F1400F0E0ED93FC93E3EBF1E00E94892E0E9454
:100F24008E2EA0910205AF3069F4F8010E94912D34
:100F3400EFE0F0E0ED93FC93EBEBF1E00E94892EFF
:100F44000E948E2EA0910205A03171F4F8010E9436
:100F5400912DE0E1F0E0ED93FC93E3ECF1E00E94ED
:100F6400892E0E94032E36DDA0910205A13171F471
:100F7400F8010E94912DE1E1F0E0ED93FC93EBEC9C
:100F8400F1E00E94892E0E94032E24DDA091020527
:100F9400A23171F4F8010E94912DE2E1F0E0ED93A9
:100FA400FC93E3EDF1E00E94892E0E94032E12DDF2
:100FB400A0910205A33171F4F8010E94912DE3E19F
:100FC400F0E0ED93FC93EBEDF1E00E94892E0E949A
:100FD400032E00DDA0910205A43171F4F8010E94F2
:100FE400912DE4E1F0E0ED93FC93E3EEF1E00E9457
:100FF400892E0E94032EEEDCA0910205A53169F42E
:10100400F8010E94912DE5E1F0E0ED93FC93EBEE05
:10101400F1E00E94892E0E948E2EA0910205A63135
:1010240069F4F8010E94912DE6E1F0E0ED93FC9360
:10103400E3EFF1E00E94892E0E948E2EA09102051A
:10104400A73169F4F8010E94912DE7E1F0E0ED93F6
:10105400FC93EBEFF1E00E94892E0E948E2EA0916A
:101064000205A83169F4F8010E94912DE8E1F0E04D
:10107400ED93FC93E3E0F2E00E94892E0E948E2E11
:10108400A0910205A93171F4F8010E94912DE9E1C2
:10109400F0E0ED93FC93EBE0F2E00E94892E0E94D5
:1010A400032E98DCA0910205AA3171F4F8010E9484
:1010B400912DEAE1F0E0ED93FC93E3E1F2E00E948C
:1010C400892E0E94032E86DCA0910205AB3171F4B7
:1010D400F8010E94912DEBE1F0E0ED93FC93EBE13C
:1010E400F2E00E94892E0E94032E74DCA091020576
:1010F400AC3169F4F8010E94912DECE1F0E0ED933C
:10110400FC93E3E2F2E00E94892E0E948E2EA091CD
:101114000205AD3169F4F8010E94912DEDE1F0E092
:10112400ED93FC93EBE2F2E00E94892E0E948E2E56
:10113400A0910205AE3169F4F8010E94912DEEE10F
:10114400F0E0ED93FC93E3E3F2E00E94892E0E9429
:101154008E2EA0910205AF3169F4F8010E94912D01
:10116400EFE1F0E0ED93FC93EBE3F2E00E94892ED3
:101174000E948E2EA0910205A03271F4F8010E9403
:10118400912DE0E2F0E0ED93FC93E3E4F2E00E94C1
:10119400892E0E94032E1EDCA0910205A13269F45F
:1011A400F8010E94912DE1E2F0E0ED93FC93EBE471
:1011B400F2E00E94892E0E948E2EA0910205A23296
:1011C40071F4F8010E94912DE2E2F0E0ED93FC93BA
:1011D400E3E5F2E00E94892E0E94032EFBDBA0913E
:1011E4000205A33271F4F8010E94912DE3E2F0E0CC
:1011F400ED93FC93EBE5F2E00E94892E0E94032E0E
:10120400E9DBA0910205A43271F4F8010E94912D4A
:10121400E4E2F0E0ED93FC93E3E6F2E00E94892E31
:101224000E94032ED7DBA0910205A53271F4F801C8
:101234000E94912DE5E2F0E0ED93FC93EBE6F2E001
:101244000E94892E0E94032EC5DBA0910205A632BE
:1012540069F4F8010E94912DE6E2F0E0ED93FC932D
:10126400E3E7F2E00E94892E0E948E2EA0910205EF
:10127400A73269F4F8010E94912DE7E2F0E0ED93C2
:10128400FC93EBE7F2E00E94892E0E948E2EA0913F
:101294000205A83269F4F8010E94912DE8E2F0E019
:1012A400ED93FC93E3E8F2E00E94892E0E948E2ED7
:1012B400A0910205A93269F4F8010E94912DE9E296
:1012C400F0E0ED93FC93EBE8F2E00E94892E0E949B
:1012D4008E2EA0910205AA3271F4F8010E94912D7C
:1012E400EAE2F0E0ED93FC93E3E9F2E00E94892E58
:1012F4000E94032E6FDBA0910205AB3271F4F8015A
:101304000E94912DEBE2F0E0ED93FC93EBE9F2E027
:101314000E94892E0E94032E5DDBA0910205AC324F
:1013240081F4F8010E94912DECE2F0E00E94942EE9
:101334000E94982EE3EAF2E00E94892E0E94032E76
:1013440049DBA0910205AD3271F4F8010E94912DA0
:10135400EDE2F0E0ED93FC93EBEAF2E00E94892EDB
:101364000E94032E37DBA0910205AE3269F4F80126
:101374000E94912DEEE2F0E0ED93FC93E3EBF2E0BA
:101384000E94892E0E948E2EA0910205AF3269F42C
:10139400F8010E94912DEFE2F0E0ED93FC93EBEB6A
:1013A400F2E00E94892E0E948E2EA0910205A033A5
:1013B40079F4F8010E94912DE0E3F0E00E94942E6C
:1013C4000E94982EE3ECF2E00E94892E0E948E2E59
:1013D400A0910205A13371F4F8010E94912DE1E37B
:1013E400F0E0ED93FC93EBECF2E00E94892E0E9476
:1013F400032EF0DAA0910205A23371F4F8010E94E1
:10140400912DE2E3F0E0ED93FC93E3EDF2E00E9432
:10141400892E0E94032EDEDAA0910205A33371F413
:10142400F8010E94912DE3E3F0E0ED93FC93EBEDE2
:10143400F2E00E94892E0E94032ECCDAA0910205CC
:10144400A43369F4F8010E94912DE4E3F0E0ED93F4
:10145400FC93E3EEF2E00E94892E0E948E2EA0916E
:101464000205A53369F4F8010E94912DE5E3F0E04B
:10147400ED93FC93EBEEF2E00E94892E0E948E2EF7
:10148400A0910205A63369F4F8010E94912DE6E3C8
:10149400F0E0ED93FC93E3EFF2E00E94892E0E94CA
:1014A4008E2EA0910205A73369F4F8010E94912DB4
:1014B400E7E3F0E0ED93FC93EBEFF2E00E94892E7A
:1014C4000E948E2EA0910205A83371F4F8010E94A7
:1014D400912DE8E3F0E0ED93FC93E3E0F3E00E9468
:1014E400892E0E94032E76DAA0910205A93371F4A5
:1014F400F8010E94912DE9E3F0E0ED93FC93EBE019
:10150400F3E00E94892E0E94032E64DAA091020562
:10151400AA3371F4F8010E94912DEAE3F0E0ED930F
:10152400FC93E3E1F3E00E94892E0E94032E52DA39
:10153400A0910205AB3371F4F8010E94912DEBE305
:10154400F0E0ED93FC93EBE1F3E00E94892E0E941E
:10155400032E40DAA0910205AC3371F4F8010E9425
:10156400912DECE3F0E0ED93FC93E3E2F3E00E94D1
:10157400892E0E94032E2EDAA0910205AD3369F460
:10158400F8010E94912DEDE3F0E0ED93FC93EBE282
:10159400F3E00E94892E0E948E2EA0910205AE33A4
:1015A40069F4F8010E94912DEEE3F0E0ED93FC93D1
:1015B400E3E3F3E00E94892E0E948E2EA09102059F
:1015C400AF3369F4F8010E94912DEFE3F0E0ED935D
:1015D400FC93EBE3F3E00E94892E0E948E2EA091EF
:1015E4000205A03469F4F8010E94912DE0E4F0E0D2
:1015F400ED93FC93E3E4F3E00E94892E0E948E2E87
:10160400A0910205A13471F4F8010E94912DE1E446
:10161400F0E0ED93FC93EBE4F3E00E94892E0E944A
:10162400032ED8D9A0910205A23469F4F8010E94CE
:10163400912DE2E4F0E0ED93FC93E3E5F3E00E9406
:10164400892E0E948E2EA0910205A33469F4F8011C
:101654000E94912DE3E4F0E0ED93FC93EBE5F3E0DD
:101664000E94892E0E948E2EA0910205A43469F452
:10167400F8010E94912DE4E4F0E0ED93FC93E3E69D
:10168400F3E00E94892E0E948E2EA0910205A534BB
:1016940069F4F8010E94912DE5E4F0E0ED93FC93E8
:1016A400EBE6F3E00E94892E0E948E2EA0910205A3
:1016B400A63471F4F8010E94912DE6E4F0E0ED9374
:1016C400FC93E3E7F3E00E94892E0E94032E82D963
:1016D400A0910205A73471F4F8010E94912DE7E46A
:1016E400F0E0ED93FC93EBE7F3E00E94892E0E9477
:1016F400032E70D9A0910205A83471F4F8010E9458
:10170400912DE8E4F0E0ED93FC93E3E8F3E00E942C
:10171400892E0E94032E5ED9A0910205A93471F48A
:10172400F8010E94912DE9E4F0E0ED93FC93EBE8DD
:10173400F3E00E94892E0E94032E4CD9A091020549
:10174400AA3471F4F8010E94912DEAE4F0E0ED93DB
:10175400FC93E3E9F3E00E94892E0E94032E3AD918
:10176400A0910205AB3471F4F8010E94912DEBE4D1
:10177400F0E0ED93FC93EBE9F3E00E94892E0E94E4
:10178400032E28D9A0910205AC3481F4F8010E94FB
:10179400912DECE4F0E00E94942E0E94982EE3EA4E
:1017A400F3E00E94892E0E94032E14D9A091020511
:1017B400AD3469F4F8010E94912DEDE4F0E0ED936D
:1017C400FC93EBEAF3E00E94892E0E948E2EA091F6
:1017D4000205AE3469F4F8010E94912DEEE4F0E0C4
:1017E400ED93FC93E3EBF3E00E94892E0E948E2E8E
:1017F400A0910205AF3469F4F8010E94912DEFE441
:10180400F0E0ED93FC93EBEBF3E00E94892E0E9451
:101814008E2EA0910205A03581F4F8010E94912D2D
:10182400E0E5F0E00E94942E0E94982EE3ECF3E0B1
:101834000E94892E0E94032ECDD8A0910205A135C5
:1018440071F4F8010E94912DE1E5F0E0ED93FC9331
:10185400EBECF3E00E94892E0E94032EBBD8A091EA
:101864000205A23571F4F8010E94912DE2E5F0E041
:10187400ED93FC93E3EDF3E00E94892E0E94032E86
:10188400A9D8A0910205A33569F4F8010E94912D0D
:10189400E3E5F0E0ED93FC93EBEDF3E00E94892E99
:1018A4000E948E2EA0910205A43569F4F8010E94CD
:1018B400912DE4E5F0E0ED93FC93E3EEF3E00E9478
:1018C400892E0E948E2EA0910205A53569F4F80197
:1018D4000E94912DE5E5F0E0ED93FC93EBEEF3E04F
:1018E4000E94892E0E948E2EA0910205A63569F4CD
:1018F400F8010E94912DE6E5F0E0ED93FC93E3EF0F
:10190400F3E00E94892E0E948E2EA0910205A73535
:1019140071F4F8010E94912DE7E5F0E0ED93FC935A
:10192400EBEFF3E00E94892E0E94032E53D8A0917E
:101934000205A83571F4F8010E94912DE8E5F0E064
:10194400ED93FC93E3E0F4E00E94892E0E94032EC1
:1019540041D8A0910205A93571F4F8010E94912D96
:10196400E9E5F0E0ED93FC93EBE0F4E00E94892ECE
:101974000E94032E2FD8A0910205AA3569F4F8011C
:101984000E94912DEAE5F0E0ED93FC93E3E1F4E0AD
:101994000E94892E0E948E2EA0910205AB3569F417
:1019A400F8010E94912DEBE5F0E0ED93FC93EBE15F
:1019B400F4E00E94892E0E948E2EA0910205AC357F
:1019C40089F4F8010E94912DECE5F0E00E94942E38
:1019D4000E94982EE3E2F4E00E94892E0E94032ED6
:1019E4000E94EC04A0910205AD3569F4F8010E944F
:1019F400912DEDE5F0E0ED93FC93EBE2F4E00E9431
:101A0400892E0E948E2EA0910205AE3579F4F8013C
:101A14000E94912DEEE5F0E0ED93FC93E3E3F4E016
:101A24000E94892E0E94032E0E94EC04A0910205BC
:101A3400AF3579F4F8010E94912DEFE5F0E0ED93D4
:101A4400FC93EBE3F4E00E94892E0E94032E0E9493
:101A5400EC04A0910205A03689F4F8010E94912DAE
:101A6400E0E6F0E00E94942E0E94982EE3E4F4E075
:101A74000E94892E0E94032E0E94EC04A09102056C
:101A8400A13679F4F8010E94912DE1E6F0E0ED939E
:101A9400FC93EBE4F4E00E94892E0E94032E0E9442
:101AA400EC04A0910205A23679F4F8010E94912D6C
:101AB400E2E6F0E0ED93FC93E3E5F4E00E94892E86
:101AC4000E94032E0E94EC04A0910205A33669F43F
:101AD400F8010E94912DE3E6F0E0ED93FC93EBE531
:101AE400F4E00E94892E0E948E2EA0910205A43655
:101AF40079F4F8010E94912DE4E6F0E0ED93FC9373
:101B0400E3E6F4E00E94892E0E94032E0E94EC0476
:101B1400A0910205A53669F4F8010E94912DE5E62D
:101B2400F0E0ED93FC93EBE6F4E00E94892E0E9432
:101B34008E2EA0910205A63669F4F8010E94912D1B
:101B4400E6E6F0E0ED93FC93E3E7F4E00E94892EEF
:101B54000E948E2EA0910205A73679F4F8010E9406
:101B6400912DE7E6F0E0ED93FC93EBE7F4E00E94BF
:101B7400892E0E94032E0E94EC04A0910205A8362F
:101B840069F4F8010E94912DE8E6F0E0ED93FC93EE
:101B9400E3E8F4E00E94892E0E948E2EA0910205B3
:101BA400A93679F4F8010E94912DE9E6F0E0ED936D
:101BB400FC93EBE8F4E00E94892E0E94032E0E941D
:101BC400EC04A0910205AA3669F4F8010E94912D53
:101BD400EAE6F0E0ED93FC93E3E9F4E00E94892E59
:101BE4000E948E2EA0910205AB3689F4F8010E9462
:101BF400912DEBE6F0E00E94942E0E94982EEBE9E2
:101C0400F4E00E94892E0E94032E0E94EC04A0910D
:101C14000205AC3679F4F8010E94912DECE6F0E06F
:101C2400ED93FC93E3EAF4E00E94892E0E94032ED4
:101C34000E94EC04A0910205AD3669F4F8010E94FB
:101C4400912DEDE6F0E0ED93FC93EBEAF4E00E94D5
:101C5400892E0E948E2EA0910205AE3679F4F801E9
:101C64000E94912DEEE6F0E0ED93FC93E3EBF4E0BB
:101C74000E94892E0E94032E0E94EC04A09102056A
:101C8400AF3689F4F8010E94912DEFE6F0E00E944E
:101C9400942E0E94982EEBEBF4E00E94892E0E9471
:101CA400032E0E94EC04A0910205A03769F4F80108
:101CB4000E94912DE0E7F0E0ED93FC93E3ECF4E077
:101CC4000E94892E0E948E2EA0910205A13779F4DC
:101CD400F8010E94912DE1E7F0E0ED93FC93EBEC29
:101CE400F4E00E94892E0E94032E0E94EC04A0912D
:101CF4000205A23779F4F8010E94912DE2E7F0E0A1
:101D0400ED93FC93E3EDF4E00E94892E0E94032EF0
:101D14000E94EC04A0910205A33779F4F8010E9413
:101D2400912DE3E7F0E0ED93FC93EBEDF4E00E94FA
:101D3400892E0E94032E0E94EC04A0910205A43770
:101D440069F4F8010E94912DE4E7F0E0ED93FC932F
:101D5400E3EEF4E00E94892E0E948E2EA0910205EB
:101D6400A53769F4F8010E94912DE5E7F0E0ED93C1
:101D7400FC93EBEEF4E00E94892E0E948E2EA0913B
:101D84000205A63769F4F8010E94912DE6E7F0E018
:101D9400ED93FC93E3EFF4E00E94892E0E948E2ED3
:101DA400A0910205A73769F4F8010E94912DE7E795
:101DB400F0E0ED93FC93EBEFF4E00E94892E0E9497
:101DC4008E2EA0910205A83779F4F8010E94912D76
:101DD400E8E7F0E0ED93FC93E3E0F5E00E94892E60
:101DE4000E94032E0E94EC04A0910205A93779F405
:101DF400F8010E94912DE9E7F0E0ED93FC93EBE00C
:101E0400F5E00E94892E0E94032E0E94EC04A0910A
:101E14000205AA3779F4F8010E94912DEAE7F0E06F
:101E2400ED93FC93E3E1F5E00E94892E0E94032EDA
:101E34000E94EC04A0910205AB3779F4F8010E94EA
:101E4400912DEBE7F0E0ED93FC93EBE1F5E00E94DC
:101E5400892E0E94032E0E94EC04A0910205AC3747
:101E640079F4F8010E94912DECE7F0E0ED93FC93F6
:101E7400E3E2F5E00E94892E0E94032E0E94EC0406
:101E8400A0910205AD3769F4F8010E94912DEDE7A8
:101E9400F0E0ED93FC93EBE2F5E00E94892E0E94C2
:101EA4008E2EA0910205AE3769F4F8010E94912D9F
:101EB400EEE7F0E0ED93FC93E3E3F5E00E94892E76
:101EC4000E948E2EA0910205AF3769F4F8010E949A
:101ED400912DEFE7F0E0ED93FC93EBE3F5E00E9446
:101EE400892E0E948E2EA0910205A03869F4F80173
:101EF4000E94912DE0E8F0E0ED93FC93E3E4F5E03B
:101F04000E94892E0E948E2EA0910205A13879F498
:101F1400F8010E94912DE1E8F0E0ED93FC93EBE4ED
:101F2400F5E00E94892E0E94032E0E94EC04A091E9
:101F34000205A23879F4F8010E94912DE2E8F0E05C
:101F4400ED93FC93E3E5F5E00E94892E0E94032EB5
:101F54000E94EC04A0910205A33869F4F8010E94E0
:101F6400912DE3E8F0E0ED93FC93EBE5F5E00E94BE
:101F7400892E0E948E2EA0910205A43879F4F801CE
:101F84000E94912DE4E8F0E0ED93FC93E3E6F5E0A4
:101F94000E94892E0E94032E0E94EC04A091020547
:101FA400A53869F4F8010E94912DE5E8F0E0ED937D
:101FB400FC93EBE6F5E00E94892E0E948E2EA09100
:101FC4000205A63869F4F8010E94912DE6E8F0E0D4
:101FD400ED93FC93E3E7F5E00E94892E0E948E2E98
:101FE400A0910205A73879F4F8010E94912DE7E841
:101FF400F0E0ED93FC93EBE7F5E00E94892E0E945C
:10200400032E0E94EC04A0910205A83869F4F8019B
:102014000E94912DE8E8F0E0ED93FC93E3E8F5E00D
:102024000E94892E0E948E2EA0910205A93879F46F
:10203400F8010E94912DE9E8F0E0ED93FC93EBE8C0
:10204400F5E00E94892E0E94032E0E94EC04A091C8
:102054000205AA3869F4F8010E94912DEAE8F0E03B
:10206400ED93FC93E3E9F5E00E94892E0E948E2E05
:10207400A0910205AB3869F4F8010E94912DEBE8B8
:10208400F0E0ED93FC93EBE9F5E00E94892E0E94C9
:102094008E2EA0910205AC3879F4F8010E94912D9E
:1020A400ECE8F0E0ED93FC93E3EAF5E00E94892E7E
:1020B4000E94032E0E94EC04A0910205AD3869F43D
:1020C400F8010E94912DEDE8F0E0ED93FC93EBEA2A
:1020D400F5E00E94892E0E948E2EA0910205AE3852
:1020E40079F4F8010E94912DEEE8F0E0ED93FC9371
:1020F400E3EBF5E00E94892E0E94032E0E94EC047B
:10210400A0910205AF3879F4F8010E94912DEFE80F
:10211400F0E0ED93FC93EBEBF5E00E94892E0E9436
:10212400032E0E94EC04A0910205A03969F4F80181
:102134000E94912DE0E9F0E0ED93FC93E3ECF5E0EF
:102144000E94892E0E948E2EF801099119910895FA
:10215400E881F9810E94912D0E944835309741F41D
:102164000E94572EEBECF5E00E949D2E0C94121960
:10217400E130A0E0FA0751F4E8ECF0E00E94A02E70
:102184000E94A72E0E94AE2E0C94F918E230A0E013
:10219400FA0771F4E0E1F1E00E94A02E0E94BD2E46
:1021A4000E94C22E0E94BD2E0E94D12E0C94FF18B4
:1021B400E330A0E0FA0761F4EAE7F0E00E94A02E21
:1021C4000E94A72E0E94D62E0E94DF2E0C94FF1888
:1021D400E430A0E0FA0761F4E2E0F1E00E94A02E0E
:1021E4000E94A72E0E94E82E0E94DF2E0C94FF1856
:1021F400E530A0E0FA0759F4E0EBF0E00E94A02EED
:102204000E94A72E0E94AE2E0E94F12EF6C7E63041
:10221400A0E0FA0759F4EEEFF0E00E94A02E0E942D
:10222400BD2E0E94C22EA0E1B0E0E1C7E730A0E0DD
:10223400FA0749F4E8E7F0E00E94A02E0E94A72ED6
:102244000E94D62ECEC7E830A0E0FA0749F4E0ECAD
:10225400F0E00E94A02E0E94A72E0E94E82EC1C783
:10226400E930A0E0FA0769F4E8E1F0E00E94A02E6A
:102274000E94A72E0E94E82E0E94F42E0E94F12EA6
:10228400BCC7EA30A0E0FA0759F4E6E1F0E00E94A6
:10229400A02E0E94A72E0E94FB2E0E94DF2EADC707
:1022A400EB30A0E0FA0759F4E4E7F0E00E94A02E36
:1022B4000E94A72E0E94042F0E94DF2E9EC7EC309E
:1022C400A0E0FA0749F4E6E9F0E00E94A02E0E949B
:1022D400A72E0E940D2F85C7ED30A0E0FA0759F410
:1022E400EAE1F0E00E94A02E0E94A72E0E94E82EB0
:1022F4000E94F42E7CC7EE30A0E0FA0749F4EEE524
:10230400F0E00E94A02E0E94A72E0E94FB2E69C717
:10231400EF30A0E0FA0749F4E4E8F0E00E94A02ED0
:102324000E94A72E0E94042F5CC7E031A0E0FA07A8
:1023340049F4E8EBF0E00E94A02E0E94A72E0E9430
:10234400162F5BC7E131A0E0FA0759F4E0E2F0E0B0
:102354000E94A02E0E94A72E0E94AE2E0E94F12E53
:102364004CC7E231A0E0FA0769F4E8E9F0E00E9422
:10237400A02E0E94BD2E0E941F2F0E94BD2E0E94DF
:10238400D12E3BC7E331A0E0FA0759F4EAEAF0E0C2
:102394000E94A02E0E94A72E0E942E2F0E94352F4D
:1023A4002CC7E431A0E0FA0769F4E2E4F0E00E940B
:1023B400A02E0E94A72E0E942E2F0E94382F0E942A
:1023C400F12E1BC7E531A0E0FA0749F4EEE4F0E092
:1023D4000E94A02E0E94A72E0E94AE2E08C7E631AE
:1023E400A0E0FA0759F4E2ECF0E00E94A02E0E946B
:1023F400BD2E0E941F2FA0E1B0E0F9C6E731A0E096
:10240400FA0759F4EEECF0E00E94A02E0E94A72EE9
:102414000E942E2FA9E9B1E0E4C6E831A0E0FA0752
:1024240059F4E0E4F0E00E94A02E0E94A72E0E943E
:102434002E2F0E94382FDBC6E931A0E0FA0759F4A9
:10244400EEE2F0E00E94A02E0E94A72E0E94FB2E36
:102454000E94DF2ED2C6EA31A0E0FA0759F4EAEF6F
:10246400F0E00E94A02E0E94A72E0E94412F0E94FD
:10247400F12EC3C6EB31A0E0FA0749F4ECE6F0E034
:102484000E94A02E0E94A72E0E94162FB6C6EC31E1
:10249400A0E0FA0749F4E4EAF0E00E94A02E0E94CA
:1024A400A72E0E940D2F9DC6ED31A0E0FA0749F436
:1024B400EAE2F0E00E94A02E0E94A72E0E94FB2ECA
:1024C40090C6EE31A0E0FA0749F4E4E9F0E00E9496
:1024D400A02E0E94A72E0E94412F89C6EF31A0E0B2
:1024E400FA0759F4EEE6F0E00E94A02E0E94A72E0F
:1024F4000E944A2FA9E9B1E074C6E032A0E0FA07CD
:1025040059F4E6E8F0E00E94A02E0E94A72E0E9453
:102514000D2F0E94DF2E71C6E132A0E0FA0749F4C4
:10252400EEE8F0E00E94A02E0E94A72EA0E2B0E008
:1025340052C6E232A0E0FA0759F4EAE5F0E00E945C
:10254400A02E0E94A72E0E94512F0E94582F55C6DC
:10255400E332A0E0FA0759F4EAEDF0E00E94A02E7D
:102564000E94A72E0E945B2F0E94F12E46C6E432E1
:10257400A0E0FA0759F4E2EAF0E00E94A02E0E94DB
:10258400622F0E94BD2E0E94D12E37C6E532A0E0F4
:10259400FA0759F4E4E0F1E00E94A02E0E94A72E6D
:1025A4000E94512F0E94752F28C6E632A0E0FA0738
:1025B40059F4E6E3F0E00E94A02E0E94A72E0E94A8
:1025C400512FA6E9B1E00DC6E732A0E0FA0749F4BD
:1025D400E8E1F1E00E94A02E0E94A72E0E945B2F4A
:1025E40006C6E832A0E0FA0749F4E6EAF0E00E9401
:1025F400A02E0E94622FA0E1B0E0F9C5E932A0E06C
:10260400FA0759F4EEE1F0E00E94A02E0E94A72EF2
:102614000E94E82E0E94F42EEAC5EA32A0E0FA07EE
:1026240059F4ECE5F0E00E94A02E0E94BD2E0E9419
:10263400782F0E94F12EE1C5EB32A0E0FA0759F49D
:10264400E2E6F0E00E94A02E0E94A72E0E944A2FEC
:102654000E94582FD2C5EC32A0E0FA0719F40E9468
:10266400832FCBC5ED32A0E0FA0769F4E0E1F0E096
:102674000E94A02E0E94A72E0E94E82E0E94F42EF3
:102684000E94F12EBAC5EE32A0E0FA0749F4E0E563
:10269400F0E00E94A02E0E94BD2E0E94782FA7C5B4
:1026A400EF32A0E0FA0759F4E8E6F0E00E94A02E29
:1026B4000E94A72E0E944A2FA6E9B1E092C5E033FA
:1026C400A0E0FA0719F40E94832F97C5E133A0E034
:1026D400FA0759F4E4E2F0E00E94A02E0E94A72E2B
:1026E4000E94E82E0E94DF2E88C5E233A0E0FA079C
:1026F40059F4E4E1F0E00E94A02E0E94A72E0E946B
:102704005B2F0E94F12E79C5E333A0E0FA0759F458
:10271400E2E8F0E00E94A02E0E94A72E0E94992FCA
:102724000E94752F6AC5E433A0E0FA0749F4E6E095
:10273400F1E00E94A02E0E94A72E0E94A02F57C550
:10274400E533A0E0FA0749F4ECE4F0E00E94A02E9F
:102754000E94A72E0E94E82E44C5E633A0E0FA07A3
:1027640049F4ECE1F0E00E94A02E0E94A72E0E9402
:102774005B2F3DC5E733A0E0FA0749F4E4E1F1E05B
:102784000E94A02E0E94A72EAAE1B0E024C5E8333F
:10279400A0E0FA0759F4EEEEF0E00E94A02E0E94A9
:1027A400A72E0E94A02F0E94F12E27C5E933A0E096
:1027B400FA0759F4E8EFF0E00E94A02E0E94A72E39
:1027C4000E94AF2F0E94F12E18C5EA33A0E0FA0749
:1027D40059F4E4EEF0E00E94A02E0E94A72E0E947D
:1027E4004A2F0E94582F09C5EB33A0E0FA0759F489
:1027F400E2E5F0E00E94A02E0E94A72E0E94B82FCE
:102804000E94352FFAC4EC33A0E0FA0779F4E0E92A
:10281400F0E00E94A02E0E94A72E0E94BF2FA0E9E4
:10282400B1E00E94F42E0E94F12EE7C4ED33A0E043
:10283400FA0749F4ECEFF0E00E94A02E0E94A72EC4
:102844000E94412FD4C4EE33A0E0FA0759F4E8E221
:10285400F0E00E94A02E0E94A72E0E944A2FA6E913
:10286400B1E0BFC4EF33A0E0FA0759F4E4E3F0E0C9
:102874000E94A02E0E94A72E0E94B82FA9E9B1E0C1
:10288400B0C4E034A0E0FA0749F4ECEEF0E00E94B2
:10289400A02E0E94A72E0E94AF2FA9C4E134A0E06D
:1028A400FA0759F4ECECF0E00E94A02E0E94A72E47
:1028B4000E94C62F0E94DF2EA0C4E234A0E0FA07D3
:1028C40059F4ECEBF0E00E94A02E0E94A72E0E9487
:1028D400B82F0E94CF2F8BC4E334A0E0FA0759F439
:1028E400ECE9F0E00E94A02E0E94A72E0E94B82FCF
:1028F400A6E9B1E076C4E434A0E0FA0749F4ECE7D1
:10290400F0E00E94A02E0E94A72E0E940D2F69C401
:10291400E534A0E0FA0749F4E2EDF0E00E94A02ECD
:102924000E94A72E0E94C62F5CC4E634A0E0FA07DA
:1029340069F4E6EEF0E00E94A02E0E94A72E0E9409
:10294400B82F0E94CF2F0E94F12E57C4E734A0E085
:10295400FA0759F4E4EBF0E00E94A02E0E94A72E9F
:102964000E94B82F0E94582F48C4E834A0E0FA0708
:1029740059F4ECEAF0E00E94A02E0E94A72E0E94D7
:102984000D2F0E94DF2E39C4E934A0E0FA0769F460
:10299400E2E1F0E00E94A02E0E94BD2EEDE6F5E0FB
:1029A4000E94992F0E94582F28C4EA34A0E0FA0705
:1029B40059F4E2EBF0E00E94A02E0E94A72E0E94A0
:1029C400E82E0E94DF2E19C4EB34A0E0FA0759F474
:1029D400ECE0F1E00E94A02E0E94A72E0E94512F4D
:1029E4000E94582F0AC4EC34A0E0FA0719F40E949C
:1029F400832F03C4ED34A0E0FA0769F4E6E2F0E0C3
:102A04000E94A02E0E94BD2EEDE6F5E00E94992FB3
:102A1400A6E9B1E0E6C3EE34A0E0FA0759F4ECE12C
:102A2400F1E00E94A02E0E94A72E0E94D22FA6E9B8
:102A3400B1E0D7C3EF34A0E0FA0759F4E2E1F1E0E2
:102A44000E94A02E0E94A72E0E94512FA6E9B1E059
:102A5400C8C3E035A0E0FA0719F40E94832FCDC360
:102A6400E135A0E0FA0759F4EAEEF0E00E94A02E66
:102A74000E94A72E0E94D92F0E94DF2EBEC3E235EA
:102A8400A0E0FA0759F4E8EDF0E00E94A02E0E94BD
:102A9400A72E0E94E22F0E94DF2EAFC3E335A0E0F1
:102AA400FA0769F4ECE8F0E00E94A02E0E94A72E39
:102AB400A2E2B0E00E94EB2FA9E9B1E092C3E435B1
:102AC400A0E0FA0759F4E0EAF0E00E94A02E0E9488
:102AD400F02F0E94F92FA0E1B0E089C3E535A0E012
:102AE400FA0749F4EEEAF0E00E94A02E0E94A72E15
:102AF4000E94D92F76C3E635A0E0FA0749F4E6EF41
:102B0400F0E00E94A02E0E94A72E0E94E22F69C32B
:102B1400E735A0E0FA0759F4E4ECF0E00E94A02EB7
:102B24000E94A72E0E9400300E94352F66C3E8350C
:102B3400A0E0FA0769F4EEE7F0E00E94A02E0E94FC
:102B4400F02F0E94F92F0E94BD2E0E94D12E55C352
:102B5400E935A0E0FA0759F4ECE2F0E00E94A02E77
:102B64000E94A72E0E94BF2F0E94582F46C3EA3509
:102B7400A0E0FA0749F4E0EFF0E00E94A02E0E94E2
:102B8400A72E0E94AE2E33C3EB35A0E0FA0759F40A
:102B9400E8EAF0E00E94A02E0E94A72E0E944A2F8D
:102BA400A9E9B1E01EC3EC35A0E0FA0719F40E94CC
:102BB400832F23C3ED35A0E0FA0759F4E0E3F0E0F6
:102BC4000E94A02E0E94A72E0E94BF2FA6E9B1E06A
:102BD40008C3EE35A0E0FA0759F4E4EFF0E00E94F0
:102BE400A02E0E94A72E0E94AE2E0E94F12E05C395
:102BF400EF35A0E0FA0749F4EEE9F0E00E94A02ED8
:102C04000E94A72E0E94162FF8C2E036A0E0FA0711
:102C140019F40E94832FF1C2E136A0E0FA0759F4B7
:102C2400EAE6F0E00E94A02E0E94A72E0E940D2F3B
:102C34000E94DF2EE2C2E236A0E0FA0769F4EEEB6E
:102C4400F0E00E94A02E0E94A72E0E94D62E0E9481
:102C540003300E94F12ED1C2E336A0E0FA0759F402
:102C6400EAEBF0E00E94A02E0E94A72E0E94D22F31
:102C7400A9E9B1E0B6C2E436A0E0FA0759F4E0E607
:102C8400F0E00E94A02E0E94A72E0E94E82E0E942F
:102C9400DF2EB3C2E536A0E0FA0749F4E0E7F0E03E
:102CA4000E94A02E0E94A72E0E940D2F9AC2E636E3
:102CB400A0E0FA0759F4EAE8F0E00E94A02E0E948E
:102CC400A72E0E94D62E0E94033091C2E736A0E0C0
:102CD400FA0759F4E0E8F0E00E94A02E0E94A72E23
:102CE4000E94D22F0E94352F88C2E836A0E0FA074E
:102CF40049F4E6EBF0E00E94A02E0E94A72E0E9469
:102D0400E82E6FC2E936A0E0FA0769F4E4E4F0E0E3
:102D14000E94A02E0E94A72E0E940A300E94382FE3
:102D24000E94F12E6AC2EA36A0E0FA0749F4EAE307
:102D3400F0E00E94A02E0E94A72E0E945B2F57C293
:102D4400EB36A0E0FA0719F40E94832F56C2EC3642
:102D5400A0E0FA0769F4E6ECF0E00E94A02E0E94DD
:102D6400A72E0E94B82F0E94CF2F0E94F12E45C299
:102D7400ED36A0E0FA0759F4EAE0F0E00E94A02E54
:102D84000E94BD2E0E94C22EA0E1B0E030C2EE36F9
:102D9400A0E0FA0759F4E2E3F0E00E94A02E0E94BA
:102DA400A72E0E945B2F0E94F12E27C2EF36A0E0CF
:102DB400FA0719F40E94832F20C2E037A0E0FA0733
:102DC40059F4E2EEF0E00E94A02E0E94A72E0E9489
:102DD400B82F0E94CF2F0BC2E137A0E0FA0769F4A5
:102DE400E4EDF0E00E94A02E0E94A72E0E940D3078
:102DF4000E94CF2F0E94F12E00C2E237A0E0FA0712
:102E040079F4EAE4F0E00E94A02E0E94BD2E0E9414
:102E140010300E94F92FAFE0B0E00E94F12EEDC116
:102E2400E337A0E0FA0769F4E6E7F0E00E94A02E99
:102E34000E941330ACE9B1E00E94F42E0E94F12EFE
:102E4400DCC1E437A0E0FA0759F4E2E9F0E00E94BB
:102E5400A02E0E94A72E0E94512FA6E9B1E0C1C165
:102E6400E537A0E0FA0759F4EAE1F1E00E94A02E68
:102E74000E94A72E0E940D300E94CF2FB8C1E637C2
:102E8400A0E0FA0759F4E6E5F0E00E94A02E0E94C3
:102E9400BD2E0E9410300E94CF2FA9C1E737A0E0B9
:102EA400FA0759F4E2E7F0E00E94A02E0E941330E2
:102EB400ACE9B1E00E94F42E9AC1E837A0E0FA0729
:102EC40059F4E0EDF0E00E94A02E0E94A72E0E948B
:102ED400512F0E94582F91C1E937A0E0FA0769F4F5
:102EE400E8E4F0E00E94A02E0E94BD2E0E94103063
:102EF4000E94CF2F0E94F12E80C1EA37A0E0FA078A
:102F040059F4EAE9F0E00E94A02E0E94A72E0E9444
:102F1400D22F0E94582F71C1EB37A0E0FA0769F451
:102F2400E6E4F0E00E94A02E0E94BD2E0E941A301A
:102F34000E941F300E94F12E60C1EC37A0E0FA0716
:102F440089F4E0EEF0E00E94A02E0E942830A5E172
:102F5400B0E00E94EB2F0E94F92FA3E1B0E00E94A1
:102F6400F12E4BC1ED37A0E0FA0759F4E8E3F0E0A5
:102F74000E94A02E0E94A72E0E94D22F0E94CF2F23
:102F840036C1EE37A0E0FA0759F4EAECF0E00E940B
:102F9400A02E0E94A72E0E94D22FA6E9B1E021C143
:102FA400EF37A0E0FA0759F4EEEDF0E00E94A02E0E
:102FB4000E94BD2E0E941A300E941F3018C1E038B2
:102FC400A0E0FA0769F4E6E1F1E00E94A02E0E9475
:102FD400BD2EEDE6F5E00E94D62E0E942F3007C1EB
:102FE400E138A0E0FA0779F4E8EEF0E00E94A02EC0
:102FF4000E9428300E943630A9E9B1E00E942F30A7
:103004000E94F12EFAC0E238A0E0FA0769F4E2EF78
:10301400F0E00E94A02E0E9439300E94F92F0E94F5
:10302400BD2E0E94D12EE9C0E338A0E0FA0749F48E
:10303400E8E0F1E00E94A02E0E94A72EAFE1B0E0EC
:10304400CAC0E438A0E0FA0759F4E4E6F0E00E94CC
:10305400A02E0E94A72E0E94B82F0E94752FCDC0CB
:10306400E538A0E0FA0769F4E8E8F0E00E94A02E51
:103074000E9428300E943630A9E9B1E00E942F3026
:10308400B6C0E638A0E0FA0759F4EEE0F1E00E9499
:10309400A02E0E9439300E94F92FA0E1B0E0A7C011
:1030A400E738A0E0FA0759F4E4E5F0E00E94A02E26
:1030B4000E94A72E0E940A300E94752F9EC0E838F5
:1030C400A0E0FA0779F4EEE3F0E00E94A02E0E945B
:1030D400BD2EEDE6F5E00E9436300E944030A0E1BE
:1030E400B0E085C0E938A0E0FA0759F4ECE0F0E07C
:1030F4000E94A02E0E94A72E0E945B2F0E94F12EF8
:103104007CC0EA38A0E0FA0759F4ECEDF0E00E9444
:10311400A02E0E94BD2EEDE6F5E00E94AE2E67C003
:10312400EB38A0E0FA0759F4E8E5F0E00E94A02E9D
:103134000E94A72E0E940D30A6E9B1E052C0EC38DF
:10314400A0E0FA0779F4ECE3F0E00E94A02E0E94DC
:10315400BD2E0E941A300E9440300E94BD2E0E9453
:10316400D12E4BC0ED38A0E0FA0749F4EEE0F0E0D0
:103174000E94A02E0E94A72E0E945B2F38C0EE381A
:10318400A0E0FA0769F4EAE0F1E00E94A02E0E94B0
:10319400BD2EEDE6F5E00E94AE2E0E94F12E2DC06C
:1031A400EF38A0E0FA0759F4E2E2F0E00E94A02E22
:1031B4000E94A72E0E940D300E94582F1EC0E03995
:1031C400A0E0FA0769F5E6E6F0E00E94A02E0E946E
:1031D400A72EACE1B0E0A083B183EFE6F5E0ACE963
:1031E400B1E0A083B183E3E7F5E0A2E1B0E0A0831E
:1031F400B183E7E7F5E0A1E0B0E0A083B1830E94EA
:1032040047303196E0936705F09368050E944C308F
:10321400E0936905F0936A050E9451300E9456308C
:10322400A0917D05B0917E05D29739F40E94653056
:103234003597E0936B05F0936C05A0917F05B091F1
:103244008005D29749F4E0917305F09174053597A0
:10325400E0937305F09374050E946A300E946F3006
:10326400E2E3F0E00E942A35E02139F00E94513077
:1032740070960E9479300E9456300E946A300E94F3
:103284007E300E2EA0918305B09184050E94833078
:1032940039F00E945130B0960E9479300E94563025
:1032A4000E946A300E946F300E94833039F00E947D
:1032B4005130F0960E9479300E945630229608953B
:1032C4000E94D72DFA93EA930E94842D0E9489309C
:1032D4000E94DC2D0E948F300E94782D0E94C5042C
:1032E4000E94E12DFA93EA93E0E3F0E00E94712D4D
:1032F4000E94C504E0917D05F0917E050E948F3007
:103304000E94432E0E94C504E0917F05F091800540
:103314000E948F300E94482E0E94C504E0918105CE
:10332400F0918205FA93EA93E0E3F0E00E947D2DA8
:103334000E94C504E0918305F09184050E948F30BA
:103344000E943E2E0E94C5040E94D22D0E947D2D13
:103354000E943E2E0E94C5040E94CD2DFA93EA934A
:10336400E0E2F0E00E947D2D0E94C5040E94562DEB
:103374000E94712D0E94782D0E94C5040E94612D27
:103384000E947D2D0E94842D0E94C50408950C2C5A
:103394000D28A1F40E94572EE0EEF5E00E949D2E28
:1033A4000E949230E0EEF5E00E94A1300E94AE301F
:1033B4000E94032E0E94082E6F01E9CF0E94F92D6E
:1033C4000E94B430EF930E94F92D0E94BA30AF915D
:1033D400EA2BA1F7929A0E94AE300E944D2E0E94D1
:1033E400C030EF930E94C6300E94C030AF91EA2BE8
:1033F400EF930E94D0300E94C030AF91EA2BEF933C
:103404000E94D0300E94DA30AF91EA2B11F40C9470
:10341400BA1A0E94F92D0E94B430EF930E94F92D3C
:103424000E94BA30AF91EA2B11F0979AFECF0E9416
:10343400572EE9E0F6E00E949D2E0E949230E9E0CA
:10344400F6E00E94A1300E94AE300E944D2E0E94F0
:103454001904E03041F40E94572EE8E2F6E00E949D
:103464009D2E0E94AE300E94C6300E941904E030A6
:1034740041F40E949230E7E4F6E00E94A1300E94F9
:10348400AE300E94D0300E941904E03041F40E9412
:10349400572EE6E6F6E00E949D2E0E94AE300E9472
:1034A400D0300E942E04E03041F40E949230E5E8CE
:1034B400F6E00E949D2E0E94AE300E94F92D0E94DB
:1034C4002E04E13009F4979A0E94F92D0E94E0300D
:1034D400EF930E94F92D0E94DA30AF91EA2BEF931B
:1034E4000E944D2E0E94E630AF91EA2BEF930E948A
:1034F400C6300E94E630AF91EA2BC9F1979A0E9438
:10350400F92D0E942904E13041F40E94572EE4EA87
:10351400F6E00E949D2E0E94AE300E94F92D0E947A
:103524002E04E13041F40E94572EE6EBF6E00E94AF
:103534009D2E0E94AE300E944D2E0E942304E13045
:1035440041F40E94572EE8ECF6E00E949D2E0E9462
:10355400AE300E94C6300E942304E13041F40E9440
:10356400572EEAEDF6E00E949D2E0E94AE3035CF34
:103574000E94572EECEEF6E00E949D2E0E9492309F
:10358400ECEEF6E00E94A13092980E94AE300E94C8
:10359400EC300E948930CC24DD2408950E94C6308A
:1035A4000E942904A0E00E942535EF930E94C630B2
:1035B4000E942E04A0E00E942535AF910E94EF30B6
:1035C4000E94F630E02131F0E1E0F0E0E0936105A3
:1035D400F09362050E94C6300E94E030EF930E948F
:1035E400C6300E94DA30AF910E94EF300E947E30E4
:1035F400E02131F0E2E0F0E0E0936105F093620550
:103604000E94FB30E1E00E942535E02119F01E986C
:103614000E9408310E94FB30E0E00E942535E02141
:1036240019F01E9A0E94083108951A930A93A091E2
:103634002105B09122058091230590912405AD3395
:10364400E0E0BE07E0E08E07E0E09E0714F40C948F
:10365400731B0E941331F501D4010E943C35EF9392
:103664000E94712E0E94B430EF930E94712E0E942A
:10367400BA30AF91EA2BEF930E94712E0E9414048A
:10368400A1E00E942535AF91EA2BEF930E94712EA1
:103694000E94C030AF91EA2BEF930E94712E0E94DA
:1036A4001F04A1E00E942535AF91EA2BEF930E94FD
:1036B400712E0E94E630AF91EA2BEF930E94712E97
:1036C4000E94E030AF91EA2BEF930E94712E0E948A
:1036D400DA30AF91EA2BAF91EA2319F0F401319675
:1036E4004F01A814B904F1F40E9444068F010E940A
:1036F4001331F40131964F01E1E0F0E0E017F107F6
:1037040031F4E2E0F0E00E948F300E941D31E2E0EB
:10371400F0E0E017F10731F4E1E0F0E00E948F30CF
:103724000E941D31F5013196E815F90511F488243C
:1037340099240991199108950E944D2E0E94230401
:10374400E13019F4979A1A981B98E0913505F09195
:103754003605309711F00C94F41B0E942331E88154
:10376400E0930905E17011F4D89801C0D89AE0916A
:103774000905E27011F4D99801C0D99AE0910905BC
:10378400E47011F4DA9801C0DA9AE0910905E8705E
:1037940011F4DB9801C0DB9AE0910905E07111F4A2
:1037A400DC9801C0DC9AE0910905E07211F4DD981F
:1037B40001C0DD9AE0910905E07411F4DE9801C0BE
:1037C400DE9AE0910905E07811F4DF9801C0DF9AF0
:1037D400A881B981A030E1E0BE070CF0949AE1E041
:1037E400F0E047C0E130A0E0FA0789F4A0911105A8
:1037F400B091120580911305909114050E942D310A
:103804002CF0939AE2E0F0E00E94353136C0E230C9
:10381400A0E0FA0789F40E944D2E0E940D04E030C6
:1038240051F49398E0E0EBBB94980E942331E3E0D9
:10383400F0E00E94353121C0E330A0E0FA0769F4DA
:103844000E944D2E0E941904E03031F40E9423316D
:10385400E4E0F0E00E94353110C0E430A0E0FA0763
:1038640061F40E944D2E0E940D04E13031F4E5E034
:10387400F0E0E0933505F0933605E0913505F091DD
:10388400360508C20E94C6300E942304E13019F4B0
:10389400979A1A981B98E0913905F0913A05309758
:1038A40011F00C949A1C0E943A31E881E0930A05C5
:1038B400E17011F4A89801C0A89AE0910A05E27099
:1038C40011F4A99801C0A99AE0910A05E47011F4D1
:1038D400AA9801C0AA9AE0910A05E87011F4AB987D
:1038E40001C0AB9AE0910A05E07111F4AC9801C0F3
:1038F400AC9AE0910A05E07211F4AD9801C0AD9A5A
:10390400E0910A05E07411F4AE9801C0AE9AE0911A
:103914000A05E07811F4AF9801C0AF9AA881B98183
:10392400A030E1E0BE070CF0959AE1E0F0E047C07A
:10393400E130A0E0FA0789F4A0911905B0911A05C5
:1039440080911B0590911C050E942D312CF0969AB4
:10395400E2E0F0E00E94443136C0E230A0E0FA0731
:1039640089F40E94C6300E940D04E03051F4969808
:10397400E0E0E5BB95980E943A31E3E0F0E00E9474
:10398400443121C0E330A0E0FA0769F40E94C63054
:103994000E941904E03031F40E943A31E4E0F0E08E
:1039A4000E94443110C0E430A0E0FA0761F40E94A0
:1039B400C6300E940D04E13031F4E5E0F0E0E0931C
:1039C4003905F0933A05E0913905F0913A0562C161
:1039D4000E94F92D0E942E04E13019F4979A1A9846
:1039E4001B98E0913705F0913805309711F00C944D
:1039F400401DE881E0930705E1700E2EE09100057B
:103A0400EE7F0E944931E695E170EE0F0E2EE091B3
:103A14000005ED7F0E944931E695E695E170EE0FD1
:103A2400EE0F0E2EE0910005EB7F0E944931E695E2
:103A3400E695E695E170EE0FEE0FEE0F0E2EE09197
:103A44000005E77F0E944931E295E170E795E0E0E7
:103A5400E7950E2EE0910005EF77E0290E944F31A3
:103A6400E0910705E07211F4C79801C0C79A0E945B
:103A74005431E1E0F0E00E945E3176C0E130A0E034
:103A8400FA07A9F4A0911505B091160580911705C0
:103A9400909118050E942D314CF0E0910005E062F0
:103AA4000E944F31E2E0F0E00E945E315DC0E230FE
:103AB400A0E0FA0721F50E94D0300E940D04E03006
:103AC400E9F4E0910005EF7D0E944F31E09100059B
:103AD400EE7F0E946331ED7F0E946331EB7F0E9491
:103AE4006331E77F0E946331EF770E944F31C798BB
:103AF4000E945431E3E0F0E00E945E3135C0E330CF
:103B0400A0E0FA0769F40E94D0300E941904E03062
:103B140031F40E945431E4E0F0E00E945E3124C0AC
:103B2400E430A0E0FA0701F50E94D0300E940D04B1
:103B3400E130D1F4E5E0F0E00E945E31E09145052A
:103B4400F0914605309739F4E1E0F0E0E093450563
:103B5400F093460509C0E130A0E0FA0729F4E0E05B
:103B6400E0934505E0934605E0913705F09138056B
:103B740091C00E94F92D0E942904E13019F4979A0A
:103B84001A981B98E0913B05F0913C05309781F51C
:103B9400E881E0930805E17011F4C09801C0C09A6F
:103BA400E0910805E27011F4C19801C0C19AE09156
:103BB4000805E47011F4C29801C0C29AE0910805A6
:103BC400E87011F4C39801C0C39AE0910805E0714C
:103BD40011F41C9801C01C9AE0910805E07211F4DC
:103BE4001D9801C01D9A0E946631E1E0F0E04AC0D0
:103BF400E130A0E0FA0789F4A0911D05B0911E05FB
:103C040080911F05909120050E942D312CF0C59ABA
:103C1400E2E0F0E00E94703139C0E230A0E0FA073F
:103C2400A1F40E94D0300E941F04E03069F4C598CA
:103C3400C098C198C298C3981C981D980E94663178
:103C4400E3E0F0E00E94703121C0E330A0E0FA0725
:103C540069F40E94D0300E942E04E03031F40E94B6
:103C64006631E4E0F0E00E94703110C0E430A0E07E
:103C7400FA0761F40E94D0300E941F04E13031F44D
:103C8400E5E0F0E0E0933B05F0933C05E0913B0573
:103C9400F0913C052296089568970E94943520E09F
:103CA40030E000E010E040E050E04B30E0E05E0740
:103CB40044F4FA010E9475310E94982E4F5F5F4FC1
:103CC400F4CF0E947C310E947E300E2E0E948131FE
:103CD4000E94F6300E9486310E9497310E94A131E1
:103CE40011F40C94AD1F0E947C31119711F00C94C7
:103CF400AD1FF801309749F40E94AB310E94BD31E9
:103D04000E94AA1001E010E025C1E130A0E0FA070A
:103D1400C1F40E94C231159724F40E94032E0E941C
:103D2400C7310E94CA31159724F40E94032E0E94C1
:103D3400CF310E94D23121F00E94DF3102E010E045
:103D440009C1E230A0E0FA07C1F40E94E9311597F5
:103D540024F40E94032E0E94EE310E94F131159743
:103D640024F40E94F6310E94FB310E94FE3121F0BE
:103D74000E94AB3103E010E0EDC0E330A0E0FA07AD
:103D840089F40E94E931159724F40E940B320E94B1
:103D9400EE310E94E931159721F40E94AB3104E021
:103DA40010E0D8C0E430A0E0FA0789F40E94C231E0
:103DB400159724F40E944C300E940F320E94C231A5
:103DC400159721F40E94AB3105E010E0C3C0E53043
:103DD400A0E0FA0711F00C946B1F0E94842D0E943E
:103DE400432E0E9436049F01022E032A11F40AE98D
:103DF40012E00E94123221F00E9419320E94842E95
:103E04000E941D320E22AC85BD850E94F630E02151
:103E140021F00E9419320E94842E0E9426320E2222
:103E2400AE85BF850E94F630E02121F00E94193250
:103E34000E94842E0E942F320E22A889B9890E94E2
:103E4400F630E02121F00E9419320E94842E0E9453
:103E540038320E22AA89BB890E94F630E02121F073
:103E64000E9419320E94842E0E9441320E22AC8993
:103E7400BD890E94F630E02121F00E9419320E948F
:103E8400842E0E944A320E22AE89BF890E94F630E7
:103E9400E02121F00E9419320E94842E0E945332A4
:103EA4000E22A88DB98D0E94F630E02121F00E94E7
:103EB40019320E94842E0E945C320E22AA8DBB8D80
:103EC4000E94F630E02121F00E9419320E94842ED3
:103ED40041C0E630A0E0FA0789F40E94C231159788
:103EE40024F40E94032E0E94C7310E94C231159708
:103EF40021F40E94AB3107E010E02CC0E730A0E0D1
:103F0400FA0779F40E94E931159714F40E94653296
:103F14000E94E931159721F40E94AB3104E010E0CE
:103F240019C0EA39A2E0FA07A9F40E94C231159730
:103F340024F40E94032E0E94C7310E94C2311597B7
:103F440049F40E94DF3104E610E0E0E0E0938505E7
:103F5400E0938605C8CE0E947C310E94F6300E2E76
:103F64000E9481310E947E300E9486310E946A3212
:103F74000E946F320E220E947432E02111F40C94DC
:103F8400FB200E948131119711F00C94FB20F80161
:103F9400309749F40E94AB310E947D320E94AA10EE
:103FA40001E010E025C1E130A0E0FA07C1F40E946D
:103FB400C231159724F40E94032E0E94C7310E9437
:103FC400CA31159724F40E94032E0E94CF310E9417
:103FD400D23121F00E94DF3102E010E009C1E23069
:103FE400A0E0FA07C1F40E94E931159724F40E9475
:103FF400BD310E94EE310E94F131159724F40E94E4
:1040040082320E94FB310E94FE3121F00E94AB31CA
:1040140003E010E0EDC0E330A0E0FA0789F40E9469
:10402400E931159724F40E9487320E94EE310E94F0
:10403400E931159721F40E94AB3104E010E0D8C0B7
:10404400E430A0E0FA0789F40E94C231159724F401
:104054000E944C300E940F320E94C231159721F405
:104064000E94AB3105E010E0C3C0E530A0E0FA07E0
:1040740011F00C94B9200E94842D0E94482E0E94B5
:1040840036049F01022E032A11F40AE912E00E9469
:10409400123221F00E9419320E94842E0E941D3295
:1040A4000E22AC85BD850E94F630E02121F00E94ED
:1040B40019320E94842E0E9426320E22AE85BF85BC
:1040C4000E94F630E02121F00E9419320E94842ED1
:1040D4000E942F320E22A889B9890E94F630E0216D
:1040E40021F00E9419320E94842E0E9438320E223E
:1040F400AA89BB890E94F630E02121F00E9419327E
:104104000E94842E0E9441320E22AC89BD890E94F5
:10411400F630E02121F00E9419320E94842E0E9480
:104124004A320E22AE89BF890E94F630E02121F086
:104134000E9419320E94842E0E9453320E22A88DAE
:10414400B98D0E94F630E02121F00E9419320E94BC
:10415400842E0E945C320E22AA8DBB8D0E94F63002
:10416400E02121F00E9419320E94842E41C0E630E1
:10417400A0E0FA0789F40E94C231159724F40E9442
:10418400032E0E94C7310E94C231159721F40E9468
:10419400AB3107E010E02CC0E730A0E0FA0779F477
:1041A4000E94E931159714F40E9465320E94E931A6
:1041B400159721F40E94AB3104E010E019C0EA39EC
:1041C400A2E0FA07A9F40E94C231159724F40E94D0
:1041D400032E0E94C7310E94C231159749F40E94F0
:1041E400DF3104E610E0E0E0E0938705E093880522
:1041F400C8CE0E949B356E9608950E94562D0F01DD
:104204000E94D22D0E161F069CF0E0910005E0647A
:104214000E944F310E948E320E9493320E94A80461
:10422400E9E6F7E0FA93EA930E9493320E94A80425
:104234000E94612D0F010E94CD2D0E161F069CF0C9
:10424400E0910005E0640E944F310E948E320E948A
:1042540096320E94A804E4E8F7E0FA93EA930E94F5
:1042640096320E94A804089524970E949435E0E0B1
:10427400EE83EF830E94842D0E947F2E0E943604D9
:104284008F010E94842D0E94842D0E943604AF0168
:10429400E1E0F0E0E017F10711F00C940A22EE815E
:1042A400FF81309739F40E94AB31E1E0F0E0EE8316
:1042B400FF83ADC0E130A0E0FA07D1F40E94C2311F
:1042C400159724F40E94032E0E94C7310E94CA311C
:1042D400159724F40E94032E0E94CF310E94D231FC
:1042E40031F00E94DF31E2E0F0E0EE83FF838FC023
:1042F400E230A0E0FA07C1F40E94E931159724F4F2
:104304000E9499320E94EE310E94F131159724F4F3
:104314000E9499320E94FB310E94FE3121F00E94DA
:10432400AB310E949E3273C0E330A0E0FA0711F073
:104334000C94E2210E94C231159724F4E2E0F0E0EB
:104344000E940F320E94CA31159724F40E947D32D4
:104354000E94CF310E94D23191F10E94DF310E943C
:10436400842D0E947F2E0E943604E887F9873097B7
:1043740011F1E130A0E0FA0719F4E3E0F0E01DC028
:10438400E230A0E0FA07D9F4E1E0F0E0E093790547
:10439400F0937A05E0910005EF7B0E944F310E9473
:1043A400502D0E94E62D0E94DD040E948E320E9450
:1043B40093320E94A804E4E0F0E0EE83FF8327C078
:1043C400E430A0E0FA0719F50E94C231159724F4ED
:1043D4000E94032E0E94C7310E94CA31159724F40B
:1043E4000E94032E0E94CF310E94D23181F00E949C
:1043F400AB310E94032E0E94842D0E947F2E0E94C6
:10440400C504E5E0F0E0EE83FF8300E010E040CF78
:104414000E94842D0E94842D0E943604AF01E0E0A6
:10442400EE83EF83E1E0F0E0E417F50711F00C947C
:10443400D922EE81FF81309739F40E94AB31E1E05B
:10444400F0E0EE83FF83B2C0E130A0E0FA07D1F4DC
:104454000E94C231159724F40E94032E0E94C73192
:104464000E94CA31159724F40E94032E0E94CF3172
:104474000E94D23131F00E94DF31E2E0F0E0EE83BD
:10448400FF8394C0E230A0E0FA07C1F40E94E9314E
:10449400159724F40E9499320E94EE310E94F13162
:1044A400159724F40E9499320E94FB310E94FE3138
:1044B40021F00E94AB310E949E3278C0E330A0E02C
:1044C400FA0711F00C94B1220E94C231159724F41A
:1044D400E2E0F0E00E940F320E94CA31159724F402
:1044E4000E947D320E94CF310E94D231B9F10E94E4
:1044F400DF310E94842D0E94842D0E9436049F0186
:10450400F901309729F4E4E0F0E0EE83FF8326C05C
:10451400E130A0E0FA0719F40E949E321FC0E23095
:10452400A0E0FA07D9F4E4E0F0E0EE83FF83E1E0F1
:10453400F0E0E0937B05F0937C05E0910005EF7BD0
:104544000E944F310E945B2D0E94ED2D0E94DD04DC
:104554000E948E320E9496320E94A80427C0E43042
:10456400A0E0FA0719F50E94C231159724F40E94BD
:10457400032E0E94C7310E94CA31159724F40E9469
:10458400032E0E94CF310E94D23181F00E94AB31C0
:10459400E5E0F0E0EE83FF830E94032E0E94842D69
:1045A4000E94842D0E94C50440E050E03BCF0E944D
:1045B4009B352A960895E0E0EBBBEFEFEABBE0E021
:1045C400E8BBEFEFE7BBE0E0E5BBEFEFE4BBE0E027
:1045D400E2BBEFEFE1BBE0E0E3B9EFEFE2B9E0E02B
:1045E400E0936200EFEFE0936100E0E0E0936500A8
:1045F400EFE1E0936400E0E0E0BFE7E0E3BFE0E088
:10460400E2BFE1BFEFBDEEBDEDBDECBDE7BDE6BD74
:10461400EBBDEABDE9BDE8BDE0937900E093780025
:10462400E5BDE4BDE3BDE0938B00E0938A00E09335
:104634008900E0938800E0938100E0938000E09398
:104644008700E0938600E0938500E0938400E09384
:104654008300E0938200E0936A00EABFE9BFE1E0EF
:10466400E7BFE0E0E0937D00EBB9E8E1EAB9E6E01A
:10467400E0939500E0E0E0939000E8E0E9B9E0E041
:10468400E0939A00E0E8E8B9E0E0E0BDE6B9EDB90E
:10469400E09374000E94B53478940E94A3320E947F
:1046A400A3320E94A3320E94A3320E941D2DE3E094
:1046B400EA930E94A22BE0E8EA930E94A22BE2E094
:1046C400EA930E94A22BE0E1EA930E94A22BE1E08C
:1046D400F0E05F01CC24DD240E94A932E0E0E09305
:1046E4005D05E0935E050E94B0320E94B632689484
:1046F40020F821F81E9A22F8E7EBF0E0E093630536
:10470400F0936405E4E6F0E0E0937D05F0937E0524
:10471400E0937F05F0938005E1E0F0E0E09381050C
:10472400F0938205E2E3F0E0E0938305F0938405DF
:10473400E0E5F0E0E0933D05F0933E05E0E0E09332
:104744003F05E0934005E0E4F0E0E0934105F09399
:104754004205E0E0E0934305E09344050E946219BA
:104764000E94C9190E9425060E94171B0E94D01A94
:1047740044DD7ADD0E94DD040E94C6058DDA0E94C4
:104784002506D6010E947E300E2E0E9497310E948B
:104794006A32E1E0F0E00E9430350E220E94A1313D
:1047A4001E2E0E9474320E2E0E946A320E94F6302F
:1047B400E029E1210E2EA0915D05B0915E050E94D5
:1047C4007E30E02911F40C94872BE0914905F09197
:1047D4004A05309711F00C94B924C69AE0915D050E
:1047E400F0915E05309711F00C9455240E94EC3042
:1047F4000E94392E0E94C5040E94EC300E94482E6B
:104804000E94C5040E94032E0E940E2E0E94142EA4
:104814000E94842D0E94192E0E94082E0E94202E90
:104824000E94292E0E94322E0E947F2E0E94432E27
:104834000E943604E0937D05F0937E050E947F2E4E
:104844000E94482E0E943604E0937F05F093800571
:10485400E0E3F0E00E947D2D0E943604E0938105A0
:10486400F09382050E947F2E0E943E2E0E94360401
:10487400E0938305F09384050E94BC320E2E0E94BF
:104884007432E02139F00E94BE32E0933305F09394
:10489400340505C0E0E0E0933305E09334050E945D
:1048A400BD310E94AA10E1E0F0E0E0935D05F093D1
:1048B4005E050E94C332119789F41E980E94E93163
:1048C400159724F40E9482320E94EE310E94F13145
:1048D400159724F40E94032E0E94FB310E94C332D8
:1048E400129791F40E94171B0E94E931159724F442
:1048F4000E94F6310E94EE310E94F131159724F4A2
:104904000E94BD310E94FB310E94FE3179F10E9468
:10491400C332129759F41E9903C00E94D01AFBCFD8
:10492400E8EBFBE0FA93EA930E9407350E94A33276
:104934000E94AB310E94B6320E94C8320E94C33238
:10494400119741F40E94F92D0E940D04E130D1F336
:104954000E94CE320E94C332129741F40E94F92D74
:104964000E941004E130D1F30E94CE32CDC6E13072
:10497400A0E0FA0711F00C940C250E94D5320E9495
:104984007E30E02129F01F9A0E940B320E94FB31F5
:104994000E94D5320E94DC3239F01F9A0E94171B04
:1049A4000E9487320E94FB310E94E2320E943C3511
:1049B4000E94E632E02121F00E94BD310E94CF31F5
:1049C4000E94ED320E942A350E2E0E94E2320E948D
:1049D4002A35E021F1F00E94F1320E94F7320E9460
:1049E40001330E94C332119741F40E94F92D0E94B1
:1049F4000D04E130D1F30E9406330E94C3321297B2
:104A040041F40E94F92D0E941004E130D1F30E9478
:104A140006337AC6E230A0E0FA0761F50E94C33299
:104A2400129711F40E94171B0E94CA31159714F4AF
:104A34000E940D330E94CA311597D9F41A9A0E9424
:104A440014330E94C332119741F40E94F92D0E943D
:104A54000D04E130D1F30E941A330E94C33212973D
:104A640041F40E94F92D0E941004E130D1F30E9418
:104A74001A334AC6E330A0E0FA0711F00C949925E2
:104A84000E94C332129711F40E94171B0E94CA316C
:104A9400159734F40E946530FA93EA930E94CF315B
:104AA4000E94E2320E9421330E9425330E943C3549
:104AB400E021E1F10E942A330E9414330E94D72D91
:104AC4000E942533EA17FB07C9F40E94C3321197E9
:104AD40041F40E94F92D0E940D04E130D1F30E94AB
:104AE40032330E94C332129741F40E94F92D0E947E
:104AF4001004E130D1F30E94323318C00E94C33253
:104B0400119741F40E94F92D0E940D04E130D1F374
:104B14000E9406330E94C332129741F40E94F92D79
:104B24000E941004E130D1F30E940633EDC5E43055
:104B3400A0E0FA0771F50E94C332129711F40E94A3
:104B4400171B0E94CA31159724F40E94BD310E949C
:104B5400CF310E94CA311597D9F41A980E941433A0
:104B64000E94C332119741F40E94F92D0E940D0452
:104B7400E130D1F30E9439330E94C332129741F4D9
:104B84000E94F92D0E941004E130D1F30E943933C0
:104B9400BBC5E530A0E0FA0711F00C9484260E940E
:104BA40045330E945033E02121F00E94032E0E94DD
:104BB400EE310E9445330E94533321F00E94BD31EF
:104BC4000E94EE310E94C332129711F40E94171B07
:104BD4000E9456330E942A350E945A330E94F630AE
:104BE400E02141F00E94F132E1E0F0E0E0934B0576
:104BF400F0934C050E9456330E9460330E947E302D
:104C04000E945033E02121F00E940B320E94EE31C9
:104C14000E9456330E9460330E947E300E945333B8
:104C240021F00E9487320E94EE310E9456330E9486
:104C340060330E94DC3211F00E9465320E94ED3232
:104C44000E9463330E94F630E02121F0E3E0F0E0BB
:104C54000E946B330E94ED320E9463330E947E30C7
:104C64000E945033E02121F00E94F6310E94FB3172
:104C74000E94ED320E9463330E947E300E945333BF
:104C840021F00E9482320E94FB310E9456330E941E
:104C94002A350E94E6320E22A0914B05B0914C05B4
:104CA4000E947E30E0211E2E0E9456330E942A3537
:104CB4000E94E6320E22A0914B05B0914C050E9451
:104CC400DC32E129F1F00E94F1320E94F7320E94B5
:104CD4006E330E94C332119741F40E94F92D0E9451
:104CE4000D04E130D1F30E9473330E94C332129752
:104CF40041F40E94F92D0E941004E130D1F30E9486
:104D0400733302C5E630A0E0FA0711F00C94EC26E8
:104D14000E94C231159724F40E944C300E940F3235
:104D2400A0915905B0915A05119721F4E5E0F0E0FE
:104D34000E9470310E94CA31159714F40E940D33F9
:104D44000E94C332129711F40E94171B0E94E23290
:104D54000E942A350E2E0E947B330E942A35E021C0
:104D6400C1F10E947F330E2E0E94C3320E947E3016
:104D7400E0211E2E0E948B330E2E0E94C3320E940D
:104D8400DC32E12909F01A9AC49A1B9A0E94DF3195
:104D94000E9494330E948B3524F40E9499330E941C
:104DA400A3330E94C332119741F40E94F92D0E944B
:104DB4000D04E130D1F30E94A7330E94C33212974D
:104DC40041F40E94F92D0E941004E130D1F30E94B5
:104DD400A7339AC4E730A0E0FA0711F00C944F27E8
:104DE4000E9456330E943C350E2E0E94E12DDF01B5
:104DF4000E946F32E02121F00E9451300E94AE33B4
:104E04000E94C332129711F40E94171B0E9456335A
:104E14000E942A350E2E0E94E12DA0E0B0E00E94EF
:104E24002A35E029C9F10E94F132E0E0E09353050C
:104E3400E09354050E94E12D309731F4E5E0F0E071
:104E44000E9435310E94B133E0E00E940133E0E07A
:104E5400E0934D05E0934E05E0935505E093560528
:104E6400E0935705E09358050E94C332119741F42B
:104E74000E94F92D0E940D04E130D1F30E94B83351
:104E84000E94C332129741F40E94F92D0E9410042B
:104E9400E130D1F30E94B83337C4E830A0E0FA0718
:104EA40011F00C94C2280E94BF3314F40E94D03332
:104EB4000E94C332129711F40E94171B0E945633AA
:104EC4000E943C350E2E0E94E12D0E94D433E02135
:104ED40031F0E0917105F09172050E94AE330E94A9
:104EE40056330E942A350E2E0E94E12D0E94D4339F
:104EF400E02131F00E94F132ADE4B5E00E94E033EC
:104F04000E94E12DA0914D05B0914E050E94E6331B
:104F14000E94F630E02121F00E94F1320E94B13368
:104F2400A0915905B0915A05119721F4E5E0F0E0FC
:104F34000E9470310E94E2320E94EE330E94F630E9
:104F44000E94F633E02131F00E946530FA93EA932F
:104F54000E94CF310E94E2320E9421330E94253305
:104F64000E943C350E94F633E021E1F0E0915905BE
:104F7400F0915A05309711F40E941433E0915705CB
:104F8400F0915805309749F40E942A33E1E0F0E0AB
:104F9400E0935705F093580505C0E0E0E09357050A
:104FA400E09358050E947B330E94FC330E94F63044
:104FB400E02131F0E0917305F09174050E940F3205
:104FC4000E947B330E942A350E2E0E94DC2D0E9403
:104FD40004340E943C35E021C9F0E0E00E946E33C5
:104FE400E0915505F0915605309759F4AFE4B5E0DA
:104FF4000E94E033E1E0F0E0E0935505F0935605BC
:1050040005C0E0E0E0935505E09356050E947B332C
:105014000E94FC330E947E30E02121F00E944C303B
:105024000E940F320E94E2320E94EE330E947E30D0
:105034000E94F633E02111F00E940D330E94563392
:105044000E943C350E2EA0915305B09154050E9448
:105054007E30E02131F0E0917505F09176050E94F3
:10506400AE330E94E2320E9421330E9425330E9413
:105074002A35E0211E2EA0915305B0915405E1E09C
:10508400F0E00E9430350E2E0E94DC2D0E94043484
:105094000E943035E029E12141F00E941433E1E01F
:1050A400F0E0E0938D05F0938E050E9409340E2EF6
:1050B4000E94E2320E943C35E02121F00E94BD3181
:1050C4000E94CF310E94E2320E942A350E2E0E94A5
:1050D4000934E02129F0E0E0E0938D05E0938E05AA
:1050E4000E9456330E94E6330E947E300E220E94B4
:1050F400D72D0E9425330E942A350E220E94DC2DD2
:105104000E9404340E942A350E220E947B330E949E
:105114002A350E220E94E2320E942A350E94F6337A
:10512400E02169F1E0E0E0938D05E0938E050E94B3
:10513400AB31E0E00E940133E0E0E0934F05E093FF
:105144005005E0934D05E0934E050E94D0330E9434
:10515400C332119741F40E94F92D0E940D04E130ED
:10516400D1F30E940E340E94C332129741F40E947C
:10517400F92D0E941004E130D1F30E940E34C4C210
:10518400E930A0E0FA0711F00C9460290E94C332C0
:10519400119771F50E947B330E943C350E2E0E94BC
:1051A4007F33E02121F00E94BD310E94C7310E946B
:1051B400E2320E9415340E941D3421F00E94BD3158
:1051C4000E94CF310E947B330E9415340E94233405
:1051D40021F00E94032E0E94C7310E94E2320E94F5
:1051E40015340E94293421F00E94032E0E94CF31ED
:1051F4000E94C3321297A1F50E947B330E943C3572
:105204000E2E0E948B33E02121F00E94BD310E94BA
:10521400C7310E94E2320E942F340E941D3421F0D3
:105224000E94BD310E94CF310E947B330E942F34F3
:105234000E94233421F00E94032E0E94C7310E9451
:10524400E2320E942F340E94293421F00E94032E5E
:105254000E94CF310E94C332129711F40E94171B8F
:105264000E94D23151F11A981B98C4980E941433A9
:10527400E0E00E946E33A1E5B5E00E94E033E2E095
:10528400F0E0E0934B05F0934C050E94C332119774
:1052940041F40E94F92D0E940D04E130D1F30E94E3
:1052A40033340E94C332129741F40E94F92D0E94B4
:1052B4001004E130D1F30E94333426C2EA30A0E076
:1052C400FA0711F00C94DD290E94C3320E947E304B
:1052D4000E943A3469F10E9445340E94392E0E949A
:1052E400C5040E944A34AE17BF0724F40E94503408
:1052F4000E94C8320E944A34EA17FB0721F40E9434
:1053040050340E9457340E945E340E94833021F04E
:10531400EBE0F0E00E946B340E945E34EAE0F0E0DF
:105324000E943035E02121F0EEE0F0E00E946B3481
:105334000E94C332129711F40E94171B0E94C332B9
:10534400E2E0F0E00E942A350E943A3499F10E948A
:1053540045340E94482E0E94C5040E94BE323197F3
:105364000E949433AE17BF0724F40E9450340E9465
:10537400C8320E94BE3231970E949433EA17FB0769
:1053840021F40E9450340E9457340E9470340E94C9
:10539400833021F0ECE0F0E00E946B340E94703422
:1053A400EAE0F0E00E943035E02121F0EEE0F0E0A8
:1053B4000E946B34A9C1EB30A0E0FA07A9F50E9462
:1053C400C332129711F40E94171B0E94E9311597FA
:1053D40024F4E7E0F0E00E94AE330E94F131159727
:1053E40024F4E0E9F1E00E946B330E94FE31D9F02D
:1053F4000E94A3330E94F1320E94763441F40E9449
:10540400F92D0E940D04E130D1F30E947E340E94F4
:10541400C332129741F40E94F92D0E941004E13026
:10542400D1F30E947E3470C1EC30A0E0FA07A9F5F4
:105434000E94C332129711F40E94171B0E94E93193
:10544400159724F4E7E0F0E00E94AE330E94F131B6
:10545400159724F4E1E9F1E00E946B330E94FE31D8
:10546400D9F00E94A3330E94F1320E94763441F4B1
:105474000E94F92D0E940D04E130D1F30E947E3484
:105484000E94C332129741F40E94F92D0E94100425
:10549400E130D1F30E947E3437C1ED30A0E0FA0749
:1054A40061F50E94C332129711F40E94171B0E94E7
:1054B400F131159724F4E2E9F1E00E946B330E9484
:1054C400F1311597C9F40E94D0330E94763441F427
:1054D4000E94F92D0E940D04E130D1F30E94813421
:1054E4000E94C332129741F40E94F92D0E941004C5
:1054F400E130D1F30E94813407C1EE30A0E0FA0715
:1055040089F50E94C332129711F40E94171B0E945E
:10551400E931159714F40E9465320E94E931159718
:1055240001F50E94F1320E9499330E94C33211970F
:1055340051F40E94F92D0E940D04E130D1F3EFE003
:10554400F0E00E946B340E94C332129751F40E941F
:10555400F92D0E941004E130D1F3EFE0F0E00E9455
:105564006B34D2C0EF30A0E0FA0731F50E94C332A9
:10557400129711F40E94171B0E94A3330E94BF3399
:10558400D4F40E94D0330E94C332119741F40E9494
:10559400F92D0E940D04E130D1F30E9481340E9460
:1055A400C332129741F40E94F92D0E941004E13095
:1055B400D1F30E948134A8C0E031A0E0FA0711F0D1
:1055C4000C94622BE0913105F09132050E949433E2
:1055D4000E942A350E2E0E9484340E94F630E02167
:1055E40011F10E94B6321F980E946A320E948B35D4
:1055F40084F4E2E0F0E0E0935B05F0935C050E9444
:105604007D320E94AA10E0E0E0934905E0934A0548
:1056140004C0E1E1F0E00E946B34E1E0F0E0E093EB
:105624005F05F09360050E94BE320E9494330E948D
:105634002A350E2E0E94BC320E220E9484340E940F
:105644007E30E02179F01F980E94B632E1E1F0E06B
:105654000E946B340E94A932E2E0F0E0E0935F051F
:10566400F09360050E9489340E2E0E94BC320E22F3
:105674000E9484340E94DC3251F00E94A9320E94BC
:10568400B0321F98C6980E94EC300E9489300E9464
:1056940089340E2E0E946A320E94F6300E220E9435
:1056A40084340E947E30E02151F00E94A9320E948D
:1056B400B0321E9AC6980E94EC300E94893024C0F1
:1056C400E131A0E0FA0701F50E94E931159724F4CD
:1056D4000E9482320E94EE310E94F131159724F427
:1056E4000E94032E0E94FB310E94FE3169F00E9449
:1056F400AB31E0E0E0935D05E0935E05CC24DD246E
:10570400E0934905E0934A053CC82EC8FFCFA99110
:10571400B991EE27FF276D91662311F03196FBCFE7
:105724000895AA27BB27E991F9910590002011F06B
:105734001196FBCFFD0108955F9BFECFECB1089558
:105744005D9BFECFE881ECB921960895EA81EA9346
:10575400F7DFA881B9810E94E03323960895269744
:105764000E94943510E0AC85BD850E94982EEA898C
:10577400FB893196EA8BFB8B3197E4912E2FE03035
:1057840011F40C94DC2CE12FE03039F4253211F4BF
:1057940011E002C00E948E340CC1E130A9F425321C
:1057A40019F40E948E3404C112E040E000E02D326E
:1057B40011F401E0FEC02B3211F44BE2FAC02032A6
:1057C40011F440E2F6C002C0E23039F450E013E0D4
:1057D400203311F40068EDC004C0E33011F00C94E0
:1057E400DB2C203310F02A3308F007C0AAE05A9FBC
:1057F400502DE22FE0535E0FDCC0E22FE33649F474
:105804000E949734E889F989A481AA930E949D345F
:10581400CFC0E33741F40E9497340E94A5340E941C
:10582400892B1E2F0AC0E03761F40E9497340E942E
:10583400A5340E94932B1E2F086002600F7730E07E
:1058440035C0E43611F0E93611F4046002C0E537DE
:1058540031F4ECE8F0E0EE83FF8315E00DC0E835A9
:1058640011F4086004C0E83711F00C94DA2CE6E96E
:10587400F0E0EE83FF8314E002FF14C00E9497342B
:105884000E94AD34AB85AA233AF4EA85FB850E94D5
:105894001735EA87FB874DE2403011F01F5F01C0E6
:1058A4000B7F04C00E9497340E94AD3400FD11C0E8
:1058B400151778F407FF08C002FF04C00B7F242FDC
:1058C400115001C020E301C020E20E948E345150E7
:1058D400EFCF312F01FF17C03030A1F003FF06C016
:1058E400EE81FF812591EE83FF8305C0AE81BF81E8
:1058F4002D91AE83BF830E948E34503009F05150F5
:105904003150EACF4BC020E3EE81FF810E9456352F
:10591400E887F987EE81FF813296EE83FF83E8857D
:10592400F985AA85BB85AE17BF0750F02F5FA88500
:10593400B985EA85FB85EA1BFB0BEA87FB87EFCF7A
:105944002A3328F003FF02C0295F01C0295D04FD4A
:105954001AC0213320F4A885B985119709F409C028
:10596400531710F000FF01C013C020E207FF0BC063
:1059740020E3006102FF07C00B7F4A930E949D341D
:10598400503009F051500E948E34503009F051507B
:105994003150A885B985129708F0B5CF00FF08C02B
:1059A400503031F05150E0E2EA930E949D34F8CF38
:1059B40010E0DDCEAC85BD850E9448350E949B3544
:1059C40064960895FF92F82E26971A930A93DE019F
:1059D40014960E9413358D01E0E0EC83ED83EE8391
:1059E400EF83DE0118960E9413350E9448350E9409
:1059F400892EE8EAFBE2FA93EA93FE013896FA93D9
:105A0400EA93ADDE198108812896FF9008950E94DB
:105A1400BA34E881EA930E94EE34E0E0EA930E940B
:105A2400D334EA830E94C934EA810895E295EF7081
:105A3400E695E6950895EAE5EA930E94A22BE5EA45
:105A4400EA930C94A22BEA930E94A22BEC81EA9392
:105A54000E94A22BEA81EA930C94A22B0E949E2B13
:105A64000E949E2B0C949E2B0E944C35EF5FFF4F9F
:105A74006F4F7F4F0E9451350895ED91FD913196FE
:105A8400FE93EE93319708950E942035A03DE9E5F9
:105A9400BE07E3E08E07E0E09E070895E0E0E093B0
:105AA4008B05E0938C050895A8E0B0E00E94623570
:105AB4000895E0E0E0938905E0938A050895A6E05F
:105AC400B0E00E9462350895EE81FF81FA93EA9373
:105AD40008950E94A22BE2E8EA930C94A22BFA9375
