:0C0000000C94DA030C9400000C94000037
:10000C000C9400000C9400000C9400000C94000064
:10001C000C9400000C9400000C9400000C94000054
:10002C000C9400000C9400000C9400000C94000044
:10003C000C9400000C9453040C9400000C940000DD
:10004C000C9400000C9400000C9400000C94000024
:10005C000C9400000C9400000C9400000C94000014
:10006C000C9400000C9400000C9400000C94000004
:10007C000C9400000C9400000C9400000C940000F4
:10008C001027E80364000A000100001000011000B2
:10009C0001000000202020202020202020202020D3
:1000AC002020202020202020202020202020202044
:1000BC002020202020202020202020202020202034
:1000CC0020202020005A616369736B206E696520C3
:1000DC007A6D6965727A6F6E7920752057796B6FBE
:1000EC006E61776379004F73207A616369736B7506
:1000FC0020626C697A656A20737A616679004F7345
:10010C00207A616369736B752064616C656A206F1A
:10011C006420737A616679004369736E69656E69F0
:10012C0065207A61206D616C65202D206D6E69658E
:10013C006A737A65206E697A2036206261720038A3
:10014C00362D303137300038362D313034330038DD
:10015C00362D313637350038362D323039380038B7
:10016C00372D303137300038372D313034330038BB
:10017C00372D313637350038372D32303938003895
:10018C00362D303139320038362D31303534003897
:10019C00362D313637360038362D32313332003881
:1001AC00372D303139320038372D31303534003875
:1001BC00372D313637360038372D3231333200385F
:1001CC00362D303139330038362D31323136003856
:1001DC00362D313833320038362D32313734003841
:1001EC00372D303139330038372D31323136003834
:1001FC00372D313833320038372D3231373400381F
:10020C00362D303139340038362D31333431003815
:10021C00362D313833330038362D32313830003802
:10022C00372D303139340038372D313334310038F3
:10023C00372D313833330038372D323138300038E0
:10024C00362D303636330038362D313334390038CC
:10025C00362D313833340038362D323230340038C4
:10026C00372D303636330038372D313334390038AA
:10027C00372D313833340038372D323230340038A2
:10028C00362D303736380038362D31333537003887
:10029C00362D313834380038362D32323132003880
:1002AC00372D303736380038372D31333537003865
:1002BC00372D313834380038372D3232313200385E
:1002CC00362D303830300038362D31333633003857
:1002DC00362D313930340038362D32323431003845
:1002EC00372D303830300038372D31333633003835
:1002FC00372D313930340038372D32323431003823
:10030C00362D303831310038362D31353233003816
:10031C00362D313932390038362D323236310038FB
:10032C00372D303831310038372D313532330038F4
:10033C00372D313932390038372D323236310038D9
:10034C00362D303831340038362D313533300038D5
:10035C00362D313933360038362D323238350038B7
:10036C00372D303831340038372D313533300038B3
:10037C00372D313933360038372D32323835003895
:10038C00362D303831350038362D31353531003891
:10039C00362D313934310038362D3232383600387A
:1003AC00372D303831350038372D3135353100386F
:1003BC00372D313934310038372D32323836003858
:1003CC00362D303831360038362D3135353200384F
:1003DC00362D323030370038362D32323932003843
:1003EC00372D303831360038372D3135353200382D
:1003FC00372D323030370038372D32323932003821
:10040C00362D303831370038362D31363032003811
:10041C00362D323031370038362D323338340038FF
:10042C00372D303831370038372D313630320038EF
:10043C00372D323031370038372D323338340038DD
:10044C00362D303834370038362D313632300038CE
:10045C00362D323031390038362D323338350038BC
:10046C00372D303834370038372D313632300038AC
:10047C00372D323031390038372D3233383500389A
:10048C00362D303835340038362D3136323200388E
:10049C00362D323032380038362D3234333700387E
:1004AC00372D303835340038372D3136323200386C
:1004BC00372D323032380038372D3234333700385C
:1004CC00362D303836320038362D3136323500384C
:1004DC00362D323035320038362D32343932003840
:1004EC00372D303836320038372D3136323500382A
:1004FC00372D323035320038372D3234393200381E
:10050C00362D303933350038362D31363438003805
:10051C00362D323038320038362D32353030003806
:10052C00372D303933350038372D313634380038E3
:10053C00372D323038320038372D323530300038E4
:10054C00362D313031390038362D313634390038CA
:10055C00362D323038330038362D323538350038B8
:10056C00372D313031390038372D313634390038A8
:10057C00372D323038330038372D3236323400389C
:10058C00362D313032370038362D31363639003889
:10059C00362D323038370038362D3236323400387A
:1005AC00372D313032370038372D31363639003867
:1005BC00372D323038370038372D32353835004E3C
:1005CC0069652077637A7974616E6F207A616369EB
:1005DC00736B75004E616369736E696A2053544185
:1005EC00525420616279207779706F7A79636A6FDF
:1005FC006E6F776163206E617065647900506F7AFD
:10060C0079636A6F6E756A6520756B6C61647920AD
:10061C006C696E696F77652058595A00537465720E
:10062C006F776E696B2031202D207779706F7A7916
:10063C00636A6F6E6F77616C656D00537465726F72
:10064C00776E696B2032202D207779706F7A796301
:10065C006A6F6E6F77616C656D00537465726F773E
:10066C006E696B2033202D207779706F7A79636AED
:10067C006F6E6F77616C656D00537465726F776E1A
:10068C00696B2034202D207779706F7A79636A6FCB
:10069C006E6F77616C656D00416C61726D20537487
:1006AC0065726F776E696B203400416C61726D20DE
:1006BC00537465726F776E696B203300416C617295
:1006CC006D20537465726F776E696B203100416CCD
:1006DC0061726D20537465726F776E696B20320096
:1006EC005779706F7A79636A6F6E6F77616E6F206E
:1006FC00756B6C616479206C696E696F77652058D5
:10070C00595A0050727A656369617A656E69612025
:10071C004C45465333325F310050727A65636961E0
:10072C007A656E6961204C45465333325F32005016
:10073C00727A656369617A656E6961204C454653CE
:10074C005F58595F320050727A656369617A656EE1
:10075C006961204C4546535F58595F310057796D9C
:10076C0069656E20737A637A6F746B65207065644B
:10077C007A656C6B6F77610057796D69656E206B6C
:10078C0072617A656B2073636965726E7900010022
:10079C002D4E414E00494E460000010002009E00C5
:1007AC00010095059A070000F894EE27ECBBF1E0E8
:1007BC00F5BFE5BFE0936C00F8E1F1BDE1BD8DE064
:1007CC00A2E0BB27ED938A95E9F780E090E1A0E0E9
:1007DC00B1E0ED930197E9F7E6EAF7E085919591A1
:1007EC00009761F0A591B59105901590BF01F001AE
:1007FC0005900D920197E1F7FB01F0CF8BBFEFEF66
:10080C00EDBFE0E1EEBFC0E0D5E00C94E9220E9420
:10081C002D2D23C00E942D2DE6951FC00E942D2D3D
:10082C00E695E6951AC00E942D2DE695E695E6957F
:10083C0014C00E942D2DE29510C00E942D2DE29522
:10084C00EF70E6950AC00E942D2D0E943C2D05C02C
:10085C000E942D2DEE1FE0E0EE1FE170239608950F
:10086C001A930A9300E010E00E94412DE4E0EA9311
:10087C000E94C62BE3E80E94492DE1E0EA930E9416
:10088C00C62B0E94542D0E94542D0E94542D0E2FC5
:10089C001127F801198108818CC06A937A938A9385
:1008AC009A93AA93BA93EA93FA93EFB7EA93A1E1D6
:1008BC00B5E00E945A2DA5E1B5E00E945A2DA9E1A0
:1008CC00B5E00E945A2DADE1B5E00E945A2DA1E28F
:1008DC00B5E00E945A2DA5E2B5E00E945A2DA9E27E
:1008EC00B5E00E945A2D1B9B26C0AFE8B5E00E94D4
:1008FC00632DADE8B5E00E94632DA0918F05B091FA
:10090C0090050E946A2D41F40E94742D0E947A2D4C
:10091C0031960E94C6353197A0918D05B0918E0508
:10092C000E946A2D41F40E947F2D0E94852D3196E4
:10093C000E94C6353197E991EFBFF991E991B991D0
:10094C00A991999189917991699118951A930A9322
:10095C0000E010E00E948A2D0E94B72B8F010D5FE2
:10096C001F4F0E94412D0A930E94C62BE2E80E9461
:10097C00492D0E948A2D80E00E94082D2296198113
:10098C000881289608950E94412DE5E0EA930E9483
:10099C008F2DEA81EA930E94C62BE881EA930E948C
:1009AC00C62BE0E0EA930E94C62BEC81EA930E94EE
:1009BC00C62B269608950E947A2D0E94952D0E9492
:1009CC009C2DE1DF0E94852D0E94A12D0E94A82D57
:1009DC00DADF089524970E94E83500E010E0EE85F8
:1009EC00FF85FA93EA930E94B72B8F010D5F1F4F7F
:1009FC00AC85BD85119759F420E030E040E550E01E
:100A0C00E0E5F0E0E887F987E0E0EE83EF83AC8582
:100A1C00BD85129759F420E030E040E250E0E0E46C
:100A2C00F0E0E887F987E0E0EE83EF830E94412D48
:100A3C000A930E948F2D2A930E94C62B4A930E94E0
:100A4C00C62BEE85FF85FA93EA9380E00E94082D71
:100A5C0022960E94AD2DEC85FD850E94B52D0E943D
:100A6C009C35A0E0B0E00E947635E02151F00E9468
:100A7C00BC2DE1EDF0E00E94CA2D0E94CA2D0E940F
:100A8C00CF2D0E94AD2D0E94D32D51F00E94BC2D74
:100A9C00E2EFF0E00E94CA2D0E94CA2D0E94CF2DD9
:100AAC000E94AD2D0E94DB2D51F00E94BC2DEAE07E
:100ABC00F1E00E94CA2D0E94CA2D0E94CF2D0E94E7
:100ACC00E32D0E94D32D51F00E94BC2DEAE0F1E001
:100ADC000E94CA2D0E94CA2D0E94CF2D0E94E32D88
:100AEC000E94DB2D51F00E94BC2DE2EFF0E00E9441
:100AFC00CA2D0E94CA2D0E94CF2D0E94EF35609600
:100B0C0008950E947A2D0E94EB2D0E2E0E94852DA9
:100B1C000E94EB2D0E2A0E94F12D0E94EB2D0E2A25
:100B2C000E94F62D0E94EB2D0E2A0E94FB2D0E9496
:100B3C00EB2D0E2A0E94002E0E94EB2D0E2A0E94F5
:100B4C00052E0E94EB2DE029F1F00E940A2E0E9446
:100B5C00742D0E94112E0E947F2DAAE0B0E0E5E0DA
:100B6C00F0E00E94C635ACE0B0E00E94C635A0E0D3
:100B7C00B0E00E94182EA2E0B0E00E94182EA4E073
:100B8C00B0E00E94182E08950E941D2E40DEA0E0B9
:100B9C000E947135EF930E941D2E3CDEA0E00E9456
:100BAC007135AF91EA2329F00E94272E0E942C2E3A
:100BBC006F010E94272E0E94322E0E94382E0E9416
:100BCC00A82D0E943D2E0E942C2E0E94442E0E9485
:100BDC004D2E0E94562E0E945D2E0E94622E40DEEB
:100BEC00ACE0B0E00E94C635E0E2F0E00E94A12D3E
:100BFC0037DEAAE0B0E00E94C6350E94272E0E9484
:100C0C009C2D2EDEA8E0B0E00E94C6350E945D2E21
:100C1C000E94A82D25DEA6E0B0E00E94C6350E94F9
:100C2C00A82D0E94672E1CDEE0938905F0938A059F
:100C3C000E94A82D0E946C2E13DEE0938B05F0937E
:100C4C008C055FDF08951A930A9301E010E0002EE3
:100C5C00012AA9F40E94712EF6DDE03029F401E09E
:100C6C0010E0E0EAF0E006C000E010E00E947B2E0D
:100C7C00E4E2F1E0FA93EA930E948A2EE8CF09911C
:100C8C00199108951A930A930E94952EC0DDE17074
:100C9C000E2EE0910205EE7F0E949F2EBBDDE170CF
:100CAC00EE0F0E2EE0910205ED7F0E949F2EB6DD19
:100CBC00E170EE0FEE0F0E2EE0910205EB7F0E941D
:100CCC009F2EB1DDE170EE0FEE0FEE0F0E2EE091C8
:100CDC000205E77F0E949F2EACDDE170E295E07F7C
:100CEC000E2EE0910205EF7E0E949F2EA6DDE17094
:100CFC00E295E07FEE0F0E2EE0910205EF7D0E9453
:100D0C009F2EA1DDE170E295E07FEE0FEE0F0E2E2F
:100D1C00E0910205EF7B0E949F2E9ADDE170E79532
:100D2C00E0E0E7950E2EE0910205EF77E029E093E5
:100D3C0002050E94A32E0E94322E8F01A091020563
:100D4C00A13059F4F8010E94B52D0E94A82EEBE4B5
:100D5C00F1E00E94AD2E0E94B22EA0910205A230AD
:100D6C0071F4F8010E94B52DE2E0F0E0ED93FC93F4
:100D7C00E3E5F1E00E94AD2E0E94272E2BDEA09120
:100D8C000205A33071F4F8010E94B52DE3E0F0E008
:100D9C00ED93FC93EBE5F1E00E94AD2E0E94272E23
:100DAC0019DEA0910205A43071F4F8010E94B52D52
:100DBC00E4E0F0E0ED93FC93E3E6F1E00E94AD2E6D
:100DCC000E94272E07DEA0910205A53071F4F801D0
:100DDC000E94B52DE5E0F0E0ED93FC93EBE6F1E03D
:100DEC000E94AD2E0E94272EF5DDA0910205A630A3
:100DFC0069F4F8010E94B52DE6E0F0E0ED93FC9368
:100E0C00E3E7F1E00E94AD2E0E94B22EA091020504
:100E1C00A73069F4F8010E94B52DE7E0F0E0ED93FE
:100E2C00FC93EBE7F1E00E94AD2E0E94B22EA09154
:100E3C000205A83069F4F8010E94B52DE8E0F0E055
:100E4C00ED93FC93E3E8F1E00E94AD2E0E94B22EEC
:100E5C00A0910205A93071F4F8010E94B52DE9E0CA
:100E6C00F0E0ED93FC93EBE8F1E00E94AD2E0E94D4
:100E7C00272EB0DDA0910205AA3071F4F8010E9472
:100E8C00B52DEAE0F0E0ED93FC93E3E9F1E00E948C
:100E9C00AD2E0E94272E9EDDA0910205AB3071F481
:100EAC00F8010E94B52DEBE0F0E0ED93FC93EBE93B
:100EBC00F1E00E94AD2E0E94272E8CDDA091020540
:100ECC00AC3069F4F8010E94B52DECE0F0E0ED9344
:100EDC00FC93E3EAF1E00E94AD2E0E94B22EA091A9
:100EEC000205AD3069F4F8010E94B52DEDE0F0E09B
:100EFC00ED93FC93EBEAF1E00E94AD2E0E94B22E32
:100F0C00A0910205AE3069F4F8010E94B52DEEE017
:100F1C00F0E0ED93FC93E3EBF1E00E94AD2E0E9428
:100F2C00B22EA0910205AF3069F4F8010E94B52DE4
:100F3C00EFE0F0E0ED93FC93EBEBF1E00E94AD2ED3
:100F4C000E94B22EA0910205A03171F4F8010E940A
:100F5C00B52DE0E1F0E0ED93FC93E3ECF1E00E94C1
:100F6C00AD2E0E94272E36DDA0910205A13171F421
:100F7C00F8010E94B52DE1E1F0E0ED93FC93EBEC70
:100F8C00F1E00E94AD2E0E94272E24DDA0910205D7
:100F9C00A23171F4F8010E94B52DE2E1F0E0ED937D
:100FAC00FC93E3EDF1E00E94AD2E0E94272E12DDA2
:100FBC00A0910205A33171F4F8010E94B52DE3E173
:100FCC00F0E0ED93FC93EBEDF1E00E94AD2E0E946E
:100FDC00272E00DDA0910205A43171F4F8010E94C6
:100FEC00B52DE4E1F0E0ED93FC93E3EEF1E00E942B
:100FFC00AD2E0E94272EEEDCA0910205A53169F4DE
:10100C00F8010E94B52DE5E1F0E0ED93FC93EBEED9
:10101C00F1E00E94AD2E0E94B22EA0910205A631E5
:10102C0069F4F8010E94B52DE6E1F0E0ED93FC9334
:10103C00E3EFF1E00E94AD2E0E94B22EA0910205CA
:10104C00A73169F4F8010E94B52DE7E1F0E0ED93CA
:10105C00FC93EBEFF1E00E94AD2E0E94B22EA0911A
:10106C000205A83169F4F8010E94B52DE8E1F0E021
:10107C00ED93FC93E3E0F2E00E94AD2E0E94B22EC1
:10108C00A0910205A93171F4F8010E94B52DE9E196
:10109C00F0E0ED93FC93EBE0F2E00E94AD2E0E94A9
:1010AC00272E98DCA0910205AA3171F4F8010E9458
:1010BC00B52DEAE1F0E0ED93FC93E3E1F2E00E9460
:1010CC00AD2E0E94272E86DCA0910205AB3171F467
:1010DC00F8010E94B52DEBE1F0E0ED93FC93EBE110
:1010EC00F2E00E94AD2E0E94272E74DCA091020526
:1010FC00AC3169F4F8010E94B52DECE1F0E0ED9310
:10110C00FC93E3E2F2E00E94AD2E0E94B22EA0917D
:10111C000205AD3169F4F8010E94B52DEDE1F0E066
:10112C00ED93FC93EBE2F2E00E94AD2E0E94B22E06
:10113C00A0910205AE3169F4F8010E94B52DEEE1E3
:10114C00F0E0ED93FC93E3E3F2E00E94AD2E0E94FD
:10115C00B22EA0910205AF3169F4F8010E94B52DB1
:10116C00EFE1F0E0ED93FC93EBE3F2E00E94AD2EA7
:10117C000E94B22EA0910205A03271F4F8010E94D7
:10118C00B52DE0E2F0E0ED93FC93E3E4F2E00E9495
:10119C00AD2E0E94272E1EDCA0910205A13269F40F
:1011AC00F8010E94B52DE1E2F0E0ED93FC93EBE445
:1011BC00F2E00E94AD2E0E94B22EA0910205A23246
:1011CC0071F4F8010E94B52DE2E2F0E0ED93FC938E
:1011DC00E3E5F2E00E94AD2E0E94272EFBDBA091EE
:1011EC000205A33271F4F8010E94B52DE3E2F0E0A0
:1011FC00ED93FC93EBE5F2E00E94AD2E0E94272EBE
:10120C00E9DBA0910205A43271F4F8010E94B52D1E
:10121C00E4E2F0E0ED93FC93E3E6F2E00E94AD2E05
:10122C000E94272ED7DBA0910205A53271F4F8019C
:10123C000E94B52DE5E2F0E0ED93FC93EBE6F2E0D5
:10124C000E94AD2E0E94272EC5DBA0910205A6326E
:10125C0069F4F8010E94B52DE6E2F0E0ED93FC9301
:10126C00E3E7F2E00E94AD2E0E94B22EA09102059F
:10127C00A73269F4F8010E94B52DE7E2F0E0ED9396
:10128C00FC93EBE7F2E00E94AD2E0E94B22EA091EF
:10129C000205A83269F4F8010E94B52DE8E2F0E0ED
:1012AC00ED93FC93E3E8F2E00E94AD2E0E94B22E87
:1012BC00A0910205A93269F4F8010E94B52DE9E26A
:1012CC00F0E0ED93FC93EBE8F2E00E94AD2E0E946F
:1012DC00B22EA0910205AA3271F4F8010E94B52D2C
:1012EC00EAE2F0E0ED93FC93E3E9F2E00E94AD2E2C
:1012FC000E94272E6FDBA0910205AB3271F4F8012E
:10130C000E94B52DEBE2F0E0ED93FC93EBE9F2E0FB
:10131C000E94AD2E0E94272E5DDBA0910205AC32FF
:10132C0081F4F8010E94B52DECE2F0E00E94B82E99
:10133C000E94BC2EE3EAF2E00E94AD2E0E94272E02
:10134C0049DBA0910205AD3271F4F8010E94B52D74
:10135C00EDE2F0E0ED93FC93EBEAF2E00E94AD2EAF
:10136C000E94272E37DBA0910205AE3269F4F801FA
:10137C000E94B52DEEE2F0E0ED93FC93E3EBF2E08E
:10138C000E94AD2E0E94B22EA0910205AF3269F4DC
:10139C00F8010E94B52DEFE2F0E0ED93FC93EBEB3E
:1013AC00F2E00E94AD2E0E94B22EA0910205A03355
:1013BC0079F4F8010E94B52DE0E3F0E00E94B82E1C
:1013CC000E94BC2EE3ECF2E00E94AD2E0E94B22EE5
:1013DC00A0910205A13371F4F8010E94B52DE1E34F
:1013EC00F0E0ED93FC93EBECF2E00E94AD2E0E944A
:1013FC00272EF0DAA0910205A23371F4F8010E94B5
:10140C00B52DE2E3F0E0ED93FC93E3EDF2E00E9406
:10141C00AD2E0E94272EDEDAA0910205A33371F4C3
:10142C00F8010E94B52DE3E3F0E0ED93FC93EBEDB6
:10143C00F2E00E94AD2E0E94272ECCDAA09102057C
:10144C00A43369F4F8010E94B52DE4E3F0E0ED93C8
:10145C00FC93E3EEF2E00E94AD2E0E94B22EA0911E
:10146C000205A53369F4F8010E94B52DE5E3F0E01F
:10147C00ED93FC93EBEEF2E00E94AD2E0E94B22EA7
:10148C00A0910205A63369F4F8010E94B52DE6E39C
:10149C00F0E0ED93FC93E3EFF2E00E94AD2E0E949E
:1014AC00B22EA0910205A73369F4F8010E94B52D64
:1014BC00E7E3F0E0ED93FC93EBEFF2E00E94AD2E4E
:1014CC000E94B22EA0910205A83371F4F8010E947B
:1014DC00B52DE8E3F0E0ED93FC93E3E0F3E00E943C
:1014EC00AD2E0E94272E76DAA0910205A93371F455
:1014FC00F8010E94B52DE9E3F0E0ED93FC93EBE0ED
:10150C00F3E00E94AD2E0E94272E64DAA091020512
:10151C00AA3371F4F8010E94B52DEAE3F0E0ED93E3
:10152C00FC93E3E1F3E00E94AD2E0E94272E52DAE9
:10153C00A0910205AB3371F4F8010E94B52DEBE3D9
:10154C00F0E0ED93FC93EBE1F3E00E94AD2E0E94F2
:10155C00272E40DAA0910205AC3371F4F8010E94F9
:10156C00B52DECE3F0E0ED93FC93E3E2F3E00E94A5
:10157C00AD2E0E94272E2EDAA0910205AD3369F410
:10158C00F8010E94B52DEDE3F0E0ED93FC93EBE256
:10159C00F3E00E94AD2E0E94B22EA0910205AE3354
:1015AC0069F4F8010E94B52DEEE3F0E0ED93FC93A5
:1015BC00E3E3F3E00E94AD2E0E94B22EA09102054F
:1015CC00AF3369F4F8010E94B52DEFE3F0E0ED9331
:1015DC00FC93EBE3F3E00E94AD2E0E94B22EA0919F
:1015EC000205A03469F4F8010E94B52DE0E4F0E0A6
:1015FC00ED93FC93E3E4F3E00E94AD2E0E94B22E37
:10160C00A0910205A13471F4F8010E94B52DE1E41A
:10161C00F0E0ED93FC93EBE4F3E00E94AD2E0E941E
:10162C00272ED8D9A0910205A23469F4F8010E94A2
:10163C00B52DE2E4F0E0ED93FC93E3E5F3E00E94DA
:10164C00AD2E0E94B22EA0910205A33469F4F801CC
:10165C000E94B52DE3E4F0E0ED93FC93EBE5F3E0B1
:10166C000E94AD2E0E94B22EA0910205A43469F402
:10167C00F8010E94B52DE4E4F0E0ED93FC93E3E671
:10168C00F3E00E94AD2E0E94B22EA0910205A5346B
:10169C0069F4F8010E94B52DE5E4F0E0ED93FC93BC
:1016AC00EBE6F3E00E94AD2E0E94B22EA091020553
:1016BC00A63471F4F8010E94B52DE6E4F0E0ED9348
:1016CC00FC93E3E7F3E00E94AD2E0E94272E82D913
:1016DC00A0910205A73471F4F8010E94B52DE7E43E
:1016EC00F0E0ED93FC93EBE7F3E00E94AD2E0E944B
:1016FC00272E70D9A0910205A83471F4F8010E942C
:10170C00B52DE8E4F0E0ED93FC93E3E8F3E00E9400
:10171C00AD2E0E94272E5ED9A0910205A93471F43A
:10172C00F8010E94B52DE9E4F0E0ED93FC93EBE8B1
:10173C00F3E00E94AD2E0E94272E4CD9A0910205F9
:10174C00AA3471F4F8010E94B52DEAE4F0E0ED93AF
:10175C00FC93E3E9F3E00E94AD2E0E94272E3AD9C8
:10176C00A0910205AB3471F4F8010E94B52DEBE4A5
:10177C00F0E0ED93FC93EBE9F3E00E94AD2E0E94B8
:10178C00272E28D9A0910205AC3481F4F8010E94CF
:10179C00B52DECE4F0E00E94B82E0E94BC2EE3EADA
:1017AC00F3E00E94AD2E0E94272E14D9A0910205C1
:1017BC00AD3469F4F8010E94B52DEDE4F0E0ED9341
:1017CC00FC93EBEAF3E00E94AD2E0E94B22EA091A6
:1017DC000205AE3469F4F8010E94B52DEEE4F0E098
:1017EC00ED93FC93E3EBF3E00E94AD2E0E94B22E3E
:1017FC00A0910205AF3469F4F8010E94B52DEFE415
:10180C00F0E0ED93FC93EBEBF3E00E94AD2E0E9425
:10181C00B22EA0910205A03581F4F8010E94B52DDD
:10182C00E0E5F0E00E94B82E0E94BC2EE3ECF3E061
:10183C000E94AD2E0E94272ECDD8A0910205A13575
:10184C0071F4F8010E94B52DE1E5F0E0ED93FC9305
:10185C00EBECF3E00E94AD2E0E94272EBBD8A0919A
:10186C000205A23571F4F8010E94B52DE2E5F0E015
:10187C00ED93FC93E3EDF3E00E94AD2E0E94272E36
:10188C00A9D8A0910205A33569F4F8010E94B52DE1
:10189C00E3E5F0E0ED93FC93EBEDF3E00E94AD2E6D
:1018AC000E94B22EA0910205A43569F4F8010E94A1
:1018BC00B52DE4E5F0E0ED93FC93E3EEF3E00E944C
:1018CC00AD2E0E94B22EA0910205A53569F4F80147
:1018DC000E94B52DE5E5F0E0ED93FC93EBEEF3E023
:1018EC000E94AD2E0E94B22EA0910205A63569F47D
:1018FC00F8010E94B52DE6E5F0E0ED93FC93E3EFE3
:10190C00F3E00E94AD2E0E94B22EA0910205A735E5
:10191C0071F4F8010E94B52DE7E5F0E0ED93FC932E
:10192C00EBEFF3E00E94AD2E0E94272E53D8A0912E
:10193C000205A83571F4F8010E94B52DE8E5F0E038
:10194C00ED93FC93E3E0F4E00E94AD2E0E94272E71
:10195C0041D8A0910205A93571F4F8010E94B52D6A
:10196C00E9E5F0E0ED93FC93EBE0F4E00E94AD2EA2
:10197C000E94272E2FD8A0910205AA3569F4F801F0
:10198C000E94B52DEAE5F0E0ED93FC93E3E1F4E081
:10199C000E94AD2E0E94B22EA0910205AB3569F4C7
:1019AC00F8010E94B52DEBE5F0E0ED93FC93EBE133
:1019BC00F4E00E94AD2E0E94B22EA0910205AC352F
:1019CC0089F4F8010E94B52DECE5F0E00E94B82EE8
:1019DC000E94BC2EE3E2F4E00E94AD2E0E94272E62
:1019EC000E94F004A0910205AD3569F4F8010E9443
:1019FC00B52DEDE5F0E0ED93FC93EBE2F4E00E9405
:101A0C00AD2E0E94B22EA0910205AE3579F4F801EC
:101A1C000E94B52DEEE5F0E0ED93FC93E3E3F4E0EA
:101A2C000E94AD2E0E94272E0E94F004A091020568
:101A3C00AF3579F4F8010E94B52DEFE5F0E0ED93A8
:101A4C00FC93EBE3F4E00E94AD2E0E94272E0E9443
:101A5C00F004A0910205A03689F4F8010E94B52D7E
:101A6C00E0E6F0E00E94B82E0E94BC2EE3E4F4E025
:101A7C000E94AD2E0E94272E0E94F004A091020518
:101A8C00A13679F4F8010E94B52DE1E6F0E0ED9372
:101A9C00FC93EBE4F4E00E94AD2E0E94272E0E94F2
:101AAC00F004A0910205A23679F4F8010E94B52D3C
:101ABC00E2E6F0E0ED93FC93E3E5F4E00E94AD2E5A
:101ACC000E94272E0E94F004A0910205A33669F40F
:101ADC00F8010E94B52DE3E6F0E0ED93FC93EBE505
:101AEC00F4E00E94AD2E0E94B22EA0910205A43605
:101AFC0079F4F8010E94B52DE4E6F0E0ED93FC9347
:101B0C00E3E6F4E00E94AD2E0E94272E0E94F00422
:101B1C00A0910205A53669F4F8010E94B52DE5E601
:101B2C00F0E0ED93FC93EBE6F4E00E94AD2E0E9406
:101B3C00B22EA0910205A63669F4F8010E94B52DCB
:101B4C00E6E6F0E0ED93FC93E3E7F4E00E94AD2EC3
:101B5C000E94B22EA0910205A73679F4F8010E94DA
:101B6C00B52DE7E6F0E0ED93FC93EBE7F4E00E9493
:101B7C00AD2E0E94272E0E94F004A0910205A836DB
:101B8C0069F4F8010E94B52DE8E6F0E0ED93FC93C2
:101B9C00E3E8F4E00E94AD2E0E94B22EA091020563
:101BAC00A93679F4F8010E94B52DE9E6F0E0ED9341
:101BBC00FC93EBE8F4E00E94AD2E0E94272E0E94CD
:101BCC00F004A0910205AA3669F4F8010E94B52D23
:101BDC00EAE6F0E0ED93FC93E3E9F4E00E94AD2E2D
:101BEC000E94B22EA0910205AB3689F4F8010E9436
:101BFC00B52DEBE6F0E00E94B82E0E94BC2EEBE96E
:101C0C00F4E00E94AD2E0E94272E0E94F004A091B9
:101C1C000205AC3679F4F8010E94B52DECE6F0E043
:101C2C00ED93FC93E3EAF4E00E94AD2E0E94272E84
:101C3C000E94F004A0910205AD3669F4F8010E94EF
:101C4C00B52DEDE6F0E0ED93FC93EBEAF4E00E94A9
:101C5C00AD2E0E94B22EA0910205AE3679F4F80199
:101C6C000E94B52DEEE6F0E0ED93FC93E3EBF4E08F
:101C7C000E94AD2E0E94272E0E94F004A091020516
:101C8C00AF3689F4F8010E94B52DEFE6F0E00E9422
:101C9C00B82E0E94BC2EEBEBF4E00E94AD2E0E94FD
:101CAC00272E0E94F004A0910205A03769F4F801D8
:101CBC000E94B52DE0E7F0E0ED93FC93E3ECF4E04B
:101CCC000E94AD2E0E94B22EA0910205A13779F48C
:101CDC00F8010E94B52DE1E7F0E0ED93FC93EBECFD
:101CEC00F4E00E94AD2E0E94272E0E94F004A091D9
:101CFC000205A23779F4F8010E94B52DE2E7F0E075
:101D0C00ED93FC93E3EDF4E00E94AD2E0E94272EA0
:101D1C000E94F004A0910205A33779F4F8010E9407
:101D2C00B52DE3E7F0E0ED93FC93EBEDF4E00E94CE
:101D3C00AD2E0E94272E0E94F004A0910205A4371C
:101D4C0069F4F8010E94B52DE4E7F0E0ED93FC9303
:101D5C00E3EEF4E00E94AD2E0E94B22EA09102059B
:101D6C00A53769F4F8010E94B52DE5E7F0E0ED9395
:101D7C00FC93EBEEF4E00E94AD2E0E94B22EA091EB
:101D8C000205A63769F4F8010E94B52DE6E7F0E0EC
:101D9C00ED93FC93E3EFF4E00E94AD2E0E94B22E83
:101DAC00A0910205A73769F4F8010E94B52DE7E769
:101DBC00F0E0ED93FC93EBEFF4E00E94AD2E0E946B
:101DCC00B22EA0910205A83779F4F8010E94B52D26
:101DDC00E8E7F0E0ED93FC93E3E0F5E00E94AD2E34
:101DEC000E94272E0E94F004A0910205A93779F4D5
:101DFC00F8010E94B52DE9E7F0E0ED93FC93EBE0E0
:101E0C00F5E00E94AD2E0E94272E0E94F004A091B6
:101E1C000205AA3779F4F8010E94B52DEAE7F0E043
:101E2C00ED93FC93E3E1F5E00E94AD2E0E94272E8A
:101E3C000E94F004A0910205AB3779F4F8010E94DE
:101E4C00B52DEBE7F0E0ED93FC93EBE1F5E00E94B0
:101E5C00AD2E0E94272E0E94F004A0910205AC37F3
:101E6C0079F4F8010E94B52DECE7F0E0ED93FC93CA
:101E7C00E3E2F5E00E94AD2E0E94272E0E94F004B2
:101E8C00A0910205AD3769F4F8010E94B52DEDE77C
:101E9C00F0E0ED93FC93EBE2F5E00E94AD2E0E9496
:101EAC00B22EA0910205AE3769F4F8010E94B52D4F
:101EBC00EEE7F0E0ED93FC93E3E3F5E00E94AD2E4A
:101ECC000E94B22EA0910205AF3769F4F8010E946E
:101EDC00B52DEFE7F0E0ED93FC93EBE3F5E00E941A
:101EEC00AD2E0E94B22EA0910205A03869F4F80123
:101EFC000E94B52DE0E8F0E0ED93FC93E3E4F5E00F
:101F0C000E94AD2E0E94B22EA0910205A13879F448
:101F1C00F8010E94B52DE1E8F0E0ED93FC93EBE4C1
:101F2C00F5E00E94AD2E0E94272E0E94F004A09195
:101F3C000205A23879F4F8010E94B52DE2E8F0E030
:101F4C00ED93FC93E3E5F5E00E94AD2E0E94272E65
:101F5C000E94F004A0910205A33869F4F8010E94D4
:101F6C00B52DE3E8F0E0ED93FC93EBE5F5E00E9492
:101F7C00AD2E0E94B22EA0910205A43879F4F8017E
:101F8C000E94B52DE4E8F0E0ED93FC93E3E6F5E078
:101F9C000E94AD2E0E94272E0E94F004A0910205F3
:101FAC00A53869F4F8010E94B52DE5E8F0E0ED9351
:101FBC00FC93EBE6F5E00E94AD2E0E94B22EA091B0
:101FCC000205A63869F4F8010E94B52DE6E8F0E0A8
:101FDC00ED93FC93E3E7F5E00E94AD2E0E94B22E48
:101FEC00A0910205A73879F4F8010E94B52DE7E815
:101FFC00F0E0ED93FC93EBE7F5E00E94AD2E0E9430
:10200C00272E0E94F004A0910205A83869F4F8016B
:10201C000E94B52DE8E8F0E0ED93FC93E3E8F5E0E1
:10202C000E94AD2E0E94B22EA0910205A93879F41F
:10203C00F8010E94B52DE9E8F0E0ED93FC93EBE894
:10204C00F5E00E94AD2E0E94272E0E94F004A09174
:10205C000205AA3869F4F8010E94B52DEAE8F0E00F
:10206C00ED93FC93E3E9F5E00E94AD2E0E94B22EB5
:10207C00A0910205AB3869F4F8010E94B52DEBE88C
:10208C00F0E0ED93FC93EBE9F5E00E94AD2E0E949D
:10209C00B22EA0910205AC3879F4F8010E94B52D4E
:1020AC00ECE8F0E0ED93FC93E3EAF5E00E94AD2E52
:1020BC000E94272E0E94F004A0910205AD3869F40D
:1020CC00F8010E94B52DEDE8F0E0ED93FC93EBEAFE
:1020DC00F5E00E94AD2E0E94B22EA0910205AE3802
:1020EC0079F4F8010E94B52DEEE8F0E0ED93FC9345
:1020FC00E3EBF5E00E94AD2E0E94272E0E94F00427
:10210C00A0910205AF3879F4F8010E94B52DEFE8E3
:10211C00F0E0ED93FC93EBEBF5E00E94AD2E0E940A
:10212C00272E0E94F004A0910205A03969F4F80151
:10213C000E94B52DE0E9F0E0ED93FC93E3ECF5E0C3
:10214C000E94AD2E0E94B22EF801099119910895AA
:10215C00E881F9810E94B52D0E949C35309741F49D
:10216C000E947B2EEBECF5E00E94C12E0C9416190C
:10217C00E130A0E0FA0751F4E8ECF0E00E94C42E44
:10218C000E94CB2E0E94D22E0C94FD18E230A0E0BF
:10219C00FA0771F4E0E1F1E00E94C42E0E94E12EF6
:1021AC000E94E62E0E94E12E0E94F52E0C9403193B
:1021BC00E330A0E0FA0761F4EAE7F0E00E94C42EF5
:1021CC000E94CB2E0E94FA2E0E94032F0C9403190E
:1021DC00E430A0E0FA0761F4E2E0F1E00E94C42EE2
:1021EC000E94CB2E0E940C2F0E94032F0C940319DB
:1021FC00E530A0E0FA0759F4E0EBF0E00E94C42EC1
:10220C000E94CB2E0E94D22E0E94152FF6C7E630CC
:10221C00A0E0FA0759F4EEEFF0E00E94C42E0E9401
:10222C00E12E0E94E62EA0E1B0E0E1C7E730A0E08D
:10223C00FA0749F4E8E7F0E00E94C42E0E94CB2E86
:10224C000E94FA2ECEC7E830A0E0FA0749F4E0EC81
:10225C00F0E00E94C42E0E94CB2E0E940C2FC1C70E
:10226C00E930A0E0FA0769F4E8E1F0E00E94C42E3E
:10227C000E94CB2E0E940C2F0E94182F0E94152F0B
:10228C00BCC7EA30A0E0FA0759F4E6E1F0E00E949E
:10229C00C42E0E94CB2E0E941F2F0E94032FADC76D
:1022AC00EB30A0E0FA0759F4E4E7F0E00E94C42E0A
:1022BC000E94CB2E0E94282F0E94032F9EC7EC3029
:1022CC00A0E0FA0749F4E6E9F0E00E94C42E0E946F
:1022DC00CB2E0E94312F85C7ED30A0E0FA0759F4C0
:1022EC00EAE1F0E00E94C42E0E94CB2E0E940C2F3B
:1022FC000E94182F7CC7EE30A0E0FA0749F4EEE5F7
:10230C00F0E00E94C42E0E94CB2E0E941F2F69C7A2
:10231C00EF30A0E0FA0749F4E4E8F0E00E94C42EA4
:10232C000E94CB2E0E94282F5CC7E031A0E0FA0758
:10233C0049F4E8EBF0E00E94C42E0E94CB2E0E94E0
:10234C003A2F5BC7E131A0E0FA0759F4E0E2F0E084
:10235C000E94C42E0E94CB2E0E94D22E0E94152FBA
:10236C004CC7E231A0E0FA0769F4E8E9F0E00E941A
:10237C00C42E0E94E12E0E94432F0E94E12E0E9447
:10238C00F52E3BC7E331A0E0FA0759F4EAEAF0E096
:10239C000E94C42E0E94CB2E0E94522F0E94592FB5
:1023AC002CC7E431A0E0FA0769F4E2E4F0E00E9403
:1023BC00C42E0E94CB2E0E94522F0E945C2F0E9492
:1023CC00152F1BC7E531A0E0FA0749F4EEE4F0E065
:1023DC000E94C42E0E94CB2E0E94D22E08C7E6313A
:1023EC00A0E0FA0759F4E2ECF0E00E94C42E0E943F
:1023FC00E12E0E94432FA0E1B0E0F9C6E731A0E046
:10240C00FA0759F4EEECF0E00E94C42E0E94CB2E99
:10241C000E94522FA9E9B1E0E4C6E831A0E0FA0726
:10242C0059F4E0E4F0E00E94C42E0E94CB2E0E94EE
:10243C00522F0E945C2FDBC6E931A0E0FA0759F459
:10244C00EEE2F0E00E94C42E0E94CB2E0E941F2FC1
:10245C000E94032FD2C6EA31A0E0FA0759F4EAEF42
:10246C00F0E00E94C42E0E94CB2E0E94652F0E9489
:10247C00152FC3C6EB31A0E0FA0749F4ECE6F0E007
:10248C000E94C42E0E94CB2E0E943A2FB6C6EC316D
:10249C00A0E0FA0749F4E4EAF0E00E94C42E0E949E
:1024AC00CB2E0E94312F9DC6ED31A0E0FA0749F4E6
:1024BC00EAE2F0E00E94C42E0E94CB2E0E941F2F55
:1024CC0090C6EE31A0E0FA0749F4E4E9F0E00E948E
:1024DC00C42E0E94CB2E0E94652F89C6EF31A0E03E
:1024EC00FA0759F4EEE6F0E00E94C42E0E94CB2EBF
:1024FC000E946E2FA9E9B1E074C6E032A0E0FA07A1
:10250C0059F4E6E8F0E00E94C42E0E94CB2E0E9403
:10251C00312F0E94032F71C6E132A0E0FA0749F473
:10252C00EEE8F0E00E94C42E0E94CB2EA0E2B0E0B8
:10253C0052C6E232A0E0FA0759F4EAE5F0E00E9454
:10254C00C42E0E94CB2E0E94752F0E947C2F55C644
:10255C00E332A0E0FA0759F4EAEDF0E00E94C42E51
:10256C000E94CB2E0E947F2F0E94152F46C6E4326C
:10257C00A0E0FA0759F4E2EAF0E00E94C42E0E94AF
:10258C00862F0E94E12E0E94F52E37C6E532A0E080
:10259C00FA0759F4E4E0F1E00E94C42E0E94CB2E1D
:1025AC000E94752F0E94992F28C6E632A0E0FA07E8
:1025BC0059F4E6E3F0E00E94C42E0E94CB2E0E9458
:1025CC00752FA6E9B1E00DC6E732A0E0FA0749F491
:1025DC00E8E1F1E00E94C42E0E94CB2E0E947F2FD6
:1025EC0006C6E832A0E0FA0749F4E6EAF0E00E94F9
:1025FC00C42E0E94862FA0E1B0E0F9C5E932A0E01C
:10260C00FA0759F4EEE1F0E00E94C42E0E94CB2EA2
:10261C000E940C2F0E94182FEAC5EA32A0E0FA079C
:10262C0059F4ECE5F0E00E94C42E0E94E12E0E94C9
:10263C009C2F0E94152FE1C5EB32A0E0FA0759F44C
:10264C00E2E6F0E00E94C42E0E94CB2E0E946E2F78
:10265C000E947C2FD2C5EC32A0E0FA0719F40E943C
:10266C00A72FCBC5ED32A0E0FA0769F4E0E1F0E06A
:10267C000E94C42E0E94CB2E0E940C2F0E94182F59
:10268C000E94152FBAC5EE32A0E0FA0749F4E0E536
:10269C00F0E00E94C42E0E94E12E0E949C2FA7C540
:1026AC00EF32A0E0FA0759F4E8E6F0E00E94C42EFD
:1026BC000E94CB2E0E946E2FA6E9B1E092C5E033AA
:1026CC00A0E0FA0719F40E94A72F97C5E133A0E008
:1026DC00FA0759F4E4E2F0E00E94C42E0E94CB2EDB
:1026EC000E940C2F0E94032F88C5E233A0E0FA074A
:1026FC0059F4E4E1F0E00E94C42E0E94CB2E0E941B
:10270C007F2F0E94152F79C5E333A0E0FA0759F407
:10271C00E2E8F0E00E94C42E0E94CB2E0E94BD2F56
:10272C000E94992F6AC5E433A0E0FA0749F4E6E069
:10273C00F1E00E94C42E0E94CB2E0E94C42F57C5DC
:10274C00E533A0E0FA0749F4ECE4F0E00E94C42E73
:10275C000E94CB2E0E940C2F44C5E633A0E0FA0752
:10276C0049F4ECE1F0E00E94C42E0E94CB2E0E94B2
:10277C007F2F3DC5E733A0E0FA0749F4E4E1F1E02F
:10278C000E94C42E0E94CB2EAAE1B0E024C5E833EF
:10279C00A0E0FA0759F4EEEEF0E00E94C42E0E947D
:1027AC00CB2E0E94C42F0E94152F27C5E933A0E021
:1027BC00FA0759F4E8EFF0E00E94C42E0E94CB2EE9
:1027CC000E94D32F0E94152F18C5EA33A0E0FA07F8
:1027DC0059F4E4EEF0E00E94C42E0E94CB2E0E942D
:1027EC006E2F0E947C2F09C5EB33A0E0FA0759F439
:1027FC00E2E5F0E00E94C42E0E94CB2E0E94DC2F5A
:10280C000E94592FFAC4EC33A0E0FA0779F4E0E9FE
:10281C00F0E00E94C42E0E94CB2E0E94E32FA0E970
:10282C00B1E00E94182F0E94152FE7C4ED33A0E0F1
:10283C00FA0749F4ECEFF0E00E94C42E0E94CB2E74
:10284C000E94652FD4C4EE33A0E0FA0759F4E8E2F5
:10285C00F0E00E94C42E0E94CB2E0E946E2FA6E99F
:10286C00B1E0BFC4EF33A0E0FA0759F4E4E3F0E0C1
:10287C000E94C42E0E94CB2E0E94DC2FA9E9B1E04D
:10288C00B0C4E034A0E0FA0749F4ECEEF0E00E94AA
:10289C00C42E0E94CB2E0E94D32FA9C4E134A0E0F9
:1028AC00FA0759F4ECECF0E00E94C42E0E94CB2EF7
:1028BC000E94EA2F0E94032FA0C4E234A0E0FA0782
:1028CC0059F4ECEBF0E00E94C42E0E94CB2E0E9437
:1028DC00DC2F0E94F32F8BC4E334A0E0FA0759F4E9
:1028EC00ECE9F0E00E94C42E0E94CB2E0E94DC2F5B
:1028FC00A6E9B1E076C4E434A0E0FA0749F4ECE7C9
:10290C00F0E00E94C42E0E94CB2E0E94312F69C48D
:10291C00E534A0E0FA0749F4E2EDF0E00E94C42EA1
:10292C000E94CB2E0E94EA2F5CC4E634A0E0FA078A
:10293C0069F4E6EEF0E00E94C42E0E94CB2E0E94B9
:10294C00DC2F0E94F32F0E94152F57C4E734A0E010
:10295C00FA0759F4E4EBF0E00E94C42E0E94CB2E4F
:10296C000E94DC2F0E947C2F48C4E834A0E0FA07B8
:10297C0059F4ECEAF0E00E94C42E0E94CB2E0E9487
:10298C00312F0E94032F39C4E934A0E0FA0769F40F
:10299C00E2E1F0E00E94C42E0E94E12EE1E7F5E0B6
:1029AC000E94BD2F0E947C2F28C4EA34A0E0FA07B5
:1029BC0059F4E2EBF0E00E94C42E0E94CB2E0E9450
:1029CC000C2F0E94032F19C4EB34A0E0FA0759F422
:1029DC00ECE0F1E00E94C42E0E94CB2E0E94752FD9
:1029EC000E947C2F0AC4EC34A0E0FA0719F40E9470
:1029FC00A72F03C4ED34A0E0FA0769F4E6E2F0E097
:102A0C000E94C42E0E94E12EE1E7F5E00E94BD2F4A
:102A1C00A6E9B1E0E6C3EE34A0E0FA0759F4ECE124
:102A2C00F1E00E94C42E0E94CB2E0E94F62FA6E944
:102A3C00B1E0D7C3EF34A0E0FA0759F4E2E1F1E0DA
:102A4C000E94C42E0E94CB2E0E94752FA6E9B1E0E5
:102A5C00C8C3E035A0E0FA0719F40E94A72FCDC334
:102A6C00E135A0E0FA0759F4EAEEF0E00E94C42E3A
:102A7C000E94CB2E0E94FD2F0E94032FBEC3E23575
:102A8C00A0E0FA0759F4E8EDF0E00E94C42E0E9491
:102A9C00CB2E0E9406300E94032FAFC3E335A0E07B
:102AAC00FA0769F4ECE8F0E00E94C42E0E94CB2EE9
:102ABC00A2E2B0E00E940F30A9E9B1E092C3E43584
:102ACC00A0E0FA0759F4E0EAF0E00E94C42E0E945C
:102ADC0014300E941D30A0E1B0E089C3E535A0E0C0
:102AEC00FA0749F4EEEAF0E00E94C42E0E94CB2EC5
:102AFC000E94FD2F76C3E635A0E0FA0749F4E6EF15
:102B0C00F0E00E94C42E0E94CB2E0E94063069C3B6
:102B1C00E735A0E0FA0759F4E4ECF0E00E94C42E8B
:102B2C000E94CB2E0E9424300E94592F66C3E83598
:102B3C00A0E0FA0769F4EEE7F0E00E94C42E0E94D0
:102B4C0014300E941D300E94E12E0E94F52E55C3B8
:102B5C00E935A0E0FA0759F4ECE2F0E00E94C42E4B
:102B6C000E94CB2E0E94E32F0E947C2F46C3EA3595
:102B7C00A0E0FA0749F4E0EFF0E00E94C42E0E94B6
:102B8C00CB2E0E94D22E33C3EB35A0E0FA0759F4BA
:102B9C00E8EAF0E00E94C42E0E94CB2E0E946E2F19
:102BAC00A9E9B1E01EC3EC35A0E0FA0719F40E94C4
:102BBC00A72F23C3ED35A0E0FA0759F4E0E3F0E0CA
:102BCC000E94C42E0E94CB2E0E94E32FA6E9B1E0F6
:102BDC0008C3EE35A0E0FA0759F4E4EFF0E00E94E8
:102BEC00C42E0E94CB2E0E94D22E0E94152F05C3FC
:102BFC00EF35A0E0FA0749F4EEE9F0E00E94C42EAC
:102C0C000E94CB2E0E943A2FF8C2E036A0E0FA07C1
:102C1C0019F40E94A72FF1C2E136A0E0FA0759F48B
:102C2C00EAE6F0E00E94C42E0E94CB2E0E94312FC7
:102C3C000E94032FE2C2E236A0E0FA0769F4EEEB41
:102C4C00F0E00E94C42E0E94CB2E0E94FA2E0E940D
:102C5C0027300E94152FD1C2E336A0E0FA0759F4B1
:102C6C00EAEBF0E00E94C42E0E94CB2E0E94F62FBD
:102C7C00A9E9B1E0B6C2E436A0E0FA0759F4E0E6FF
:102C8C00F0E00E94C42E0E94CB2E0E940C2F0E94BA
:102C9C00032FB3C2E536A0E0FA0749F4E0E7F0E011
:102CAC000E94C42E0E94CB2E0E94312F9AC2E6366F
:102CBC00A0E0FA0759F4EAE8F0E00E94C42E0E9462
:102CCC00CB2E0E94FA2E0E94273091C2E736A0E04C
:102CDC00FA0759F4E0E8F0E00E94C42E0E94CB2ED3
:102CEC000E94F62F0E94592F88C2E836A0E0FA07FE
:102CFC0049F4E6EBF0E00E94C42E0E94CB2E0E9419
:102D0C000C2F6FC2E936A0E0FA0769F4E4E4F0E0B6
:102D1C000E94C42E0E94CB2E0E942E300E945C2F4B
:102D2C000E94152F6AC2EA36A0E0FA0749F4EAE3DA
:102D3C00F0E00E94C42E0E94CB2E0E947F2F57C21F
:102D4C00EB36A0E0FA0719F40E94A72F56C2EC3616
:102D5C00A0E0FA0769F4E6ECF0E00E94C42E0E94B1
:102D6C00CB2E0E94DC2F0E94F32F0E94152F45C200
:102D7C00ED36A0E0FA0759F4EAE0F0E00E94C42E28
:102D8C000E94E12E0E94E62EA0E1B0E030C2EE36A9
:102D9C00A0E0FA0759F4E2E3F0E00E94C42E0E948E
:102DAC00CB2E0E947F2F0E94152F27C2EF36A0E05A
:102DBC00FA0719F40E94A72F20C2E037A0E0FA0707
:102DCC0059F4E2EEF0E00E94C42E0E94CB2E0E9439
:102DDC00DC2F0E94F32F0BC2E137A0E0FA0769F455
:102DEC00E4EDF0E00E94C42E0E94CB2E0E94313004
:102DFC000E94F32F0E94152F00C2E237A0E0FA07C1
:102E0C0079F4EAE4F0E00E94C42E0E94E12E0E94C4
:102E1C0034300E941D30AFE0B0E00E94152FEDC1A0
:102E2C00E337A0E0FA0769F4E6E7F0E00E94C42E6D
:102E3C000E943730ACE9B1E00E94182F0E94152F88
:102E4C00DCC1E437A0E0FA0759F4E2E9F0E00E94B3
:102E5C00C42E0E94CB2E0E94752FA6E9B1E0C1C1F1
:102E6C00E537A0E0FA0759F4EAE1F1E00E94C42E3C
:102E7C000E94CB2E0E9431300E94F32FB8C1E6374E
:102E8C00A0E0FA0759F4E6E5F0E00E94C42E0E9497
:102E9C00E12E0E9434300E94F32FA9C1E737A0E045
:102EAC00FA0759F4E2E7F0E00E94C42E0E94373092
:102EBC00ACE9B1E00E94182F9AC1E837A0E0FA07FC
:102ECC0059F4E0EDF0E00E94C42E0E94CB2E0E943B
:102EDC00752F0E947C2F91C1E937A0E0FA0769F4A5
:102EEC00E8E4F0E00E94C42E0E94E12E0E943430EF
:102EFC000E94F32F0E94152F80C1EA37A0E0FA0739
:102F0C0059F4EAE9F0E00E94C42E0E94CB2E0E94F4
:102F1C00F62F0E947C2F71C1EB37A0E0FA0769F401
:102F2C00E6E4F0E00E94C42E0E94E12E0E943E30A6
:102F3C000E9443300E94152F60C1EC37A0E0FA07C5
:102F4C0089F4E0EEF0E00E94C42E0E944C30A5E122
:102F5C00B0E00E940F300E941D30A3E1B0E00E944F
:102F6C00152F4BC1ED37A0E0FA0759F4E8E3F0E078
:102F7C000E94C42E0E94CB2E0E94F62F0E94F32F8B
:102F8C0036C1EE37A0E0FA0759F4EAECF0E00E9403
:102F9C00C42E0E94CB2E0E94F62FA6E9B1E021C1CF
:102FAC00EF37A0E0FA0759F4EEEDF0E00E94C42EE2
:102FBC000E94E12E0E943E300E94433018C1E0383E
:102FCC00A0E0FA0769F4E6E1F1E00E94C42E0E9449
:102FDC00E12EE1E7F5E00E94FA2E0E94533007C182
:102FEC00E138A0E0FA0779F4E8EEF0E00E94C42E94
:102FFC000E944C300E945A30A9E9B1E00E94533033
:10300C000E94152FFAC0E238A0E0FA0769F4E2EF4B
:10301C00F0E00E94C42E0E945D300E941D300E9480
:10302C00E12E0E94F52EE9C0E338A0E0FA0749F43E
:10303C00E8E0F1E00E94C42E0E94CB2EAFE1B0E09C
:10304C00CAC0E438A0E0FA0759F4E4E6F0E00E94C4
:10305C00C42E0E94CB2E0E94DC2F0E94992FCDC033
:10306C00E538A0E0FA0769F4E8E8F0E00E94C42E25
:10307C000E944C300E945A30A9E9B1E00E945330B2
:10308C00B6C0E638A0E0FA0759F4EEE0F1E00E9491
:10309C00C42E0E945D300E941D30A0E1B0E0A7C09C
:1030AC00E738A0E0FA0759F4E4E5F0E00E94C42EFA
:1030BC000E94CB2E0E942E300E94992F9EC0E83881
:1030CC00A0E0FA0779F4EEE3F0E00E94C42E0E942F
:1030DC00E12EE1E7F5E00E945A300E946430A0E155
:1030EC00B0E085C0E938A0E0FA0759F4ECE0F0E074
:1030FC000E94C42E0E94CB2E0E947F2F0E94152F5F
:10310C007CC0EA38A0E0FA0759F4ECEDF0E00E943C
:10311C00C42E0E94E12EE1E7F5E00E94D22E67C09A
:10312C00EB38A0E0FA0759F4E8E5F0E00E94C42E71
:10313C000E94CB2E0E943130A6E9B1E052C0EC388F
:10314C00A0E0FA0779F4ECE3F0E00E94C42E0E94B0
:10315C00E12E0E943E300E9464300E94E12E0E94BB
:10316C00F52E4BC0ED38A0E0FA0749F4EEE0F0E0A4
:10317C000E94C42E0E94CB2E0E947F2F38C0EE38A6
:10318C00A0E0FA0769F4EAE0F1E00E94C42E0E9484
:10319C00E12EE1E7F5E00E94D22E0E94152F2DC002
:1031AC00EF38A0E0FA0759F4E2E2F0E00E94C42EF6
:1031BC000E94CB2E0E9431300E947C2F1EC0E03921
:1031CC00A0E0FA0769F5E6E6F0E00E94C42E0E9442
:1031DC00CB2EACE1B0E0A083B183E3E7F5E0ACE942
:1031EC00B1E0A083B183E7E7F5E0A2E1B0E0A08312
:1031FC00B183EBE7F5E0A1E0B0E0A083B1830E94DE
:10320C006B303196E0936B05F0936C050E94703037
:10321C00E0936D05F0936E050E9475300E947A3034
:10322C00A0918105B0918205D29739F40E94893022
:10323C003597E0936F05F0937005A0918305B091DD
:10324C008405D29749F4E0917705F091780535978C
:10325C00E0937705F09378050E948E300E949330AE
:10326C00E2E3F0E00E947635E02139F00E947530FF
:10327C0070960E949D300E947A300E948E300E947F
:10328C00A2300E2EA0918705B09188050E94A73020
:10329C0039F00E947530B0960E949D300E947A30B1
:1032AC000E948E300E9493300E94A73039F00E9409
:1032BC007530F0960E949D300E947A3022960895C7
:1032CC000E94FB2DFA93EA930E94A82D0E94AD3028
:1032DC000E94002E0E94B3300E949C2D0E94C904B3
:1032EC000E94052EFA93EA93E0E3F0E00E94952DFC
:1032FC000E94C904E0918105F09182050E94B330CF
:10330C000E94672E0E94C904E0918305F091840508
:10331C000E94B3300E946C2E0E94C904E091850576
:10332C00F0918605FA93EA93E0E3F0E00E94A12D78
:10333C000E94C904E0918705F09188050E94B33082
:10334C000E94622E0E94C9040E94F62D0E94A12D9B
:10335C000E94622E0E94C9040E94F12DFA93EA93F6
:10336C00E0E2F0E00E94A12D0E94C9040E947A2D97
:10337C000E94952D0E949C2D0E94C9040E94852DAF
:10338C000E94A12D0E94A82D0E94C90408950C2C06
:10339C000D28A1F40E947B2EE0EEF5E00E94C12ED8
:1033AC000E94B630E0EEF5E00E94C5300E94D230AB
:1033BC000E94272E0E942C2E6F01E9CF0E941D2EF9
:1033CC000E94D830EF930E941D2E0E94DE30AF91E8
:1033DC00EA2BA1F7929A0E94D2300E94712E0E9481
:1033EC00E430EF930E94EA300E94E430AF91EA2B74
:1033FC00EF930E94F4300E94E430AF91EA2BEF93EC
:10340C000E94F4300E94FE30AF91EA2B11F40C9420
:10341C00BE1A0E941D2E0E94D830EF930E941D2EC2
:10342C000E94DE30AF91EA2B11F0979AFECF0E94EA
:10343C007B2EE9E0F6E00E94C12E0E94B630E9E056
:10344C00F6E00E94C5300E94D2300E94712E0E947C
:10345C001904E03041F40E947B2EE8E2F6E00E9471
:10346C00C12E0E94D2300E94EA300E941904E03032
:10347C0041F40E94B630E7E4F6E00E94C5300E94A9
:10348C00D2300E94F4300E941904E03041F40E94C2
:10349C007B2EE6E6F6E00E94C12E0E94D2300E94FE
:1034AC00F4300E942E04E03041F40E94B630E5E87E
:1034BC00F6E00E94C12E0E94D2300E941D2E0E9466
:1034CC002E04E13009F4979A0E941D2E0E940431BB
:1034DC00EF930E941D2E0E94FE30AF91EA2BEF93CA
:1034EC000E94712E0E940A31AF91EA2BEF930E9439
:1034FC00EA300E940A31AF91EA2BC9F1979A0E94E7
:10350C001D2E0E942904E13041F40E947B2EE4EA36
:10351C00F6E00E94C12E0E94D2300E941D2E0E9405
:10352C002E04E13041F40E947B2EE6EBF6E00E9483
:10353C00C12E0E94D2300E94712E0E942304E130D1
:10354C0041F40E947B2EE8ECF6E00E94C12E0E9412
:10355C00D2300E94EA300E942304E13041F40E94F0
:10356C007B2EEAEDF6E00E94C12E0E94D23035CFC0
:10357C000E947B2EECEEF6E00E94C12E0E94B6302B
:10358C00ECEEF6E00E94C53092980E94D2300E9478
:10359C0010310E94AD30CC24DD2408950E94EA3015
:1035AC000E942904A0E00E947135EF930E94EA303A
:1035BC000E942E04A0E00E947135AF910E9413313D
:1035CC000E941A31E02131F0E1E0F0E0E093650572
:1035DC00F09366050E94EA300E940431EF930E943A
:1035EC00EA300E94FE30AF910E9413310E94A2304B
:1035FC00E02131F0E2E0F0E0E0936505F093660540
:10360C000E941F31E1E00E947135E02119F01E98F3
:10361C000E942C310E941F31E0E00E947135E021A4
:10362C0019F01E9A0E942C3108951A930A93A091B6
:10363C002105B09122058091230590912405AD338D
:10364C00E0E0BE07E0E08E07E0E09E0714F40C9487
:10365C00771B0E943731F501D4010E948835EF9316
:10366C000E94952E0E94D830EF930E94952E0E94B6
:10367C00DE30AF91EA2BEF930E94952E0E9414043A
:10368C00A1E00E947135AF91EA2BEF930E94952E29
:10369C000E94E430AF91EA2BEF930E94952E0E948A
:1036AC001F04A1E00E947135AF91EA2BEF930E94A9
:1036BC00952E0E940A31AF91EA2BEF930E94952E22
:1036CC000E940431AF91EA2BEF930E94952E0E9439
:1036DC00FE30AF91EA2BAF91EA2319F0F401319649
:1036EC004F01A814B904F1F40E9448068F010E94FE
:1036FC003731F40131964F01E1E0F0E0E017F107CA
:10370C0031F4E2E0F0E00E94B3300E944131E2E09B
:10371C00F0E0E017F10731F4E1E0F0E00E94B330A3
:10372C000E944131F5013196E815F90511F4882410
:10373C0099240991199108950E94712E0E942304D5
:10374C00E13019F4979A1A981B98E0913905F09189
:10375C003A05309711F00C94F81B0E944731E88120
:10376C00E0930905E17011F4D89801C0D89AE09162
:10377C000905E27011F4D99801C0D99AE0910905B4
:10378C00E47011F4DA9801C0DA9AE0910905E87056
:10379C0011F4DB9801C0DB9AE0910905E07111F49A
:1037AC00DC9801C0DC9AE0910905E07211F4DD9817
:1037BC0001C0DD9AE0910905E07411F4DE9801C0B6
:1037CC00DE9AE0910905E07811F4DF9801C0DF9AE8
:1037DC00A881B981A030E1E0BE070CF0949AE1E039
:1037EC00F0E047C0E130A0E0FA0789F4A0911105A0
:1037FC00B091120580911305909114050E945131DE
:10380C002CF0939AE2E0F0E00E94593136C0E2309D
:10381C00A0E0FA0789F40E94712E0E940D04E0309A
:10382C0051F49398E0E0EBBB94980E944731E3E0AD
:10383C00F0E00E94593121C0E330A0E0FA0769F4AE
:10384C000E94712E0E941904E03031F40E9447311D
:10385C00E4E0F0E00E94593110C0E430A0E0FA0737
:10386C0061F40E94712E0E940D04E13031F4E5E008
:10387C00F0E0E0933905F0933A05E0913905F091C9
:10388C003A0576C10E94EA300E942304E13019F413
:10389C00979A1A981B98E0913D05F0913E05309748
:1038AC0011F00C949E1C0E945E31E881E0930A0595
:1038BC00E17011F4A89801C0A89AE0910A05E27091
:1038CC0011F4A99801C0A99AE0910A05E47011F4C9
:1038DC00AA9801C0AA9AE0910A05E87011F4AB9875
:1038EC0001C0AB9AE0910A05E07111F4AC9801C0EB
:1038FC00AC9AE0910A05E07211F4AD9801C0AD9A52
:10390C00E0910A05E07411F4AE9801C0AE9AE09112
:10391C000A05E07811F4AF9801C0AF9AA881B9817B
:10392C00A030E1E0BE070CF0959AE1E0F0E047C072
:10393C00E130A0E0FA0789F4A0911905B0911A05BD
:10394C0080911B0590911C050E9451312CF0969A88
:10395C00E2E0F0E00E94683136C0E230A0E0FA0705
:10396C0089F40E94EA300E940D04E03051F49698DC
:10397C00E0E0E5BB95980E945E31E3E0F0E00E9448
:10398C00683121C0E330A0E0FA0769F40E94EA3004
:10399C000E941904E03031F40E945E31E4E0F0E062
:1039AC000E94683110C0E430A0E0FA0761F40E9474
:1039BC00EA300E940D04E13031F4E5E0F0E0E093F0
:1039CC003D05F0933E05E0913D05F0913E05D0C0DC
:1039DC000E941D2E0E942E04E13019F4979A1A9819
:1039EC001B98E0913B05F0913C05309711F00C943D
:1039FC00441DE881E0930705E1700E2EE09100056F
:103A0C00EE7F0E946D31E695E170EE0F0E2EE09187
:103A1C000005ED7F0E946D31E695E695E170EE0FA5
:103A2C00EE0F0E2EE0910005EB7F0E946D31E695B6
:103A3C00E695E695E170EE0FEE0FEE0F0E2EE0918F
:103A4C000005E77F0E946D31E295E170E795E0E0BB
:103A5C00E7950E2EE0910005EF77E0290E94733177
:103A6C00E0910705E07211F4C79801C0C79A0E9453
:103A7C007831E1E0F0E00E94823176C0E130A0E0E4
:103A8C00FA07A9F4A0911505B091160580911705B8
:103A9C00909118050E9451314CF0E0910005E062C4
:103AAC000E947331E2E0F0E00E9482315DC0E230AE
:103ABC00A0E0FA0721F50E94F4300E940D04E030DA
:103ACC00E9F4E0910005EF7D0E947331E09100056F
:103ADC00EE7F0E948731ED7F0E948731EB7F0E9441
:103AEC008731E77F0E948731EF770E947331C79847
:103AFC000E947831E3E0F0E00E94823135C0E3307F
:103B0C00A0E0FA0769F40E94F4300E941904E03036
:103B1C0031F40E947831E4E0F0E00E94823124C05C
:103B2C00E430A0E0FA0701F50E94F4300E940D0485
:103B3C00E130D1F4E5E0F0E00E948231E0914905FA
:103B4C00F0914A05309739F4E1E0F0E0E093490553
:103B5C00F0934A0509C0E130A0E0FA0729F4E0E04F
:103B6C00E0934905E0934A05E0913B05F0913C0553
:103B7C00229608950E941D2E0E942904E13019F40A
:103B8C00979A1A981B98E0913F05F0914005309751
:103B9C0081F5EA81E0930805E17011F4C09801C049
:103BAC00C09AE0910805E27011F4C19801C0C19A65
:103BBC00E0910805E47011F4C29801C0C29AE0913A
:103BCC000805E87011F4C39801C0C39AE091080588
:103BDC00E07111F41C9801C01C9AE0910805E07288
:103BEC0011F41D9801C01D9A0E948A31E1E0F0E0A9
:103BFC004FC0E130A0E0FA0789F4A0911D05B09107
:103C0C001E0580911F05909120050E9451312CF0CA
:103C1C00C59AE2E0F0E00E9494313EC0E230A0E0B0
:103C2C00FA07A1F40E94F4300E941F04E03069F4FA
:103C3C00C598C098C198C298C3981C981D980E94AA
:103C4C008A31E3E0F0E00E94943126C0E330A0E03A
:103C5C00FA0791F40E94F4300E942E04E03059F4DB
:103C6C00A881B981119709F41A9A0E948A31E4E06B
:103C7C00F0E00E94943110C0E430A0E0FA0761F447
:103C8C000E94F4300E941F04E13031F4E5E0F0E0D2
:103C9C00E0933F05F0934005E0913F05F09140051E
:103CAC002496089568970E94E83520E030E000E003
:103CBC0010E040E050E04B30E0E05E0744F4FA01E5
:103CCC000E9499310E94BC2E4F5F5F4FF4CF0E942F
:103CDC00A0310E94A2300E2E0E94A5310E941A31F2
:103CEC000E94AA310E94BB310E94C53111F40C9480
:103CFC00B71F0E94A031119711F00C94B71FF80157
:103D0C00309749F40E94CF310E94E1310E94AE10ED
:103D1C0001E010E025C1E130A0E0FA07C1F40E94F7
:103D2C00E631159724F40E94272E0E94EB310E9455
:103D3C00EE31159724F40E9410310E94F3310E9449
:103D4C00F63121F00E94033202E010E009C1E230AA
:103D5C00A0E0FA07C1F40E940D32159724F40E94DA
:103D6C00272E0E9412320E941532159724F40E94BD
:103D7C001A320E941F320E94223221F00E94CF314F
:103D8C0003E010E0EDC0E330A0E0FA0789F40E94F4
:103D9C000D32159724F40E942F320E9412320E9489
:103DAC000D32159721F40E94CF3104E010E0D8C0F9
:103DBC00E430A0E0FA0789F40E94E631159724F468
:103DCC000E9470300E9433320E94E631159721F424
:103DDC000E94CF3105E010E0C3C0E530A0E0FA0747
:103DEC0011F00C94751F0E94A82D0E94672E0E9442
:103DFC0036049F01022E032A11F40AE912E00E94F4
:103E0C00363221F00E943D320E94A82E0E9441328F
:103E1C000E22AC85BD850E941A31E02121F00E9452
:103E2C003D320E94A82E0E944A320E22AE85BF85DA
:103E3C000E941A31E02121F00E943D320E94A82EEE
:103E4C000E9453320E22A889B9890E941A31E021AE
:103E5C0021F00E943D320E94A82E0E945C320E225C
:103E6C00AA89BB890E941A31E02121F00E943D32BF
:103E7C000E94A82E0E9465320E22AC89BD890E9438
:103E8C001A31E02121F00E943D320E94A82E0E949E
:103E9C006E320E22AE89BF890E941A31E02121F0C8
:103EAC000E943D320E94A82E0E9477320E22A88DCD
:103EBC00B98D0E941A31E02121F00E943D320E94FE
:103ECC00A82E0E9480320E22AA8DBB8D0E941A3120
:103EDC00E02121F00E943D320E94A82E41C0E63024
:103EEC00A0E0FA0789F40E94E631159724F40E94A9
:103EFC00272E0E94EB310E94E631159721F40E9487
:103F0C00CF3107E010E02CC0E730A0E0FA0779F4DD
:103F1C000E940D32159714F40E9489320E940D32C2
:103F2C00159721F40E94CF3104E010E019C0EA3952
:103F3C00A2E0FA07A9F40E94E631159724F40E9436
:103F4C00272E0E94EB310E94E631159749F40E940E
:103F5C00033204E610E0E0E0E0938905E0938A0583
:103F6C00C8CE0E94A0310E941A310E2E0E94A5319B
:103F7C000E94A2300E94AA310E948E320E9493327B
:103F8C000E220E949832E02111F40C9403210E941D
:103F9C00A531119711F00C940321F801309739F4E5
:103FAC000E94CF310E94A13201E010E025C1E13026
:103FBC00A0E0FA07C1F40E94E631159724F40E94A0
:103FCC00272E0E94EB310E94EE31159724F40E94AB
:103FDC0010310E94F3310E94F63121F00E9403321D
:103FEC0002E010E009C1E230A0E0FA07C1F40E943F
:103FFC000D32159724F40E94E1310E9412320E9476
:10400C001532159724F40E94A7320E941F320E9489
:10401C00223221F00E94CF3103E010E0EDC0E330FA
:10402C00A0E0FA0789F40E940D32159724F40E943F
:10403C00AC320E9412320E940D32159721F40E946C
:10404C00CF3104E010E0D8C0E430A0E0FA0789F4E6
:10405C000E94E631159724F40E9470300E9433328E
:10406C000E94E631159721F40E94CF3105E010E053
:10407C00C3C0E530A0E0FA0711F00C94C1200E94F7
:10408C00A82D0E946C2E0E9436049F01022E032A3A
:10409C0011F40AE912E00E94363221F00E943D32FE
:1040AC000E94A82E0E9441320E22AC85BD850E9432
:1040BC001A31E02121F00E943D320E94A82E0E946C
:1040CC004A320E22AE85BF850E941A31E02121F0C2
:1040DC000E943D320E94A82E0E9453320E22A889C3
:1040EC00B9890E941A31E02121F00E943D320E94D0
:1040FC00A82E0E945C320E22AA89BB890E941A311A
:10410C00E02121F00E943D320E94A82E0E946532CF
:10411C000E22AC89BD890E941A31E02121F00E9447
:10412C003D320E94A82E0E946E320E22AE89BF89AB
:10413C000E941A31E02121F00E943D320E94A82EEB
:10414C000E9477320E22A88DB98D0E941A31E0217F
:10415C0021F00E943D320E94A82E0E9480320E2235
:10416C00AA8DBB8D0E941A31E02121F00E943D32B4
:10417C000E94A82E41C0E630A0E0FA0789F40E9404
:10418C00E631159724F40E94272E0E94EB310E94F1
:10419C00E631159721F40E94CF3107E010E02CC0D6
:1041AC00E730A0E0FA0779F40E940D32159714F469
:1041BC000E9489320E940D32159721F40E94CF3152
:1041CC0004E010E019C0EA39A2E0FA07A9F40E9451
:1041DC00E631159724F40E94272E0E94EB310E94A1
:1041EC00E631159749F40E94033204E610E0E0E052
:1041FC00E0938B05E0938C05CACE0E94EF356E964A
:10420C0008950E947A2D0F010E94F62D0E161F069E
:10421C009CF0E0910005E0640E9473310E94B3327F
:10422C000E94B8320E94AC04E9E6F7E0FA93EA93F4
:10423C000E94B8320E94AC040E94852D0F010E948E
:10424C00F12D0E161F069CF0E0910005E0640E9413
:10425C0073310E94B3320E94BB320E94AC04E4E87A
:10426C00F7E0FA93EA930E94BB320E94AC040895E3
:10427C0024970E94E835E0E0EE83EF830E94A82D9E
:10428C000E94A32E0E9436048F010E94A82D0E942A
:10429C00A82D0E943604AF01E1E0F0E0E017F10731
:1042AC0011F00C941422EE81FF81309739F40E94A6
:1042BC00CF31E1E0F0E0EE83FF83AFC0E130A0E06E
:1042CC00FA07D1F40E94E631159724F40E94272EA8
:1042DC000E94EB310E94EE31159724F40E941031AC
:1042EC000E94F3310E94F63131F00E940332E2E079
:1042FC00F0E0EE83FF8391C0E230A0E0FA07C1F456
:10430C000E940D32159724F40E94BE320E94123284
:10431C000E941532159724F40E94BE320E941F325F
:10432C000E94223221F00E94CF310E94C33275C00C
:10433C00E330A0E0FA0711F00C94EC210E94E63176
:10434C00159724F4E2E0F0E00E9433320E94EE3143
:10435C00159734F4E2E0F0E00E94952D0E94F331C1
:10436C000E94F63191F10E9403320E94A82D0E9406
:10437C00A32E0E943604E887F987309711F1E130BB
:10438C00A0E0FA0719F4E3E0F0E01DC0E230A0E091
:10439C00FA07D9F4E1E0F0E0E0937D05F0937E05B7
:1043AC00E0910005EF7B0E9473310E94742D0E94F6
:1043BC000A2E0E94E1040E94B3320E94B8320E947D
:1043CC00AC04E4E0F0E0EE83FF8327C0E430A0E02F
:1043DC00FA0719F50E94E631159724F40E94272E4E
:1043EC000E94EB310E94EE31159724F40E9410319B
:1043FC000E94F3310E94F63181F00E94CF310E946D
:10440C00272E0E94A82D0E94A32E0E94C904E5E02D
:10441C00F0E0EE83FF8300E010E03ECF0E94A82D79
:10442C000E94A82D0E943604AF01E0E0EE83EF83DA
:10443C00E1E0F0E0E417F50711F00C94E522EE81D1
:10444C00FF81309739F40E94CF31E1E0F0E0EE8348
:10445C00FF83B4C0E130A0E0FA07D1F40E94E6314A
:10446C00159724F40E94272E0E94EB310E94EE3106
:10447C00159724F40E9410310E94F3310E94F631FA
:10448C0031F00E940332E2E0F0E0EE83FF8396C04D
:10449C00E230A0E0FA07C1F40E940D32159724F423
:1044AC000E94BE320E9412320E941532159724F4DB
:1044BC000E94BE320E941F320E94223221F00E94C2
:1044CC00CF310E94C3327AC0E330A0E0FA0711F07A
:1044DC000C94BD220E94E631159724F4E2E0F0E042
:1044EC000E9433320E94EE31159734F4E2E0F0E092
:1044FC000E94952D0E94F3310E94F631B9F10E9471
:10450C0003320E94A82D0E94A82D0E9436049F0100
:10451C00F901309729F4E4E0F0E0EE83FF8326C044
:10452C00E130A0E0FA0719F40E94C3321FC0E23058
:10453C00A0E0FA07D9F4E4E0F0E0EE83FF83E1E0D9
:10454C00F0E0E0937F05F0938005E0910005EF7BB0
:10455C000E9473310E947F2D0E94112E0E94E10453
:10456C000E94B3320E94BB320E94AC0427C0E430DC
:10457C00A0E0FA0719F50E94E631159724F40E9481
:10458C00272E0E94EB310E94EE31159724F40E94E5
:10459C0010310E94F3310E94F63181F00E94CF312C
:1045AC00E5E0F0E0EE83FF830E94272E0E94A82D09
:1045BC000E94A82D0E94C90440E050E039CF0E940F
:1045CC00EF352A960895E0E0EBBBEFEFEABBE0E0B5
:1045DC00E8BBEFEFE7BBE0E0E5BBEFEFE4BBE0E00F
:1045EC00E2BBEFEFE1BBE0E0E3B9EFEFE2B9E0E013
:1045FC00E0936200EFEFE0936100E0E0E093650090
:10460C00EFE1E0936400E0E0E0BFE7E0E3BFE0E06F
:10461C00E2BFE1BFEFBDEEBDEDBDECBDE7BDE6BD5C
:10462C00EBBDEABDE9BDE8BDE0937900E09378000D
:10463C00E5BDE4BDE3BDE0938B00E0938A00E0931D
:10464C008900E0938800E0938100E0938000E09380
:10465C008700E0938600E0938500E0938400E0936C
:10466C008300E0938200E0936A00EABFE9BFE1E0D7
:10467C00E7BFE0E0E0937D00EBB9E8E1EAB9E6E002
:10468C00E0939500E0E0E0939000E8E0E9B9E0E029
:10469C00E0939A00E0E8E8B9E0E0E0BDE6B9EDB9F6
:1046AC00E09374000E94013578940E94C8320E94F5
:1046BC00C8320E94C8320E94C8320E94412DE3E0E9
:1046CC00EA930E94C62BE0E8EA930E94C62BE2E034
:1046DC00EA930E94C62BE0E1EA930E94C62BE1E02C
:1046EC00F0E05F01CC24DD240E94CE32E0E0E093C8
:1046FC006105E09362050E94D5320E94DB3268941A
:10470C0020F821F81E9A22F8E7EBF0E0E093670519
:10471C00F0936805E4E6F0E0E0938105F093820500
:10472C00E0938305F0938405E1E0F0E0E0938505E8
:10473C00F0938605E2E3F0E0E0938705F0938805BB
:10474C00E1E4F0E0E0939305F0939405E0E5F0E00C
:10475C00E0934105F0934205E0E0E0934305E093DC
:10476C004405E0E4F0E0E0934505F0934605E0E015
:10477C00E0934705E09348050E9466190E94CD1905
:10478C000E9429060E941B1B0E94D41A3ADD70DD80
:10479C000E94E1040E94CA0585DA0E942906D6010E
:1047AC000E94A2300E2E0E94BB310E948E32E1E09C
:1047BC00F0E00E947C350E220E94C5311E2E0E9414
:1047CC0098320E2E0E948E320E941A31E029E1217D
:1047DC000E2EA0916105B09162050E94A230E029D5
:1047EC0011F40C94AB2BE0914D05F0914E053097E4
:1047FC0011F00C94CB24C69AE0916105F0916205FE
:10480C00309711F00C9467240E9410310E945D2E99
:10481C000E94C9040E9410310E946C2E0E94C9048F
:10482C000E94272E0E94322E0E94382E0E94A82D04
:10483C000E943D2E0E942C2E0E94442E0E944D2E32
:10484C000E94562E0E94A32E0E94672E0E943604B0
:10485C00E0938105F09382050E94A32E0E946C2E9A
:10486C000E943604E0938305F0938405E0E3F0E0C6
:10487C000E94A12D0E943604E0938505F0938605D5
:10488C000E94A32E0E94622E0E943604E09387059C
:10489C00F09388050E94E1320E2E0E949832E0219E
:1048AC0039F00E94E332E0933705F093380505C0E8
:1048BC00E0E0E0933705E09338050E94E1310E9477
:1048CC00AE10E1E0F0E0E0936105F09362050E9428
:1048DC00E832119789F41E980E940D32159724F432
:1048EC000E94A7320E9412320E941532159724F4AE
:1048FC000E94272E0E941F320E94E832129791F4D8
:10490C000E941B1B0E940D32159724F40E941A3230
:10491C000E9412320E941532159724F40E94E13144
:10492C000E941F320E94223279F10E94E8321297C3
:10493C0059F41E9903C00E94D41AFBCFE8EBFBE09C
:10494C00FA93EA930E9453350E94C8320E94CF31E9
:10495C000E94DB320E94ED320E94E832119741F442
:10496C000E941D2E0E940D04E130D1F30E94F332FF
:10497C000E94E832129741F40E941D2E0E941004EE
:10498C00E130D1F30E94F332DFC6E130A0E0FA0748
:10499C0011F00C941E250E94FA320E94A230E021E4
:1049AC0029F01F9A0E942F320E941F320E94FA3265
:1049BC000E94013339F01F9A0E941B1B0E94AC32DB
:1049CC000E941F320E9407330E9488350E940B33CD
:1049DC00E02121F00E9412330E94F3310E94153322
:1049EC000E9476350E2E0E9407330E947635E02108
:1049FC00F1F00E9419330E941F330E9429330E9448
:104A0C00E832119741F40E941D2E0E940D04E130F2
:104A1C00D1F30E942E330E94E832129741F40E9487
:104A2C001D2E0E941004E130D1F30E942E338CC64F
:104A3C00E230A0E0FA0771F50E94E832129711F407
:104A4C000E941B1B0E94EE31159724F40E943533F3
:104A5C000E94F3310E94EE311597D9F41A9A0E94F4
:104A6C003C330E94E832119741F40E941D2E0E94A3
:104A7C000D04E130D1F30E9442330E94E8321297C8
:104A8C0041F40E941D2E0E941004E130D1F30E94CB
:104A9C0042335AC6E330A0E0FA0711F00C94B1256A
:104AAC000E94E832129711F40E941B1B0E940733DC
:104ABC000E9488350E2E0E94523331F00E948930AC
:104ACC000E94952D0E94F3310E9407330E9464339B
:104ADC000E9468330E948835E021E1F10E946D3319
:104AEC000E943C330E94FB2D0E946833EA17FB079F
:104AFC00C9F40E94E832119741F40E941D2E0E94C5
:104B0C000D04E130D1F30E9475330E94E832129704
:104B1C0041F40E941D2E0E941004E130D1F30E943A
:104B2C00753318C00E94E832119741F40E941D2E73
:104B3C000E940D04E130D1F30E942E330E94E83222
:104B4C00129741F40E941D2E0E941004E130D1F303
:104B5C000E942E33F9C5E430A0E0FA0771F50E94EB
:104B6C00E832129711F40E941B1B0E94EE3115972C
:104B7C0024F40E9412330E94F3310E94EE311597F7
:104B8C00D9F41A980E943C330E94E832119741F4F0
:104B9C000E941D2E0E940D04E130D1F30E947C3343
:104BAC000E94E832129741F40E941D2E0E941004BC
:104BBC00E130D1F30E947C33C7C5E530A0E0FA07A1
:104BCC0011F00C949C260E9488330E949333E021B0
:104BDC0021F00E94272E0E9412320E9488330E94DC
:104BEC00963321F00E94E1310E9412320E94E83289
:104BFC00129711F40E941B1B0E9499330E94763568
:104C0C000E949D330E941A31E02141F00E94193319
:104C1C00E1E0F0E0E0934F05F09350050E949933EA
:104C2C000E94A3330E94A2300E949333E02121F012
:104C3C000E942F320E9412320E9499330E94A33399
:104C4C000E94A2300E94963321F00E94AC320E9446
:104C5C0012320E9499330E94A3330E94013311F047
:104C6C000E9489320E9415330E94A6330E941A3189
:104C7C00E02121F0E3E0F0E00E94AE330E94153316
:104C8C000E94A6330E94A2300E949333E02121F0AF
:104C9C000E941A320E941F320E9415330E94A633C2
:104CAC000E94A2300E94963321F00E94A7320E94EB
:104CBC001F320E9499330E9476350E940B330E22CC
:104CCC00A0914F05B09150050E94A230E0211E2EFC
:104CDC000E9499330E9476350E940B330E22A091CC
:104CEC004F05B09150050E940133E129F1F00E946B
:104CFC0019330E941F330E94B1330E94E83211977E
:104D0C0041F40E941D2E0E940D04E130D1F30E944B
:104D1C00B6330E94E832129741F40E941D2E0E9475
:104D2C001004E130D1F30E94B6330EC5E630A0E09A
:104D3C00FA0711F00C9406270E94E631159724F41B
:104D4C000E9470300E943332A0915D05B0915E05D7
:104D5C00119721F4E5E0F0E00E9494310E94EE31CD
:104D6C00159724F40E9435330E94F3310E94E832E7
:104D7C00129711F40E941B1B0E9407330E94763578
:104D8C000E2E0E94BE330E947635E021C1F10E94A6
:104D9C00C2330E2E0E94E8320E94A230E0211E2E59
:104DAC000E94CE330E2E0E94E8320E940133E1297C
:104DBC0009F01A9AC49A1B9A0E9403320E94D733A4
:104DCC000E94DF3524F40E94DC330E94E6330E94FB
:104DDC00E832119741F40E941D2E0E940D04E1301F
:104DEC00D1F30E94EA330E94E832129741F40E94F8
:104DFC001D2E0E941004E130D1F30E94EA33A4C4AA
:104E0C00E730A0E0FA0711F00C9469270E9499335F
:104E1C000E9488350E2E0E94052EDF010E949332CF
:104E2C00E02121F00E9475300E94FA330E94E83292
:104E3C00129711F40E941B1B0E9499330E94763525
:104E4C000E2E0E94052EA0E0B0E00E947635E029DF
:104E5C00C9F10E941933E0E0E0935705E09358053F
:104E6C000E94052E309731F4E5E0F0E00E945931B4
:104E7C000E94FD33E0E00E942933E0E0E09351050D
:104E8C00E0935205E0935905E0935A05E0935B05D6
:104E9C00E0935C050E94E832119741F40E941D2EAC
:104EAC000E940D04E130D1F30E9404340E94E832D8
:104EBC00129741F40E941D2E0E941004E130D1F390
:104ECC000E94043441C4E830A0E0FA0711F00C94BD
:104EDC00E8280E940B3414F40E941C340E94E8321F
:104EEC00129711F40E941B1B0E9499330E94883563
:104EFC000E2E0E94052E0E942034E02131F0E0910C
:104F0C007505F09176050E94FA330E9499330E9440
:104F1C0076350E2E0E94052E0E942034E02131F0B1
:104F2C000E941933A1E5B5E00E942C340E94052E95
:104F3C00A0915105B09152050E9432340E941A3151
:104F4C00E02121F00E9419330E94FD33A0915D05F0
:104F5C00B0915E05119721F4E5E0F0E00E949431E8
:104F6C000E9407330E943A340E941A310E94423444
:104F7C000E220E94523331F00E9489300E94952DEE
:104F8C000E94F3310E9407330E9464330E946833FD
:104F9C000E9488350E944234E02121F1E0915D05A8
:104FAC00F0915E05309711F40E943C33E0915B0563
:104FBC00F0915C05309749F40E946D33E1E0F0E02C
:104FCC00E0935B05F0935C050DC0E0E0E0935B05BE
:104FDC00E0935C05E0932905E0932A05E0932B050B
:104FEC00E0932C050E94BE330E9448340E941A3173
:104FFC00E02131F0E0917705F09178050E94333291
:10500C000E94BE330E9476350E2E0E94002E0E9406
:10501C0050340E948835E021C9F0E0E00E94B133A1
:10502C00E0915905F0915A05309759F4A3E5B5E094
:10503C000E942C34E1E0F0E0E0935905F0935A051E
:10504C0005C0E0E0E0935905E0935A050E94BE3399
:10505C000E9448340E94A230E02121F00E9470305E
:10506C000E9433320E9407330E943A340E94A230CD
:10507C000E944234E02121F00E9435330E94F3312A
:10508C000E9499330E9488350E2EA0915705B0913D
:10509C0058050E94A230E02131F0E0917905F091A1
:1050AC007A050E94FA330E9407330E9464330E94EF
:1050BC0068330E947635E0211E2EA0915705B091E1
:1050CC005805E1E0F0E00E947C350E2E0E94002E87
:1050DC000E9450340E947C35E029E12141F00E946D
:1050EC003C33E1E0F0E0E0939105F09392050E94EF
:1050FC0055340E2E0E9407330E948835E02121F092
:10510C000E9412330E94F3310E9407330E947635BD
:10511C000E2E0E945534E02129F0E0E0E093910539
:10512C00E09392050E9499330E9432340E94A2307F
:10513C000E220E94FB2D0E9468330E9476350E22AF
:10514C000E94002E0E9450340E9476350E220E943E
:10515C00BE330E9476350E220E9407330E947635AC
:10516C000E944234E02169F1E0E0E0939105E09384
:10517C0092050E94CF31E0E00E942933E0E0E093F9
:10518C005305E0935405E0935105E09352050E94BA
:10519C001C340E94E832119741F40E941D2E0E948B
:1051AC000D04E130D1F30E945A340E94E832129778
:1051BC0041F40E941D2E0E941004E130D1F30E9494
:1051CC005A34C2C2E930A0E0FA0711F00C948629D7
:1051DC000E94E832119771F50E94BE330E94883507
:1051EC000E2E0E94C233E02121F00E94E1310E9478
:1051FC00EB310E9407330E9461340E94693421F024
:10520C000E9412330E94F3310E94BE330E9461341B
:10521C000E946F3421F00E94272E0E94EB310E94D5
:10522C0007330E9461340E94753421F00E941031C2
:10523C000E94F3310E94E8321297A1F50E94BE330E
:10524C000E9488350E2E0E94CE33E02121F00E9460
:10525C00E1310E94EB310E9407330E947B340E94A3
:10526C00693421F00E9412330E94F3310E94BE3344
:10527C000E947B340E946F3421F00E94272E0E94E2
:10528C00EB310E9407330E947B340E94753421F06D
:10529C000E9410310E94F3310E94E832129711F4EF
:1052AC000E941B1B0E94F63151F11A981B98C4984E
:1052BC000E943C33E0E00E94B133A5E5B5E00E94CA
:1052CC002C34E2E0F0E0E0934F05F09350050E949F
:1052DC00E832119741F40E941D2E0E940D04E1301A
:1052EC00D1F30E947F340E94E832129741F40E945D
:1052FC001D2E0E941004E130D1F30E947F3424C291
:10530C00EA30A0E0FA0711F00C94032A0E94E8326C
:10531C000E94A2300E94863469F10E9491340E944E
:10532C005D2E0E94C9040E949634AE17BF0724F468
:10533C000E949C340E94ED320E949634EA17FB07BF
:10534C0021F40E949C340E94A3340E94AA340E942F
:10535C00A73021F0EBE0F0E00E94B7340E94AA34B1
:10536C00EAE0F0E00E947C35E02121F0EEE0F0E094
:10537C000E94B7340E94E832129711F40E941B1B52
:10538C000E94E832E2E0F0E00E9476350E9486341A
:10539C0099F10E9491340E946C2E0E94C9040E94C3
:1053AC00E33231970E94D733AE17BF0724F40E9423
:1053BC009C340E94ED320E94E33231970E94D73325
:1053CC00EA17FB0721F40E949C340E94A3340E942C
:1053DC00BC340E94A73021F0ECE0F0E00E94B7341E
:1053EC000E94BC34EAE0F0E00E947C35E02121F020
:1053FC00EEE0F0E00E94B734A7C1EB30A0E0FA0772
:10540C00A9F50E94E832129711F40E941B1B0E940E
:10541C000D32159724F4E7E0F0E00E94FA330E9475
:10542C001532159724F4E0E9F1E00E94AE330E94A6
:10543C002232D9F00E94E6330E9419330E94C23402
:10544C0041F40E941D2E0E940D04E130D1F30E9404
:10545C00CA340E94E832129741F40E941D2E0E9419
:10546C001004E130D1F30E94CA346EC1EC30A0E0DC
:10547C00FA07A9F50E94E832129711F40E941B1B3F
:10548C000E940D32159724F4E7E0F0E00E94FA3305
:10549C000E941532159724F4E1E9F1E00E94AE3335
:1054AC000E942232D9F00E94E6330E9419330E94E6
:1054BC00C23441F40E941D2E0E940D04E130D1F340
:1054CC000E94CA340E94E832129741F40E941D2EA9
:1054DC000E941004E130D1F30E94CA3435C1ED3082
:1054EC00A0E0FA0761F50E94E832129711F40E94CD
:1054FC001B1B0E941532159724F4E2E9F1E00E947F
:10550C00AE330E9415321597C9F40E941C340E94C8
:10551C00C23441F40E941D2E0E940D04E130D1F3DF
:10552C000E94CD340E94E832129741F40E941D2E45
:10553C000E941004E130D1F30E94CD3405C1EE304D
:10554C00A0E0FA0789F50E94E832129711F40E9444
:10555C001B1B0E940D32159714F40E9489320E9475
:10556C000D32159701F50E9419330E94DC330E940D
:10557C00E832119751F40E941D2E0E940D04E13067
:10558C00D1F3EFE0F0E00E94B7340E94E8321297BA
:10559C0051F40E941D2E0E941004E130D1F3EFE073
:1055AC00F0E00E94B734D0C0EF30A0E0FA0731F53C
:1055BC000E94E832129711F40E941B1B0E94E633E2
:1055CC000E940B34D4F40E941C340E94E8321197D0
:1055DC0041F40E941D2E0E940D04E130D1F30E9473
:1055EC00CD340E94E832129741F40E941D2E0E9485
:1055FC001004E130D1F30E94CD34A6C0E031A0E01C
:10560C00FA0711F00C94862BE0913505F0913605D4
:10561C000E94D7330E9476350E2E0E94D0340E9401
:10562C001A31E02101F10E94DB321F980E948E3268
:10563C000E94DF3574F4E2E0F0E0E0935F05F09354
:10564C0060050E94A132E0E0E0934D05E0934E0529
:10565C0004C0E1E1F0E00E94B734E1E0F0E0E09357
:10566C006305F09364050E94E3320E94D7330E94D5
:10567C0076350E2E0E94E1320E220E94D0340E940A
:10568C00A230E02179F01F980E94DB32E1E1F0E0DA
:10569C000E94B7340E94CE32E2E0F0E0E093630562
:1056AC00F09364050E94D5340E2E0E94E1320E2236
:1056BC000E94D0340E94013351F00E94CE320E94DD
:1056CC00D5321F98C6980E9410310E94AD300E94AE
:1056DC00D5340E2E0E948E320E941A310E220E9458
:1056EC00D0340E94A230E02151F00E94CE320E94B0
:1056FC00D5321E9AC6980E9410310E94AD3024C03B
:10570C00E131A0E0FA0701F50E940D32159724F45F
:10571C000E94A7320E9412320E941532159724F46F
:10572C000E94272E0E941F320E94223269F00E9492
:10573C00CF31E0E0E0936105E0936205CC24DD24F9
:10574C00E0934D05E0934E052AC81CC8FFCFA991E4
:10575C00B991EE27FF276D91662311F03196FBCF9F
:10576C000895AA27BB27E991F9910590002011F023
:10577C001196FBCFFD0108955F9BFECFECB1089510
:10578C005D9BFECFE881ECB921960895EA81EA93FE
:10579C00F7DFA881B9810E942C34239608952697AF
:1057AC000E94E83510E0AC85BD850E94BC2EEA89CC
:1057BC00FB893196EA8BFB8B3197E4912E2FE030ED
:1057CC0011F40C94002DE12FE03039F4253211F452
:1057DC0011E002C00E94DA340CC1E130A9F4253288
:1057EC0019F40E94DA3404C112E040E000E02D32DA
:1057FC0011F401E0FEC02B3211F44BE2FAC020325E
:10580C0011F440E2F6C002C0E23039F450E013E08B
:10581C00203311F40068EDC004C0E33011F00C9497
:10582C00FF2C203310F02A3308F007C0AAE05A9F4F
:10583C00502DE22FE0535E0FDCC0E22FE33649F42B
:10584C000E94E334E889F989A481AA930E94E9347F
:10585C00CFC0E33741F40E94E3340E94F1340E943C
:10586C00AD2B1E2F0AC0E03761F40E94E3340E9476
:10587C00F1340E94B72B1E2F086002600F7730E0C6
:10588C0035C0E43611F0E93611F4046002C0E53796
:10589C0031F4ECE8F0E0EE83FF8315E00DC0E83561
:1058AC0011F4086004C0E83711F00C94FE2CE6E902
:1058BC00F0E0EE83FF8314E002FF14C00E94E33497
:1058CC000E94F934AB85AA233AF4EA85FB850E9441
:1058DC006335EA87FB874DE2403011F01F5F01C052
:1058EC000B7F04C00E94E3340E94F93400FD11C008
:1058FC00151778F407FF08C002FF04C00B7F242F94
:10590C00115001C020E301C020E20E94DA34515052
:10591C00EFCF312F01FF17C03030A1F003FF06C0CD
:10592C00EE81FF812591EE83FF8305C0AE81BF819F
:10593C002D91AE83BF830E94DA34503009F0515060
:10594C003150EACF4BC020E3EE81FF810E94AA3593
:10595C00E887F987EE81FF813296EE83FF83E88535
:10596C00F985AA85BB85AE17BF0750F02F5FA885B8
:10597C00B985EA85FB85EA1BFB0BEA87FB87EFCF32
:10598C002A3328F003FF02C0295F01C0295D04FD02
:10599C001AC0213320F4A885B985119709F409C0E0
:1059AC00531710F000FF01C013C020E207FF0BC01B
:1059BC0020E3006102FF07C00B7F4A930E94E93489
:1059CC00503009F051500E94DA34503009F05150E7
:1059DC003150A885B985129708F0B5CF00FF08C0E3
:1059EC00503031F05150E0E2EA930E94E934F8CFA4
:1059FC0010E0DDCEAC85BD850E949C350E94EF3554
:105A0C0064960895FF92F82E26971A930A93DE0156
:105A1C0014960E945F358D01E0E0EC83ED83EE83FC
:105A2C00EF83DE0118960E945F350E949C350E9420
:105A3C00AD2EECECFBE2FA93EA93FE013896FA9366
:105A4C00EA93ADDE198108812896FF9008950E9493
:105A5C000635E881EA930E943A35E0E0EA930E9429
:105A6C001F35EA830E941535EA810895E295EF709F
:105A7C00E695E6950895EAE5EA930E94C62BE5EAD9
:105A8C00EA930C94C62BEA930E94C62BEC81EA9302
:105A9C000E94C62BEA81EA930C94C62B0E94C22B5F
:105AAC000E94C22B0C94C22B0E94A035EF5FFF4FBB
:105ABC006F4F7F4F0E94A5350895ED91FD91319662
:105ACC00FE93EE93319708950E946C35A03DE9E565
