:100000000C94D8040C9400000C9400000C94000094
:100010000C9400000C9400000C9400000C94000060
:100020000C9400000C9400000C9400000C94000050
:100030000C9400000C9400000C9400000C94000040
:100040000C944F050C9400000C9400000C940000DC
:100050000C9400000C9400000C9400000C94000020
:100060000C9400000C9400000C9400000C94000010
:100070000C9400000C9400000C9400000C94000000
:100080000C9400000C9400000C9400001027E8036E
:1000900064000A00010000100001100001000000CF
:1000A0002020202020202020202020202020202050
:1000B0002020202020202020202020202020202040
:1000C0002020202020202020202020202020202030
:1000D000005A616369736B206E6965207A6D69658A
:1000E000727A6F6E7920752057796B6F6E617763C6
:1000F00079004B6C792077206B696572756E6B7532
:100100002070726177656A207374726F6E79004B2C
:100110006C792077206B696572756E6B75206C65E4
:1001200077656A207374726F6E79004369736E69C4
:10013000656E6965207A61206D616C65202D206D8A
:100140006E69656A737A65206E697A20362062610D
:10015000720038362D303137300038362D3130349A
:10016000330038362D313637350038362D323039B8
:10017000380038372D303137300038372D313034B2
:10018000330038372D313637350038372D32303996
:10019000380038362D303139320038362D3130358F
:1001A000340038362D313637360038362D3231337B
:1001B000320038372D303139320038372D31303573
:1001C000340038372D313637360038372D32313359
:1001D000320038362D303139330038362D31323156
:1001E000360038362D313833320038362D3231373B
:1001F000340038372D303139330038372D31323132
:10020000360038372D313833320038372D32313718
:10021000340038362D303139340038362D3133340E
:10022000310038362D313833330038362D323138FD
:10023000300038372D303139340038372D313334F0
:10024000310038372D313833330038372D323138DB
:10025000300038362D303636330038362D313334D1
:10026000390038362D313833340038362D323230BB
:10027000340038372D303636330038372D313334AB
:10028000390038372D313833340038372D32323099
:10029000340038362D303736380038362D31333586
:1002A000370038362D313834380038362D32323177
:1002B000320038372D303736380038372D31333566
:1002C000370038372D313834380038372D32323155
:1002D000320038362D303830300038362D31333654
:1002E000330038362D313930340038362D3232343F
:1002F000310038372D303830300038372D31333633
:10030000330038372D313930340038372D3232341C
:10031000310038362D303831310038362D31353214
:10032000330038362D313932390038362D323236F5
:10033000310038372D303831310038372D313532F2
:10034000330038372D313932390038372D323236D3
:10035000310038362D303831340038362D313533D0
:10036000300038362D313933360038362D323238B8
:10037000350038372D303831340038372D313533AA
:10038000300038372D313933360038372D32323896
:10039000350038362D303831350038362D31353589
:1003A000310038362D313934310038362D3232387B
:1003B000360038372D303831350038372D31353566
:1003C000310038372D313934310038372D32323859
:1003D000360038362D303831360038362D31353547
:1003E000320038362D323030370038362D3232393F
:1003F000320038372D303831360038372D31353529
:10040000320038372D323030370038372D3232391C
:10041000320038362D303831370038362D3136300D
:10042000320038362D323031370038362D323338FD
:10043000340038372D303831370038372D313630E9
:10044000320038372D323031370038372D323338DB
:10045000340038362D303834370038362D313632C6
:10046000300038362D323031390038362D323338BD
:10047000350038372D303834370038372D313632A3
:10048000300038372D323031390038372D3233389B
:10049000350038362D303835340038362D31363287
:1004A000320038362D323032380038362D3234337F
:1004B000370038372D303835340038372D31363263
:1004C000320038372D323032380038372D3234335D
:1004D000370038362D303836320038362D31363246
:1004E000350038362D323035320038362D32343939
:1004F000320038372D303836320038372D31363229
:10050000350038372D323035320038372D32343916
:10051000320038362D303933350038362D31363407
:10052000380038362D323038320038362D323530FA
:10053000300038372D303933350038372D313634E7
:10054000380038372D323038320038372D323530D8
:10055000300038362D313031390038362D313634CF
:10056000390038362D323038330038362D323538B0
:10057000350038372D313031390038372D313634A8
:10058000390038372D323038330038372D32363293
:10059000340038362D313032370038362D3136368A
:1005A000390038362D323038370038362D32363271
:1005B000340038372D313032370038372D31363668
:1005C000390038372D323038370038372D3235384A
:1005D00035004E69652077637A7974616E6F207A91
:1005E000616369736B75005A6174727A796D616EBB
:1005F0006F202D206E616369736E696A20535441C8
:1006000052542061627920777A6E6F776963005A5D
:10061000616D6B6E696A206F736C6F6E7920676FA6
:10062000726E652069206E616369736E696A20531A
:1006300054415254004E616369736E696A20535489
:1006400041525420616279207779706F7A79636AB8
:100650006F6E6F776163206E6170656479005A61B7
:100660006D6B6E696A206F736C6F6E7920676F7245
:100670006E65004F74776172636965206F736C6F8C
:100680006E2077207472616B63696520706F7A7970
:10069000636A6F6E6F77616E69610057796C616331
:1006A0007A206920776C61637A206D61737A796E44
:1006B00065005A6174727A796D616E696520772080
:1006C0007472616B63696520706F7A79636A6F6EAB
:1006D0006F77616E696100506F7A79636A6F6E75CA
:1006E0006A6520756B6C616479206C696E696F77DF
:1006F000652058595A00537465726F776E696B2084
:1007000033202D207779706F7A79636A6F6E6F77F7
:10071000616C656D00537465726F776E696B203420
:10072000202D207779706F7A79636A6F6E6F7761A9
:100730006C656D00416C61726D20537465726F77EA
:100740006E696B203400416C61726D205374657268
:100750006F776E696B203300537465726F776E69C3
:100760006B2031202D207779706F7A79636A6F6EF4
:100770006F77616C656D00537465726F776E696B2E
:100780002032202D207779706F7A79636A6F6E6FCF
:1007900077616C656D00416C61726D205374657298
:1007A0006F776E696B203100416C61726D205374FC
:1007B00065726F776E696B2032005779706F7A7946
:1007C000636A6F6E6F77616E6F20756B6C616479B1
:1007D000206C696E696F77652058595A004B6F6CB1
:1007E000697A6A6120585920756B6C616475206B59
:1007F00072617A6B61004B6F6C697A6A612058593B
:1008000020756B6C61647520737A637A6F746B69A1
:10081000004B6F6C697A6A61206B72617A6B612040
:100820002D2077796C61637A206920776C61637A17
:10083000206D61737A796E65004B6F6C697A6A61BD
:1008400020737A637A2E206472756369616E656ABB
:10085000202D2077796C61637A206920776C616341
:100860007A206D61737A796E650057796D69656E6E
:1008700020737A637A6F746B652064727563696143
:100880006E610057796D69656E206B72617A656B78
:100890002073636965726E7920646F206B6F72706C
:1008A000757375206F20737265646E696379203388
:1008B000340057796D69656E206B72617A656B20C3
:1008C00073636965726E7920646F206B6F727075E7
:1008D0007375206F20737265646E69637920333697
:1008E0000057796D69656E206B72617A656B207354
:1008F000636965726E7920646F206B6F72707573B7
:1009000075206F20737265646E69637920333800D7
:1009100057796D69656E206B72617A656B207363C0
:100920006965726E7920646F206B6F727075737574
:10093000206F20737265646E6963792034310057CB
:10094000796D69656E206B72617A656B207363697E
:1009500065726E7920646F206B6F7270757375208D
:100960006F20737265646E696379203433002D2DB6
:100970002D2D2D2D2D0057637A7974616A207A61AF
:100980006369736B2074656E2073616D206C756292
:10099000206E6F77790001002D4E414E00494E4682
:1009A0000000010002009E000100BF059609000042
:1009B000F894EE27ECBBF1E0F5BFE5BFE0936C00E7
:1009C000F8E1F1BDE1BD8DE0A2E0BB27ED938A9592
:1009D000E9F780E090E1A0E0B1E0ED930197E9F75D
:1009E000E2EAF9E085919591009761F0A591B591C2
:1009F00005901590BF01F00105900D920197E1F768
:100A0000FB01F0CF8BBFEFEFEDBFE0E1EEBFC0E049
:100A1000D5E00C9404300E94F73923C00E94F739C6
:100A2000E6951FC00E94F739E695E6951AC00E9428
:100A3000F739E695E695E69514C00E94F739E295F8
:100A400010C00E94F739E295EF70E6950AC00E9447
:100A5000F7390E94063A05C00E94F739EE1FE0E020
:100A6000EE1FE170239608950E940B3A0E94103AFF
:100A7000E4E0EA930E949038E3E80E94183AE1E04B
:100A8000EA930E9490380E94233A0E94233A0E94DF
:100A9000233A0E2F1127F801198108815CC06A934F
:100AA0007A93AA93BA93EA93FA93EFB7EA93A3E2FD
:100AB000B5E00E94293AA7E2B5E00E94293AABE2EC
:100AC000B5E00E94293AAFE2B5E00E94293AA3E3DB
:100AD000B5E00E94293AA7E3B5E00E94293AABE3CA
:100AE000B5E00E94293AAFE3B5E00E94293AE991C6
:100AF000EFBFF991E991B991A9917991699118950F
:100B00000E940B3A0E94323A0E9481388F010D5F99
:100B10001F4F0E94103A0A930E949038E2E80E9408
:100B2000183A0E94323A80E00E94D2392296198106
:100B30000881289608950E94103AE5E0EA930E9401
:100B4000373AEA81EA930E9490380E943D3AEC815C
:100B5000EA930E94903826960895A091B305B0912B
:100B6000B405119761F40E94453A0E94453A0E94EB
:100B70004A3AE1DFE0E0E093B305E093B40508957D
:100B800024970E94524600E010E0EE85FF85FA931C
:100B9000EA930E9481388F010D5F1F4FAC85BD85A0
:100BA000119759F420E030E040E550E0E0E5F0E056
:100BB000E887F987E0E0EE83EF83AC85BD85129787
:100BC00059F420E030E040E250E0E0E4F0E0E88773
:100BD000F987E0E0EE83EF830E94103A0A930E94C7
:100BE000373A2A930E9490384A930E949038EE85B3
:100BF000FF85FA93EA9380E00E94D23922960E9400
:100C00004F3A0E94573A31F00E94673AE1EDF0E026
:100C10000E94753A0E944F3A0E94813A31F00E9438
:100C2000673AE2EFF0E00E94753A0E944F3A0E9464
:100C3000893A31F00E94673AEFE0F1E00E94753A9C
:100C40000E94913A0E94813A31F00E94993AEFE075
:100C5000F1E00E94A73A0E94913A0E94893A31F04D
:100C60000E94993AE2EFF0E00E94A73A0E94913A7E
:100C70000E94573A31F00E94993AE1EDF0E00E946B
:100C8000A73A0E945946609608950E94B33A0E947E
:100C9000BD3AEF930E94B33A0E94C33AAF91EA2360
:100CA00041F00E94453A0E94C93AE0934505F0930D
:100CB00046050E94453A0E94CF3A0E94D53A0E94CA
:100CC000DA3A0E94DF3A0E94C93A0E94E63A0E944C
:100CD000453ACADE4F010E944A3A0E94F33A0E9406
:100CE000F93A0E94FF3A0E94453A0E94063B0E9450
:100CF0000C3B0E94113B0E94DA3AB6DE0E94163B82
:100D00000E94113B0E94C93A0E941B3B0E94113B6A
:100D10000E94203B0E94263B0E94113B0E94113BF7
:100D2000A3DE0E942B3B0E94113B0E94F33A0E94DB
:100D3000303B0E94DA3A0E94203BE0939705F09303
:100D400098050E94DA3A0E94113B8EDEE0939905E5
:100D5000F0939A050E94DA3A0E94F33A0E94353BDA
:100D60000E94063BE093A505F093A6050E94453A34
:100D70000E94F33A5F0108950E940B3A002E012A67
:100D800021F50E943A3B63DEE03089F401E010E097
:100D9000E091AF05F091B005309741F40E94443BDB
:100DA000E1E0F0E0E093AF05F093B0050DC000E0A6
:100DB00010E0E0E0E093AF05E093B0050E94443B13
:100DC000EBE2F1E00E94563BD9CF099119910895C9
:100DD0001A930A930E94663B1EDEE1700E2EE0918C
:100DE0000205EE7F0E94703B19DEE170EE0F0E2EC1
:100DF000E0910205ED7F0E94703B14DEE170EE0F82
:100E0000EE0F0E2EE0910205EB7F0E94703B0FDE8D
:100E1000E170EE0FEE0FEE0F0E2EE0910205E77F70
:100E20000E94703B0ADEE170E295E07F0E2EE091B9
:100E30000205EF7E0E94703B04DEE170E295E07FE8
:100E4000EE0F0E2EE0910205EF7D0E94703BFFDD5C
:100E5000E170E295E07FEE0FEE0F0E2EE0910205BD
:100E6000EF7B0E94703BF8DDE170E795E0E0E795ED
:100E70000E2EE0910205EF77E029E09302050E9433
:100E8000743B0E94CF3A8F01A0910205A13061F41A
:100E90000E94793B0E94813BE2E5F1E00E94863BA3
:100EA0000E948B3B0E94913BA0910205A23071F4FD
:100EB0000E94793BE2E0F0E0ED93FC93EAE5F1E09B
:100EC0000E94863B0E94453A0E94983BA0910205F1
:100ED000A33071F40E94793BE3E0F0E0ED93FC93E2
:100EE000E2E6F1E00E94863B0E94453A0E94A13B67
:100EF000A0910205A43071F40E94793BE4E0F0E097
:100F0000ED93FC93EAE6F1E00E94863B0E94453AAD
:100F10000E94A13BA0910205A53071F40E94793B8B
:100F2000E5E0F0E0ED93FC93E2E7F1E00E94863B20
:100F30000E94453A0E94A13BA0910205A63071F49F
:100F40000E94793BE6E0F0E0ED93FC93EAE7F1E004
:100F50000E94863B0E948B3B0E94A43BA09102050D
:100F6000A73071F40E94793BE7E0F0E0ED93FC9349
:100F7000E2E8F1E00E94863B0E948B3B0E94913B9D
:100F8000A0910205A83071F40E94793BE8E0F0E0FE
:100F9000ED93FC93EAE8F1E00E94863B0E948B3BD4
:100FA0000E94913BA0910205A93071F40E94793B07
:100FB000E9E0F0E0ED93FC93E2E9F1E00E94863B8A
:100FC0000E94453A0E94A13BA0910205AA3071F40B
:100FD0000E94793BEAE0F0E0ED93FC93EAE9F1E06E
:100FE0000E94863B0E94453A0E94AB3BA0910205BD
:100FF000AB3071F40E94793BEBE0F0E0ED93FC93B1
:10100000E2EAF1E00E94863B0E94453A0E94AB3B37
:10101000A0910205AC3071F40E94793BECE0F0E065
:10102000ED93FC93EAEAF1E00E94863B0E948B3B41
:101030000E94B43BA0910205AD3071F40E94793B4F
:10104000EDE0F0E0ED93FC93E2EBF1E00E94863BF3
:101050000E948B3B0E94913BA0910205AE3071F43F
:101060000E94793BEEE0F0E0ED93FC93EAEBF1E0D7
:101070000E94863B0E948B3B0E94B43BA0910205DC
:10108000AF3071F40E94793BEFE0F0E0ED93FC9318
:10109000E2ECF1E00E94863B0E948B3B0E94B43B55
:1010A000A0910205A03171F40E94793BE0E1F0E0EB
:1010B000ED93FC93EAECF1E00E94863B0E94453AF6
:1010C0000E94AB3BA0910205A13171F40E94793BD3
:1010D000E1E1F0E0ED93FC93E2EDF1E00E94863B6C
:1010E0000E94453A0E94A13BA0910205A23171F4F1
:1010F0000E94793BE2E1F0E0ED93FC93EAEDF1E050
:101100000E94863B0E94453A0E94983BA0910205AE
:10111000A33171F40E94793BE3E1F0E0ED93FC939D
:10112000E2EEF1E00E94863B0E94453A0E94AB3B12
:10113000A0910205A43171F40E94793BE4E1F0E052
:10114000ED93FC93EAEEF1E00E94863B0E94453A63
:101150000E94983BA0910205A53171F40E94793B51
:10116000E5E1F0E0ED93FC93E2EFF1E00E94863BD5
:101170000E948B3B0E94913BA0910205A63171F425
:101180000E94793BE6E1F0E0ED93FC93EAEFF1E0B9
:101190000E94863B0E948B3B0E94A43BA0910205CB
:1011A000A73171F40E94793BE7E1F0E0ED93FC9305
:1011B000E2E0F2E00E94863B0E948B3B0E94B43B3F
:1011C000A0910205A83171F40E94793BE8E1F0E0BA
:1011D000ED93FC93EAE0F2E00E94863B0E948B3B99
:1011E0000E94A43BA0910205A93171F40E94793BB1
:1011F000E9E1F0E0ED93FC93E2E1F2E00E94863B4E
:101200000E94453A0E94AB3BA0910205AA3171F4BD
:101210000E94793BEAE1F0E0ED93FC93EAE1F2E031
:101220000E94863B0E94453A0E94983BA09102058D
:10123000AB3171F40E94793BEBE1F0E0ED93FC936C
:10124000E2E2F2E00E94863B0E94453A0E94AB3BFC
:10125000A0910205AC3171F40E94793BECE1F0E021
:10126000ED93FC93EAE2F2E00E94863B0E948B3B06
:101270000E94B43BA0910205AD3171F40E94793B0C
:10128000EDE1F0E0ED93FC93E2E3F2E00E94863BB7
:101290000E948B3B0E94B43BA0910205AE3171F4D9
:1012A0000E94793BEEE1F0E0ED93FC93EAE3F2E09B
:1012B0000E94863B0E948B3B0E94A43BA0910205AA
:1012C000AF3171F40E94793BEFE1F0E0ED93FC93D4
:1012D000E2E4F2E00E94863B0E948B3B0E94B43B1A
:1012E000A0910205A03271F40E94793BE0E2F0E0A7
:1012F000ED93FC93EAE4F2E00E94863B0E94453ABB
:101300000E94AB3BA0910205A13271F40E94793B8F
:10131000E1E2F0E0ED93FC93E2E5F2E00E94863B2F
:101320000E948B3B0E94BB3BA0910205A23271F44C
:101330000E94793BE2E2F0E0ED93FC93EAE5F2E013
:101340000E94863B0E94453A0E94A13BA091020563
:10135000A33271F40E94793BE3E2F0E0ED93FC9359
:10136000E2E6F2E00E94863B0E94453A0E94983BEA
:10137000A0910205A43271F40E94793BE4E2F0E00E
:10138000ED93FC93EAE6F2E00E94863B0E94453A28
:101390000E94A13BA0910205A53271F40E94793B05
:1013A000E5E2F0E0ED93FC93E2E7F2E00E94863B99
:1013B0000E94453A0E94C23BA0910205A63271F4F8
:1013C0000E94793BE6E2F0E0ED93FC93EAE7F2E07D
:1013D0000E94863B0E948B3B0E94913BA09102059C
:1013E000A73271F40E94793BE7E2F0E0ED93FC93C1
:1013F000E2E8F2E00E94863B0E948B3B0E94A43B05
:10140000A0910205A83271F40E94793BE8E2F0E075
:10141000ED93FC93EAE8F2E00E94863B0E948B3B4E
:101420000E94913BA0910205A93271F40E94793B80
:10143000E9E2F0E0ED93FC93E2E9F2E00E94863B02
:101440000E948B3B0E94913BA0910205AA3271F44D
:101450000E94793BEAE2F0E0ED93FC93EAE9F2E0E6
:101460000E94863B0E94453A0E94A13BA091020542
:10147000AB3271F40E94793BEBE2F0E0ED93FC9328
:10148000E2EAF2E00E94863B0E94453A0E94A13BBC
:10149000A0910205AC3281F40E94793BECE2F0E0CD
:1014A0000E94C53B0E94C83BEAEAF2E00E94863BEC
:1014B0000E94453A0E94A13BA0910205AD3271F411
:1014C0000E94793BEDE2F0E0ED93FC93E2EBF2E079
:1014D0000E94863B0E94453A0E94A13BA0910205D2
:1014E000AE3271F40E94793BEEE2F0E0ED93FC93B2
:1014F000EAEBF2E00E94863B0E948B3B0E94913B0C
:10150000A0910205AF3271F40E94793BEFE2F0E066
:10151000ED93FC93E2ECF2E00E94863B0E948B3B51
:101520000E94913BA0910205A03381F40E94793B77
:10153000E0E3F0E00E94C53B0E94C83BEAECF2E029
:101540000E94863B0E948B3B0E94913BA09102052A
:10155000A13371F40E94793BE1E3F0E0ED93FC9359
:10156000E2EDF2E00E94863B0E94453A0E94A13BD8
:10157000A0910205A23371F40E94793BE2E3F0E00E
:10158000ED93FC93EAEDF2E00E94863B0E94453A1F
:101590000E94983BA0910205A33371F40E94793B0D
:1015A000E3E3F0E0ED93FC93E2EEF2E00E94863B91
:1015B0000E94453A0E94C23BA0910205A43371F4F7
:1015C0000E94793BE4E3F0E0ED93FC93EAEEF2E075
:1015D0000E94863B0E948B3B0E94A43BA091020587
:1015E000A53371F40E94793BE5E3F0E0ED93FC93C1
:1015F000E2EFF2E00E94863B0E948B3B0E94913B0F
:10160000A0910205A63371F40E94793BE6E3F0E075
:10161000ED93FC93EAEFF2E00E94863B0E948B3B45
:101620000E94A43BA0910205A73371F40E94793B6C
:10163000E7E3F0E0ED93FC93E2E0F3E00E94863B09
:101640000E948B3B0E94BB3BA0910205A83371F422
:101650000E94793BE8E3F0E0ED93FC93EAE0F3E0ED
:101660000E94863B0E94453A0E94983BA091020549
:10167000A93371F40E94793BE9E3F0E0ED93FC9328
:10168000E2E1F3E00E94863B0E94453A0E94983BCB
:10169000A0910205AA3371F40E94793BEAE3F0E0DD
:1016A000ED93FC93EAE1F3E00E94863B0E94453A09
:1016B0000E94A13BA0910205AB3371F40E94793BDB
:1016C000EBE3F0E0ED93FC93E2E2F3E00E94863B73
:1016D0000E94453A0E94AB3BA0910205AC3371F4E5
:1016E0000E94793BECE3F0E0ED93FC93EAE2F3E057
:1016F0000E94863B0E94453A0E94983BA0910205B9
:10170000AD3371F40E94793BEDE3F0E0ED93FC938F
:10171000E2E3F3E00E94863B0E948B3B0E94A43BE5
:10172000A0910205AE3371F40E94793BEEE3F0E044
:10173000ED93FC93EAE3F3E00E94863B0E948B3B2F
:101740000E94913BA0910205AF3371F40E94793B56
:10175000EFE3F0E0ED93FC93E2E4F3E00E94863BDC
:101760000E948B3B0E94B43BA0910205A03471F40F
:101770000E94793BE0E4F0E0ED93FC93EAE4F3E0CF
:101780000E94863B0E948B3B0E94A43BA0910205D5
:10179000A13471F40E94793BE1E4F0E0ED93FC9315
:1017A000E2E5F3E00E94863B0E94453A0E94CD3B71
:1017B000A0910205A23471F40E94793BE2E4F0E0CA
:1017C000ED93FC93EAE5F3E00E94863B0E948B3B9D
:1017D0000E94913BA0910205A33471F40E94793BD1
:1017E000E3E4F0E0ED93FC93E2E6F3E00E94863B55
:1017F0000E948B3B0E94913BA0910205A43471F49E
:101800000E94793BE4E4F0E0ED93FC93EAE6F3E038
:101810000E94863B0E948B3B0E94B43BA091020534
:10182000A53471F40E94793BE5E4F0E0ED93FC937C
:10183000E2E7F3E00E94863B0E948B3B0E94D63B8E
:10184000A0910205A63471F40E94793BE6E4F0E031
:10185000ED93FC93EAE7F3E00E94863B0E94453A51
:101860000E94A13BA0910205A73471F40E94793B2C
:10187000E7E4F0E0ED93FC93E2E8F3E00E94863BBE
:101880000E94453A0E94A13BA0910205A83471F440
:101890000E94793BE8E4F0E0ED93FC93EAE8F3E0A2
:1018A0000E94863B0E94453A0E94AB3BA0910205F4
:1018B000A93471F40E94793BE9E4F0E0ED93FC93E4
:1018C000E2E9F3E00E94863B0E94453A0E94A13B78
:1018D000A0910205AA3471F40E94793BEAE4F0E099
:1018E000ED93FC93EAE9F3E00E94863B0E94453ABF
:1018F0000E94A13BA0910205AB3471F40E94793B98
:10190000EBE4F0E0ED93FC93E2EAF3E00E94863B27
:101910000E94453A0E94A13BA0910205AC3481F49B
:101920000E94793BECE4F0E00E94C53B0E94C83B7A
:10193000EAEAF3E00E94863B0E94453A0E94AB3BF4
:10194000A0910205AD3471F40E94793BEDE4F0E022
:10195000ED93FC93E2EBF3E00E94863B0E948B3B0D
:101960000E94913BA0910205AE3471F40E94793B34
:10197000EEE4F0E0ED93FC93EAEBF3E00E94863BAB
:101980000E948B3B0E94913BA0910205AF3471F401
:101990000E94793BEFE4F0E0ED93FC93E2ECF3E09E
:1019A0000E94863B0E948B3B0E94913BA0910205C6
:1019B000A03581F40E94793BE0E5F0E00E94C53B50
:1019C0000E94C83BEAECF3E00E94863B0E94453A45
:1019D0000E94AB3BA0910205A13571F40E94793BB6
:1019E000E1E5F0E0ED93FC93E2EDF3E00E94863B4D
:1019F0000E94453A0E94CD3BA0910205A23571F4A8
:101A00000E94793BE2E5F0E0ED93FC93EAEDF3E030
:101A10000E94863B0E94453A0E94983BA091020595
:101A2000A33571F40E94793BE3E5F0E0ED93FC937C
:101A3000E2EEF3E00E94863B0E948B3B0E94B43BA7
:101A4000A0910205A43571F40E94793BE4E5F0E031
:101A5000ED93FC93EAEEF3E00E94863B0E948B3B01
:101A60000E94913BA0910205A53571F40E94793B3B
:101A7000E5E5F0E0ED93FC93E2EFF3E00E94863BB6
:101A80000E948B3B0E94D63BA0910205A63571F4C3
:101A90000E94793BE6E5F0E0ED93FC93EAEFF3E09A
:101AA0000E94863B0E948B3B0E94A43BA0910205B2
:101AB000A73571F40E94793BE7E5F0E0ED93FC93E4
:101AC000E2E0F4E00E94863B0E94453A0E94AB3B74
:101AD000A0910205A83571F40E94793BE8E5F0E099
:101AE000ED93FC93EAE0F4E00E94863B0E94453AC5
:101AF0000E94A13BA0910205A93571F40E94793B97
:101B0000E9E5F0E0ED93FC93E2E1F4E00E94863B2E
:101B10000E94453A0E94A13BA0910205AA3571F4AA
:101B20000E94793BEAE5F0E0ED93FC93EAE1F4E012
:101B30000E94863B0E948B3B0E94913BA091020534
:101B4000AB3571F40E94793BEBE5F0E0ED93FC934B
:101B5000E2E2F4E00E94863B0E948B3B0E94B43B91
:101B6000A0910205AC3581F40E94793BECE5F0E0F0
:101B70000E94C53B0E94C83BEAE2F4E00E94863B1B
:101B80000E94453A0E94A13BA0910205AD3571F437
:101B90000E94793BEDE5F0E0ED93FC93E2E3F4E0A5
:101BA0000E94863B0E948B3B0E94913BA0910205C4
:101BB000AE3571F40E94793BEEE5F0E0ED93FC93D5
:101BC000EAE3F4E00E94863B0E94453A0E94A13B72
:101BD000A0910205AF3571F40E94793BEFE5F0E08A
:101BE000ED93FC93E2E4F4E00E94863B0E94453AC8
:101BF0000E94AB3BA0910205A03681F40E94793B84
:101C0000E0E6F0E00E94C53B0E94C83BEAE4F4E055
:101C10000E94863B0E94453A0E94A13BA09102058A
:101C2000A13671F40E94793BE1E6F0E0ED93FC937C
:101C3000E2E5F4E00E94863B0E94453A0E94AB3BFD
:101C4000A0910205A23671F40E94793BE2E6F0E031
:101C5000ED93FC93EAE5F4E00E94863B0E94453A4E
:101C60000E94A13BA0910205A33671F40E94793B2A
:101C7000E3E6F0E0ED93FC93E2E6F4E00E94863BBD
:101C80000E948B3B0E94B43BA0910205A43671F4E4
:101C90000E94793BE4E6F0E0ED93FC93EAE6F4E0A1
:101CA0000E94863B0E94453A0E94A13BA0910205FA
:101CB000A53671F40E94793BE5E6F0E0ED93FC93E4
:101CC000E2E7F4E00E94863B0E948B3B0E94B43B1B
:101CD000A0910205A63671F40E94793BE6E6F0E099
:101CE000ED93FC93EAE7F4E00E94863B0E948B3B75
:101CF0000E94913BA0910205A73671F40E94793BA6
:101D0000E7E6F0E0ED93FC93E2E8F4E00E94863B26
:101D10000E94453A0E94AB3BA0910205A83671F49F
:101D20000E94793BE8E6F0E0ED93FC93EAE8F4E00A
:101D30000E94863B0E948B3B0E94913BA091020532
:101D4000A93671F40E94793BE9E6F0E0ED93FC934B
:101D5000E2E9F4E00E94863B0E94453A0E94983BEB
:101D6000A0910205AA3671F40E94793BEAE6F0E000
:101D7000ED93FC93EAE9F4E00E94863B0E948B3BE2
:101D80000E94A43BA0910205AB3681F40E94793BEE
:101D9000EBE6F0E00E94C53B0E94C83BE2EAF4E0BB
:101DA0000E94863B0E94453A0E94C23BA0910205D8
:101DB000AC3671F40E94793BECE6F0E0ED93FC93D5
:101DC000EAEAF4E00E94863B0E94453A0E94A13B69
:101DD000A0910205AD3671F40E94793BEDE6F0E08A
:101DE000ED93FC93E2EBF4E00E94863B0E948B3B78
:101DF0000E94A43BA0910205AE3671F40E94793B8B
:101E0000EEE6F0E0ED93FC93EAEBF4E00E94863B13
:101E10000E94453A0E94983BA0910205AF3681F49A
:101E20000E94793BEFE6F0E00E94C53B0E94C83B70
:101E3000E2ECF4E00E94863B0E94453A0E94C23BDD
:101E4000A0910205A03771F40E94793BE0E7F0E031
:101E5000ED93FC93EAECF4E00E94863B0E948B3BFE
:101E60000E94913BA0910205A13771F40E94793B39
:101E7000E1E7F0E0ED93FC93E2EDF4E00E94863BB5
:101E80000E94453A0E94A13BA0910205A23771F43D
:101E90000E94793BE2E7F0E0ED93FC93EAEDF4E099
:101EA0000E94863B0E94453A0E94A13BA0910205F8
:101EB000A33771F40E94793BE3E7F0E0ED93FC93E4
:101EC000E2EEF4E00E94863B0E94453A0E94C23B4B
:101ED000A0910205A43771F40E94793BE4E7F0E099
:101EE000ED93FC93EAEEF4E00E94863B0E948B3B6C
:101EF0000E94913BA0910205A53771F40E94793BA5
:101F0000E5E7F0E0ED93FC93E2EFF4E00E94863B1E
:101F10000E948B3B0E94913BA0910205A63771F471
:101F20000E94793BE6E7F0E0ED93FC93EAEFF4E002
:101F30000E94863B0E948B3B0E94913BA091020530
:101F4000A73771F40E94793BE7E7F0E0ED93FC934B
:101F5000E2E0F5E00E94863B0E948B3B0E94BB3B87
:101F6000A0910205A83771F40E94793BE8E7F0E000
:101F7000ED93FC93EAE0F5E00E94863B0E94453A2F
:101F80000E94A13BA0910205A93771F40E94793B00
:101F9000E9E7F0E0ED93FC93E2E1F5E00E94863B97
:101FA0000E94453A0E94A13BA0910205AA3771F414
:101FB0000E94793BEAE7F0E0ED93FC93EAE1F5E07B
:101FC0000E94863B0E94453A0E94A13BA0910205D7
:101FD000AB3771F40E94793BEBE7F0E0ED93FC93B3
:101FE000E2E2F5E00E94863B0E94453A0E94CD3B2A
:101FF000A0910205AC3771F40E94793BECE7F0E068
:10200000ED93FC93EAE2F5E00E94863B0E94453A9C
:102010000E94A13BA0910205AD3771F40E94793B6B
:10202000EDE7F0E0ED93FC93E2E3F5E00E94863B00
:102030000E948B3B0E94913BA0910205AE3771F448
:102040000E94793BEEE7F0E0ED93FC93EAE3F5E0E4
:102050000E94863B0E948B3B0E94913BA09102050F
:10206000AF3771F40E94793BEFE7F0E0ED93FC931A
:10207000E2E4F5E00E94863B0E948B3B0E94D63B47
:10208000A0910205A03871F40E94793BE0E8F0E0ED
:10209000ED93FC93EAE4F5E00E94863B0E948B3BC3
:1020A0000E94913BA0910205A13871F40E94793BF6
:1020B000E1E8F0E0ED93FC93E2E5F5E00E94863B79
:1020C0000E94453A0E94AB3BA0910205A23871F4F0
:1020D0000E94793BE2E8F0E0ED93FC93EAE5F5E05D
:1020E0000E94863B0E94453A0E94A13BA0910205B6
:1020F000A33871F40E94793BE3E8F0E0ED93FC93A0
:10210000E2E6F5E00E94863B0E948B3B0E94BB3BCF
:10211000A0910205A43871F40E94793BE4E8F0E054
:10212000ED93FC93EAE6F5E00E94863B0E94453A77
:102130000E94C23BA0910205A53871F40E94793B30
:10214000E5E8F0E0ED93FC93E2E7F5E00E94863BE2
:102150000E948B3B0E94B43BA0910205A63871F40B
:102160000E94793BE6E8F0E0ED93FC93EAE7F5E0C6
:102170000E94863B0E948B3B0E94913BA0910205EE
:10218000A73871F40E94793BE7E8F0E0ED93FC9307
:10219000E2E8F5E00E94863B0E94453A0E94C23B7D
:1021A000A0910205A83871F40E94793BE8E8F0E0BC
:1021B000ED93FC93EAE8F5E00E94863B0E948B3B9E
:1021C0000E94A43BA0910205A93871F40E94793BBA
:1021D000E9E8F0E0ED93FC93E2E9F5E00E94863B4C
:1021E0000E94453A0E94983BA0910205AA3871F4DA
:1021F0000E94793BEAE8F0E0ED93FC93EAE9F5E030
:102200000E94863B0E948B3B0E94913BA09102055D
:10221000AB3871F40E94793BEBE8F0E0ED93FC936E
:10222000E2EAF5E00E94863B0E948B3B0E94913BD4
:10223000A0910205AC3871F40E94793BECE8F0E023
:10224000ED93FC93EAEAF5E00E94863B0E94453A52
:102250000E94983BA0910205AD3871F40E94793B31
:10226000EDE8F0E0ED93FC93E2EBF5E00E94863BB5
:102270000E948B3B0E94A43BA0910205AE3871F4F2
:102280000E94793BEEE8F0E0ED93FC93EAEBF5E099
:102290000E94863B0E94453A0E94A13BA091020504
:1022A000AF3871F40E94793BEFE8F0E0ED93FC93D6
:1022B000E2ECF5E00E94863B0E94453A0E94A13B79
:1022C000A0910205A03971F40E94793BE0E9F0E0A9
:1022D000ED93FC93EAECF5E00E94863B0E948B3B79
:1022E0000E94BB3BF801099119910895E881F98199
:1022F000ADE1B5E00E94DD3B0E942F46309741F4EE
:102300000E94443BE2EDF5E00E94563B0C94DE193E
:10231000E130A0E0FA0751F4E8ECF0E00E94E23B83
:102320000E94E93B0E94F03B0C94C519E230A0E00A
:10233000FA0771F4E0E1F1E00E94E23B0E94FF3B0A
:102340000E94043C0E94FF3B0E94133C0C94CB195A
:10235000E330A0E0FA0761F4EAE7F0E00E94E23B34
:102360000E94E93B0E94183C0E94213C0C94CB192E
:10237000E430A0E0FA0761F4E2E0F1E00E94E23B21
:102380000E94E93B0E942A3C0E94213C0C94CB19FC
:10239000E530A0E0FA0759F4E0EBF0E00E94E23B00
:1023A0000E94E93B0E94F03B0E94333CF4C7E630B8
:1023B000A0E0FA0759F4EEEFF0E00E94E23B0E9441
:1023C000FF3B0E94043CA0E1B0E0DFC7E730A0E0A3
:1023D000FA0749F4E8E7F0E00E94E23B0E94E93B9B
:1023E0000E94183CCCC7E830A0E0FA0749F4E0ECC2
:1023F000F0E00E94E23B0E94E93B0E942A3CBFC7FA
:10240000E930A0E0FA0769F4E8E1F0E00E94E23B7D
:102410000E94E93B0E942A3C0E94363C0E94333CC9
:10242000BAC7EA30A0E0FA0759F4E6E1F0E00E940A
:10243000E23B0E94E93B0E943D3C0E94213CABC72D
:10244000EB30A0E0FA0759F4E4E7F0E00E94E23B49
:102450000E94E93B0E94463C0E94213C9CC7EC3014
:10246000A0E0FA0749F4E6E9F0E00E94E23B0E94AE
:10247000E93B0E944F3C83C7ED30A0E0FA0759F4D6
:10248000EAE1F0E00E94E23B0E94E93B0E942A3C24
:102490000E94363C7AC7EE30A0E0FA0749F4EEE538
:1024A000F0E00E94E23B0E94E93B0E943D3C67C78E
:1024B000EF30A0E0FA0749F4E4E8F0E00E94E23BE4
:1024C0000E94E93B0E94463C5AC7E031A0E0FA076F
:1024D00049F4E8EBF0E00E94E23B0E94E93B0E94F5
:1024E000583C59C7E131A0E0FA0759F4E0E2F0E0C6
:1024F0000E94E23B0E94E93B0E94F03B0E94333C79
:102500004AC7E231A0E0FA0769F4E8E9F0E00E9486
:10251000E23B0E94FF3B0E94613C0E94FF3B0E9405
:10252000133C39C7E331A0E0FA0759F4EAEAF0E0D6
:102530000E94E23B0E94E93B0E94703C0E94773C73
:102540002AC7E431A0E0FA0769F4E2E4F0E00E946F
:10255000E23B0E94E93B0E94703C0E947A3C0E9450
:10256000333C19C7E531A0E0FA0749F4EEE4F0E0A6
:102570000E94E23B0E94E93B0E94F03B06C7E63125
:10258000A0E0FA0759F4E2ECF0E00E94E23B0E947E
:10259000FF3B0E94613CA0E1B0E0F7C6E731A0E05C
:1025A000FA0759F4EEECF0E00E94E23B0E94E93BAE
:1025B0000E94703CA9E9B1E0E2C6E831A0E0FA0768
:1025C00059F4E0E4F0E00E94E23B0E94E93B0E9403
:1025D000703C0E947A3CD9C6E931A0E0FA0759F470
:1025E000EEE2F0E00E94E23B0E94E93B0E943D3CAB
:1025F0000E94213CD0C6EA31A0E0FA0759F4EAEF84
:10260000F0E00E94E23B0E94E93B0E94833C0E9472
:10261000333CC1C6EB31A0E0FA0749F4ECE6F0E048
:102620000E94E23B0E94E93B0E94583CB4C6EC3158
:10263000A0E0FA0749F4E4EAF0E00E94E23B0E94DD
:10264000E93B0E944F3C9BC6ED31A0E0FA0749F4FC
:10265000EAE2F0E00E94E23B0E94E93B0E943D3C3E
:102660008EC6EE31A0E0FA0749F4E4E9F0E00E94FA
:10267000E23B0E94E93B0E94833C87C6EF31A0E029
:10268000FA0759F4EEE6F0E00E94E23B0E94E93BD3
:102690000E948C3CA9E9B1E072C6E032A0E0FA07E2
:1026A00059F4E6E8F0E00E94E23B0E94E93B0E9418
:1026B0004F3C0E94213C6FC6E132A0E0FA0749F48A
:1026C000EEE8F0E00E94E23B0E94E93BA0E2B0E0CD
:1026D00050C6E232A0E0FA0759F4EAE5F0E00E94C1
:1026E000E23B0E94FF3B0E94933C0E94213C53C668
:1026F000E332A0E0FA0759F4EAEDF0E00E94E23B91
:102700000E94E93B0E949E3C0E94333C44C6E43256
:10271000A0E0FA0759F4E2EAF0E00E94E23B0E94EE
:10272000A53C0E94FF3B0E94133C35C6E532A0E069
:10273000FA0759F4E4E0F1E00E94E23B0E94E93B31
:102740000E94B83C0E94BF3C26C6E632A0E0FA07D1
:1027500049F4E6E3F0E00E94E23B0E94FF3B0E9466
:10276000933C0DC6E732A0E0FA0749F4E8E1F1E056
:102770000E94E23B0E94E93B0E949E3C06C6E83272
:10278000A0E0FA0749F4E6EAF0E00E94E23B0E948A
:10279000A53CA0E1B0E0F9C5E932A0E0FA0759F4A0
:1027A000EEE1F0E00E94E23B0E94E93B0E942A3CFD
:1027B0000E94363CEAC5EA32A0E0FA0759F4ECE59B
:1027C000F0E00E94E23B0E94FF3B0E94C23C0E945C
:1027D000333CE1C5EB32A0E0FA0759F4E2E6F0E061
:1027E0000E94E23B0E94E93B0E948C3C0E94CD3C4F
:1027F000D2C5EC32A0E0FA0719F40E94D03CCBC558
:10280000ED32A0E0FA0769F4E0E1F0E00E94E23B7B
:102810000E94E93B0E942A3C0E94363C0E94333CC5
:10282000BAC5EE32A0E0FA0749F4E0E5F0E00E9414
:10283000E23B0E94FF3B0E94C23CA7C5EF32A0E0F2
:10284000FA0759F4E8E6F0E00E94E23B0E94E93B17
:102850000E948C3CA6E9B1E092C5E033A0E0FA0703
:1028600019F40E94D03C97C5E133A0E0FA0759F46F
:10287000E4E2F0E00E94E23B0E94E93B0E942A3C35
:102880000E94213C88C5E233A0E0FA0759F4E4E154
:10289000F0E00E94E23B0E94E93B0E949E3C0E94C5
:1028A000333C79C5E333A0E0FA0759F4E2E8F0E0FD
:1028B0000E94E23B0E94E93B0E94E63C0E94BF3C32
:1028C0006AC5E433A0E0FA0749F4E6E0F1E00E94CB
:1028D000E23B0E94E93B0E94ED3C57C5E533A0E096
:1028E000FA0749F4ECE4F0E00E94E23B0E94E93B85
:1028F0000E942A3C44C5E633A0E0FA0749F4ECE123
:10290000F0E00E94E23B0E94E93B0E949E3C3DC5F4
:10291000E733A0E0FA0749F4E4E1F1E00E94E23B8A
:102920000E94E93BAAE1B0E024C5E833A0E0FA0741
:1029300059F4EEEEF0E00E94E23B0E94E93B0E9477
:10294000ED3C0E94333C27C5E933A0E0FA0759F477
:10295000E8EFF0E00E94E23B0E94E93B0E94FC3C71
:102960000E94333C18C5EA33A0E0FA0759F4E4EEBC
:10297000F0E00E94E23B0E94E93B0E948C3C0E94F6
:10298000CD3C09C5EB33A0E0FA0759F4E2E5F0E0ED
:102990000E94E23B0E94E93B0E94053D0E94773C79
:1029A000FAC4EC33A0E0FA0779F4E0E9F0E00E9421
:1029B000E23B0E94E93B0E940C3DA0E9B1E00E948D
:1029C000363C0E94333CE7C4ED33A0E0FA0749F4FB
:1029D000ECEFF0E00E94E23B0E94E93B0E94833C66
:1029E000D4C4EE33A0E0FA0759F4E8E2F0E00E9424
:1029F000E23B0E94E93B0E948C3CA6E9B1E0BFC4E7
:102A0000EF33A0E0FA0759F4E4E3F0E00E94E23B80
:102A10000E94E93B0E94053DA9E9B1E0B0C4E03461
:102A2000A0E0FA0749F4ECEEF0E00E94E23B0E94DD
:102A3000E93B0E94FC3CA9C4E134A0E0FA0759F448
:102A4000ECECF0E00E94E23B0E94E93B0E94133D67
:102A50000E94213CA0C4E234A0E0FA0759F4ECEB58
:102A6000F0E00E94E23B0E94E93B0E94053D0E948B
:102A70001C3D8BC4E334A0E0FA0759F4ECE9F0E024
:102A80000E94E23B0E94E93B0E94053DA6E9B1E0BD
:102A900076C4E434A0E0FA0749F4ECE7F0E00E94E1
:102AA000E23B0E94E93B0E944F3C69C4E534A0E050
:102AB000FA0749F4E2EDF0E00E94E23B0E94E93BB4
:102AC0000E94133D5CC4E634A0E0FA0769F4E6EE28
:102AD000F0E00E94E23B0E94E93B0E94053D0E941B
:102AE0001C3D0E94333C57C4E734A0E0FA0759F478
:102AF000E4EBF0E00E94E23B0E94E93B0E94053DCE
:102B00000E94CD3C48C4E834A0E0FA0759F4ECEA4E
:102B1000F0E00E94E23B0E94E93B0E944F3C0E9491
:102B2000213C39C4E934A0E0FA0769F4E2E1F0E0BD
:102B30000E94E23B0E94FF3BE3E8F5E00E94E63C96
:102B40000E94CD3C28C4EA34A0E0FA0759F4E2EB35
:102B5000F0E00E94E23B0E94E93B0E942A3C0E9476
:102B6000213C19C4EB34A0E0FA0759F4ECE0F1E0A1
:102B70000E94E23B0E94E93B0E94B83C0E94CD3C8F
:102B80000AC4EC34A0E0FA0719F40E94D03C03C454
:102B9000ED34A0E0FA0769F4E6E2F0E00E94E23BDF
:102BA0000E94FF3BE3E8F5E00E94E63CA6E9B1E0C5
:102BB000E6C3EE34A0E0FA0759F4ECE1F1E00E943C
:102BC000E23B0E94E93B0E941F3DA6E9B1E0D7C36A
:102BD000EF34A0E0FA0759F4E2E1F1E00E94E23BB1
:102BE0000E94E93B0E94B83CA6E9B1E0C8C3E035C9
:102BF000A0E0FA0719F40E94D03CCDC3E135A0E073
:102C0000FA0759F4EAEEF0E00E94E23B0E94E93B49
:102C10000E94263D0E94213CBEC3E235A0E0FA0797
:102C200059F4E8EDF0E00E94E23B0E94E93B0E948B
:102C30002F3D0E94213CAFC3E335A0E0FA0769F4C1
:102C4000ECE8F0E00E94E23B0E94E93BA2E2B0E047
:102C50000E94383DA9E9B1E092C3E435A0E0FA074B
:102C600059F4E0EAF0E00E94E23B0E943D3D0E9400
:102C7000463DA0E1B0E089C3E535A0E0FA0749F49C
:102C8000EEEAF0E00E94E23B0E94E93B0E94263D12
:102C900076C3E635A0E0FA0749F4E6EFF0E00E94DB
:102CA000E23B0E94E93B0E942F3D69C3E735A0E06B
:102CB000FA0759F4E4ECF0E00E94E23B0E94E93BA1
:102CC0000E944D3D0E94773C66C3E835A0E0FA07BC
:102CD00069F4EEE7F0E00E94E23B0E943D3D0E9475
:102CE000463D0E94FF3B0E94133C55C3E935A0E0DE
:102CF000FA0759F4ECE2F0E00E94E23B0E94E93B63
:102D00000E940C3D0E94CD3C46C3EA35A0E0FA0784
:102D100049F4E0EFF0E00E94E23B0E94E93B0E94B0
:102D2000F03B33C3EB35A0E0FA0759F4E8EAF0E0F2
:102D30000E94E23B0E94E93B0E948C3CA9E9B1E081
:102D40001EC3EC35A0E0FA0719F40E94D03C23C35F
:102D5000ED35A0E0FA0759F4E0E3F0E00E94E23B31
:102D60000E94E93B0E940C3DA6E9B1E008C3EE35A4
:102D7000A0E0FA0759F4E4EFF0E00E94E23B0E9481
:102D8000E93B0E94F03B0E94333C05C3EF35A0E0D5
:102D9000FA0749F4EEE9F0E00E94E23B0E94E93BC9
:102DA0000E94583CF8C2E036A0E0FA0719F40E94ED
:102DB000D03CF1C2E136A0E0FA0759F4EAE6F0E0CF
:102DC0000E94E23B0E94E93B0E944F3C0E94213C52
:102DD000E2C2E236A0E0FA0769F4EEEBF0E00E940E
:102DE000E23B0E94E93B0E94183C0E94503D0E9439
:102DF000333CD1C2E336A0E0FA0759F4EAEBF0E045
:102E00000E94E23B0E94E93B0E941F3DA9E9B1E01C
:102E1000B6C2E436A0E0FA0759F4E0E6F0E00E941A
:102E2000E23B0E94E93B0E942A3C0E94213CB3C243
:102E3000E536A0E0FA0749F4E0E7F0E00E94E23B63
:102E40000E94E93B0E944F3C9AC2E636A0E0FA0796
:102E500059F4EAE8F0E00E94E23B0E94E93B0E945C
:102E6000183C0E94503D91C2E736A0E0FA0759F4A1
:102E7000E0E8F0E00E94E23B0E94E93B0E941F3D37
:102E80000E94773C88C2E836A0E0FA0749F4E6EBF6
:102E9000F0E00E94E23B0E94E93B0E942A3C6FC2A4
:102EA000E936A0E0FA0769F4E4E4F0E00E94E23BCE
:102EB0000E94E93B0E94573D0E947A3C0E94333CAD
:102EC0006AC2EA36A0E0FA0749F4EAE3F0E00E94B9
:102ED000E23B0E94E93B0E949E3C57C2EB36A0E0D9
:102EE000FA0719F40E94D03C56C2EC36A0E0FA076B
:102EF00069F4E6ECF0E00E94E23B0E94E93B0E94AC
:102F0000053D0E941C3D0E94333C45C2ED36A0E0C9
:102F1000FA0759F4EAE0F0E00E94E23B0E94FF3B2E
:102F20000E94043CA0E1B0E030C2EE36A0E0FA0717
:102F300059F4E2E3F0E00E94E23B0E94E93B0E9488
:102F40009E3C0E94333C27C2EF36A0E0FA0719F4FA
:102F50000E94D03C20C2E037A0E0FA0759F4E2EE2C
:102F6000F0E00E94E23B0E94E93B0E94053D0E9486
:102F70001C3D0BC2E137A0E0FA0769F4E4EDF0E094
:102F80000E94E23B0E94E93B0E945A3D0E941C3D88
:102F90000E94333C00C2E237A0E0FA0779F4EAE489
:102FA000F0E00E94E23B0E94FF3B0E945D3D0E94D8
:102FB000463DAFE0B0E00E94333CEDC1E337A0E016
:102FC000FA0769F4E6E7F0E00E94E23B0E94603D08
:102FD000ACE9B1E00E94363C0E94333CDCC1E437EE
:102FE000A0E0FA0759F4E2E9F0E00E94E23B0E9417
:102FF000E93B0E94B83CA6E9B1E0C1C1E537A0E0D9
:10300000FA0759F4EAE1F1E00E94E23B0E94E93B51
:103010000E945A3D0E941C3DB8C1E637A0E0FA0765
:1030200059F4E6E5F0E00E94E23B0E94FF3B0E947B
:103030005D3D0E941C3DA9C1E737A0E0FA0759F4A5
:10304000E2E7F0E00E94E23B0E94603DACE9B1E0C3
:103050000E94363C9AC1E837A0E0FA0759F4E0ED47
:10306000F0E00E94E23B0E94E93B0E94B83C0E94D3
:10307000CD3C91C1E937A0E0FA0769F4E8E4F0E05B
:103080000E94E23B0E94FF3B0E945D3D0E941C3D6E
:103090000E94333C80C1EA37A0E0FA0759F4EAE91C
:1030A000F0E00E94E23B0E94E93B0E941F3D0E942B
:1030B000CD3C71C1EB37A0E0FA0769F4E6E4F0E03B
:1030C0000E94E23B0E94FF3B0E94673D0E946C3DD4
:1030D0000E94333C60C1EC37A0E0FA0789F4E0EECF
:1030E000F0E00E94E23B0E94753DA5E1B0E00E9445
:1030F000383D0E94463DA3E1B0E00E94333C4BC105
:10310000ED37A0E0FA0759F4E8E3F0E00E94E23B73
:103110000E94E93B0E941F3D0E941C3D36C1EE37D4
:10312000A0E0FA0759F4EAECF0E00E94E23B0E94CA
:10313000E93B0E941F3DA6E9B1E021C1EF37A0E0C5
:10314000FA0759F4EEEDF0E00E94E23B0E94FF3BEB
:103150000E94673D0E946C3D18C1E038A0E0FA076C
:1031600069F4E6E1F1E00E94E23B0E94FF3BE3E804
:10317000F5E00E94183C0E947C3D07C1E138A0E0C8
:10318000FA0779F4E8EEF0E00E94E23B0E94753D18
:103190000E94833DA9E9B1E00E947C3D0E94333C3E
:1031A000FAC0E238A0E0FA0769F4E2EFF0E00E942A
:1031B000E23B0E94863D0E94463D0E94FF3B0E94EA
:1031C000133CE9C0E338A0E0FA0749F4E8E0F1E095
:1031D0000E94E23B0E94E93BAFE1B0E0CAC0E438A4
:1031E000A0E0FA0759F4E4E6F0E00E94E23B0E9416
:1031F000E93B0E94053D0E94BF3CCDC0E538A0E000
:10320000FA0769F4E8E8F0E00E94E23B0E94753DAD
:103210000E94833DA9E9B1E00E947C3DB6C0E6383A
:10322000A0E0FA0759F4EEE0F1E00E94E23B0E94D0
:10323000863D0E94463DA0E1B0E0A7C0E738A0E08F
:10324000FA0759F4E4E5F0E00E94E23B0E94E93B12
:103250000E94573D0E94BF3C9EC0E838A0E0FA079C
:1032600079F4EEE3F0E00E94E23B0E94FF3BE3E8EA
:10327000F5E00E94833D0E948D3DA0E1B0E085C055
:10328000E938A0E0FA0759F4ECE0F0E00E94E23BF4
:103290000E94E93B0E949E3C0E94333C7CC0EA387D
:1032A000A0E0FA0759F4ECEDF0E00E94E23B0E9446
:1032B000FF3BE3E8F5E00E94F03B67C0EB38A0E09D
:1032C000FA0759F4E8E5F0E00E94E23B0E94E93B8E
:1032D0000E945A3DA6E9B1E052C0EC38A0E0FA07DE
:1032E00079F4ECE3F0E00E94E23B0E94FF3B0E9495
:1032F000673D0E948D3D0E94FF3B0E94133C4BC0E6
:10330000ED38A0E0FA0749F4EEE0F0E00E94E23B7D
:103310000E94E93B0E949E3C38C0EE38A0E0FA07CC
:1033200069F4EAE0F1E00E94E23B0E94FF3BE3E83F
:10333000F5E00E94F03B0E94333C2DC0EF38A0E046
:10334000FA0759F4E2E2F0E00E94E23B0E94E93B16
:103350000E945A3D0E94CD3C1EC0E039A0E0FA0711
:1033600069F5E6E6F0E00E94E23B0E94E93BACE151
:10337000B0E0A083B183E5E8F5E0ACE9B1E0A0837B
:10338000B183E9E8F5E0A2E1B0E0A083B183EDE824
:10339000F5E0A1E0B0E0A083B1830E94943D3196B6
:1033A000E0937D05F0937E050E94993DE0937F05B3
:1033B000F09380050E949E3D0E94A33D0E94B23D75
:1033C00021F40E94B73D0E94BC3D0E94C13D29F0FE
:1033D0000E94B73D35970E94BC3D0E94B73D36978D
:1033E0000E94BC3D0E94CD3D3697E0937F05F0934F
:1033F0008005D4010E94D23D0E94D83D0E94DD3D4F
:10340000E02939F00E94E23D3597E0938905F09379
:103410008A050E94E73D989739F40E94993D73967A
:10342000E0938305F09384050E94EC3D0E94DD3D0E
:103430000E94F13D0E94F93D0E94F13D39F00E9449
:103440009E3D70960E94FF3D0E94A33D0E94043E57
:103450000E94F13D39F00E949E3DB0960E94FF3DD2
:103460000E94A33D0E940A3E0E94F13D39F00E9455
:103470009E3DF0960E94FF3D0E94A33D0E94EC3DC0
:103480000E94DD3D0E94103E39F00E949E3DF9965B
:103490000E94FF3D0E94A33D0E94F93D0E94103E04
:1034A00041F00E949E3DEE5BFF4F0E94FF3D0E9457
:1034B000A33D0E94043E0E94103E41F00E949E3DAA
:1034C000E55BFF4F0E94FF3D0E94A33D0E940A3E24
:1034D0000E94103E41F00E949E3DEC5AFF4F0E9418
:1034E000FF3D0E94A33DAEC20E940B3AA0913F0552
:1034F000B091400580914105909142050E94183E8F
:1035000014F40C94D61AE0E0E0933F05E0934005F4
:10351000E0934105E09342050E94B33A0E941205F0
:10352000E03001F50E94453A0E94453A0E94203E53
:103530001A9B02C00E94283E1B9B02C00E94303E84
:103540000E94383E11F40E943D3E0E94443BE7EE4B
:10355000F5E00E94563B0E94533EE7EEF5E00E94E4
:10356000653EDACF979B22C0002E012A61F40E94AB
:10357000B33A0E941205E13029F40E94453A0E94B4
:10358000C93A8F01F1CF0E94443B0E94533E0E94F2
:10359000753E11F40E947C3E0E94833E11F40E940D
:1035A000893E0E94903E11F40E94963EB4C00E9453
:1035B0000B3A0E94B13E0E94DD3D0E94B63EE021E2
:1035C00011F40C94331B0E94B33A0E940B05E130B6
:1035D00001F50E94453A0E94453A0E94203E1A9BFE
:1035E00002C00E94283E1B9B02C00E94303E0E94E7
:1035F000383E11F40E943D3E0E94443BEFE0F6E06D
:103600000E94563B0E94533EEFE0F6E00E94653E6A
:10361000DACF979B28C0002E012A91F40E94B33A7A
:103620000E94BD3AEF930E94B33A0E94C33AAF9111
:10363000EA2329F00E94453A0E94C93A8F01EBCF54
:103640000E94443B0E94533E0E94753E11F40E942A
:103650007C3E0E94833E11F40E94893E0E94903E6F
:1036600011F40E94963E0E94BC3E0E94B63EE021AC
:1036700011F40C948B1B0E94B33A0E940E05E130AA
:1036800001F50E94453A0E94453A0E94203E1A9B4D
:1036900002C00E94283E1B9B02C00E94303E0E9436
:1036A000383E11F40E943D3E0E94443BEFE0F6E0BC
:1036B0000E94563B0E94533EEFE0F6E00E94653EBA
:1036C000DACF979B28C0002E012A91F40E94B33ACA
:1036D0000E94BD3AEF930E94B33A0E94C33AAF9161
:1036E000EA2329F00E94453A0E94C93A8F01EBCFA4
:1036F0000E94443B0E94533E0E94753E11F40E947A
:103700007C3E0E94833E11F40E94893E0E94903EBE
:1037100011F40E94963E0991199108950E94103A61
:103720000E94C23EE0EA05C00E94103A0E94C23EDA
:10373000E0E5EA930E949038E0E0EA930E94903836
:10374000E0E0EA930E949038EE810E94183A0E94CD
:103750003D3AEAE0EA930E94903828960895E8817D
:10376000F981309769F5E2E0F0E02F01E6E0F0E062
:103770003F01E1E0F0E05F0188249924E6E9F0E010
:103780006F01E4E6F0E0E0930B05F0930C05E0E058
:10379000E0931705E0931805E0930D05E0930E05FF
:1037A000E0930F05E0931005E0931105E0931205F7
:1037B000E0931305E0931405E0931505E0931605D7
:1037C0005A924A920E94DA3A0E94D23E0E949B0587
:1037D0000E94D73E0E94453A0E94DA3A0E94D23EA9
:1037E0000E94DE3E0E94453A0E94DA3A0E94D23E92
:1037F0000E94E13E7A926A920E94743B0E94E93EE6
:103800000E94EE3E0E944A3A0E94743B0E94E93EAA
:103810000E94DE3E0E944A3A0E94743B0E94E93EAA
:103820000E94E13E9A928A920E94DA3A0E94453AB8
:103830000E94EE3E0E94743B0E94DA3A0E94453A92
:103840000E94DE3E0E94743B0E94DA3A0E94453A92
:103850000E94E13EBA92AA920E94453A0E94F13E2D
:103860000E94EE3E0E94DA3A0E94453A0E94F13EE2
:103870000E94DE3E0E94DA3A0E94453A0E94F13EE2
:103880000E94E13EDA92CA920E944A3A0E94F13EB8
:103890000E94EE3E0E94D23E0E944A3A0E94F13EB1
:1038A0000E94DE3E0E94D23E0E944A3A0E94F13EB1
:1038B0000E94E13E0E94F63E0E94FB3E0E944A3A70
:1038C0000E94EE3E0E94FE3E0E944A3A0E94DE3E68
:1038D0000E94FE3E0E944A3A0E94E13E0E94013F41
:1038E0000E94E93E0E94EE3E0E94113B0E94453A32
:1038F0000E94E93E0E94DE3E0E94113B0E94453A32
:103900000E94E93E0E94E13E0E94083F0E94D23D93
:103910000E94083FE2E2F0E00E940946E029B1F08F
:103920000E940D3F0E94DA3A0E94EE3E0E94F13E54
:103930000E94113B0E94DA3A0E94DE3E0E94F13E54
:103940000E94113B0E94DA3A0E94E13E0E94143F1D
:103950000E94083FE4E2F0E00E940946E02991F06D
:103960000E94163F0E94D23E0E94EE3E0E941D3FE2
:103970000E94D23E0E94DE3E0E941D3F0E94D23E27
:103980000E94E13E0E94143F0E94083FE6E2F0E000
:103990000E940946E029B1F00E94223F0E94293F7F
:1039A0000E94EE3E0E94E93E0E94113B0E94293F88
:1039B0000E94DE3E0E94E93E0E94113B0E94293F88
:1039C0000E94E13E0E94143F0E94083FE9E2F0E0BD
:1039D0000E940946E029B1F00E942E3F0E94113B4F
:1039E0000E94353F0E94453A0E94113B0E94113BC4
:1039F0000E94383F0E94453A0E94113B0E94113BB1
:103A00000E94E13E0E94143F0E94083FEBE2F0E07A
:103A10000E940946E029B1F00E94413F0E94F13E18
:103A20000E94353F0E944A3A0E94113B0E94F13E9B
:103A30000E94383F0E944A3A0E94113B0E94F13E88
:103A40000E94E13E229608950E94D73E0E94453A88
:103A50000E94DA3A0E94D23E0E94483F0E944A3AAF
:103A60000E94743B0E94E93E0E94483F0E94743BC2
:103A70000E94DA3A0E94453A0E94E13EE8ECF0E00A
:103A80000E944B3F0E94D23E0E944A3A0E94F13E61
:103A90000E94483F0E94FE3E0E944A3A0E94483FD0
:103AA0000E94113B0E94453A0E94E93E0E94483F15
:103AB0000E94F13E0E94113B0E94DA3A0E94483F68
:103AC0000E941D3F0E94D23E0E94483F0E94E93E54
:103AD0000E94113B0E94293F0E94E13E0E944A3A07
:103AE0000E94453A0E94113B0E94113B0E94E13E18
:103AF0000E944A3A0E944A3A0E94113B0E94F13EBB
:103B00000E94483F0E94DA3A0E94453A0E94F13EE4
:103B10000E94E13EE0918F05F09190050E94FB3EEE
:103B20000E94293F0E949B05E0919105F09192052A
:103B30000E94FB3E0E94113B0E949B05E091930571
:103B4000F09194050E94503F0E944A3A0E949B05C2
:103B5000E0919505F09196050E94FB3E0E94F13E92
:103B60000E949B05E8E2F0E00E94503F0E94F13E77
:103B70000E949B05E1E9F0E00E94503F0E94533F04
:103B80000E949B050E94583F0E94533F0E94D23ED4
:103B90000E949B050895E0914505F09146053097F8
:103BA000B9F40E94443BE5E3F6E00E94563B0E94D4
:103BB000533EE5E3F6E00E94653EE8EEF3E00E9446
:103BC0004B3F0E94C93AE0934505F0934605E3CF89
:103BD0000E94B33A0E945D3FEF930E94B33A0E9465
:103BE000633FAF91EA2B69F00E94443BEEE5F6E0BB
:103BF0000E94563B0E94533EEEE5F6E00E94653E71
:103C0000E7CFC49A0E94693FC69A0E946F3F0E9404
:103C1000793FEF930E946F3F0E947F3FAF91EA2B65
:103C200011F40C949F1E0E94B33A0E945D3FEF93E3
:103C30000E94B33A0E94633FAF91EA2B99F00E9431
:103C4000853FE3E7F6E00E94563B0E94533E0E9408
:103C50008A3F0E94453A0E94453A0E94D23E0E9405
:103C60009B05EDCF0E94B33A0E941205E03099F413
:103C70000E94853FE2EBF6E00E94563B0E94533ED5
:103C80000E948A3F0E94453A0E94453A0E94D23ED5
:103C90000E949B05EDCF0E94443BE7EDF6E00E94B9
:103CA000563B0E94533EE7EDF6E00E94653E0E94BF
:103CB000693F0E946F3F0E941705E03041F40E9467
:103CC000443BE6EFF6E00E94563B0E94693F0E94AB
:103CD0006F3F0E942C05E03041F40E94533EE5E125
:103CE000F7E00E94563B0E94693F0E94B33A0E944F
:103CF0008D3FEF930E94B33A0E947F3FAF91EA2B32
:103D0000E9F0979A0E94B33A0E942705E13041F406
:103D10000E94443BE4E3F7E00E94563B0E94693F67
:103D20000E94B33A0E942C05E13041F40E94443BCA
:103D3000E6E4F7E00E94563B0E94693F66CFC498D4
:103D4000929A0E94693F0E943A3B0E94793FEF930A
:103D50000E94933F0E94793FAF91EA2B11F40C949B
:103D6000411F0E94B33A0E945D3FEF930E94B33A15
:103D70000E94633FAF91EA2BB9F0979AC6980E94D0
:103D8000443BE3E7F6E00E94563B0E94533E0E940C
:103D90008A3FC49892980E94453A0E94453A0E94F0
:103DA000D23E0E949B05E9CF0E94B33A0E941205C1
:103DB000E03099F40E94853FE2EBF6E00E94563B2A
:103DC0000E94533E0E948A3F0E94453A0E94453A13
:103DD0000E94D23E0E949B05EDCF0E94443BE7ED3E
:103DE000F6E00E94563B0E94533EE7EDF6E00E944B
:103DF000653E0E94693F0E943A3B0E941705E030F1
:103E000041F40E94443BE8E5F7E00E94563B0E94E3
:103E1000693F0E94933F0E941705E03041F40E94E1
:103E2000533EE7E7F7E00E94653E0E94693F0E942B
:103E30003A3B0E949D3FEF930E94933F0E949D3F1B
:103E4000AF91EA2BE9F0979A0E943A3B0E94210534
:103E5000E13041F40E94443BE6E9F7E00E94563B22
:103E60000E94693F0E94933F0E942105E13041F486
:103E70000E94443BE8EAF7E00E94563B0E94693FFB
:103E800062CF0E94443BEAEBF7E00E94563B0E945F
:103E9000533EEAEBF7E00E94653E9298C698E8EE42
:103EA000F3E00E944B3F0E94453A0E94D23E0E949E
:103EB000A33F08950E94B33A0E94BD3AEF930E9437
:103EC000B33A0E94C33AAF91EA2311F40C94AD1FA8
:103ED0000E94933F0E942705A0E00E940446EF93B2
:103EE0000E94933F0E942C05A0E00E940446AF91DF
:103EF0000E94AB3F0E94B23F31F0E1E0F0E0E0937E
:103F00007705F09378050E94933F0E948D3FEF93D1
:103F10000E94933F0E947F3FAF910E94AB3F0E945F
:103F2000DD3DE02131F0E2E0F0E0E0937705F09351
:103F300078050E94B83FE1E00E940446E02119F0B4
:103F40001E980E94C53F0E94B83FE0E00E940446D0
:103F5000E02119F01E9A0E94C53F08951A930A9312
:103F6000A0913305B09134058091350590913605C7
:103F70000E94183E14F40C9404200E94D03F0E942A
:103F8000DA3F0E941B46EF930E94663B0E945D3F12
:103F9000EF930E94663B0E94633FAF91EA2BEF9341
:103FA0000E94663B0E941205A1E00E940446AF9168
:103FB000EA2BEF930E94663B0E94793FAF91EA2B78
:103FC000EF930E94663B0E941D05A1E00E940446FB
:103FD000AF91EA2BEF930E94663B0E949D3FAF9109
:103FE000EA2BEF930E94663B0E948D3FAF91EA2B34
:103FF000EF930E94663B0E947F3FAF91EA2BAF9107
:10400000EA2311F00E94E33F0E94DA3FEA17FB0720
:1040100039F40E94E8068F010E94D03F0E94E33FDE
:10402000E0911B05F0911C053196A0911905B09106
:104030001A05EA17FB07D1F5E1E0F0E0E017F10718
:1040400041F40E94453A0E94453A0E94113B0E9469
:104050009B05D8010E94EB3F0E2E0E94F03F0E946C
:10406000B23F41F00E94453A0E94453A0E944A3AC6
:104070000E949B05D8010E94EB3F0E94B63EE021C2
:1040800031F0E1E0F0E0E093B305F093B405E0E057
:10409000E0931905E0931A050E94F03F119731F45F
:1040A000E1E0F0E0E093B105F093B20509911991D8
:1040B00008950E943A3B0E942105E13079F40E9464
:1040C000F53F0E94443BEDEDF7E00E94563B0E9415
:1040D000533EEDEDF7E00E94653EF3CF0E94F03FC6
:1040E000119711F40E940040E0914B05F0914C05AE
:1040F000309711F00C94C1200E940440E881E093B5
:104100000905E17011F4D89801C0D89AE091090529
:10411000E27011F4D99801C0D99AE0910905E470D0
:1041200011F4DA9801C0DA9AE0910905E87011F407
:10413000DB9801C0DB9AE0910905E07111F4DC988D
:1041400001C0DC9AE0910905E07211F4DD9801C02C
:10415000DD9AE0910905E07411F4DE9801C0DE9A61
:10416000E0910905E07811F4DF9801C0DF9AA88199
:10417000B981A030E1E0BE070CF0949AE1E0F0E0F4
:1041800047C0E130A0E0FA0789F4A0912305B0917F
:10419000240580912505909126050E940E402CF063
:1041A000939AE2E0F0E00E94164036C0E230A0E0D0
:1041B000FA0789F40E943A3B0E940B05E03051F463
:1041C0009398E0E0EBBB94980E940440E3E0F0E0B9
:1041D0000E94164021C0E330A0E0FA0769F40E9473
:1041E0003A3B0E941705E03031F40E940440E4E0BD
:1041F000F0E00E94164010C0E430A0E0FA0761F43D
:104200000E943A3B0E940B05E13031F4E5E0F0E01A
:10421000E0934B05F0934C05E0914B05F0914C0574
:104220009AC10E94933F0E942105E13079F40E94D7
:10423000F53F0E94443BE6EFF7E00E94563B0E94A8
:10424000533EE6EFF7E00E94653EF3CF0E94F03F59
:10425000119711F40E940040E0914F05F091500534
:10426000309711F00C9479210E941B40E881E09373
:104270000A05E17011F4A89801C0A89AE0910A0516
:10428000E27011F4A99801C0A99AE0910A05E470BE
:1042900011F4AA9801C0AA9AE0910A05E87011F4F5
:1042A000AB9801C0AB9AE0910A05E07111F4AC98AB
:1042B00001C0AC9AE0910A05E07211F4AD9801C01A
:1042C000AD9AE0910A05E07411F4AE9801C0AE9A7F
:1042D000E0910A05E07811F4AF9801C0AF9AA88187
:1042E000B981A030E1E0BE070CF0959AE1E0F0E082
:1042F00047C0E130A0E0FA0789F4A0912B05B09106
:104300002C0580912D0590912E050E940E402CF0D9
:10431000969AE2E0F0E00E94254036C0E230A0E04C
:10432000FA0789F40E94933F0E940B05E03051F494
:104330009698E0E0E5BB95980E941B40E3E0F0E032
:104340000E94254021C0E330A0E0FA0769F40E94F2
:10435000933F0E941705E03031F40E941B40E4E0D7
:10436000F0E00E94254010C0E430A0E0FA0761F4BC
:104370000E94933F0E940B05E13031F4E5E0F0E04C
:10438000E0934F05F0935005E0914F05F0915005F3
:10439000E2C00E94B33A0E942C05E13079F40E94F9
:1043A000F53F0E94443BE1E1F8E00E94563B0E9449
:1043B000533EE1E1F8E00E94653EF3CF0E94F03FFA
:1043C000119711F40E940040E0914D05F0914E05C7
:1043D000309711F00C943122E881E0930705E170E9
:1043E0000E2EE0910005EE7F0E942A40E695E170D6
:1043F000EE0F0E2EE0910005ED7F0E942A40E6951B
:10440000E695E170EE0FEE0F0E2EE0910005EB7FCA
:104410000E942A40E695E695E695E170EE0FEE0FD4
:10442000EE0F0E2EE0910005E77F0E942A40E295F4
:10443000E170E795E0E0E7950E2EE0910005EF775B
:10444000E0290E943040E0910705E07211F4C7981E
:1044500001C0C79A0E943540E1E0F0E00E943F4071
:1044600076C0E130A0E0FA07A9F4A0912705B09149
:1044700028058091290590912A050E940E404CF054
:10448000E0910005E0620E943040E2E0F0E00E942E
:104490003F405DC0E230A0E0FA0721F50E946F3F87
:1044A0000E940B05E030E9F4E0910005EF7D0E94E9
:1044B0003040E0910005EE7F0E944440ED7F0E9475
:1044C0004440EB7F0E944440E77F0E944440EF77E6
:1044D0000E943040C7980E943540E3E0F0E00E941F
:1044E0003F4035C0E330A0E0FA0769F40E946F3F17
:1044F0000E941705E03031F40E943540E4E0F0E01E
:104500000E943F4024C0E430A0E0FA0701F50E9479
:104510006F3F0E940B05E130D1F4E5E0F0E00E942E
:104520003F40E0915B05F0915C05309739F4E1E0A4
:10453000F0E0E0935B05F0935C0509C0E130A0E09A
:10454000FA0729F4E0E0E0935B05E0935C05E09175
:104550004D05F0914E05229608950E94B33A0E94AF
:104560002705E13079F40E94F53F0E94443BE9E3DE
:10457000F8E00E94563B0E94533EE9E3F8E00E94B7
:10458000653EF3CF0E94F03F119711F40E94004066
:10459000E0915105F0915205309749F5EA81E09399
:1045A0000805E17011F4C09801C0C09AE0910805B7
:1045B000E27011F4C19801C0C19AE0910805E4705D
:1045C00011F4C29801C0C29AE0910805E87011F494
:1045D000C39801C0C39AE0910805E07111F41C98DA
:1045E00001C01C9A0E944740E1E0F0E049C0E13080
:1045F000A0E0FA0789F4A0912F05B09130058091D1
:104600003105909132050E940E402CF0C59AE2E0EF
:10461000F0E00E94514038C0E230A0E0FA0799F47F
:104620000E946F3F0E941D05E03061F4C598C0985C
:10463000C198C298C3981C980E944740E3E0F0E0FC
:104640000E94514021C0E330A0E0FA0769F40E94C3
:104650006F3F0E942C05E03031F40E944740E4E0B7
:10466000F0E00E94514010C0E430A0E0FA0761F48D
:104670000E946F3F0E941D05E13031F4E5E0F0E05B
:10468000E0935105F0935205E0915105F0915205E8
:104690002496089568970E94524620E030E000E09A
:1046A00010E040E050E04B30E0E05E0744F4FA01F7
:1046B0000E9456400E94C83B4F5F5F4FF4CFE1E934
:1046C000F0E0E093A305F093A4050E94DA3A0E947B
:1046D000CF3AE093A305F093A405A091A305B09170
:1046E000A405A139E0E0BE0761F0E091A305F091D7
:1046F000A405E0931F05F0932005E0932105F093B6
:1047000022050E9459400E94DD3D0E2E0E945E400F
:104710000E9463400E9469400E9479400E94834049
:10472000EF930E94B33A0E94BD3AAF91EA23EF9310
:104730000E94B33A0E94C33AAF91EA2311F40C9459
:10474000E6240E945940119711F00C94E624F801D8
:10475000309759F40E94583F0E948D400E94583F64
:104760000E94761101E010E030C1E130A0E0FA07CC
:10477000D1F40E94A240159724F40E94453A0E9469
:10478000A7400E94AA40159734F40E94453A0E941F
:10479000453A0E94AF400E94B24021F00E94BF40C3
:1047A00002E010E012C1E230A0E0FA07C1F40E947A
:1047B000C940159724F40E94453A0E94CE400E94B9
:1047C000D140159724F40E94D6400E94DB400E94FD
:1047D000DE4021F00E94EB4003E010E0F6C0E33041
:1047E000A0E0FA0789F40E94C940159724F40E94BA
:1047F000F5400E94CE400E94C940159721F40E94C6
:10480000EB4004E010E0E1C0E430A0E0FA0789F4F6
:104810000E94A240159724F40E94993D0E94F940FD
:104820000E94A240159721F40E94EB4005E010E0A1
:10483000CCC0E530A0E0FA0711F00C94A3240E944C
:10484000B33A0E94BD3AEF930E94B33A0E94C33A32
:10485000AF91EA2311F40C94A2240E94DA3A0E9448
:10486000203B9F01022E032A11F40AE912E0D9012C
:104870000E94EB3F0E2E0E94893A21F00E94FC40DC
:104880000E94813B0E9400410E22AC85BD850E94A2
:10489000B23F21F00E94FC400E94813B0E940941EE
:1048A0000E22AE85BF850E94B23F21F00E94FC40DF
:1048B0000E94813B0E9412410E22A889B9890E9460
:1048C000B23F21F00E94FC400E94813B0E941B41AC
:1048D0000E22AA89BB890E94B23F21F00E94FC40AF
:1048E0000E94813B0E9424410E22AC89BD890E9416
:1048F000B23F21F00E94FC400E94813B0E942D416A
:104900000E22AE89BF890E94B23F21F00E94FC4076
:104910000E94813B0E9436410E22A88DB98D0E94D3
:10492000B23F21F00E94FC400E94813B0E943F4127
:104930000E22AA8DBB8D0E94B23F21F00E94FC4046
:104940000E94813B42C0E630A0E0FA0789F40E9451
:10495000A240159724F40E94453A0E94A7400E9465
:10496000A240159721F40E94EB4007E010E02DC013
:10497000E730A0E0FA0779F40E94C940159714F4D3
:104980000E9448410E94C940159721F40E94EB40C3
:1049900004E010E01AC0EA39A2E0FA07B1F40E947C
:1049A000A240159724F40E94453A0E94A7400E9415
:1049B000A240159751F40E94BF4004E610E0E0E0E9
:1049C000E0939705E0939805C698BBCE0E945940A6
:1049D0000E94D23D0E945E400E94DD3D0E220E9458
:1049E00069400E944D410E9452410E945841E0217D
:1049F000EF930E94B33A0E94BD3AAF91EA23EF933E
:104A00000E94B33A0E94C33AAF91EA2311F40C9486
:104A100050260E945E40119711F00C945026F80128
:104A2000309759F40E9461410E948D400E9461417B
:104A30000E94761101E010E032C1E130A0E0FA07F7
:104A4000D1F40E94A240159724F40E94453A0E9496
:104A5000A7400E94AA40159734F40E94453A0E944C
:104A6000453A0E94AF400E94B24021F00E94BF40F0
:104A700002E010E014C1E230A0E0FA07C1F40E94A5
:104A8000C940159724F40E94583F0E94CE400E94CE
:104A9000D140159724F40E9466410E94DB400E9499
:104AA000DE4021F00E94EB4003E010E0F8C0E3306C
:104AB000A0E0FA0789F40E94C940159724F40E94E7
:104AC0006B410E94CE400E94C940159721F40E947C
:104AD000EB4004E010E0E3C0E430A0E0FA0789F422
:104AE0000E94A240159724F40E94993D0E94F9402B
:104AF0000E94A240159721F40E94EB4005E010E0CF
:104B0000CEC0E530A0E0FA0711F00C940D260E940B
:104B1000B33A0E94BD3AEF930E94B33A0E94C33A5F
:104B2000AF91EA2311F40C940C260E94DA3A0E9409
:104B3000113B0E9434059F01022E032A11F40AE959
:104B400012E0D9010E94EB3F0E2E0E94893A21F01B
:104B50000E94FC400E94813B0E9400410E22AC85D5
:104B6000BD850E94B23F21F00E94FC400E94813B23
:104B70000E9409410E22AE85BF850E94B23F21F0FE
:104B80000E94FC400E94813B0E9412410E22A88993
:104B9000B9890E94B23F21F00E94FC400E94813BF3
:104BA0000E941B410E22AA89BB890E94B23F21F0BC
:104BB0000E94FC400E94813B0E9424410E22AC894D
:104BC000BD890E94B23F21F00E94FC400E94813BBF
:104BD0000E942D410E22AE89BF890E94B23F21F072
:104BE0000E94FC400E94813B0E9436410E22A88D0B
:104BF000B98D0E94B23F21F00E94FC400E94813B8F
:104C00000E943F410E22AA8DBB8D0E94B23F21F02F
:104C10000E94FC400E94813B42C0E630A0E0FA07BF
:104C200089F40E94A240159724F40E94453A0E94FC
:104C3000A7400E94A240159721F40E94EB4007E094
:104C400010E02DC0E730A0E0FA0779F40E94C940D7
:104C5000159714F40E9448410E94C940159721F409
:104C60000E94EB4004E010E01AC0EA39A2E0FA0723
:104C7000B1F40E94A240159724F40E94453A0E9484
:104C8000A7400E94A240159751F40E94BF4004E63D
:104C900010E0C698E0E0E0939905E0939A05B9CE5C
:104CA0000E9459466E9608950E947241AC15BD054A
:104CB000A4F00E9477410E947B410E94293F0E94FC
:104CC000453A0E948005EAE6F8E0FA93EA930E94EA
:104CD000293F0E94453A0E9480050E94F63E0E94AC
:104CE0008041AE17BF0794F00E9477410E947B413C
:104CF0000E94D23E0E94453A0E948005E3E8F8E017
:104D00000E9485410E94453A0E9480050E94F63E1D
:104D10000E948841AE17BF0794F00E9477410E941D
:104D20007B410E94D23E0E94453A0E948005E2EB00
:104D3000F8E00E9485410E94453A0E9480050E9449
:104D4000F63E0E948D41AE17BF0794F00E94774156
:104D50000E947B410E94D23E0E94453A0E948005FB
:104D6000E1EEF8E00E9485410E94453A0E948005EC
:104D70000E94F63E0E949241AE17BF0794F00E9437
:104D800077410E947B410E94D23E0E94453A0E9498
:104D90008005E0E1F9E00E9485410E94453A0E94C9
:104DA00080050E94F63E0E949741AE17BF0794F01F
:104DB0000E9477410E947B410E94D23E0E94453A68
:104DC0000E948005EFE3F9E00E9485410E94453A88
:104DD0000E948005089524970E945246E0E0EE83E9
:104DE000EF830E94B33A0E94BD3AEF930E94B33A18
:104DF0000E94C33AAF91EA2371F00E94DA3A0E940E
:104E0000743B0E9434058F010E94DA3A0E94DA3A1C
:104E10000E943405AF01E1E0F0E0E017F10711F086
:104E20000C940028EE81FF81309741F40E94EB4002
:104E3000C69AE1E0F0E0EE83FF83E1C0E130A0E05C
:104E4000FA07E1F40E94A240159724F40E94453A23
:104E50000E94A7400E94AA40159734F40E94453A48
:104E60000E94453A0E94AF400E94B24031F00E9439
:104E7000BF40E2E0F0E0EE83FF83C1C0E230A0E09B
:104E8000FA07C1F40E94C940159724F40E949C417E
:104E90000E94CE400E94D140159724F40E949C416C
:104EA0000E94DB400E94DE4021F00E94EB400E9405
:104EB000A141A5C0E330A0E0FA0711F00C94D5277A
:104EC0000E94A240159724F4E2E0F0E00E94F9402D
:104ED0000E94AA40159734F40E9461410E94453A0D
:104EE0000E94AF400E94B24011F40C94D4270E945B
:104EF000BF400E94DA3A0E94743B0E943405E88762
:104F0000F987309779F40E94B33A0E94BD3AEF9343
:104F10000E94B33A0E94C33AAF91EA2311F00E9473
:104F2000A64142C0E130A0E0FA0721F40E94A1416D
:104F3000C6983AC0E230A0E0FA07B1F5E09100056A
:104F4000EF7B0E943040E0E0E0931705E093180506
:104F50000E94013F0E94E93E0E94EE3E0E94113BEA
:104F60000E94453A0E94E93E0E94DE3E0E94113BAB
:104F70000E94453A0E94E93E0E94E13E0E947B4128
:104F80000E94293F0E94453A0E9480050E94B33A40
:104F90000E94BD3AEF930E94B33A0E94C33AAF9188
:104FA000EA2311F00E94A6412AC0E430A0E0FA07EB
:104FB00031F50E94A240159724F40E94453A0E94C0
:104FC000A7400E94AA40159734F40E94453A0E94D7
:104FD000453A0E94AF400E94B24089F00E94EB40E7
:104FE0000E94453A0E94DA3A0E94743B0E949B0557
:104FF000C698E5E0F0E0EE83FF8300E010E00BCF21
:10500000E1E0F0E0E417F50711F00C947629EE8169
:10501000FF81309741F40E94EB40C69AE1E0F0E056
:10502000EE83FF8362C1E130A0E0FA07E1F40E9461
:10503000A240159724F40E94453A0E94A7400E947E
:10504000AA40159734F40E94453A0E94453A0E94BE
:10505000AF400E94B24031F00E94BF40E2E0F0E079
:10506000EE83FF8342C1E230A0E0FA07C1F40E9460
:10507000C940159724F40E949C410E94CE400E9492
:10508000D140159724F40E949C410E94DB400E946D
:10509000DE4021F00E94EB400E94A14126C1E33096
:1050A000A0E0FA0711F00C944B290E94A24015973A
:1050B00024F4E2E0F0E00E94F9400E94AA40159733
:1050C00034F40E9461410E94453A0E94AF400E9420
:1050D000B24011F40C944A290E94BF400E94DA3A6F
:1050E0000E94DA3A0E9434059F01F901309779F461
:1050F0000E94B33A0E94BD3AEF930E94B33A0E94D5
:10510000C33AAF91EA2311F00E94A641C3C0E13037
:10511000A0E0FA0721F4C698E3E0F0E0B9C0E2307D
:10512000A0E0FA0711F00C944A29E0910005EF7B0A
:105130000E9430400E94AC419297D9F4E0E0E093A5
:105140000D05E0930E050E940D3F0E94DA3A0E9481
:10515000EE3E0E94F13E0E94113B0E94DA3A0E940C
:10516000DE3E0E94F13E0E94113B0E94DA3A0E940C
:10517000E13E0E94AC419497B9F4E0E0E0930F0562
:10518000E09310050E94163F0E94D23E0E94EE3E20
:105190000E941D3F0E94D23E0E94DE3E0E941D3FA3
:1051A0000E94D23E0E94E13E0E94AC419697D9F403
:1051B000E0E0E0931105E09312050E94223F0E9477
:1051C000293F0E94EE3E0E94E93E0E94113B0E9450
:1051D000293F0E94DE3E0E94E93E0E94113B0E9450
:1051E000293F0E94E13E0E94AC419997D9F4E0E04A
:1051F000E0931305E09314050E942E3F0E94113B9B
:105200000E94353F0E94453A0E94113B0E94113B8B
:105210000E94383F0E94453A0E94113B0E94113B78
:105220000E94E13E0E94AC419B97D9F4E0E0E093FC
:105230001505E09316050E94413F0E94F13E0E9431
:10524000353F0E944A3A0E94113B0E94F13E0E9463
:10525000383F0E944A3A0E94113B0E94F13E0E9450
:10526000E13E0E947B410E94D23E0E94453A0E944C
:1052700080050E94B33A0E94BD3AEF930E94B33A70
:105280000E94C33AAF91EA2329F0C69AE4E0F0E025
:10529000EE83FF832AC0E430A0E0FA0731F50E94D4
:1052A000A240159724F40E94453A0E94A7400E940C
:1052B000AA40159734F40E94453A0E94453A0E944C
:1052C000AF400E94B24089F00E94EB40E5E0F0E080
:1052D000EE83FF830E94453A0E94DA3A0E94DA3A4E
:1052E0000E949B05C69840E050E08ACE0E94594635
:1052F0002A9608950E94B14114F40E94C2410E946E
:10530000B13E129711F40E94AE1F0E94C64111F4E3
:105310000E94CC410E94CF410E94D3410E94D841BB
:1053200021F00E949E3D0E94DD410E94CF410E94DB
:10533000E04121F00E94E4410E94EA410E94CF41F5
:105340000E94F141E02111F00E9401420E94CF41F0
:105350000E940642E02121F00E94E4410E94164290
:105360000E941E42E02121F00E94E4410E942B4253
:105370000E94CF410E943242E02111F00E943A4245
:105380000E94CF410E943F42E02121F00E94E4416F
:105390000E9447420E944E420E9452420E94634035
:1053A0000E945A420E9463400E945F4231F00E9474
:1053B000B73D0E9471420E94AF400E944E420E943F
:1053C00075420E947E4269F00E94834211F40E945D
:1053D00089420E948F4219F40E94954202C00E94A5
:1053E000A3420E94B1420E94B5420E9463400E94C3
:1053F000BD4221F00E94E23D0E94F9400E94B1426C
:105400000E94C2420E94CB4251F00E94CF420E94B1
:10541000D54219F40E94DB4202C00E94E9420E9478
:10542000B1420E94B5420E94DD3DE02121F00E9480
:10543000993D0E94F9400E944E420E9452420E94B1
:10544000DD3D0E94EF4221F00E94F2420E94AF40F7
:105450000E94B1420E94C2420E94F74221F00E9483
:10546000CF420E940C430E9413430E2E0E94B14271
:105470000E941B46E02121F00E94583F0E94A74055
:105480000E94B1420E941843E02119F00E941C437F
:105490001B980E944E420E9475420E94224329F0AE
:1054A0001A980E9489420E942E430E9435430E2E74
:1054B0000E944E420E941B46E02131F00E94583F5C
:1054C0000E94453A0E94AF400E944E420E943743DC
:1054D000E02119F00E943B431A980E9441430E9428
:1054E00047430E944B430E944F430E9457430E94F0
:1054F000594341F00E941C430E943B430E94EB40F1
:105500000E94634308950E94B14114F40E94C24175
:105510000E94B13E129711F40E94AE1F0E94C64134
:1055200011F40E94CC410E94CF410E94D3410E94BD
:10553000D84121F00E949E3D0E94DD410E94CF4152
:105540000E94E04121F00E94E4410E94EA410E9451
:10555000CF410E94F141E02111F00E9401420E94DE
:10556000CF410E940642E02121F00E94E4410E94C6
:1055700016420E941E42E02121F00E94E4410E9456
:105580002B420E94CF410E943242E02111F00E9442
:105590003A420E94CF410E943F42E02121F00E9406
:1055A000E4410E9447420E944E420E9452420E94A1
:1055B00063400E9457430E945F4231F00E94B73D12
:1055C0000E9471420E94AF400E944E420E9475426A
:1055D0000E947E42C9F00E94834211F40E948942D7
:1055E0000E948F4271F40E947C4309F41A980E9431
:1055F00095420E9481434A165B0611F40E94CC41F9
:1056000003C01A9A0E94A3420E94B1420E94B5426E
:105610000E9463400E94BD4221F00E94E23D0E9430
:10562000F9400E94B1420E94C2420E94CB4251F016
:105630000E94CF420E94D54219F40E94DB4202C070
:105640000E94E9420E94B1420E94B5420E94DD3DA3
:10565000E02121F00E94993D0E94F9400E944E42B3
:105660000E9452420E94DD3D0E94EF4231F00E94B2
:10567000CD3D0E9486430E94AF400E94B1420E94ED
:10568000C2420E94F74221F00E94CF420E940C4386
:105690000E9413430E2E0E94B1420E941B46E0213D
:1056A00021F00E94583F0E94A7400E94B1420E94F0
:1056B0001843E02119F00E941C431B980E944E429F
:1056C0000E9475420E94224329F01A980E94894242
:1056D0000E942E430E9435430E2E0E944E420E948D
:1056E0001B46E02131F00E94583F0E94453A0E943B
:1056F000AF400E944E420E943743E02119F00E94C1
:105700003B431A980E9441430E9447430E944B43E7
:105710000E944F430E9457430E94594341F00E9408
:105720001C430E943B430E94EB400E946343089548
:105730000E94B14114F40E94C2410E94B13E1297EE
:1057400011F40E94AE1F0E94C64111F40E94CC4188
:105750000E944E420E9452420E9463400E94574360
:105760000E945F4231F00E94B73D0E9471420E9448
:10577000AF400E944E420E9475420E947E4221F13B
:105780000E94834211F40E9489420E948F42D1F408
:105790000E9489430E94914371F40E9497430E94A2
:1057A000533F0E949B050E949F430E94A4430E9476
:1057B000293F0E949B05E1E0F0E0E0936D05F09346
:1057C0006E0502C00E94A3420E94B1420E94B542EF
:1057D0000E9463400E94BD4221F00E94E23D0E946F
:1057E000F9400E94B1420E94C2420E94CB42B9F0ED
:1057F0000E94CF420E94D54281F40E94A7430E949A
:10580000914321F40E94AF430E949B05E1E0F0E048
:10581000E0936B05F0936C0502C00E94E9420E9480
:10582000B1420E94B5420E94DD3DE02121F00E947C
:10583000993D0E94F9400E944E420E9452420E94AD
:10584000DD3D0E94EF4221F00E94F2420E94AF40F3
:105850000E94B1420E94C2420E94B6430E22A09111
:10586000B905B091BA050E94B23F69F00E94CF42DB
:105870000E940C430E94914331F40E94BE430E9457
:10588000F13E0E949B050E9413430E2E0E94B142DE
:105890000E941B46E02121F00E94583F0E94A74031
:1058A0000E94B1420E941843E02191F00E941C43E3
:1058B000E1E0F0E0E093B905F093BA050E9491436E
:1058C00031F40E94C3430E94533F0E949B051B98E2
:1058D0000E944E420E9475420E9409460E220E947A
:1058E000C8430E22A091BB05B091BC050E94B23FF7
:1058F00071F01A980E9489420E942E430E9491439F
:1059000031F40E94D0430E94E93E0E949B050E9410
:1059100035430E2E0E944E420E941B46E02131F07C
:105920000E94583F0E94453A0E94AF400E944E425A
:105930000E943743E02191F00E943B43E1E0F0E018
:10594000E093BB05F093BC050E94914331F40E94A3
:10595000D8430E94453A0E949B051A980E944143F1
:105960000E9447430E944B430E944F430E945A4269
:105970000E94B23FC1F10E941C430E943B43E0E001
:10598000E093B905E093BA05E093BB05E093BC054D
:105990000E94EB400E94DF430E94914311F50E9458
:1059A00097430E94533F0E949B050E94AF430E9471
:1059B0009B050E94D0430E94E93E0E949B050E94E5
:1059C000BE430E94F13E0E949B050E94D8430E9464
:1059D000453A0E949B050E94C3430E94533F0E9488
:1059E0009B050E94EE4308950E94B14114F40E9469
:1059F000C2410E94B13E129711F40E94AE1F0E9454
:105A0000C64111F40E94CC410E944E420E94524273
:105A10000E9463400E9457430E945F4231F00E94FF
:105A2000B73D0E9471420E94AF400E944E420E94C8
:105A300075420E947E42C9F00E94834211F40E9486
:105A400089420E948F4271F40E947C4309F41A98A3
:105A50000E9495420E9481434A165B0611F40E94FF
:105A6000CC4103C01A9A0E94A3420E94B1420E94F4
:105A7000B5420E9463400E94BD4221F00E94E23D77
:105A80000E94F9400E94B1420E94C2420E94CB4251
:105A900051F00E94CF420E94D54219F40E94DB428D
:105AA00002C00E94E9420E94B1420E94B5420E9497
:105AB000DD3DE02121F00E94993D0E94F9400E94C5
:105AC0004E420E9452420E94DD3D0E94EF4231F060
:105AD0000E94CD3D0E9486430E94AF400E94B14289
