:020000000C945E
:10000200DA030C9400000C9400000C9400000C9491
:1000120000000C9400000C9400000C9400000C945E
:1000220000000C9400000C9400000C9400000C944E
:1000320000000C9400000C9400000C9400000C943E
:1000420053040C9400000C9400000C9400000C94D7
:1000520000000C9400000C9400000C9400000C941E
:1000620000000C9400000C9400000C9400000C940E
:1000720000000C9400000C9400000C9400000C94FE
:1000820000000C9400000C9400001027E8036400A8
:100092000A000100001000011000010000002020F1
:1000A200202020202020202020202020202020204E
:1000B200202020202020202020202020202020203E
:1000C2002020202020202020202020202020005A14
:1000D200616369736B206E6965207A6D6965727AF6
:1000E2006F6E7920752057796B6F6E617763790037
:1000F2004F73207A616369736B7520626C697A65EC
:100102006A20737A616679004F73207A616369733A
:100112006B752064616C656A206F6420737A616616
:1001220079004369736E69656E6965207A61206D35
:10013200616C65202D206D6E69656A737A65206E2B
:10014200697A2036206261720038362D30313730BC
:100152000038362D313034330038362D31363735CC
:100162000038362D323039380038372D30313730BB
:100172000038372D313034330038372D31363735AA
:100182000038372D323039380038362D3031393297
:100192000038362D313035340038362D3136373689
:1001A2000038362D323133320038372D3031393282
:1001B2000038372D313035340038372D3136373667
:1001C2000038372D323133320038362D3031393361
:1001D2000038362D313231360038362D313833324F
:1001E2000038362D323137340038372D303139333B
:1001F2000038372D313231360038372D313833322D
:100202000038372D323137340038362D3031393419
:100212000038362D313334310038362D313833330E
:100222000038362D323138300038372D30313934FC
:100232000038372D313334310038372D31383333EC
:100242000038372D323138300038362D30363633DB
:100252000038362D313334390038362D31383334C5
:100262000038362D323230340038372D30363633BE
:100272000038372D313334390038372D31383334A3
:100282000038372D323230340038362D3037363898
:100292000038362D313335370038362D3138343881
:1002A2000038362D323231320038372D3037363879
:1002B2000038372D313335370038372D313834385F
:1002C2000038372D323231320038362D3038303066
:1002D2000038362D313336330038362D313930344B
:1002E2000038362D323234310038372D3038303044
:1002F2000038372D313336330038372D3139303429
:100302000038372D323234310038362D3038313121
:100312000038362D313532330038362D3139323905
:100322000038362D323236310038372D30383131FF
:100332000038372D313532330038372D31393239E3
:100342000038372D323236310038362D30383134DC
:100352000038362D313533300038362D31393336C9
:100362000038362D323238350038372D30383134B6
:100372000038372D313533300038372D31393336A7
:100382000038372D323238350038362D3038313595
:100392000038362D313535310038362D313934318A
:1003A2000038362D323238360038372D3038313574
:1003B2000038372D313535310038372D3139343168
:1003C2000038372D323238360038362D3038313653
:1003D2000038362D313535320038362D323030374F
:1003E2000038362D323239320038372D3038313636
:1003F2000038372D313535320038372D323030372D
:100402000038372D323239320038362D3038313714
:100412000038362D313630320038362D3230313711
:100422000038362D323338340038372D30383137F2
:100432000038372D313630320038372D32303137EF
:100442000038372D323338340038362D30383437CF
:100452000038362D313632300038362D32303139CF
:100462000038362D323338350038372D30383437AE
:100472000038372D313632300038372D32303139AD
:100482000038372D323338350038362D3038353490
:100492000038362D313632320038362D323032388D
:1004A2000038362D323433370038372D3038353472
:1004B2000038372D313632320038372D323032386B
:1004C2000038372D323433370038362D3038363253
:1004D2000038362D313632350038362D323035324D
:1004E2000038362D323439320038372D3038363232
:1004F2000038372D313632350038372D323035322B
:100502000038372D323439320038362D3039333510
:100512000038362D313634380038362D3230383204
:100522000038362D323530300038372D30393335FA
:100532000038372D313634380038372D32303832E2
:100542000038372D323530300038362D31303139E0
:100552000038362D313634390038362D32303833C2
:100562000038362D323538350038372D31303139B3
:100572000038372D313634390038372D32303833A0
:100582000038372D323632340038362D313032379A
:100592000038362D313636390038362D323038377C
:1005A2000038362D323632340038372D313032377A
:1005B2000038372D313636390038372D323038375A
:1005C2000038372D32353835004E69652077637A29
:1005D2007974616E6F207A616369736B75004E6125
:1005E2006369736E696A205354415254206162797F
:1005F200207779706F7A79636A6F6E6F77616320A3
:100602006E617065647900506F7A79636A6F6E7596
:100612006A6520756B6C616479206C696E696F77AD
:10062200652058595A00537465726F776E696B2052
:1006320031202D207779706F7A79636A6F6E6F77C8
:10064200616C656D00537465726F776E696B2032F1
:10065200202D207779706F7A79636A6F6E6F776178
:100662006C656D00537465726F776E696B20332011
:100672002D207779706F7A79636A6F6E6F77616C0C
:10068200656D00537465726F776E696B2034202D2F
:10069200207779706F7A79636A6F6E6F77616C65B4
:1006A2006D00416C61726D20537465726F776E6973
:1006B2006B203400416C61726D20537465726F77E8
:1006C2006E696B203300416C61726D2053746572E8
:1006D2006F776E696B203100416C61726D205374CB
:1006E20065726F776E696B2032005779706F7A7915
:1006F200636A6F6E6F77616E6F20756B6C61647980
:10070200206C696E696F77652058595A0050727A69
:10071200656369617A656E6961204C45465333327F
:100722005F310050727A656369617A656E69612032
:100732004C45465333325F320050727A65636961C9
:100742007A656E6961204C4546535F58595F3200A5
:1007520050727A656369617A656E6961204C4546BB
:10076200535F58595F310057796D69656E20737A0E
:10077200637A6F746B65207065647A656C6B6F77F2
:10078200610057796D69656E206B72617A656B20C5
:1007920073636965726E790001002D4E414E004906
:1007A2004E460000010002009E00010095059A07D6
:1007B2000000F894EE27ECBBF1E0F5BFE5BFE09353
:1007C2006C00F8E1F1BDE1BD8DE0A2E0BB27ED9345
:1007D2008A95E9F780E090E1A0E0B1E0ED9301971E
:1007E200E9F7E6EAF7E085919591009761F0A59126
:1007F200B59105901590BF01F00105900D920197FA
:10080200E1F7FB01F0CF8BBFEFEFEDBFE0E1EEBF11
:10081200C0E0D5E00C94E4220E94282D23C00E945F
:10082200282DE6951FC00E94282DE695E6951AC050
:100832000E94282DE695E695E69514C00E94282D83
:10084200E29510C00E94282DE295EF70E6950AC04D
:100852000E94282D0E94372D05C00E94282DEE1FD0
:10086200E0E0EE1FE170239608951A930A9300E0E8
:1008720010E00E943C2DE4E0EA930E94C12BE3E8E1
:100882000E94442DE1E0EA930E94C12B0E944F2D69
:100892000E944F2D0E944F2D0E2F1127F801198112
:1008A20008818CC06A937A938A939A93AA93BA9393
:1008B200EA93FA93EFB7EA93A1E1B5E00E94552DCE
:1008C200A5E1B5E00E94552DA9E1B5E00E94552DA4
:1008D200ADE1B5E00E94552DA1E2B5E00E94552D93
:1008E200A5E2B5E00E94552DA9E2B5E00E94552D82
:1008F2001B9B26C0AFE8B5E00E945E2DADE8B5E0D7
:100902000E945E2DA0918F05B09190050E94652DE9
:1009120041F40E946F2D0E94752D31960E94C135BF
:100922003197A0918D05B0918E050E94652D41F4FD
:100932000E947A2D0E94802D31960E94C1353197F6
:10094200E991EFBFF991E991B991A99199918991B1
:100952007991699118951A930A9300E010E00E9428
:10096200852D0E94B22B8F010D5F1F4F0E943C2DDF
:100972000A930E94C12BE2E80E94442D0E94852D19
:1009820080E00E94032D22961981088128960895FD
:100992000E943C2DE5E0EA930E948A2DEA81EA93C7
:1009A2000E94C12BE881EA930E94C12BE0E0EA9306
:1009B2000E94C12BEC81EA930E94C12B26960895D6
:1009C2000E94752D0E94902D0E94972DE1DF0E94BA
:1009D200802D0E949C2D0E94A32DDADF089524977A
:1009E2000E94E33500E010E0EE85FF85FA93EA937A
:1009F2000E94B22B8F010D5F1F4FAC85BD851197F1
:100A020059F420E030E040E550E0E0E5F0E0E8872E
:100A1200F987E0E0EE83EF83AC85BD85129759F448
:100A220020E030E040E250E0E0E4F0E0E887F987DF
:100A3200E0E0EE83EF830E943C2D0A930E948A2D10
:100A42002A930E94C12B4A930E94C12BEE85FF85F7
:100A5200FA93EA9380E00E94032D22960E94A82D29
:100A6200EC85FD850E94B02D0E949735A0E0B0E094
:100A72000E947135E02151F00E94B72DE1EDF0E0C6
:100A82000E94C52D0E94C52D0E94CA2D0E94A82D2C
:100A92000E94CE2D51F00E94B72DE2EFF0E00E94AD
:100AA200C52D0E94C52D0E94CA2D0E94A82D0E940C
:100AB200D62D51F00E94B72DEAE0F1E00E94C52D3B
:100AC2000E94C52D0E94CA2D0E94DE2D0E94CE2DAD
:100AD20051F00E94B72DEAE0F1E00E94C52D0E947C
:100AE200C52D0E94CA2D0E94DE2D0E94D62D51F0E6
:100AF2000E94B72DE2EFF0E00E94C52D0E94C52DA5
:100B02000E94CA2D0E94EA35609608950E94752DB2
:100B12000E94E62D0E2E0E94802D0E94E62D0E2AA6
:100B22000E94EC2D0E94E62D0E2A0E94F12D0E94B9
:100B3200E62D0E2A0E94F62D0E94E62D0E2A0E9414
:100B4200FB2D0E94E62D0E2A0E94002E0E94E62D09
:100B5200E029F1F00E94052E0E946F2D0E940C2EBA
:100B62000E947A2DAAE0B0E0E5E0F0E00E94C135F3
:100B7200ACE0B0E00E94C135A0E0B0E00E94132ECC
:100B8200A2E0B0E00E94132EA4E0B0E00E94132E77
:100B920008950E94182E40DEA0E00E946C35EF936B
:100BA2000E94182E3CDEA0E00E946C35AF91EA2331
:100BB20029F00E94222E0E94272E6F010E94222ECF
:100BC2000E942D2E0E94332E0E94A32D0E94382EA9
:100BD2000E94272E0E943F2E0E94482E0E94512ED4
:100BE2000E94582E0E945D2E40DEACE0B0E00E94D2
:100BF200C135E0E2F0E00E949C2D37DEAAE0B0E0D1
:100C02000E94C1350E94222E0E94972D2EDEA8E05E
:100C1200B0E00E94C1350E94582E0E94A32D25DE0D
:100C2200A6E0B0E00E94C1350E94A32D0E94622E70
:100C32001CDEE0938905F0938A050E94A32D0E9491
:100C4200672E13DEE0938B05F0938C055FDF08952A
:100C52001A930A9301E010E0002E012AA9F40E94DF
:100C62006C2EF6DDE03029F401E010E0E0EAF0E07D
:100C720006C000E010E00E94762EE4E2F1E0FA9372
:100C8200EA930E94852EE8CF0991199108951A934B
:100C92000A930E94902EC0DDE1700E2EE0910205B3
:100CA200EE7F0E949A2EBBDDE170EE0F0E2EE091D8
:100CB2000205ED7F0E949A2EB6DDE170EE0FEE0F77
:100CC2000E2EE0910205EB7F0E949A2EB1DDE170BB
:100CD200EE0FEE0FEE0F0E2EE0910205E77F0E945F
:100CE2009A2EACDDE170E295E07F0E2EE0910205D6
:100CF200EF7E0E949A2EA6DDE170E295E07FEE0F74
:100D02000E2EE0910205EF7D0E949A2EA1DDE17088
:100D1200E295E07FEE0FEE0F0E2EE0910205EF7BE3
:100D22000E949A2E9ADDE170E795E0E0E7950E2E9B
:100D3200E0910205EF77E029E09302050E949E2EE2
:100D42000E942D2E8F01A0910205A13059F4F801C5
:100D52000E94B02D0E94A32EEBE4F1E00E94A82E87
:100D62000E94AD2EA0910205A23071F4F8010E94FA
:100D7200B02DE2E0F0E0ED93FC93E3E5F1E00E94B8
:100D8200A82E0E94222E2BDEA0910205A33071F420
:100D9200F8010E94B02DE3E0F0E0ED93FC93EBE567
:100DA200F1E00E94A82E0E94222E19DEA0910205D7
:100DB200A43071F4F8010E94B02DE4E0F0E0ED936C
:100DC200FC93E3E6F1E00E94A82E0E94222E07DEA9
:100DD200A0910205A53071F4F8010E94B02DE5E062
:100DE200F0E0ED93FC93EBE6F1E00E94A82E0E9466
:100DF200222EF5DDA0910205A63069F4F8010E94C9
:100E0200B02DE6E0F0E0ED93FC93E3E7F1E00E9421
:100E1200A82E0E94AD2EA0910205A73069F4F80118
:100E22000E94B02DE7E0F0E0ED93FC93EBE7F1E0F8
:100E32000E94A82E0E94AD2EA0910205A83069F44E
:100E4200F8010E94B02DE8E0F0E0ED93FC93E3E8B6
:100E5200F1E00E94A82E0E94AD2EA0910205A930B9
:100E620071F4F8010E94B02DE9E0F0E0ED93FC93FB
:100E7200EBE8F1E00E94A82E0E94222EB0DDA091A4
:100E82000205AA3071F4F8010E94B02DEAE0F0E008
:100E9200ED93FC93E3E9F1E00E94A82E0E94222E3A
:100EA2009EDDA0910205AB3071F4F8010E94B02DD5
:100EB200EBE0F0E0ED93FC93EBE9F1E00E94A82E69
:100EC2000E94222E8CDDA0910205AC3069F4F8015B
:100ED2000E94B02DECE0F0E0ED93FC93E3EAF1E048
:100EE2000E94A82E0E94AD2EA0910205AD3069F499
:100EF200F8010E94B02DEDE0F0E0ED93FC93EBEAF7
:100F0200F1E00E94A82E0E94AD2EA0910205AE3003
:100F120069F4F8010E94B02DEEE0F0E0ED93FC934D
:100F2200E3EBF1E00E94A82E0E94AD2EA0910205F3
:100F3200AF3069F4F8010E94B02DEFE0F0E0ED93DC
:100F4200FC93EBEBF1E00E94A82E0E94AD2EA09143
:100F52000205A03171F4F8010E94B02DE0E1F0E049
:100F6200ED93FC93E3ECF1E00E94A82E0E94222E66
:100F720036DDA0910205A13171F4F8010E94B02D75
:100F8200E1E1F0E0ED93FC93EBECF1E00E94A82E9E
:100F92000E94222E24DDA0910205A23171F4F801F3
:100FA2000E94B02DE2E1F0E0ED93FC93E3EDF1E07D
:100FB2000E94A82E0E94222E12DDA0910205A331CA
:100FC20071F4F8010E94B02DE3E1F0E0ED93FC939F
:100FD200EBEDF1E00E94A82E0E94222E00DDA091EE
:100FE2000205A43171F4F8010E94B02DE4E1F0E0B1
:100FF200ED93FC93E3EEF1E00E94A82E0E94222ED4
:10100200EEDCA0910205A53169F4F8010E94B02D31
:10101200E5E1F0E0ED93FC93EBEEF1E00E94A82E07
:101022000E94AD2EA0910205A63169F4F8010E943A
:10103200B02DE6E1F0E0ED93FC93E3EFF1E00E94E6
:10104200A82E0E94AD2EA0910205A73169F4F801E5
:101052000E94B02DE7E1F0E0ED93FC93EBEFF1E0BD
:101062000E94A82E0E94AD2EA0910205A83169F41B
:10107200F8010E94B02DE8E1F0E0ED93FC93E3E08B
:10108200F2E00E94A82E0E94AD2EA0910205A93185
:1010920071F4F8010E94B02DE9E1F0E0ED93FC93C8
:1010A200EBE0F2E00E94A82E0E94222E98DCA09192
:1010B2000205AA3171F4F8010E94B02DEAE1F0E0D4
:1010C200ED93FC93E3E1F2E00E94A82E0E94222E0F
:1010D20086DCA0910205AB3171F4F8010E94B02DBB
:1010E200EBE1F0E0ED93FC93EBE1F2E00E94A82E3D
:1010F2000E94222E74DCA0910205AC3169F4F80141
:101102000E94B02DECE1F0E0ED93FC93E3E2F2E01B
:101112000E94A82E0E94AD2EA0910205AD3169F465
:10112200F8010E94B02DEDE1F0E0ED93FC93EBE2CB
:10113200F2E00E94A82E0E94AD2EA0910205AE31CF
:1011420069F4F8010E94B02DEEE1F0E0ED93FC931A
:10115200E3E3F2E00E94A82E0E94AD2EA0910205C8
:10116200AF3169F4F8010E94B02DEFE1F0E0ED93A8
:10117200FC93EBE3F2E00E94A82E0E94AD2EA09118
:101182000205A03271F4F8010E94B02DE0E2F0E015
:10119200ED93FC93E3E4F2E00E94A82E0E94222E3B
:1011A2001EDCA0910205A13269F4F8010E94B02D63
:1011B200E1E2F0E0ED93FC93EBE4F2E00E94A82E72
:1011C2000E94AD2EA0910205A23271F4F8010E9494
:1011D200B02DE2E2F0E0ED93FC93E3E5F2E00E9451
:1011E200A82E0E94222EFBDBA0910205A33271F4ED
:1011F200F8010E94B02DE3E2F0E0ED93FC93EBE501
:10120200F2E00E94A82E0E94222EE9DBA0910205A4
:10121200A43271F4F8010E94B02DE4E2F0E0ED9303
:10122200FC93E3E6F2E00E94A82E0E94222ED7DB76
:10123200A0910205A53271F4F8010E94B02DE5E2F9
:10124200F0E0ED93FC93EBE6F2E00E94A82E0E9400
:10125200222EC5DBA0910205A63269F4F8010E9494
:10126200B02DE6E2F0E0ED93FC93E3E7F2E00E94BA
:10127200A82E0E94AD2EA0910205A73269F4F801B2
:101282000E94B02DE7E2F0E0ED93FC93EBE7F2E091
:101292000E94A82E0E94AD2EA0910205A83269F4E8
:1012A200F8010E94B02DE8E2F0E0ED93FC93E3E850
:1012B200F2E00E94A82E0E94AD2EA0910205A93252
:1012C20069F4F8010E94B02DE9E2F0E0ED93FC939D
:1012D200EBE8F2E00E94A82E0E94AD2EA09102053A
:1012E200AA3271F4F8010E94B02DEAE2F0E0ED9327
:1012F200FC93E3E9F2E00E94A82E0E94222E6FDB0B
:10130200A0910205AB3271F4F8010E94B02DEBE21C
:10131200F0E0ED93FC93EBE9F2E00E94A82E0E942C
:10132200222E5DDBA0910205AC3281F4F8010E940D
:10133200B02DECE2F0E00E94B32E0E94B72EE3EA59
:10134200F2E00E94A82E0E94222E49DBA091020503
:10135200AD3271F4F8010E94B02DEDE2F0E0ED93B0
:10136200FC93EBEAF2E00E94A82E0E94222E37DBC9
:10137200A0910205AE3269F4F8010E94B02DEEE2AE
:10138200F0E0ED93FC93E3EBF2E00E94A82E0E94C2
:10139200AD2EA0910205AF3269F4F8010E94B02D82
:1013A200EFE2F0E0ED93FC93EBEBF2E00E94A82E6B
:1013B2000E94AD2EA0910205A03379F4F8010E949B
:1013C200B02DE0E3F0E00E94B32E0E94B72EE3ECD2
:1013D200F2E00E94A82E0E94AD2EA0910205A13338
:1013E20071F4F8010E94B02DE1E3F0E0ED93FC937B
:1013F200EBECF2E00E94A82E0E94222EF0DAA091DD
:101402000205A23371F4F8010E94B02DE2E3F0E08C
:10141200ED93FC93E3EDF2E00E94A82E0E94222EAF
:10142200DEDAA0910205A33371F4F8010E94B02D17
:10143200E3E3F0E0ED93FC93EBEDF2E00E94A82EE3
:101442000E94222ECCDAA0910205A43369F4F8019D
:101452000E94B02DE4E3F0E0ED93FC93E3EEF2E0C2
:101462000E94A82E0E94AD2EA0910205A53369F418
:10147200F8010E94B02DE5E3F0E0ED93FC93EBEE72
:10148200F2E00E94A82E0E94AD2EA0910205A63382
:1014920069F4F8010E94B02DE6E3F0E0ED93FC93CD
:1014A200E3EFF2E00E94A82E0E94AD2EA091020569
:1014B200A73369F4F8010E94B02DE7E3F0E0ED9361
:1014C200FC93EBEFF2E00E94A82E0E94AD2EA091B9
:1014D2000205A83371F4F8010E94B02DE8E3F0E0B0
:1014E200ED93FC93E3E0F3E00E94A82E0E94222EEB
:1014F20076DAA0910205A93371F4F8010E94B02DA9
:10150200E9E3F0E0ED93FC93EBE0F3E00E94A82E18
:101512000E94222E64DAA0910205AA3371F4F80126
:101522000E94B02DEAE3F0E0ED93FC93E3E1F3E0F7
:101532000E94A82E0E94222E52DAA0910205AB33FD
:1015420071F4F8010E94B02DEBE3F0E0ED93FC930F
:10155200EBE1F3E00E94A82E0E94222E40DAA09135
:101562000205AC3371F4F8010E94B02DECE3F0E017
:10157200ED93FC93E3E2F3E00E94A82E0E94222E58
:101582002EDAA0910205AD3369F4F8010E94B02D64
:10159200EDE3F0E0ED93FC93EBE2F3E00E94A82E82
:1015A2000E94AD2EA0910205AE3369F4F8010E94AB
:1015B200B02DEEE3F0E0ED93FC93E3E3F3E00E9461
:1015C200A82E0E94AD2EA0910205AF3369F4F80156
:1015D2000E94B02DEFE3F0E0ED93FC93EBE3F3E038
:1015E2000E94A82E0E94AD2EA0910205A03469F49B
:1015F200F8010E94B02DE0E4F0E0ED93FC93E3E407
:10160200F3E00E94A82E0E94AD2EA0910205A13403
:1016120071F4F8010E94B02DE1E4F0E0ED93FC9347
:10162200EBE4F3E00E94A82E0E94222ED8D9A091CA
:101632000205A23469F4F8010E94B02DE2E4F0E060
:10164200ED93FC93E3E5F3E00E94A82E0E94AD2EF9
:10165200A0910205A33469F4F8010E94B02DE3E4DD
:10166200F0E0ED93FC93EBE5F3E00E94A82E0E94DC
:10167200AD2EA0910205A43469F4F8010E94B02DA8
:10168200E4E4F0E0ED93FC93E3E6F3E00E94A82E9D
:101692000E94AD2EA0910205A53469F4F8010E94C2
:1016A200B02DE5E4F0E0ED93FC93EBE6F3E00E946D
:1016B200A82E0E94AD2EA0910205A63471F4F80165
:1016C2000E94B02DE6E4F0E0ED93FC93E3E7F3E053
:1016D2000E94A82E0E94222E82D9A0910205A73430
:1016E20071F4F8010E94B02DE7E4F0E0ED93FC9371
:1016F200EBE7F3E00E94A82E0E94222E70D9A0915F
:101702000205A83471F4F8010E94B02DE8E4F0E07B
:10171200ED93FC93E3E8F3E00E94A82E0E94222EB0
:101722005ED9A0910205A93471F4F8010E94B02D8E
:10173200E9E4F0E0ED93FC93EBE8F3E00E94A82EDD
:101742000E94222E4CD9A0910205AA3471F4F8010C
:101752000E94B02DEAE4F0E0ED93FC93E3E9F3E0BC
:101762000E94A82E0E94222E3AD9A0910205AB34E3
:1017720071F4F8010E94B02DEBE4F0E0ED93FC93DC
:10178200EBE9F3E00E94A82E0E94222E28D9A09114
:101792000205AC3481F4F8010E94B02DECE4F0E0D3
:1017A2000E94B32E0E94B72EE3EAF3E00E94A82E15
:1017B2000E94222E14D9A0910205AD3469F4F801D9
:1017C2000E94B02DEDE4F0E0ED93FC93EBEAF3E040
:1017D2000E94A82E0E94AD2EA0910205AE3469F49B
:1017E200F8010E94B02DEEE4F0E0ED93FC93E3EB00
:1017F200F3E00E94A82E0E94AD2EA0910205AF3404
:1018020069F4F8010E94B02DEFE4F0E0ED93FC934F
:10181200EBEBF3E00E94A82E0E94AD2EA0910205F0
:10182200A03581F4F8010E94B02DE0E5F0E00E94BD
:10183200B32E0E94B72EE3ECF3E00E94A82E0E9482
:10184200222ECDD8A0910205A13571F4F8010E9493
:10185200B02DE1E5F0E0ED93FC93EBECF3E00E94B8
:10186200A82E0E94222EBBD8A0910205A23571F4A7
:10187200F8010E94B02DE2E5F0E0ED93FC93E3ED78
:10188200F3E00E94A82E0E94222EA9D8A091020560
:10189200A33569F4F8010E94B02DE3E5F0E0ED9381
:1018A200FC93EBEDF3E00E94A82E0E94AD2EA091D6
:1018B2000205A43569F4F8010E94B02DE4E5F0E0D8
:1018C200ED93FC93E3EEF3E00E94A82E0E94AD2E6E
:1018D200A0910205A53569F4F8010E94B02DE5E555
:1018E200F0E0ED93FC93EBEEF3E00E94A82E0E9451
:1018F200AD2EA0910205A63569F4F8010E94B02D23
:10190200E6E5F0E0ED93FC93E3EFF3E00E94A82E0E
:101912000E94AD2EA0910205A73571F4F8010E9434
:10192200B02DE7E5F0E0ED93FC93EBEFF3E00E94DE
:10193200A82E0E94222E53D8A0910205A83571F438
:10194200F8010E94B02DE8E5F0E0ED93FC93E3E0AE
:10195200F4E00E94A82E0E94222E41D8A0910205F6
:10196200A93571F4F8010E94B02DE9E5F0E0ED939C
:10197200FC93EBE0F4E00E94A82E0E94222E2FD8C6
:10198200A0910205AA3569F4F8010E94B02DEAE59A
:10199200F0E0ED93FC93E3E1F4E00E94A82E0E94B4
:1019A200AD2EA0910205AB3569F4F8010E94B02D6D
:1019B200EBE5F0E0ED93FC93EBE1F4E00E94A82E5E
:1019C2000E94AD2EA0910205AC3589F4F8010E9467
:1019D200B02DECE5F0E00E94B32E0E94B72EE3E2B8
:1019E200F4E00E94A82E0E94222E0E94F004A091F0
:1019F2000205AD3569F4F8010E94B02DEDE5F0E085
:101A0200ED93FC93EBE2F4E00E94A82E0E94AD2E2F
:101A1200A0910205AE3579F4F8010E94B02DEEE5F1
:101A2200F0E0ED93FC93E3E3F4E00E94A82E0E9421
:101A3200222E0E94F004A0910205AF3579F4F8013C
:101A42000E94B02DEFE5F0E0ED93FC93EBE3F4E0C0
:101A52000E94A82E0E94222E0E94F004A09102054C
:101A6200A03689F4F8010E94B02DE0E6F0E00E9471
:101A7200B32E0E94B72EE3E4F4E00E94A82E0E9447
:101A8200222E0E94F004A0910205A13679F4F801F9
:101A92000E94B02DE1E6F0E0ED93FC93EBE4F4E07C
:101AA2000E94A82E0E94222E0E94F004A0910205FC
:101AB200A23679F4F8010E94B02DE2E6F0E0ED934F
:101AC200FC93E3E5F4E00E94A82E0E94222E0E94DD
:101AD200F004A0910205A33669F4F8010E94B02D2A
:101AE200E3E6F0E0ED93FC93EBE5F4E00E94A82E30
:101AF2000E94AD2EA0910205A43679F4F8010E944D
:101B0200B02DE4E6F0E0ED93FC93E3E6F4E00E940E
:101B1200A82E0E94222E0E94F004A0910205A53652
:101B220069F4F8010E94B02DE5E6F0E0ED93FC9334
:101B3200EBE6F4E00E94A82E0E94AD2EA0910205D1
:101B4200A63669F4F8010E94B02DE6E6F0E0ED93C6
:101B5200FC93E3E7F4E00E94A82E0E94AD2EA09130
:101B62000205A73679F4F8010E94B02DE7E6F0E00D
:101B7200ED93FC93EBE7F4E00E94A82E0E94222E44
:101B82000E94F004A0910205A83669F4F8010E94AF
:101B9200B02DE8E6F0E0ED93FC93E3E8F4E00E9478
:101BA200A82E0E94AD2EA0910205A93679F4F80163
:101BB2000E94B02DE9E6F0E0ED93FC93EBE8F4E04F
:101BC2000E94A82E0E94222E0E94F004A0910205DB
:101BD200AA3669F4F8010E94B02DEAE6F0E0ED932E
:101BE200FC93E3E9F4E00E94A82E0E94AD2EA0919E
:101BF2000205AB3689F4F8010E94B02DEBE6F0E065
:101C02000E94B32E0E94B72EEBE9F4E00E94A82EA8
:101C12000E94222E0E94F004A0910205AC3679F4B3
:101C2200F8010E94B02DECE6F0E0ED93FC93E3EABC
:101C3200F4E00E94A82E0E94222E0E94F004A0919D
:101C42000205AD3669F4F8010E94B02DEDE6F0E030
:101C5200ED93FC93EBEAF4E00E94A82E0E94AD2ED5
:101C6200A0910205AE3679F4F8010E94B02DEEE69D
:101C7200F0E0ED93FC93E3EBF4E00E94A82E0E94C7
:101C8200222E0E94F004A0910205AF3689F4F801D9
:101C92000E94B02DEFE6F0E00E94B32E0E94B72E14
:101CA200EBEBF4E00E94A82E0E94222E0E94F00488
:101CB200A0910205A03769F4F8010E94B02DE0E777
:101CC200F0E0ED93FC93E3ECF4E00E94A82E0E9476
:101CD200AD2EA0910205A13779F4F8010E94B02D32
:101CE200E1E7F0E0ED93FC93EBECF4E00E94A82E28
:101CF2000E94222E0E94F004A0910205A23779F4DC
:101D0200F8010E94B02DE2E7F0E0ED93FC93E3EDE1
:101D1200F4E00E94A82E0E94222E0E94F004A091BC
:101D22000205A33779F4F8010E94B02DE3E7F0E051
:101D3200ED93FC93EBEDF4E00E94A82E0E94222E7C
:101D42000E94F004A0910205A43769F4F8010E94F0
:101D5200B02DE4E7F0E0ED93FC93E3EEF4E00E94B3
:101D6200A82E0E94AD2EA0910205A53769F4F801B4
:101D72000E94B02DE5E7F0E0ED93FC93EBEEF4E08A
:101D82000E94A82E0E94AD2EA0910205A63769F4EA
:101D9200F8010E94B02DE6E7F0E0ED93FC93E3EF4B
:101DA200F4E00E94A82E0E94AD2EA0910205A73752
:101DB20069F4F8010E94B02DE7E7F0E0ED93FC939F
:101DC200EBEFF4E00E94A82E0E94AD2EA091020536
:101DD200A83779F4F8010E94B02DE8E7F0E0ED931E
:101DE200FC93E3E0F5E00E94A82E0E94222E0E94BE
:101DF200F004A0910205A93779F4F8010E94B02DF0
:101E0200E9E7F0E0ED93FC93EBE0F5E00E94A82E09
:101E12000E94222E0E94F004A0910205AA3779F4B2
:101E2200F8010E94B02DEAE7F0E0ED93FC93E3E1C4
:101E3200F5E00E94A82E0E94222E0E94F004A0919A
:101E42000205AB3779F4F8010E94B02DEBE7F0E020
:101E5200ED93FC93EBE1F5E00E94A82E0E94222E66
:101E62000E94F004A0910205AC3779F4F8010E94B7
:101E7200B02DECE7F0E0ED93FC93E3E2F5E00E9495
:101E8200A82E0E94222E0E94F004A0910205AD37D6
:101E920069F4F8010E94B02DEDE7F0E0ED93FC93B8
:101EA200EBE2F5E00E94A82E0E94AD2EA091020561
:101EB200AE3769F4F8010E94B02DEEE7F0E0ED9341
:101EC200FC93E3E3F5E00E94A82E0E94AD2EA091C0
:101ED2000205AF3769F4F8010E94B02DEFE7F0E098
:101EE200ED93FC93EBE3F5E00E94A82E0E94AD2E49
:101EF200A0910205A03869F4F8010E94B02DE0E833
:101F0200F0E0ED93FC93E3E4F5E00E94A82E0E943A
:101F1200AD2EA0910205A13879F4F8010E94B02DEE
:101F2200E1E8F0E0ED93FC93EBE4F5E00E94A82EEB
:101F32000E94222E0E94F004A0910205A23879F498
:101F4200F8010E94B02DE2E8F0E0ED93FC93E3E5A6
:101F5200F5E00E94A82E0E94222E0E94F004A09179
:101F62000205A33869F4F8010E94B02DE3E8F0E01D
:101F7200ED93FC93EBE5F5E00E94A82E0E94AD2EB6
:101F8200A0910205A43879F4F8010E94B02DE4E88A
:101F9200F0E0ED93FC93E3E6F5E00E94A82E0E94A8
:101FA200222E0E94F004A0910205A53869F4F801DE
:101FB2000E94B02DE5E8F0E0ED93FC93EBE6F5E04E
:101FC2000E94A82E0E94AD2EA0910205A63869F4A7
:101FD200F8010E94B02DE6E8F0E0ED93FC93E3E710
:101FE200F5E00E94A82E0E94AD2EA0910205A7380E
:101FF20079F4F8010E94B02DE7E8F0E0ED93FC934C
:10200200EBE7F5E00E94A82E0E94222E0E94F00427
:10201200A0910205A83869F4F8010E94B02DE8E801
:10202200F0E0ED93FC93E3E8F5E00E94A82E0E9415
:10203200AD2EA0910205A93879F4F8010E94B02DC5
:10204200E9E8F0E0ED93FC93EBE8F5E00E94A82EBE
:102052000E94222E0E94F004A0910205AA3869F47F
:10206200F8010E94B02DEAE8F0E0ED93FC93E3E979
:10207200F5E00E94A82E0E94AD2EA0910205AB3879
:1020820069F4F8010E94B02DEBE8F0E0ED93FC93C7
:10209200EBE9F5E00E94A82E0E94AD2EA091020568
:1020A200AC3879F4F8010E94B02DECE8F0E0ED9341
:1020B200FC93E3EAF5E00E94A82E0E94222E0E94E1
:1020C200F004A0910205AD3869F4F8010E94B02D28
:1020D200EDE8F0E0ED93FC93EBEAF5E00E94A82E28
:1020E2000E94AD2EA0910205AE3879F4F8010E944B
:1020F200B02DEEE8F0E0ED93FC93E3EBF5E00E9407
:10210200A82E0E94222E0E94F004A0910205AF3850
:1021120079F4F8010E94B02DEFE8F0E0ED93FC9322
:10212200EBEBF5E00E94A82E0E94222E0E94F00402
:10213200A0910205A03969F4F8010E94B02DE0E9EE
:10214200F0E0ED93FC93E3ECF5E00E94A82E0E94F0
:10215200AD2EF801099119910895E881F9810E9443
:10216200B02D0E949735309741F40E94762EEBEC09
:10217200F5E00E94BC2E0C941619E130A0E0FA079B
:1021820051F4E8ECF0E00E94BF2E0E94C62E0E949D
:10219200CD2E0C94FD18E230A0E0FA0771F4E0E1D4
:1021A200F1E00E94BF2E0E94DC2E0E94E12E0E94CE
:1021B200DC2E0E94F02E0C940319E330A0E0FA0703
:1021C20061F4EAE7F0E00E94BF2E0E94C62E0E9450
:1021D200F52E0E94FE2E0C940319E430A0E0FA07BB
:1021E20061F4E2E0F1E00E94BF2E0E94C62E0E943E
:1021F200072F0E94FE2E0C940319E530A0E0FA0787
:1022020059F4E0EBF0E00E94BF2E0E94C62E0E941D
:10221200CD2E0E94102FF6C7E630A0E0FA0759F43F
:10222200EEEFF0E00E94BF2E0E94DC2E0E94E12E13
:10223200A0E1B0E0E1C7E730A0E0FA0749F4E8E73F
:10224200F0E00E94BF2E0E94C62E0E94F52ECEC73D
:10225200E830A0E0FA0749F4E0ECF0E00E94BF2E7B
:102262000E94C62E0E94072FC1C7E930A0E0FA07DC
:1022720069F4E8E1F0E00E94BF2E0E94C62E0E949F
:10228200072F0E94132F0E94102FBCC7EA30A0E034
:10229200FA0759F4E6E1F0E00E94BF2E0E94C62E32
:1022A2000E941A2F0E94FE2EADC7EB30A0E0FA0763
:1022B20059F4E4E7F0E00E94BF2E0E94C62E0E946D
:1022C200232F0E94FE2E9EC7EC30A0E0FA0749F4AD
:1022D200E6E9F0E00E94BF2E0E94C62E0E942C2F3B
:1022E20085C7ED30A0E0FA0759F4EAE1F0E00E9478
:1022F200BF2E0E94C62E0E94072F0E94132F7CC75A
:10230200EE30A0E0FA0749F4EEE5F0E00E94BF2EBD
:102312000E94C62E0E941A2F69C7EF30A0E0FA076A
:1023220049F4E4E8F0E00E94BF2E0E94C62E0E940B
:10233200232F5CC7E031A0E0FA0749F4E8EBF0E0B4
:102342000E94BF2E0E94C62E0E94352F5BC7E1312C
:10235200A0E0FA0759F4E0E2F0E00E94BF2E0E94EA
:10236200C62E0E94CD2E0E94102F4CC7E231A0E053
:10237200FA0769F4E8E9F0E00E94BF2E0E94DC2E21
:102382000E943E2F0E94DC2E0E94F02E3BC7E331BA
:10239200A0E0FA0759F4EAEAF0E00E94BF2E0E9498
:1023A200C62E0E944D2F0E94542F2CC7E431A0E06C
:1023B200FA0769F4E2E4F0E00E94BF2E0E94C62E02
:1023C2000E944D2F0E94572F0E94102F1BC7E531EC
:1023D200A0E0FA0749F4EEE4F0E00E94BF2E0E946A
:1023E200C62E0E94CD2E08C7E631A0E0FA0759F4A6
:1023F200E2ECF0E00E94BF2E0E94DC2E0E943E2FF3
:10240200A0E1B0E0F9C6E731A0E0FA0759F4EEEC3A
:10241200F0E00E94BF2E0E94C62E0E944D2FA9E915
:10242200B1E0E4C6E831A0E0FA0759F4E0E4F0E0F4
:102432000E94BF2E0E94C62E0E944D2F0E94572F2F
:10244200DBC6E931A0E0FA0759F4EEE2F0E00E94BF
:10245200BF2E0E94C62E0E941A2F0E94FE2ED2C6A6
:10246200EA31A0E0FA0759F4EAEFF0E00E94BF2E49
:102472000E94C62E0E94602F0E94102FC3C6EB310D
:10248200A0E0FA0749F4ECE6F0E00E94BF2E0E94B9
:10249200C62E0E94352FB6C6EC31A0E0FA0749F4E9
:1024A200E4EAF0E00E94BF2E0E94C62E0E942C2F6A
:1024B2009DC6ED31A0E0FA0749F4EAE2F0E00E949D
:1024C200BF2E0E94C62E0E941A2F90C6EE31A0E0A7
:1024D200FA0749F4E4E9F0E00E94BF2E0E94C62EFA
:1024E2000E94602F89C6EF31A0E0FA0759F4EEE6A8
:1024F200F0E00E94BF2E0E94C62E0E94692FA9E919
:10250200B1E074C6E032A0E0FA0759F4E6E8F0E080
:102512000E94BF2E0E94C62E0E942C2F0E94FE2EC9
:1025220071C6E132A0E0FA0749F4EEE8F0E00E9459
:10253200BF2E0E94C62EA0E2B0E052C6E232A0E058
:10254200FA0759F4EAE5F0E00E94BF2E0E94C62E77
:102552000E94702F0E94772F55C6E332A0E0FA073F
:1025620059F4EAEDF0E00E94BF2E0E94C62E0E94AE
:102572007A2F0E94102F46C6E432A0E0FA0759F4DF
:10258200E2EAF0E00E94BF2E0E94812F0E94DC2E20
:102592000E94F02E37C6E532A0E0FA0759F4E4E0D3
:1025A200F1E00E94BF2E0E94C62E0E94702F0E9450
:1025B200942F28C6E632A0E0FA0759F4E6E3F0E0E9
:1025C2000E94BF2E0E94C62E0E94702FA6E9B1E083
:1025D2000DC6E732A0E0FA0749F4E8E1F1E00E9413
:1025E200BF2E0E94C62E0E947A2F06C6E832A0E0B5
:1025F200FA0749F4E6EAF0E00E94BF2E0E94812F1A
:10260200A0E1B0E0F9C5E932A0E0FA0759F4EEE141
:10261200F0E00E94BF2E0E94C62E0E94072F0E9449
:10262200132FEAC5EA32A0E0FA0759F4ECE5F0E02C
:102632000E94BF2E0E94DC2E0E94972F0E94102F14
:10264200E1C5EB32A0E0FA0759F4E2E6F0E00E94BD
:10265200BF2E0E94C62E0E94692F0E94772FD2C5DC
:10266200EC32A0E0FA0719F40E94A22FCBC5ED329A
:10267200A0E0FA0769F4E0E1F0E00E94BF2E0E94B8
:10268200C62E0E94072F0E94132F0E94102FBAC538
:10269200EE32A0E0FA0749F4E0E5F0E00E94BF2E36
:1026A2000E94DC2E0E94972FA7C5EF32A0E0FA0706
:1026B20059F4E8E6F0E00E94BF2E0E94C62E0E9466
:1026C200692FA6E9B1E092C5E033A0E0FA0719F458
:1026D2000E94A22F97C5E133A0E0FA0759F4E4E281
:1026E200F0E00E94BF2E0E94C62E0E94072F0E9479
:1026F200FE2E88C5E233A0E0FA0759F4E4E1F0E0E7
:102702000E94BF2E0E94C62E0E947A2F0E94102F76
:1027120079C5E333A0E0FA0759F4E2E8F0E00E9459
:10272200BF2E0E94C62E0E94B82F0E94942F6AC507
:10273200E433A0E0FA0749F4E6E0F1E00E94BF2E9C
:102742000E94C62E0E94BF2F57C5E533A0E0FA07AC
:1027520049F4ECE4F0E00E94BF2E0E94C62E0E94D3
:10276200072F44C5E633A0E0FA0749F4ECE1F0E0B4
:102772000E94BF2E0E94C62E0E947A2F3DC5E733CB
:10278200A0E0FA0749F4E4E1F1E00E94BF2E0E94C2
:10279200C62EAAE1B0E024C5E833A0E0FA0759F456
:1027A200EEEEF0E00E94BF2E0E94C62E0E94BF2FC6
:1027B2000E94102F27C5E933A0E0FA0759F4E8EF89
:1027C200F0E00E94BF2E0E94C62E0E94CE2F0E94D1
:1027D200102F18C5EA33A0E0FA0759F4E4EEF0E04E
:1027E2000E94BF2E0E94C62E0E94692F0E94772F40
:1027F20009C5EB33A0E0FA0759F4E2E5F0E00E94E4
:10280200BF2E0E94C62E0E94D72F0E94542FFAC4B8
:10281200EC33A0E0FA0779F4E0E9F0E00E94BF2E81
:102822000E94C62E0E94DE2FA0E9B1E00E94132F63
:102832000E94102FE7C4ED33A0E0FA0749F4ECEF51
:10284200F0E00E94BF2E0E94C62E0E94602FD4C4C8
:10285200EE33A0E0FA0759F4E8E2F0E00E94BF2E5E
:102862000E94C62E0E94692FA6E9B1E0BFC4EF33D1
:10287200A0E0FA0759F4E4E3F0E00E94BF2E0E94C0
:10288200C62E0E94D72FA9E9B1E0B0C4E034A0E07F
:10289200FA0749F4ECEEF0E00E94BF2E0E94C62E29
:1028A2000E94CE2FA9C4E134A0E0FA0759F4ECEC5F
:1028B200F0E00E94BF2E0E94C62E0E94E52F0E94C9
:1028C200FE2EA0C4E234A0E0FA0759F4ECEBF0E0EB
:1028D2000E94BF2E0E94C62E0E94D72F0E94EE2F6A
:1028E2008BC4E334A0E0FA0759F4ECE9F0E00E946B
:1028F200BF2E0E94C62E0E94D72FA6E9B1E076C451
:10290200E434A0E0FA0749F4ECE7F0E00E94BF2EBD
:102912000E94C62E0E942C2F69C4E534A0E0FA075B
:1029220049F4E2EDF0E00E94BF2E0E94C62E0E9402
:10293200E52F5CC4E634A0E0FA0769F4E6EEF0E0C5
:102942000E94BF2E0E94C62E0E94D72F0E94EE2FF9
:102952000E94102F57C4E734A0E0FA0759F4E4EBC1
:10296200F0E00E94BF2E0E94C62E0E94D72F0E9426
:10297200772F48C4E834A0E0FA0759F4ECEAF0E013
:102982000E94BF2E0E94C62E0E942C2F0E94FE2E55
:1029920039C4E934A0E0FA0769F4E2E1F0E00E9408
:1029A200BF2E0E94DC2EE1E7F5E00E94B82F0E94C4
:1029B200772F28C4EA34A0E0FA0759F4E2EBF0E0FA
:1029C2000E94BF2E0E94C62E0E94072F0E94FE2E3A
:1029D20019C4EB34A0E0FA0759F4ECE0F1E00E94EC
:1029E200BF2E0E94C62E0E94702F0E94772F0AC40B
:1029F200EC34A0E0FA0719F40E94A22F03C4ED34CC
:102A0200A0E0FA0769F4E6E2F0E00E94BF2E0E941D
:102A1200DC2EE1E7F5E00E94B82FA6E9B1E0E6C3BB
:102A2200EE34A0E0FA0759F4ECE1F1E00E94BF2E87
:102A32000E94C62E0E94F12FA6E9B1E0D7C3EF345F
:102A4200A0E0FA0759F4E2E1F1E00E94BF2E0E94F1
:102A5200C62E0E94702FA6E9B1E0C8C3E035A0E0FF
:102A6200FA0719F40E94A22FCDC3E135A0E0FA07BC
:102A720059F4EAEEF0E00E94BF2E0E94C62E0E9498
:102A8200F82F0E94FE2EBEC3E235A0E0FA0759F4E9
:102A9200E8EDF0E00E94BF2E0E94C62E0E94013097
:102AA2000E94FE2EAFC3E335A0E0FA0769F4ECE81A
:102AB200F0E00E94BF2E0E94C62EA2E2B0E00E9469
:102AC2000A30A9E9B1E092C3E435A0E0FA0759F46B
:102AD200E0EAF0E00E94BF2E0E940F300E94183000
:102AE200A0E1B0E089C3E535A0E0FA0749F4EEEAD7
:102AF200F0E00E94BF2E0E94C62E0E94F82F76C3DD
:102B0200E635A0E0FA0749F4E6EFF0E00E94BF2EB6
:102B12000E94C62E0E94013069C3E735A0E0FA0781
:102B220059F4E4ECF0E00E94BF2E0E94C62E0E94EF
:102B32001F300E94542F66C3E835A0E0FA0769F4FB
:102B4200EEE7F0E00E94BF2E0E940F300E94183084
:102B52000E94DC2E0E94F02E55C3E935A0E0FA0750
:102B620059F4ECE2F0E00E94BF2E0E94C62E0E94B1
:102B7200DE2F0E94772F46C3EA35A0E0FA0749F418
:102B8200E0EFF0E00E94BF2E0E94C62E0E94CD2EE2
:102B920033C3EB35A0E0FA0759F4E8EAF0E00E940B
:102BA200BF2E0E94C62E0E94692FA9E9B1E01EC362
:102BB200EC35A0E0FA0719F40E94A22F23C3ED35E9
:102BC200A0E0FA0759F4E0E3F0E00E94BF2E0E9471
:102BD200C62E0E94DE2FA6E9B1E008C3EE35A0E0C2
:102BE200FA0759F4E4EFF0E00E94BF2E0E94C62ECD
:102BF2000E94CD2E0E94102F05C3EF35A0E0FA07E8
:102C020049F4EEE9F0E00E94BF2E0E94C62E0E9417
:102C1200352FF8C2E036A0E0FA0719F40E94A22F7D
:102C2200F1C2E136A0E0FA0759F4EAE6F0E00E94C8
:102C3200BF2E0E94C62E0E942C2F0E94FE2EE2C2A0
:102C4200E236A0E0FA0769F4EEEBF0E00E94BF2E54
:102C52000E94C62E0E94F52E0E9422300E94102F42
:102C6200D1C2E336A0E0FA0759F4EAEBF0E00E94A1
:102C7200BF2E0E94C62E0E94F12FA9E9B1E0B6C272
:102C8200E436A0E0FA0759F4E0E6F0E00E94BF2E35
:102C92000E94C62E0E94072F0E94FE2EB3C2E53666
:102CA200A0E0FA0749F4E0E7F0E00E94BF2E0E949C
:102CB200C62E0E942C2F9AC2E636A0E0FA0759F4DB
:102CC200EAE8F0E00E94BF2E0E94C62E0E94F52E76
:102CD2000E94223091C2E736A0E0FA0759F4E0E8F8
:102CE200F0E00E94BF2E0E94C62E0E94F12F0E9489
:102CF200542F88C2E836A0E0FA0749F4E6EBF0E088
:102D02000E94BF2E0E94C62E0E94072F6FC2E93674
:102D1200A0E0FA0769F4E4E4F0E00E94BF2E0E940A
:102D2200C62E0E9429300E94572F0E94102F6AC27D
:102D3200EA36A0E0FA0749F4EAE3F0E00E94BF2E87
:102D42000E94C62E0E947A2F57C2EB36A0E0FA07E5
:102D520019F40E94A22F56C2EC36A0E0FA0769F4D9
:102D6200E6ECF0E00E94BF2E0E94C62E0E94D72FF2
:102D72000E94EE2F0E94102F45C2ED36A0E0FA0706
:102D820059F4EAE0F0E00E94BF2E0E94DC2E0E947D
:102D9200E12EA0E1B0E030C2EE36A0E0FA0759F42D
:102DA200E2E3F0E00E94BF2E0E94C62E0E947A2F1C
:102DB2000E94102F27C2EF36A0E0FA0719F40E94F2
:102DC200A22F20C2E037A0E0FA0759F4E2EEF0E0C9
:102DD2000E94BF2E0E94C62E0E94D72F0E94EE2F65
:102DE2000BC2E137A0E0FA0769F4E4EDF0E00E94DB
:102DF200BF2E0E94C62E0E942C300E94EE2F0E94EF
:102E0200102F00C2E237A0E0FA0779F4EAE4F0E01A
:102E12000E94BF2E0E94DC2E0E942F300E9418308A
:102E2200AFE0B0E00E94102FEDC1E337A0E0FA0757
:102E320069F4E6E7F0E00E94BF2E0E943230ACE96E
:102E4200B1E00E94132F0E94102FDCC1E437A0E0F2
:102E5200FA0759F4E2E9F0E00E94BF2E0E94C62E62
:102E62000E94702FA6E9B1E0C1C1E537A0E0FA07E0
:102E720059F4EAE1F1E00E94BF2E0E94C62E0E94A0
:102E82002C300E94EE2FB8C1E637A0E0FA0759F4C1
:102E9200E6E5F0E00E94BF2E0E94DC2E0E942F3059
:102EA2000E94EE2FA9C1E737A0E0FA0759F4E2E742
:102EB200F0E00E94BF2E0E943230ACE9B1E00E94E5
:102EC200132F9AC1E837A0E0FA0759F4E0EDF0E0D9
:102ED2000E94BF2E0E94C62E0E94702F0E94772F42
:102EE20091C1E937A0E0FA0769F4E8E4F0E00E9452
:102EF200BF2E0E94DC2E0E942F300E94EE2F0E94D5
:102F0200102F80C1EA37A0E0FA0759F4EAE9F0E0AD
:102F12000E94BF2E0E94C62E0E94F12F0E94772F80
:102F220071C1EB37A0E0FA0769F4E6E4F0E00E9431
:102F3200BF2E0E94DC2E0E9439300E943E300E9439
:102F4200102F60C1EC37A0E0FA0789F4E0EEF0E060
:102F52000E94BF2E0E944730A5E1B0E00E940A30D5
:102F62000E941830A3E1B0E00E94102F4BC1ED3750
:102F7200A0E0FA0759F4E8E3F0E00E94BF2E0E94B5
:102F8200C62E0E94F12F0E94EE2F36C1EE37A0E02E
:102F9200FA0759F4EAECF0E00E94BF2E0E94C62E16
:102FA2000E94F12FA6E9B1E021C1EF37A0E0FA07B4
:102FB20059F4EEEDF0E00E94BF2E0E94DC2E0E943A
:102FC20039300E943E3018C1E038A0E0FA0769F4B7
:102FD200E6E1F1E00E94BF2E0E94DC2EE1E7F5E07F
:102FE2000E94F52E0E944E3007C1E138A0E0FA0798
:102FF20079F4E8EEF0E00E94BF2E0E9447300E9472
:103002005530A9E9B1E00E944E300E94102FFAC05B
:10301200E238A0E0FA0769F4E2EFF0E00E94BF2E86
:103022000E9458300E9418300E94DC2E0E94F02E1E
:10303200E9C0E338A0E0FA0749F4E8E0F1E00E94D1
:10304200BF2E0E94C62EAFE1B0E0CAC0E438A0E0B5
:10305200FA0759F4E4E6F0E00E94BF2E0E94C62E61
:103062000E94D72F0E94942FCDC0E538A0E0FA0726
:1030720069F4E8E8F0E00E94BF2E0E9447300E9407
:103082005530A9E9B1E00E944E30B6C0E638A0E062
:10309200FA0759F4EEE0F1E00E94BF2E0E94583088
:1030A2000E941830A0E1B0E0A7C0E738A0E0FA071C
:1030B20059F4E4E5F0E00E94BF2E0E94C62E0E9461
:1030C20029300E94942F9EC0E838A0E0FA0779F4D4
:1030D200EEE3F0E00E94BF2E0E94DC2EE1E7F5E075
:1030E2000E9455300E945F30A0E1B0E085C0E9380F
:1030F200A0E0FA0759F4ECE0F0E00E94BF2E0E9433
:10310200C62E0E947A2F0E94102F7CC0EA38A0E0BF
:10311200FA0759F4ECEDF0E00E94BF2E0E94DC2E7B
:10312200E1E7F5E00E94CD2E67C0EB38A0E0FA0798
:1031320059F4E8E5F0E00E94BF2E0E94C62E0E94DC
:103142002C30A6E9B1E052C0EC38A0E0FA0779F4DD
:10315200ECE3F0E00E94BF2E0E94DC2E0E94393088
:103162000E945F300E94DC2E0E94F02E4BC0ED3890
:10317200A0E0FA0749F4EEE0F0E00E94BF2E0E94C0
:10318200C62E0E947A2F38C0EE38A0E0FA0769F402
:10319200EAE0F1E00E94BF2E0E94DC2EE1E7F5E0BA
:1031A2000E94CD2E0E94102F2DC0EF38A0E0FA070A
:1031B20059F4E2E2F0E00E94BF2E0E94C62E0E9465
:1031C2002C300E94772F1EC0E039A0E0FA0769F583
:1031D200E6E6F0E00E94BF2E0E94C62EACE1B0E00F
:1031E200A083B183E3E7F5E0ACE9B1E0A083B1836A
:1031F200E7E7F5E0A2E1B0E0A083B183EBE7F5E019
:10320200A1E0B0E0A083B1830E9466303196E093E2
:103212006B05F0936C050E946B30E0936D05F093A3
:103222006E050E9470300E947530A0918105B091A8
:103232008205D29739F40E9484303597E0936F0566
:10324200F0937005A0918305B0918405D29749F45B
:10325200E0917705F09178053597E0937705F09343
:1032620078050E9489300E948E30E2E3F0E00E94ED
:103272007135E02139F00E94703070960E949830CA
:103282000E9475300E9489300E949D300E2EA091BE
:103292008705B09188050E94A23039F00E947030F3
:1032A200B0960E9498300E9475300E9489300E9428
:1032B2008E300E94A23039F00E947030F0960E9447
:1032C20098300E947530229608950E94F62DFA9346
:1032D200EA930E94A32D0E94A8300E94FB2D0E9417
:1032E200AE300E94972D0E94C9040E94002EFA93CC
:1032F200EA93E0E3F0E00E94902D0E94C904E0917D
:103302008105F09182050E94AE300E94622E0E94D9
:10331200C904E0918305F09184050E94AE300E94B9
:10332200672E0E94C904E0918505F0918605FA9303
:10333200EA93E0E3F0E00E949C2D0E94C904E09130
:103342008705F09188050E94AE300E945D2E0E9492
:10335200C9040E94F12D0E949C2D0E945D2E0E94A4
:10336200C9040E94EC2DFA93EA93E0E2F0E00E9495
:103372009C2D0E94C9040E94752D0E94902D0E94CE
:10338200972D0E94C9040E94802D0E949C2D0E94AC
:10339200A32D0E94C90408950C2C0D28A1F40E94AB
:1033A200762EE0EEF5E00E94BC2E0E94B130E0EEF7
:1033B200F5E00E94C0300E94CD300E94222E0E9471
:1033C200272E6F01E9CF0E94182E0E94D330EF936F
:1033D2000E94182E0E94D930AF91EA2BA1F7929A3F
:1033E2000E94CD300E946C2E0E94DF30EF930E942B
:1033F200E5300E94DF30AF91EA2BEF930E94EF306D
:103402000E94DF30AF91EA2BEF930E94EF300E94CF
:10341200F930AF91EA2B11F40C94BE1A0E94182EC7
:103422000E94D330EF930E94182E0E94D930AF91A0
:10343200EA2B11F0979AFECF0E94762EE9E0F6E091
:103442000E94BC2E0E94B130E9E0F6E00E94C0303A
:103452000E94CD300E946C2E0E941904E03041F48B
:103462000E94762EE8E2F6E00E94BC2E0E94CD3049
:103472000E94E5300E941904E03041F40E94B1300C
:10348200E7E4F6E00E94C0300E94CD300E94EF30A7
:103492000E941904E03041F40E94762EE6E6F6E03E
:1034A2000E94BC2E0E94CD300E94EF300E942E045A
:1034B200E03041F40E94B130E5E8F6E00E94BC2E13
:1034C2000E94CD300E94182E0E942E04E13009F491
:1034D200979A0E94182E0E94FF30EF930E94182E96
:1034E2000E94F930AF91EA2BEF930E946C2E0E945A
:1034F2000531AF91EA2BEF930E94E5300E9405312E
:10350200AF91EA2BC9F1979A0E94182E0E942904C2
:10351200E13041F40E94762EE4EAF6E00E94BC2EED
:103522000E94CD300E94182E0E942E04E13041F4F8
:103532000E94762EE6EBF6E00E94BC2E0E94CD3071
:103542000E946C2E0E942304E13041F40E94762EE8
:10355200E8ECF6E00E94BC2E0E94CD300E94E530DD
:103562000E942304E13041F40E94762EEAEDF6E057
:103572000E94BC2E0E94CD3035CF0E94762EECEEFA
:10358200F6E00E94BC2E0E94B130ECEEF6E00E9402
:10359200C03092980E94CD300E940B310E94A83018
:1035A200CC24DD2408950E94E5300E942904A0E085
:1035B2000E946C35EF930E94E5300E942E04A0E039
:1035C2000E946C35AF910E940E310E941531E021AC
:1035D20031F0E1E0F0E0E0936505F09366050E94CA
:1035E200E5300E94FF30EF930E94E5300E94F930EF
:1035F200AF910E940E310E949D30E02131F0E2E055
:10360200F0E0E0936505F09366050E941A31E1E06F
:103612000E946C35E02119F01E980E9427310E9409
:103622001A31E0E00E946C35E02119F01E9A0E94E6
:10363200273108951A930A93A0912105B09122058A
:103642008091230590912405AD33E0E0BE07E0E0D0
:103652008E07E0E09E0714F40C94771B0E9432312F
:10366200F501D4010E948335EF930E94902E0E94AF
:10367200D330EF930E94902E0E94D930AF91EA2B63
:10368200EF930E94902E0E941404A1E00E946C35D8
:10369200AF91EA2BEF930E94902E0E94DF30AF9100
:1036A200EA2BEF930E94902E0E941F04A1E00E9439
:1036B2006C35AF91EA2BEF930E94902E0E94053158
:1036C200AF91EA2BEF930E94902E0E94FF30AF91B0
:1036D200EA2BEF930E94902E0E94F930AF91EA2BD1
:1036E200AF91EA2319F0F40131964F01A814B904FD
:1036F200F1F40E9448068F010E943231F4013196A2
:103702004F01E1E0F0E0E017F10731F4E2E0F0E030
:103712000E94AE300E943C31E2E0F0E0E017F10797
:1037220031F4E1E0F0E00E94AE300E943C31F5015C
:103732003196E815F90511F4882499240991199113
:1037420008950E946C2E0E942304E13019F4979A86
:103752001A981B98E0913905F0913A05309711F0CB
:103762000C94F81B0E944231E881E0930905E17054
:1037720011F4D89801C0D89AE0910905E27011F4C9
:10378200D99801C0D99AE0910905E47011F4DA9848
:1037920001C0DA9AE0910905E87011F4DB9801C0E2
:1037A200DB9AE0910905E07111F4DC9801C0DC9A22
:1037B200E0910905E07211F4DD9801C0DD9AE09113
:1037C2000905E07411F4DE9801C0DE9AE091090562
:1037D200E07811F4DF9801C0DF9AA881B981A030A6
:1037E200E1E0BE070CF0949AE1E0F0E047C0E1307E
:1037F200A0E0FA0789F4A0911105B0911205809119
:103802001305909114050E944C312CF0939AE2E03A
:10381200F0E00E94543136C0E230A0E0FA0789F4A9
:103822000E946C2E0E940D04E03051F49398E0E067
:10383200EBBB94980E944231E3E0F0E00E945431E5
:1038420021C0E330A0E0FA0769F40E946C2E0E94C6
:103852001904E03031F40E944231E4E0F0E00E94C9
:10386200543110C0E430A0E0FA0761F40E946C2EDB
:103872000E940D04E13031F4E5E0F0E0E093390517
:10388200F0933A05E0913905F0913A0576C10E942C
:10389200E5300E942304E13019F4979A1A981B9894
:1038A200E0913D05F0913E05309711F00C949E1C7D
:1038B2000E945931E881E0930A05E17011F4A89859
:1038C20001C0A89AE0910A05E27011F4A99801C01A
:1038D200A99AE0910A05E47011F4AA9801C0AA9A83
:1038E200E0910A05E87011F4AB9801C0AB9AE0913F
:1038F2000A05E07111F4AC9801C0AC9AE0910A0596
:10390200E07211F4AD9801C0AD9AE0910A05E0743D
:1039120011F4AE9801C0AE9AE0910A05E07811F474
:10392200AF9801C0AF9AA881B981A030E1E0BE078B
:103932000CF0959AE1E0F0E047C0E130A0E0FA0730
:1039420089F4A0911905B0911A0580911B059091F7
:103952001C050E944C312CF0969AE2E0F0E00E94A5
:10396200633136C0E230A0E0FA0789F40E94E53004
:103972000E940D04E03051F49698E0E0E5BB959882
:103982000E945931E3E0F0E00E94633121C0E3304C
:10399200A0E0FA0769F40E94E5300E941904E030C1
:1039A20031F40E945931E4E0F0E00E94633110C02A
:1039B200E430A0E0FA0761F40E94E5300E940D04B1
:1039C200E13031F4E5E0F0E0E0933D05F0933E05AF
:1039D200E0913D05F0913E05D0C00E94182E0E9454
:1039E2002E04E13019F4979A1A981B98E0913B053E
:1039F200F0913C05309711F00C94441DE881E0935E
:103A02000705E1700E2EE0910005EE7F0E946831FD
:103A1200E695E170EE0F0E2EE0910005ED7F0E941B
:103A22006831E695E695E170EE0FEE0F0E2EE0910D
:103A32000005EB7F0E946831E695E695E695E17018
:103A4200EE0FEE0FEE0F0E2EE0910005E77F0E94C3
:103A52006831E295E170E795E0E0E7950E2EE0919E
:103A62000005EF77E0290E946E31E0910705E072D0
:103A720011F4C79801C0C79A0E947331E1E0F0E0E7
:103A82000E947D3176C0E130A0E0FA07A9F4A0914E
:103A92001505B091160580911705909118050E94A1
:103AA2004C314CF0E0910005E0620E946E31E2E0A0
:103AB200F0E00E947D315DC0E230A0E0FA0721F51E
:103AC2000E94EF300E940D04E030E9F4E09100051D
:103AD200EF7D0E946E31E0910005EE7F0E948231FF
:103AE200ED7F0E948231EB7F0E948231E77F0E944C
:103AF2008231EF770E946E31C7980E947331E3E002
:103B0200F0E00E947D3135C0E330A0E0FA0769F4AD
:103B12000E94EF300E941904E03031F40E947331A8
:103B2200E4E0F0E00E947D3124C0E430A0E0FA0736
:103B320001F50E94EF300E940D04E130D1F4E5E07E
:103B4200F0E00E947D31E0914905F0914A053097FD
:103B520039F4E1E0F0E0E0934905F0934A0509C049
:103B6200E130A0E0FA0729F4E0E0E0934905E093B0
:103B72004A05E0913B05F0913C05229608950E948A
:103B8200182E0E942904E13019F4979A1A981B986A
:103B9200E0913F05F0914005309781F5EA81E0938D
:103BA2000805E17011F4C09801C0C09AE0910805BF
:103BB200E27011F4C19801C0C19AE0910805E47065
:103BC20011F4C29801C0C29AE0910805E87011F49C
:103BD200C39801C0C39AE0910805E07111F41C98E2
:103BE20001C01C9AE0910805E07211F41D9801C011
:103BF2001D9A0E948531E1E0F0E04AC0E130A0E088
:103C0200FA0789F4A0911D05B0911E0580911F0548
:103C1200909120050E944C312CF0C59AE2E0F0E030
:103C22000E948F3139C0E230A0E0FA07A1F40E946D
:103C3200EF300E941F04E03069F4C598C098C19823
:103C4200C298C3981C981D980E948531E3E0F0E069
:103C52000E948F3121C0E330A0E0FA0769F40E948C
:103C6200EF300E942E04E03031F40E948531E4E00E
:103C7200F0E00E948F3110C0E430A0E0FA0761F456
:103C82000E94EF300E941F04E13031F4E5E0F0E0E1
:103C9200E0933F05F0934005E0913F05F091400528
:103CA2002496089568970E94E33520E030E000E012
:103CB20010E040E050E04B30E0E05E0744F4FA01EF
:103CC2000E9494310E94B72E4F5F5F4FF4CF0E9443
:103CD2009B310E949D300E2E0E94A0310E94153110
:103CE2000E94A5310E94B6310E94C03111F40C9499
:103CF200B21F0E949B31119711F00C94B21FF80170
:103D0200309749F40E94CA310E94DC310E94AE1001
:103D120001E010E025C1E130A0E0FA07C1F40E9401
:103D2200E131159724F40E94222E0E94E6310E946E
:103D3200E931159724F40E940B310E94EE310E9462
:103D4200F13121F00E94FE3102E010E009C1E230BF
:103D5200A0E0FA07C1F40E940832159724F40E94E9
:103D6200222E0E940D320E941032159724F40E94D6
:103D720015320E941A320E941D3221F00E94CA316D
:103D820003E010E0EDC0E330A0E0FA0789F40E94FE
:103D92000832159724F40E942A320E940D320E94A2
:103DA2000832159721F40E94CA3104E010E0D8C00D
:103DB200E430A0E0FA0789F40E94E131159724F477
:103DC2000E946B300E942E320E94E131159721F43D
:103DD2000E94CA3105E010E0C3C0E530A0E0FA0756
:103DE20011F00C94701F0E94A32D0E94622E0E945B
:103DF20036049F01022E032A11F40AE912E00E94FE
:103E0200313221F00E9438320E94A32E0E943C32AD
:103E12000E22AC85BD850E941531E02121F00E9461
:103E220038320E94A32E0E9445320E22AE85BF85F3
:103E32000E941531E02121F00E9438320E94A32E07
:103E42000E944E320E22A889B9890E941531E021C2
:103E520021F00E9438320E94A32E0E9457320E2275
:103E6200AA89BB890E941531E02121F00E943832D3
:103E72000E94A32E0E9460320E22AC89BD890E944C
:103E82001531E02121F00E9438320E94A32E0E94B7
:103E920069320E22AE89BF890E941531E02121F0DC
:103EA2000E9438320E94A32E0E9472320E22A88DE6
:103EB200B98D0E941531E02121F00E9438320E9412
:103EC200A32E0E947B320E22AA8DBB8D0E94153139
:103ED200E02121F00E9438320E94A32E41C0E63038
:103EE200A0E0FA0789F40E94E131159724F40E94B8
:103EF200222E0E94E6310E94E131159721F40E94A0
:103F0200CA3107E010E02CC0E730A0E0FA0779F4EC
:103F12000E940832159714F40E9484320E940832DB
:103F2200159721F40E94CA3104E010E019C0EA3961
:103F3200A2E0FA07A9F40E94E131159724F40E9445
:103F4200222E0E94E6310E94E131159749F40E9427
:103F5200FE3104E610E0E0E0E0938905E0938A0593
:103F6200C8CE0E949B310E9415310E2E0E94A031B4
:103F72000E949D300E94A5310E9489320E948E3299
:103F82000E220E949332E02111F40C94FE200E9432
:103F9200A031119711F00C94FE20F801309739F4FA
:103FA2000E94CA310E949C3201E010E025C1E1303A
:103FB200A0E0FA07C1F40E94E131159724F40E94AF
:103FC200222E0E94E6310E94E931159724F40E94C4
:103FD2000B310E94EE310E94F13121F00E94FE313C
:103FE20002E010E009C1E230A0E0FA07C1F40E9449
:103FF2000832159724F40E94DC310E940D320E948F
:104002001032159724F40E94A2320E941A320E94A2
:104012001D3221F00E94CA3103E010E0EDC0E3300E
:10402200A0E0FA0789F40E940832159724F40E944E
:10403200A7320E940D320E940832159721F40E9485
:10404200CA3104E010E0D8C0E430A0E0FA0789F4F5
:104052000E94E131159724F40E946B300E942E32A7
:104062000E94E131159721F40E94CA3105E010E067
:10407200C3C0E530A0E0FA0711F00C94BC200E9406
:10408200A32D0E94672E0E9436049F01022E032A4E
:1040920011F40AE912E00E94313221F00E94383212
:1040A2000E94A32E0E943C320E22AC85BD850E9446
:1040B2001531E02121F00E9438320E94A32E0E9485
:1040C20045320E22AE85BF850E941531E02121F0D6
:1040D2000E9438320E94A32E0E944E320E22A889DC
:1040E200B9890E941531E02121F00E9438320E94E4
:1040F200A32E0E9457320E22AA89BB890E94153133
:10410200E02121F00E9438320E94A32E0E946032E8
:104112000E22AC89BD890E941531E02121F00E9456
:1041220038320E94A32E0E9469320E22AE89BF89C4
:104132000E941531E02121F00E9438320E94A32E04
:104142000E9472320E22A88DB98D0E941531E02193
:1041520021F00E9438320E94A32E0E947B320E224E
:10416200AA8DBB8D0E941531E02121F00E943832C8
:104172000E94A32E41C0E630A0E0FA0789F40E9413
:10418200E131159724F40E94222E0E94E6310E940A
:10419200E131159721F40E94CA3107E010E02CC0EA
:1041A200E730A0E0FA0779F40E940832159714F478
:1041B2000E9484320E940832159721F40E94CA316B
:1041C20004E010E019C0EA39A2E0FA07A9F40E945B
:1041D200E131159724F40E94222E0E94E6310E94BA
:1041E200E131159749F40E94FE3104E610E0E0E067
:1041F200E0938B05E0938C05CACE0E94EA356E9659
:1042020008950E94752D0F010E94F12D0E161F06B2
:104212009CF0E0910005E0640E946E310E94AE3293
:104222000E94B3320E94AC04E9E6F7E0FA93EA9303
:104232000E94B3320E94AC040E94802D0F010E94A2
:10424200EC2D0E161F069CF0E0910005E0640E9422
:104252006E310E94AE320E94B6320E94AC04E4E893
:10426200F7E0FA93EA930E94B6320E94AC040895F2
:1042720024970E94E335E0E0EE83EF830E94A32DB2
:104282000E949E2E0E9436048F010E94A32D0E943E
:10429200A32D0E943604AF01E1E0F0E0E017F10740
:1042A20011F00C940F22EE81FF81309739F40E94B5
:1042B200CA31E1E0F0E0EE83FF83AFC0E130A0E07D
:1042C200FA07D1F40E94E131159724F40E94222EBC
:1042D2000E94E6310E94E931159724F40E940B31C5
:1042E2000E94EE310E94F13131F00E94FE31E2E093
:1042F200F0E0EE83FF8391C0E230A0E0FA07C1F460
:104302000E940832159724F40E94B9320E940D329D
:104312000E941032159724F40E94B9320E941A3278
:104322000E941D3221F00E94CA310E94BE3275C025
:10433200E330A0E0FA0711F00C94E7210E94E1318A
:10434200159724F4E2E0F0E00E942E320E94E93157
:10435200159734F4E2E0F0E00E94902D0E94EE31D5
:104362000E94F13191F10E94FE310E94A32D0E9420
:104372009E2E0E943604E887F987309711F1E130CA
:10438200A0E0FA0719F4E3E0F0E01DC0E230A0E09B
:10439200FA07D9F4E1E0F0E0E0937D05F0937E05C1
:1043A200E0910005EF7B0E946E310E946F2D0E940A
:1043B200052E0E94E1040E94AE320E94B3320E9496
:1043C200AC04E4E0F0E0EE83FF8327C0E430A0E039
:1043D200FA0719F50E94E131159724F40E94222E62
:1043E2000E94E6310E94E931159724F40E940B31B4
:1043F2000E94EE310E94F13181F00E94CA310E9486
:10440200222E0E94A32D0E949E2E0E94C904E5E046
:10441200F0E0EE83FF8300E010E03ECF0E94A32D88
:104422000E94A32D0E943604AF01E0E0EE83EF83E9
:10443200E1E0F0E0E417F50711F00C94E022EE81E0
:10444200FF81309739F40E94CA31E1E0F0E0EE8357
:10445200FF83B4C0E130A0E0FA07D1F40E94E13159
:10446200159724F40E94222E0E94E6310E94E9311F
:10447200159724F40E940B310E94EE310E94F13113
:1044820031F00E94FE31E2E0F0E0EE83FF8396C05D
:10449200E230A0E0FA07C1F40E940832159724F432
:1044A2000E94B9320E940D320E941032159724F4F4
:1044B2000E94B9320E941A320E941D3221F00E94DB
:1044C200CA310E94BE327AC0E330A0E0FA0711F08E
:1044D2000C94B8220E94E131159724F4E2E0F0E056
:1044E2000E942E320E94E931159734F4E2E0F0E0A6
:1044F2000E94902D0E94EE310E94F131B9F10E948A
:10450200FE310E94A32D0E94A32D0E9436049F011A
:10451200F901309729F4E4E0F0E0EE83FF8326C04E
:10452200E130A0E0FA0719F40E94BE321FC0E23067
:10453200A0E0FA07D9F4E4E0F0E0EE83FF83E1E0E3
:10454200F0E0E0937F05F0938005E0910005EF7BBA
:104552000E946E310E947A2D0E940C2E0E94E1046C
:104562000E94AE320E94B6320E94AC0427C0E430F0
:10457200A0E0FA0719F50E94E131159724F40E9490
:10458200222E0E94E6310E94E931159724F40E94FE
:104592000B310E94EE310E94F13181F00E94CA314A
:1045A200E5E0F0E0EE83FF830E94222E0E94A32D1D
:1045B2000E94A32D0E94C90440E050E039CF0E941E
:1045C200EA352A960895E0E0EBBBEFEFEABBE0E0C4
:1045D200E8BBEFEFE7BBE0E0E5BBEFEFE4BBE0E019
:1045E200E2BBEFEFE1BBE0E0E3B9EFEFE2B9E0E01D
:1045F200E0936200EFEFE0936100E0E0E09365009A
:10460200EFE1E0936400E0E0E0BFE7E0E3BFE0E079
:10461200E2BFE1BFEFBDEEBDEDBDECBDE7BDE6BD66
:10462200EBBDEABDE9BDE8BDE0937900E093780017
:10463200E5BDE4BDE3BDE0938B00E0938A00E09327
:104642008900E0938800E0938100E0938000E0938A
:104652008700E0938600E0938500E0938400E09376
:104662008300E0938200E0936A00EABFE9BFE1E0E1
:10467200E7BFE0E0E0937D00EBB9E8E1EAB9E6E00C
:10468200E0939500E0E0E0939000E8E0E9B9E0E033
:10469200E0939A00E0E8E8B9E0E0E0BDE6B9EDB900
:1046A200E09374000E94FC3478940E94C3320E940A
:1046B200C3320E94C3320E94C3320E943C2DE3E007
:1046C200EA930E94C12BE0E8EA930E94C12BE2E048
:1046D200EA930E94C12BE0E1EA930E94C12BE1E040
:1046E200F0E05F01CC24DD240E94C932E0E0E093D7
:1046F2006105E09362050E94D0320E94D63268942E
:1047020020F821F81E9A22F8E7EBF0E0E093670523
:10471200F0936805E4E6F0E0E0938105F09382050A
:10472200E0938305F0938405E1E0F0E0E0938505F2
:10473200F0938605E2E3F0E0E0938705F0938805C5
:10474200EDE7F0E0E0939305F0939405E0E5F0E007
:10475200E0934105F0934205E0E0E0934305E093E6
:104762004405E0E4F0E0E0934505F0934605E0E01F
:10477200E0934705E09348050E9466190E94CD190F
:104782000E9429060E941B1B0E94D41A3ADD70DD8A
:104792000E94E1040E94CA0585DA0E942906D60118
:1047A2000E949D300E2E0E94B6310E948932E1E0B5
:1047B200F0E00E9477350E220E94C0311E2E0E9428
:1047C20093320E2E0E9489320E941531E029E12196
:1047D2000E2EA0916105B09162050E949D30E029E4
:1047E20011F40C94A62BE0914D05F0914E053097F3
:1047F20011F00C94C624C69AE0916105F09162050D
:10480200309711F00C9462240E940B310E94582EB2
:104812000E94C9040E940B310E94672E0E94C904A3
:104822000E94222E0E942D2E0E94332E0E94A32D22
:104832000E94382E0E94272E0E943F2E0E94482E50
:104842000E94512E0E949E2E0E94622E0E943604C9
:10485200E0938105F09382050E949E2E0E94672EAE
:104862000E943604E0938305F0938405E0E3F0E0D0
:104872000E949C2D0E943604E0938505F0938605E4
:104882000E949E2E0E945D2E0E943604E0938705B0
:10489200F09388050E94DC320E2E0E949332E021B2
:1048A20039F00E94DE32E0933705F093380505C0F7
:1048B200E0E0E0933705E09338050E94DC310E9486
:1048C200AE10E1E0F0E0E0936105F09362050E9432
:1048D200E332119789F41E980E940832159724F446
:1048E2000E94A2320E940D320E941032159724F4C7
:1048F2000E94222E0E941A320E94E332129791F4F1
:104902000E941B1B0E940832159724F40E94153244
:104912000E940D320E941032159724F40E94DC315D
:104922000E941A320E941D3279F10E94E3321297DC
:1049320059F41E9903C00E94D41AFBCFE8EBFBE0A6
:10494200FA93EA930E944E350E94C3320E94CA3102
:104952000E94D6320E94E8320E94E332119741F45B
:104962000E94182E0E940D04E130D1F30E94EE3213
:104972000E94E332129741F40E94182E0E94100402
:10498200E130D1F30E94EE32DFC6E130A0E0FA0757
:1049920011F00C9419250E94F5320E949D30E021FD
:1049A20029F01F9A0E942A320E941A320E94F5327E
:1049B2000E94FC3239F01F9A0E941B1B0E94A732F0
:1049C2000E941A320E9402330E9483350E940633EB
:1049D200E02121F00E940D330E94EE310E9410333B
:1049E2000E9471350E2E0E9402330E947135E02121
:1049F200F1F00E9414330E941A330E9424330E9461
:104A0200E332119741F40E94182E0E940D04E13006
:104A1200D1F30E9429330E94E332129741F40E949B
:104A2200182E0E941004E130D1F30E9429338CC663
:104A3200E230A0E0FA0771F50E94E332129711F416
:104A42000E941B1B0E94E931159724F40E94303307
:104A52000E94EE310E94E9311597D9F41A9A0E9408
:104A620037330E94E332119741F40E94182E0E94BC
:104A72000D04E130D1F30E943D330E94E3321297DC
:104A820041F40E94182E0E941004E130D1F30E94DA
:104A92003D335AC6E330A0E0FA0711F00C94AC257E
:104AA2000E94E332129711F40E941B1B0E940233F0
:104AB2000E9483350E2E0E944D3331F00E948430C5
:104AC2000E94902D0E94EE310E9402330E945F33B9
:104AD2000E9463330E948335E021E1F10E94683332
:104AE2000E9437330E94F62D0E946333EA17FB07B8
:104AF200C9F40E94E332119741F40E94182E0E94D9
:104B02000D04E130D1F30E9470330E94E332129718
:104B120041F40E94182E0E941004E130D1F30E9449
:104B2200703318C00E94E332119741F40E94182E8C
:104B32000E940D04E130D1F30E9429330E94E33236
:104B4200129741F40E94182E0E941004E130D1F312
:104B52000E942933F9C5E430A0E0FA0771F50E94FA
:104B6200E332129711F40E941B1B0E94E931159740
:104B720024F40E940D330E94EE310E94E931159710
:104B8200D9F41A980E9437330E94E332119741F404
:104B92000E94182E0E940D04E130D1F30E94773357
:104BA2000E94E332129741F40E94182E0E941004D0
:104BB200E130D1F30E947733C7C5E530A0E0FA07B0
:104BC20011F00C9497260E9483330E948E33E021C9
:104BD20021F00E94222E0E940D320E9483330E94F5
:104BE200913321F00E94DC310E940D320E94E332A7
:104BF200129711F40E941B1B0E9494330E9471357C
:104C02000E9498330E941531E02141F00E94143332
:104C1200E1E0F0E0E0934F05F09350050E949433F9
:104C22000E949E330E949D300E948E33E02121F02B
:104C32000E942A320E940D320E9494330E949E33B7
:104C42000E949D300E94913321F00E94A7320E945F
:104C52000D320E9494330E949E330E94FC3211F066
:104C62000E9484320E9410330E94A1330E941531A7
:104C7200E02121F0E3E0F0E00E94A9330E9410332A
:104C82000E94A1330E949D300E948E33E02121F0C8
:104C92000E9415320E941A320E9410330E94A133E0
:104CA2000E949D300E94913321F00E94A2320E9404
:104CB2001A320E9494330E9471350E9406330E22EA
:104CC200A0914F05B09150050E949D30E0211E2E0B
:104CD2000E9494330E9471350E9406330E22A091E5
:104CE2004F05B09150050E94FC32E129F1F00E947B
:104CF20014330E941A330E94AC330E94E33211979C
:104D020041F40E94182E0E940D04E130D1F30E945A
:104D1200B1330E94E332129741F40E94182E0E948E
:104D22001004E130D1F30E94B1330EC5E630A0E0A9
:104D3200FA0711F00C9401270E94E131159724F42F
:104D42000E946B300E942E32A0915D05B0915E05EB
:104D5200119721F4E5E0F0E00E948F310E94E931E1
:104D6200159724F40E9430330E94EE310E94E33200
:104D7200129711F40E941B1B0E9402330E9471358C
:104D82000E2E0E94B9330E947135E021C1F10E94BA
:104D9200BD330E2E0E94E3320E949D30E0211E2E72
:104DA2000E94C9330E2E0E94E3320E94FC32E12996
:104DB20009F01A9AC49A1B9A0E94FE310E94D233B9
:104DC2000E94DA3524F40E94D7330E94E1330E9414
:104DD200E332119741F40E94182E0E940D04E13033
:104DE200D1F30E94E5330E94E332129741F40E940C
:104DF200182E0E941004E130D1F30E94E533A4C4BE
:104E0200E730A0E0FA0711F00C9464270E94943373
:104E12000E9483350E2E0E94002EDF010E948E32E8
:104E2200E02121F00E9470300E94F5330E94E332AB
:104E3200129711F40E941B1B0E9494330E94713539
:104E42000E2E0E94002EA0E0B0E00E947135E029F3
:104E5200C9F10E941433E0E0E0935705E09358054E
:104E62000E94002E309731F4E5E0F0E00E945431C8
:104E72000E94F833E0E00E942433E0E0E093510521
:104E8200E0935205E0935905E0935A05E0935B05E0
:104E9200E0935C050E94E332119741F40E94182EC0
:104EA2000E940D04E130D1F30E94FF330E94E332ED
:104EB200129741F40E94182E0E941004E130D1F39F
:104EC2000E94FF3341C4E830A0E0FA0711F00C94CD
:104ED200E3280E94063414F40E9417340E94E3323D
:104EE200129711F40E941B1B0E9494330E94833577
:104EF2000E2E0E94002E0E941B34E02131F0E09120
:104F02007505F09176050E94F5330E9494330E9454
:104F120071350E2E0E94002E0E941B34E02131F0CA
:104F22000E941433A1E5B5E00E9427340E94002EAE
:104F3200A0915105B09152050E942D340E94153165
:104F4200E02121F00E9414330E94F833A0915D0504
:104F5200B0915E05119721F4E5E0F0E00E948F31F7
:104F62000E9402330E9435340E9415310E943D3462
:104F72000E220E944D3331F00E9484300E94902D07
:104F82000E94EE310E9402330E945F330E9463331B
:104F92000E9483350E943D34E02121F1E0915D05BC
:104FA200F0915E05309711F40E943733E0915B0572
:104FB200F0915C05309749F40E946833E1E0F0E03B
:104FC200E0935B05F0935C050DC0E0E0E0935B05C8
:104FD200E0935C05E0932905E0932A05E0932B0515
:104FE200E0932C050E94B9330E9443340E9415318C
:104FF200E02131F0E0917705F09178050E942E32A0
:105002000E94B9330E9471350E2E0E94FB2D0E9420
:105012004B340E948335E021C9F0E0E00E94AC33BA
:10502200E0915905F0915A05309759F4A3E5B5E09E
:105032000E942734E1E0F0E0E0935905F0935A052D
:1050420005C0E0E0E0935905E0935A050E94B933A8
:105052000E9443340E949D30E02121F00E946B3077
:105062000E942E320E9402330E9435340E949D30EB
:105072000E943D34E02121F00E9430330E94EE3143
:105082000E9494330E9483350E2EA0915705B09151
:1050920058050E949D30E02131F0E0917905F091B0
:1050A2007A050E94F5330E9402330E945F330E9408
:1050B20063330E947135E0211E2EA0915705B091F5
:1050C2005805E1E0F0E00E9477350E2E0E94FB2D9C
:1050D2000E944B340E947735E029E12141F00E9481
:1050E2003733E1E0F0E0E0939105F09392050E94FE
:1050F20050340E2E0E9402330E948335E02121F0AB
:105102000E940D330E94EE310E9402330E947135DB
:105112000E2E0E945034E02129F0E0E0E093910548
:10512200E09392050E9494330E942D340E949D3098
:105132000E220E94F62D0E9463330E9471350E22C8
:105142000E94FB2D0E944B340E9471350E220E9458
:10515200B9330E9471350E220E9402330E947135CA
:105162000E943D34E02169F1E0E0E0939105E09393
:1051720092050E94CA31E0E00E942433E0E0E0930D
:105182005305E0935405E0935105E09352050E94C4
:1051920017340E94E332119741F40E94182E0E94A4
:1051A2000D04E130D1F30E9455340E94E33212978C
:1051B20041F40E94182E0E941004E130D1F30E94A3
:1051C2005534C2C2E930A0E0FA0711F00C948129EB
:1051D2000E94E332119771F50E94B9330E94833520
:1051E2000E2E0E94BD33E02121F00E94DC310E948C
:1051F200E6310E9402330E945C340E94643421F042
:105202000E940D330E94EE310E94B9330E945C3439
:105212000E946A3421F00E94222E0E94E6310E94EE
:1052220002330E945C340E94703421F00E940B31E0
:105232000E94EE310E94E3321297A1F50E94B93327
:105242000E9483350E2E0E94C933E02121F00E9474
:10525200DC310E94E6310E9402330E9476340E94C1
:10526200643421F00E940D330E94EE310E94B93362
:105272000E9476340E946A3421F00E94222E0E94FB
:10528200E6310E9402330E9476340E94703421F08B
:105292000E940B310E94EE310E94E332129711F408
:1052A2000E941B1B0E94F13151F11A981B98C4985D
:1052B2000E943733E0E00E94AC33A5E5B5E00E94DE
:1052C2002734E2E0F0E0E0934F05F09350050E94AE
:1052D200E332119741F40E94182E0E940D04E1302E
:1052E200D1F30E947A340E94E332129741F40E9471
:1052F200182E0E941004E130D1F30E947A3424C2A5
:10530200EA30A0E0FA0711F00C94FE290E94E33281
:105312000E949D300E94813469F10E948C340E9467
:10532200582E0E94C9040E949134AE17BF0724F47C
:105332000E9497340E94E8320E949134EA17FB07D8
:1053420021F40E9497340E949E340E94A5340E9448
:10535200A23021F0EBE0F0E00E94B2340E94A534CA
:10536200EAE0F0E00E947735E02121F0EEE0F0E0A3
:105372000E94B2340E94E332129711F40E941B1B66
:105382000E94E332E2E0F0E00E9471350E94813433
:1053920099F10E948C340E94672E0E94C9040E94D7
:1053A200DE3231970E94D233AE17BF0724F40E9437
:1053B20097340E94E8320E94DE3231970E94D23343
:1053C200EA17FB0721F40E9497340E949E340E9440
:1053D200B7340E94A23021F0ECE0F0E00E94B23437
:1053E2000E94B734EAE0F0E00E947735E02121F034
:1053F200EEE0F0E00E94B234A7C1EB30A0E0FA0781
:10540200A9F50E94E332129711F40E941B1B0E941D
:105412000832159724F4E7E0F0E00E94F5330E9489
:105422001032159724F4E0E9F1E00E94A9330E94BA
:105432001D32D9F00E94E1330E9414330E94BD3420
:1054420041F40E94182E0E940D04E130D1F30E9413
:10545200C5340E94E332129741F40E94182E0E9432
:105462001004E130D1F30E94C5346EC1EC30A0E0EB
:10547200FA07A9F50E94E332129711F40E941B1B4E
:105482000E940832159724F4E7E0F0E00E94F53319
:105492000E941032159724F4E1E9F1E00E94A93349
:1054A2000E941D32D9F00E94E1330E9414330E94FF
:1054B200BD3441F40E94182E0E940D04E130D1F354
:1054C2000E94C5340E94E332129741F40E94182EC2
:1054D2000E941004E130D1F30E94C53435C1ED3091
:1054E200A0E0FA0761F50E94E332129711F40E94DC
:1054F2001B1B0E941032159724F4E2E9F1E00E948E
:10550200A9330E9410321597C9F40E9417340E94E1
:10551200BD3441F40E94182E0E940D04E130D1F3F3
:105522000E94C8340E94E332129741F40E94182E5E
:105532000E941004E130D1F30E94C83405C1EE305C
:10554200A0E0FA0789F50E94E332129711F40E9453
:105552001B1B0E940832159714F40E9484320E9489
:105562000832159701F50E9414330E94D7330E9426
:10557200E332119751F40E94182E0E940D04E1307B
:10558200D1F3EFE0F0E00E94B2340E94E3321297CE
:1055920051F40E94182E0E941004E130D1F3EFE082
:1055A200F0E00E94B234D0C0EF30A0E0FA0731F54B
:1055B2000E94E332129711F40E941B1B0E94E133F6
:1055C2000E940634D4F40E9417340E94E3321197E9
:1055D20041F40E94182E0E940D04E130D1F30E9482
:1055E200C8340E94E332129741F40E94182E0E949E
:1055F2001004E130D1F30E94C834A6C0E031A0E02B
:10560200FA0711F00C94812BE0913505F0913605E3
:105612000E94D2330E9471350E2E0E94CB340E941A
:105622001531E02101F10E94D6321F980E94893281
:105632000E94DA3574F4E2E0F0E0E0935F05F09363
:1056420060050E949C32E0E0E0934D05E0934E0538
:1056520004C0E1E1F0E00E94B234E1E0F0E0E09366
:105662006305F09364050E94DE320E94D2330E94E9
:1056720071350E2E0E94DC320E220E94CB340E9423
:105682009D30E02179F01F980E94D632E1E1F0E0EE
:105692000E94B2340E94C932E2E0F0E0E093630576
:1056A200F09364050E94D0340E2E0E94DC320E224A
:1056B2000E94CB340E94FC3251F00E94C9320E94F7
:1056C200D0321F98C6980E940B310E94A8300E94C7
:1056D200D0340E2E0E9489320E9415310E220E9471
:1056E200CB340E949D30E02151F00E94C9320E94C9
:1056F200D0321E9AC6980E940B310E94A83024C054
:10570200E131A0E0FA0701F50E940832159724F46E
:105712000E94A2320E940D320E941032159724F488
:105722000E94222E0E941A320E941D3269F00E94AB
:10573200CA31E0E0E0936105E0936205CC24DD2408
:10574200E0934D05E0934E052AC81CC8FFCFA991EE
:10575200B991EE27FF276D91662311F03196FBCFA9
:105762000895AA27BB27E991F9910590002011F02D
:105772001196FBCFFD0108955F9BFECFECB108951A
:105782005D9BFECFE881ECB921960895EA81EA9308
:10579200F7DFA881B9810E942734239608952697BE
:1057A2000E94E33510E0AC85BD850E94B72EEA89E0
:1057B200FB893196EA8BFB8B3197E4912E2FE030F7
:1057C20011F40C94FB2CE12FE03039F4253211F462
:1057D20011E002C00E94D5340CC1E130A9F4253297
:1057E20019F40E94D53404C112E040E000E02D32E9
:1057F20011F401E0FEC02B3211F44BE2FAC0203268
:1058020011F440E2F6C002C0E23039F450E013E095
:10581200203311F40068EDC004C0E33011F00C94A1
:10582200FA2C203310F02A3308F007C0AAE05A9F5E
:10583200502DE22FE0535E0FDCC0E22FE33649F435
:105842000E94DE34E889F989A481AA930E94E43493
:10585200CFC0E33741F40E94DE340E94EC340E9450
:10586200A82B1E2F0AC0E03761F40E94DE340E948A
:10587200EC340E94B22B1E2F086002600F7730E0DA
:1058820035C0E43611F0E93611F4046002C0E537A0
:1058920031F4ECE8F0E0EE83FF8315E00DC0E8356B
:1058A20011F4086004C0E83711F00C94F92CE6E911
:1058B200F0E0EE83FF8314E002FF14C00E94DE34A6
:1058C2000E94F434AB85AA233AF4EA85FB850E9450
:1058D2005E35EA87FB874DE2403011F01F5F01C061
:1058E2000B7F04C00E94DE340E94F43400FD11C01C
:1058F200151778F407FF08C002FF04C00B7F242F9E
:10590200115001C020E301C020E20E94D534515061
:10591200EFCF312F01FF17C03030A1F003FF06C0D7
:10592200EE81FF812591EE83FF8305C0AE81BF81A9
:105932002D91AE83BF830E94D534503009F051506F
:105942003150EACF4BC020E3EE81FF810E94A535A2
:10595200E887F987EE81FF813296EE83FF83E8853F
:10596200F985AA85BB85AE17BF0750F02F5FA885C2
:10597200B985EA85FB85EA1BFB0BEA87FB87EFCF3C
:105982002A3328F003FF02C0295F01C0295D04FD0C
:105992001AC0213320F4A885B985119709F409C0EA
:1059A200531710F000FF01C013C020E207FF0BC025
:1059B20020E3006102FF07C00B7F4A930E94E43498
:1059C200503009F051500E94D534503009F05150F6
:1059D2003150A885B985129708F0B5CF00FF08C0ED
:1059E200503031F05150E0E2EA930E94E434F8CFB3
:1059F20010E0DDCEAC85BD850E9497350E94EA3568
:105A020064960895FF92F82E26971A930A93DE0160
:105A120014960E945A358D01E0E0EC83ED83EE830B
:105A2200EF83DE0118960E945A350E9497350E9434
:105A3200A82EE7ECFBE2FA93EA93FE013896FA937A
:105A4200EA93ADDE198108812896FF9008950E949D
:105A52000135E881EA930E943535E0E0EA930E943D
:105A62001A35EA830E941035EA810895E295EF70B3
:105A7200E695E6950895EAE5EA930E94C12BE5EAE8
:105A8200EA930C94C12BEA930E94C12BEC81EA9316
:105A92000E94C12BEA81EA930C94C12B0E94BD2B78
:105AA2000E94BD2B0C94BD2B0E949B35EF5FFF4FD4
:105AB2006F4F7F4F0E94A0350895ED91FD91319671
:105AC200FE93EE93319708950E946735A03DE9E574
:105AD200BE07E3E08E07E0E09E070895E0E0E09372
