:080000000C946C030C94000049
:100008000C9400000C9400000C9400000C94000068
:100018000C9400000C9400000C9400000C94000058
:100028000C9400000C9400000C9400000C94000048
:100038000C9400000C9400000C94E7030C9400004E
:100048000C9400000C9400000C9400000C94000028
:100058000C9400000C9400000C9400000C94000018
:100068000C9400000C9400000C9400000C94000008
:100078000C9400000C9400000C9400000C940000F8
:100088000C9400001027E80364000A000100001027
:100098000001100001000000202020202020202046
:1000A8002020202020202020202020202020202048
:1000B8002020202020202020202020202020202038
:1000C80020202020202020200057637A7974616E38
:1000D8006F20706F707261776E79207A61636973CF
:1000E8006B004369736E69656E6965207A61206D7E
:1000F800616C65202D206D6E69656A737A65206E66
:10010800697A2036206261720038362D30313730F6
:100118000038362D313034330038362D3136373506
:100128000038362D323039380038372D30313730F5
:100138000038372D313034330038372D31363735E4
:100148000038372D323039380038362D30313932D1
:100158000038362D313035340038362D31363736C3
:100168000038362D323133320038372D30313932BC
:100178000038372D313035340038372D31363736A1
:100188000038372D323133320038362D303139339B
:100198000038362D313231360038362D3138333289
:1001A8000038362D323137340038372D3031393375
:1001B8000038372D313231360038372D3138333267
:1001C8000038372D323137340038362D3031393454
:1001D8000038362D313334310038362D3138333349
:1001E8000038362D323138300038372D3031393437
:1001F8000038372D313334310038372D3138333327
:100208000038372D323138300038362D3036363315
:100218000038362D313334390038362D31383334FF
:100228000038362D323230340038372D30363633F8
:100238000038372D313334390038372D31383334DD
:100248000038372D323230340038362D30373638D2
:100258000038362D313335370038362D31383438BB
:100268000038362D323231320038372D30373638B3
:100278000038372D313335370038372D3138343899
:100288000038372D323231320038362D30383030A0
:100298000038362D313336330038362D3139303485
:1002A8000038362D323234310038372D303830307E
:1002B8000038372D313336330038372D3139303463
:1002C8000038372D323234310038362D303831315C
:1002D8000038362D313532330038362D3139323940
:1002E8000038362D323236310038372D303831313A
:1002F8000038372D313532330038372D313932391E
:100308000038372D323236310038362D3038313416
:100318000038362D313533300038362D3139333603
:100328000038362D323238350038372D30383134F0
:100338000038372D313533300038372D31393336E1
:100348000038372D323238350038362D30383135CF
:100358000038362D313535310038362D31393431C4
:100368000038362D323238360038372D30383135AE
:100378000038372D313535310038372D31393431A2
:100388000038372D323238360038362D303831368D
:100398000038362D313535320038362D3230303789
:1003A8000038362D323239320038372D3038313670
:1003B8000038372D313535320038372D3230303767
:1003C8000038372D323239320038362D303831374F
:1003D8000038362D313630320038362D323031374C
:1003E8000038362D323338340038372D303831372D
:1003F8000038372D313630320038372D323031372A
:100408000038372D323338340038362D3038343709
:100418000038362D313632300038362D3230313909
:100428000038362D323338350038372D30383437E8
:100438000038372D313632300038372D32303139E7
:100448000038372D323338350038362D30383534CA
:100458000038362D313632320038362D32303238C7
:100468000038362D323433370038372D30383534AC
:100478000038372D313632320038372D32303238A5
:100488000038372D323433370038362D303836328D
:100498000038362D313632350038362D3230353287
:1004A8000038362D323439320038372D303836326C
:1004B8000038372D313632350038372D3230353265
:1004C8000038372D323439320038362D303933354B
:1004D8000038362D313634380038362D323038323F
:1004E8000038362D323530300038372D3039333535
:1004F8000038372D313634380038372D323038321D
:100508000038372D323530300038362D313031391A
:100518000038362D313634390038362D32303833FC
:100528000038362D323538350038372D31303139ED
:100538000038372D313634390038372D32303833DA
:100548000038372D323632340038362D31303237D4
:100558000038362D313636390038362D32303837B6
:100568000038362D323632340038372D31303237B4
:100578000038372D313636390038372D3230383794
:100588000038372D32353835004E69652077637A63
:100598007974616E6F207A616369736B7500506F4F
:1005A8007A79636A6F6E756A6520756B6C616479B8
:1005B800206C696E696F77652058595A00537465C5
:1005C800726F776E696B2031202D207779706F7A82
:1005D80079636A6F6E6F77616C656D0053746572CD
:1005E8006F776E696B2032202D207779706F7A795A
:1005F800636A6F6E6F77616C656D00537465726FB7
:10060800776E696B2033202D207779706F7A796344
:100618006A6F6E6F77616C656D00537465726F7782
:100628006E696B2034202D207779706F7A79636A30
:100638006F6E6F77616C656D005779706F7A79634B
:100648006A6F6E6F77616E6F20756B6C616479206D
:100658006C696E696F77652058595A0050727A65CF
:100668006369617A656E6961204C45465333325F30
:10067800310050727A656369617A656E6961204CF0
:1006880045465333325F320050727A656369617A46
:10069800656E6961204C4546535F58595F3200507A
:1006A800727A656369617A656E6961204C45465363
:1006B8005F58595F310001002D4E414E00494E46AA
:1006C8000000010002009E0001007F05BE06000038
:1006D800F894EE27ECBBF1E0F5BFE5BFE0936C00C2
:1006E800F8E1F1BDE1BD8DE0A2E0BB27ED938A956D
:1006F800E9F780E090E1A0E0B1E0ED930197E9F738
:10070800EAECF6E085919591009761F0A591B59195
:1007180005901590BF01F00105900D920197E1F742
:10072800FB01F0CF8BBFEFEFEDBFE0E1EEBFC0E024
:10073800D5E00C94910F0E94B11725C00E94B11703
:10074800E69521C00E94B117E695E6951CC00E9467
:10075800B117E695E695E69516C00E94B117E295A1
:1007680012C00E94B117E295EF70E6950CC00E9486
:10077800B117E295EF70E695E69505C00E94B117AE
:10078800EE1FE0E0EE1FE170239608951A930A9396
:1007980000E010E00E94C017E4E0EA930E944616C9
:1007A800E3E80E94C817E1E0EA930E9446160E9417
:1007B800D3170E94D3170E94D3170E2F1127F801C1
:1007C800198108815CC06A937A93AA93BA93EA93D1
:1007D800FA93EFB7EA93ADE0B5E00E94D917A1E12B
:1007E800B5E00E94D917A5E1B5E00E94D917A9E1A3
:1007F800B5E00E94D917ADE1B5E00E94D917A1E292
:10080800B5E00E94D917E991EFBFF991E991B99143
:10081800A9917991699118951A930A9300E010E0CB
:100828000E94E2170E9437168F010D5F1F4F0E942A
:10083800C0170A930E944616E2E80E94C8170E9451
:10084800E21780E00E948A1722961981088128966B
:1008580008950E94C017E5E0EA930E94E717EA812D
:10086800EA930E944616E881EA930E944616E0E061
:10087800EA930E944616EC81EA930E944616269651
:10088800089524970E941E1C00E010E0EC85FD8569
:10089800FA93EA930E9437168F010D5F1F4FAA85BE
:1008A800BB85119759F420E030E040E550E0E0E5E1
:1008B800F0E0E887F987E0E0EE83EF83AA85BB855F
:1008C800129759F420E030E040E250E0E0E4F0E034
:1008D800E887F987E0E0EE83EF830E94C0170A9368
:1008E8000E94E7172A930E9446164A930E944616CA
:1008F800EC85FD85FA93EA9380E00E948A17229698
:100908000E94ED170E94F2170E94F21785DFE1EDB1
:10091800F0E0FA93EA930E94F2170E94F2177CDF44
:100928000E94251C2E9608951A930A9301E010E060
:10093800002E012AB9F40E94F71719DFE03029F4D4
:1009480001E010E0E0EAF0E008C000E010E00E94FA
:10095800ED170E940118EAEEF0E0FA93EA930E947C
:100968000118E6CF0991199108950E940F18E3DE46
:10097800E1700E2EE0910205EE7F0E941918DEDE6E
:10098800E170EE0F0E2EE0910205ED7F0E9419181E
:10099800D9DEE170EE0FEE0F0E2EE0910205EB7F2F
:1009A8000E941918D4DEE170EE0FEE0FEE0F0E2E36
:1009B800E0910205E77F0E941918CFDEE170E29509
:1009C800E07F0E2EE0910205EF7E0E941918C9DE25
:1009D800E170E295E07FEE0F0E2EE0910205EF7DCB
:1009E8000E941918C4DEE170E295E07FEE0FEE0F69
:1009F8000E2EE0910205EF7B0E941918BFDEE17010
:100A0800E795E0E0E7950E2EE0910205EF77E02903
:100A1800E09302050E941D18B9DE6F01A09102053E
:100A2800A13041F4E1E1F1E00E942618E1E0F0E0B4
:100A3800ED93FC93A0910205A23041F4E9E1F1E0C5
:100A48000E942618E2E0F0E0ED93FC93A0910205E5
:100A5800A33041F4E1E2F1E00E942618E3E0F0E07F
:100A6800ED93FC93A0910205A43041F4E9E2F1E092
:100A78000E942618E4E0F0E0ED93FC93A0910205B3
:100A8800A53041F4E1E3F1E00E942618E5E0F0E04A
:100A9800ED93FC93A0910205A63041F4E9E3F1E05F
:100AA8000E942618E6E0F0E0ED93FC93A091020581
:100AB800A73041F4E1E4F1E00E942618E7E0F0E015
:100AC800ED93FC93A0910205A83041F4E9E4F1E02C
:100AD8000E942618E8E0F0E0ED93FC93A09102054F
:100AE800A93041F4E1E5F1E00E942618E9E0F0E0E0
:100AF800ED93FC93A0910205AA3041F4E9E5F1E0F9
:100B08000E942618EAE0F0E0ED93FC93A09102051C
:100B1800AB3041F4E1E6F1E00E942618EBE0F0E0AA
:100B2800ED93FC93A0910205AC3041F4E9E6F1E0C5
:100B38000E942618ECE0F0E0ED93FC93A0910205EA
:100B4800AD3041F4E1E7F1E00E942618EDE0F0E075
:100B5800ED93FC93A0910205AE3041F4E9E7F1E092
:100B68000E942618EEE0F0E0ED93FC93A0910205B8
:100B7800AF3041F4E1E8F1E00E942618EFE0F0E040
:100B8800ED93FC93A0910205A03141F4E9E8F1E06E
:100B98000E942618E0E1F0E0ED93FC93A091020595
:100BA800A13141F4E1E9F1E00E942618E1E1F0E029
:100BB800ED93FC93A0910205A23141F4E9E9F1E03B
:100BC8000E942618E2E1F0E0ED93FC93A091020563
:100BD800A33141F4E1EAF1E00E942618E3E1F0E0F4
:100BE800ED93FC93A0910205A43141F4E9EAF1E008
:100BF8000E942618E4E1F0E0ED93FC93A091020531
:100C0800A53141F4E1EBF1E00E942618E5E1F0E0BE
:100C1800ED93FC93A0910205A63141F4E9EBF1E0D4
:100C28000E942618E6E1F0E0ED93FC93A0910205FE
:100C3800A73141F4E1ECF1E00E942618E7E1F0E089
:100C4800ED93FC93A0910205A83141F4E9ECF1E0A1
:100C58000E942618E8E1F0E0ED93FC93A0910205CC
:100C6800A93141F4E1EDF1E00E942618E9E1F0E054
:100C7800ED93FC93A0910205AA3141F4E9EDF1E06E
:100C88000E942618EAE1F0E0ED93FC93A09102059A
:100C9800AB3141F4E1EEF1E00E942618EBE1F0E01F
:100CA800ED93FC93A0910205AC3141F4E9EEF1E03B
:100CB8000E942618ECE1F0E0ED93FC93A091020568
:100CC800AD3141F4E1EFF1E00E942618EDE1F0E0EA
:100CD800ED93FC93A0910205AE3141F4E9EFF1E008
:100CE8000E942618EEE1F0E0ED93FC93A091020536
:100CF800AF3141F4E1E0F2E00E942618EFE1F0E0C4
:100D0800ED93FC93A0910205A03241F4E9E0F2E0F2
:100D18000E942618E0E2F0E0ED93FC93A091020512
:100D2800A13241F4E1E1F2E00E942618E1E2F0E0AC
:100D3800ED93FC93A0910205A23241F4E9E1F2E0BF
:100D48000E942618E2E2F0E0ED93FC93A0910205E0
:100D5800A33241F4E1E2F2E00E942618E3E2F0E077
:100D6800ED93FC93A0910205A43241F4E9E2F2E08C
:100D78000E942618E4E2F0E0ED93FC93A0910205AE
:100D8800A53241F4E1E3F2E00E942618E5E2F0E042
:100D9800ED93FC93A0910205A63241F4E9E3F2E059
:100DA8000E942618E6E2F0E0ED93FC93A09102057C
:100DB800A73241F4E1E4F2E00E942618E7E2F0E00D
:100DC800ED93FC93A0910205A83241F4E9E4F2E026
:100DD8000E942618E8E2F0E0ED93FC93A09102054A
:100DE800A93241F4E1E5F2E00E942618E9E2F0E0D8
:100DF800ED93FC93A0910205AA3241F4E9E5F2E0F3
:100E08000E942618EAE2F0E0ED93FC93A091020517
:100E1800AB3241F4E1E6F2E00E942618EBE2F0E0A2
:100E2800ED93FC93A0910205AC3241F4E9E6F2E0BF
:100E38000E942618ECE2F0E0ED93FC93A0910205E5
:100E4800AD3241F4E1E7F2E00E942618EDE2F0E06D
:100E5800ED93FC93A0910205AE3241F4E9E7F2E08C
:100E68000E942618EEE2F0E0ED93FC93A0910205B3
:100E7800AF3241F4E1E8F2E00E942618EFE2F0E038
:100E8800ED93FC93A0910205A03341F4E9E8F2E068
:100E98000E942618E0E3F0E0ED93FC93A091020590
:100EA800A13341F4E1E9F2E00E942618E1E3F0E021
:100EB800ED93FC93A0910205A23341F4E9E9F2E035
:100EC8000E942618E2E3F0E0ED93FC93A09102055E
:100ED800A33341F4E1EAF2E00E942618E3E3F0E0EC
:100EE800ED93FC93A0910205A43341F4E9EAF2E002
:100EF8000E942618E4E3F0E0ED93FC93A09102052C
:100F0800A53341F4E1EBF2E00E942618E5E3F0E0B6
:100F1800ED93FC93A0910205A63341F4E9EBF2E0CE
:100F28000E942618E6E3F0E0ED93FC93A0910205F9
:100F3800A73341F4E1ECF2E00E942618E7E3F0E081
:100F4800ED93FC93A0910205A83341F4E9ECF2E09B
:100F58000E942618E8E3F0E0ED93FC93A0910205C7
:100F6800A93341F4E1EDF2E00E942618E9E3F0E04C
:100F7800ED93FC93A0910205AA3341F4E9EDF2E068
:100F88000E942618EAE3F0E0ED93FC93A091020595
:100F9800AB3341F4E1EEF2E00E942618EBE3F0E017
:100FA800ED93FC93A0910205AC3341F4E9EEF2E035
:100FB8000E942618ECE3F0E0ED93FC93A091020563
:100FC800AD3341F4E1EFF2E00E942618EDE3F0E0E2
:100FD800ED93FC93A0910205AE3341F4E9EFF2E002
:100FE8000E942618EEE3F0E0ED93FC93A091020531
:100FF800AF3341F4E1E0F3E00E942618EFE3F0E0BC
:10100800ED93FC93A0910205A03441F4E9E0F3E0EC
:101018000E942618E0E4F0E0ED93FC93A09102050D
:10102800A13441F4E1E1F3E00E942618E1E4F0E0A4
:10103800ED93FC93A0910205A23441F4E9E1F3E0B9
:101048000E942618E2E4F0E0ED93FC93A0910205DB
:10105800A33441F4E1E2F3E00E942618E3E4F0E06F
:10106800ED93FC93A0910205A43441F4E9E2F3E086
:101078000E942618E4E4F0E0ED93FC93A0910205A9
:10108800A53441F4E1E3F3E00E942618E5E4F0E03A
:10109800ED93FC93A0910205A63441F4E9E3F3E053
:1010A8000E942618E6E4F0E0ED93FC93A091020577
:1010B800A73441F4E1E4F3E00E942618E7E4F0E005
:1010C800ED93FC93A0910205A83441F4E9E4F3E020
:1010D8000E942618E8E4F0E0ED93FC93A091020545
:1010E800A93441F4E1E5F3E00E942618E9E4F0E0D0
:1010F800ED93FC93A0910205AA3441F4E9E5F3E0ED
:101108000E942618EAE4F0E0ED93FC93A091020512
:10111800AB3441F4E1E6F3E00E942618EBE4F0E09A
:10112800ED93FC93A0910205AC3441F4E9E6F3E0B9
:101138000E942618ECE4F0E0ED93FC93A0910205E0
:10114800AD3441F4E1E7F3E00E942618EDE4F0E065
:10115800ED93FC93A0910205AE3441F4E9E7F3E086
:101168000E942618EEE4F0E0ED93FC93A0910205AE
:10117800AF3441F4E1E8F3E00E942618EFE4F0E030
:10118800ED93FC93A0910205A03541F4E9E8F3E062
:101198000E942618E0E5F0E0ED93FC93A09102058B
:1011A800A13541F4E1E9F3E00E942618E1E5F0E019
:1011B800ED93FC93A0910205A23541F4E9E9F3E02F
:1011C8000E942618E2E5F0E0ED93FC93A091020559
:1011D800A33541F4E1EAF3E00E942618E3E5F0E0E4
:1011E800ED93FC93A0910205A43541F4E9EAF3E0FC
:1011F8000E942618E4E5F0E0ED93FC93A091020527
:10120800A53541F4E1EBF3E00E942618E5E5F0E0AE
:10121800ED93FC93A0910205A63541F4E9EBF3E0C8
:101228000E942618E6E5F0E0ED93FC93A0910205F4
:10123800A73541F4E1ECF3E00E942618E7E5F0E079
:10124800ED93FC93A0910205A83541F4E9ECF3E095
:101258000E942618E8E5F0E0ED93FC93A0910205C2
:10126800A93541F4E1EDF3E00E942618E9E5F0E044
:10127800ED93FC93A0910205AA3541F4E9EDF3E062
:101288000E942618EAE5F0E0ED93FC93A091020590
:10129800AB3541F4E1EEF3E00E942618EBE5F0E00F
:1012A800ED93FC93A0910205AC3541F4E9EEF3E02F
:1012B8000E942618ECE5F0E0ED93FC93A09102055E
:1012C800AD3541F4E1EFF3E00E942618EDE5F0E0DA
:1012D800ED93FC93A0910205AE3541F4E9EFF3E0FC
:1012E8000E942618EEE5F0E0ED93FC93A09102052C
:1012F800AF3541F4E1E0F4E00E942618EFE5F0E0B4
:10130800ED93FC93A0910205A03641F4E9E0F4E0E6
:101318000E942618E0E6F0E0ED93FC93A091020508
:10132800A13641F4E1E1F4E00E942618E1E6F0E09C
:10133800ED93FC93A0910205A23641F4E9E1F4E0B3
:101348000E942618E2E6F0E0ED93FC93A0910205D6
:10135800A33641F4E1E2F4E00E942618E3E6F0E067
:10136800ED93FC93A0910205A43641F4E9E2F4E080
:101378000E942618E4E6F0E0ED93FC93A0910205A4
:10138800A53641F4E1E3F4E00E942618E5E6F0E032
:10139800ED93FC93A0910205A63641F4E9E3F4E04D
:1013A8000E942618E6E6F0E0ED93FC93A091020572
:1013B800A73641F4E1E4F4E00E942618E7E6F0E0FD
:1013C800ED93FC93A0910205A83641F4E9E4F4E01A
:1013D8000E942618E8E6F0E0ED93FC93A091020540
:1013E800A93641F4E1E5F4E00E942618E9E6F0E0C8
:1013F800ED93FC93A0910205AA3641F4E9E5F4E0E7
:101408000E942618EAE6F0E0ED93FC93A09102050D
:10141800AB3641F4E1E6F4E00E942618EBE6F0E092
:10142800ED93FC93A0910205AC3641F4E9E6F4E0B3
:101438000E942618ECE6F0E0ED93FC93A0910205DB
:10144800AD3641F4E1E7F4E00E942618EDE6F0E05D
:10145800ED93FC93A0910205AE3641F4E9E7F4E080
:101468000E942618EEE6F0E0ED93FC93A0910205A9
:10147800AF3641F4E1E8F4E00E942618EFE6F0E028
:10148800ED93FC93A0910205A03741F4E9E8F4E05C
:101498000E942618E0E7F0E0ED93FC93A091020586
:1014A800A13741F4E1E9F4E00E942618E1E7F0E011
:1014B800ED93FC93A0910205A23741F4E9E9F4E029
:1014C8000E942618E2E7F0E0ED93FC93A091020554
:1014D800A33741F4E1EAF4E00E942618E3E7F0E0DC
:1014E800ED93FC93A0910205A43741F4E9EAF4E0F6
:1014F8000E942618E4E7F0E0ED93FC93A091020522
:10150800A53741F4E1EBF4E00E942618E5E7F0E0A6
:10151800ED93FC93A0910205A63741F4E9EBF4E0C2
:101528000E942618E6E7F0E0ED93FC93A0910205EF
:10153800A73741F4E1ECF4E00E942618E7E7F0E071
:10154800ED93FC93A0910205A83741F4E9ECF4E08F
:101558000E942618E8E7F0E0ED93FC93A0910205BD
:10156800A93741F4E1EDF4E00E942618E9E7F0E03C
:10157800ED93FC93A0910205AA3741F4E9EDF4E05C
:101588000E942618EAE7F0E0ED93FC93A09102058B
:10159800AB3741F4E1EEF4E00E942618EBE7F0E007
:1015A800ED93FC93A0910205AC3741F4E9EEF4E029
:1015B8000E942618ECE7F0E0ED93FC93A091020559
:1015C800AD3741F4E1EFF4E00E942618EDE7F0E0D2
:1015D800ED93FC93A0910205AE3741F4E9EFF4E0F6
:1015E8000E942618EEE7F0E0ED93FC93A091020527
:1015F800AF3741F4E1E0F5E00E942618EFE7F0E0AC
:10160800ED93FC93A0910205A03841F4E9E0F5E0E0
:101618000E942618E0E8F0E0ED93FC93A091020503
:10162800A13841F4E1E1F5E00E942618E1E8F0E094
:10163800ED93FC93A0910205A23841F4E9E1F5E0AD
:101648000E942618E2E8F0E0ED93FC93A0910205D1
:10165800A33841F4E1E2F5E00E942618E3E8F0E05F
:10166800ED93FC93A0910205A43841F4E9E2F5E07A
:101678000E942618E4E8F0E0ED93FC93A09102059F
:10168800A53841F4E1E3F5E00E942618E5E8F0E02A
:10169800ED93FC93A0910205A63841F4E9E3F5E047
:1016A8000E942618E6E8F0E0ED93FC93A09102056D
:1016B800A73841F4E1E4F5E00E942618E7E8F0E0F5
:1016C800ED93FC93A0910205A83841F4E9E4F5E014
:1016D8000E942618E8E8F0E0ED93FC93A09102053B
:1016E800A93841F4E1E5F5E00E942618E9E8F0E0C0
:1016F800ED93FC93A0910205AA3841F4E9E5F5E0E1
:101708000E942618EAE8F0E0ED93FC93A091020508
:10171800AB3841F4E1E6F5E00E942618EBE8F0E08A
:10172800ED93FC93A0910205AC3841F4E9E6F5E0AD
:101738000E942618ECE8F0E0ED93FC93A0910205D6
:10174800AD3841F4E1E7F5E00E942618EDE8F0E055
:10175800ED93FC93A0910205AE3841F4E9E7F5E07A
:101768000E942618EEE8F0E0ED93FC93A0910205A4
:10177800AF3841F4E1E8F5E00E942618EFE8F0E020
:10178800ED93FC93A0910205A03941F4E9E8F5E056
:101798000E942618E0E9F0E0ED93FC930895E091AB
:1017A8000905F0910A05309739F40E94ED170E9457
:1017B80001180E9434181CC0E232A0E0FA07C1F4F4
:1017C800EAE5F0E0E0936B05F0936C05EDE6F5E0F3
:1017D800A0E0B0E0A083B183EFE6F5E0ABE5B0E0D0
:1017E800A083B183E1E7F5E0A0E0B0E0A083B18396
:1017F800E0910B05F0910C05309731F40E94ED173C
:101808000E9439180E9434180895929A0E94471825
:101818000E94F7170E944D18EF930E9453180E94D8
:101828004D18AF91EA2BEF930E945D180E944D1856
:10183800AF91EA2BEF930E945D180E946718AF9151
:10184800EA2B11F40C947B0C0E94ED170E940118EE
:10185800E6EAF5E00E946D180E94ED170E9439181B
:10186800E6EAF5E00E9470180E9447180E94F717F0
:101878000E94AB03E03051F40E94ED170E9401185A
:10188800E5ECF5E00E946D180E9447180E94531875
:101898000E94AB03E03051F40E94ED170E94391802
:1018A800E4EEF5E00E9470180E9447180E945D1847
:1018B8000E94AB03E03051F40E94ED170E9401181A
:1018C800E3E0F6E00E946D180E9447180E945D1838
:1018D8000E94C203E03051F40E94ED170E943918AB
:1018E800E2E2F6E00E946D180E94471891CF0E942C
:1018F800ED170E940118E1E4F6E00E946D180E94BD
:10190800ED170E943918E1E4F6E00E9470189298E9
:101918000E94471808950E9453180E94BB03A0E034
:101928000E94D81BEF930E9453180E94C203A0E0A4
:101938000E94D81BAF910E9473180E947A18E02168
:1019480039F0E1E0F0E0E0936705F0936805C69AA6
:101958000E9453180E94BB03A1E00E94D81BEF937A
:101968000E9453180E946718AF910E9473180E9432
:101978007F18E02139F0E2E0F0E0E0936705F093AA
:101988006805C6980E948418E1E00E94D81BE021EF
:1019980019F01E980E9491180E948418E0E00E9495
:1019A800D81BE02119F01E9A0E9491180895A09161
:1019B8001D05B0911E0580911F0590912005A93243
:1019C800E0E0BE07E0E08E07E0E09E0714F40C9428
:1019D800410D0E949C18F501D4010E94EF1BEF9362
:1019E8000E940F180E949F03A1E00E94D81BEF934A
:1019F8000E940F180E94A203A1E00E94D81BAF9179
:101A0800EA2BEF930E940F180E94A603A1E00E9400
:101A1800D81BAF91EA2BEF930E940F180E944D1824
:101A2800AF91EA2BEF930E940F180E94B103A1E037
:101A38000E94D81BAF91EA2BEF930E940F180E94C7
:101A4800B503A1E00E94D81BAF91EA2BEF930E9447
:101A58000F180E94BB03A1E00E94D81BAF91EA2B8C
:101A6800EF930E940F180E946718AF91EA2BAF916D
:101A7800EA2319F0F40131964F01A814B904B9F416
:101A88000E94B9040E949C18F40131964F01E1E0CC
:101A9800F0E0EC15FD0519F4E2E0F0E002C0E1E049
:101AA800F0E0FA93EA930E941D180E942D04F501B4
:101AB8003196E815F90511F4882499240895E091E0
:101AC8003305F0913405309769F40E94A618EA812D
:101AD800EBBBE881E03011F4949801C0949AE1E0FE
:101AE800F0E047C0E130A0E0FA0789F4A0910D05C5
:101AF800B0910E0580910F05909110050E94B018C5
:101B08002CF0939AE2E0F0E00E94B81836C0E23078
:101B1800A0E0FA0789F40E94F7170E949F03E030BB
:101B280051F49398E0E0EBBB94980E94A618E3E088
:101B3800F0E00E94B81821C0E330A0E0FA0769F489
:101B48000E94F7170E94AB03E03031F40E94A618F8
:101B5800E4E0F0E00E94B81810C0E430A0E0FA0712
:101B680061F40E94F7170E949F03E13031F4E5E029
:101B7800F0E0E0933305F0933405E0913305F091FC
:101B8800340562C0E0913705F0913805309769F463
:101B98000E94BD18EA81E5BBE881E03011F4959810
:101BA80001C0959AE1E0F0E047C0E130A0E0FA0713
:101BB80089F4A0911505B0911605809117059091AB
:101BC80018050E94B0182CF0969AE2E0F0E00E9406
:101BD800C71836C0E230A0E0FA0789F40E9453180B
:101BE8000E949F03E03051F49698E0E0E5BB959899
:101BF8000E94BD18E3E0F0E00E94C71821C0E3305E
:101C0800A0E0FA0769F40E9453180E94AB03E03081
:101C180031F40E94BD18E4E0F0E00E94C71810C03B
:101C2800E430A0E0FA0761F40E9453180E949F0371
:101C3800E13031F4E5E0F0E0E0933705F093380562
:101C4800E0913705F091380524960895E09135051F
:101C5800F0913605309711F00C94750EE881E1701B
:101C68000E2EE0910005EE7FE029E0930005E98162
:101C7800E170EE0F0E2EE0910005ED7FE029E09374
:101C88000005EA81E170EE0FEE0F0E2EE0910005DF
:101C9800EB7FE029E0930005EB81E170EE0FEE0F9A
:101CA800EE0F0E2EE0910005E77FE029E093000596
:101CB800EC81E170E795E0E0E7950E2EE0910005F4
:101CC800EF77E0290E94CC18ED81E03011F4C79835
:101CD80001C0C79A0E94D118E1E0F0E00E94DB1829
:101CE80076C0E130A0E0FA07A9F4A0911105B091FF
:101CF800120580911305909114050E94B0184CF0BC
:101D0800E0910005E0620E94CC18E2E0F0E00E9459
:101D1800DB185DC0E230A0E0FA0721F50E945D18EB
:101D28000E949F03E030E9F4E0910005EF7D0E94F6
:101D3800CC18E0910005EE7F0E94E018ED7F0E942C
:101D4800E018EB7F0E94E018E77F0E94E018EF7729
:101D58000E94CC18C7980E94D118E3E0F0E00E94D6
:101D6800DB1835C0E330A0E0FA0769F40E945D187B
:101D78000E94AB03E03031F40E94D118E4E0F0E0B7
:101D88000E94DB1824C0E430A0E0FA0701F50E94A5
:101D98005D180E949F03E130D1F4E5E0F0E00E9475
:101DA800DB18E0914305F0914405309739F4E1E000
:101DB800F0E0E0934305F093440509C0E130A0E06A
:101DC800FA0729F4E0E0E0934305E0934405E09145
:101DD8003505F09136059FC0E0913905F0913A0537
:101DE800309749F5E881E03011F4C09801C0C09AF5
:101DF800E981E03011F4C19801C0C19AEA81E0306C
:101E080011F4C29801C0C29AEB81E03011F4C39872
:101E180001C0C39AEC81E03011F41C9801C01C9AEF
:101E2800ED81E03011F41D9801C01D9A0E94E3185D
:101E3800E1E0F0E068C0E130A0E0FA0789F4A091A1
:101E48001905B0911A0580911B0590911C050E94F7
:101E5800B0182CF0C59AE2E0F0E00E94ED1857C0E7
:101E6800E230A0E0FA0791F50E945D180E94B103E4
:101E7800E03059F5C598E881E03011F4C09801C008
:101E8800C09AE981E03011F4C19801C0C19AEA8191
:101E9800E03011F4C29801C0C29AEB81E03011F42D
:101EA800C39801C0C39AEC81E03011F41C9801C0BA
:101EB8001C9AED81E03011F41D9801C01D9A0E9412
:101EC800E318E3E0F0E00E94ED1821C0E330A0E061
:101ED800FA0769F40E945D180E94C203E03031F4E9
:101EE8000E94E318E4E0F0E00E94ED1810C0E4302E
:101EF800A0E0FA0761F40E945D180E94B103E13086
:101F080031F4E5E0F0E0E0933905F0933A05E0912B
:101F18003905F0913A0526960895E0E0EBBBEFEF1E
:101F2800EABBE0E0E8BBEFEFE7BBE0E0E5BBEFEFE3
:101F3800E4BBE0E0E2BBEFEFE1BBE0E0E3B9EFEFE9
:101F4800E2B9E0E0E0936200EFEFE0936100E0E0E7
:101F5800E0936500EFE1E0936400E0E0E0BFE7E0D4
:101F6800E3BFE0E0E2BFE1BFEFBDEEBDEDBDECBD1C
:101F7800E7BDE6BDEBBDEABDE9BDE8BDE09379008C
:101F8800E0937800E5BDE4BDE3BDE0938B00E0930A
:101F98008A00E0938900E0938800E0938100E09351
:101FA8008000E0938700E0938600E0938500E0934B
:101FB8008400E0938300E0938200E0936A00EABF24
:101FC800E9BFE1E0E7BFE0E0E0937D00EBB9E8E1DD
:101FD800EAB9E6E0E0939500E0E0E0939000E8E0FD
:101FE800E9B9E0E0E0939A00E0E8E8B9E0E0E0BDB4
:101FF800E6B9EDB9E09374000E946D1B78940E94D5
:10200800F2180E94F2180E94F2180E94F2180E9418
:10201800C017E3E0EA930E944616E0E8EA930E94BC
:102028004616E2E0EA930E944616E0E1EA930E942F
:102038004616E1E0F0E05F01E0E0E0932505E0937B
:102048002605E4E0F0E0E0934505F0934605E093CB
:102058005105F0935205E0935505F09356050E94FB
:10206800F8180E94FF180E9405190E940A1968941E
:1020780020F821F81E9A22F8E7EBF0E0E0936905D2
:10208800F0936A05E0E5F0E0E0933B05F0933C054A
:10209800E0E0E0933D05E0933E05E0E4F0E0E09306
:1020A8003F05F0934005E0E0E0934105E0934205E9
:1020B800ACDB0E9498047BDC0E9410190E94151961
:1020C800E0932505F09326050E941019E0E8F0E05A
:1020D800FA93EA930E94CA03E0932F05F093300520
:1020E8000E941019E0E3F0E0FA93EA930E94CA0311
:1020F800E0933105F09332050EDC51DBA091250504
:10210800B09126050E947F180E941B190E94211970
:10211800A0916305B09164050E947F18E02911F42D
:102128000C942B16E0914905F0914A05309711F06F
:102138000C94FB10C69AE0916305F0916405309702
:1021480061F40E9410190E9410190E9427190E9418
:1021580010190E9410190E942D19E1E0F0E0E09397
:102168006305F09364050E943319119789F41E984A
:102178000E94381924F40E943E190E9443190E94B3
:10218800461934F40E9410190E9410190E944C1923
:102198000E943319129779F41E9A0E94381924F470
:1021A8000E944F190E9443190E94461924F40E9464
:1021B80054190E944C190E9459190E946019E02173
:1021C800A9F00E946C190E9476190E947C190E943D
:1021D8000A190E9481190E9410190E9415190E945B
:1021E800871921F4E1E0F0E00E9491192FC5E13050
:1021F800A0E0FA0711F00C9450110E9496190E9461
:102208007F18E02161F0E0916B05F0916C05FA937D
:10221800EA93E0916D05F0916E050E94A0190E9465
:1022280096190E94A31961F0E0916F05F09170056D
:10223800FA93EA93E0917105F09172050E94A01952
:102248000E94A9190E94EF1B0E2E0E94B019E021CE
:1022580041F00E94B919E0E0EA930E94B9190E947E
:10226800BD190E94B0190E2E0E94A9190E94DD1BEB
:10227800E02189F00E946C190E947C190E94C21901
:102288000E9410190E9415190E94871921F4E2E092
:10229800F0E00E949119DAC4E230A0E0FA07C1F434
:1022A8000E94C81924F40E94CE190E94D1190E94D4
:1022B800C81969F41A9AE0E00E94DA190E941519FF
:1022C8000E94871921F4E3E0F0E00E949119BEC44E
:1022D800E330A0E0FA0771F50E94C81924F40E94BF
:1022E800DC190E94DF190E94A9190E94E21909F15C
:1022F8000E94F119E0E00E947C190E94F919EA177E
:10230800FB0761F40E9410190E9415190E94871991
:1023180021F4E4E0F0E00E9491190BC00E9410192A
:102328000E9415190E94871921F4E2E0F0E00E944A
:1023380091198CC4E430A0E0FA07E9F40E94C819A6
:1023480034F40E94B9190E94B9190E94DF190E9439
:10235800C81981F41A98E0E00E94DA190E94151948
:102368000E94871939F4E0E0E0934D05E0934E05AB
:102378000E94021A6BC4E530A0E0FA0711F00C9431
:1023880071120E9459190E94051A0E940D1AE02123
:1023980031F00E9410190E9410190E9443190E94DE
:1023A80059190E94051A0E94101A21F00E94541906
:1023B8000E9443190E9459190E94DD1B0E94131A9A
:1023C8000E947A18E02141F00E94191AE1E0F0E039
:1023D800E0934D05F0934E050E9459190E941F1A6B
:1023E8000E947F180E940D1AE02131F0EAE5F0E022
:1023F8000E94221A0E9443190E9459190E941F1A0A
:102408000E947F180E94101A31F0EBE5F0E00E945C
:10241800221A0E9443190E9459190E941F1A0E94E9
:10242800A31921F00E94251A0E9443190E94281A14
:102438000E947A18E02121F00E94251A0E944C1966
:102448000E94281A0E947F180E940D1AE02121F08C
:102458000E944F190E944C190E94281A0E947F1846
:102468000E94101A21F00E943E190E944C190E94E5
:1024780059190E9460190E22A0914D05B0914E0580
:102488000E947F18E0211E2E0E9459190E9460198F
:102498000E22A0914D05B0914E050E94A319E12985
:1024A800D9F00E946C190E947C19E0E00E9476190C
:1024B8000E94361A0E9410190E9415190E94871945
:1024C80059F40E943F1A0E94151C14F40E94441AE1
:1024D800E6E0F0E00E949119B9C3E630A0E0FA07FF
:1024E80011F00C94C5120E94481A14F40E94591A4B
:1024F8000E945D1A159734F40E94CE190E94B919EA
:102508000E94621AA0915F05B0916005119721F4AD
:10251800E5E0F0E00E94ED180E94C81924F40E943A
:10252800CE190E94D1190E94A9190E94DD1B0E2EF6
:102538000E94671A0E94DD1BE02111F10E946B1AAC
:102548000E2E0E9433190E947F18E0211E2E0E9431
:10255800741A0E2E0E9433190E94A319E12909F05A
:102568001A9A1B9AE0E00E9476190E94DA190E94D2
:1025780015190E94871921F4E7E0F0E00E949119EB
:1025880065C3E730A0E0FA0701F50E94381924F482
:10259800E6E9F0E00E947D1A0E943819A9F40E9429
:1025A800191A0E94841AE0E0E0934F05E093500561
:1025B800E0935905E0935A05E0935B05E0935C05C9
:1025C800E0935D05E0935E0541C3E830A0E0FA07BB
:1025D80011F00C94E2130E9459190E94EF1B0E94FB
:1025E800881AE02121F0E7E9F0E00E947D1A0E94B4
:1025F80059190E94DD1B0E94881AE02131F00E94BF
:10260800191AAFE4B5E00E94991AE0915105F091CA
:102618005205A0914F05B09150050E949F1A0E9443
:102628007A18E02141F00E94191AE1E0F0E0E09305
:102638005905F0935A05A0915F05B091600511976F
:1026480021F4E5E0F0E00E94ED180E94A9190E942B
:10265800A71A0E947A18E02121F00E94DC190E9432
:10266800DF190E94A9190E94E219E9F0E0915F05BB
:10267800F0916005309719F4E0E00E947C19E09130
:102688005D05F0915E05309749F40E94F119E1E08B
:10269800F0E0E0935D05F0935E0505C0E0E0E093AF
:1026A8005D05E0935E050E94671A0E94AF1A0E94BA
:1026B8007A18E02141F00E94DC19E1E0EA93E0E0B9
:1026C800EA930E94B71A0E94671A0E94DD1B0E2E19
:1026D8000E94BA1A0E94EF1BE021D9F0E0E0E093D3
:1026E8003505E0933605E0915B05F0915C05309780
:1026F80059F4A3E5B5E00E94991AE1E0F0E0E0930F
:102708005B05F0935C0505C0E0E0E0935B05E093B2
:102718005C050E94671A0E94AF1A0E947F18E02188
:1027280031F00E94CE190E94B9190E94621A0E94C3
:10273800A9190E94A71A0E947F18E02121F00E947F
:10274800CE190E94D1190E9459190E94EF1B0E2E12
:10275800A0915905B0915A050E947F18E02121F0F7
:10276800E8E9F0E00E947D1A0E9459190E949F1A18
:102778000E947F180E220E94F9190E94DD1B0E226A
:102788000E94BA1A0E94DD1BE021B9F00E946C1960
:102798000E9476190E947C190E94841AE0E0E09356
:1027A8005305E0935405E0934F05E09350050E94CC
:1027B800591AE9E0F0E00E94911948C2E930A0E016
:1027C800FA0711F00C948E140E9433191197E9F549
:1027D8000E94671A0E94EF1B0E2E0E946B1AE021BE
:1027E80041F00E94B9190E94B919E0E0EA930E94E9
:1027F800621A0E94A9190E94C31A0E94CB1A31F0CA
:102808000E94B9190E94B9190E94DF190E94671A1B
:102818000E94C31A0E94D11A41F00E94B9190E945D
:10282800B9190E94B9190E94B71A0E94A9190E94E1
:10283800C31A0E94D71A49F00E94B9190E94B919FF
:102848000E94B919C9DA0E94ED180E94331912972B
:10285800E9F50E94671A0E94EF1B0E2E0E94741A57
:10286800E02141F00E94B9190E94B919E0E0EA9309
:102878000E94621A0E94A9190E94DD1A0E94CB1AAE
:1028880031F00E94B9190E94B9190E94DF190E94FB
:10289800671A0E94DD1A0E94D11A41F00E94B919E4
:1028A8000E94B9190E94B9190E94B71A0E94A91961
:1028B8000E94DD1A0E94D71A49F00E94B9190E9495
:1028C800B9190E94B91988DA0E94ED180E94671A8E
:1028D8000E94DD1B0E2E0E94A9190E94DD1BE0211B
:1028E800C1F01A981B98E0E00E947C19E0E0E093A0
:1028F8003505E0933605A7E5B5E00E94991AE2E0B0
:10290800F0E0E0934D05F0934E05EAE0F0E00E9418
:1029180091199CC1EA30A0E0FA0711F00C94FD145B
:102928000E9433190E947F180E94E51A71F10E94D3
:10293800F01A0E9427190E94F51AAE17BF0724F44F
:102948000E94021A0E9481190E94F51AEA17FB07D1
:1029580021F40E94021A0E94FB1A0E94021BEAE05C
:10296800F0E00E94DD1BE02121F0EBE0F0E00E94A6
:1029780091190E94021BEAE0F0E00E94E31BE021AB
:1029880021F0EEE0F0E00E9491190E943319E2E094
:10299800F0E00E94DD1B0E94E51A51F10E94F01A36
:1029A8000E942D190E940A1BAE17BF0724F40E942B
:1029B800021A0E9481190E940A1BEA17FB0721F4D8
:1029C8000E94021A0E94FB1A0E94101B0E94DD1B23
:1029D800E02121F0ECE0F0E00E9491190E94101B28
:1029E8000E94E31BE02121F0EEE0F0E00E94911943
:1029F8002DC1EB30A0E0FA07E9F40E94381934F44D
:102A0800E7E0F0E00E94221A0E9443190E9446194A
:102A180024F4E0E9F0E00E941F1B0E9459190E946B
:102A28006019E02131F00E94441A0E94191A0E948C
:102A3800241B0CC1EC30A0E0FA07E9F40E94381915
:102A480034F4E7E0F0E00E94221A0E9443190E9441
:102A5800461924F4E1E9F0E00E941F1B0E9459196D
:102A68000E946019E02131F00E94441A0E94191A4C
:102A78000E94241BEBC0ED30A0E0FA07B1F40E94DD
:102A8800461924F4E2E9F0E00E941F1B0E9446194F
:102A980059F40E94591AE0E0E0933705E0933805AD
:102AA800E0E1F0E00E949119D1C0EE30A0E0FA0711
:102AB800A1F40E94381924F40E94251A0E9443198F
:102AC8000E94381949F40E94191AE0E00E94361A47
:102AD800EFE0F0E00E949119B9C0EF30A0E0FA07EA
:102AE80061F40E94441A0E94481A34F40E94591A48
:102AF800E0E1F0E00E949119A9C0E031A0E0FA07F6
:102B080011F00C940316E0912F05F09130050E9406
:102B18003F1A0E94DD1B0E2E0E942C1B0E947A1861
:102B2800E021E9F00E940A190E94311B0E94151C3D
:102B380064F4E2E0F0E0E0936105F0936205E0E020
:102B4800E0934905E0934A0504C0E1E1F0E00E9402
:102B58009119E1E0F0E0E0936505F0936605E091F6
:102B68003105F09132050E943F1A0E94DD1B0E2E9E
:102B78000E94311B0E9421190E942C1B0E947F1861
:102B8800E02171F00E940A19E1E1F0E00E94911938
:102B98000E94F818E2E0F0E0E0936505F09366051E
:102BA8000E94361B0E9421190E942C1B0E94A31907
:102BB80069F00E94F818E0E00E9405191E98C6986E
:102BC8000E9410190E9410190E94401B0E94361B77
:102BD8000E947A180E220E942C1B0E947F18E02166
:102BE80069F00E94F818E0E00E9405191E9AC6983C
:102BF8000E9410190E9410190E94401B27C0E13141
:102C0800A0E0FA0719F50E94381924F40E943E1929
:102C18000E9443190E94461934F40E9410190E9418
:102C280010190E944C190E9459190E946019E0213C
:102C380069F00E94191AE0E0E0933705E09338053F
:102C48000E94FF18E0932505E093260557CA33CA6A
:102C5800FFCFA991B991EE27FF276D91662311F057
:102C68003196FBCF0895AA27BB27E991F9910590E2
:102C7800002011F01196FBCFFD0108955F9BFECF58
:102C8800ECB108955D9BFECFE881ECB921960895DB
:102C9800EA81EA93F7DFA881B9810E94991A2396FD
:102CA800089526970E941E1C10E0AC85BD85E0E0C3
:102CB800F0E0ED93FC93EA89FB893196EA8BFB8B74
:102CC8003197E4912E2FE03011F40C948217E12F04
:102CD800E03039F4253211F411E002C00E94461B9D
:102CE8000CC1E130A9F4253219F40E94461B04C135
:102CF80012E040E000E02D3211F401E0FEC02B327A
:102D080011F44BE2FAC0203211F440E2F6C002C0DE
:102D1800E23039F450E013E0203311F40068EDC0DC
:102D280004C0E33011F00C948117203310F02A33DB
:102D380008F007C0AAE05A9F502DE22FE0535E0F1B
:102D4800DCC0E22FE33649F40E944F1BE889F98979
:102D5800A481AA930E94551BCFC0E33741F40E9477
:102D68004F1B0E945D1B0E942D161E2F0AC0E037C4
:102D780061F40E944F1B0E945D1B0E9437161E2F94
:102D8800086002600F7730E035C0E43611F0E936AC
:102D980011F4046002C0E53731F4ECE8F0E0EE83AA
:102DA800FF8315E00DC0E83511F4086004C0E8376A
:102DB80011F00C948017E6E9F0E0EE83FF8314E04D
:102DC80002FF14C00E944F1B0E94651BAB85AA23FB
:102DD8003AF4EA85FB850E94CF1BEA87FB874DE220
:102DE800403011F01F5F01C00B7F04C00E944F1BD1
:102DF8000E94651B00FD11C0151778F407FF08C075
:102E080002FF04C00B7F242F115001C020E301C032
:102E180020E20E94461B5150EFCF312F01FF17C00F
:102E28003030A1F003FF06C0EE81FF812591EE83CB
:102E3800FF8305C0AE81BF812D91AE83BF830E9401
:102E4800461B503009F051503150EACF4BC020E3B7
:102E5800EE81FF810E94091CE887F987EE81FF81D6
:102E68003296EE83FF83E885F985AA85BB85AE1780
:102E7800BF0750F02F5FA885B985EA85FB85EA1B57
:102E8800FB0BEA87FB87EFCF2A3328F003FF02C04A
:102E9800295F01C0295D04FD1AC0213320F4A885EB
:102EA800B985119709F409C0531710F000FF01C044
:102EB80013C020E207FF0BC020E3006102FF07C038
:102EC8000B7F4A930E94551B503009F051500E94C5
:102ED800461B503009F051503150A885B9851297DA
:102EE80008F0B5CF00FF08C0503031F05150E0E293
:102EF800EA930E94551BF8CF10E0DDCEAC85BD8566
:102F08000E94FB1B0E94251C64960895FF92F82ED0
:102F180026971A930A93DE0114960E94CB1B8D0103
:102F2800E0E0EC83ED83EE83EF83DE0118960E94E8
:102F3800CB1B0E94FB1BFA93EA931A930A93ECE4C7
:102F4800F6E1FA93EA93FE013896FA93EA93A9DE3A
:102F5800198108812896FF9008950E94721BE881C4
:102F6800EA930E94A61BE0E0EA930E948B1BEA8387
:102F78000E94811BEA810895EAE5EA930E944616B9
:102F8800E5EAEA930C944616EA930E944616EC8109
:102F9800EA930E944616EA81EA930C9446160E9428
:102FA80042160E9442160C9442160E94FF1BEF5FC5
:102FB800FF4F6F4F7F4F0E94041C0895EE81FF81E1
:102FC800FA93EA9308950E944616E2E8EA930C946D
:102FD8004616E0EAF0E0FA93EA930895EA85FB855D
:102FE800FA93EA930895E3E0F5E0A1E00E940D1C4E
:102FF800E9E7F0E0FA93EA930895E0913B05F09150
:103008003C05FA93EA93E0913D05F0913E05FA9369
:10301800EA930C941004E1E0F5E0A1E00E940D1C95
:10302800E3E7F0E0FA93EA930895E029E0930205D4
:10303800F2CFE0E2F0E0FA93EA93E0E8F0E0FA9306
:10304800EA930895FA93EA93DA92CA920E944504A1
:10305800F601A7E0B5E0EE0FFF1FAE0FBF1F089502
:10306800E1E9F5E0FA93EA93C8CFE0913F05F091E2
:103078004005FA93EA93E0914105F0914205FA93ED
:10308800EA930C941004E8EEF3E0FA93EA930C94B4
:10309800BF1B0E94AB03A1E00E94D81B0895E5E086
:1030A800F5E0A1E00E940D1CE1E7F0E0FA93EA9355
:1030B8000895E4E0F5E0A1E00E940D1CE5E7F0E0EA
:1030C800FA93EA9308950E94C203A1E00E94D81BD4
:1030D8000895FA93EA9391CFFA93EA93C6CFEA2335
:1030E8000E2EA0916705B09168050895E0E0F0E024
:1030F8000E94DD1B0895E1E0F0E00E94DD1B0895C9
:10310800A0916705B0916805E2E0F0E00E94DD1B40
:103118000E2EA0E01E99A1E00895E0E0E093670577
:10312800E0936805E4E6F0E0FA93EA930C94BF1B99
:10313800E0E0E0931D05E0931E05E0931F05E09392
:1031480020050895E0E0E0930D05E0930E05E09377
:103158000F05E09310050895A230E0E0BE07E0E017
:103168008E07E0E09E070895E0933305F093340559
:103178000895E0E0E0931505E0931605E093170540
:10318800E09318050895E0933705F09338050895FE
:10319800E0930005E09362000895E0E0E0931105F4
:1031A800E0931205E0931305E09314050895E09366
:1031B8003505F09336050895E09300050895E0E09D
:1031C800E0931905E0931A05E0931B05E0931C05AD
:1031D8000895E0933905F0933A050895E0EDF7E096
:1031E800FA93EA930C94BF1BE1E0F0E0E0936105E9
:1031F800F09362050895E0E0E0936305E0936405C9
:103208000895E0936505E09366050895E0E0E0938E
:103218005705E09358050895E0E0F0E0FA93EA9343
:103228000895E0E4F0E0FA93EA930C94CA030E2EB2
:10323800A0912F05B09130050895E0E0F0E00E94DC
:10324800F51B0E220895E0E1F0E0FA93EA930C945E
:103258002D04E0E6F0E0FA93EA930C942D04A09193
:103268006105B09162050895A0913305B0913405C8
:1032780015970895E9E0F0E0FA93EA93CDCF0E941C
:10328800630D72CFA0913705B09138051597089551
:103298000E94C60D78CFE8E0F0E0FA93EA93BCCF3D
:1032A800E1E0F0E0FA93EA93B7CFA0913305B0914B
:1032B8003405E5E0F0E008950E94DD1B0E2EA09194
:1032C8003705B0913805E5E0F0E00E94DD1B089570
:1032D800E0E0E0933305E0933405E0933705E093AD
:1032E80038050895E0933505E0933605E0E0089544
:1032F800E0933905E0933A050895E0E0E0935F052F
:10330800E09360050895E0934B05F0934C05A09178
:103318004B05B0914C0511970895E0934905F0933A
:103328004A050895A0913705B0913805E5E0F0E029
:103338000E94EF1B0E2E93CFFA93EA93A9CFE2E0F7
:10334800F0E00E94DD1BE0210895A0913905B091BD
:103358003A05E5E0F0E00895A0913705B091380509
:10336800E5E0F0E00E94DD1B0895E0E0EA93EA93CF
:103378000895E1E0EA930E94F00E2BCFE0E0E0939D
:103388004705E09348050895A0913905B0913A059D
:1033980015970895E1E0EA93E8CFE0E0EA93E1E0E9
:1033A800EA93E0E0EA930E94F00E13CFA1DF34CF56
:1033B800E0E0EA93EFCFE0E0EA93DBCF0E94DD1B89
:1033C8000E2EE0914505F0914605A0914705B09174
:1033D80048050E94EF1BE0210895A7E4B5E0ED91B0
:1033E800FD913196FE93EE930895E0914505F09195
:1033F8004605A0914705B09148050895E5E0F0E03D
:103408008CCF0E94EF1B0E2EA0914D05B0914E055A
:103418006DCE0E2224DF6FCE0E2221DF90CF0E2E2E
:10342800A0914D05B0914E050895E0E0E093330575
:10343800E093340508950E94EF1BF1CFFA93EA93C5
:10344800EBCEE3E0F0E0FACFA0913705B091380574
:10345800E5E0F0E00E94EF1B0E2EA0915F05B09111
:1034680060050895E0932105E0932205E093230584
:10347800E09324050895A0915705B0915805089543
:10348800E0910005E06184CEE0916905F0916A055C
:10349800A0912105B09122058091230590912405E2
:1034A8000E94D31B0E94191C0895E0910005EF7E2D
:1034B8006FCEA0913505B09136050895E1E0EA9305
:1034C8000E942A0E74CEF5DFE5E0F0E00895E09161
:1034D8002F05F09130053197CEDF0E94E31B089548
:1034E800E0913105F09132053197C5DF0E94E31B69
:1034F8000895FA93EA93E1E0F0E0FA93EA93BFCEF5
:10350800E8E0F0E00ADF3ACF0E2EE0915105F091A5
:103518005205A0914F05B09150050E94EF1B0E2255
:10352800A0915905B0915A05E1CDED91FD913196E3
:10353800FE93EE9308950E94DD1B0E2EA09159056F
:10354800B0915A0508950E94EF1B0E2EA0915D05BB
:10355800B0915E0508950E94EF1B0E2EA0915B05A9
:10356800B0915C0508950E942A0E21CEE091550580
:10357800F0915605A0915305B091540508950E9405
:10358800EF1B0E2EE0912F05F0913005089532972C
:1035980072DF0E94EF1BE021089531976CDF0E94D3
:1035A800DD1BE0210895329766DF0E94E91BE021C8
:1035B80008950E94EF1B0E2EE0913105F09132051F
:1035C80008950E2EA0914905B0914A05E0E0F0E07B
:1035D8000E94E31BE0210895E0915705F0915805FA
:1035E8002DCFE0912F05F0913005319744CFE1E0E0
:1035F800F0E0E0935F05F09360050895E0912F05F2
:10360800F091300538DF0E94DD1B11CEE0913105C5
:10361800F091320531972FCFE0913105F0913205C5
:103628002ADF0E94DD1B0E2EA0913105B0913205D4
:10363800EAE0F0E00895FA93EA93E1E0F0E07CCE66
:10364800E0E0E0933705E0933805EDE0F0E065CE83
:10365800A0916505B09166050895A0913105B091D6
:1036680032050895A0912F05B0913005E0E0F0E013
:103678000E94F51B0E2EF1CFE0E4F0E0FA93EA93F6
:103688000C942D042A93ED85FE85FA93EA93E98933
:10369800FA8909950895E889F9893497E88BF98BAF
:1036A8000895ED85FE85FA93EA93E989FA890995E3
:1036B8000895A889B98914960E94FB1BEE83FF839D
:1036C8007DCCA889B98914960E94FB1BEA87FB87E1
:1036D800089590989198889A899815C0899888989B
:1036E800EE270000819B0895809B089504D0899A55
:1036F80002D0889AE1E06BE107C0899A889A03D0E2
:103708008898F9DF899865E36A95F1F7089578E074
:103718008898F1DF809BFECFEEDF8894819908942A
:10372800889AF1DFEE1F7A9599F77991772311F44A
:10373800899801C0899ADFDF8898E5DF889ADBDFFE
:103748008998D9CFE99178E0EE0F10F4899801C0F3
:10375800899AD9DF8898CFDF809BFECFCCDF889A03
:103768007A9591F78998C7DF8898CDDFE1E081994C
:10377800EE27889AC0CFE991F991309639F080EA1E
:103788009FE00197F1F7A8953197C9F708950024AC
:10379800AF0DB01D0895F195E195F04008956F2F94
:1037A800660F660B762F0895EA17E1E009F0EE2719
:1037B8000895EA17FB07E1E009F0EE270895EA17F4
:1037C800FB07E1E009F4EE270895AE17BF07E1E033
:1037D8000CF4EE270895AE17BF07E1E00CF0EE27D2
:1037E8000895EA17FB07E1E00CF0EE270895ED9144
:1037F800FC9111970895ED91FD916D917D9108953A
:103808007E936E93FE93EE9308950590F491E02DC8
:103818000895BB27EA0FFB1F02900A921197E1F760
:10382800089500240A160B060895EA17FB0768078F
:10383800790708955A934A933A932A931A930A93C5
:1038480008955D814C813B812A8119810881089501
:00000001FF
